1MAIL0000066223BR23        BRG1        BRG1COCO    BRG1COCO13AG2018030900:00:00OR  01000003830054000383005466223                              2018030920180310Z016CIF201803100000000000020765NN0                                                  0
2MAIL0000066223BR23        BRG1        BRG1COCO    BRG1COCO13AG00000100000000001132019700000000000000100000000000000000000000002184Z01620180310X066005000
2MAIL0000066223BR23        BRG1        BRG1COCO    BRG1COCO13AG00000200000000001132019800000000000000100000000000000000000000002184Z01620180310X066005000
2MAIL0000066223BR23        BRG1        BRG1COCO    BRG1COCO13AG00000300000000001132019900000000000000100000000000000000000000002184Z01620180310X066005000
2MAIL0000066223BR23        BRG1        BRG1COCO    BRG1COCO13AG00000400000000001132020900000000000000100000000000000000000000002184Z01620180310X066005000
2MAIL0000066223BR23        BRG1        BRG1COCO    BRG1COCO13AG00000500000000001132033100000000000000100000000000000000000000001641Z01620180310X066015000
2MAIL0000066223BR23        BRG1        BRG1COCO    BRG1COCO13AG00000600000000001132036700000000000000200000000000000000000000003281Z01620180310X066015000
2MAIL0000066223BR23        BRG1        BRG1COCO    BRG1COCO13AG00000700000000001215533700000000000000100000000000000000000000001641Z01620180310X066015000
2MAIL0000066223BR23        BRG1        BRG1COCO    BRG1COCO13AG00000800000000001227395500000000000000100000000000000000000000001641Z01620180310X066015000
2MAIL0000066223BR23        BRG1        BRG1COCO    BRG1COCO13AG00000900000000001227735000000000000000100000000000000000000000002184Z01620180310X066005000
2MAIL0000066223BR23        BRG1        BRG1COCO    BRG1COCO13AG00001000000000001233695100000000000000100000000000000000000000001641Z01620180310X066015000
1MAIL0000066224BR23        BRG1        BRG1COCO    BRG1COCO13AG2018030900:00:00OR  01000004170390000417039066224                              2018030920180310Z016CIF201803100000000000204723NN0                                                  0
2MAIL0000066224BR23        BRG1        BRG1COCO    BRG1COCO13AG00000100000000001132030800000000000006000000000000000000000000174988Z01620180310X066015000
2MAIL0000066224BR23        BRG1        BRG1COCO    BRG1COCO13AG00000200000000001214448900000000000000500000000000000000000000029735Z01620180310X066018000
1MAIL0000066225BR23        BRG1        BRG1COCO    BRG1COCO13AG2018030900:00:00OR  01000005513866000551386666225                              2018030920180310Z016CIF201803100000000000042391NN0                                                  0
2MAIL0000066225BR23        BRG1        BRG1COCO    BRG1COCO13AG00000100000000001132030800000000000001200000000000000000000000035551Z01620180310X066018000
2MAIL0000066225BR23        BRG1        BRG1COCO    BRG1COCO13AG00000200000000001132033100000000000000200000000000000000000000003420Z01620180310X066015000
2MAIL0000066225BR23        BRG1        BRG1COCO    BRG1COCO13AG00000300000000001132036700000000000000200000000000000000000000003420Z01620180310X066015000
1MAIL0000066226BR23        BRG1        BRG1COCO    BRG1COCO13AG2018030900:00:00OR  01000004114269000411426966226                              2018030920180310ZG40CIF201803100000000000005034NN0                                                  0
2MAIL0000066226BR23        BRG1        BRG1COCO    BRG1COCO13AG00000100000000001132033100000000000000100000000000000000000000001678ZG4020180310X066015000
2MAIL0000066226BR23        BRG1        BRG1COCO    BRG1COCO13AG00000200000000001132036700000000000000200000000000000000000000003356ZG4020180310X066015000
1MAIL0000066227BR23        BRG1        BRG1COCO    BRG1COCO13AG2018030900:00:00OR  01000004170390000417039066227                              2018030920180310Z016CIF201803100000000000042404NN0                                                  0
2MAIL0000066227BR23        BRG1        BRG1COCO    BRG1COCO13AG00000100000000001228090100000000000006000000000000000000000000038868Z01620180310X066000000
2MAIL0000066227BR23        BRG1        BRG1COCO    BRG1COCO13AG00000200000000001234705800000000000000100000000000000000000000003536Z01620180310X066005000
1MAIL0000066228BR23        BRG1        BRG1COCO    BRG1COCO13AG2018030900:00:00OR  01000005051115000505111566228                              2018030920180310Z859CIF201803100000000000023276NN0                                                  0
2MAIL0000066228BR23        BRG1        BRG1COCO    BRG1COCO13AG00000100000000001235737300000000000000800000000000000000000000023276Z85920180310X066000000
1MAIL0000066229BR23        BRG1        BRG1COCO    BRG1COCO13AG2018030900:00:00OR  01000002979993000297999366229                              2018030920180310Z859CIF201803100000000000023276NN0                                                  0
2MAIL0000066229BR23        BRG1        BRG1COCO    BRG1COCO13AG00000100000000001235737300000000000000800000000000000000000000023276Z85920180310X066000000
1MAIL0000066230BR23        BRG1        BRG1COCO    BRG1COCO13AG2018030900:00:00OR  01000005513866000551386666230                              2018030920180310ZG40CIF201803100000000000005171NN0                                                  0
2MAIL0000066230BR23        BRG1        BRG1COCO    BRG1COCO13AG00000100000000001214451500000000000000100000000000000000000000005171ZG4020180310X066018000
1MAIL0000066231BR23        BRG1        BRG1COCO    BRG1COCO13AG2018030900:00:00OR  01000005154137000515413766231                              2018030920180310ZG40CIF201803100000000000278894NN0                                                  0
2MAIL0000066231BR23        BRG1        BRG1COCO    BRG1COCO13AG00000100000000001132033100000000000001600000000000000000000000025262ZG4020180310X066007000
2MAIL0000066231BR23        BRG1        BRG1COCO    BRG1COCO13AG00000200000000001132036700000000000003200000000000000000000000050523ZG4020180310X066007000
2MAIL0000066231BR23        BRG1        BRG1COCO    BRG1COCO13AG00000300000000001215533700000000000001600000000000000000000000025262ZG4020180310X066007000
2MAIL0000066231BR23        BRG1        BRG1COCO    BRG1COCO13AG00000400000000001223975300000000000000800000000000000000000000028928ZG4020180310X066005000
2MAIL0000066231BR23        BRG1        BRG1COCO    BRG1COCO13AG00000500000000001227395500000000000001600000000000000000000000025262ZG4020180310X066007000
2MAIL0000066231BR23        BRG1        BRG1COCO    BRG1COCO13AG00000600000000001228100400000000000005000000000000000000000000094729ZG4020180310X066018000
2MAIL0000066231BR23        BRG1        BRG1COCO    BRG1COCO13AG00000700000000001231189200000000000000800000000000000000000000028928ZG4020180310X066005000
1MAIL0000066232BR23        BRG1        BRG1COCO    BRG1COCO13AG2018030900:00:00OR  01000005482681000548268166232                              2018030920180310Z016CIF201803100000000000010694NN0                                                  0
2MAIL0000066232BR23        BRG1        BRG1COCO    BRG1COCO13AG00000100000000001228090100000000000001500000000000000000000000010694Z01620180310X066004960
1MAIL0000066233BR23        BRG1        BRG1COCO    BRG1COCO13AG2018030900:00:00OR  01000001144147000114414766233                              2018030920180310Z016CIF201803100000000000014769NN0                                                  0
2MAIL0000066233BR23        BRG1        BRG1COCO    BRG1COCO13AG00000100000000001132033100000000000000300000000000000000000000004923Z01620180310X066015000
2MAIL0000066233BR23        BRG1        BRG1COCO    BRG1COCO13AG00000200000000001132036700000000000000500000000000000000000000008205Z01620180310X066015000
2MAIL0000066233BR23        BRG1        BRG1COCO    BRG1COCO13AG00000300000000001215533700000000000000100000000000000000000000001641Z01620180310X066015000
1MAIL0000066234BR23        BRG1        BRG1COCO    BRG1COCO13AG2018030900:00:00OR  01000003949567000394956766234                              2018030920180310Z016CIF201803100000000000051439NN0                                                  0
2MAIL0000066234BR23        BRG1        BRG1COCO    BRG1COCO13AG00000100000000001132036700000000000000600000000000000000000000009846Z01620180310X066015000
2MAIL0000066234BR23        BRG1        BRG1COCO    BRG1COCO13AG00000200000000001132200400000000000000600000000000000000000000010651Z01620180310X066004850
2MAIL0000066234BR23        BRG1        BRG1COCO    BRG1COCO13AG00000300000000001228090100000000000001500000000000000000000000010694Z01620180310X066004960
2MAIL0000066234BR23        BRG1        BRG1COCO    BRG1COCO13AG00000400000000001228100400000000000000400000000000000000000000008618Z01620180310X066018000
2MAIL0000066234BR23        BRG1        BRG1COCO    BRG1COCO13AG00000500000000001236512800000000000001500000000000000000000000002623Z01620180310X066000000
2MAIL0000066234BR23        BRG1        BRG1COCO    BRG1COCO13AG00000600000000001236512900000000000002000000000000000000000000003192Z01620180310X066005000
2MAIL0000066234BR23        BRG1        BRG1COCO    BRG1COCO13AG00000700000000001236514100000000000001500000000000000000000000002623Z01620180310X066000000
2MAIL0000066234BR23        BRG1        BRG1COCO    BRG1COCO13AG00000800000000001236515000000000000002000000000000000000000000003192Z01620180310X066005000
1MAIL0000066235BR23        BRG1        BRG1COCO    BRG1COCO13AG2018030900:00:00OR  01000005154137000515413766235                              2018030920180310ZG40CIF201803100000000000156430NN0                                                  0
2MAIL0000066235BR23        BRG1        BRG1COCO    BRG1COCO13AG00000100000000001235356200000000000004500000000000000000000000096059ZG4020180310X066000000
2MAIL0000066235BR23        BRG1        BRG1COCO    BRG1COCO13AG00000200000000001235562300000000000000300000000000000000000000016456ZG4020180310X066000000
2MAIL0000066235BR23        BRG1        BRG1COCO    BRG1COCO13AG00000300000000001235737300000000000001600000000000000000000000043915ZG4020180310X066000000
1MAIL0000066236BR23        BRG1        BRG1COCO    BRG1COCO13AG2018030900:00:00OR  01000003486791000348679166236                              2018030920180310Z016CIF201803100000000000016028NN0                                                  0
2MAIL0000066236BR23        BRG1        BRG1COCO    BRG1COCO13AG00000100000000001132033100000000000000100000000000000000000000001641Z01620180310X066015000
2MAIL0000066236BR23        BRG1        BRG1COCO    BRG1COCO13AG00000200000000001132036700000000000000100000000000000000000000001641Z01620180310X066015000
2MAIL0000066236BR23        BRG1        BRG1COCO    BRG1COCO13AG00000300000000001228274000000000000000100000000000000000000000004522Z01620180310X066005000
2MAIL0000066236BR23        BRG1        BRG1COCO    BRG1COCO13AG00000400000000001234705700000000000000100000000000000000000000004522Z01620180310X066005000
2MAIL0000066236BR23        BRG1        BRG1COCO    BRG1COCO13AG00000500000000001235699700000000000001000000000000000000000000003702Z01620180310X066006000
1MAIL0000066237BR23        BRG1        BRG1COCO    BRG1COCO13AG2018030900:00:00OR  01000003486791000348679166237                              2018030920180310Z859CIF201803100000000000006788NN0                                                  0
2MAIL0000066237BR23        BRG1        BRG1COCO    BRG1COCO13AG00000100000000001235356200000000000000300000000000000000000000006788Z85920180310X066000000
1MAIL0000066238BR23        BRG1        BRG1COCO    BRG1COCO13AG2018030900:00:00OR  01000005578909000557890966238                              2018030920180310Z016CIF201803100000000000018866NN0                                                  0
2MAIL0000066238BR23        BRG1        BRG1COCO    BRG1COCO13AG00000100000000001132019700000000000000100000000000000000000000002184Z01620180310X066005000
2MAIL0000066238BR23        BRG1        BRG1COCO    BRG1COCO13AG00000200000000001132019800000000000000100000000000000000000000002184Z01620180310X066005000
2MAIL0000066238BR23        BRG1        BRG1COCO    BRG1COCO13AG00000300000000001132019900000000000000100000000000000000000000002184Z01620180310X066005000
2MAIL0000066238BR23        BRG1        BRG1COCO    BRG1COCO13AG00000400000000001132020900000000000000100000000000000000000000002184Z01620180310X066005000
2MAIL0000066238BR23        BRG1        BRG1COCO    BRG1COCO13AG00000500000000001132036700000000000000100000000000000000000000001738Z01620180310X066010000
2MAIL0000066238BR23        BRG1        BRG1COCO    BRG1COCO13AG00000600000000001132200400000000000000100000000000000000000000001866Z01620180310X066000000
2MAIL0000066238BR23        BRG1        BRG1COCO    BRG1COCO13AG00000700000000001227395500000000000000100000000000000000000000001738Z01620180310X066010000
2MAIL0000066238BR23        BRG1        BRG1COCO    BRG1COCO13AG00000800000000001236512900000000000001500000000000000000000000002394Z01620180310X066005000
2MAIL0000066238BR23        BRG1        BRG1COCO    BRG1COCO13AG00000900000000001236515000000000000001500000000000000000000000002394Z01620180310X066005000
1MAIL0000066239BR23        BRG1        BRG1COCO    BRG1COCO13AG2018030900:00:00OR  01000005532769000553276966239                              2018030920180310Z016CIF201803100000000000029412NN0                                                  0
2MAIL0000066239BR23        BRG1        BRG1COCO    BRG1COCO13AG00000100000000001233114700000000000000500000000000000000000000006463Z01620180310X066000000
2MAIL0000066239BR23        BRG1        BRG1COCO    BRG1COCO13AG00000200000000001235356200000000000000500000000000000000000000011314Z01620180310X066000000
2MAIL0000066239BR23        BRG1        BRG1COCO    BRG1COCO13AG00000300000000001235562300000000000000100000000000000000000000005816Z01620180310X066000000
2MAIL0000066239BR23        BRG1        BRG1COCO    BRG1COCO13AG00000400000000001235737300000000000000200000000000000000000000005819Z01620180310X066000000
1MAIL0000066240BR23        BRG1        BRG1COCO    BRG1COCO13AG2018030900:00:00OR  01000005532769000553276966240                              2018030920180310Z016CIF201803100000000000024862NN0                                                  0
2MAIL0000066240BR23        BRG1        BRG1COCO    BRG1COCO13AG00000100000000001132036700000000000000100000000000000000000000001411Z01620180310X066015000
2MAIL0000066240BR23        BRG1        BRG1COCO    BRG1COCO13AG00000200000000001227395500000000000000100000000000000000000000001411Z01620180310X066015000
2MAIL0000066240BR23        BRG1        BRG1COCO    BRG1COCO13AG00000300000000001228090100000000000003000000000000000000000000018656Z01620180310X066004000
2MAIL0000066240BR23        BRG1        BRG1COCO    BRG1COCO13AG00000400000000001236512800000000000001000000000000000000000000001692Z01620180310X066000000
2MAIL0000066240BR23        BRG1        BRG1COCO    BRG1COCO13AG00000500000000001236514100000000000001000000000000000000000000001692Z01620180310X066000000
1MAIL0000066241BR23        BRG1        BRG1COCO    BRG1COCO13AG2018030900:00:00OR  01000005491082000549108266241                              2018030920180310Z016CIF201803100000000000007271NN0                                                  0
2MAIL0000066241BR23        BRG1        BRG1COCO    BRG1COCO13AG00000100000000001132036700000000000000200000000000000000000000003420Z01620180310X066015000
2MAIL0000066241BR23        BRG1        BRG1COCO    BRG1COCO13AG00000200000000001215533700000000000000100000000000000000000000001710Z01620180310X066015000
2MAIL0000066241BR23        BRG1        BRG1COCO    BRG1COCO13AG00000300000000001227395500000000000000100000000000000000000000001710Z01620180310X066015000
2MAIL0000066241BR23        BRG1        BRG1COCO    BRG1COCO13AG00000400000000001236528200000000000000100000000000000000000000000431Z01620180310X066000000
1MAIL0000066242BR23        BRG1        BRG1COCO    BRG1COCO13AG2018030900:00:00OR  01000003853590000385359066242                              2018030920180310Z016CIF201803100000000000072010NN0                                                  0
2MAIL0000066242BR23        BRG1        BRG1COCO    BRG1COCO13AG00000100000000001132033100000000000000100000000000000000000000001641Z01620180310X066015000
2MAIL0000066242BR23        BRG1        BRG1COCO    BRG1COCO13AG00000200000000001132036700000000000000100000000000000000000000001641Z01620180310X066015000
2MAIL0000066242BR23        BRG1        BRG1COCO    BRG1COCO13AG00000300000000001132200400000000000000200000000000000000000000003550Z01620180310X066004850
2MAIL0000066242BR23        BRG1        BRG1COCO    BRG1COCO13AG00000400000000001226089600000000000001200000000000000000000000004053Z01620180310X066009960
2MAIL0000066242BR23        BRG1        BRG1COCO    BRG1COCO13AG00000500000000001228090100000000000003000000000000000000000000021413Z01620180310X066004850
2MAIL0000066242BR23        BRG1        BRG1COCO    BRG1COCO13AG00000600000000001233081900000000000001400000000000000000000000004964Z01620180310X066009960
2MAIL0000066242BR23        BRG1        BRG1COCO    BRG1COCO13AG00000700000000001233098400000000000001400000000000000000000000004964Z01620180310X066009960
2MAIL0000066242BR23        BRG1        BRG1COCO    BRG1COCO13AG00000800000000001233098500000000000001400000000000000000000000004964Z01620180310X066009960
2MAIL0000066242BR23        BRG1        BRG1COCO    BRG1COCO13AG00000900000000001233098600000000000001400000000000000000000000004964Z01620180310X066009960
2MAIL0000066242BR23        BRG1        BRG1COCO    BRG1COCO13AG00001000000000001233098800000000000001400000000000000000000000004964Z01620180310X066009960
2MAIL0000066242BR23        BRG1        BRG1COCO    BRG1COCO13AG00001100000000001233099500000000000001400000000000000000000000004964Z01620180310X066009960
2MAIL0000066242BR23        BRG1        BRG1COCO    BRG1COCO13AG00001200000000001233154200000000000001400000000000000000000000004964Z01620180310X066009960
2MAIL0000066242BR23        BRG1        BRG1COCO    BRG1COCO13AG00001300000000001234708700000000000001400000000000000000000000004964Z01620180310X066009960
1MAIL0000066243BR23        BRG1        BRG1COCO    BRG1COCO13AG2018030900:00:00OR  01000005018590000501859066243                              2018030920180310Z016CIF201803100000000000062956NN0                                                  0
2MAIL0000066243BR23        BRG1        BRG1COCO    BRG1COCO13AG00000100000000001132033100000000000000100000000000000000000000001710Z01620180310X066015000
2MAIL0000066243BR23        BRG1        BRG1COCO    BRG1COCO13AG00000200000000001226089600000000000001200000000000000000000000004221Z01620180310X066010000
2MAIL0000066243BR23        BRG1        BRG1COCO    BRG1COCO13AG00000300000000001233081900000000000001400000000000000000000000005171Z01620180310X066010000
2MAIL0000066243BR23        BRG1        BRG1COCO    BRG1COCO13AG00000400000000001233098400000000000001400000000000000000000000005171Z01620180310X066010000
2MAIL0000066243BR23        BRG1        BRG1COCO    BRG1COCO13AG00000500000000001233098600000000000001400000000000000000000000005171Z01620180310X066010000
2MAIL0000066243BR23        BRG1        BRG1COCO    BRG1COCO13AG00000600000000001233098800000000000001400000000000000000000000005171Z01620180310X066010000
2MAIL0000066243BR23        BRG1        BRG1COCO    BRG1COCO13AG00000700000000001233099500000000000001400000000000000000000000004999Z01620180310X066013000
2MAIL0000066243BR23        BRG1        BRG1COCO    BRG1COCO13AG00000800000000001233154200000000000001400000000000000000000000005171Z01620180310X066010000
2MAIL0000066243BR23        BRG1        BRG1COCO    BRG1COCO13AG00000900000000001234705700000000000000200000000000000000000000009426Z01620180310X066005000
2MAIL0000066243BR23        BRG1        BRG1COCO    BRG1COCO13AG00001000000000001234708700000000000001400000000000000000000000005171Z01620180310X066010000
2MAIL0000066243BR23        BRG1        BRG1COCO    BRG1COCO13AG00001100000000001235699400000000000001000000000000000000000000003858Z01620180310X066006000
2MAIL0000066243BR23        BRG1        BRG1COCO    BRG1COCO13AG00001200000000001235699700000000000001000000000000000000000000003858Z01620180310X066006000
2MAIL0000066243BR23        BRG1        BRG1COCO    BRG1COCO13AG00001300000000001235699800000000000001000000000000000000000000003858Z01620180310X066006000
1MAIL0000066244BR23        BRG1        BRG1COCO    BRG1COCO13AG2018030900:00:00OR  01000004065943000406594366244                              2018030920180310Z846CIF201803100000000000004433NN0                                                  0
2MAIL0000066244BR23        BRG1        BRG1COCO    BRG1COCO13AG00000100000000001235356200000000000000200000000000000000000000004433Z84620180310X066000000
1MAIL0000066245BR23        BRG1        BRG1COCO    BRG1COCO13AG2018030900:00:00OR  01000004008730000400873066245                              2018030920180310Z846CIF201803100000000000004433NN0                                                  0
2MAIL0000066245BR23        BRG1        BRG1COCO    BRG1COCO13AG00000100000000001235356200000000000000200000000000000000000000004433Z84620180310X066000000
1MAIL0000066246BR23        BRG1        BRG1COCO    BRG1COCO13AG2018030900:00:00OR  01000004032569000403256966246                              2018030920180310Z846CIF201803100000000000004433NN0                                                  0
2MAIL0000066246BR23        BRG1        BRG1COCO    BRG1COCO13AG00000100000000001235356200000000000000200000000000000000000000004433Z84620180310X066000000
1MAIL0000066247BR23        BRG1        BRG1COCO    BRG1COCO13AG2018030900:00:00OR  01000004032427000403242766247                              2018030920180310Z846CIF201803100000000000006650NN0                                                  0
2MAIL0000066247BR23        BRG1        BRG1COCO    BRG1COCO13AG00000100000000001235356200000000000000300000000000000000000000006650Z84620180310X066000000
1MAIL0000066248BR23        BRG1        BRG1COCO    BRG1COCO13AG2018030900:00:00OR  01000004033558000403355866248                              2018030920180310Z016CIF201803100000000000222733NN0                                                  0
2MAIL0000066248BR23        BRG1        BRG1COCO    BRG1COCO13AG00000100000000001228090100000000000030000000000000000000000000222733Z01620180310X066004960
1MAIL0000066249BR23        BRG1        BRG1COCO    BRG1COCO13AG2018030900:00:00OR  01000002856941000285694166249                              2018030920180310Z859CIF201803100000000000057217NN0                                                  0
2MAIL0000066249BR23        BRG1        BRG1COCO    BRG1COCO13AG00000100000000001235356200000000000001500000000000000000000000033941Z85920180310X066000000
2MAIL0000066249BR23        BRG1        BRG1COCO    BRG1COCO13AG00000200000000001235737300000000000000800000000000000000000000023276Z85920180310X066000000
1MAIL0000066250BR23        BRG1        BRG1COCO    BRG1COCO13AG2018030900:00:00OR  01000004767346000476734666250                              2018030920180310Z016CIF201803100000000000126437NN0                                                  0
2MAIL0000066250BR23        BRG1        BRG1COCO    BRG1COCO13AG00000100000000001132019800000000000000100000000000000000000000002184Z01620180310X066005000
2MAIL0000066250BR23        BRG1        BRG1COCO    BRG1COCO13AG00000200000000001132033100000000000000600000000000000000000000009849Z01620180310X066015000
2MAIL0000066250BR23        BRG1        BRG1COCO    BRG1COCO13AG00000300000000001132036700000000000000600000000000000000000000009849Z01620180310X066015000
2MAIL0000066250BR23        BRG1        BRG1COCO    BRG1COCO13AG00000400000000001132200400000000000000100000000000000000000000001775Z01620180310X066004850
2MAIL0000066250BR23        BRG1        BRG1COCO    BRG1COCO13AG00000500000000001132213000000000000000300000000000000000000000011311Z01620180310X066004950
2MAIL0000066250BR23        BRG1        BRG1COCO    BRG1COCO13AG00000600000000001132213100000000000000300000000000000000000000011311Z01620180310X066004950
2MAIL0000066250BR23        BRG1        BRG1COCO    BRG1COCO13AG00000700000000001215533700000000000000200000000000000000000000003282Z01620180310X066015000
2MAIL0000066250BR23        BRG1        BRG1COCO    BRG1COCO13AG00000800000000001226089600000000000001200000000000000000000000004051Z01620180310X066010000
2MAIL0000066250BR23        BRG1        BRG1COCO    BRG1COCO13AG00000900000000001227395500000000000000200000000000000000000000003282Z01620180310X066015000
2MAIL0000066250BR23        BRG1        BRG1COCO    BRG1COCO13AG00001000000000001228100400000000000000300000000000000000000000006464Z01620180310X066018000
2MAIL0000066250BR23        BRG1        BRG1COCO    BRG1COCO13AG00001100000000001231189200000000000000100000000000000000000000004522Z01620180310X066005000
2MAIL0000066250BR23        BRG1        BRG1COCO    BRG1COCO13AG00001200000000001231389600000000000000200000000000000000000000003282Z01620180310X066015000
2MAIL0000066250BR23        BRG1        BRG1COCO    BRG1COCO13AG00001300000000001233098400000000000001400000000000000000000000004962Z01620180310X066010000
2MAIL0000066250BR23        BRG1        BRG1COCO    BRG1COCO13AG00001400000000001233098600000000000001400000000000000000000000004962Z01620180310X066010000
2MAIL0000066250BR23        BRG1        BRG1COCO    BRG1COCO13AG00001500000000001233098800000000000001400000000000000000000000004962Z01620180310X066010000
2MAIL0000066250BR23        BRG1        BRG1COCO    BRG1COCO13AG00001600000000001233695100000000000000200000000000000000000000003282Z01620180310X066015000
2MAIL0000066250BR23        BRG1        BRG1COCO    BRG1COCO13AG00001700000000001235356200000000000000400000000000000000000000009051Z01620180310X066000000
2MAIL0000066250BR23        BRG1        BRG1COCO    BRG1COCO13AG00001800000000001235737300000000000000400000000000000000000000011638Z01620180310X066000000
2MAIL0000066250BR23        BRG1        BRG1COCO    BRG1COCO13AG00001900000000001236512800000000000001500000000000000000000000002623Z01620180310X066000000
2MAIL0000066250BR23        BRG1        BRG1COCO    BRG1COCO13AG00002000000000001236512900000000000003500000000000000000000000005586Z01620180310X066005000
2MAIL0000066250BR23        BRG1        BRG1COCO    BRG1COCO13AG00002100000000001236514100000000000001500000000000000000000000002623Z01620180310X066000000
2MAIL0000066250BR23        BRG1        BRG1COCO    BRG1COCO13AG00002200000000001236515000000000000003500000000000000000000000005586Z01620180310X066005000
1MAIL0000066251BR23        BRG1        BRG1COCO    BRG1COCO13AG2018030900:00:00OR  01000005230363000523036366251                              2018030920180310Z016CIF201803100000000000018877NN0                                                  0
2MAIL0000066251BR23        BRG1        BRG1COCO    BRG1COCO13AG00000100000000001132019700000000000000100000000000000000000000002184Z01620180310X066005000
2MAIL0000066251BR23        BRG1        BRG1COCO    BRG1COCO13AG00000200000000001132019800000000000000100000000000000000000000002184Z01620180310X066005000
2MAIL0000066251BR23        BRG1        BRG1COCO    BRG1COCO13AG00000300000000001132020900000000000000100000000000000000000000002184Z01620180310X066005000
2MAIL0000066251BR23        BRG1        BRG1COCO    BRG1COCO13AG00000400000000001132036700000000000000200000000000000000000000003281Z01620180310X066015000
2MAIL0000066251BR23        BRG1        BRG1COCO    BRG1COCO13AG00000500000000001231189200000000000000100000000000000000000000004522Z01620180310X066005000
2MAIL0000066251BR23        BRG1        BRG1COCO    BRG1COCO13AG00000600000000001231231200000000000000100000000000000000000000004522Z01620180310X066005000
1MAIL0000066252BR23        BRG1        BRG1COCO    BRG1COCO13AG2018030900:00:00OR  01000005230363000523036366252                              2018030920180310Z859CIF201803100000000000057217NN0                                                  0
2MAIL0000066252BR23        BRG1        BRG1COCO    BRG1COCO13AG00000100000000001235356200000000000001500000000000000000000000033941Z85920180310X066000000
2MAIL0000066252BR23        BRG1        BRG1COCO    BRG1COCO13AG00000200000000001235737300000000000000800000000000000000000000023276Z85920180310X066000000
1MAIL0000066253BR23        BRG1        BRG1COCO    BRG1COCO13AG2018030900:00:00OR  01000002880010000288001066253                              2018030920180310Z016CIF201803100000000000009051NN0                                                  0
2MAIL0000066253BR23        BRG1        BRG1COCO    BRG1COCO13AG00000100000000001235356200000000000000400000000000000000000000009051Z01620180310X066000000
1MAIL0000066254BR23        BRG1        BRG1COCO    BRG1COCO13AG2018030900:00:00OR  01000002910719000291071966254                              2018030920180310Z016CIF201803100000000000002184NN0                                                  0
2MAIL0000066254BR23        BRG1        BRG1COCO    BRG1COCO13AG00000100000000001132019800000000000000100000000000000000000000002184Z01620180310X066005000
1MAIL0000066255BR23        BRG1        BRG1COCO    BRG1COCO13AG2018030900:00:00OR  01000002910719000291071966255                              2018030920180310Z016CIF201803100000000000035814NN0                                                  0
2MAIL0000066255BR23        BRG1        BRG1COCO    BRG1COCO13AG00000100000000001132036700000000000000200000000000000000000000003281Z01620180310X066015000
2MAIL0000066255BR23        BRG1        BRG1COCO    BRG1COCO13AG00000200000000001226089600000000000001200000000000000000000000004055Z01620180310X066009920
2MAIL0000066255BR23        BRG1        BRG1COCO    BRG1COCO13AG00000300000000001233081900000000000001400000000000000000000000004967Z01620180310X066009920
2MAIL0000066255BR23        BRG1        BRG1COCO    BRG1COCO13AG00000400000000001233098400000000000001400000000000000000000000004967Z01620180310X066009920
2MAIL0000066255BR23        BRG1        BRG1COCO    BRG1COCO13AG00000500000000001233098600000000000001400000000000000000000000004967Z01620180310X066009920
2MAIL0000066255BR23        BRG1        BRG1COCO    BRG1COCO13AG00000600000000001235356200000000000000600000000000000000000000013577Z01620180310X066000000
1MAIL0000066256BR23        BRG1        BRG1COCO    BRG1COCO13AG2018030900:00:00OR  01000005354437000535443766256                              2018030920180310Z016CIF201803100000000000023687NN0                                                  0
2MAIL0000066256BR23        BRG1        BRG1COCO    BRG1COCO13AG00000100000000001132019800000000000000100000000000000000000000002184Z01620180310X066005000
2MAIL0000066256BR23        BRG1        BRG1COCO    BRG1COCO13AG00000200000000001132033100000000000000200000000000000000000000003282Z01620180310X066015000
2MAIL0000066256BR23        BRG1        BRG1COCO    BRG1COCO13AG00000300000000001132036700000000000000400000000000000000000000006566Z01620180310X066015000
2MAIL0000066256BR23        BRG1        BRG1COCO    BRG1COCO13AG00000400000000001132200400000000000000100000000000000000000000001775Z01620180310X066004850
2MAIL0000066256BR23        BRG1        BRG1COCO    BRG1COCO13AG00000500000000001236512800000000000001000000000000000000000000001748Z01620180310X066000000
2MAIL0000066256BR23        BRG1        BRG1COCO    BRG1COCO13AG00000600000000001236512900000000000002000000000000000000000000003192Z01620180310X066005000
2MAIL0000066256BR23        BRG1        BRG1COCO    BRG1COCO13AG00000700000000001236514100000000000001000000000000000000000000001748Z01620180310X066000000
2MAIL0000066256BR23        BRG1        BRG1COCO    BRG1COCO13AG00000800000000001236515000000000000002000000000000000000000000003192Z01620180310X066005000
1MAIL0000066257BR23        BRG1        BRG1COCO    BRG1COCO13AG2018030900:00:00OR  01000002880010000288001066257                              2018030920180310Z016CIF201803100000000000021411NN0                                                  0
2MAIL0000066257BR23        BRG1        BRG1COCO    BRG1COCO13AG00000100000000001132036700000000000000400000000000000000000000006565Z01620180310X066015000
2MAIL0000066257BR23        BRG1        BRG1COCO    BRG1COCO13AG00000200000000001215533700000000000000200000000000000000000000003281Z01620180310X066015000
2MAIL0000066257BR23        BRG1        BRG1COCO    BRG1COCO13AG00000300000000001233695100000000000000200000000000000000000000003281Z01620180310X066015000
2MAIL0000066257BR23        BRG1        BRG1COCO    BRG1COCO13AG00000400000000001236512800000000000001000000000000000000000000001748Z01620180310X066000000
2MAIL0000066257BR23        BRG1        BRG1COCO    BRG1COCO13AG00000500000000001236512900000000000001500000000000000000000000002394Z01620180310X066005000
2MAIL0000066257BR23        BRG1        BRG1COCO    BRG1COCO13AG00000600000000001236514100000000000001000000000000000000000000001748Z01620180310X066000000
2MAIL0000066257BR23        BRG1        BRG1COCO    BRG1COCO13AG00000700000000001236515000000000000001500000000000000000000000002394Z01620180310X066005000
1MAIL0000066258BR23        BRG1        BRG1COCO    BRG1COCO13AG2018030900:00:00OR  01000002980932000298093266258                              2018030920180310Z016CIF201803100000000000004526NN0                                                  0
2MAIL0000066258BR23        BRG1        BRG1COCO    BRG1COCO13AG00000100000000001235356200000000000000200000000000000000000000004526Z01620180310X066000000
1MAIL0000066259BR23        BRG1        BRG1COCO    BRG1COCO13AG2018030900:00:00OR  01000004050689000405068966259                              2018030920180310Z859CIF201803100000000000031034NN0                                                  0
2MAIL0000066259BR23        BRG1        BRG1COCO    BRG1COCO13AG00000100000000001235356200000000000000600000000000000000000000013577Z85920180310X066000000
2MAIL0000066259BR23        BRG1        BRG1COCO    BRG1COCO13AG00000200000000001235737300000000000000600000000000000000000000017457Z85920180310X066000000
1MAIL0000066260BR23        BRG1        BRG1COCO    BRG1COCO13AG2018030900:00:00OR  01000002989458000298945866260                              2018030920180310Z016CIF201803100000000000110197NN0                                                  0
2MAIL0000066260BR23        BRG1        BRG1COCO    BRG1COCO13AG00000100000000001132004000000000000000500000000000000000000000004116Z01620180310X066005000
2MAIL0000066260BR23        BRG1        BRG1COCO    BRG1COCO13AG00000200000000001132004200000000000000500000000000000000000000006255Z01620180310X066005000
2MAIL0000066260BR23        BRG1        BRG1COCO    BRG1COCO13AG00000300000000001132018300000000000000100000000000000000000000003598Z01620180310X066025000
2MAIL0000066260BR23        BRG1        BRG1COCO    BRG1COCO13AG00000400000000001132036700000000000003200000000000000000000000052525Z01620180310X066015000
2MAIL0000066260BR23        BRG1        BRG1COCO    BRG1COCO13AG00000500000000001132200400000000000001000000000000000000000000017761Z01620180310X066004800
2MAIL0000066260BR23        BRG1        BRG1COCO    BRG1COCO13AG00000600000000001221415400000000000000100000000000000000000000003598Z01620180310X066025000
2MAIL0000066260BR23        BRG1        BRG1COCO    BRG1COCO13AG00000700000000001236512900000000000007000000000000000000000000011172Z01620180310X066005000
2MAIL0000066260BR23        BRG1        BRG1COCO    BRG1COCO13AG00000800000000001236515000000000000007000000000000000000000000011172Z01620180310X066005000
1MAIL0000066261BR23        BRG1        BRG1COCO    BRG1COCO13AG2018030900:00:00OR  01000002979876000297987666261                              2018030920180310Z859CIF201803100000000000004526NN0                                                  0
2MAIL0000066261BR23        BRG1        BRG1COCO    BRG1COCO13AG00000100000000001235356200000000000000200000000000000000000000004526Z85920180310X066000000
1MAIL0000066262BR23        BRG1        BRG1COCO    BRG1COCO13AG2018030900:00:00OR  01000002979876000297987666262                              2018030920180310Z016CIF201803100000000000091363NN0                                                  0
2MAIL0000066262BR23        BRG1        BRG1COCO    BRG1COCO13AG00000100000000001132019700000000000000100000000000000000000000002184Z01620180310X066005000
2MAIL0000066262BR23        BRG1        BRG1COCO    BRG1COCO13AG00000200000000001132033100000000000000400000000000000000000000006950Z01620180310X066010000
2MAIL0000066262BR23        BRG1        BRG1COCO    BRG1COCO13AG00000300000000001132036700000000000000600000000000000000000000010425Z01620180310X066010000
2MAIL0000066262BR23        BRG1        BRG1COCO    BRG1COCO13AG00000400000000001132213000000000000000200000000000000000000000007617Z01620180310X066004000
2MAIL0000066262BR23        BRG1        BRG1COCO    BRG1COCO13AG00000500000000001132213100000000000000100000000000000000000000003808Z01620180310X066004000
2MAIL0000066262BR23        BRG1        BRG1COCO    BRG1COCO13AG00000600000000001132400100000000000000100000000000000000000000003336Z01620180310X066005000
2MAIL0000066262BR23        BRG1        BRG1COCO    BRG1COCO13AG00000700000000001215533700000000000000200000000000000000000000003474Z01620180310X066010000
2MAIL0000066262BR23        BRG1        BRG1COCO    BRG1COCO13AG00000800000000001227395500000000000000200000000000000000000000003474Z01620180310X066010000
2MAIL0000066262BR23        BRG1        BRG1COCO    BRG1COCO13AG00000900000000001228090100000000000002000000000000000000000000014259Z01620180310X066004960
2MAIL0000066262BR23        BRG1        BRG1COCO    BRG1COCO13AG00001000000000001228512700000000000000100000000000000000000000004522Z01620180310X066005000
2MAIL0000066262BR23        BRG1        BRG1COCO    BRG1COCO13AG00001100000000001231189200000000000000100000000000000000000000004522Z01620180310X066005000
2MAIL0000066262BR23        BRG1        BRG1COCO    BRG1COCO13AG00001200000000001231231200000000000000100000000000000000000000004522Z01620180310X066005000
2MAIL0000066262BR23        BRG1        BRG1COCO    BRG1COCO13AG00001300000000001233081900000000000001400000000000000000000000005017Z01620180310X066009000
2MAIL0000066262BR23        BRG1        BRG1COCO    BRG1COCO13AG00001400000000001233098400000000000001400000000000000000000000005017Z01620180310X066009000
2MAIL0000066262BR23        BRG1        BRG1COCO    BRG1COCO13AG00001500000000001234705700000000000000100000000000000000000000004522Z01620180310X066005000
2MAIL0000066262BR23        BRG1        BRG1COCO    BRG1COCO13AG00001600000000001234705800000000000000100000000000000000000000004522Z01620180310X066005000
2MAIL0000066262BR23        BRG1        BRG1COCO    BRG1COCO13AG00001700000000001236512900000000000001000000000000000000000000001596Z01620180310X066005000
2MAIL0000066262BR23        BRG1        BRG1COCO    BRG1COCO13AG00001800000000001236515000000000000001000000000000000000000000001596Z01620180310X066005000
1MAIL0000066263BR23        BRG1        BRG1COCO    BRG1COCO13AG2018030900:00:00OR  01000002932598000293259866263                              2018030920180310Z016CIF201803100000000000099381NN0                                                  0
2MAIL0000066263BR23        BRG1        BRG1COCO    BRG1COCO13AG00000100000000001132019700000000000000100000000000000000000000002276Z01620180310X066005000
2MAIL0000066263BR23        BRG1        BRG1COCO    BRG1COCO13AG00000200000000001132019800000000000000100000000000000000000000002276Z01620180310X066005000
2MAIL0000066263BR23        BRG1        BRG1COCO    BRG1COCO13AG00000300000000001132019900000000000000100000000000000000000000002276Z01620180310X066005000
2MAIL0000066263BR23        BRG1        BRG1COCO    BRG1COCO13AG00000400000000001132020900000000000000100000000000000000000000002276Z01620180310X066005000
2MAIL0000066263BR23        BRG1        BRG1COCO    BRG1COCO13AG00000500000000001132033100000000000000100000000000000000000000001770Z01620180310X066012000
2MAIL0000066263BR23        BRG1        BRG1COCO    BRG1COCO13AG00000600000000001132036700000000000000100000000000000000000000001770Z01620180310X066012000
2MAIL0000066263BR23        BRG1        BRG1COCO    BRG1COCO13AG00000700000000001132200400000000000000600000000000000000000000011104Z01620180310X066004800
2MAIL0000066263BR23        BRG1        BRG1COCO    BRG1COCO13AG00000800000000001132213000000000000000100000000000000000000000003929Z01620180310X066004950
2MAIL0000066263BR23        BRG1        BRG1COCO    BRG1COCO13AG00000900000000001132213100000000000000100000000000000000000000003929Z01620180310X066004950
2MAIL0000066263BR23        BRG1        BRG1COCO    BRG1COCO13AG00001000000000001132400100000000000000100000000000000000000000003477Z01620180310X066005000
2MAIL0000066263BR23        BRG1        BRG1COCO    BRG1COCO13AG00001100000000001215533700000000000000100000000000000000000000001770Z01620180310X066012000
2MAIL0000066263BR23        BRG1        BRG1COCO    BRG1COCO13AG00001200000000001223975300000000000000100000000000000000000000004713Z01620180310X066005000
2MAIL0000066263BR23        BRG1        BRG1COCO    BRG1COCO13AG00001300000000001227735000000000000000100000000000000000000000002276Z01620180310X066005000
2MAIL0000066263BR23        BRG1        BRG1COCO    BRG1COCO13AG00001400000000001228274000000000000000100000000000000000000000004713Z01620180310X066005000
2MAIL0000066263BR23        BRG1        BRG1COCO    BRG1COCO13AG00001500000000001228512700000000000000100000000000000000000000004713Z01620180310X066005000
2MAIL0000066263BR23        BRG1        BRG1COCO    BRG1COCO13AG00001600000000001231189200000000000000100000000000000000000000004713Z01620180310X066005000
2MAIL0000066263BR23        BRG1        BRG1COCO    BRG1COCO13AG00001700000000001231231200000000000000100000000000000000000000004713Z01620180310X066005000
2MAIL0000066263BR23        BRG1        BRG1COCO    BRG1COCO13AG00001800000000001233098400000000000001400000000000000000000000005229Z01620180310X066009000
2MAIL0000066263BR23        BRG1        BRG1COCO    BRG1COCO13AG00001900000000001233098600000000000001400000000000000000000000005229Z01620180310X066009000
2MAIL0000066263BR23        BRG1        BRG1COCO    BRG1COCO13AG00002000000000001233154200000000000001400000000000000000000000005229Z01620180310X066009000
2MAIL0000066263BR23        BRG1        BRG1COCO    BRG1COCO13AG00002100000000001234705700000000000000100000000000000000000000004713Z01620180310X066005000
2MAIL0000066263BR23        BRG1        BRG1COCO    BRG1COCO13AG00002200000000001234705800000000000000100000000000000000000000004713Z01620180310X066005000
2MAIL0000066263BR23        BRG1        BRG1COCO    BRG1COCO13AG00002300000000001235699400000000000001000000000000000000000000003858Z01620180310X066006000
2MAIL0000066263BR23        BRG1        BRG1COCO    BRG1COCO13AG00002400000000001235699700000000000001000000000000000000000000003858Z01620180310X066006000
2MAIL0000066263BR23        BRG1        BRG1COCO    BRG1COCO13AG00002500000000001235699800000000000001000000000000000000000000003858Z01620180310X066006000
1MAIL0000066264BR23        BRG1        BRG1COCO    BRG1COCO13AG2018030900:00:00OR  01000005326281000532628166264                              2018030920180310Z859CIF201803100000000000009698NN0                                                  0
2MAIL0000066264BR23        BRG1        BRG1COCO    BRG1COCO13AG00000100000000001235356200000000000000300000000000000000000000006788Z85920180310X066000000
2MAIL0000066264BR23        BRG1        BRG1COCO    BRG1COCO13AG00000200000000001235737300000000000000100000000000000000000000002910Z85920180310X066000000
1MAIL0000066265BR23        BRG1        BRG1COCO    BRG1COCO13AG2018030900:00:00OR  01000005326281000532628166265                              2018030920180310Z016CIF201803100000000000014139NN0                                                  0
2MAIL0000066265BR23        BRG1        BRG1COCO    BRG1COCO13AG00000100000000001223975300000000000000100000000000000000000000004713Z01620180310X066005000
2MAIL0000066265BR23        BRG1        BRG1COCO    BRG1COCO13AG00000200000000001231189200000000000000100000000000000000000000004713Z01620180310X066005000
2MAIL0000066265BR23        BRG1        BRG1COCO    BRG1COCO13AG00000300000000001231231200000000000000100000000000000000000000004713Z01620180310X066005000
1MAIL0000066266BR23        BRG1        BRG1COCO    BRG1COCO13AG2018030900:00:00OR  01000004015727000401572766266                              2018030920180310Z859CIF201803100000000000015517NN0                                                  0
2MAIL0000066266BR23        BRG1        BRG1COCO    BRG1COCO13AG00000100000000001235356200000000000000300000000000000000000000006788Z85920180310X066000000
2MAIL0000066266BR23        BRG1        BRG1COCO    BRG1COCO13AG00000200000000001235737300000000000000300000000000000000000000008729Z85920180310X066000000
1MAIL0000066267BR23        BRG1        BRG1COCO    BRG1COCO13AG2018030900:00:00OR  01000004015727000401572766267                              2018030920180310Z016CIF201803100000000000051750NN0                                                  0
2MAIL0000066267BR23        BRG1        BRG1COCO    BRG1COCO13AG00000100000000001132033100000000000000100000000000000000000000001738Z01620180310X066010000
2MAIL0000066267BR23        BRG1        BRG1COCO    BRG1COCO13AG00000200000000001132036700000000000000100000000000000000000000001738Z01620180310X066010000
2MAIL0000066267BR23        BRG1        BRG1COCO    BRG1COCO13AG00000300000000001215533700000000000000100000000000000000000000001738Z01620180310X066010000
2MAIL0000066267BR23        BRG1        BRG1COCO    BRG1COCO13AG00000400000000001223975300000000000000100000000000000000000000004522Z01620180310X066005000
2MAIL0000066267BR23        BRG1        BRG1COCO    BRG1COCO13AG00000500000000001227395500000000000000100000000000000000000000001738Z01620180310X066010000
2MAIL0000066267BR23        BRG1        BRG1COCO    BRG1COCO13AG00000600000000001228090100000000000001000000000000000000000000007130Z01620180310X066004960
2MAIL0000066267BR23        BRG1        BRG1COCO    BRG1COCO13AG00000700000000001228512700000000000000100000000000000000000000004522Z01620180310X066005000
2MAIL0000066267BR23        BRG1        BRG1COCO    BRG1COCO13AG00000800000000001231189200000000000000100000000000000000000000004522Z01620180310X066005000
2MAIL0000066267BR23        BRG1        BRG1COCO    BRG1COCO13AG00000900000000001231231200000000000000100000000000000000000000004522Z01620180310X066005000
2MAIL0000066267BR23        BRG1        BRG1COCO    BRG1COCO13AG00001000000000001231389600000000000000100000000000000000000000001738Z01620180310X066010000
2MAIL0000066267BR23        BRG1        BRG1COCO    BRG1COCO13AG00001100000000001233695100000000000000100000000000000000000000001738Z01620180310X066010000
2MAIL0000066267BR23        BRG1        BRG1COCO    BRG1COCO13AG00001200000000001234705700000000000000100000000000000000000000004522Z01620180310X066005000
2MAIL0000066267BR23        BRG1        BRG1COCO    BRG1COCO13AG00001300000000001234705800000000000000100000000000000000000000004522Z01620180310X066005000
2MAIL0000066267BR23        BRG1        BRG1COCO    BRG1COCO13AG00001400000000001236512800000000000001000000000000000000000000001748Z01620180310X066000000
2MAIL0000066267BR23        BRG1        BRG1COCO    BRG1COCO13AG00001500000000001236512900000000000001000000000000000000000000001782Z01620180310X066005000
2MAIL0000066267BR23        BRG1        BRG1COCO    BRG1COCO13AG00001600000000001236514100000000000001000000000000000000000000001748Z01620180310X066000000
2MAIL0000066267BR23        BRG1        BRG1COCO    BRG1COCO13AG00001700000000001236515000000000000001000000000000000000000000001782Z01620180310X066005000
1MAIL0000066268BR23        BRG1        BRG1COCO    BRG1COCO13AG2018030900:00:00OR  01000004939510000493951066268                              2018030920180310Z859CIF201803100000000000004526NN0                                                  0
2MAIL0000066268BR23        BRG1        BRG1COCO    BRG1COCO13AG00000100000000001235356200000000000000200000000000000000000000004526Z85920180310X066000000
1MAIL0000066269BR23        BRG1        BRG1COCO    BRG1COCO13AG2018030900:00:00OR  01000004939510000493951066269                              2018030920180310ZG40CIF201803100000000000048229NN0                                                  0
2MAIL0000066269BR23        BRG1        BRG1COCO    BRG1COCO13AG00000100000000001228090100000000000006000000000000000000000000041959ZG4020180310X066004960
2MAIL0000066269BR23        BRG1        BRG1COCO    BRG1COCO13AG00000200000000001236512900000000000002000000000000000000000000003135ZG4020180310X066005000
2MAIL0000066269BR23        BRG1        BRG1COCO    BRG1COCO13AG00000300000000001236515000000000000002000000000000000000000000003135ZG4020180310X066005000
1MAIL0000066270BR23        BRG1        BRG1COCO    BRG1COCO13AG2018030900:00:00OR  01000005474991000547499166270                              2018030920180310Z016CIF201803100000000000013327NN0                                                  0
2MAIL0000066270BR23        BRG1        BRG1COCO    BRG1COCO13AG00000100000000001223975300000000000000100000000000000000000000004713Z01620180310X066005000
2MAIL0000066270BR23        BRG1        BRG1COCO    BRG1COCO13AG00000200000000001231231200000000000000100000000000000000000000004713Z01620180310X066005000
2MAIL0000066270BR23        BRG1        BRG1COCO    BRG1COCO13AG00000300000000001235699700000000000001000000000000000000000000003901Z01620180310X066004960
1MAIL0000066271BR23        BRG1        BRG1COCO    BRG1COCO13AG2018030900:00:00OR  01000005474991000547499166271                              2018030920180310Z859CIF201803100000000000033941NN0                                                  0
2MAIL0000066271BR23        BRG1        BRG1COCO    BRG1COCO13AG00000100000000001235356200000000000001500000000000000000000000033941Z85920180310X066000000
1MAIL0000066272BR23        BRG1        BRG1COCO    BRG1COCO13AG2018030900:00:00OR  01000004357464000435746466272                              2018030920180310Z859CIF201803100000000000002263NN0                                                  0
2MAIL0000066272BR23        BRG1        BRG1COCO    BRG1COCO13AG00000100000000001235356200000000000000100000000000000000000000002263Z85920180310X066000000
1MAIL0000066273BR23        BRG1        BRG1COCO    BRG1COCO13AG2018030900:00:00OR  01000004357464000435746466273                              2018030920180310Z016CIF201803100000000000005625NN0                                                  0
2MAIL0000066273BR23        BRG1        BRG1COCO    BRG1COCO13AG00000100000000001215533700000000000000100000000000000000000000001911Z01620180310X066005000
2MAIL0000066273BR23        BRG1        BRG1COCO    BRG1COCO13AG00000200000000001228090100000000000000500000000000000000000000003714Z01620180310X066004960
1MAIL0000066274BR23        BRG1        BRG1COCO    BRG1COCO13AG2018030900:00:00OR  01000002979902000297990266274                              2018030920180310Z016CIF201803100000000000058160NN0                                                  0
2MAIL0000066274BR23        BRG1        BRG1COCO    BRG1COCO13AG00000100000000001132033100000000000000200000000000000000000000003281Z01620180310X066015000
2MAIL0000066274BR23        BRG1        BRG1COCO    BRG1COCO13AG00000200000000001132034900000000000000500000000000000000000000007707Z01620180310X066015000
2MAIL0000066274BR23        BRG1        BRG1COCO    BRG1COCO13AG00000300000000001132035100000000000000500000000000000000000000008131Z01620180310X066015000
2MAIL0000066274BR23        BRG1        BRG1COCO    BRG1COCO13AG00000400000000001132036700000000000000500000000000000000000000008205Z01620180310X066015000
2MAIL0000066274BR23        BRG1        BRG1COCO    BRG1COCO13AG00000500000000001215533700000000000000200000000000000000000000003281Z01620180310X066015000
2MAIL0000066274BR23        BRG1        BRG1COCO    BRG1COCO13AG00000600000000001223975300000000000000100000000000000000000000004522Z01620180310X066005000
2MAIL0000066274BR23        BRG1        BRG1COCO    BRG1COCO13AG00000700000000001226089600000000000001200000000000000000000000004055Z01620180310X066009920
2MAIL0000066274BR23        BRG1        BRG1COCO    BRG1COCO13AG00000800000000001231189200000000000000100000000000000000000000004522Z01620180310X066005000
2MAIL0000066274BR23        BRG1        BRG1COCO    BRG1COCO13AG00000900000000001231231200000000000000100000000000000000000000004522Z01620180310X066005000
2MAIL0000066274BR23        BRG1        BRG1COCO    BRG1COCO13AG00001000000000001233098600000000000001400000000000000000000000004967Z01620180310X066009920
2MAIL0000066274BR23        BRG1        BRG1COCO    BRG1COCO13AG00001100000000001233154200000000000001400000000000000000000000004967Z01620180310X066009920
1MAIL0000066275BR23        BRG1        BRG1COCO    BRG1COCO13AG2018030900:00:00OR  01000002873440000287344066275                              2018030920180310Z016CIF201803100000000000087535NN0                                                  0
2MAIL0000066275BR23        BRG1        BRG1COCO    BRG1COCO13AG00000100000000001132033100000000000000200000000000000000000000003282Z01620180310X066015000
2MAIL0000066275BR23        BRG1        BRG1COCO    BRG1COCO13AG00000200000000001132036700000000000000200000000000000000000000003282Z01620180310X066015000
2MAIL0000066275BR23        BRG1        BRG1COCO    BRG1COCO13AG00000300000000001132213000000000000000200000000000000000000000007541Z01620180310X066004950
2MAIL0000066275BR23        BRG1        BRG1COCO    BRG1COCO13AG00000400000000001132213100000000000000200000000000000000000000007541Z01620180310X066004950
2MAIL0000066275BR23        BRG1        BRG1COCO    BRG1COCO13AG00000500000000001215533700000000000000200000000000000000000000003282Z01620180310X066015000
2MAIL0000066275BR23        BRG1        BRG1COCO    BRG1COCO13AG00000600000000001227395500000000000000200000000000000000000000003282Z01620180310X066015000
2MAIL0000066275BR23        BRG1        BRG1COCO    BRG1COCO13AG00000700000000001228090100000000000003000000000000000000000000021389Z01620180310X066004960
2MAIL0000066275BR23        BRG1        BRG1COCO    BRG1COCO13AG00000800000000001231189200000000000000100000000000000000000000004522Z01620180310X066005000
2MAIL0000066275BR23        BRG1        BRG1COCO    BRG1COCO13AG00000900000000001231231200000000000000100000000000000000000000004522Z01620180310X066005000
2MAIL0000066275BR23        BRG1        BRG1COCO    BRG1COCO13AG00001000000000001233081900000000000001400000000000000000000000004962Z01620180310X066010000
2MAIL0000066275BR23        BRG1        BRG1COCO    BRG1COCO13AG00001100000000001233098400000000000001400000000000000000000000004962Z01620180310X066010000
2MAIL0000066275BR23        BRG1        BRG1COCO    BRG1COCO13AG00001200000000001233098800000000000001400000000000000000000000004962Z01620180310X066010000
2MAIL0000066275BR23        BRG1        BRG1COCO    BRG1COCO13AG00001300000000001233154200000000000001400000000000000000000000004962Z01620180310X066010000
2MAIL0000066275BR23        BRG1        BRG1COCO    BRG1COCO13AG00001400000000001234705700000000000000100000000000000000000000004522Z01620180310X066005000
2MAIL0000066275BR23        BRG1        BRG1COCO    BRG1COCO13AG00001500000000001234705800000000000000100000000000000000000000004522Z01620180310X066005000
1MAIL0000066276BR23        BRG1        BRG1COCO    BRG1COCO13AG2018030900:00:00OR  01000004098231000409823166276                              2018030920180310Z016CIF201803100000000000021389NN0                                                  0
2MAIL0000066276BR23        BRG1        BRG1COCO    BRG1COCO13AG00000100000000001228090100000000000003000000000000000000000000021389Z01620180310X066004960
1MAIL0000066277BR23        BRG1        BRG1COCO    BRG1COCO13AG2018030900:00:00OR  01000002979944000297994466277                              2018030920180310Z016CIF201803100000000000319862NN0                                                  0
2MAIL0000066277BR23        BRG1        BRG1COCO    BRG1COCO13AG00000100000000001132033100000000000001500000000000000000000000024621Z01620180310X066015000
2MAIL0000066277BR23        BRG1        BRG1COCO    BRG1COCO13AG00000200000000001132036700000000000001500000000000000000000000024621Z01620180310X066015000
2MAIL0000066277BR23        BRG1        BRG1COCO    BRG1COCO13AG00000300000000001132213000000000000000800000000000000000000000030465Z01620180310X066004000
2MAIL0000066277BR23        BRG1        BRG1COCO    BRG1COCO13AG00000400000000001132213100000000000000800000000000000000000000030465Z01620180310X066004000
2MAIL0000066277BR23        BRG1        BRG1COCO    BRG1COCO13AG00000500000000001215533700000000000001500000000000000000000000024621Z01620180310X066015000
2MAIL0000066277BR23        BRG1        BRG1COCO    BRG1COCO13AG00000600000000001226089600000000000002400000000000000000000000008193Z01620180310X066009000
2MAIL0000066277BR23        BRG1        BRG1COCO    BRG1COCO13AG00000700000000001227395500000000000001500000000000000000000000024621Z01620180310X066015000
2MAIL0000066277BR23        BRG1        BRG1COCO    BRG1COCO13AG00000800000000001228100400000000000003000000000000000000000000064639Z01620180310X066018000
2MAIL0000066277BR23        BRG1        BRG1COCO    BRG1COCO13AG00000900000000001231389600000000000000500000000000000000000000008208Z01620180310X066015000
2MAIL0000066277BR23        BRG1        BRG1COCO    BRG1COCO13AG00001000000000001233081900000000000002800000000000000000000000009926Z01620180310X066010000
2MAIL0000066277BR23        BRG1        BRG1COCO    BRG1COCO13AG00001100000000001233098400000000000002800000000000000000000000009926Z01620180310X066010000
2MAIL0000066277BR23        BRG1        BRG1COCO    BRG1COCO13AG00001200000000001233098500000000000002800000000000000000000000009926Z01620180310X066010000
2MAIL0000066277BR23        BRG1        BRG1COCO    BRG1COCO13AG00001300000000001233098600000000000002800000000000000000000000009926Z01620180310X066010000
2MAIL0000066277BR23        BRG1        BRG1COCO    BRG1COCO13AG00001400000000001233098800000000000002800000000000000000000000009926Z01620180310X066010000
2MAIL0000066277BR23        BRG1        BRG1COCO    BRG1COCO13AG00001500000000001233099500000000000002800000000000000000000000009926Z01620180310X066010000
2MAIL0000066277BR23        BRG1        BRG1COCO    BRG1COCO13AG00001600000000001233154200000000000002800000000000000000000000009926Z01620180310X066010000
2MAIL0000066277BR23        BRG1        BRG1COCO    BRG1COCO13AG00001700000000001234708700000000000002800000000000000000000000009926Z01620180310X066010000
