1MAIL0000064387BR23        BRG1        BRG1COCO    BRG1COCO13AG2018022800:00:00OR  01000004778384000477838464387                              2018022820180228Z859CIF201802280000000000102150NN0                                                  0
2MAIL0000064387BR23        BRG1        BRG1COCO    BRG1COCO13AG00000100000000001233114700000000000001200000000000000000000000015511Z85920180228X066000000
2MAIL0000064387BR23        BRG1        BRG1COCO    BRG1COCO13AG00000200000000001235356200000000000001000000000000000000000000022628Z85920180228X066000000
2MAIL0000064387BR23        BRG1        BRG1COCO    BRG1COCO13AG00000300000000001235699500000000000001000000000000000000000000029096Z85920180228X066000000
2MAIL0000064387BR23        BRG1        BRG1COCO    BRG1COCO13AG00000400000000001235737300000000000001200000000000000000000000034915Z85920180228X066000000
