1MAIL0000064331BR23        BRG1        BRG1COCO    BRG1COCO13AG2018022800:00:00OR  01000004870585000487058564331                              2018022820180228Z859CIF201802280000000000037500NN0                                                  0
2MAIL0000064331BR23        BRG1        BRG1COCO    BRG1COCO13AG00000100000000001235356200000000000000500000000000000000000000011314Z85920180228X066000000
2MAIL0000064331BR23        BRG1        BRG1COCO    BRG1COCO13AG00000200000000001235699500000000000000500000000000000000000000014548Z85920180228X066000000
2MAIL0000064331BR23        BRG1        BRG1COCO    BRG1COCO13AG00000300000000001235737300000000000000400000000000000000000000011638Z85920180228X066000000
1MAIL0000064332BR23        BRG1        BRG1COCO    BRG1COCO13AG2018022800:00:00OR  01000003891912000389191264332                              2018022820180228Z016CIF201802280000000000032978NN0                                                  0
2MAIL0000064332BR23        BRG1        BRG1COCO    BRG1COCO13AG00000100000000001132019800000000000000100000000000000000000000002184Z01620180228X066005000
2MAIL0000064332BR23        BRG1        BRG1COCO    BRG1COCO13AG00000200000000001132036700000000000000100000000000000000000000001641Z01620180228X066015000
2MAIL0000064332BR23        BRG1        BRG1COCO    BRG1COCO13AG00000300000000001228090100000000000001000000000000000000000000007130Z01620180228X066004960
2MAIL0000064332BR23        BRG1        BRG1COCO    BRG1COCO13AG00000400000000001228100400000000000000100000000000000000000000002155Z01620180228X066018000
2MAIL0000064332BR23        BRG1        BRG1COCO    BRG1COCO13AG00000500000000001233081900000000000001400000000000000000000000004967Z01620180228X066009920
2MAIL0000064332BR23        BRG1        BRG1COCO    BRG1COCO13AG00000600000000001233098400000000000001400000000000000000000000004967Z01620180228X066009920
2MAIL0000064332BR23        BRG1        BRG1COCO    BRG1COCO13AG00000700000000001233154200000000000001400000000000000000000000004967Z01620180228X066009920
2MAIL0000064332BR23        BRG1        BRG1COCO    BRG1COCO13AG00000800000000001234708700000000000001400000000000000000000000004967Z01620180228X066009920
1MAIL0000064333BR23        BRG1        BRG1COCO    BRG1COCO13AG2018022800:00:00OR  01000004487218000448721864333                              2018022820180228Z016CIF201802280000000000012204NN0                                                  0
2MAIL0000064333BR23        BRG1        BRG1COCO    BRG1COCO13AG00000100000000001132033100000000000000100000000000000000000000001710Z01620180228X066015000
2MAIL0000064333BR23        BRG1        BRG1COCO    BRG1COCO13AG00000200000000001132036700000000000000200000000000000000000000003420Z01620180228X066015000
2MAIL0000064333BR23        BRG1        BRG1COCO    BRG1COCO13AG00000300000000001132200400000000000000100000000000000000000000001944Z01620180228X066000000
2MAIL0000064333BR23        BRG1        BRG1COCO    BRG1COCO13AG00000400000000001215533700000000000000100000000000000000000000001710Z01620180228X066015000
2MAIL0000064333BR23        BRG1        BRG1COCO    BRG1COCO13AG00000500000000001227395500000000000000100000000000000000000000001710Z01620180228X066015000
2MAIL0000064333BR23        BRG1        BRG1COCO    BRG1COCO13AG00000600000000001231389600000000000000100000000000000000000000001710Z01620180228X066015000
1MAIL0000064334BR23        BRG1        BRG1COCO    BRG1COCO13AG2018022800:00:00OR  01000005175640000517564064334                              2018022820180228Z016CIF201802280000000000025591NN0                                                  0
2MAIL0000064334BR23        BRG1        BRG1COCO    BRG1COCO13AG00000100000000001132018300000000000000100000000000000000000000003598Z01620180228X066025000
2MAIL0000064334BR23        BRG1        BRG1COCO    BRG1COCO13AG00000200000000001132020900000000000000100000000000000000000000002184Z01620180228X066005000
2MAIL0000064334BR23        BRG1        BRG1COCO    BRG1COCO13AG00000300000000001132036700000000000000300000000000000000000000004923Z01620180228X066015000
2MAIL0000064334BR23        BRG1        BRG1COCO    BRG1COCO13AG00000400000000001233098600000000000001400000000000000000000000004962Z01620180228X066010000
2MAIL0000064334BR23        BRG1        BRG1COCO    BRG1COCO13AG00000500000000001233098800000000000001400000000000000000000000004962Z01620180228X066010000
2MAIL0000064334BR23        BRG1        BRG1COCO    BRG1COCO13AG00000600000000001233099500000000000001400000000000000000000000004962Z01620180228X066010000
1MAIL0000064335BR23        BRG1        BRG1COCO    BRG1COCO13AG2018022800:00:00OR  01000005175640000517564064335                              2018022820180228Z859CIF201802280000000000049779NN0                                                  0
2MAIL0000064335BR23        BRG1        BRG1COCO    BRG1COCO13AG00000100000000001233114700000000000001000000000000000000000000012926Z85920180228X066000000
2MAIL0000064335BR23        BRG1        BRG1COCO    BRG1COCO13AG00000200000000001235356200000000000000600000000000000000000000013577Z85920180228X066000000
2MAIL0000064335BR23        BRG1        BRG1COCO    BRG1COCO13AG00000300000000001235699500000000000000400000000000000000000000011638Z85920180228X066000000
2MAIL0000064335BR23        BRG1        BRG1COCO    BRG1COCO13AG00000400000000001235737300000000000000400000000000000000000000011638Z85920180228X066000000
1MAIL0000064336BR23        BRG1        BRG1COCO    BRG1COCO13AG2018022800:00:00OR  01000003830054000383005464336                              2018022820180228Z016CIF201802280000000000024599NN0                                                  0
2MAIL0000064336BR23        BRG1        BRG1COCO    BRG1COCO13AG00000100000000001132019700000000000000100000000000000000000000002184Z01620180228X066005000
2MAIL0000064336BR23        BRG1        BRG1COCO    BRG1COCO13AG00000200000000001132019800000000000000100000000000000000000000002184Z01620180228X066005000
2MAIL0000064336BR23        BRG1        BRG1COCO    BRG1COCO13AG00000300000000001132020900000000000000100000000000000000000000002184Z01620180228X066005000
2MAIL0000064336BR23        BRG1        BRG1COCO    BRG1COCO13AG00000400000000001132033100000000000000200000000000000000000000003281Z01620180228X066015000
2MAIL0000064336BR23        BRG1        BRG1COCO    BRG1COCO13AG00000500000000001132036700000000000000300000000000000000000000004923Z01620180228X066015000
2MAIL0000064336BR23        BRG1        BRG1COCO    BRG1COCO13AG00000600000000001215533700000000000000200000000000000000000000003281Z01620180228X066015000
2MAIL0000064336BR23        BRG1        BRG1COCO    BRG1COCO13AG00000700000000001227395500000000000000200000000000000000000000003281Z01620180228X066015000
2MAIL0000064336BR23        BRG1        BRG1COCO    BRG1COCO13AG00000800000000001231389600000000000000200000000000000000000000003281Z01620180228X066015000
1MAIL0000064337BR23        BRG1        BRG1COCO    BRG1COCO13AG2018022800:00:00OR  01000003057141000305714164337                              2018022820180228Z016CIF201802280000000000009516NN0                                                  0
2MAIL0000064337BR23        BRG1        BRG1COCO    BRG1COCO13AG00000100000000001132019700000000000000100000000000000000000000002184Z01620180228X066005000
2MAIL0000064337BR23        BRG1        BRG1COCO    BRG1COCO13AG00000200000000001132020900000000000000100000000000000000000000002184Z01620180228X066005000
2MAIL0000064337BR23        BRG1        BRG1COCO    BRG1COCO13AG00000300000000001132036700000000000000100000000000000000000000001641Z01620180228X066015000
2MAIL0000064337BR23        BRG1        BRG1COCO    BRG1COCO13AG00000400000000001132200400000000000000100000000000000000000000001866Z01620180228X066000000
2MAIL0000064337BR23        BRG1        BRG1COCO    BRG1COCO13AG00000500000000001227395500000000000000100000000000000000000000001641Z01620180228X066015000
1MAIL0000064338BR23        BRG1        BRG1COCO    BRG1COCO13AG2018022800:00:00OR  01000005515900000551590064338                              2018022820180228Z016CIF201802280000000000056993NN0                                                  0
2MAIL0000064338BR23        BRG1        BRG1COCO    BRG1COCO13AG00000100000000001132019800000000000000100000000000000000000000002300Z01620180228X066000000
2MAIL0000064338BR23        BRG1        BRG1COCO    BRG1COCO13AG00000200000000001132019900000000000000100000000000000000000000002300Z01620180228X066000000
2MAIL0000064338BR23        BRG1        BRG1COCO    BRG1COCO13AG00000300000000001132033100000000000000400000000000000000000000006566Z01620180228X066015000
2MAIL0000064338BR23        BRG1        BRG1COCO    BRG1COCO13AG00000400000000001132036700000000000000400000000000000000000000006566Z01620180228X066015000
2MAIL0000064338BR23        BRG1        BRG1COCO    BRG1COCO13AG00000500000000001132213000000000000000100000000000000000000000003771Z01620180228X066004950
2MAIL0000064338BR23        BRG1        BRG1COCO    BRG1COCO13AG00000600000000001132213100000000000000100000000000000000000000003771Z01620180228X066004950
2MAIL0000064338BR23        BRG1        BRG1COCO    BRG1COCO13AG00000700000000001215533700000000000000500000000000000000000000008208Z01620180228X066015000
2MAIL0000064338BR23        BRG1        BRG1COCO    BRG1COCO13AG00000800000000001228100400000000000000200000000000000000000000004467Z01620180228X066015000
2MAIL0000064338BR23        BRG1        BRG1COCO    BRG1COCO13AG00000900000000001228512700000000000000100000000000000000000000004761Z01620180228X066000000
2MAIL0000064338BR23        BRG1        BRG1COCO    BRG1COCO13AG00001000000000001231189200000000000000100000000000000000000000004761Z01620180228X066000000
2MAIL0000064338BR23        BRG1        BRG1COCO    BRG1COCO13AG00001100000000001234705700000000000000100000000000000000000000004761Z01620180228X066000000
2MAIL0000064338BR23        BRG1        BRG1COCO    BRG1COCO13AG00001200000000001234705800000000000000100000000000000000000000004761Z01620180228X066000000
1MAIL0000064339BR23        BRG1        BRG1COCO    BRG1COCO13AG2018022800:00:00OR  01000004640846000464084664339                              2018022820180228Z016CIF201802280000000000005148NN0                                                  0
2MAIL0000064339BR23        BRG1        BRG1COCO    BRG1COCO13AG00000100000000001132036700000000000000100000000000000000000000001641Z01620180228X066015000
2MAIL0000064339BR23        BRG1        BRG1COCO    BRG1COCO13AG00000200000000001132200400000000000000100000000000000000000000001866Z01620180228X066000000
2MAIL0000064339BR23        BRG1        BRG1COCO    BRG1COCO13AG00000300000000001215533700000000000000100000000000000000000000001641Z01620180228X066015000
1MAIL0000064340BR23        BRG1        BRG1COCO    BRG1COCO13AG2018022800:00:00OR  01000003803119000380311964340                              2018022820180228Z016CIF201802280000000000005666NN0                                                  0
2MAIL0000064340BR23        BRG1        BRG1COCO    BRG1COCO13AG00000100000000001132036700000000000000100000000000000000000000001710Z01620180228X066015000
2MAIL0000064340BR23        BRG1        BRG1COCO    BRG1COCO13AG00000200000000001215533700000000000000100000000000000000000000001710Z01620180228X066015000
2MAIL0000064340BR23        BRG1        BRG1COCO    BRG1COCO13AG00000300000000001228100400000000000000100000000000000000000000002246Z01620180228X066018000
1MAIL0000064362BR23        BRG1        BRG1COCO    BRG1COCO13AG2018022800:00:00OR  01000002820884000282088464362                              2018022820180228Z016CIF201802280000000000267769NN0                                                  0
2MAIL0000064362BR23        BRG1        BRG1COCO    BRG1COCO13AG00000100000000001223975300000000000000800000000000000000000000032893Z01620180228X066005000
2MAIL0000064362BR23        BRG1        BRG1COCO    BRG1COCO13AG00000200000000001228100400000000000002000000000000000000000000043093Z01620180228X066018000
2MAIL0000064362BR23        BRG1        BRG1COCO    BRG1COCO13AG00000300000000001228274000000000000000800000000000000000000000032893Z01620180228X066005000
2MAIL0000064362BR23        BRG1        BRG1COCO    BRG1COCO13AG00000400000000001228512700000000000000800000000000000000000000032893Z01620180228X066005000
2MAIL0000064362BR23        BRG1        BRG1COCO    BRG1COCO13AG00000500000000001234705700000000000000800000000000000000000000032893Z01620180228X066005000
2MAIL0000064362BR23        BRG1        BRG1COCO    BRG1COCO13AG00000600000000001234705800000000000000300000000000000000000000012335Z01620180228X066005000
2MAIL0000064362BR23        BRG1        BRG1COCO    BRG1COCO13AG00000700000000001235699400000000000008000000000000000000000000026923Z01620180228X066006000
2MAIL0000064362BR23        BRG1        BRG1COCO    BRG1COCO13AG00000800000000001235699700000000000008000000000000000000000000026923Z01620180228X066006000
2MAIL0000064362BR23        BRG1        BRG1COCO    BRG1COCO13AG00000900000000001235699800000000000008000000000000000000000000026923Z01620180228X066006000
1MAIL0000064363BR23        BRG1        BRG1COCO    BRG1COCO13AG2018022800:00:00OR  01000004847511000484751164363                              2018022820180228Z016CIF201802280000000000015587NN0                                                  0
2MAIL0000064363BR23        BRG1        BRG1COCO    BRG1COCO13AG00000100000000001132033100000000000000100000000000000000000000001710Z01620180228X066015000
2MAIL0000064363BR23        BRG1        BRG1COCO    BRG1COCO13AG00000200000000001132036700000000000000200000000000000000000000003420Z01620180228X066015000
2MAIL0000064363BR23        BRG1        BRG1COCO    BRG1COCO13AG00000300000000001132200400000000000000100000000000000000000000001866Z01620180228X066004000
2MAIL0000064363BR23        BRG1        BRG1COCO    BRG1COCO13AG00000400000000001215533700000000000000100000000000000000000000001710Z01620180228X066015000
2MAIL0000064363BR23        BRG1        BRG1COCO    BRG1COCO13AG00000500000000001227395500000000000000100000000000000000000000001710Z01620180228X066015000
2MAIL0000064363BR23        BRG1        BRG1COCO    BRG1COCO13AG00000600000000001233098600000000000001400000000000000000000000005171Z01620180228X066010000
1MAIL0000064364BR23        BRG1        BRG1COCO    BRG1COCO13AG2018022800:00:00OR  01000004654648000465464864364                              2018022820180228Z016CIF201802280000000000040896NN0                                                  0
2MAIL0000064364BR23        BRG1        BRG1COCO    BRG1COCO13AG00000100000000001132019800000000000000100000000000000000000000002300Z01620180228X066000000
2MAIL0000064364BR23        BRG1        BRG1COCO    BRG1COCO13AG00000200000000001132020900000000000000100000000000000000000000002300Z01620180228X066000000
2MAIL0000064364BR23        BRG1        BRG1COCO    BRG1COCO13AG00000300000000001132036700000000000000500000000000000000000000009656Z01620180228X066000000
2MAIL0000064364BR23        BRG1        BRG1COCO    BRG1COCO13AG00000400000000001132200400000000000000400000000000000000000000007463Z01620180228X066000000
2MAIL0000064364BR23        BRG1        BRG1COCO    BRG1COCO13AG00000500000000001215533700000000000000200000000000000000000000003862Z01620180228X066000000
2MAIL0000064364BR23        BRG1        BRG1COCO    BRG1COCO13AG00000600000000001223975300000000000000100000000000000000000000004761Z01620180228X066000000
2MAIL0000064364BR23        BRG1        BRG1COCO    BRG1COCO13AG00000700000000001227395500000000000000100000000000000000000000001931Z01620180228X066000000
2MAIL0000064364BR23        BRG1        BRG1COCO    BRG1COCO13AG00000800000000001228512700000000000000100000000000000000000000004761Z01620180228X066000000
2MAIL0000064364BR23        BRG1        BRG1COCO    BRG1COCO13AG00000900000000001231389600000000000000100000000000000000000000001931Z01620180228X066000000
2MAIL0000064364BR23        BRG1        BRG1COCO    BRG1COCO13AG00001000000000001233695100000000000000100000000000000000000000001931Z01620180228X066000000
1MAIL0000064365BR23        BRG1        BRG1COCO    BRG1COCO13AG2018022800:00:00OR  01000004618326000461832664365                              2018022820180228Z016CIF201802280000000000041155NN0                                                  0
2MAIL0000064365BR23        BRG1        BRG1COCO    BRG1COCO13AG00000100000000001132019800000000000000100000000000000000000000002300Z01620180228X066000000
2MAIL0000064365BR23        BRG1        BRG1COCO    BRG1COCO13AG00000200000000001132033100000000000000100000000000000000000000001931Z01620180228X066000000
2MAIL0000064365BR23        BRG1        BRG1COCO    BRG1COCO13AG00000300000000001132036700000000000000300000000000000000000000005792Z01620180228X066000000
2MAIL0000064365BR23        BRG1        BRG1COCO    BRG1COCO13AG00000400000000001132200400000000000000300000000000000000000000005597Z01620180228X066000000
2MAIL0000064365BR23        BRG1        BRG1COCO    BRG1COCO13AG00000500000000001215533700000000000000100000000000000000000000001931Z01620180228X066000000
2MAIL0000064365BR23        BRG1        BRG1COCO    BRG1COCO13AG00000600000000001227395500000000000000100000000000000000000000001931Z01620180228X066000000
2MAIL0000064365BR23        BRG1        BRG1COCO    BRG1COCO13AG00000700000000001228512700000000000000100000000000000000000000004761Z01620180228X066000000
2MAIL0000064365BR23        BRG1        BRG1COCO    BRG1COCO13AG00000800000000001231189200000000000000100000000000000000000000004761Z01620180228X066000000
2MAIL0000064365BR23        BRG1        BRG1COCO    BRG1COCO13AG00000900000000001231389600000000000000100000000000000000000000001931Z01620180228X066000000
2MAIL0000064365BR23        BRG1        BRG1COCO    BRG1COCO13AG00001000000000001233695100000000000000100000000000000000000000001931Z01620180228X066000000
2MAIL0000064365BR23        BRG1        BRG1COCO    BRG1COCO13AG00001100000000001236512900000000000001000000000000000000000000001782Z01620180228X066005000
2MAIL0000064365BR23        BRG1        BRG1COCO    BRG1COCO13AG00001200000000001236515000000000000001000000000000000000000000001782Z01620180228X066005000
2MAIL0000064365BR23        BRG1        BRG1COCO    BRG1COCO13AG00001300000000001236528200000000000001000000000000000000000000004725Z01620180228X066010000
1MAIL0000064366BR23        BRG1        BRG1COCO    BRG1COCO13AG2018022800:00:00OR  01000004981247000498124764366                              2018022820180228Z016CIF201802280000000000016414NN0                                                  0
2MAIL0000064366BR23        BRG1        BRG1COCO    BRG1COCO13AG00000100000000001132036700000000000001000000000000000000000000016414Z01620180228X066015000
1MAIL0000064383BR23        BRG1        BRG1COCO    BRG1COCO13AG2018022800:00:00OR  01000004041395000404139564383                              2018022820180228Z016CIF201802280000000000011523NN0                                                  0
2MAIL0000064383BR23        BRG1        BRG1COCO    BRG1COCO13AG00000100000000001132019800000000000000100000000000000000000000002396Z01620180228X066000000
2MAIL0000064383BR23        BRG1        BRG1COCO    BRG1COCO13AG00000200000000001132036700000000000000100000000000000000000000001710Z01620180228X066015000
2MAIL0000064383BR23        BRG1        BRG1COCO    BRG1COCO13AG00000300000000001228100400000000000000100000000000000000000000002246Z01620180228X066018000
2MAIL0000064383BR23        BRG1        BRG1COCO    BRG1COCO13AG00000400000000001233098400000000000001400000000000000000000000005171Z01620180228X066010000
1MAIL0000064384BR23        BRG1        BRG1COCO    BRG1COCO13AG2018022800:00:00OR  01000003337327000333732764384                              2018022820180228ZG40CIF201802280000000000012457NN0                                                  0
2MAIL0000064384BR23        BRG1        BRG1COCO    BRG1COCO13AG00000100000000001132019800000000000000100000000000000000000000002255ZG4020180228X066000000
2MAIL0000064384BR23        BRG1        BRG1COCO    BRG1COCO13AG00000200000000001132036700000000000000200000000000000000000000003221ZG4020180228X066015000
2MAIL0000064384BR23        BRG1        BRG1COCO    BRG1COCO13AG00000300000000001228100400000000000000100000000000000000000000002115ZG4020180228X066018000
2MAIL0000064384BR23        BRG1        BRG1COCO    BRG1COCO13AG00000400000000001233098400000000000001400000000000000000000000004866ZG4020180228X066010000
1MAIL0000064385BR23        BRG1        BRG1COCO    BRG1COCO13AG2018022800:00:00OR  01000002862122000286212264385                              2018022820180228Z016CIF201802280000000000097832NN0                                                  0
2MAIL0000064385BR23        BRG1        BRG1COCO    BRG1COCO13AG00000100000000001132019800000000000000200000000000000000000000004599Z01620180228X066000000
2MAIL0000064385BR23        BRG1        BRG1COCO    BRG1COCO13AG00000200000000001132033100000000000000500000000000000000000000008208Z01620180228X066015000
2MAIL0000064385BR23        BRG1        BRG1COCO    BRG1COCO13AG00000300000000001132036700000000000001000000000000000000000000016414Z01620180228X066015000
2MAIL0000064385BR23        BRG1        BRG1COCO    BRG1COCO13AG00000400000000001215533700000000000000500000000000000000000000008208Z01620180228X066015000
2MAIL0000064385BR23        BRG1        BRG1COCO    BRG1COCO13AG00000500000000001228100400000000000000500000000000000000000000010773Z01620180228X066018000
2MAIL0000064385BR23        BRG1        BRG1COCO    BRG1COCO13AG00000600000000001233081900000000000002800000000000000000000000009926Z01620180228X066010000
2MAIL0000064385BR23        BRG1        BRG1COCO    BRG1COCO13AG00000700000000001233098400000000000002800000000000000000000000009926Z01620180228X066010000
2MAIL0000064385BR23        BRG1        BRG1COCO    BRG1COCO13AG00000800000000001233098600000000000002800000000000000000000000009926Z01620180228X066010000
2MAIL0000064385BR23        BRG1        BRG1COCO    BRG1COCO13AG00000900000000001233098800000000000002800000000000000000000000009926Z01620180228X066010000
2MAIL0000064385BR23        BRG1        BRG1COCO    BRG1COCO13AG00001000000000001233154200000000000002800000000000000000000000009926Z01620180228X066010000
1MAIL0000064386BR23        BRG1        BRG1COCO    BRG1COCO13AG2018022800:00:00OR  01000002860743000286074364386                              2018022820180228ZG40CIF201802280000000000016336NN0                                                  0
2MAIL0000064386BR23        BRG1        BRG1COCO    BRG1COCO13AG00000100000000001132019800000000000000100000000000000000000000002351ZG4020180228X066000000
2MAIL0000064386BR23        BRG1        BRG1COCO    BRG1COCO13AG00000200000000001132033100000000000000200000000000000000000000003356ZG4020180228X066015000
2MAIL0000064386BR23        BRG1        BRG1COCO    BRG1COCO13AG00000300000000001132036700000000000000200000000000000000000000003356ZG4020180228X066015000
2MAIL0000064386BR23        BRG1        BRG1COCO    BRG1COCO13AG00000400000000001228100400000000000000100000000000000000000000002203ZG4020180228X066018000
2MAIL0000064386BR23        BRG1        BRG1COCO    BRG1COCO13AG00000500000000001233098400000000000001400000000000000000000000005070ZG4020180228X066010000
1MAIL0000064389BR23        BRG1        BRG1COCO    BRG1COCO13AG2018022800:00:00OR  01000005515904000551590464389                              2018022820180228Z016CIF201802280000000000008205NN0                                                  0
2MAIL0000064389BR23        BRG1        BRG1COCO    BRG1COCO13AG00000100000000001132033100000000000000100000000000000000000000001641Z01620180228X066015000
2MAIL0000064389BR23        BRG1        BRG1COCO    BRG1COCO13AG00000200000000001132036700000000000000100000000000000000000000001641Z01620180228X066015000
2MAIL0000064389BR23        BRG1        BRG1COCO    BRG1COCO13AG00000300000000001215533700000000000000100000000000000000000000001641Z01620180228X066015000
2MAIL0000064389BR23        BRG1        BRG1COCO    BRG1COCO13AG00000400000000001227395500000000000000100000000000000000000000001641Z01620180228X066015000
2MAIL0000064389BR23        BRG1        BRG1COCO    BRG1COCO13AG00000500000000001231389600000000000000100000000000000000000000001641Z01620180228X066015000
1MAIL0000064391BR23        BRG1        BRG1COCO    BRG1COCO13AG2018022800:00:00OR  01000002850066000285006664391                              2018022820180228Z016CIF201802280000000000057217NN0                                                  0
2MAIL0000064391BR23        BRG1        BRG1COCO    BRG1COCO13AG00000100000000001235356200000000000001500000000000000000000000033941Z01620180228X066000000
2MAIL0000064391BR23        BRG1        BRG1COCO    BRG1COCO13AG00000200000000001235737300000000000000800000000000000000000000023276Z01620180228X066000000
1MAIL0000064395BR23        BRG1        BRG1COCO    BRG1COCO13AG2018022800:00:00OR  01000005412457000541245764395                              2018022820180228Z016CIF201802280000000000006967NN0                                                  0
2MAIL0000064395BR23        BRG1        BRG1COCO    BRG1COCO13AG00000100000000001132036700000000000000100000000000000000000000001641Z01620180228X066015000
2MAIL0000064395BR23        BRG1        BRG1COCO    BRG1COCO13AG00000200000000001132200400000000000000300000000000000000000000005326Z01620180228X066004850
1MAIL0000064396BR23        BRG1        BRG1COCO    BRG1COCO13AG2018022800:00:00OR  01000004006553000400655364396                              2018022820180228Z016CIF201802280000000000007406NN0                                                  0
2MAIL0000064396BR23        BRG1        BRG1COCO    BRG1COCO13AG00000100000000001132019900000000000000100000000000000000000000002276Z01620180228X066005000
2MAIL0000064396BR23        BRG1        BRG1COCO    BRG1COCO13AG00000200000000001132033100000000000000100000000000000000000000001710Z01620180228X066015000
2MAIL0000064396BR23        BRG1        BRG1COCO    BRG1COCO13AG00000300000000001132036700000000000000100000000000000000000000001710Z01620180228X066015000
2MAIL0000064396BR23        BRG1        BRG1COCO    BRG1COCO13AG00000400000000001231389600000000000000100000000000000000000000001710Z01620180228X066015000
1MAIL0000064397BR23        BRG1        BRG1COCO    BRG1COCO13AG2018022800:00:00OR  01000002910752000291075264397                              2018022820180228Z016CIF201802280000000000006706NN0                                                  0
2MAIL0000064397BR23        BRG1        BRG1COCO    BRG1COCO13AG00000100000000001132019900000000000000100000000000000000000000002184Z01620180228X066005000
2MAIL0000064397BR23        BRG1        BRG1COCO    BRG1COCO13AG00000200000000001234705700000000000000100000000000000000000000004522Z01620180228X066005000
