1MAIL0000065115BR23        BRG1        BRG1COCO    BRG1COCO13AG2018030500:00:00OR  01000005368995000536899565115                              2018030520180305Z016CIF201803050000000002717284NN0                                                  0
2MAIL0000065115BR23        BRG1        BRG1COCO    BRG1COCO13AG00000100000000001132033100000000000028800000000000000000000000444647Z01620180305X066007000
2MAIL0000065115BR23        BRG1        BRG1COCO    BRG1COCO13AG00000200000000001132036700000000000057600000000000000000000000889292Z01620180305X066007000
2MAIL0000065115BR23        BRG1        BRG1COCO    BRG1COCO13AG00000300000000001215533700000000000035200000000000000000000000543457Z01620180305X066007000
2MAIL0000065115BR23        BRG1        BRG1COCO    BRG1COCO13AG00000400000000001227395500000000000028800000000000000000000000444647Z01620180305X066007000
2MAIL0000065115BR23        BRG1        BRG1COCO    BRG1COCO13AG00000500000000001231389600000000000025600000000000000000000000395241Z01620180305X066007000
1MAIL0000065116BR23        BRG1        BRG1COCO    BRG1COCO13AG2018030500:00:00OR  01000002589895000258989565116                              2018030520180305Z016CIF201803050000000000888317NN0                                                  0
2MAIL0000065116BR23        BRG1        BRG1COCO    BRG1COCO13AG00000100000000001132018300000000000000800000000000000000000000028788Z01620180305X066025000
2MAIL0000065116BR23        BRG1        BRG1COCO    BRG1COCO13AG00000200000000001132200400000000000002400000000000000000000000042987Z01620180305X066004000
2MAIL0000065116BR23        BRG1        BRG1COCO    BRG1COCO13AG00000300000000001132213000000000000000600000000000000000000000020565Z01620180305X066004950
2MAIL0000065116BR23        BRG1        BRG1COCO    BRG1COCO13AG00000400000000001132213100000000000000600000000000000000000000020565Z01620180305X066004950
2MAIL0000065116BR23        BRG1        BRG1COCO    BRG1COCO13AG00000500000000001223975300000000000009600000000000000000000000394720Z01620180305X066005000
2MAIL0000065116BR23        BRG1        BRG1COCO    BRG1COCO13AG00000600000000001226089600000000000009600000000000000000000000030770Z01620180305X066006000
2MAIL0000065116BR23        BRG1        BRG1COCO    BRG1COCO13AG00000700000000001228274000000000000000800000000000000000000000032893Z01620180305X066005000
2MAIL0000065116BR23        BRG1        BRG1COCO    BRG1COCO13AG00000800000000001231189200000000000000800000000000000000000000032893Z01620180305X066005000
2MAIL0000065116BR23        BRG1        BRG1COCO    BRG1COCO13AG00000900000000001233098400000000000005600000000000000000000000018696Z01620180305X066006750
2MAIL0000065116BR23        BRG1        BRG1COCO    BRG1COCO13AG00001000000000001233098800000000000011200000000000000000000000037392Z01620180305X066006750
2MAIL0000065116BR23        BRG1        BRG1COCO    BRG1COCO13AG00001100000000001233154200000000000005600000000000000000000000018696Z01620180305X066006750
2MAIL0000065116BR23        BRG1        BRG1COCO    BRG1COCO13AG00001200000000001234705700000000000001600000000000000000000000065787Z01620180305X066005000
2MAIL0000065116BR23        BRG1        BRG1COCO    BRG1COCO13AG00001300000000001234705800000000000001600000000000000000000000065787Z01620180305X066005000
2MAIL0000065116BR23        BRG1        BRG1COCO    BRG1COCO13AG00001400000000001234708700000000000011200000000000000000000000037392Z01620180305X066006750
2MAIL0000065116BR23        BRG1        BRG1COCO    BRG1COCO13AG00001500000000001235699400000000000004000000000000000000000000013462Z01620180305X066006000
2MAIL0000065116BR23        BRG1        BRG1COCO    BRG1COCO13AG00001600000000001235699700000000000004000000000000000000000000013462Z01620180305X066006000
2MAIL0000065116BR23        BRG1        BRG1COCO    BRG1COCO13AG00001700000000001235699800000000000004000000000000000000000000013462Z01620180305X066006000
1MAIL0000065117BR23        BRG1        BRG1COCO    BRG1COCO13AG2018030500:00:00OR  01000003835424000383542465117                              2018030520180305Z016CIF201803050000000000779366NN0                                                  0
2MAIL0000065117BR23        BRG1        BRG1COCO    BRG1COCO13AG00000100000000001132034900000000000001000000000000000000000000014012Z01620180305X066015000
2MAIL0000065117BR23        BRG1        BRG1COCO    BRG1COCO13AG00000200000000001132200400000000000002400000000000000000000000042987Z01620180305X066004000
2MAIL0000065117BR23        BRG1        BRG1COCO    BRG1COCO13AG00000300000000001132213000000000000000600000000000000000000000020565Z01620180305X066004950
2MAIL0000065117BR23        BRG1        BRG1COCO    BRG1COCO13AG00000400000000001132213100000000000000600000000000000000000000020565Z01620180305X066004950
2MAIL0000065117BR23        BRG1        BRG1COCO    BRG1COCO13AG00000500000000001226089600000000000009600000000000000000000000030770Z01620180305X066006000
2MAIL0000065117BR23        BRG1        BRG1COCO    BRG1COCO13AG00000600000000001231231200000000000009600000000000000000000000394720Z01620180305X066005000
2MAIL0000065117BR23        BRG1        BRG1COCO    BRG1COCO13AG00000700000000001233098400000000000005600000000000000000000000018696Z01620180305X066006750
2MAIL0000065117BR23        BRG1        BRG1COCO    BRG1COCO13AG00000800000000001233098600000000000005600000000000000000000000018696Z01620180305X066006750
2MAIL0000065117BR23        BRG1        BRG1COCO    BRG1COCO13AG00000900000000001233098800000000000011200000000000000000000000037392Z01620180305X066006750
2MAIL0000065117BR23        BRG1        BRG1COCO    BRG1COCO13AG00001000000000001233099500000000000005600000000000000000000000018696Z01620180305X066006750
2MAIL0000065117BR23        BRG1        BRG1COCO    BRG1COCO13AG00001100000000001233154200000000000005600000000000000000000000018703Z01620180305X066006720
2MAIL0000065117BR23        BRG1        BRG1COCO    BRG1COCO13AG00001200000000001234705700000000000000800000000000000000000000032893Z01620180305X066005000
2MAIL0000065117BR23        BRG1        BRG1COCO    BRG1COCO13AG00001300000000001234705800000000000000800000000000000000000000032893Z01620180305X066005000
2MAIL0000065117BR23        BRG1        BRG1COCO    BRG1COCO13AG00001400000000001234708700000000000011200000000000000000000000037392Z01620180305X066006750
2MAIL0000065117BR23        BRG1        BRG1COCO    BRG1COCO13AG00001500000000001235699400000000000004000000000000000000000000013462Z01620180305X066006000
2MAIL0000065117BR23        BRG1        BRG1COCO    BRG1COCO13AG00001600000000001235699700000000000004000000000000000000000000013462Z01620180305X066006000
2MAIL0000065117BR23        BRG1        BRG1COCO    BRG1COCO13AG00001700000000001235699800000000000004000000000000000000000000013462Z01620180305X066006000
1MAIL0000065118BR23        BRG1        BRG1COCO    BRG1COCO13AG2018030500:00:00OR  01000002955283000295528365118                              2018030520180305Z016CIF201803050000000000184164NN0                                                  0
2MAIL0000065118BR23        BRG1        BRG1COCO    BRG1COCO13AG00000100000000001132034900000000000001000000000000000000000000014012Z01620180305X066015000
2MAIL0000065118BR23        BRG1        BRG1COCO    BRG1COCO13AG00000200000000001226089600000000000004800000000000000000000000015385Z01620180305X066006000
2MAIL0000065118BR23        BRG1        BRG1COCO    BRG1COCO13AG00000300000000001228274000000000000000800000000000000000000000032893Z01620180305X066005000
2MAIL0000065118BR23        BRG1        BRG1COCO    BRG1COCO13AG00000400000000001233098400000000000005600000000000000000000000018696Z01620180305X066006750
2MAIL0000065118BR23        BRG1        BRG1COCO    BRG1COCO13AG00000500000000001233098800000000000005600000000000000000000000018696Z01620180305X066006750
2MAIL0000065118BR23        BRG1        BRG1COCO    BRG1COCO13AG00000600000000001234705700000000000000800000000000000000000000032893Z01620180305X066005000
2MAIL0000065118BR23        BRG1        BRG1COCO    BRG1COCO13AG00000700000000001234705800000000000000800000000000000000000000032893Z01620180305X066005000
2MAIL0000065118BR23        BRG1        BRG1COCO    BRG1COCO13AG00000800000000001234708700000000000005600000000000000000000000018696Z01620180305X066006750
1MAIL0000065119BR23        BRG1        BRG1COCO    BRG1COCO13AG2018030500:00:00OR  01000000942640000094264065119                              2018030520180305Z016CIF201803050000000001339603NN0                                                  0
2MAIL0000065119BR23        BRG1        BRG1COCO    BRG1COCO13AG00000100000000001132004200000000000002000000000000000000000000022743Z01620180305X066005000
2MAIL0000065119BR23        BRG1        BRG1COCO    BRG1COCO13AG00000200000000001132020900000000000001800000000000000000000000039317Z01620180305X066005000
2MAIL0000065119BR23        BRG1        BRG1COCO    BRG1COCO13AG00000300000000001132034900000000000004000000000000000000000000056048Z01620180305X066015000
2MAIL0000065119BR23        BRG1        BRG1COCO    BRG1COCO13AG00000400000000001132035100000000000002000000000000000000000000029568Z01620180305X066015000
2MAIL0000065119BR23        BRG1        BRG1COCO    BRG1COCO13AG00000500000000001132213000000000000002400000000000000000000000082263Z01620180305X066004950
2MAIL0000065119BR23        BRG1        BRG1COCO    BRG1COCO13AG00000600000000001132213100000000000001200000000000000000000000041132Z01620180305X066004950
2MAIL0000065119BR23        BRG1        BRG1COCO    BRG1COCO13AG00000700000000001221415400000000000000800000000000000000000000028788Z01620180305X066025000
2MAIL0000065119BR23        BRG1        BRG1COCO    BRG1COCO13AG00000800000000001223975300000000000001600000000000000000000000065787Z01620180305X066005000
2MAIL0000065119BR23        BRG1        BRG1COCO    BRG1COCO13AG00000900000000001224882700000000000001200000000000000000000000034257Z01620180305X066005000
2MAIL0000065119BR23        BRG1        BRG1COCO    BRG1COCO13AG00001000000000001226089600000000000009600000000000000000000000030770Z01620180305X066006000
2MAIL0000065119BR23        BRG1        BRG1COCO    BRG1COCO13AG00001100000000001228134700000000000001200000000000000000000000034257Z01620180305X066005000
2MAIL0000065119BR23        BRG1        BRG1COCO    BRG1COCO13AG00001200000000001228274000000000000001600000000000000000000000065787Z01620180305X066005000
2MAIL0000065119BR23        BRG1        BRG1COCO    BRG1COCO13AG00001300000000001231189200000000000002400000000000000000000000098681Z01620180305X066005000
2MAIL0000065119BR23        BRG1        BRG1COCO    BRG1COCO13AG00001400000000001231231200000000000002400000000000000000000000098681Z01620180305X066005000
2MAIL0000065119BR23        BRG1        BRG1COCO    BRG1COCO13AG00001500000000001231417800000000000001200000000000000000000000034257Z01620180305X066005000
2MAIL0000065119BR23        BRG1        BRG1COCO    BRG1COCO13AG00001600000000001233098400000000000016800000000000000000000000056088Z01620180305X066006750
2MAIL0000065119BR23        BRG1        BRG1COCO    BRG1COCO13AG00001700000000001233098600000000000016800000000000000000000000056088Z01620180305X066006750
2MAIL0000065119BR23        BRG1        BRG1COCO    BRG1COCO13AG00001800000000001233098800000000000016800000000000000000000000056088Z01620180305X066006750
2MAIL0000065119BR23        BRG1        BRG1COCO    BRG1COCO13AG00001900000000001233099500000000000005600000000000000000000000018696Z01620180305X066006750
2MAIL0000065119BR23        BRG1        BRG1COCO    BRG1COCO13AG00002000000000001233154200000000000016800000000000000000000000056088Z01620180305X066006750
2MAIL0000065119BR23        BRG1        BRG1COCO    BRG1COCO13AG00002100000000001234705700000000000002400000000000000000000000098681Z01620180305X066005000
2MAIL0000065119BR23        BRG1        BRG1COCO    BRG1COCO13AG00002200000000001234705800000000000002400000000000000000000000098681Z01620180305X066005000
2MAIL0000065119BR23        BRG1        BRG1COCO    BRG1COCO13AG00002300000000001234708700000000000016800000000000000000000000056088Z01620180305X066006750
2MAIL0000065119BR23        BRG1        BRG1COCO    BRG1COCO13AG00002400000000001235699400000000000008000000000000000000000000026923Z01620180305X066006000
2MAIL0000065119BR23        BRG1        BRG1COCO    BRG1COCO13AG00002500000000001235699700000000000008000000000000000000000000026923Z01620180305X066006000
2MAIL0000065119BR23        BRG1        BRG1COCO    BRG1COCO13AG00002600000000001235699800000000000008000000000000000000000000026923Z01620180305X066006000
1MAIL0000065120BR23        BRG1        BRG1COCO    BRG1COCO13AG2018030500:00:00OR  01000000942639000094263965120                              2018030520180305Z016CIF201803050000000000396994NN0                                                  0
2MAIL0000065120BR23        BRG1        BRG1COCO    BRG1COCO13AG00000100000000001132035000000000000001000000000000000000000000015561Z01620180305X066015000
2MAIL0000065120BR23        BRG1        BRG1COCO    BRG1COCO13AG00000200000000001132200400000000000002400000000000000000000000042987Z01620180305X066004000
2MAIL0000065120BR23        BRG1        BRG1COCO    BRG1COCO13AG00000300000000001132213000000000000000600000000000000000000000020565Z01620180305X066004950
2MAIL0000065120BR23        BRG1        BRG1COCO    BRG1COCO13AG00000400000000001132213100000000000000600000000000000000000000020565Z01620180305X066004950
2MAIL0000065120BR23        BRG1        BRG1COCO    BRG1COCO13AG00000500000000001223975300000000000000800000000000000000000000032893Z01620180305X066005000
2MAIL0000065120BR23        BRG1        BRG1COCO    BRG1COCO13AG00000600000000001226089600000000000009600000000000000000000000030524Z01620180305X066006750
2MAIL0000065120BR23        BRG1        BRG1COCO    BRG1COCO13AG00000700000000001231189200000000000000800000000000000000000000032893Z01620180305X066005000
2MAIL0000065120BR23        BRG1        BRG1COCO    BRG1COCO13AG00000800000000001233098400000000000005600000000000000000000000018696Z01620180305X066006750
2MAIL0000065120BR23        BRG1        BRG1COCO    BRG1COCO13AG00000900000000001233098600000000000005600000000000000000000000018696Z01620180305X066006750
2MAIL0000065120BR23        BRG1        BRG1COCO    BRG1COCO13AG00001000000000001233098800000000000011200000000000000000000000037392Z01620180305X066006750
2MAIL0000065120BR23        BRG1        BRG1COCO    BRG1COCO13AG00001100000000001233154200000000000005600000000000000000000000020050Z01620180305X066000000
2MAIL0000065120BR23        BRG1        BRG1COCO    BRG1COCO13AG00001200000000001234705700000000000000800000000000000000000000032893Z01620180305X066005000
2MAIL0000065120BR23        BRG1        BRG1COCO    BRG1COCO13AG00001300000000001234705800000000000000800000000000000000000000032893Z01620180305X066005000
2MAIL0000065120BR23        BRG1        BRG1COCO    BRG1COCO13AG00001400000000001235699400000000000004000000000000000000000000013462Z01620180305X066006000
2MAIL0000065120BR23        BRG1        BRG1COCO    BRG1COCO13AG00001500000000001235699700000000000004000000000000000000000000013462Z01620180305X066006000
2MAIL0000065120BR23        BRG1        BRG1COCO    BRG1COCO13AG00001600000000001235699800000000000004000000000000000000000000013462Z01620180305X066006000
1MAIL0000065121BR23        BRG1        BRG1COCO    BRG1COCO13AG2018030500:00:00OR  01000000942638000094263865121                              2018030520180305Z016CIF201803050000000000696205NN0                                                  0
2MAIL0000065121BR23        BRG1        BRG1COCO    BRG1COCO13AG00000100000000001132004200000000000002000000000000000000000000022743Z01620180305X066005000
2MAIL0000065121BR23        BRG1        BRG1COCO    BRG1COCO13AG00000200000000001132018300000000000000800000000000000000000000028788Z01620180305X066025000
2MAIL0000065121BR23        BRG1        BRG1COCO    BRG1COCO13AG00000300000000001132034900000000000002000000000000000000000000028025Z01620180305X066015000
2MAIL0000065121BR23        BRG1        BRG1COCO    BRG1COCO13AG00000400000000001132035000000000000001000000000000000000000000015561Z01620180305X066015000
2MAIL0000065121BR23        BRG1        BRG1COCO    BRG1COCO13AG00000500000000001132035100000000000001000000000000000000000000014784Z01620180305X066015000
2MAIL0000065121BR23        BRG1        BRG1COCO    BRG1COCO13AG00000600000000001132200400000000000000400000000000000000000000007164Z01620180305X066004000
2MAIL0000065121BR23        BRG1        BRG1COCO    BRG1COCO13AG00000700000000001132213000000000000000600000000000000000000000020565Z01620180305X066004950
2MAIL0000065121BR23        BRG1        BRG1COCO    BRG1COCO13AG00000800000000001132400100000000000000200000000000000000000000006672Z01620180305X066005000
2MAIL0000065121BR23        BRG1        BRG1COCO    BRG1COCO13AG00000900000000001221415400000000000000800000000000000000000000028788Z01620180305X066025000
2MAIL0000065121BR23        BRG1        BRG1COCO    BRG1COCO13AG00001000000000001223975300000000000000800000000000000000000000032893Z01620180305X066005000
2MAIL0000065121BR23        BRG1        BRG1COCO    BRG1COCO13AG00001100000000001224882700000000000001200000000000000000000000034257Z01620180305X066005000
2MAIL0000065121BR23        BRG1        BRG1COCO    BRG1COCO13AG00001200000000001226089600000000000009600000000000000000000000030524Z01620180305X066006750
2MAIL0000065121BR23        BRG1        BRG1COCO    BRG1COCO13AG00001300000000001228274000000000000000800000000000000000000000032893Z01620180305X066005000
2MAIL0000065121BR23        BRG1        BRG1COCO    BRG1COCO13AG00001400000000001231189200000000000000800000000000000000000000032893Z01620180305X066005000
2MAIL0000065121BR23        BRG1        BRG1COCO    BRG1COCO13AG00001500000000001231231200000000000000800000000000000000000000032893Z01620180305X066005000
2MAIL0000065121BR23        BRG1        BRG1COCO    BRG1COCO13AG00001600000000001233098400000000000016800000000000000000000000056088Z01620180305X066006750
2MAIL0000065121BR23        BRG1        BRG1COCO    BRG1COCO13AG00001700000000001233098800000000000011200000000000000000000000037392Z01620180305X066006750
2MAIL0000065121BR23        BRG1        BRG1COCO    BRG1COCO13AG00001800000000001233099500000000000005600000000000000000000000018696Z01620180305X066006750
2MAIL0000065121BR23        BRG1        BRG1COCO    BRG1COCO13AG00001900000000001233154200000000000005600000000000000000000000018696Z01620180305X066006750
2MAIL0000065121BR23        BRG1        BRG1COCO    BRG1COCO13AG00002000000000001234705700000000000001600000000000000000000000065787Z01620180305X066005000
2MAIL0000065121BR23        BRG1        BRG1COCO    BRG1COCO13AG00002100000000001234705800000000000001600000000000000000000000065787Z01620180305X066005000
2MAIL0000065121BR23        BRG1        BRG1COCO    BRG1COCO13AG00002200000000001234708700000000000011200000000000000000000000037392Z01620180305X066006750
2MAIL0000065121BR23        BRG1        BRG1COCO    BRG1COCO13AG00002300000000001235699400000000000004000000000000000000000000013462Z01620180305X066006000
2MAIL0000065121BR23        BRG1        BRG1COCO    BRG1COCO13AG00002400000000001235699700000000000004000000000000000000000000013462Z01620180305X066006000
