1MAIL0000064922BR23        BRG1        BRG1COCO    BRG1COCO13AG2018022000:00:00OR  01000002980641000298064164922                              2018022020180303Z846CIF201803030000000001326402NN0                                                  0
2MAIL0000064922BR23        BRG1        BRG1COCO    BRG1COCO13AG00000100000000001132019800000000000000100000000000000000000000002343Z84620180303X066000000
2MAIL0000064922BR23        BRG1        BRG1COCO    BRG1COCO13AG00000200000000001132033100000000000003200000000000000000000000062939Z84620180303X066015000
2MAIL0000064922BR23        BRG1        BRG1COCO    BRG1COCO13AG00000300000000001132036700000000000003200000000000000000000000062939Z84620180303X066015000
2MAIL0000064922BR23        BRG1        BRG1COCO    BRG1COCO13AG00000400000000001132213000000000000000200000000000000000000000008083Z84620180303X066004950
2MAIL0000064922BR23        BRG1        BRG1COCO    BRG1COCO13AG00000500000000001215533700000000000001600000000000000000000000031470Z84620180303X066015000
2MAIL0000064922BR23        BRG1        BRG1COCO    BRG1COCO13AG00000600000000001223975300000000000000200000000000000000000000009702Z84620180303X066000000
2MAIL0000064922BR23        BRG1        BRG1COCO    BRG1COCO13AG00000700000000001226089600000000000002400000000000000000000000009165Z84620180303X066009920
2MAIL0000064922BR23        BRG1        BRG1COCO    BRG1COCO13AG00000800000000001227395500000000000001600000000000000000000000031470Z84620180303X066015000
2MAIL0000064922BR23        BRG1        BRG1COCO    BRG1COCO13AG00000900000000001227735000000000000000100000000000000000000000002343Z84620180303X066000000
2MAIL0000064922BR23        BRG1        BRG1COCO    BRG1COCO13AG00001000000000001228090100000000000090000000000000000000000000687537Z84620180303X066004960
2MAIL0000064922BR23        BRG1        BRG1COCO    BRG1COCO13AG00001100000000001228100400000000000002000000000000000000000000053548Z84620180303X066015000
2MAIL0000064922BR23        BRG1        BRG1COCO    BRG1COCO13AG00001200000000001228274000000000000000200000000000000000000000009702Z84620180303X066005000
2MAIL0000064922BR23        BRG1        BRG1COCO    BRG1COCO13AG00001300000000001228512700000000000000200000000000000000000000009702Z84620180303X066005000
2MAIL0000064922BR23        BRG1        BRG1COCO    BRG1COCO13AG00001400000000001231189200000000000000200000000000000000000000009702Z84620180303X066005000
2MAIL0000064922BR23        BRG1        BRG1COCO    BRG1COCO13AG00001500000000001231231200000000000000200000000000000000000000009702Z84620180303X066005000
2MAIL0000064922BR23        BRG1        BRG1COCO    BRG1COCO13AG00001600000000001231389600000000000001600000000000000000000000031470Z84620180303X066015000
2MAIL0000064922BR23        BRG1        BRG1COCO    BRG1COCO13AG00001700000000001233081900000000000005600000000000000000000000022454Z84620180303X066009920
2MAIL0000064922BR23        BRG1        BRG1COCO    BRG1COCO13AG00001800000000001233098400000000000005600000000000000000000000022454Z84620180303X066009920
2MAIL0000064922BR23        BRG1        BRG1COCO    BRG1COCO13AG00001900000000001233098500000000000005600000000000000000000000022454Z84620180303X066009920
2MAIL0000064922BR23        BRG1        BRG1COCO    BRG1COCO13AG00002000000000001233098600000000000005600000000000000000000000022454Z84620180303X066009920
2MAIL0000064922BR23        BRG1        BRG1COCO    BRG1COCO13AG00002100000000001233098800000000000005600000000000000000000000022454Z84620180303X066009920
2MAIL0000064922BR23        BRG1        BRG1COCO    BRG1COCO13AG00002200000000001233099500000000000005600000000000000000000000022454Z84620180303X066009920
2MAIL0000064922BR23        BRG1        BRG1COCO    BRG1COCO13AG00002300000000001233154200000000000005600000000000000000000000022454Z84620180303X066009920
2MAIL0000064922BR23        BRG1        BRG1COCO    BRG1COCO13AG00002400000000001233695100000000000001600000000000000000000000031470Z84620180303X066015000
2MAIL0000064922BR23        BRG1        BRG1COCO    BRG1COCO13AG00002500000000001234705700000000000000200000000000000000000000009702Z84620180303X066005000
2MAIL0000064922BR23        BRG1        BRG1COCO    BRG1COCO13AG00002600000000001234705800000000000000200000000000000000000000009702Z84620180303X066005000
2MAIL0000064922BR23        BRG1        BRG1COCO    BRG1COCO13AG00002700000000001234708700000000000005600000000000000000000000022454Z84620180303X066009920
2MAIL0000064922BR23        BRG1        BRG1COCO    BRG1COCO13AG00002800000000001235699400000000000002000000000000000000000000008020Z84620180303X066004000
2MAIL0000064922BR23        BRG1        BRG1COCO    BRG1COCO13AG00002900000000001235699700000000000002000000000000000000000000008020Z84620180303X066004000
2MAIL0000064922BR23        BRG1        BRG1COCO    BRG1COCO13AG00003000000000001235699800000000000002000000000000000000000000008020Z84620180303X066006000
2MAIL0000064922BR23        BRG1        BRG1COCO    BRG1COCO13AG00003100000000001236512900000000000007000000000000000000000000011550Z84620180303X066000000
2MAIL0000064922BR23        BRG1        BRG1COCO    BRG1COCO13AG00003200000000001236515000000000000007000000000000000000000000011550Z84620180303X066000000
2MAIL0000064922BR23        BRG1        BRG1COCO    BRG1COCO13AG00003300000000001236528200000000000004000000000000000000000000016919Z84620180303X066000000
