1MAIL0000065962BR23        BRG1        BRG1COCO    BRG1COCO13AG2018030800:00:00OR  01000003855312000385531265962                              2018030820180308Z016CIF201803080000000000037206NN0                                                  0
2MAIL0000065962BR23        BRG1        BRG1COCO    BRG1COCO13AG00000100000000001132019700000000000000100000000000000000000000002184Z01620180308X066005000
2MAIL0000065962BR23        BRG1        BRG1COCO    BRG1COCO13AG00000200000000001132019800000000000000100000000000000000000000002184Z01620180308X066005000
2MAIL0000065962BR23        BRG1        BRG1COCO    BRG1COCO13AG00000300000000001132019900000000000000100000000000000000000000002184Z01620180308X066005000
2MAIL0000065962BR23        BRG1        BRG1COCO    BRG1COCO13AG00000400000000001132020900000000000000100000000000000000000000002184Z01620180308X066005000
2MAIL0000065962BR23        BRG1        BRG1COCO    BRG1COCO13AG00000500000000001132036700000000000000100000000000000000000000001641Z01620180308X066015000
2MAIL0000065962BR23        BRG1        BRG1COCO    BRG1COCO13AG00000600000000001132213000000000000000100000000000000000000000003808Z01620180308X066004000
2MAIL0000065962BR23        BRG1        BRG1COCO    BRG1COCO13AG00000700000000001132213100000000000000100000000000000000000000003808Z01620180308X066004000
2MAIL0000065962BR23        BRG1        BRG1COCO    BRG1COCO13AG00000800000000001132400100000000000000100000000000000000000000003371Z01620180308X066004000
2MAIL0000065962BR23        BRG1        BRG1COCO    BRG1COCO13AG00000900000000001226089600000000000001200000000000000000000000004096Z01620180308X066009000
2MAIL0000065962BR23        BRG1        BRG1COCO    BRG1COCO13AG00001000000000001227735000000000000000100000000000000000000000002207Z01620180308X066004000
2MAIL0000065962BR23        BRG1        BRG1COCO    BRG1COCO13AG00001100000000001234705700000000000000100000000000000000000000004522Z01620180308X066005000
2MAIL0000065962BR23        BRG1        BRG1COCO    BRG1COCO13AG00001200000000001234708700000000000001400000000000000000000000005017Z01620180308X066009000
1MAIL0000065963BR23        BRG1        BRG1COCO    BRG1COCO13AG2018030800:00:00OR  01000003381856000338185665963                              2018030820180308Z859CIF201803080000000000029740NN0                                                  0
2MAIL0000065963BR23        BRG1        BRG1COCO    BRG1COCO13AG00000100000000001235356200000000000000800000000000000000000000018102Z85920180308X066000000
2MAIL0000065963BR23        BRG1        BRG1COCO    BRG1COCO13AG00000200000000001235737300000000000000400000000000000000000000011638Z85920180308X066000000
1MAIL0000065964BR23        BRG1        BRG1COCO    BRG1COCO13AG2018030800:00:00OR  01000003486786000348678665964                              2018030820180308Z016CIF201803080000000000110063NN0                                                  0
2MAIL0000065964BR23        BRG1        BRG1COCO    BRG1COCO13AG00000100000000001132004000000000000000500000000000000000000000004116Z01620180308X066005000
2MAIL0000065964BR23        BRG1        BRG1COCO    BRG1COCO13AG00000200000000001132004200000000000000500000000000000000000000006255Z01620180308X066005000
2MAIL0000065964BR23        BRG1        BRG1COCO    BRG1COCO13AG00000300000000001132018300000000000000100000000000000000000000003934Z01620180308X066018000
2MAIL0000065964BR23        BRG1        BRG1COCO    BRG1COCO13AG00000400000000001132033100000000000000300000000000000000000000004923Z01620180308X066015000
2MAIL0000065964BR23        BRG1        BRG1COCO    BRG1COCO13AG00000500000000001132036700000000000000400000000000000000000000006566Z01620180308X066015000
2MAIL0000065964BR23        BRG1        BRG1COCO    BRG1COCO13AG00000600000000001132200400000000000000200000000000000000000000003582Z01620180308X066004000
2MAIL0000065964BR23        BRG1        BRG1COCO    BRG1COCO13AG00000700000000001215533700000000000000200000000000000000000000003282Z01620180308X066015000
2MAIL0000065964BR23        BRG1        BRG1COCO    BRG1COCO13AG00000800000000001221415400000000000000100000000000000000000000003934Z01620180308X066018000
2MAIL0000065964BR23        BRG1        BRG1COCO    BRG1COCO13AG00000900000000001227395500000000000000200000000000000000000000003282Z01620180308X066015000
2MAIL0000065964BR23        BRG1        BRG1COCO    BRG1COCO13AG00001000000000001228090100000000000003000000000000000000000000021402Z01620180308X066004900
2MAIL0000065964BR23        BRG1        BRG1COCO    BRG1COCO13AG00001100000000001228274000000000000000100000000000000000000000004522Z01620180308X066005000
2MAIL0000065964BR23        BRG1        BRG1COCO    BRG1COCO13AG00001200000000001231189200000000000000100000000000000000000000004522Z01620180308X066005000
2MAIL0000065964BR23        BRG1        BRG1COCO    BRG1COCO13AG00001300000000001231389600000000000000200000000000000000000000003282Z01620180308X066015000
2MAIL0000065964BR23        BRG1        BRG1COCO    BRG1COCO13AG00001400000000001233098400000000000001400000000000000000000000004962Z01620180308X066010000
2MAIL0000065964BR23        BRG1        BRG1COCO    BRG1COCO13AG00001500000000001233098500000000000001400000000000000000000000005183Z01620180308X066006000
2MAIL0000065964BR23        BRG1        BRG1COCO    BRG1COCO13AG00001600000000001234705700000000000000100000000000000000000000004522Z01620180308X066005000
2MAIL0000065964BR23        BRG1        BRG1COCO    BRG1COCO13AG00001700000000001234708700000000000001400000000000000000000000005183Z01620180308X066006000
2MAIL0000065964BR23        BRG1        BRG1COCO    BRG1COCO13AG00001800000000001235699400000000000001000000000000000000000000003702Z01620180308X066006000
2MAIL0000065964BR23        BRG1        BRG1COCO    BRG1COCO13AG00001900000000001235699700000000000001000000000000000000000000003702Z01620180308X066006000
2MAIL0000065964BR23        BRG1        BRG1COCO    BRG1COCO13AG00002000000000001236512900000000000001200000000000000000000000002016Z01620180308X066000000
2MAIL0000065964BR23        BRG1        BRG1COCO    BRG1COCO13AG00002100000000001236515000000000000001200000000000000000000000002016Z01620180308X066000000
2MAIL0000065964BR23        BRG1        BRG1COCO    BRG1COCO13AG00002200000000001236528200000000000001200000000000000000000000005175Z01620180308X066000000
1MAIL0000065965BR23        BRG1        BRG1COCO    BRG1COCO13AG2018030800:00:00OR  01000002980356000298035665965                              2018030820180308Z016CIF201803080000000000194551NN0                                                  0
2MAIL0000065965BR23        BRG1        BRG1COCO    BRG1COCO13AG00000100000000001228090100000000000030000000000000000000000000194551Z01620180308X066004900
1MAIL0000065966BR23        BRG1        BRG1COCO    BRG1COCO13AG2018030800:00:00OR  01000005365493000536549365966                              2018030820180308Z016CIF201803080000000000009074NN0                                                  0
2MAIL0000065966BR23        BRG1        BRG1COCO    BRG1COCO13AG00000100000000001233098400000000000001400000000000000000000000005293Z01620180308X066004000
2MAIL0000065966BR23        BRG1        BRG1COCO    BRG1COCO13AG00000200000000001235699800000000000001000000000000000000000000003781Z01620180308X066004000
1MAIL0000065967BR23        BRG1        BRG1COCO    BRG1COCO13AG2018030800:00:00OR  01000005365493000536549365967                              2018030820180308Z016CIF201803080000000000009051NN0                                                  0
2MAIL0000065967BR23        BRG1        BRG1COCO    BRG1COCO13AG00000100000000001235356200000000000000400000000000000000000000009051Z01620180308X066000000
1MAIL0000065968BR23        BRG1        BRG1COCO    BRG1COCO13AG2018030800:00:00OR  01000004559133000455913365968                              2018030820180308Z016CIF201803080000000000117877NN0                                                  0
2MAIL0000065968BR23        BRG1        BRG1COCO    BRG1COCO13AG00000100000000001228100400000000000002000000000000000000000000043093Z01620180308X066018000
2MAIL0000065968BR23        BRG1        BRG1COCO    BRG1COCO13AG00000200000000001233081900000000000005600000000000000000000000018696Z01620180308X066006750
2MAIL0000065968BR23        BRG1        BRG1COCO    BRG1COCO13AG00000300000000001233098400000000000005600000000000000000000000018696Z01620180308X066006750
2MAIL0000065968BR23        BRG1        BRG1COCO    BRG1COCO13AG00000400000000001233098600000000000005600000000000000000000000018696Z01620180308X066006750
2MAIL0000065968BR23        BRG1        BRG1COCO    BRG1COCO13AG00000500000000001233154200000000000005600000000000000000000000018696Z01620180308X066006750
1MAIL0000065969BR23        BRG1        BRG1COCO    BRG1COCO13AG2018030800:00:00OR  01000004758774000475877465969                              2018030820180308Z016CIF201803080000000000544757NN0                                                  0
2MAIL0000065969BR23        BRG1        BRG1COCO    BRG1COCO13AG00000100000000001132004000000000000004000000000000000000000000031509Z01620180308X066000000
2MAIL0000065969BR23        BRG1        BRG1COCO    BRG1COCO13AG00000200000000001132033100000000000003200000000000000000000000052525Z01620180308X066015000
2MAIL0000065969BR23        BRG1        BRG1COCO    BRG1COCO13AG00000300000000001132035100000000000002000000000000000000000000029568Z01620180308X066015000
2MAIL0000065969BR23        BRG1        BRG1COCO    BRG1COCO13AG00000400000000001132036700000000000003200000000000000000000000052525Z01620180308X066015000
2MAIL0000065969BR23        BRG1        BRG1COCO    BRG1COCO13AG00000500000000001215533700000000000003200000000000000000000000052525Z01620180308X066015000
2MAIL0000065969BR23        BRG1        BRG1COCO    BRG1COCO13AG00000600000000001223975300000000000000800000000000000000000000032893Z01620180308X066005000
2MAIL0000065969BR23        BRG1        BRG1COCO    BRG1COCO13AG00000700000000001227395500000000000003200000000000000000000000052525Z01620180308X066015000
2MAIL0000065969BR23        BRG1        BRG1COCO    BRG1COCO13AG00000800000000001228100400000000000002000000000000000000000000043093Z01620180308X066018000
2MAIL0000065969BR23        BRG1        BRG1COCO    BRG1COCO13AG00000900000000001231189200000000000000800000000000000000000000032893Z01620180308X066005000
2MAIL0000065969BR23        BRG1        BRG1COCO    BRG1COCO13AG00001000000000001231389600000000000003200000000000000000000000052525Z01620180308X066015000
2MAIL0000065969BR23        BRG1        BRG1COCO    BRG1COCO13AG00001100000000001233098400000000000005600000000000000000000000018696Z01620180308X066006750
2MAIL0000065969BR23        BRG1        BRG1COCO    BRG1COCO13AG00001200000000001233098500000000000005600000000000000000000000018696Z01620180308X066006750
2MAIL0000065969BR23        BRG1        BRG1COCO    BRG1COCO13AG00001300000000001233098800000000000005600000000000000000000000018696Z01620180308X066006750
2MAIL0000065969BR23        BRG1        BRG1COCO    BRG1COCO13AG00001400000000001233099500000000000005600000000000000000000000018696Z01620180308X066006750
2MAIL0000065969BR23        BRG1        BRG1COCO    BRG1COCO13AG00001500000000001233154200000000000005600000000000000000000000018696Z01620180308X066006750
2MAIL0000065969BR23        BRG1        BRG1COCO    BRG1COCO13AG00001600000000001234708700000000000005600000000000000000000000018696Z01620180308X066006750
1MAIL0000065970BR23        BRG1        BRG1COCO    BRG1COCO13AG2018030800:00:00OR  01000004436567000443656765970                              2018030820180308Z016CIF201803080000000000450191NN0                                                  0
2MAIL0000065970BR23        BRG1        BRG1COCO    BRG1COCO13AG00000100000000001132004000000000000002000000000000000000000000015755Z01620180308X066000000
2MAIL0000065970BR23        BRG1        BRG1COCO    BRG1COCO13AG00000200000000001132004200000000000002000000000000000000000000023940Z01620180308X066000000
2MAIL0000065970BR23        BRG1        BRG1COCO    BRG1COCO13AG00000300000000001132036700000000000003200000000000000000000000052525Z01620180308X066015000
2MAIL0000065970BR23        BRG1        BRG1COCO    BRG1COCO13AG00000400000000001132213000000000000000600000000000000000000000020565Z01620180308X066004950
2MAIL0000065970BR23        BRG1        BRG1COCO    BRG1COCO13AG00000500000000001132213100000000000000600000000000000000000000020565Z01620180308X066004950
2MAIL0000065970BR23        BRG1        BRG1COCO    BRG1COCO13AG00000600000000001215533700000000000003200000000000000000000000052525Z01620180308X066015000
2MAIL0000065970BR23        BRG1        BRG1COCO    BRG1COCO13AG00000700000000001227395500000000000003200000000000000000000000052525Z01620180308X066015000
2MAIL0000065970BR23        BRG1        BRG1COCO    BRG1COCO13AG00000800000000001231189200000000000000800000000000000000000000032893Z01620180308X066005000
2MAIL0000065970BR23        BRG1        BRG1COCO    BRG1COCO13AG00000900000000001231231200000000000000800000000000000000000000032893Z01620180308X066005000
2MAIL0000065970BR23        BRG1        BRG1COCO    BRG1COCO13AG00001000000000001231389600000000000003200000000000000000000000052525Z01620180308X066015000
2MAIL0000065970BR23        BRG1        BRG1COCO    BRG1COCO13AG00001100000000001233081900000000000005600000000000000000000000018696Z01620180308X066006750
2MAIL0000065970BR23        BRG1        BRG1COCO    BRG1COCO13AG00001200000000001233098400000000000005600000000000000000000000018696Z01620180308X066006750
2MAIL0000065970BR23        BRG1        BRG1COCO    BRG1COCO13AG00001300000000001233098500000000000005600000000000000000000000018696Z01620180308X066006750
2MAIL0000065970BR23        BRG1        BRG1COCO    BRG1COCO13AG00001400000000001233099500000000000005600000000000000000000000018696Z01620180308X066006750
2MAIL0000065970BR23        BRG1        BRG1COCO    BRG1COCO13AG00001500000000001233154200000000000005600000000000000000000000018696Z01620180308X066006750
1MAIL0000065971BR23        BRG1        BRG1COCO    BRG1COCO13AG2018030800:00:00OR  01000004396550000439655065971                              2018030820180308Z016CIF201803080000000000693282NN0                                                  0
2MAIL0000065971BR23        BRG1        BRG1COCO    BRG1COCO13AG00000100000000001132004000000000000006000000000000000000000000047264Z01620180308X066000000
2MAIL0000065971BR23        BRG1        BRG1COCO    BRG1COCO13AG00000200000000001132036700000000000003200000000000000000000000052525Z01620180308X066015000
2MAIL0000065971BR23        BRG1        BRG1COCO    BRG1COCO13AG00000300000000001132213000000000000000600000000000000000000000020565Z01620180308X066004950
2MAIL0000065971BR23        BRG1        BRG1COCO    BRG1COCO13AG00000400000000001132213100000000000001200000000000000000000000041132Z01620180308X066004950
2MAIL0000065971BR23        BRG1        BRG1COCO    BRG1COCO13AG00000500000000001223975300000000000000800000000000000000000000032893Z01620180308X066005000
2MAIL0000065971BR23        BRG1        BRG1COCO    BRG1COCO13AG00000600000000001224882700000000000001200000000000000000000000034257Z01620180308X066005000
2MAIL0000065971BR23        BRG1        BRG1COCO    BRG1COCO13AG00000700000000001227395500000000000003200000000000000000000000052525Z01620180308X066015000
2MAIL0000065971BR23        BRG1        BRG1COCO    BRG1COCO13AG00000800000000001228100400000000000010000000000000000000000000215463Z01620180308X066018000
2MAIL0000065971BR23        BRG1        BRG1COCO    BRG1COCO13AG00000900000000001231189200000000000000800000000000000000000000032893Z01620180308X066005000
2MAIL0000065971BR23        BRG1        BRG1COCO    BRG1COCO13AG00001000000000001231231200000000000000800000000000000000000000032893Z01620180308X066005000
2MAIL0000065971BR23        BRG1        BRG1COCO    BRG1COCO13AG00001100000000001233098400000000000005600000000000000000000000018696Z01620180308X066006750
2MAIL0000065971BR23        BRG1        BRG1COCO    BRG1COCO13AG00001200000000001233098500000000000011200000000000000000000000037392Z01620180308X066006750
2MAIL0000065971BR23        BRG1        BRG1COCO    BRG1COCO13AG00001300000000001233099500000000000005600000000000000000000000018696Z01620180308X066006750
2MAIL0000065971BR23        BRG1        BRG1COCO    BRG1COCO13AG00001400000000001233154200000000000011200000000000000000000000037392Z01620180308X066006750
2MAIL0000065971BR23        BRG1        BRG1COCO    BRG1COCO13AG00001500000000001234708700000000000005600000000000000000000000018696Z01620180308X066006750
1MAIL0000065972BR23        BRG1        BRG1COCO    BRG1COCO13AG2018030800:00:00OR  01000003961164000396116465972                              2018030820180308Z016CIF201803080000000000333739NN0                                                  0
2MAIL0000065972BR23        BRG1        BRG1COCO    BRG1COCO13AG00000100000000001132036700000000000003200000000000000000000000052525Z01620180308X066015000
2MAIL0000065972BR23        BRG1        BRG1COCO    BRG1COCO13AG00000200000000001132213000000000000000600000000000000000000000020565Z01620180308X066004950
2MAIL0000065972BR23        BRG1        BRG1COCO    BRG1COCO13AG00000300000000001132213100000000000000600000000000000000000000020565Z01620180308X066004950
2MAIL0000065972BR23        BRG1        BRG1COCO    BRG1COCO13AG00000400000000001223975300000000000000800000000000000000000000032893Z01620180308X066005000
2MAIL0000065972BR23        BRG1        BRG1COCO    BRG1COCO13AG00000500000000001227395500000000000003200000000000000000000000057623Z01620180308X066006750
2MAIL0000065972BR23        BRG1        BRG1COCO    BRG1COCO13AG00000600000000001233081900000000000005600000000000000000000000018696Z01620180308X066006750
2MAIL0000065972BR23        BRG1        BRG1COCO    BRG1COCO13AG00000700000000001233098400000000000005600000000000000000000000018696Z01620180308X066006750
2MAIL0000065972BR23        BRG1        BRG1COCO    BRG1COCO13AG00000800000000001233098500000000000005600000000000000000000000018696Z01620180308X066006750
2MAIL0000065972BR23        BRG1        BRG1COCO    BRG1COCO13AG00000900000000001233098600000000000005600000000000000000000000018696Z01620180308X066006750
2MAIL0000065972BR23        BRG1        BRG1COCO    BRG1COCO13AG00001000000000001233098800000000000005600000000000000000000000018696Z01620180308X066006750
2MAIL0000065972BR23        BRG1        BRG1COCO    BRG1COCO13AG00001100000000001233099500000000000005600000000000000000000000018696Z01620180308X066006750
2MAIL0000065972BR23        BRG1        BRG1COCO    BRG1COCO13AG00001200000000001233154200000000000005600000000000000000000000018696Z01620180308X066006750
2MAIL0000065972BR23        BRG1        BRG1COCO    BRG1COCO13AG00001300000000001234708700000000000005600000000000000000000000018696Z01620180308X066006750
1MAIL0000065973BR23        BRG1        BRG1COCO    BRG1COCO13AG2018030800:00:00OR  01000003173420000317342065973                              2018030820180308Z016CIF201803080000000001055317NN0                                                  0
2MAIL0000065973BR23        BRG1        BRG1COCO    BRG1COCO13AG00000100000000001132004000000000000006000000000000000000000000047264Z01620180308X066000000
2MAIL0000065973BR23        BRG1        BRG1COCO    BRG1COCO13AG00000200000000001132004200000000000002000000000000000000000000023940Z01620180308X066000000
2MAIL0000065973BR23        BRG1        BRG1COCO    BRG1COCO13AG00000300000000001132036700000000000009600000000000000000000000157577Z01620180308X066015000
2MAIL0000065973BR23        BRG1        BRG1COCO    BRG1COCO13AG00000400000000001132213000000000000001200000000000000000000000041132Z01620180308X066004950
2MAIL0000065973BR23        BRG1        BRG1COCO    BRG1COCO13AG00000500000000001215533700000000000003200000000000000000000000052525Z01620180308X066015000
2MAIL0000065973BR23        BRG1        BRG1COCO    BRG1COCO13AG00000600000000001224882700000000000001200000000000000000000000034257Z01620180308X066005000
2MAIL0000065973BR23        BRG1        BRG1COCO    BRG1COCO13AG00000700000000001226089600000000000004800000000000000000000000015385Z01620180308X066006000
2MAIL0000065973BR23        BRG1        BRG1COCO    BRG1COCO13AG00000800000000001227395500000000000006400000000000000000000000105051Z01620180308X066015000
2MAIL0000065973BR23        BRG1        BRG1COCO    BRG1COCO13AG00000900000000001228100400000000000010000000000000000000000000215463Z01620180308X066018000
2MAIL0000065973BR23        BRG1        BRG1COCO    BRG1COCO13AG00001000000000001228134700000000000001200000000000000000000000034257Z01620180308X066005000
2MAIL0000065973BR23        BRG1        BRG1COCO    BRG1COCO13AG00001100000000001231189200000000000000800000000000000000000000032893Z01620180308X066005000
2MAIL0000065973BR23        BRG1        BRG1COCO    BRG1COCO13AG00001200000000001231389600000000000003200000000000000000000000052525Z01620180308X066015000
2MAIL0000065973BR23        BRG1        BRG1COCO    BRG1COCO13AG00001300000000001233081900000000000005600000000000000000000000018696Z01620180308X066006750
2MAIL0000065973BR23        BRG1        BRG1COCO    BRG1COCO13AG00001400000000001233098400000000000011200000000000000000000000037392Z01620180308X066006750
2MAIL0000065973BR23        BRG1        BRG1COCO    BRG1COCO13AG00001500000000001233098500000000000011200000000000000000000000037392Z01620180308X066006750
2MAIL0000065973BR23        BRG1        BRG1COCO    BRG1COCO13AG00001600000000001233098800000000000016800000000000000000000000056088Z01620180308X066006750
2MAIL0000065973BR23        BRG1        BRG1COCO    BRG1COCO13AG00001700000000001233099500000000000005600000000000000000000000018696Z01620180308X066006750
2MAIL0000065973BR23        BRG1        BRG1COCO    BRG1COCO13AG00001800000000001233154200000000000016800000000000000000000000056088Z01620180308X066006750
2MAIL0000065973BR23        BRG1        BRG1COCO    BRG1COCO13AG00001900000000001234708700000000000005600000000000000000000000018696Z01620180308X066006750
1MAIL0000065974BR23        BRG1        BRG1COCO    BRG1COCO13AG2018030800:00:00OR  01000000918676000091867665974                              2018030820180308Z016CIF201803080000000001102442NN0                                                  0
2MAIL0000065974BR23        BRG1        BRG1COCO    BRG1COCO13AG00000100000000001132004000000000000006000000000000000000000000047264Z01620180308X066000000
2MAIL0000065974BR23        BRG1        BRG1COCO    BRG1COCO13AG00000200000000001132004200000000000008000000000000000000000000095759Z01620180308X066000000
2MAIL0000065974BR23        BRG1        BRG1COCO    BRG1COCO13AG00000300000000001132033100000000000003200000000000000000000000052525Z01620180308X066015000
2MAIL0000065974BR23        BRG1        BRG1COCO    BRG1COCO13AG00000400000000001132034900000000000004000000000000000000000000056048Z01620180308X066015000
2MAIL0000065974BR23        BRG1        BRG1COCO    BRG1COCO13AG00000500000000001132035000000000000002000000000000000000000000031121Z01620180308X066015000
2MAIL0000065974BR23        BRG1        BRG1COCO    BRG1COCO13AG00000600000000001132035100000000000002000000000000000000000000029568Z01620180308X066015000
2MAIL0000065974BR23        BRG1        BRG1COCO    BRG1COCO13AG00000700000000001132036700000000000006400000000000000000000000105051Z01620180308X066015000
2MAIL0000065974BR23        BRG1        BRG1COCO    BRG1COCO13AG00000800000000001132213000000000000001200000000000000000000000041132Z01620180308X066004950
2MAIL0000065974BR23        BRG1        BRG1COCO    BRG1COCO13AG00000900000000001223975300000000000000800000000000000000000000032893Z01620180308X066005000
2MAIL0000065974BR23        BRG1        BRG1COCO    BRG1COCO13AG00001000000000001224882800000000000001200000000000000000000000034257Z01620180308X066005000
2MAIL0000065974BR23        BRG1        BRG1COCO    BRG1COCO13AG00001100000000001227395500000000000003200000000000000000000000052525Z01620180308X066015000
2MAIL0000065974BR23        BRG1        BRG1COCO    BRG1COCO13AG00001200000000001228100400000000000010000000000000000000000000215463Z01620180308X066018000
2MAIL0000065974BR23        BRG1        BRG1COCO    BRG1COCO13AG00001300000000001231189200000000000000800000000000000000000000032893Z01620180308X066005000
2MAIL0000065974BR23        BRG1        BRG1COCO    BRG1COCO13AG00001400000000001231231200000000000000800000000000000000000000032893Z01620180308X066005000
2MAIL0000065974BR23        BRG1        BRG1COCO    BRG1COCO13AG00001500000000001233081900000000000011200000000000000000000000037392Z01620180308X066006750
2MAIL0000065974BR23        BRG1        BRG1COCO    BRG1COCO13AG00001600000000001233098400000000000005600000000000000000000000018696Z01620180308X066006750
2MAIL0000065974BR23        BRG1        BRG1COCO    BRG1COCO13AG00001700000000001233098500000000000005600000000000000000000000018696Z01620180308X066006750
2MAIL0000065974BR23        BRG1        BRG1COCO    BRG1COCO13AG00001800000000001233098600000000000011200000000000000000000000037392Z01620180308X066006750
2MAIL0000065974BR23        BRG1        BRG1COCO    BRG1COCO13AG00001900000000001233098800000000000005600000000000000000000000018696Z01620180308X066006750
2MAIL0000065974BR23        BRG1        BRG1COCO    BRG1COCO13AG00002000000000001233099500000000000005600000000000000000000000018696Z01620180308X066006750
2MAIL0000065974BR23        BRG1        BRG1COCO    BRG1COCO13AG00002100000000001233154200000000000028000000000000000000000000093482Z01620180308X066006750
1MAIL0000065975BR23        BRG1        BRG1COCO    BRG1COCO13AG2018030800:00:00OR  01000000918664000091866465975                              2018030820180308Z016CIF201803080000000001119997NN0                                                  0
2MAIL0000065975BR23        BRG1        BRG1COCO    BRG1COCO13AG00000100000000001132004000000000000006000000000000000000000000047264Z01620180308X066000000
2MAIL0000065975BR23        BRG1        BRG1COCO    BRG1COCO13AG00000200000000001132004200000000000008000000000000000000000000095759Z01620180308X066000000
2MAIL0000065975BR23        BRG1        BRG1COCO    BRG1COCO13AG00000300000000001132020900000000000001800000000000000000000000039317Z01620180308X066005000
2MAIL0000065975BR23        BRG1        BRG1COCO    BRG1COCO13AG00000400000000001132034900000000000002000000000000000000000000028025Z01620180308X066015000
2MAIL0000065975BR23        BRG1        BRG1COCO    BRG1COCO13AG00000500000000001132035100000000000004000000000000000000000000059135Z01620180308X066015000
2MAIL0000065975BR23        BRG1        BRG1COCO    BRG1COCO13AG00000600000000001132036700000000000006400000000000000000000000105051Z01620180308X066015000
2MAIL0000065975BR23        BRG1        BRG1COCO    BRG1COCO13AG00000700000000001223975300000000000002400000000000000000000000098681Z01620180308X066005000
2MAIL0000065975BR23        BRG1        BRG1COCO    BRG1COCO13AG00000800000000001224882700000000000001200000000000000000000000034257Z01620180308X066005000
2MAIL0000065975BR23        BRG1        BRG1COCO    BRG1COCO13AG00000900000000001228100400000000000010000000000000000000000000215463Z01620180308X066018000
2MAIL0000065975BR23        BRG1        BRG1COCO    BRG1COCO13AG00001000000000001231189200000000000001800000000000000000000000074010Z01620180308X066005000
2MAIL0000065975BR23        BRG1        BRG1COCO    BRG1COCO13AG00001100000000001231231200000000000002400000000000000000000000098681Z01620180308X066005000
2MAIL0000065975BR23        BRG1        BRG1COCO    BRG1COCO13AG00001200000000001233081900000000000005600000000000000000000000018696Z01620180308X066006750
2MAIL0000065975BR23        BRG1        BRG1COCO    BRG1COCO13AG00001300000000001233098400000000000005600000000000000000000000018696Z01620180308X066006750
2MAIL0000065975BR23        BRG1        BRG1COCO    BRG1COCO13AG00001400000000001233098500000000000005600000000000000000000000018696Z01620180308X066006750
2MAIL0000065975BR23        BRG1        BRG1COCO    BRG1COCO13AG00001500000000001233098800000000000005600000000000000000000000018696Z01620180308X066006750
2MAIL0000065975BR23        BRG1        BRG1COCO    BRG1COCO13AG00001600000000001233099500000000000011200000000000000000000000037392Z01620180308X066006750
2MAIL0000065975BR23        BRG1        BRG1COCO    BRG1COCO13AG00001700000000001233154200000000000028000000000000000000000000093482Z01620180308X066006750
2MAIL0000065975BR23        BRG1        BRG1COCO    BRG1COCO13AG00001800000000001234708700000000000005600000000000000000000000018696Z01620180308X066006750
1MAIL0000065976BR23        BRG1        BRG1COCO    BRG1COCO13AG2018030800:00:00OR  01000000918653000091865365976                              2018030820180308Z016CIF201803080000000000662494NN0                                                  0
2MAIL0000065976BR23        BRG1        BRG1COCO    BRG1COCO13AG00000100000000001132030800000000000001200000000000000000000000037338Z01620180308X066018000
2MAIL0000065976BR23        BRG1        BRG1COCO    BRG1COCO13AG00000200000000001132034900000000000004000000000000000000000000056048Z01620180308X066015000
2MAIL0000065976BR23        BRG1        BRG1COCO    BRG1COCO13AG00000300000000001132035100000000000002000000000000000000000000029568Z01620180308X066015000
2MAIL0000065976BR23        BRG1        BRG1COCO    BRG1COCO13AG00000400000000001132036700000000000003200000000000000000000000052525Z01620180308X066015000
2MAIL0000065976BR23        BRG1        BRG1COCO    BRG1COCO13AG00000500000000001228100400000000000020000000000000000000000000430927Z01620180308X066018000
2MAIL0000065976BR23        BRG1        BRG1COCO    BRG1COCO13AG00000600000000001233098400000000000011200000000000000000000000037392Z01620180308X066006750
2MAIL0000065976BR23        BRG1        BRG1COCO    BRG1COCO13AG00000700000000001234708700000000000005600000000000000000000000018696Z01620180308X066006750
1MAIL0000065977BR23        BRG1        BRG1COCO    BRG1COCO13AG2018030800:00:00OR  01000000918642000091864265977                              2018030820180308Z016CIF201803080000000001026165NN0                                                  0
2MAIL0000065977BR23        BRG1        BRG1COCO    BRG1COCO13AG00000100000000001132004000000000000010000000000000000000000000078773Z01620180308X066000000
2MAIL0000065977BR23        BRG1        BRG1COCO    BRG1COCO13AG00000200000000001132004200000000000008000000000000000000000000095759Z01620180308X066000000
2MAIL0000065977BR23        BRG1        BRG1COCO    BRG1COCO13AG00000300000000001132030800000000000002400000000000000000000000074676Z01620180308X066018000
2MAIL0000065977BR23        BRG1        BRG1COCO    BRG1COCO13AG00000400000000001132034900000000000002000000000000000000000000028025Z01620180308X066015000
2MAIL0000065977BR23        BRG1        BRG1COCO    BRG1COCO13AG00000500000000001132035100000000000002000000000000000000000000029568Z01620180308X066015000
2MAIL0000065977BR23        BRG1        BRG1COCO    BRG1COCO13AG00000600000000001132213000000000000000600000000000000000000000020565Z01620180308X066004950
2MAIL0000065977BR23        BRG1        BRG1COCO    BRG1COCO13AG00000700000000001215533700000000000003200000000000000000000000052525Z01620180308X066015000
2MAIL0000065977BR23        BRG1        BRG1COCO    BRG1COCO13AG00000800000000001224882700000000000001200000000000000000000000034257Z01620180308X066005000
2MAIL0000065977BR23        BRG1        BRG1COCO    BRG1COCO13AG00000900000000001224882800000000000001200000000000000000000000034257Z01620180308X066005000
2MAIL0000065977BR23        BRG1        BRG1COCO    BRG1COCO13AG00001000000000001227395500000000000003200000000000000000000000052525Z01620180308X066015000
2MAIL0000065977BR23        BRG1        BRG1COCO    BRG1COCO13AG00001100000000001228100400000000000010000000000000000000000000215463Z01620180308X066018000
2MAIL0000065977BR23        BRG1        BRG1COCO    BRG1COCO13AG00001200000000001231189200000000000000800000000000000000000000032893Z01620180308X066005000
2MAIL0000065977BR23        BRG1        BRG1COCO    BRG1COCO13AG00001300000000001231389600000000000003200000000000000000000000052525Z01620180308X066015000
2MAIL0000065977BR23        BRG1        BRG1COCO    BRG1COCO13AG00001400000000001233081900000000000005600000000000000000000000018696Z01620180308X066006750
2MAIL0000065977BR23        BRG1        BRG1COCO    BRG1COCO13AG00001500000000001233098400000000000005600000000000000000000000018696Z01620180308X066006750
2MAIL0000065977BR23        BRG1        BRG1COCO    BRG1COCO13AG00001600000000001233098500000000000005600000000000000000000000018696Z01620180308X066006750
2MAIL0000065977BR23        BRG1        BRG1COCO    BRG1COCO13AG00001700000000001233098600000000000005600000000000000000000000018696Z01620180308X066006750
2MAIL0000065977BR23        BRG1        BRG1COCO    BRG1COCO13AG00001800000000001233098800000000000005600000000000000000000000018696Z01620180308X066006750
2MAIL0000065977BR23        BRG1        BRG1COCO    BRG1COCO13AG00001900000000001233099500000000000005600000000000000000000000018696Z01620180308X066006750
2MAIL0000065977BR23        BRG1        BRG1COCO    BRG1COCO13AG00002000000000001233154200000000000028000000000000000000000000093482Z01620180308X066006750
2MAIL0000065977BR23        BRG1        BRG1COCO    BRG1COCO13AG00002100000000001234708700000000000005600000000000000000000000018696Z01620180308X066006750
1MAIL0000065978BR23        BRG1        BRG1COCO    BRG1COCO13AG2018030800:00:00OR  01000005185936000518593665978                              2018030820180308Z016CIF201803080000000000047529NN0                                                  0
2MAIL0000065978BR23        BRG1        BRG1COCO    BRG1COCO13AG00000100000000001132033100000000000000400000000000000000000000006442Z01620180308X066015000
2MAIL0000065978BR23        BRG1        BRG1COCO    BRG1COCO13AG00000200000000001132036700000000000000400000000000000000000000006442Z01620180308X066015000
2MAIL0000065978BR23        BRG1        BRG1COCO    BRG1COCO13AG00000300000000001132200400000000000000500000000000000000000000008877Z01620180308X066004850
2MAIL0000065978BR23        BRG1        BRG1COCO    BRG1COCO13AG00000400000000001215533700000000000000400000000000000000000000006442Z01620180308X066015000
2MAIL0000065978BR23        BRG1        BRG1COCO    BRG1COCO13AG00000500000000001227395500000000000000400000000000000000000000006442Z01620180308X066015000
2MAIL0000065978BR23        BRG1        BRG1COCO    BRG1COCO13AG00000600000000001231389600000000000000400000000000000000000000006442Z01620180308X066015000
2MAIL0000065978BR23        BRG1        BRG1COCO    BRG1COCO13AG00000700000000001233695100000000000000400000000000000000000000006442Z01620180308X066015000
1MAIL0000065979BR23        BRG1        BRG1COCO    BRG1COCO13AG2018030800:00:00OR  01000005185936000518593665979                              2018030820180308Z859CIF201803080000000000031034NN0                                                  0
2MAIL0000065979BR23        BRG1        BRG1COCO    BRG1COCO13AG00000100000000001235356200000000000000600000000000000000000000013577Z85920180308X066000000
2MAIL0000065979BR23        BRG1        BRG1COCO    BRG1COCO13AG00000200000000001235737300000000000000600000000000000000000000017457Z85920180308X066000000
1MAIL0000065983BR23        BRG1        BRG1COCO    BRG1COCO13AG2018030800:00:00OR  01000004032427000403242765983                              2018030820180310Z846CIF201803100000000000003482NN0                                                  0
2MAIL0000065983BR23        BRG1        BRG1COCO    BRG1COCO13AG00000100000000001233114700000000000000100000000000000000000000001265Z84620180310X066000000
2MAIL0000065983BR23        BRG1        BRG1COCO    BRG1COCO13AG00000200000000001235356200000000000000100000000000000000000000002217Z84620180310X066000000
1MAIL0000065984BR23        BRG1        BRG1COCO    BRG1COCO13AG2018030800:00:00OR  01000004756495000475649565984                              2018030820180310Z016CIF201803100000000000237505NN0                                                  0
2MAIL0000065984BR23        BRG1        BRG1COCO    BRG1COCO13AG00000100000000001132018300000000000000200000000000000000000000007197Z01620180310X066025000
2MAIL0000065984BR23        BRG1        BRG1COCO    BRG1COCO13AG00000200000000001132019700000000000000200000000000000000000000004369Z01620180310X066005000
2MAIL0000065984BR23        BRG1        BRG1COCO    BRG1COCO13AG00000300000000001132019800000000000000200000000000000000000000004369Z01620180310X066005000
2MAIL0000065984BR23        BRG1        BRG1COCO    BRG1COCO13AG00000400000000001132019900000000000000200000000000000000000000004369Z01620180310X066005000
2MAIL0000065984BR23        BRG1        BRG1COCO    BRG1COCO13AG00000500000000001132020900000000000000200000000000000000000000004369Z01620180310X066005000
2MAIL0000065984BR23        BRG1        BRG1COCO    BRG1COCO13AG00000600000000001132030800000000000000400000000000000000000000012446Z01620180310X066018000
2MAIL0000065984BR23        BRG1        BRG1COCO    BRG1COCO13AG00000700000000001132030900000000000000200000000000000000000000006416Z01620180310X066018000
2MAIL0000065984BR23        BRG1        BRG1COCO    BRG1COCO13AG00000800000000001132033100000000000001000000000000000000000000016414Z01620180310X066015000
2MAIL0000065984BR23        BRG1        BRG1COCO    BRG1COCO13AG00000900000000001132036700000000000001500000000000000000000000024621Z01620180310X066015000
2MAIL0000065984BR23        BRG1        BRG1COCO    BRG1COCO13AG00001000000000001132185100000000000000600000000000000000000000017053Z01620180310X066018000
2MAIL0000065984BR23        BRG1        BRG1COCO    BRG1COCO13AG00001100000000001132213000000000000000200000000000000000000000007541Z01620180310X066004950
2MAIL0000065984BR23        BRG1        BRG1COCO    BRG1COCO13AG00001200000000001132213100000000000000200000000000000000000000007541Z01620180310X066004950
2MAIL0000065984BR23        BRG1        BRG1COCO    BRG1COCO13AG00001300000000001132400100000000000000100000000000000000000000003336Z01620180310X066005000
2MAIL0000065984BR23        BRG1        BRG1COCO    BRG1COCO13AG00001400000000001215533700000000000000600000000000000000000000009849Z01620180310X066015000
2MAIL0000065984BR23        BRG1        BRG1COCO    BRG1COCO13AG00001500000000001221415400000000000000200000000000000000000000007197Z01620180310X066025000
2MAIL0000065984BR23        BRG1        BRG1COCO    BRG1COCO13AG00001600000000001223975300000000000000200000000000000000000000009046Z01620180310X066005000
2MAIL0000065984BR23        BRG1        BRG1COCO    BRG1COCO13AG00001700000000001226089600000000000002400000000000000000000000008103Z01620180310X066010000
2MAIL0000065984BR23        BRG1        BRG1COCO    BRG1COCO13AG00001800000000001227395500000000000000500000000000000000000000008208Z01620180310X066015000
2MAIL0000065984BR23        BRG1        BRG1COCO    BRG1COCO13AG00001900000000001227735000000000000000200000000000000000000000004369Z01620180310X066005000
2MAIL0000065984BR23        BRG1        BRG1COCO    BRG1COCO13AG00002000000000001228274000000000000000200000000000000000000000009046Z01620180310X066005000
2MAIL0000065984BR23        BRG1        BRG1COCO    BRG1COCO13AG00002100000000001228512700000000000000200000000000000000000000009046Z01620180310X066005000
2MAIL0000065984BR23        BRG1        BRG1COCO    BRG1COCO13AG00002200000000001231189200000000000000200000000000000000000000009046Z01620180310X066005000
2MAIL0000065984BR23        BRG1        BRG1COCO    BRG1COCO13AG00002300000000001231231200000000000000200000000000000000000000009046Z01620180310X066005000
2MAIL0000065984BR23        BRG1        BRG1COCO    BRG1COCO13AG00002400000000001231389600000000000000500000000000000000000000008208Z01620180310X066015000
2MAIL0000065984BR23        BRG1        BRG1COCO    BRG1COCO13AG00002500000000001233695100000000000000500000000000000000000000008208Z01620180310X066015000
2MAIL0000065984BR23        BRG1        BRG1COCO    BRG1COCO13AG00002600000000001234705700000000000000200000000000000000000000009046Z01620180310X066005000
2MAIL0000065984BR23        BRG1        BRG1COCO    BRG1COCO13AG00002700000000001234705800000000000000200000000000000000000000009046Z01620180310X066005000
1MAIL0000065985BR23        BRG1        BRG1COCO    BRG1COCO13AG2018030800:00:00OR  01000004756495000475649565985                              2018030820180310Z016CIF201803100000000000337574NN0                                                  0
2MAIL0000065985BR23        BRG1        BRG1COCO    BRG1COCO13AG00000100000000001228090100000000000045000000000000000000000000337574Z01620180310X066000000
1MAIL0000065988BR23        BRG1        BRG1COCO    BRG1COCO13AG2018030800:00:00OR  01000002924100000292410065988                              2018030820180310Z016CIF201803100000000000022286NN0                                                  0
2MAIL0000065988BR23        BRG1        BRG1COCO    BRG1COCO13AG00000100000000001228090100000000000003000000000000000000000000022286Z01620180310X066004960
1MAIL0000065989BR23        BRG1        BRG1COCO    BRG1COCO13AG2018030800:00:00OR  01000005332364000533236465989                              2018030820180310Z016CIF201803100000000000019186NN0                                                  0
2MAIL0000065989BR23        BRG1        BRG1COCO    BRG1COCO13AG00000100000000001132033100000000000000100000000000000000000000001710Z01620180310X066015000
2MAIL0000065989BR23        BRG1        BRG1COCO    BRG1COCO13AG00000200000000001132036700000000000000100000000000000000000000001710Z01620180310X066015000
2MAIL0000065989BR23        BRG1        BRG1COCO    BRG1COCO13AG00000300000000001132200400000000000000100000000000000000000000001944Z01620180310X066000000
2MAIL0000065989BR23        BRG1        BRG1COCO    BRG1COCO13AG00000400000000001132213000000000000000100000000000000000000000003969Z01620180310X066004000
2MAIL0000065989BR23        BRG1        BRG1COCO    BRG1COCO13AG00000500000000001132213100000000000000100000000000000000000000003969Z01620180310X066004000
2MAIL0000065989BR23        BRG1        BRG1COCO    BRG1COCO13AG00000600000000001227395500000000000000100000000000000000000000001710Z01620180310X066015000
2MAIL0000065989BR23        BRG1        BRG1COCO    BRG1COCO13AG00000700000000001228100400000000000000100000000000000000000000002464Z01620180310X066010000
2MAIL0000065989BR23        BRG1        BRG1COCO    BRG1COCO13AG00000800000000001231389600000000000000100000000000000000000000001710Z01620180310X066015000
