1MAIL0000065096BR23        BRG1        BRG1COCO    BRG1COCO13AG2018030500:00:00OR  01000001145325000114532565096                              2018030520180305Z016CIF201803050000000000021962NN0                                                  0
2MAIL0000065096BR23        BRG1        BRG1COCO    BRG1COCO13AG00000100000000001132019800000000000000100000000000000000000000002184Z01620180305X066005000
2MAIL0000065096BR23        BRG1        BRG1COCO    BRG1COCO13AG00000200000000001132036700000000000000100000000000000000000000001738Z01620180305X066010000
2MAIL0000065096BR23        BRG1        BRG1COCO    BRG1COCO13AG00000300000000001132400100000000000000100000000000000000000000003336Z01620180305X066005000
2MAIL0000065096BR23        BRG1        BRG1COCO    BRG1COCO13AG00000400000000001215533700000000000000100000000000000000000000001738Z01620180305X066010000
2MAIL0000065096BR23        BRG1        BRG1COCO    BRG1COCO13AG00000500000000001227395500000000000000100000000000000000000000001738Z01620180305X066010000
2MAIL0000065096BR23        BRG1        BRG1COCO    BRG1COCO13AG00000600000000001227735000000000000000100000000000000000000000002184Z01620180305X066005000
2MAIL0000065096BR23        BRG1        BRG1COCO    BRG1COCO13AG00000700000000001228274000000000000000100000000000000000000000004522Z01620180305X066005000
2MAIL0000065096BR23        BRG1        BRG1COCO    BRG1COCO13AG00000800000000001234705800000000000000100000000000000000000000004522Z01620180305X066005000
1MAIL0000065097BR23        BRG1        BRG1COCO    BRG1COCO13AG2018030500:00:00OR  01000003828380000382838065097                              2018030520180305Z016CIF201803050000000000013210NN0                                                  0
2MAIL0000065097BR23        BRG1        BRG1COCO    BRG1COCO13AG00000100000000001132033100000000000000100000000000000000000000001738Z01620180305X066010000
2MAIL0000065097BR23        BRG1        BRG1COCO    BRG1COCO13AG00000200000000001132036700000000000000200000000000000000000000003474Z01620180305X066010000
2MAIL0000065097BR23        BRG1        BRG1COCO    BRG1COCO13AG00000300000000001215533700000000000000100000000000000000000000001738Z01620180305X066010000
2MAIL0000065097BR23        BRG1        BRG1COCO    BRG1COCO13AG00000400000000001227395500000000000000100000000000000000000000001738Z01620180305X066010000
2MAIL0000065097BR23        BRG1        BRG1COCO    BRG1COCO13AG00000500000000001231231200000000000000100000000000000000000000004522Z01620180305X066005000
1MAIL0000065098BR23        BRG1        BRG1COCO    BRG1COCO13AG2018030500:00:00OR  01000003878366000387836665098                              2018030520180305Z016CIF201803050000000000042798NN0                                                  0
2MAIL0000065098BR23        BRG1        BRG1COCO    BRG1COCO13AG00000100000000001132033900000000000001200000000000000000000000042798Z01620180305X066010000
1MAIL0000065099BR23        BRG1        BRG1COCO    BRG1COCO13AG2018030500:00:00OR  01000004876589000487658965099                              2018030520180305Z016CIF201803050000000000023905NN0                                                  0
2MAIL0000065099BR23        BRG1        BRG1COCO    BRG1COCO13AG00000100000000001132033100000000000000500000000000000000000000009653Z01620180305X066000000
2MAIL0000065099BR23        BRG1        BRG1COCO    BRG1COCO13AG00000200000000001132036700000000000000500000000000000000000000009653Z01620180305X066000000
2MAIL0000065099BR23        BRG1        BRG1COCO    BRG1COCO13AG00000300000000001227735000000000000000200000000000000000000000004599Z01620180305X066000000
