1MAIL0000066003BR23        BRG1        BRG1COCO    BRG1COCO13AG2018030800:00:00OR  01000005355546000535554666003                              2018030820180310Z859CIF201803100000000000063680NN0                                                  0
2MAIL0000066003BR23        BRG1        BRG1COCO    BRG1COCO13AG00000100000000001233114700000000000000500000000000000000000000006463Z85920180310X066000000
2MAIL0000066003BR23        BRG1        BRG1COCO    BRG1COCO13AG00000200000000001235356200000000000001500000000000000000000000033941Z85920180310X066000000
2MAIL0000066003BR23        BRG1        BRG1COCO    BRG1COCO13AG00000300000000001235737300000000000000800000000000000000000000023276Z85920180310X066000000
1MAIL0000066004BR23        BRG1        BRG1COCO    BRG1COCO13AG2018030800:00:00OR  01000005355546000535554666004                              2018030820180310Z016CIF201803100000000000025710NN0                                                  0
2MAIL0000066004BR23        BRG1        BRG1COCO    BRG1COCO13AG00000100000000001233098400000000000002800000000000000000000000010284Z01620180310X066006750
2MAIL0000066004BR23        BRG1        BRG1COCO    BRG1COCO13AG00000200000000001233098600000000000001400000000000000000000000005142Z01620180310X066006750
2MAIL0000066004BR23        BRG1        BRG1COCO    BRG1COCO13AG00000300000000001233154200000000000002800000000000000000000000010284Z01620180310X066006750
1MAIL0000066005BR23        BRG1        BRG1COCO    BRG1COCO13AG2018030800:00:00OR  01000003482287000348228766005                              2018030820180310Z016CIF201803100000000000015039NN0                                                  0
2MAIL0000066005BR23        BRG1        BRG1COCO    BRG1COCO13AG00000100000000001233098400000000000001400000000000000000000000005013Z01620180310X066000000
2MAIL0000066005BR23        BRG1        BRG1COCO    BRG1COCO13AG00000200000000001233098600000000000001400000000000000000000000005013Z01620180310X066000000
2MAIL0000066005BR23        BRG1        BRG1COCO    BRG1COCO13AG00000300000000001233154200000000000001400000000000000000000000005013Z01620180310X066000000
1MAIL0000066006BR23        BRG1        BRG1COCO    BRG1COCO13AG2018030800:00:00OR  01000003482287000348228766006                              2018030820180310Z859CIF201803100000000000006788NN0                                                  0
2MAIL0000066006BR23        BRG1        BRG1COCO    BRG1COCO13AG00000100000000001235356200000000000000300000000000000000000000006788Z85920180310X066000000
1MAIL0000066007BR23        BRG1        BRG1COCO    BRG1COCO13AG2018030800:00:00OR  01000003482287000348228766007                              2018030820180310Z016CIF201803100000000000045299NN0                                                  0
2MAIL0000066007BR23        BRG1        BRG1COCO    BRG1COCO13AG00000100000000001132033100000000000000300000000000000000000000005213Z01620180310X066010000
2MAIL0000066007BR23        BRG1        BRG1COCO    BRG1COCO13AG00000200000000001132036700000000000000700000000000000000000000012166Z01620180310X066010000
2MAIL0000066007BR23        BRG1        BRG1COCO    BRG1COCO13AG00000300000000001132200400000000000000400000000000000000000000007463Z01620180310X066000000
2MAIL0000066007BR23        BRG1        BRG1COCO    BRG1COCO13AG00000400000000001228090100000000000003000000000000000000000000020457Z01620180310X066000000
1MAIL0000066008BR23        BRG1        BRG1COCO    BRG1COCO13AG2018030800:00:00OR  01000003984627000398462766008                              2018030820180310Z016CIF201803100000000000154237NN0                                                  0
2MAIL0000066008BR23        BRG1        BRG1COCO    BRG1COCO13AG00000100000000001132018300000000000000100000000000000000000000003598Z01620180310X066025000
2MAIL0000066008BR23        BRG1        BRG1COCO    BRG1COCO13AG00000200000000001132019700000000000000100000000000000000000000002184Z01620180310X066005000
2MAIL0000066008BR23        BRG1        BRG1COCO    BRG1COCO13AG00000300000000001132019800000000000000100000000000000000000000002184Z01620180310X066005000
2MAIL0000066008BR23        BRG1        BRG1COCO    BRG1COCO13AG00000400000000001132019900000000000000100000000000000000000000002184Z01620180310X066005000
2MAIL0000066008BR23        BRG1        BRG1COCO    BRG1COCO13AG00000500000000001132020900000000000000100000000000000000000000002184Z01620180310X066005000
2MAIL0000066008BR23        BRG1        BRG1COCO    BRG1COCO13AG00000600000000001132033100000000000000600000000000000000000000009849Z01620180310X066015000
2MAIL0000066008BR23        BRG1        BRG1COCO    BRG1COCO13AG00000700000000001132036700000000000000500000000000000000000000008208Z01620180310X066015000
2MAIL0000066008BR23        BRG1        BRG1COCO    BRG1COCO13AG00000800000000001132200400000000000000500000000000000000000000008877Z01620180310X066004850
2MAIL0000066008BR23        BRG1        BRG1COCO    BRG1COCO13AG00000900000000001132213000000000000000100000000000000000000000003771Z01620180310X066004950
2MAIL0000066008BR23        BRG1        BRG1COCO    BRG1COCO13AG00001000000000001132213100000000000000100000000000000000000000003771Z01620180310X066004950
2MAIL0000066008BR23        BRG1        BRG1COCO    BRG1COCO13AG00001100000000001132400100000000000000100000000000000000000000003336Z01620180310X066005000
2MAIL0000066008BR23        BRG1        BRG1COCO    BRG1COCO13AG00001200000000001215533700000000000000500000000000000000000000008208Z01620180310X066015000
2MAIL0000066008BR23        BRG1        BRG1COCO    BRG1COCO13AG00001300000000001221415400000000000000100000000000000000000000003598Z01620180310X066025000
2MAIL0000066008BR23        BRG1        BRG1COCO    BRG1COCO13AG00001400000000001223975300000000000000100000000000000000000000004522Z01620180310X066005000
2MAIL0000066008BR23        BRG1        BRG1COCO    BRG1COCO13AG00001500000000001226089600000000000001200000000000000000000000004051Z01620180310X066010000
2MAIL0000066008BR23        BRG1        BRG1COCO    BRG1COCO13AG00001600000000001227395500000000000000500000000000000000000000008208Z01620180310X066015000
2MAIL0000066008BR23        BRG1        BRG1COCO    BRG1COCO13AG00001700000000001227735000000000000000100000000000000000000000002184Z01620180310X066005000
2MAIL0000066008BR23        BRG1        BRG1COCO    BRG1COCO13AG00001800000000001228274000000000000000100000000000000000000000004522Z01620180310X066005000
2MAIL0000066008BR23        BRG1        BRG1COCO    BRG1COCO13AG00001900000000001228512700000000000000100000000000000000000000004522Z01620180310X066005000
2MAIL0000066008BR23        BRG1        BRG1COCO    BRG1COCO13AG00002000000000001231189200000000000000100000000000000000000000004522Z01620180310X066005000
2MAIL0000066008BR23        BRG1        BRG1COCO    BRG1COCO13AG00002100000000001231231200000000000000100000000000000000000000004522Z01620180310X066005000
2MAIL0000066008BR23        BRG1        BRG1COCO    BRG1COCO13AG00002200000000001231389600000000000000500000000000000000000000008208Z01620180310X066015000
2MAIL0000066008BR23        BRG1        BRG1COCO    BRG1COCO13AG00002300000000001233081900000000000001400000000000000000000000004962Z01620180310X066010000
2MAIL0000066008BR23        BRG1        BRG1COCO    BRG1COCO13AG00002400000000001233098400000000000001400000000000000000000000004962Z01620180310X066010000
2MAIL0000066008BR23        BRG1        BRG1COCO    BRG1COCO13AG00002500000000001233098500000000000001400000000000000000000000004962Z01620180310X066010000
2MAIL0000066008BR23        BRG1        BRG1COCO    BRG1COCO13AG00002600000000001233099500000000000001400000000000000000000000004962Z01620180310X066010000
2MAIL0000066008BR23        BRG1        BRG1COCO    BRG1COCO13AG00002700000000001233154200000000000001400000000000000000000000004962Z01620180310X066010000
2MAIL0000066008BR23        BRG1        BRG1COCO    BRG1COCO13AG00002800000000001233695100000000000000500000000000000000000000008208Z01620180310X066015000
2MAIL0000066008BR23        BRG1        BRG1COCO    BRG1COCO13AG00002900000000001234705700000000000000100000000000000000000000004522Z01620180310X066005000
2MAIL0000066008BR23        BRG1        BRG1COCO    BRG1COCO13AG00003000000000001234705800000000000000100000000000000000000000004522Z01620180310X066005000
2MAIL0000066008BR23        BRG1        BRG1COCO    BRG1COCO13AG00003100000000001234708700000000000001400000000000000000000000004962Z01620180310X066010000
1MAIL0000066009BR23        BRG1        BRG1COCO    BRG1COCO13AG2018030800:00:00OR  01000004313928000431392866009                              2018030820180310Z016CIF201803100000000000009051NN0                                                  0
2MAIL0000066009BR23        BRG1        BRG1COCO    BRG1COCO13AG00000100000000001235356200000000000000400000000000000000000000009051Z01620180310X066000000
1MAIL0000066010BR23        BRG1        BRG1COCO    BRG1COCO13AG2018030800:00:00OR  01000005532851000553285166010                              2018030820180310Z016CIF201803100000000000093000NN0                                                  0
2MAIL0000066010BR23        BRG1        BRG1COCO    BRG1COCO13AG00000100000000001233114700000000000000500000000000000000000000006095Z01620180310X066000000
2MAIL0000066010BR23        BRG1        BRG1COCO    BRG1COCO13AG00000200000000001235356200000000000001500000000000000000000000032020Z01620180310X066000000
2MAIL0000066010BR23        BRG1        BRG1COCO    BRG1COCO13AG00000300000000001235562300000000000000200000000000000000000000010970Z01620180310X066000000
2MAIL0000066010BR23        BRG1        BRG1COCO    BRG1COCO13AG00000400000000001235737300000000000001600000000000000000000000043915Z01620180310X066000000
1MAIL0000066011BR23        BRG1        BRG1COCO    BRG1COCO13AG2018030800:00:00OR  01000002876031000287603166011                              2018030820180310Z016CIF201803100000000000383923NN0                                                  0
2MAIL0000066011BR23        BRG1        BRG1COCO    BRG1COCO13AG00000100000000001132004200000000000001000000000000000000000000011970Z01620180310X066000000
2MAIL0000066011BR23        BRG1        BRG1COCO    BRG1COCO13AG00000200000000001132019700000000000000100000000000000000000000002300Z01620180310X066000000
2MAIL0000066011BR23        BRG1        BRG1COCO    BRG1COCO13AG00000300000000001132019800000000000000200000000000000000000000004599Z01620180310X066000000
2MAIL0000066011BR23        BRG1        BRG1COCO    BRG1COCO13AG00000400000000001132019900000000000000100000000000000000000000002300Z01620180310X066000000
2MAIL0000066011BR23        BRG1        BRG1COCO    BRG1COCO13AG00000500000000001132020900000000000000100000000000000000000000002300Z01620180310X066000000
2MAIL0000066011BR23        BRG1        BRG1COCO    BRG1COCO13AG00000600000000001132033100000000000000600000000000000000000000011587Z01620180310X066000000
2MAIL0000066011BR23        BRG1        BRG1COCO    BRG1COCO13AG00000700000000001132036700000000000001000000000000000000000000019311Z01620180310X066000000
2MAIL0000066011BR23        BRG1        BRG1COCO    BRG1COCO13AG00000800000000001132200400000000000000800000000000000000000000014926Z01620180310X066000000
2MAIL0000066011BR23        BRG1        BRG1COCO    BRG1COCO13AG00000900000000001132400100000000000000100000000000000000000000003511Z01620180310X066000000
2MAIL0000066011BR23        BRG1        BRG1COCO    BRG1COCO13AG00001000000000001221415400000000000000200000000000000000000000009596Z01620180310X066000000
2MAIL0000066011BR23        BRG1        BRG1COCO    BRG1COCO13AG00001100000000001223975300000000000000100000000000000000000000004328Z01620180310X066000000
2MAIL0000066011BR23        BRG1        BRG1COCO    BRG1COCO13AG00001200000000001227395500000000000000600000000000000000000000011587Z01620180310X066000000
2MAIL0000066011BR23        BRG1        BRG1COCO    BRG1COCO13AG00001300000000001228090100000000000018000000000000000000000000122746Z01620180310X066000000
2MAIL0000066011BR23        BRG1        BRG1COCO    BRG1COCO13AG00001400000000001228100400000000000003000000000000000000000000078828Z01620180310X066000000
2MAIL0000066011BR23        BRG1        BRG1COCO    BRG1COCO13AG00001500000000001228274000000000000000100000000000000000000000004328Z01620180310X066000000
2MAIL0000066011BR23        BRG1        BRG1COCO    BRG1COCO13AG00001600000000001228512700000000000000100000000000000000000000004328Z01620180310X066000000
2MAIL0000066011BR23        BRG1        BRG1COCO    BRG1COCO13AG00001700000000001231189200000000000000100000000000000000000000004328Z01620180310X066000000
2MAIL0000066011BR23        BRG1        BRG1COCO    BRG1COCO13AG00001800000000001231231200000000000000100000000000000000000000004328Z01620180310X066000000
2MAIL0000066011BR23        BRG1        BRG1COCO    BRG1COCO13AG00001900000000001231389600000000000000600000000000000000000000011587Z01620180310X066000000
2MAIL0000066011BR23        BRG1        BRG1COCO    BRG1COCO13AG00002000000000001233081900000000000002800000000000000000000000010024Z01620180310X066000000
2MAIL0000066011BR23        BRG1        BRG1COCO    BRG1COCO13AG00002100000000001233098400000000000004200000000000000000000000015037Z01620180310X066000000
2MAIL0000066011BR23        BRG1        BRG1COCO    BRG1COCO13AG00002200000000001233098500000000000001400000000000000000000000005013Z01620180310X066000000
2MAIL0000066011BR23        BRG1        BRG1COCO    BRG1COCO13AG00002300000000001233099500000000000002800000000000000000000000010024Z01620180310X066000000
2MAIL0000066011BR23        BRG1        BRG1COCO    BRG1COCO13AG00002400000000001233154200000000000004200000000000000000000000015037Z01620180310X066000000
1MAIL0000066012BR23        BRG1        BRG1COCO    BRG1COCO13AG2018030800:00:00OR  01000005259602000525960266012                              2018030820180310Z859CIF201803100000000000004526NN0                                                  0
2MAIL0000066012BR23        BRG1        BRG1COCO    BRG1COCO13AG00000100000000001235356200000000000000200000000000000000000000004526Z85920180310X066000000
1MAIL0000066013BR23        BRG1        BRG1COCO    BRG1COCO13AG2018030800:00:00OR  01000000716114000071611466013                              2018030820180310Z859CIF201803100000000000006788NN0                                                  0
2MAIL0000066013BR23        BRG1        BRG1COCO    BRG1COCO13AG00000100000000001235356200000000000000300000000000000000000000006788Z85920180310X066000000
1MAIL0000066014BR23        BRG1        BRG1COCO    BRG1COCO13AG2018030800:00:00OR  01000000716114000071611466014                              2018030820180310Z016CIF201803100000000000010297NN0                                                  0
2MAIL0000066014BR23        BRG1        BRG1COCO    BRG1COCO13AG00000100000000001132036700000000000000400000000000000000000000006566Z01620180310X066015000
2MAIL0000066014BR23        BRG1        BRG1COCO    BRG1COCO13AG00000200000000001132200400000000000000200000000000000000000000003731Z01620180310X066000000
