1MAIL0000066076BR23        BRG1        BRG1COCO    BRG1COCO13AG2018030800:00:00OR  01000003995168000399516866076                              2018030820180310Z016CIF201803100000000000012704NN0                                                  0
2MAIL0000066076BR23        BRG1        BRG1COCO    BRG1COCO13AG00000100000000001132033100000000000000100000000000000000000000001815Z01620180310X066006000
2MAIL0000066076BR23        BRG1        BRG1COCO    BRG1COCO13AG00000200000000001132036700000000000000200000000000000000000000003629Z01620180310X066006000
2MAIL0000066076BR23        BRG1        BRG1COCO    BRG1COCO13AG00000300000000001215533700000000000000100000000000000000000000001815Z01620180310X066006000
2MAIL0000066076BR23        BRG1        BRG1COCO    BRG1COCO13AG00000400000000001227395500000000000000100000000000000000000000001815Z01620180310X066006000
2MAIL0000066076BR23        BRG1        BRG1COCO    BRG1COCO13AG00000500000000001231389600000000000000100000000000000000000000001815Z01620180310X066006000
2MAIL0000066076BR23        BRG1        BRG1COCO    BRG1COCO13AG00000600000000001233695100000000000000100000000000000000000000001815Z01620180310X066006000
1MAIL0000066077BR23        BRG1        BRG1COCO    BRG1COCO13AG2018030800:00:00OR  01000003995168000399516866077                              2018030820180310Z859CIF201803100000000000007436NN0                                                  0
2MAIL0000066077BR23        BRG1        BRG1COCO    BRG1COCO13AG00000100000000001235356200000000000000200000000000000000000000004526Z85920180310X066000000
2MAIL0000066077BR23        BRG1        BRG1COCO    BRG1COCO13AG00000200000000001235737300000000000000100000000000000000000000002910Z85920180310X066000000
1MAIL0000066078BR23        BRG1        BRG1COCO    BRG1COCO13AG2018030800:00:00OR  01000004064178000406417866078                              2018030820180310Z016CIF201803100000000000007260NN0                                                  0
2MAIL0000066078BR23        BRG1        BRG1COCO    BRG1COCO13AG00000100000000001132036700000000000000200000000000000000000000003630Z01620180310X066006000
2MAIL0000066078BR23        BRG1        BRG1COCO    BRG1COCO13AG00000200000000001215533700000000000000100000000000000000000000001815Z01620180310X066006000
2MAIL0000066078BR23        BRG1        BRG1COCO    BRG1COCO13AG00000300000000001227395500000000000000100000000000000000000000001815Z01620180310X066006000
1MAIL0000066079BR23        BRG1        BRG1COCO    BRG1COCO13AG2018030800:00:00OR  01000003829966000382996666079                              2018030820180310Z016CIF201803100000000000244474NN0                                                  0
2MAIL0000066079BR23        BRG1        BRG1COCO    BRG1COCO13AG00000100000000001132018300000000000000500000000000000000000000015474Z01620180310X066025000
2MAIL0000066079BR23        BRG1        BRG1COCO    BRG1COCO13AG00000200000000001132034900000000000002000000000000000000000000028434Z01620180310X066012000
2MAIL0000066079BR23        BRG1        BRG1COCO    BRG1COCO13AG00000300000000001132035100000000000001000000000000000000000000015000Z01620180310X066012000
2MAIL0000066079BR23        BRG1        BRG1COCO    BRG1COCO13AG00000400000000001132213100000000000000400000000000000000000000011790Z01620180310X066004950
2MAIL0000066079BR23        BRG1        BRG1COCO    BRG1COCO13AG00000500000000001228100400000000000002000000000000000000000000037060Z01620180310X066018000
2MAIL0000066079BR23        BRG1        BRG1COCO    BRG1COCO13AG00000600000000001233081900000000000002800000000000000000000000009522Z01620180310X066000000
2MAIL0000066079BR23        BRG1        BRG1COCO    BRG1COCO13AG00000700000000001233098400000000000002800000000000000000000000009522Z01620180310X066000000
2MAIL0000066079BR23        BRG1        BRG1COCO    BRG1COCO13AG00000800000000001233098500000000000005600000000000000000000000019045Z01620180310X066000000
2MAIL0000066079BR23        BRG1        BRG1COCO    BRG1COCO13AG00000900000000001233098600000000000002800000000000000000000000009522Z01620180310X066000000
2MAIL0000066079BR23        BRG1        BRG1COCO    BRG1COCO13AG00001000000000001233099500000000000002800000000000000000000000009522Z01620180310X066000000
2MAIL0000066079BR23        BRG1        BRG1COCO    BRG1COCO13AG00001100000000001233154200000000000008400000000000000000000000028568Z01620180310X066000000
2MAIL0000066079BR23        BRG1        BRG1COCO    BRG1COCO13AG00001200000000001235699400000000000005000000000000000000000000017005Z01620180310X066000000
2MAIL0000066079BR23        BRG1        BRG1COCO    BRG1COCO13AG00001300000000001235699700000000000005000000000000000000000000017005Z01620180310X066000000
2MAIL0000066079BR23        BRG1        BRG1COCO    BRG1COCO13AG00001400000000001235699800000000000005000000000000000000000000017005Z01620180310X066000000
1MAIL0000066080BR23        BRG1        BRG1COCO    BRG1COCO13AG2018030800:00:00OR  01000004716099000471609966080                              2018030820180310Z016CIF201803100000000000362412NN0                                                  0
2MAIL0000066080BR23        BRG1        BRG1COCO    BRG1COCO13AG00000100000000001132019700000000000000200000000000000000000000003757Z01620180310X066005000
2MAIL0000066080BR23        BRG1        BRG1COCO    BRG1COCO13AG00000200000000001132019900000000000000200000000000000000000000003757Z01620180310X066005000
2MAIL0000066080BR23        BRG1        BRG1COCO    BRG1COCO13AG00000300000000001132020900000000000000300000000000000000000000005635Z01620180310X066005000
2MAIL0000066080BR23        BRG1        BRG1COCO    BRG1COCO13AG00000400000000001132030900000000000001200000000000000000000000037352Z01620180310X066012000
2MAIL0000066080BR23        BRG1        BRG1COCO    BRG1COCO13AG00000500000000001132034900000000000002000000000000000000000000028434Z01620180310X066012000
2MAIL0000066080BR23        BRG1        BRG1COCO    BRG1COCO13AG00000600000000001132035000000000000001000000000000000000000000015789Z01620180310X066012000
2MAIL0000066080BR23        BRG1        BRG1COCO    BRG1COCO13AG00000700000000001132035100000000000001000000000000000000000000015000Z01620180310X066012000
2MAIL0000066080BR23        BRG1        BRG1COCO    BRG1COCO13AG00000800000000001132185100000000000000600000000000000000000000016548Z01620180310X066012000
2MAIL0000066080BR23        BRG1        BRG1COCO    BRG1COCO13AG00000900000000001132213100000000000000800000000000000000000000023581Z01620180310X066004950
2MAIL0000066080BR23        BRG1        BRG1COCO    BRG1COCO13AG00001000000000001132400100000000000000200000000000000000000000005737Z01620180310X066005000
2MAIL0000066080BR23        BRG1        BRG1COCO    BRG1COCO13AG00001100000000001223975300000000000000400000000000000000000000014145Z01620180310X066005000
2MAIL0000066080BR23        BRG1        BRG1COCO    BRG1COCO13AG00001200000000001228100400000000000002000000000000000000000000037060Z01620180310X066018000
2MAIL0000066080BR23        BRG1        BRG1COCO    BRG1COCO13AG00001300000000001228274000000000000000200000000000000000000000007072Z01620180310X066005000
2MAIL0000066080BR23        BRG1        BRG1COCO    BRG1COCO13AG00001400000000001228512700000000000000200000000000000000000000007072Z01620180310X066005000
2MAIL0000066080BR23        BRG1        BRG1COCO    BRG1COCO13AG00001500000000001233081900000000000005600000000000000000000000019045Z01620180310X066000000
2MAIL0000066080BR23        BRG1        BRG1COCO    BRG1COCO13AG00001600000000001233098400000000000008400000000000000000000000028568Z01620180310X066000000
2MAIL0000066080BR23        BRG1        BRG1COCO    BRG1COCO13AG00001700000000001233098500000000000005600000000000000000000000019045Z01620180310X066000000
2MAIL0000066080BR23        BRG1        BRG1COCO    BRG1COCO13AG00001800000000001233098600000000000005600000000000000000000000019045Z01620180310X066000000
2MAIL0000066080BR23        BRG1        BRG1COCO    BRG1COCO13AG00001900000000001233098800000000000002800000000000000000000000009522Z01620180310X066000000
2MAIL0000066080BR23        BRG1        BRG1COCO    BRG1COCO13AG00002000000000001233154200000000000008400000000000000000000000028568Z01620180310X066000000
2MAIL0000066080BR23        BRG1        BRG1COCO    BRG1COCO13AG00002100000000001234705700000000000000300000000000000000000000010608Z01620180310X066005000
2MAIL0000066080BR23        BRG1        BRG1COCO    BRG1COCO13AG00002200000000001234705800000000000000200000000000000000000000007072Z01620180310X066005000
1MAIL0000066081BR23        BRG1        BRG1COCO    BRG1COCO13AG2018030800:00:00OR  01000002749639000274963966081                              2018030820180310Z016CIF201803100000000000538482NN0                                                  0
2MAIL0000066081BR23        BRG1        BRG1COCO    BRG1COCO13AG00000100000000001132034900000000000002000000000000000000000000028434Z01620180310X066012000
2MAIL0000066081BR23        BRG1        BRG1COCO    BRG1COCO13AG00000200000000001132035000000000000002000000000000000000000000031577Z01620180310X066012000
2MAIL0000066081BR23        BRG1        BRG1COCO    BRG1COCO13AG00000300000000001132035100000000000002000000000000000000000000030001Z01620180310X066012000
2MAIL0000066081BR23        BRG1        BRG1COCO    BRG1COCO13AG00000400000000001132213000000000000001800000000000000000000000053058Z01620180310X066004950
2MAIL0000066081BR23        BRG1        BRG1COCO    BRG1COCO13AG00000500000000001132213100000000000001800000000000000000000000053058Z01620180310X066004950
2MAIL0000066081BR23        BRG1        BRG1COCO    BRG1COCO13AG00000600000000001223975300000000000000400000000000000000000000014145Z01620180310X066005000
2MAIL0000066081BR23        BRG1        BRG1COCO    BRG1COCO13AG00000700000000001227735000000000000000200000000000000000000000003757Z01620180310X066005000
2MAIL0000066081BR23        BRG1        BRG1COCO    BRG1COCO13AG00000800000000001228100400000000000005000000000000000000000000092651Z01620180310X066018000
2MAIL0000066081BR23        BRG1        BRG1COCO    BRG1COCO13AG00000900000000001233081900000000000007000000000000000000000000023807Z01620180310X066000000
2MAIL0000066081BR23        BRG1        BRG1COCO    BRG1COCO13AG00001000000000001233098400000000000007000000000000000000000000023807Z01620180310X066000000
2MAIL0000066081BR23        BRG1        BRG1COCO    BRG1COCO13AG00001100000000001233098500000000000014000000000000000000000000047613Z01620180310X066000000
2MAIL0000066081BR23        BRG1        BRG1COCO    BRG1COCO13AG00001200000000001233098600000000000005600000000000000000000000019045Z01620180310X066000000
2MAIL0000066081BR23        BRG1        BRG1COCO    BRG1COCO13AG00001300000000001233099500000000000002800000000000000000000000009522Z01620180310X066000000
2MAIL0000066081BR23        BRG1        BRG1COCO    BRG1COCO13AG00001400000000001233154200000000000022400000000000000000000000076181Z01620180310X066000000
2MAIL0000066081BR23        BRG1        BRG1COCO    BRG1COCO13AG00001500000000001234705700000000000000500000000000000000000000017681Z01620180310X066005000
2MAIL0000066081BR23        BRG1        BRG1COCO    BRG1COCO13AG00001600000000001234705800000000000000400000000000000000000000014145Z01620180310X066005000
1MAIL0000066082BR23        BRG1        BRG1COCO    BRG1COCO13AG2018030800:00:00OR  01000003062474000306247466082                              2018030820180310Z016CIF201803100000000000204576NN0                                                  0
2MAIL0000066082BR23        BRG1        BRG1COCO    BRG1COCO13AG00000100000000001228090100000000000030000000000000000000000000204576Z01620180310X066000000
1MAIL0000066083BR23        BRG1        BRG1COCO    BRG1COCO13AG2018030800:00:00OR  01000003958736000395873666083                              2018030820180310Z016CIF201803100000000000049637NN0                                                  0
2MAIL0000066083BR23        BRG1        BRG1COCO    BRG1COCO13AG00000100000000001226089600000000000001200000000000000000000000004055Z01620180310X066009920
2MAIL0000066083BR23        BRG1        BRG1COCO    BRG1COCO13AG00000200000000001228090100000000000003000000000000000000000000021389Z01620180310X066004960
2MAIL0000066083BR23        BRG1        BRG1COCO    BRG1COCO13AG00000300000000001228100400000000000000200000000000000000000000004309Z01620180310X066018000
2MAIL0000066083BR23        BRG1        BRG1COCO    BRG1COCO13AG00000400000000001233081900000000000001400000000000000000000000004967Z01620180310X066009920
2MAIL0000066083BR23        BRG1        BRG1COCO    BRG1COCO13AG00000500000000001233098400000000000001400000000000000000000000004967Z01620180310X066009920
2MAIL0000066083BR23        BRG1        BRG1COCO    BRG1COCO13AG00000600000000001233098600000000000001400000000000000000000000004967Z01620180310X066009920
2MAIL0000066083BR23        BRG1        BRG1COCO    BRG1COCO13AG00000700000000001233154200000000000001400000000000000000000000004983Z01620180310X066009620
1MAIL0000066084BR23        BRG1        BRG1COCO    BRG1COCO13AG2018030800:00:00OR  01000003958736000395873666084                              2018030820180310Z859CIF201803100000000000057217NN0                                                  0
2MAIL0000066084BR23        BRG1        BRG1COCO    BRG1COCO13AG00000100000000001235356200000000000001500000000000000000000000033941Z85920180310X066000000
2MAIL0000066084BR23        BRG1        BRG1COCO    BRG1COCO13AG00000200000000001235737300000000000000800000000000000000000000023276Z85920180310X066000000
1MAIL0000066085BR23        BRG1        BRG1COCO    BRG1COCO13AG2018030800:00:00OR  01000003058758000305875866085                              2018030820180310Z016CIF201803100000000000049253NN0                                                  0
2MAIL0000066085BR23        BRG1        BRG1COCO    BRG1COCO13AG00000100000000001132033100000000000000300000000000000000000000004923Z01620180310X066015000
2MAIL0000066085BR23        BRG1        BRG1COCO    BRG1COCO13AG00000200000000001132036700000000000001000000000000000000000000016414Z01620180310X066015000
2MAIL0000066085BR23        BRG1        BRG1COCO    BRG1COCO13AG00000300000000001132200400000000000000200000000000000000000000003550Z01620180310X066004850
2MAIL0000066085BR23        BRG1        BRG1COCO    BRG1COCO13AG00000400000000001215533700000000000000300000000000000000000000004923Z01620180310X066015000
2MAIL0000066085BR23        BRG1        BRG1COCO    BRG1COCO13AG00000500000000001228090100000000000003000000000000000000000000019443Z01620180310X066004960
1MAIL0000066086BR23        BRG1        BRG1COCO    BRG1COCO13AG2018030800:00:00OR  01000005208890000520889066086                              2018030820180310Z016CIF201803100000000000010024NN0                                                  0
2MAIL0000066086BR23        BRG1        BRG1COCO    BRG1COCO13AG00000100000000001132033100000000000000100000000000000000000000001641Z01620180310X066015000
2MAIL0000066086BR23        BRG1        BRG1COCO    BRG1COCO13AG00000200000000001132036700000000000000100000000000000000000000001641Z01620180310X066015000
2MAIL0000066086BR23        BRG1        BRG1COCO    BRG1COCO13AG00000300000000001132200400000000000000100000000000000000000000001775Z01620180310X066004850
2MAIL0000066086BR23        BRG1        BRG1COCO    BRG1COCO13AG00000400000000001233098400000000000001400000000000000000000000004967Z01620180310X066009920
1MAIL0000066087BR23        BRG1        BRG1COCO    BRG1COCO13AG2018030800:00:00OR  01000003994868000399486866087                              2018030820180310Z016CIF201803100000000000010694NN0                                                  0
2MAIL0000066087BR23        BRG1        BRG1COCO    BRG1COCO13AG00000100000000001228090100000000000001500000000000000000000000010694Z01620180310X066004960
1MAIL0000066088BR23        BRG1        BRG1COCO    BRG1COCO13AG2018030800:00:00OR  01000003994868000399486866088                              2018030820180310Z859CIF201803100000000000033941NN0                                                  0
2MAIL0000066088BR23        BRG1        BRG1COCO    BRG1COCO13AG00000100000000001235356200000000000001500000000000000000000000033941Z85920180310X066000000
