1MAIL0000064720BR23        BRG1        BRG1COCO    BRG1COCO13AG2018030100:00:00OR  01000002854061000285406164720                              2018030120180301Z859CIF201803010000000000033941NN0                                                  0
2MAIL0000064720BR23        BRG1        BRG1COCO    BRG1COCO13AG00000100000000001235356200000000000001500000000000000000000000033941Z85920180301X066000000
1MAIL0000064721BR23        BRG1        BRG1COCO    BRG1COCO13AG2018030100:00:00OR  01000005466123000546612364721                              2018030120180301Z859CIF201803010000000000070143NN0                                                  0
2MAIL0000064721BR23        BRG1        BRG1COCO    BRG1COCO13AG00000100000000001233114700000000000001000000000000000000000000012926Z85920180301X066000000
2MAIL0000064721BR23        BRG1        BRG1COCO    BRG1COCO13AG00000200000000001235356200000000000001500000000000000000000000033941Z85920180301X066000000
2MAIL0000064721BR23        BRG1        BRG1COCO    BRG1COCO13AG00000300000000001235737300000000000000800000000000000000000000023276Z85920180301X066000000
1MAIL0000064722BR23        BRG1        BRG1COCO    BRG1COCO13AG2018030100:00:00OR  01000002984616000298461664722                              2018030120180301Z016CIF201803010000000000018394NN0                                                  0
2MAIL0000064722BR23        BRG1        BRG1COCO    BRG1COCO13AG00000100000000001228100400000000000000200000000000000000000000004309Z01620180301X066018000
2MAIL0000064722BR23        BRG1        BRG1COCO    BRG1COCO13AG00000200000000001233081900000000000001400000000000000000000000005073Z01620180301X066008000
2MAIL0000064722BR23        BRG1        BRG1COCO    BRG1COCO13AG00000300000000001233098400000000000001400000000000000000000000005073Z01620180301X066008000
2MAIL0000064722BR23        BRG1        BRG1COCO    BRG1COCO13AG00000400000000001235699700000000000001000000000000000000000000003939Z01620180301X066000000
1MAIL0000064723BR23        BRG1        BRG1COCO    BRG1COCO13AG2018030100:00:00OR  01000002899158000289915864723                              2018030120180301Z016CIF201803010000000000284587NN0                                                  0
2MAIL0000064723BR23        BRG1        BRG1COCO    BRG1COCO13AG00000100000000001132033100000000000000800000000000000000000000013131Z01620180301X066015000
2MAIL0000064723BR23        BRG1        BRG1COCO    BRG1COCO13AG00000200000000001132036700000000000000600000000000000000000000009849Z01620180301X066015000
2MAIL0000064723BR23        BRG1        BRG1COCO    BRG1COCO13AG00000300000000001215533700000000000000800000000000000000000000013131Z01620180301X066015000
2MAIL0000064723BR23        BRG1        BRG1COCO    BRG1COCO13AG00000400000000001226089600000000000001200000000000000000000000004092Z01620180301X066000000
2MAIL0000064723BR23        BRG1        BRG1COCO    BRG1COCO13AG00000500000000001227395500000000000000600000000000000000000000009849Z01620180301X066015000
2MAIL0000064723BR23        BRG1        BRG1COCO    BRG1COCO13AG00000600000000001228090100000000000030000000000000000000000000194429Z01620180301X066004960
2MAIL0000064723BR23        BRG1        BRG1COCO    BRG1COCO13AG00000700000000001231389600000000000000400000000000000000000000006566Z01620180301X066015000
2MAIL0000064723BR23        BRG1        BRG1COCO    BRG1COCO13AG00000800000000001233081900000000000001400000000000000000000000004863Z01620180301X066003000
2MAIL0000064723BR23        BRG1        BRG1COCO    BRG1COCO13AG00000900000000001233098400000000000001400000000000000000000000004863Z01620180301X066003000
2MAIL0000064723BR23        BRG1        BRG1COCO    BRG1COCO13AG00001000000000001233154200000000000001400000000000000000000000004863Z01620180301X066003000
2MAIL0000064723BR23        BRG1        BRG1COCO    BRG1COCO13AG00001100000000001233695100000000000000500000000000000000000000008208Z01620180301X066015000
2MAIL0000064723BR23        BRG1        BRG1COCO    BRG1COCO13AG00001200000000001235699400000000000001000000000000000000000000003581Z01620180301X066000000
2MAIL0000064723BR23        BRG1        BRG1COCO    BRG1COCO13AG00001300000000001235699700000000000001000000000000000000000000003581Z01620180301X066000000
2MAIL0000064723BR23        BRG1        BRG1COCO    BRG1COCO13AG00001400000000001235699800000000000001000000000000000000000000003581Z01620180301X066000000
1MAIL0000064724BR23        BRG1        BRG1COCO    BRG1COCO13AG2018030100:00:00OR  01000003906265000390626564724                              2018030120180301Z016CIF201803010000000000050794NN0                                                  0
2MAIL0000064724BR23        BRG1        BRG1COCO    BRG1COCO13AG00000100000000001132018300000000000000100000000000000000000000003598Z01620180301X066025000
2MAIL0000064724BR23        BRG1        BRG1COCO    BRG1COCO13AG00000200000000001132019900000000000000100000000000000000000000002184Z01620180301X066005000
2MAIL0000064724BR23        BRG1        BRG1COCO    BRG1COCO13AG00000300000000001132036700000000000000100000000000000000000000001641Z01620180301X066015000
2MAIL0000064724BR23        BRG1        BRG1COCO    BRG1COCO13AG00000400000000001132213000000000000000100000000000000000000000003771Z01620180301X066004950
2MAIL0000064724BR23        BRG1        BRG1COCO    BRG1COCO13AG00000500000000001221415400000000000000100000000000000000000000003598Z01620180301X066025000
2MAIL0000064724BR23        BRG1        BRG1COCO    BRG1COCO13AG00000600000000001228090100000000000003000000000000000000000000021389Z01620180301X066004960
2MAIL0000064724BR23        BRG1        BRG1COCO    BRG1COCO13AG00000700000000001233081900000000000001400000000000000000000000005073Z01620180301X066008000
2MAIL0000064724BR23        BRG1        BRG1COCO    BRG1COCO13AG00000800000000001233098400000000000001400000000000000000000000005073Z01620180301X066008000
2MAIL0000064724BR23        BRG1        BRG1COCO    BRG1COCO13AG00000900000000001236512800000000000000400000000000000000000000000699Z01620180301X066000000
2MAIL0000064724BR23        BRG1        BRG1COCO    BRG1COCO13AG00001000000000001236512900000000000000400000000000000000000000000672Z01620180301X066000000
2MAIL0000064724BR23        BRG1        BRG1COCO    BRG1COCO13AG00001100000000001236514100000000000000400000000000000000000000000699Z01620180301X066000000
2MAIL0000064724BR23        BRG1        BRG1COCO    BRG1COCO13AG00001200000000001236515000000000000000400000000000000000000000000672Z01620180301X066000000
2MAIL0000064724BR23        BRG1        BRG1COCO    BRG1COCO13AG00001300000000001236528200000000000000400000000000000000000000001725Z01620180301X066000000
1MAIL0000064725BR23        BRG1        BRG1COCO    BRG1COCO13AG2018030100:00:00OR  01000003954203000395420364725                              2018030120180301Z016CIF201803010000000000086657NN0                                                  0
2MAIL0000064725BR23        BRG1        BRG1COCO    BRG1COCO13AG00000100000000001132033100000000000000200000000000000000000000003420Z01620180301X066015000
2MAIL0000064725BR23        BRG1        BRG1COCO    BRG1COCO13AG00000200000000001132036700000000000000400000000000000000000000006840Z01620180301X066015000
2MAIL0000064725BR23        BRG1        BRG1COCO    BRG1COCO13AG00000300000000001132213000000000000000100000000000000000000000003929Z01620180301X066004950
2MAIL0000064725BR23        BRG1        BRG1COCO    BRG1COCO13AG00000400000000001228090100000000000006000000000000000000000000044573Z01620180301X066004960
2MAIL0000064725BR23        BRG1        BRG1COCO    BRG1COCO13AG00000500000000001231389600000000000000200000000000000000000000003420Z01620180301X066015000
2MAIL0000064725BR23        BRG1        BRG1COCO    BRG1COCO13AG00000600000000001233098400000000000001400000000000000000000000005286Z01620180301X066008000
2MAIL0000064725BR23        BRG1        BRG1COCO    BRG1COCO13AG00000700000000001233098500000000000001400000000000000000000000005286Z01620180301X066008000
2MAIL0000064725BR23        BRG1        BRG1COCO    BRG1COCO13AG00000800000000001233154200000000000001400000000000000000000000005286Z01620180301X066008000
2MAIL0000064725BR23        BRG1        BRG1COCO    BRG1COCO13AG00000900000000001235699800000000000001000000000000000000000000004104Z01620180301X066000000
2MAIL0000064725BR23        BRG1        BRG1COCO    BRG1COCO13AG00001000000000001236512800000000000000400000000000000000000000000722Z01620180301X066000000
2MAIL0000064725BR23        BRG1        BRG1COCO    BRG1COCO13AG00001100000000001236512900000000000000400000000000000000000000000672Z01620180301X066000000
2MAIL0000064725BR23        BRG1        BRG1COCO    BRG1COCO13AG00001200000000001236514100000000000000400000000000000000000000000722Z01620180301X066000000
2MAIL0000064725BR23        BRG1        BRG1COCO    BRG1COCO13AG00001300000000001236515000000000000000400000000000000000000000000672Z01620180301X066000000
2MAIL0000064725BR23        BRG1        BRG1COCO    BRG1COCO13AG00001400000000001236528200000000000000400000000000000000000000001725Z01620180301X066000000
1MAIL0000064726BR23        BRG1        BRG1COCO    BRG1COCO13AG2018030100:00:00OR  01000002854061000285406164726                              2018030120180301Z016CIF201803010000000000020559NN0                                                  0
2MAIL0000064726BR23        BRG1        BRG1COCO    BRG1COCO13AG00000100000000001132019900000000000000100000000000000000000000002184Z01620180301X066005000
2MAIL0000064726BR23        BRG1        BRG1COCO    BRG1COCO13AG00000200000000001132033100000000000000100000000000000000000000001641Z01620180301X066015000
2MAIL0000064726BR23        BRG1        BRG1COCO    BRG1COCO13AG00000300000000001132036700000000000000100000000000000000000000001641Z01620180301X066015000
2MAIL0000064726BR23        BRG1        BRG1COCO    BRG1COCO13AG00000400000000001226089600000000000001200000000000000000000000004276Z01620180301X066005000
2MAIL0000064726BR23        BRG1        BRG1COCO    BRG1COCO13AG00000500000000001233098600000000000001400000000000000000000000005237Z01620180301X066005000
2MAIL0000064726BR23        BRG1        BRG1COCO    BRG1COCO13AG00000600000000001233695100000000000000100000000000000000000000001641Z01620180301X066015000
2MAIL0000064726BR23        BRG1        BRG1COCO    BRG1COCO13AG00000700000000001235699400000000000001000000000000000000000000003939Z01620180301X066000000
1MAIL0000064727BR23        BRG1        BRG1COCO    BRG1COCO13AG2018030100:00:00OR  01000004245000000424500064727                              2018030120180301Z016CIF201803010000000000015900NN0                                                  0
2MAIL0000064727BR23        BRG1        BRG1COCO    BRG1COCO13AG00000100000000001228090100000000000002000000000000000000000000014259Z01620180301X066004960
2MAIL0000064727BR23        BRG1        BRG1COCO    BRG1COCO13AG00000200000000001233695100000000000000100000000000000000000000001641Z01620180301X066015000
1MAIL0000064728BR23        BRG1        BRG1COCO    BRG1COCO13AG2018030100:00:00OR  01000005466123000546612364728                              2018030120180301Z016CIF201803010000000000089666NN0                                                  0
2MAIL0000064728BR23        BRG1        BRG1COCO    BRG1COCO13AG00000100000000001132004200000000000000500000000000000000000000006254Z01620180301X066005000
2MAIL0000064728BR23        BRG1        BRG1COCO    BRG1COCO13AG00000200000000001132018300000000000000100000000000000000000000003598Z01620180301X066025000
2MAIL0000064728BR23        BRG1        BRG1COCO    BRG1COCO13AG00000300000000001132019700000000000000100000000000000000000000002184Z01620180301X066005000
2MAIL0000064728BR23        BRG1        BRG1COCO    BRG1COCO13AG00000400000000001132020900000000000000100000000000000000000000002184Z01620180301X066005000
2MAIL0000064728BR23        BRG1        BRG1COCO    BRG1COCO13AG00000500000000001132036700000000000000100000000000000000000000001641Z01620180301X066015000
2MAIL0000064728BR23        BRG1        BRG1COCO    BRG1COCO13AG00000600000000001132200400000000000000100000000000000000000000001775Z01620180301X066004850
2MAIL0000064728BR23        BRG1        BRG1COCO    BRG1COCO13AG00000700000000001132213000000000000000100000000000000000000000003771Z01620180301X066004950
2MAIL0000064728BR23        BRG1        BRG1COCO    BRG1COCO13AG00000800000000001215533700000000000000100000000000000000000000001641Z01620180301X066015000
2MAIL0000064728BR23        BRG1        BRG1COCO    BRG1COCO13AG00000900000000001223975300000000000000100000000000000000000000004522Z01620180301X066005000
2MAIL0000064728BR23        BRG1        BRG1COCO    BRG1COCO13AG00001000000000001227735000000000000000100000000000000000000000002184Z01620180301X066005000
2MAIL0000064728BR23        BRG1        BRG1COCO    BRG1COCO13AG00001100000000001228100400000000000000500000000000000000000000010774Z01620180301X066018000
2MAIL0000064728BR23        BRG1        BRG1COCO    BRG1COCO13AG00001200000000001228512700000000000000100000000000000000000000004522Z01620180301X066005000
2MAIL0000064728BR23        BRG1        BRG1COCO    BRG1COCO13AG00001300000000001231189200000000000000100000000000000000000000004522Z01620180301X066005000
2MAIL0000064728BR23        BRG1        BRG1COCO    BRG1COCO13AG00001400000000001231231200000000000000100000000000000000000000004522Z01620180301X066005000
2MAIL0000064728BR23        BRG1        BRG1COCO    BRG1COCO13AG00001500000000001233098500000000000001400000000000000000000000005237Z01620180301X066005000
2MAIL0000064728BR23        BRG1        BRG1COCO    BRG1COCO13AG00001600000000001233098600000000000001400000000000000000000000005237Z01620180301X066005000
2MAIL0000064728BR23        BRG1        BRG1COCO    BRG1COCO13AG00001700000000001233098800000000000001400000000000000000000000005237Z01620180301X066005000
2MAIL0000064728BR23        BRG1        BRG1COCO    BRG1COCO13AG00001800000000001233099500000000000001400000000000000000000000005237Z01620180301X066005000
2MAIL0000064728BR23        BRG1        BRG1COCO    BRG1COCO13AG00001900000000001233695100000000000000100000000000000000000000001641Z01620180301X066015000
2MAIL0000064728BR23        BRG1        BRG1COCO    BRG1COCO13AG00002000000000001234705700000000000000100000000000000000000000004522Z01620180301X066005000
2MAIL0000064728BR23        BRG1        BRG1COCO    BRG1COCO13AG00002100000000001234705800000000000000100000000000000000000000004522Z01620180301X066005000
2MAIL0000064728BR23        BRG1        BRG1COCO    BRG1COCO13AG00002200000000001235699700000000000001000000000000000000000000003939Z01620180301X066000000
1MAIL0000064729BR23        BRG1        BRG1COCO    BRG1COCO13AG2018030100:00:00OR  01000002979967000297996764729                              2018030120180301Z016CIF201803010000000000100023NN0                                                  0
2MAIL0000064729BR23        BRG1        BRG1COCO    BRG1COCO13AG00000100000000001132019900000000000000100000000000000000000000002276Z01620180301X066005000
2MAIL0000064729BR23        BRG1        BRG1COCO    BRG1COCO13AG00000200000000001132020900000000000000100000000000000000000000002276Z01620180301X066005000
2MAIL0000064729BR23        BRG1        BRG1COCO    BRG1COCO13AG00000300000000001132033100000000000000200000000000000000000000003420Z01620180301X066015000
2MAIL0000064729BR23        BRG1        BRG1COCO    BRG1COCO13AG00000400000000001132034900000000000000500000000000000000000000008030Z01620180301X066015000
2MAIL0000064729BR23        BRG1        BRG1COCO    BRG1COCO13AG00000500000000001132035100000000000000500000000000000000000000008472Z01620180301X066015000
2MAIL0000064729BR23        BRG1        BRG1COCO    BRG1COCO13AG00000600000000001132036700000000000000400000000000000000000000006840Z01620180301X066015000
2MAIL0000064729BR23        BRG1        BRG1COCO    BRG1COCO13AG00000700000000001215533700000000000000200000000000000000000000003420Z01620180301X066015000
2MAIL0000064729BR23        BRG1        BRG1COCO    BRG1COCO13AG00000800000000001223975300000000000000100000000000000000000000004713Z01620180301X066005000
2MAIL0000064729BR23        BRG1        BRG1COCO    BRG1COCO13AG00000900000000001226089600000000000001200000000000000000000000004268Z01620180301X066009000
2MAIL0000064729BR23        BRG1        BRG1COCO    BRG1COCO13AG00001000000000001227395500000000000000200000000000000000000000003420Z01620180301X066015000
2MAIL0000064729BR23        BRG1        BRG1COCO    BRG1COCO13AG00001100000000001228274000000000000000100000000000000000000000004713Z01620180301X066005000
2MAIL0000064729BR23        BRG1        BRG1COCO    BRG1COCO13AG00001200000000001228512700000000000000100000000000000000000000004713Z01620180301X066005000
2MAIL0000064729BR23        BRG1        BRG1COCO    BRG1COCO13AG00001300000000001231189200000000000000100000000000000000000000004713Z01620180301X066005000
2MAIL0000064729BR23        BRG1        BRG1COCO    BRG1COCO13AG00001400000000001231389600000000000000200000000000000000000000003420Z01620180301X066015000
2MAIL0000064729BR23        BRG1        BRG1COCO    BRG1COCO13AG00001500000000001233081900000000000001400000000000000000000000005171Z01620180301X066010000
2MAIL0000064729BR23        BRG1        BRG1COCO    BRG1COCO13AG00001600000000001233098400000000000001400000000000000000000000005171Z01620180301X066010000
2MAIL0000064729BR23        BRG1        BRG1COCO    BRG1COCO13AG00001700000000001233098800000000000001400000000000000000000000005171Z01620180301X066010000
2MAIL0000064729BR23        BRG1        BRG1COCO    BRG1COCO13AG00001800000000001233695100000000000000200000000000000000000000003420Z01620180301X066015000
2MAIL0000064729BR23        BRG1        BRG1COCO    BRG1COCO13AG00001900000000001234705700000000000000100000000000000000000000004713Z01620180301X066005000
2MAIL0000064729BR23        BRG1        BRG1COCO    BRG1COCO13AG00002000000000001234705800000000000000100000000000000000000000004713Z01620180301X066005000
2MAIL0000064729BR23        BRG1        BRG1COCO    BRG1COCO13AG00002100000000001236512800000000000001000000000000000000000000001805Z01620180301X066000000
2MAIL0000064729BR23        BRG1        BRG1COCO    BRG1COCO13AG00002200000000001236512900000000000001000000000000000000000000001680Z01620180301X066000000
2MAIL0000064729BR23        BRG1        BRG1COCO    BRG1COCO13AG00002300000000001236514100000000000001000000000000000000000000001805Z01620180301X066000000
2MAIL0000064729BR23        BRG1        BRG1COCO    BRG1COCO13AG00002400000000001236515000000000000001000000000000000000000000001680Z01620180301X066000000
1MAIL0000064734BR23        BRG1        BRG1COCO    BRG1COCO13AG2018030100:00:00OR  01000005271250000527125064734                              2018030120180301Z016CIF201803010000000000016409NN0                                                  0
2MAIL0000064734BR23        BRG1        BRG1COCO    BRG1COCO13AG00000100000000001132036700000000000001000000000000000000000000016409Z01620180301X066015000
1MAIL0000064735BR23        BRG1        BRG1COCO    BRG1COCO13AG2018030100:00:00OR  01000004637418000463741864735                              2018030120180301Z016CIF201803010000000000015509NN0                                                  0
2MAIL0000064735BR23        BRG1        BRG1COCO    BRG1COCO13AG00000100000000001132033100000000000000100000000000000000000000001641Z01620180301X066015000
2MAIL0000064735BR23        BRG1        BRG1COCO    BRG1COCO13AG00000200000000001132036700000000000000100000000000000000000000001641Z01620180301X066015000
2MAIL0000064735BR23        BRG1        BRG1COCO    BRG1COCO13AG00000300000000001227395500000000000000100000000000000000000000001641Z01620180301X066015000
2MAIL0000064735BR23        BRG1        BRG1COCO    BRG1COCO13AG00000400000000001233098400000000000001400000000000000000000000005293Z01620180301X066004000
2MAIL0000064735BR23        BRG1        BRG1COCO    BRG1COCO13AG00000500000000001233098600000000000001400000000000000000000000005293Z01620180301X066004000
1MAIL0000064736BR23        BRG1        BRG1COCO    BRG1COCO13AG2018030100:00:00OR  01000002924100000292410064736                              2018030120180301Z016CIF201803010000000000025932NN0                                                  0
2MAIL0000064736BR23        BRG1        BRG1COCO    BRG1COCO13AG00000100000000001132033100000000000000100000000000000000000000001710Z01620180301X066015000
2MAIL0000064736BR23        BRG1        BRG1COCO    BRG1COCO13AG00000200000000001132036700000000000000100000000000000000000000001710Z01620180301X066015000
2MAIL0000064736BR23        BRG1        BRG1COCO    BRG1COCO13AG00000300000000001228090100000000000003000000000000000000000000022512Z01620180301X066004000
1MAIL0000064737BR23        BRG1        BRG1COCO    BRG1COCO13AG2018030100:00:00OR  01000004904327000490432764737                              2018030120180301Z016CIF201803010000000000027229NN0                                                  0
2MAIL0000064737BR23        BRG1        BRG1COCO    BRG1COCO13AG00000100000000001132033100000000000000200000000000000000000000003630Z01620180301X066006000
2MAIL0000064737BR23        BRG1        BRG1COCO    BRG1COCO13AG00000200000000001132036700000000000000400000000000000000000000007262Z01620180301X066006000
2MAIL0000064737BR23        BRG1        BRG1COCO    BRG1COCO13AG00000300000000001215533700000000000000300000000000000000000000005445Z01620180301X066006000
2MAIL0000064737BR23        BRG1        BRG1COCO    BRG1COCO13AG00000400000000001227395500000000000000400000000000000000000000007262Z01620180301X066006000
2MAIL0000064737BR23        BRG1        BRG1COCO    BRG1COCO13AG00000500000000001231389600000000000000200000000000000000000000003630Z01620180301X066006000
