1MAIL0000065934BR23        BRG1        BRG1COCO    BRG1COCO13AG2018030800:00:00OR  01000002899151000289915165934                              2018030820180308Z016CIF201803080000000000029282NN0                                                  0
2MAIL0000065934BR23        BRG1        BRG1COCO    BRG1COCO13AG00000100000000001132036700000000000000100000000000000000000000001710Z01620180308X066015000
2MAIL0000065934BR23        BRG1        BRG1COCO    BRG1COCO13AG00000200000000001228090100000000000003000000000000000000000000022286Z01620180308X066004960
2MAIL0000065934BR23        BRG1        BRG1COCO    BRG1COCO13AG00000300000000001233098400000000000001400000000000000000000000005286Z01620180308X066008000
1MAIL0000065935BR23        BRG1        BRG1COCO    BRG1COCO13AG2018030800:00:00OR  01000002984609000298460965935                              2018030820180308Z859CIF201803080000000000045579NN0                                                  0
2MAIL0000065935BR23        BRG1        BRG1COCO    BRG1COCO13AG00000100000000001235356200000000000001500000000000000000000000033941Z85920180308X066000000
2MAIL0000065935BR23        BRG1        BRG1COCO    BRG1COCO13AG00000200000000001235737300000000000000400000000000000000000000011638Z85920180308X066000000
1MAIL0000065936BR23        BRG1        BRG1COCO    BRG1COCO13AG2018030800:00:00OR  01000002955511000295551165936                              2018030820180308Z859CIF201803080000000000045579NN0                                                  0
2MAIL0000065936BR23        BRG1        BRG1COCO    BRG1COCO13AG00000100000000001235356200000000000001500000000000000000000000033941Z85920180308X066000000
2MAIL0000065936BR23        BRG1        BRG1COCO    BRG1COCO13AG00000200000000001235737300000000000000400000000000000000000000011638Z85920180308X066000000
1MAIL0000065937BR23        BRG1        BRG1COCO    BRG1COCO13AG2018030800:00:00OR  01000004565056000456505665937                              2018030820180308Z859CIF201803080000000000057217NN0                                                  0
2MAIL0000065937BR23        BRG1        BRG1COCO    BRG1COCO13AG00000100000000001235356200000000000001500000000000000000000000033941Z85920180308X066000000
2MAIL0000065937BR23        BRG1        BRG1COCO    BRG1COCO13AG00000200000000001235737300000000000000800000000000000000000000023276Z85920180308X066000000
1MAIL0000065938BR23        BRG1        BRG1COCO    BRG1COCO13AG2018030800:00:00OR  01000000928097000092809765938                              2018030820180308Z859CIF201803080000000000057217NN0                                                  0
2MAIL0000065938BR23        BRG1        BRG1COCO    BRG1COCO13AG00000100000000001235356200000000000001500000000000000000000000033941Z85920180308X066000000
2MAIL0000065938BR23        BRG1        BRG1COCO    BRG1COCO13AG00000200000000001235737300000000000000800000000000000000000000023276Z85920180308X066000000
1MAIL0000065939BR23        BRG1        BRG1COCO    BRG1COCO13AG2018030800:00:00OR  01000002925493000292549365939                              2018030820180308Z016CIF201803080000000000285714NN0                                                  0
2MAIL0000065939BR23        BRG1        BRG1COCO    BRG1COCO13AG00000100000000001132004200000000000000500000000000000000000000005686Z01620180308X066005000
2MAIL0000065939BR23        BRG1        BRG1COCO    BRG1COCO13AG00000200000000001132034900000000000000500000000000000000000000007006Z01620180308X066015000
2MAIL0000065939BR23        BRG1        BRG1COCO    BRG1COCO13AG00000300000000001132035100000000000000500000000000000000000000007392Z01620180308X066015000
2MAIL0000065939BR23        BRG1        BRG1COCO    BRG1COCO13AG00000400000000001132036700000000000000400000000000000000000000006566Z01620180308X066015000
2MAIL0000065939BR23        BRG1        BRG1COCO    BRG1COCO13AG00000500000000001228090100000000000030000000000000000000000000194429Z01620180308X066004960
2MAIL0000065939BR23        BRG1        BRG1COCO    BRG1COCO13AG00000600000000001233081900000000000001400000000000000000000000004762Z01620180308X066005000
2MAIL0000065939BR23        BRG1        BRG1COCO    BRG1COCO13AG00000700000000001233098400000000000001400000000000000000000000004762Z01620180308X066005000
2MAIL0000065939BR23        BRG1        BRG1COCO    BRG1COCO13AG00000800000000001233098500000000000001400000000000000000000000004762Z01620180308X066005000
2MAIL0000065939BR23        BRG1        BRG1COCO    BRG1COCO13AG00000900000000001233098600000000000001400000000000000000000000004762Z01620180308X066005000
2MAIL0000065939BR23        BRG1        BRG1COCO    BRG1COCO13AG00001000000000001233098800000000000001400000000000000000000000004762Z01620180308X066005000
2MAIL0000065939BR23        BRG1        BRG1COCO    BRG1COCO13AG00001100000000001233154200000000000001400000000000000000000000004762Z01620180308X066005000
2MAIL0000065939BR23        BRG1        BRG1COCO    BRG1COCO13AG00001200000000001234708700000000000001400000000000000000000000004762Z01620180308X066005000
2MAIL0000065939BR23        BRG1        BRG1COCO    BRG1COCO13AG00001300000000001235699400000000000001000000000000000000000000003581Z01620180308X066000000
2MAIL0000065939BR23        BRG1        BRG1COCO    BRG1COCO13AG00001400000000001235699700000000000001000000000000000000000000003581Z01620180308X066000000
2MAIL0000065939BR23        BRG1        BRG1COCO    BRG1COCO13AG00001500000000001235699800000000000001000000000000000000000000003581Z01620180308X066000000
2MAIL0000065939BR23        BRG1        BRG1COCO    BRG1COCO13AG00001600000000001236512800000000000002600000000000000000000000004399Z01620180308X066000000
2MAIL0000065939BR23        BRG1        BRG1COCO    BRG1COCO13AG00001700000000001236512900000000000003500000000000000000000000005880Z01620180308X066000000
2MAIL0000065939BR23        BRG1        BRG1COCO    BRG1COCO13AG00001800000000001236514100000000000002600000000000000000000000004399Z01620180308X066000000
2MAIL0000065939BR23        BRG1        BRG1COCO    BRG1COCO13AG00001900000000001236515000000000000003500000000000000000000000005880Z01620180308X066000000
1MAIL0000065940BR23        BRG1        BRG1COCO    BRG1COCO13AG2018030800:00:00OR  01000004170706000417070665940                              2018030820180308Z016CIF201803080000000000052441NN0                                                  0
2MAIL0000065940BR23        BRG1        BRG1COCO    BRG1COCO13AG00000100000000001228090100000000000003000000000000000000000000021389Z01620180308X066004960
2MAIL0000065940BR23        BRG1        BRG1COCO    BRG1COCO13AG00000200000000001228100400000000000000200000000000000000000000004309Z01620180308X066018000
2MAIL0000065940BR23        BRG1        BRG1COCO    BRG1COCO13AG00000300000000001228274000000000000000100000000000000000000000004522Z01620180308X066005000
2MAIL0000065940BR23        BRG1        BRG1COCO    BRG1COCO13AG00000400000000001231231200000000000000100000000000000000000000004522Z01620180308X066005000
2MAIL0000065940BR23        BRG1        BRG1COCO    BRG1COCO13AG00000500000000001233099500000000000001400000000000000000000000005237Z01620180308X066005000
2MAIL0000065940BR23        BRG1        BRG1COCO    BRG1COCO13AG00000600000000001233154200000000000001400000000000000000000000005237Z01620180308X066005000
2MAIL0000065940BR23        BRG1        BRG1COCO    BRG1COCO13AG00000700000000001233695100000000000000100000000000000000000000001641Z01620180308X066015000
2MAIL0000065940BR23        BRG1        BRG1COCO    BRG1COCO13AG00000800000000001236512800000000000000500000000000000000000000000874Z01620180308X066000000
2MAIL0000065940BR23        BRG1        BRG1COCO    BRG1COCO13AG00000900000000001236512900000000000000500000000000000000000000000840Z01620180308X066000000
2MAIL0000065940BR23        BRG1        BRG1COCO    BRG1COCO13AG00001000000000001236514100000000000000500000000000000000000000000874Z01620180308X066000000
2MAIL0000065940BR23        BRG1        BRG1COCO    BRG1COCO13AG00001100000000001236515000000000000000500000000000000000000000000840Z01620180308X066000000
2MAIL0000065940BR23        BRG1        BRG1COCO    BRG1COCO13AG00001200000000001236528200000000000000500000000000000000000000002156Z01620180308X066000000
1MAIL0000065941BR23        BRG1        BRG1COCO    BRG1COCO13AG2018030800:00:00OR  01000004260813000426081365941                              2018030820180308Z016CIF201803080000000000037393NN0                                                  0
2MAIL0000065941BR23        BRG1        BRG1COCO    BRG1COCO13AG00000100000000001132018300000000000000100000000000000000000000003598Z01620180308X066025000
2MAIL0000065941BR23        BRG1        BRG1COCO    BRG1COCO13AG00000200000000001132200400000000000000200000000000000000000000003552Z01620180308X066004800
2MAIL0000065941BR23        BRG1        BRG1COCO    BRG1COCO13AG00000300000000001132213000000000000000100000000000000000000000003771Z01620180308X066004950
2MAIL0000065941BR23        BRG1        BRG1COCO    BRG1COCO13AG00000400000000001215533700000000000000100000000000000000000000001641Z01620180308X066015000
2MAIL0000065941BR23        BRG1        BRG1COCO    BRG1COCO13AG00000500000000001221415400000000000000100000000000000000000000003598Z01620180308X066025000
2MAIL0000065941BR23        BRG1        BRG1COCO    BRG1COCO13AG00000600000000001227395500000000000000100000000000000000000000001641Z01620180308X066015000
2MAIL0000065941BR23        BRG1        BRG1COCO    BRG1COCO13AG00000700000000001228090100000000000001000000000000000000000000007130Z01620180308X066004960
2MAIL0000065941BR23        BRG1        BRG1COCO    BRG1COCO13AG00000800000000001233098400000000000001400000000000000000000000005237Z01620180308X066005000
2MAIL0000065941BR23        BRG1        BRG1COCO    BRG1COCO13AG00000900000000001233695100000000000000100000000000000000000000001641Z01620180308X066015000
2MAIL0000065941BR23        BRG1        BRG1COCO    BRG1COCO13AG00001000000000001236512800000000000000500000000000000000000000000874Z01620180308X066000000
2MAIL0000065941BR23        BRG1        BRG1COCO    BRG1COCO13AG00001100000000001236512900000000000000500000000000000000000000000840Z01620180308X066000000
2MAIL0000065941BR23        BRG1        BRG1COCO    BRG1COCO13AG00001200000000001236514100000000000000500000000000000000000000000874Z01620180308X066000000
2MAIL0000065941BR23        BRG1        BRG1COCO    BRG1COCO13AG00001300000000001236515000000000000000500000000000000000000000000840Z01620180308X066000000
2MAIL0000065941BR23        BRG1        BRG1COCO    BRG1COCO13AG00001400000000001236528200000000000000500000000000000000000000002156Z01620180308X066000000
1MAIL0000065943BR23        BRG1        BRG1COCO    BRG1COCO13AG2018030800:00:00OR  01000002589895000258989565943                              2018030820180308Z016CIF201803080000000000526490NN0                                                  0
2MAIL0000065943BR23        BRG1        BRG1COCO    BRG1COCO13AG00000100000000001132018300000000000000800000000000000000000000028788Z01620180308X066025000
2MAIL0000065943BR23        BRG1        BRG1COCO    BRG1COCO13AG00000200000000001132200400000000000002400000000000000000000000042987Z01620180308X066004000
2MAIL0000065943BR23        BRG1        BRG1COCO    BRG1COCO13AG00000300000000001132213000000000000000600000000000000000000000020565Z01620180308X066004950
2MAIL0000065943BR23        BRG1        BRG1COCO    BRG1COCO13AG00000400000000001132213100000000000000600000000000000000000000020565Z01620180308X066004950
2MAIL0000065943BR23        BRG1        BRG1COCO    BRG1COCO13AG00000500000000001223975300000000000000800000000000000000000000032893Z01620180308X066005000
2MAIL0000065943BR23        BRG1        BRG1COCO    BRG1COCO13AG00000600000000001226089600000000000009600000000000000000000000030770Z01620180308X066006000
2MAIL0000065943BR23        BRG1        BRG1COCO    BRG1COCO13AG00000700000000001228274000000000000000800000000000000000000000032893Z01620180308X066005000
2MAIL0000065943BR23        BRG1        BRG1COCO    BRG1COCO13AG00000800000000001231189200000000000000800000000000000000000000032893Z01620180308X066005000
2MAIL0000065943BR23        BRG1        BRG1COCO    BRG1COCO13AG00000900000000001233098400000000000005600000000000000000000000018696Z01620180308X066006750
2MAIL0000065943BR23        BRG1        BRG1COCO    BRG1COCO13AG00001000000000001233098800000000000011200000000000000000000000037392Z01620180308X066006750
2MAIL0000065943BR23        BRG1        BRG1COCO    BRG1COCO13AG00001100000000001233154200000000000005600000000000000000000000018696Z01620180308X066006750
2MAIL0000065943BR23        BRG1        BRG1COCO    BRG1COCO13AG00001200000000001234705700000000000001600000000000000000000000065787Z01620180308X066005000
2MAIL0000065943BR23        BRG1        BRG1COCO    BRG1COCO13AG00001300000000001234705800000000000001600000000000000000000000065787Z01620180308X066005000
2MAIL0000065943BR23        BRG1        BRG1COCO    BRG1COCO13AG00001400000000001234708700000000000011200000000000000000000000037392Z01620180308X066006750
2MAIL0000065943BR23        BRG1        BRG1COCO    BRG1COCO13AG00001500000000001235699400000000000004000000000000000000000000013462Z01620180308X066006000
2MAIL0000065943BR23        BRG1        BRG1COCO    BRG1COCO13AG00001600000000001235699700000000000004000000000000000000000000013462Z01620180308X066006000
2MAIL0000065943BR23        BRG1        BRG1COCO    BRG1COCO13AG00001700000000001235699800000000000004000000000000000000000000013462Z01620180308X066006000
