1MAIL0000064880BR23        BRG1        BRG1COCO    BRG1COCO13AG2018030200:00:00OR  01000004778764000477876464880                              2018030220180303Z016CIF201803030000000000015311NN0                                                  0
2MAIL0000064880BR23        BRG1        BRG1COCO    BRG1COCO13AG00000100000000001132033100000000000000100000000000000000000000001641Z01620180303X066015000
2MAIL0000064880BR23        BRG1        BRG1COCO    BRG1COCO13AG00000200000000001132036700000000000000200000000000000000000000003281Z01620180303X066015000
2MAIL0000064880BR23        BRG1        BRG1COCO    BRG1COCO13AG00000300000000001132200400000000000000200000000000000000000000003731Z01620180303X066000000
2MAIL0000064880BR23        BRG1        BRG1COCO    BRG1COCO13AG00000400000000001215533700000000000000100000000000000000000000001641Z01620180303X066015000
2MAIL0000064880BR23        BRG1        BRG1COCO    BRG1COCO13AG00000500000000001233098400000000000001400000000000000000000000005017Z01620180303X066009000
1MAIL0000064881BR23        BRG1        BRG1COCO    BRG1COCO13AG2018030200:00:00OR  01000004253387000425338764881                              2018030220180303Z016CIF201803030000000000008203NN0                                                  0
2MAIL0000064881BR23        BRG1        BRG1COCO    BRG1COCO13AG00000100000000001132036700000000000000200000000000000000000000003281Z01620180303X066015000
2MAIL0000064881BR23        BRG1        BRG1COCO    BRG1COCO13AG00000200000000001215533700000000000000100000000000000000000000001641Z01620180303X066015000
2MAIL0000064881BR23        BRG1        BRG1COCO    BRG1COCO13AG00000300000000001227395500000000000000200000000000000000000000003281Z01620180303X066015000
1MAIL0000064882BR23        BRG1        BRG1COCO    BRG1COCO13AG2018030200:00:00OR  01000003873812000387381264882                              2018030220180303Z016CIF201803030000000000029860NN0                                                  0
2MAIL0000064882BR23        BRG1        BRG1COCO    BRG1COCO13AG00000100000000001132036700000000000000400000000000000000000000006565Z01620180303X066015000
2MAIL0000064882BR23        BRG1        BRG1COCO    BRG1COCO13AG00000200000000001132213000000000000000200000000000000000000000007541Z01620180303X066004950
2MAIL0000064882BR23        BRG1        BRG1COCO    BRG1COCO13AG00000300000000001235699400000000000002000000000000000000000000007877Z01620180303X066000000
2MAIL0000064882BR23        BRG1        BRG1COCO    BRG1COCO13AG00000400000000001235699800000000000002000000000000000000000000007877Z01620180303X066000000
1MAIL0000064883BR23        BRG1        BRG1COCO    BRG1COCO13AG2018030200:00:00OR  01000005411842000541184264883                              2018030220180303Z016CIF201803030000000000009889NN0                                                  0
2MAIL0000064883BR23        BRG1        BRG1COCO    BRG1COCO13AG00000100000000001132033100000000000000200000000000000000000000003281Z01620180303X066015000
2MAIL0000064883BR23        BRG1        BRG1COCO    BRG1COCO13AG00000200000000001215533700000000000000100000000000000000000000001641Z01620180303X066015000
2MAIL0000064883BR23        BRG1        BRG1COCO    BRG1COCO13AG00000300000000001233098400000000000001400000000000000000000000004967Z01620180303X066009920
1MAIL0000064884BR23        BRG1        BRG1COCO    BRG1COCO13AG2018030200:00:00OR  01000003826586000382658664884                              2018030220180303Z016CIF201803030000000000006299NN0                                                  0
2MAIL0000064884BR23        BRG1        BRG1COCO    BRG1COCO13AG00000100000000001132200400000000000000100000000000000000000000001866Z01620180303X066000000
2MAIL0000064884BR23        BRG1        BRG1COCO    BRG1COCO13AG00000200000000001228100400000000000000100000000000000000000000002628Z01620180303X066000000
2MAIL0000064884BR23        BRG1        BRG1COCO    BRG1COCO13AG00000300000000001236514100000000000001000000000000000000000000001805Z01620180303X066000000
1MAIL0000064885BR23        BRG1        BRG1COCO    BRG1COCO13AG2018030200:00:00OR  01000004063422000406342264885                              2018030220180303Z016CIF201803030000000000030652NN0                                                  0
2MAIL0000064885BR23        BRG1        BRG1COCO    BRG1COCO13AG00000100000000001132033100000000000000300000000000000000000000004923Z01620180303X066015000
2MAIL0000064885BR23        BRG1        BRG1COCO    BRG1COCO13AG00000200000000001132036700000000000000700000000000000000000000011486Z01620180303X066015000
2MAIL0000064885BR23        BRG1        BRG1COCO    BRG1COCO13AG00000300000000001228100400000000000000200000000000000000000000004309Z01620180303X066018000
2MAIL0000064885BR23        BRG1        BRG1COCO    BRG1COCO13AG00000400000000001233081900000000000001400000000000000000000000004967Z01620180303X066009920
2MAIL0000064885BR23        BRG1        BRG1COCO    BRG1COCO13AG00000500000000001233098400000000000001400000000000000000000000004967Z01620180303X066009920
1MAIL0000064886BR23        BRG1        BRG1COCO    BRG1COCO13AG2018030200:00:00OR  01000005527469000552746964886                              2018030220180303Z016CIF201803030000000000007804NN0                                                  0
2MAIL0000064886BR23        BRG1        BRG1COCO    BRG1COCO13AG00000100000000001132033100000000000000100000000000000000000000001641Z01620180303X066015000
2MAIL0000064886BR23        BRG1        BRG1COCO    BRG1COCO13AG00000200000000001132036700000000000000100000000000000000000000001641Z01620180303X066015000
2MAIL0000064886BR23        BRG1        BRG1COCO    BRG1COCO13AG00000300000000001223975300000000000000100000000000000000000000004522Z01620180303X066005000
1MAIL0000064887BR23        BRG1        BRG1COCO    BRG1COCO13AG2018030200:00:00OR  01000005137201000513720164887                              2018030220180303Z016CIF201803030000000000030853NN0                                                  0
2MAIL0000064887BR23        BRG1        BRG1COCO    BRG1COCO13AG00000100000000001132200400000000000000100000000000000000000000001866Z01620180303X066000000
2MAIL0000064887BR23        BRG1        BRG1COCO    BRG1COCO13AG00000200000000001221415400000000000000100000000000000000000000004078Z01620180303X066015000
2MAIL0000064887BR23        BRG1        BRG1COCO    BRG1COCO13AG00000300000000001223975300000000000000100000000000000000000000004522Z01620180303X066005000
2MAIL0000064887BR23        BRG1        BRG1COCO    BRG1COCO13AG00000400000000001231189200000000000000100000000000000000000000004522Z01620180303X066005000
2MAIL0000064887BR23        BRG1        BRG1COCO    BRG1COCO13AG00000500000000001231231200000000000000100000000000000000000000004522Z01620180303X066005000
2MAIL0000064887BR23        BRG1        BRG1COCO    BRG1COCO13AG00000600000000001235699400000000000001000000000000000000000000003781Z01620180303X066004000
2MAIL0000064887BR23        BRG1        BRG1COCO    BRG1COCO13AG00000700000000001235699700000000000001000000000000000000000000003781Z01620180303X066004000
2MAIL0000064887BR23        BRG1        BRG1COCO    BRG1COCO13AG00000800000000001235699800000000000001000000000000000000000000003781Z01620180303X066004000
1MAIL0000064888BR23        BRG1        BRG1COCO    BRG1COCO13AG2018030200:00:00OR  01000004416934000441693464888                              2018030220180303Z016CIF201803030000000000025205NN0                                                  0
2MAIL0000064888BR23        BRG1        BRG1COCO    BRG1COCO13AG00000100000000001132033100000000000000100000000000000000000000001796Z01620180303X066007000
2MAIL0000064888BR23        BRG1        BRG1COCO    BRG1COCO13AG00000200000000001132036700000000000000200000000000000000000000003591Z01620180303X066007000
2MAIL0000064888BR23        BRG1        BRG1COCO    BRG1COCO13AG00000300000000001215533700000000000000100000000000000000000000001796Z01620180303X066007000
2MAIL0000064888BR23        BRG1        BRG1COCO    BRG1COCO13AG00000400000000001233098600000000000001400000000000000000000000005237Z01620180303X066005000
2MAIL0000064888BR23        BRG1        BRG1COCO    BRG1COCO13AG00000500000000001234705700000000000000100000000000000000000000004522Z01620180303X066005000
2MAIL0000064888BR23        BRG1        BRG1COCO    BRG1COCO13AG00000600000000001234705800000000000000100000000000000000000000004522Z01620180303X066005000
2MAIL0000064888BR23        BRG1        BRG1COCO    BRG1COCO13AG00000700000000001235699800000000000001000000000000000000000000003741Z01620180303X066005000
1MAIL0000064889BR23        BRG1        BRG1COCO    BRG1COCO13AG2018030200:00:00OR  01000002898831000289883164889                              2018030220180303Z016CIF201803030000000000025171NN0                                                  0
2MAIL0000064889BR23        BRG1        BRG1COCO    BRG1COCO13AG00000100000000001132004000000000000000500000000000000000000000004116Z01620180303X066005000
2MAIL0000064889BR23        BRG1        BRG1COCO    BRG1COCO13AG00000200000000001132004200000000000000500000000000000000000000006255Z01620180303X066005000
2MAIL0000064889BR23        BRG1        BRG1COCO    BRG1COCO13AG00000300000000001132036700000000000000400000000000000000000000007184Z01620180303X066007000
2MAIL0000064889BR23        BRG1        BRG1COCO    BRG1COCO13AG00000400000000001132213000000000000000100000000000000000000000003808Z01620180303X066004000
2MAIL0000064889BR23        BRG1        BRG1COCO    BRG1COCO13AG00000500000000001132213100000000000000100000000000000000000000003808Z01620180303X066004000
1MAIL0000064890BR23        BRG1        BRG1COCO    BRG1COCO13AG2018030200:00:00OR  01000002879052000287905264890                              2018030220180303Z016CIF201803030000000000047009NN0                                                  0
2MAIL0000064890BR23        BRG1        BRG1COCO    BRG1COCO13AG00000100000000001132019700000000000000100000000000000000000000002207Z01620180303X066004000
2MAIL0000064890BR23        BRG1        BRG1COCO    BRG1COCO13AG00000200000000001132019800000000000000100000000000000000000000002207Z01620180303X066004000
2MAIL0000064890BR23        BRG1        BRG1COCO    BRG1COCO13AG00000300000000001132020900000000000000100000000000000000000000002207Z01620180303X066004000
2MAIL0000064890BR23        BRG1        BRG1COCO    BRG1COCO13AG00000400000000001132033100000000000000100000000000000000000000001796Z01620180303X066007000
2MAIL0000064890BR23        BRG1        BRG1COCO    BRG1COCO13AG00000500000000001132036700000000000000200000000000000000000000003591Z01620180303X066007000
2MAIL0000064890BR23        BRG1        BRG1COCO    BRG1COCO13AG00000600000000001132200400000000000000100000000000000000000000001866Z01620180303X066000000
2MAIL0000064890BR23        BRG1        BRG1COCO    BRG1COCO13AG00000700000000001215533700000000000000200000000000000000000000003591Z01620180303X066007000
2MAIL0000064890BR23        BRG1        BRG1COCO    BRG1COCO13AG00000800000000001227735000000000000000100000000000000000000000002207Z01620180303X066004000
2MAIL0000064890BR23        BRG1        BRG1COCO    BRG1COCO13AG00000900000000001233098400000000000001400000000000000000000000005514Z01620180303X066000000
2MAIL0000064890BR23        BRG1        BRG1COCO    BRG1COCO13AG00001000000000001233098500000000000001400000000000000000000000005514Z01620180303X066000000
2MAIL0000064890BR23        BRG1        BRG1COCO    BRG1COCO13AG00001100000000001233098600000000000001400000000000000000000000005514Z01620180303X066000000
2MAIL0000064890BR23        BRG1        BRG1COCO    BRG1COCO13AG00001200000000001235699800000000000001000000000000000000000000003939Z01620180303X066000000
2MAIL0000064890BR23        BRG1        BRG1COCO    BRG1COCO13AG00001300000000001236512800000000000001000000000000000000000000001748Z01620180303X066000000
2MAIL0000064890BR23        BRG1        BRG1COCO    BRG1COCO13AG00001400000000001236512900000000000001000000000000000000000000001680Z01620180303X066000000
2MAIL0000064890BR23        BRG1        BRG1COCO    BRG1COCO13AG00001500000000001236514100000000000001000000000000000000000000001748Z01620180303X066000000
2MAIL0000064890BR23        BRG1        BRG1COCO    BRG1COCO13AG00001600000000001236515000000000000001000000000000000000000000001680Z01620180303X066000000
1MAIL0000064891BR23        BRG1        BRG1COCO    BRG1COCO13AG2018030200:00:00OR  01000005525789000552578964891                              2018030220180303Z016CIF201803030000000000003556NN0                                                  0
2MAIL0000064891BR23        BRG1        BRG1COCO    BRG1COCO13AG00000100000000001233114700000000000000100000000000000000000000001293Z01620180303X066000000
2MAIL0000064891BR23        BRG1        BRG1COCO    BRG1COCO13AG00000200000000001235356200000000000000100000000000000000000000002263Z01620180303X066000000
1MAIL0000064892BR23        BRG1        BRG1COCO    BRG1COCO13AG2018030200:00:00OR  01000005525789000552578964892                              2018030220180303Z016CIF201803030000000000053333NN0                                                  0
2MAIL0000064892BR23        BRG1        BRG1COCO    BRG1COCO13AG00000100000000001132019800000000000000100000000000000000000000002184Z01620180303X066005000
2MAIL0000064892BR23        BRG1        BRG1COCO    BRG1COCO13AG00000200000000001132020900000000000000100000000000000000000000002184Z01620180303X066005000
2MAIL0000064892BR23        BRG1        BRG1COCO    BRG1COCO13AG00000300000000001132036700000000000000100000000000000000000000001796Z01620180303X066007000
2MAIL0000064892BR23        BRG1        BRG1COCO    BRG1COCO13AG00000400000000001132200400000000000000200000000000000000000000003731Z01620180303X066000000
2MAIL0000064892BR23        BRG1        BRG1COCO    BRG1COCO13AG00000500000000001215533700000000000000100000000000000000000000001796Z01620180303X066007000
2MAIL0000064892BR23        BRG1        BRG1COCO    BRG1COCO13AG00000600000000001226089600000000000001200000000000000000000000004501Z01620180303X066000000
2MAIL0000064892BR23        BRG1        BRG1COCO    BRG1COCO13AG00000700000000001227735000000000000000100000000000000000000000002184Z01620180303X066005000
2MAIL0000064892BR23        BRG1        BRG1COCO    BRG1COCO13AG00000800000000001233098400000000000001400000000000000000000000005293Z01620180303X066004000
2MAIL0000064892BR23        BRG1        BRG1COCO    BRG1COCO13AG00000900000000001233099500000000000001400000000000000000000000005293Z01620180303X066004000
2MAIL0000064892BR23        BRG1        BRG1COCO    BRG1COCO13AG00001000000000001233154200000000000001400000000000000000000000005293Z01620180303X066004000
2MAIL0000064892BR23        BRG1        BRG1COCO    BRG1COCO13AG00001100000000001234705700000000000000100000000000000000000000004522Z01620180303X066005000
2MAIL0000064892BR23        BRG1        BRG1COCO    BRG1COCO13AG00001200000000001235699400000000000001000000000000000000000000003781Z01620180303X066004000
2MAIL0000064892BR23        BRG1        BRG1COCO    BRG1COCO13AG00001300000000001235699800000000000001000000000000000000000000003781Z01620180303X066004000
2MAIL0000064892BR23        BRG1        BRG1COCO    BRG1COCO13AG00001400000000001236512800000000000002000000000000000000000000003497Z01620180303X066000000
2MAIL0000064892BR23        BRG1        BRG1COCO    BRG1COCO13AG00001500000000001236514100000000000002000000000000000000000000003497Z01620180303X066000000
1MAIL0000064893BR23        BRG1        BRG1COCO    BRG1COCO13AG2018030200:00:00OR  01000005527903000552790364893                              2018030220180303Z016CIF201803030000000000007406NN0                                                  0
2MAIL0000064893BR23        BRG1        BRG1COCO    BRG1COCO13AG00000100000000001132020900000000000000100000000000000000000000002276Z01620180303X066005000
2MAIL0000064893BR23        BRG1        BRG1COCO    BRG1COCO13AG00000200000000001132033100000000000000100000000000000000000000001710Z01620180303X066015000
2MAIL0000064893BR23        BRG1        BRG1COCO    BRG1COCO13AG00000300000000001132036700000000000000100000000000000000000000001710Z01620180303X066015000
2MAIL0000064893BR23        BRG1        BRG1COCO    BRG1COCO13AG00000400000000001215533700000000000000100000000000000000000000001710Z01620180303X066015000
1MAIL0000064894BR23        BRG1        BRG1COCO    BRG1COCO13AG2018030200:00:00OR  01000005516568000551656864894                              2018030220180303Z016CIF201803030000000000005130NN0                                                  0
2MAIL0000064894BR23        BRG1        BRG1COCO    BRG1COCO13AG00000100000000001132033100000000000000100000000000000000000000001710Z01620180303X066015000
2MAIL0000064894BR23        BRG1        BRG1COCO    BRG1COCO13AG00000200000000001132036700000000000000200000000000000000000000003420Z01620180303X066015000
1MAIL0000064895BR23        BRG1        BRG1COCO    BRG1COCO13AG2018030200:00:00OR  01000004170390000417039064895                              2018030220180303Z016CIF201803030000000000090359NN0                                                  0
2MAIL0000064895BR23        BRG1        BRG1COCO    BRG1COCO13AG00000100000000001132030800000000000001200000000000000000000000034998Z01620180303X066015000
2MAIL0000064895BR23        BRG1        BRG1COCO    BRG1COCO13AG00000200000000001132033900000000000001200000000000000000000000038387Z01620180303X066015000
2MAIL0000064895BR23        BRG1        BRG1COCO    BRG1COCO13AG00000300000000001214448900000000000000200000000000000000000000011894Z01620180303X066018000
2MAIL0000064895BR23        BRG1        BRG1COCO    BRG1COCO13AG00000400000000001215533700000000000000100000000000000000000000001544Z01620180303X066007000
2MAIL0000064895BR23        BRG1        BRG1COCO    BRG1COCO13AG00000500000000001234705800000000000000100000000000000000000000003536Z01620180303X066005000
1MAIL0000064896BR23        BRG1        BRG1COCO    BRG1COCO13AG2018030200:00:00OR  01000005188287000518828764896                              2018030220180303Z016CIF201803030000000000024377NN0                                                  0
2MAIL0000064896BR23        BRG1        BRG1COCO    BRG1COCO13AG00000100000000001228100400000000000000200000000000000000000000004309Z01620180303X066018000
2MAIL0000064896BR23        BRG1        BRG1COCO    BRG1COCO13AG00000200000000001233081900000000000001400000000000000000000000005017Z01620180303X066009000
2MAIL0000064896BR23        BRG1        BRG1COCO    BRG1COCO13AG00000300000000001233098400000000000001400000000000000000000000005017Z01620180303X066009000
2MAIL0000064896BR23        BRG1        BRG1COCO    BRG1COCO13AG00000400000000001233098500000000000001400000000000000000000000005017Z01620180303X066009000
2MAIL0000064896BR23        BRG1        BRG1COCO    BRG1COCO13AG00000500000000001233154200000000000001400000000000000000000000005017Z01620180303X066009000
1MAIL0000064897BR23        BRG1        BRG1COCO    BRG1COCO13AG2018030200:00:00OR  01000002915507000291550764897                              2018030220180303Z859CIF201803030000000000010989NN0                                                  0
2MAIL0000064897BR23        BRG1        BRG1COCO    BRG1COCO13AG00000100000000001233114700000000000000400000000000000000000000005170Z85920180303X066000000
2MAIL0000064897BR23        BRG1        BRG1COCO    BRG1COCO13AG00000200000000001235737300000000000000200000000000000000000000005819Z85920180303X066000000
1MAIL0000064898BR23        BRG1        BRG1COCO    BRG1COCO13AG2018030200:00:00OR  01000004213242000421324264898                              2018030220180303Z859CIF201803030000000000004526NN0                                                  0
2MAIL0000064898BR23        BRG1        BRG1COCO    BRG1COCO13AG00000100000000001235356200000000000000200000000000000000000000004526Z85920180303X066000000
1MAIL0000064899BR23        BRG1        BRG1COCO    BRG1COCO13AG2018030200:00:00OR  01000004631026000463102664899                              2018030220180303Z016CIF201803030000000000019207NN0                                                  0
2MAIL0000064899BR23        BRG1        BRG1COCO    BRG1COCO13AG00000100000000001132019700000000000000100000000000000000000000002300Z01620180303X066000000
2MAIL0000064899BR23        BRG1        BRG1COCO    BRG1COCO13AG00000200000000001132019800000000000000100000000000000000000000002300Z01620180303X066000000
2MAIL0000064899BR23        BRG1        BRG1COCO    BRG1COCO13AG00000300000000001132020900000000000000100000000000000000000000002300Z01620180303X066000000
2MAIL0000064899BR23        BRG1        BRG1COCO    BRG1COCO13AG00000400000000001132033100000000000000100000000000000000000000001738Z01620180303X066010000
2MAIL0000064899BR23        BRG1        BRG1COCO    BRG1COCO13AG00000500000000001132036700000000000000200000000000000000000000003476Z01620180303X066010000
2MAIL0000064899BR23        BRG1        BRG1COCO    BRG1COCO13AG00000600000000001132200400000000000000200000000000000000000000003582Z01620180303X066004000
2MAIL0000064899BR23        BRG1        BRG1COCO    BRG1COCO13AG00000700000000001132400100000000000000100000000000000000000000003511Z01620180303X066000000
1MAIL0000064900BR23        BRG1        BRG1COCO    BRG1COCO13AG2018030200:00:00OR  01000004631026000463102664900                              2018030220180303Z859CIF201803030000000000010345NN0                                                  0
2MAIL0000064900BR23        BRG1        BRG1COCO    BRG1COCO13AG00000100000000001235356200000000000000200000000000000000000000004526Z85920180303X066000000
2MAIL0000064900BR23        BRG1        BRG1COCO    BRG1COCO13AG00000200000000001235737300000000000000200000000000000000000000005819Z85920180303X066000000
1MAIL0000064901BR23        BRG1        BRG1COCO    BRG1COCO13AG2018030200:00:00OR  01000002979963000297996364901                              2018030220180303Z016CIF201803030000000000075981NN0                                                  0
2MAIL0000064901BR23        BRG1        BRG1COCO    BRG1COCO13AG00000100000000001226089600000000000001200000000000000000000000004051Z01620180303X066010000
2MAIL0000064901BR23        BRG1        BRG1COCO    BRG1COCO13AG00000200000000001233081900000000000001400000000000000000000000004962Z01620180303X066010000
2MAIL0000064901BR23        BRG1        BRG1COCO    BRG1COCO13AG00000300000000001233098400000000000001400000000000000000000000004962Z01620180303X066010000
2MAIL0000064901BR23        BRG1        BRG1COCO    BRG1COCO13AG00000400000000001233098500000000000001400000000000000000000000004962Z01620180303X066010000
2MAIL0000064901BR23        BRG1        BRG1COCO    BRG1COCO13AG00000500000000001233098600000000000001400000000000000000000000004962Z01620180303X066010000
2MAIL0000064901BR23        BRG1        BRG1COCO    BRG1COCO13AG00000600000000001233098800000000000001400000000000000000000000004962Z01620180303X066010000
2MAIL0000064901BR23        BRG1        BRG1COCO    BRG1COCO13AG00000700000000001233099500000000000001400000000000000000000000004962Z01620180303X066010000
2MAIL0000064901BR23        BRG1        BRG1COCO    BRG1COCO13AG00000800000000001233114700000000000000600000000000000000000000007755Z01620180303X066000000
2MAIL0000064901BR23        BRG1        BRG1COCO    BRG1COCO13AG00000900000000001233154200000000000001400000000000000000000000004962Z01620180303X066010000
2MAIL0000064901BR23        BRG1        BRG1COCO    BRG1COCO13AG00001000000000001236512800000000000001000000000000000000000000001608Z01620180303X066008000
2MAIL0000064901BR23        BRG1        BRG1COCO    BRG1COCO13AG00001100000000001236512900000000000007000000000000000000000000011172Z01620180303X066005000
2MAIL0000064901BR23        BRG1        BRG1COCO    BRG1COCO13AG00001200000000001236514100000000000001000000000000000000000000001608Z01620180303X066008000
2MAIL0000064901BR23        BRG1        BRG1COCO    BRG1COCO13AG00001300000000001236515000000000000007000000000000000000000000011172Z01620180303X066005000
2MAIL0000064901BR23        BRG1        BRG1COCO    BRG1COCO13AG00001400000000001236528200000000000001000000000000000000000000003881Z01620180303X066010000
1MAIL0000064902BR23        BRG1        BRG1COCO    BRG1COCO13AG2018030200:00:00OR  01000003976158000397615864902                              2018030220180303Z016CIF201803030000000000048177NN0                                                  0
2MAIL0000064902BR23        BRG1        BRG1COCO    BRG1COCO13AG00000100000000001132019800000000000000100000000000000000000000002276Z01620180303X066005000
2MAIL0000064902BR23        BRG1        BRG1COCO    BRG1COCO13AG00000200000000001132020900000000000000100000000000000000000000002276Z01620180303X066005000
2MAIL0000064902BR23        BRG1        BRG1COCO    BRG1COCO13AG00000300000000001132033100000000000000500000000000000000000000008550Z01620180303X066015000
2MAIL0000064902BR23        BRG1        BRG1COCO    BRG1COCO13AG00000400000000001132036700000000000000500000000000000000000000008550Z01620180303X066015000
2MAIL0000064902BR23        BRG1        BRG1COCO    BRG1COCO13AG00000500000000001215533700000000000000500000000000000000000000008550Z01620180303X066015000
2MAIL0000064902BR23        BRG1        BRG1COCO    BRG1COCO13AG00000600000000001227395500000000000000500000000000000000000000008550Z01620180303X066015000
2MAIL0000064902BR23        BRG1        BRG1COCO    BRG1COCO13AG00000700000000001231389600000000000000200000000000000000000000003420Z01620180303X066015000
2MAIL0000064902BR23        BRG1        BRG1COCO    BRG1COCO13AG00000800000000001233114700000000000000200000000000000000000000002585Z01620180303X066000000
2MAIL0000064902BR23        BRG1        BRG1COCO    BRG1COCO13AG00000900000000001233695100000000000000200000000000000000000000003420Z01620180303X066015000
1MAIL0000064903BR23        BRG1        BRG1COCO    BRG1COCO13AG2018030200:00:00OR  01000004272310000427231064903                              2018030220180303Z016CIF201803030000000000035555NN0                                                  0
2MAIL0000064903BR23        BRG1        BRG1COCO    BRG1COCO13AG00000100000000001233081900000000000002800000000000000000000000010343Z01620180303X066010000
2MAIL0000064903BR23        BRG1        BRG1COCO    BRG1COCO13AG00000200000000001233098400000000000002800000000000000000000000010343Z01620180303X066010000
2MAIL0000064903BR23        BRG1        BRG1COCO    BRG1COCO13AG00000300000000001233098600000000000002800000000000000000000000010343Z01620180303X066010000
2MAIL0000064903BR23        BRG1        BRG1COCO    BRG1COCO13AG00000400000000001235356200000000000000200000000000000000000000004526Z01620180303X066000000
1MAIL0000064904BR23        BRG1        BRG1COCO    BRG1COCO13AG2018030200:00:00OR  01000004059103000405910364904                              2018030220180303Z016CIF201803030000000000076605NN0                                                  0
2MAIL0000064904BR23        BRG1        BRG1COCO    BRG1COCO13AG00000100000000001233114700000000000001500000000000000000000000019388Z01620180303X066000000
2MAIL0000064904BR23        BRG1        BRG1COCO    BRG1COCO13AG00000200000000001235356200000000000001500000000000000000000000033941Z01620180303X066000000
2MAIL0000064904BR23        BRG1        BRG1COCO    BRG1COCO13AG00000300000000001235737300000000000000800000000000000000000000023276Z01620180303X066000000
1MAIL0000064905BR23        BRG1        BRG1COCO    BRG1COCO13AG2018030200:00:00OR  01000004059103000405910364905                              2018030220180303Z016CIF201803030000000000072261NN0                                                  0
2MAIL0000064905BR23        BRG1        BRG1COCO    BRG1COCO13AG00000100000000001132018300000000000000100000000000000000000000003598Z01620180303X066025000
2MAIL0000064905BR23        BRG1        BRG1COCO    BRG1COCO13AG00000200000000001132033100000000000000200000000000000000000000003420Z01620180303X066015000
2MAIL0000064905BR23        BRG1        BRG1COCO    BRG1COCO13AG00000300000000001132036700000000000000200000000000000000000000003420Z01620180303X066015000
2MAIL0000064905BR23        BRG1        BRG1COCO    BRG1COCO13AG00000400000000001215533700000000000000200000000000000000000000003420Z01620180303X066015000
2MAIL0000064905BR23        BRG1        BRG1COCO    BRG1COCO13AG00000500000000001221415400000000000000100000000000000000000000003598Z01620180303X066025000
2MAIL0000064905BR23        BRG1        BRG1COCO    BRG1COCO13AG00000600000000001227395500000000000000200000000000000000000000003420Z01620180303X066015000
2MAIL0000064905BR23        BRG1        BRG1COCO    BRG1COCO13AG00000700000000001228090100000000000003000000000000000000000000022296Z01620180303X066004920
2MAIL0000064905BR23        BRG1        BRG1COCO    BRG1COCO13AG00000800000000001228100400000000000000300000000000000000000000006736Z01620180303X066018000
2MAIL0000064905BR23        BRG1        BRG1COCO    BRG1COCO13AG00000900000000001231389600000000000000200000000000000000000000003420Z01620180303X066015000
2MAIL0000064905BR23        BRG1        BRG1COCO    BRG1COCO13AG00001000000000001233081900000000000001400000000000000000000000005171Z01620180303X066010000
2MAIL0000064905BR23        BRG1        BRG1COCO    BRG1COCO13AG00001100000000001233098400000000000001400000000000000000000000005171Z01620180303X066010000
2MAIL0000064905BR23        BRG1        BRG1COCO    BRG1COCO13AG00001200000000001233098500000000000001400000000000000000000000005171Z01620180303X066010000
2MAIL0000064905BR23        BRG1        BRG1COCO    BRG1COCO13AG00001300000000001233695100000000000000200000000000000000000000003420Z01620180303X066015000
1MAIL0000064906BR23        BRG1        BRG1COCO    BRG1COCO13AG2018030200:00:00OR  01000005511161000551116164906                              2018030220180303Z016CIF201803030000000000006608NN0                                                  0
2MAIL0000064906BR23        BRG1        BRG1COCO    BRG1COCO13AG00000100000000001132036700000000000000100000000000000000000000001641Z01620180303X066015000
2MAIL0000064906BR23        BRG1        BRG1COCO    BRG1COCO13AG00000200000000001233098500000000000001400000000000000000000000004967Z01620180303X066009920
1MAIL0000064907BR23        BRG1        BRG1COCO    BRG1COCO13AG2018030200:00:00OR  01000004981376000498137664907                              2018030220180303Z016CIF201803030000000000025996NN0                                                  0
2MAIL0000064907BR23        BRG1        BRG1COCO    BRG1COCO13AG00000100000000001132200400000000000000700000000000000000000000012948Z01620180303X066004850
2MAIL0000064907BR23        BRG1        BRG1COCO    BRG1COCO13AG00000200000000001227395500000000000000100000000000000000000000001710Z01620180303X066015000
2MAIL0000064907BR23        BRG1        BRG1COCO    BRG1COCO13AG00000300000000001228090100000000000000500000000000000000000000003718Z01620180303X066004860
2MAIL0000064907BR23        BRG1        BRG1COCO    BRG1COCO13AG00000400000000001231389600000000000000100000000000000000000000001710Z01620180303X066015000
2MAIL0000064907BR23        BRG1        BRG1COCO    BRG1COCO13AG00000500000000001233426800000000000000500000000000000000000000001950Z01620180303X066004940
2MAIL0000064907BR23        BRG1        BRG1COCO    BRG1COCO13AG00000600000000001236512800000000000000500000000000000000000000000902Z01620180303X066000000
2MAIL0000064907BR23        BRG1        BRG1COCO    BRG1COCO13AG00000700000000001236514100000000000000500000000000000000000000000902Z01620180303X066000000
2MAIL0000064907BR23        BRG1        BRG1COCO    BRG1COCO13AG00000800000000001236528200000000000000500000000000000000000000002156Z01620180303X066000000
1MAIL0000064908BR23        BRG1        BRG1COCO    BRG1COCO13AG2018030200:00:00OR  01000005517102000551710264908                              2018030220180303Z016CIF201803030000000000022887NN0                                                  0
2MAIL0000064908BR23        BRG1        BRG1COCO    BRG1COCO13AG00000100000000001132033100000000000000100000000000000000000000001641Z01620180303X066015000
2MAIL0000064908BR23        BRG1        BRG1COCO    BRG1COCO13AG00000200000000001132036700000000000000100000000000000000000000001641Z01620180303X066015000
2MAIL0000064908BR23        BRG1        BRG1COCO    BRG1COCO13AG00000300000000001215533700000000000000100000000000000000000000001641Z01620180303X066015000
2MAIL0000064908BR23        BRG1        BRG1COCO    BRG1COCO13AG00000400000000001228090100000000000002000000000000000000000000014262Z01620180303X066004940
2MAIL0000064908BR23        BRG1        BRG1COCO    BRG1COCO13AG00000500000000001235699800000000000001000000000000000000000000003702Z01620180303X066006000
1MAIL0000064909BR23        BRG1        BRG1COCO    BRG1COCO13AG2018030200:00:00OR  01000005381086000538108664909                              2018030220180303Z016CIF201803030000000000006796NN0                                                  0
2MAIL0000064909BR23        BRG1        BRG1COCO    BRG1COCO13AG00000100000000001132036700000000000000300000000000000000000000005097Z01620180303X066012000
2MAIL0000064909BR23        BRG1        BRG1COCO    BRG1COCO13AG00000200000000001215533700000000000000100000000000000000000000001699Z01620180303X066012000
1MAIL0000064910BR23        BRG1        BRG1COCO    BRG1COCO13AG2018030200:00:00OR  01000002904572000290457264910                              2018030220180303Z859CIF201803030000000000104085NN0                                                  0
2MAIL0000064910BR23        BRG1        BRG1COCO    BRG1COCO13AG00000100000000001233114700000000000001000000000000000000000000012926Z85920180303X066000000
2MAIL0000064910BR23        BRG1        BRG1COCO    BRG1COCO13AG00000200000000001235356200000000000003000000000000000000000000067883Z85920180303X066000000
2MAIL0000064910BR23        BRG1        BRG1COCO    BRG1COCO13AG00000300000000001235737300000000000000800000000000000000000000023276Z85920180303X066000000
1MAIL0000064911BR23        BRG1        BRG1COCO    BRG1COCO13AG2018030200:00:00OR  01000002904572000290457264911                              2018030220180303Z016CIF201803030000000000115440NN0                                                  0
2MAIL0000064911BR23        BRG1        BRG1COCO    BRG1COCO13AG00000100000000001132019700000000000000100000000000000000000000002184Z01620180303X066005000
2MAIL0000064911BR23        BRG1        BRG1COCO    BRG1COCO13AG00000200000000001132033100000000000000400000000000000000000000006565Z01620180303X066015000
2MAIL0000064911BR23        BRG1        BRG1COCO    BRG1COCO13AG00000300000000001132036700000000000000600000000000000000000000009846Z01620180303X066015000
2MAIL0000064911BR23        BRG1        BRG1COCO    BRG1COCO13AG00000400000000001132400100000000000000100000000000000000000000003336Z01620180303X066005000
2MAIL0000064911BR23        BRG1        BRG1COCO    BRG1COCO13AG00000500000000001215533700000000000000400000000000000000000000006565Z01620180303X066015000
2MAIL0000064911BR23        BRG1        BRG1COCO    BRG1COCO13AG00000600000000001224882700000000000000100000000000000000000000002855Z01620180303X066005000
2MAIL0000064911BR23        BRG1        BRG1COCO    BRG1COCO13AG00000700000000001226089600000000000001200000000000000000000000004096Z01620180303X066009000
2MAIL0000064911BR23        BRG1        BRG1COCO    BRG1COCO13AG00000800000000001227395500000000000000200000000000000000000000003281Z01620180303X066015000
2MAIL0000064911BR23        BRG1        BRG1COCO    BRG1COCO13AG00000900000000001228090100000000000006000000000000000000000000042778Z01620180303X066004960
2MAIL0000064911BR23        BRG1        BRG1COCO    BRG1COCO13AG00001000000000001228134700000000000000100000000000000000000000002855Z01620180303X066005000
2MAIL0000064911BR23        BRG1        BRG1COCO    BRG1COCO13AG00001100000000001231389600000000000000200000000000000000000000003281Z01620180303X066015000
2MAIL0000064911BR23        BRG1        BRG1COCO    BRG1COCO13AG00001200000000001233098400000000000001400000000000000000000000005017Z01620180303X066009000
2MAIL0000064911BR23        BRG1        BRG1COCO    BRG1COCO13AG00001300000000001233099500000000000001400000000000000000000000005017Z01620180303X066009000
2MAIL0000064911BR23        BRG1        BRG1COCO    BRG1COCO13AG00001400000000001233154200000000000001400000000000000000000000005017Z01620180303X066009000
2MAIL0000064911BR23        BRG1        BRG1COCO    BRG1COCO13AG00001500000000001233695100000000000000100000000000000000000000001641Z01620180303X066015000
2MAIL0000064911BR23        BRG1        BRG1COCO    BRG1COCO13AG00001600000000001235699400000000000001000000000000000000000000003702Z01620180303X066006000
2MAIL0000064911BR23        BRG1        BRG1COCO    BRG1COCO13AG00001700000000001235699700000000000001000000000000000000000000003702Z01620180303X066006000
2MAIL0000064911BR23        BRG1        BRG1COCO    BRG1COCO13AG00001800000000001235699800000000000001000000000000000000000000003702Z01620180303X066006000
1MAIL0000064912BR23        BRG1        BRG1COCO    BRG1COCO13AG2018030200:00:00OR  01000004249064000424906464912                              2018030220180303Z016CIF201803030000000000059427NN0                                                  0
2MAIL0000064912BR23        BRG1        BRG1COCO    BRG1COCO13AG00000100000000001132019700000000000000100000000000000000000000002253Z01620180303X066002000
2MAIL0000064912BR23        BRG1        BRG1COCO    BRG1COCO13AG00000200000000001132213000000000000000100000000000000000000000003808Z01620180303X066004000
2MAIL0000064912BR23        BRG1        BRG1COCO    BRG1COCO13AG00000300000000001132213100000000000000100000000000000000000000003808Z01620180303X066004000
2MAIL0000064912BR23        BRG1        BRG1COCO    BRG1COCO13AG00000400000000001132400100000000000000200000000000000000000000006672Z01620180303X066005000
2MAIL0000064912BR23        BRG1        BRG1COCO    BRG1COCO13AG00000500000000001223975300000000000000200000000000000000000000009046Z01620180303X066005000
2MAIL0000064912BR23        BRG1        BRG1COCO    BRG1COCO13AG00000600000000001227735000000000000000100000000000000000000000002184Z01620180303X066005000
2MAIL0000064912BR23        BRG1        BRG1COCO    BRG1COCO13AG00000700000000001228274000000000000000200000000000000000000000009046Z01620180303X066005000
2MAIL0000064912BR23        BRG1        BRG1COCO    BRG1COCO13AG00000800000000001228512700000000000000100000000000000000000000004522Z01620180303X066005000
2MAIL0000064912BR23        BRG1        BRG1COCO    BRG1COCO13AG00000900000000001231189200000000000000100000000000000000000000004522Z01620180303X066005000
2MAIL0000064912BR23        BRG1        BRG1COCO    BRG1COCO13AG00001000000000001231231200000000000000100000000000000000000000004522Z01620180303X066005000
2MAIL0000064912BR23        BRG1        BRG1COCO    BRG1COCO13AG00001100000000001234705700000000000000100000000000000000000000004522Z01620180303X066005000
2MAIL0000064912BR23        BRG1        BRG1COCO    BRG1COCO13AG00001200000000001234705800000000000000100000000000000000000000004522Z01620180303X066005000
1MAIL0000064913BR23        BRG1        BRG1COCO    BRG1COCO13AG2018030200:00:00OR  01000004713162000471316264913                              2018030220180303Z016CIF201803030000000000058365NN0                                                  0
2MAIL0000064913BR23        BRG1        BRG1COCO    BRG1COCO13AG00000100000000001228090100000000000009000000000000000000000000058365Z01620180303X066004900
1MAIL0000064914BR23        BRG1        BRG1COCO    BRG1COCO13AG2018030200:00:00OR  01000003486737000348673764914                              2018030220180303Z859CIF201803030000000000017455NN0                                                  0
2MAIL0000064914BR23        BRG1        BRG1COCO    BRG1COCO13AG00000100000000001233114700000000000000200000000000000000000000002585Z85920180303X066000000
2MAIL0000064914BR23        BRG1        BRG1COCO    BRG1COCO13AG00000200000000001235356200000000000000400000000000000000000000009051Z85920180303X066000000
2MAIL0000064914BR23        BRG1        BRG1COCO    BRG1COCO13AG00000300000000001235737300000000000000200000000000000000000000005819Z85920180303X066000000
1MAIL0000064915BR23        BRG1        BRG1COCO    BRG1COCO13AG2018030200:00:00OR  01000004172794000417279464915                              2018030220180303Z016CIF201803030000000000076439NN0                                                  0
2MAIL0000064915BR23        BRG1        BRG1COCO    BRG1COCO13AG00000100000000001223975300000000000000300000000000000000000000014138Z01620180303X066005000
2MAIL0000064915BR23        BRG1        BRG1COCO    BRG1COCO13AG00000200000000001228100400000000000001000000000000000000000000022452Z01620180303X066018000
2MAIL0000064915BR23        BRG1        BRG1COCO    BRG1COCO13AG00000300000000001231189200000000000000300000000000000000000000014138Z01620180303X066005000
2MAIL0000064915BR23        BRG1        BRG1COCO    BRG1COCO13AG00000400000000001231231200000000000000300000000000000000000000014138Z01620180303X066005000
2MAIL0000064915BR23        BRG1        BRG1COCO    BRG1COCO13AG00000500000000001235699800000000000003000000000000000000000000011573Z01620180303X066006000
1MAIL0000064916BR23        BRG1        BRG1COCO    BRG1COCO13AG2018030200:00:00OR  01000003483123000348312364916                              2018030220180303Z016CIF201803030000000000016637NN0                                                  0
2MAIL0000064916BR23        BRG1        BRG1COCO    BRG1COCO13AG00000100000000001132033100000000000000300000000000000000000000004923Z01620180303X066015000
2MAIL0000064916BR23        BRG1        BRG1COCO    BRG1COCO13AG00000200000000001132036700000000000000400000000000000000000000006566Z01620180303X066015000
2MAIL0000064916BR23        BRG1        BRG1COCO    BRG1COCO13AG00000300000000001132200400000000000000100000000000000000000000001866Z01620180303X066000000
2MAIL0000064916BR23        BRG1        BRG1COCO    BRG1COCO13AG00000400000000001215533700000000000000200000000000000000000000003282Z01620180303X066015000
1MAIL0000064917BR23        BRG1        BRG1COCO    BRG1COCO13AG2018030200:00:00OR  01000003894727000389472764917                              2018030220180303Z859CIF201803030000000000033941NN0                                                  0
2MAIL0000064917BR23        BRG1        BRG1COCO    BRG1COCO13AG00000100000000001235356200000000000001500000000000000000000000033941Z85920180303X066000000
1MAIL0000064918BR23        BRG1        BRG1COCO    BRG1COCO13AG2018030200:00:00OR  01000002916849000291684964918                              2018030220180303Z016CIF201803030000000000018603NN0                                                  0
2MAIL0000064918BR23        BRG1        BRG1COCO    BRG1COCO13AG00000100000000001233081900000000000001400000000000000000000000004967Z01620180303X066009920
2MAIL0000064918BR23        BRG1        BRG1COCO    BRG1COCO13AG00000200000000001233098600000000000001400000000000000000000000004967Z01620180303X066009920
2MAIL0000064918BR23        BRG1        BRG1COCO    BRG1COCO13AG00000300000000001233099500000000000001400000000000000000000000004967Z01620180303X066009920
2MAIL0000064918BR23        BRG1        BRG1COCO    BRG1COCO13AG00000400000000001235699800000000000001000000000000000000000000003702Z01620180303X066006000
1MAIL0000064919BR23        BRG1        BRG1COCO    BRG1COCO13AG2018030200:00:00OR  01000002863526000286352664919                              2018030220180303Z016CIF201803030000000000042299NN0                                                  0
2MAIL0000064919BR23        BRG1        BRG1COCO    BRG1COCO13AG00000100000000001132018300000000000000200000000000000000000000007197Z01620180303X066025000
2MAIL0000064919BR23        BRG1        BRG1COCO    BRG1COCO13AG00000200000000001132019900000000000000100000000000000000000000002184Z01620180303X066005000
2MAIL0000064919BR23        BRG1        BRG1COCO    BRG1COCO13AG00000300000000001132020900000000000000100000000000000000000000002184Z01620180303X066005000
2MAIL0000064919BR23        BRG1        BRG1COCO    BRG1COCO13AG00000400000000001132033100000000000000200000000000000000000000003282Z01620180303X066015000
2MAIL0000064919BR23        BRG1        BRG1COCO    BRG1COCO13AG00000500000000001132200400000000000000200000000000000000000000003550Z01620180303X066004850
2MAIL0000064919BR23        BRG1        BRG1COCO    BRG1COCO13AG00000600000000001215533700000000000000200000000000000000000000003282Z01620180303X066015000
2MAIL0000064919BR23        BRG1        BRG1COCO    BRG1COCO13AG00000700000000001221415400000000000000200000000000000000000000007197Z01620180303X066025000
2MAIL0000064919BR23        BRG1        BRG1COCO    BRG1COCO13AG00000800000000001227395500000000000000200000000000000000000000003282Z01620180303X066015000
2MAIL0000064919BR23        BRG1        BRG1COCO    BRG1COCO13AG00000900000000001227735000000000000000100000000000000000000000002184Z01620180303X066005000
2MAIL0000064919BR23        BRG1        BRG1COCO    BRG1COCO13AG00001000000000001231389600000000000000200000000000000000000000003282Z01620180303X066015000
2MAIL0000064919BR23        BRG1        BRG1COCO    BRG1COCO13AG00001100000000001233098800000000000001400000000000000000000000004675Z01620180303X066006750
