1MAIL0000066020BR23        BRG1        BRG1COCO    BRG1COCO13AG2018030800:00:00OR  01000004826243000482624366020                              2018030820180310Z859CIF201803100000000000013577NN0                                                  0
2MAIL0000066020BR23        BRG1        BRG1COCO    BRG1COCO13AG00000100000000001235356200000000000000600000000000000000000000013577Z85920180310X066000000
1MAIL0000066021BR23        BRG1        BRG1COCO    BRG1COCO13AG2018030800:00:00OR  01000005451169000545116966021                              2018030820180310Z859CIF201803100000000000013577NN0                                                  0
2MAIL0000066021BR23        BRG1        BRG1COCO    BRG1COCO13AG00000100000000001235356200000000000000600000000000000000000000013577Z85920180310X066000000
1MAIL0000066022BR23        BRG1        BRG1COCO    BRG1COCO13AG2018030800:00:00OR  01000004559359000455935966022                              2018030820180310Z016CIF201803100000000000042778NN0                                                  0
2MAIL0000066022BR23        BRG1        BRG1COCO    BRG1COCO13AG00000100000000001228090100000000000006000000000000000000000000042778Z01620180310X066004960
1MAIL0000066023BR23        BRG1        BRG1COCO    BRG1COCO13AG2018030800:00:00OR  01000004239293000423929366023                              2018030820180310ZG05CIF201803100000000000013577NN0                                                  0
2MAIL0000066023BR23        BRG1        BRG1COCO    BRG1COCO13AG00000100000000001235356200000000000000600000000000000000000000013577ZG0520180310X066000000
1MAIL0000066024BR23        BRG1        BRG1COCO    BRG1COCO13AG2018030800:00:00OR  01000002933330000293333066024                              2018030820180310Z016CIF201803100000000000367367NN0                                                  0
2MAIL0000066024BR23        BRG1        BRG1COCO    BRG1COCO13AG00000100000000001132004000000000000002000000000000000000000000014967Z01620180310X066005000
2MAIL0000066024BR23        BRG1        BRG1COCO    BRG1COCO13AG00000200000000001132004200000000000001500000000000000000000000017057Z01620180310X066005000
2MAIL0000066024BR23        BRG1        BRG1COCO    BRG1COCO13AG00000300000000001132019700000000000000100000000000000000000000002184Z01620180310X066005000
2MAIL0000066024BR23        BRG1        BRG1COCO    BRG1COCO13AG00000400000000001132019800000000000000200000000000000000000000004369Z01620180310X066005000
2MAIL0000066024BR23        BRG1        BRG1COCO    BRG1COCO13AG00000500000000001132019900000000000000100000000000000000000000002184Z01620180310X066005000
2MAIL0000066024BR23        BRG1        BRG1COCO    BRG1COCO13AG00000600000000001132020900000000000000100000000000000000000000002184Z01620180310X066005000
2MAIL0000066024BR23        BRG1        BRG1COCO    BRG1COCO13AG00000700000000001132030800000000000001200000000000000000000000037338Z01620180310X066018000
2MAIL0000066024BR23        BRG1        BRG1COCO    BRG1COCO13AG00000800000000001132033100000000000000800000000000000000000000013131Z01620180310X066015000
2MAIL0000066024BR23        BRG1        BRG1COCO    BRG1COCO13AG00000900000000001132034900000000000001500000000000000000000000021018Z01620180310X066015000
2MAIL0000066024BR23        BRG1        BRG1COCO    BRG1COCO13AG00001000000000001132035100000000000001000000000000000000000000014784Z01620180310X066015000
2MAIL0000066024BR23        BRG1        BRG1COCO    BRG1COCO13AG00001100000000001132036700000000000001000000000000000000000000016414Z01620180310X066015000
2MAIL0000066024BR23        BRG1        BRG1COCO    BRG1COCO13AG00001200000000001132200400000000000001500000000000000000000000026629Z01620180310X066004850
2MAIL0000066024BR23        BRG1        BRG1COCO    BRG1COCO13AG00001300000000001132213000000000000001000000000000000000000000034276Z01620180310X066004950
2MAIL0000066024BR23        BRG1        BRG1COCO    BRG1COCO13AG00001400000000001132213100000000000000800000000000000000000000027421Z01620180310X066004950
2MAIL0000066024BR23        BRG1        BRG1COCO    BRG1COCO13AG00001500000000001221415400000000000000200000000000000000000000007197Z01620180310X066025000
2MAIL0000066024BR23        BRG1        BRG1COCO    BRG1COCO13AG00001600000000001223975300000000000000400000000000000000000000016447Z01620180310X066005000
2MAIL0000066024BR23        BRG1        BRG1COCO    BRG1COCO13AG00001700000000001227395500000000000000600000000000000000000000009849Z01620180310X066015000
2MAIL0000066024BR23        BRG1        BRG1COCO    BRG1COCO13AG00001800000000001227735000000000000000200000000000000000000000004369Z01620180310X066005000
2MAIL0000066024BR23        BRG1        BRG1COCO    BRG1COCO13AG00001900000000001228274000000000000000200000000000000000000000008224Z01620180310X066005000
2MAIL0000066024BR23        BRG1        BRG1COCO    BRG1COCO13AG00002000000000001228512700000000000000200000000000000000000000008224Z01620180310X066005000
2MAIL0000066024BR23        BRG1        BRG1COCO    BRG1COCO13AG00002100000000001231231200000000000000400000000000000000000000016447Z01620180310X066005000
2MAIL0000066024BR23        BRG1        BRG1COCO    BRG1COCO13AG00002200000000001231389600000000000000400000000000000000000000006566Z01620180310X066015000
2MAIL0000066024BR23        BRG1        BRG1COCO    BRG1COCO13AG00002300000000001233081900000000000002800000000000000000000000009348Z01620180310X066006750
2MAIL0000066024BR23        BRG1        BRG1COCO    BRG1COCO13AG00002400000000001233098400000000000002800000000000000000000000009348Z01620180310X066006750
2MAIL0000066024BR23        BRG1        BRG1COCO    BRG1COCO13AG00002500000000001233098500000000000002800000000000000000000000009348Z01620180310X066006750
2MAIL0000066024BR23        BRG1        BRG1COCO    BRG1COCO13AG00002600000000001233098600000000000004200000000000000000000000014022Z01620180310X066006750
2MAIL0000066024BR23        BRG1        BRG1COCO    BRG1COCO13AG00002700000000001233154200000000000004200000000000000000000000014022Z01620180310X066006750
