1MAIL0000065075BR23        BRG1        BRG1COCO    BRG1COCO13AG2018030500:00:00OR  01000005516114000551611465075                              2018030520180310Z016CIF201803100000000000030340NN0                                                  0
2MAIL0000065075BR23        BRG1        BRG1COCO    BRG1COCO13AG00000100000000001132036700000000000000100000000000000000000000001641Z01620180310X066015000
2MAIL0000065075BR23        BRG1        BRG1COCO    BRG1COCO13AG00000200000000001132200400000000000000100000000000000000000000001775Z01620180310X066004850
2MAIL0000065075BR23        BRG1        BRG1COCO    BRG1COCO13AG00000300000000001228100400000000000000200000000000000000000000004309Z01620180310X066018000
2MAIL0000065075BR23        BRG1        BRG1COCO    BRG1COCO13AG00000400000000001231231200000000000000100000000000000000000000004522Z01620180310X066005000
2MAIL0000065075BR23        BRG1        BRG1COCO    BRG1COCO13AG00000500000000001233081900000000000001400000000000000000000000004967Z01620180310X066009920
2MAIL0000065075BR23        BRG1        BRG1COCO    BRG1COCO13AG00000600000000001233098400000000000001400000000000000000000000004967Z01620180310X066009920
2MAIL0000065075BR23        BRG1        BRG1COCO    BRG1COCO13AG00000700000000001233154200000000000001400000000000000000000000004967Z01620180310X066009920
2MAIL0000065075BR23        BRG1        BRG1COCO    BRG1COCO13AG00000800000000001236512900000000000001000000000000000000000000001596Z01620180310X066005000
2MAIL0000065075BR23        BRG1        BRG1COCO    BRG1COCO13AG00000900000000001236515000000000000001000000000000000000000000001596Z01620180310X066005000
1MAIL0000065076BR23        BRG1        BRG1COCO    BRG1COCO13AG2018030500:00:00OR  01000004681492000468149265076                              2018030520180310Z016CIF201803100000000000054637NN0                                                  0
2MAIL0000065076BR23        BRG1        BRG1COCO    BRG1COCO13AG00000100000000001132033100000000000000200000000000000000000000003281Z01620180310X066015000
2MAIL0000065076BR23        BRG1        BRG1COCO    BRG1COCO13AG00000200000000001132036700000000000000400000000000000000000000006565Z01620180310X066015000
2MAIL0000065076BR23        BRG1        BRG1COCO    BRG1COCO13AG00000300000000001132200400000000000000100000000000000000000000001775Z01620180310X066004850
2MAIL0000065076BR23        BRG1        BRG1COCO    BRG1COCO13AG00000400000000001132400100000000000000500000000000000000000000016678Z01620180310X066005000
2MAIL0000065076BR23        BRG1        BRG1COCO    BRG1COCO13AG00000500000000001215533700000000000000200000000000000000000000003281Z01620180310X066015000
2MAIL0000065076BR23        BRG1        BRG1COCO    BRG1COCO13AG00000600000000001231231200000000000000200000000000000000000000009046Z01620180310X066005000
2MAIL0000065076BR23        BRG1        BRG1COCO    BRG1COCO13AG00000700000000001233154200000000000001400000000000000000000000004967Z01620180310X066009920
2MAIL0000065076BR23        BRG1        BRG1COCO    BRG1COCO13AG00000800000000001234705700000000000000100000000000000000000000004522Z01620180310X066005000
2MAIL0000065076BR23        BRG1        BRG1COCO    BRG1COCO13AG00000900000000001234705800000000000000100000000000000000000000004522Z01620180310X066005000
1MAIL0000065077BR23        BRG1        BRG1COCO    BRG1COCO13AG2018030500:00:00OR  01000004122751000412275165077                              2018030520180310Z016CIF201803100000000000015970NN0                                                  0
2MAIL0000065077BR23        BRG1        BRG1COCO    BRG1COCO13AG00000100000000001132019900000000000000100000000000000000000000002185Z01620180310X066004960
2MAIL0000065077BR23        BRG1        BRG1COCO    BRG1COCO13AG00000200000000001132033100000000000000100000000000000000000000001641Z01620180310X066015000
2MAIL0000065077BR23        BRG1        BRG1COCO    BRG1COCO13AG00000300000000001132036700000000000000100000000000000000000000001641Z01620180310X066015000
2MAIL0000065077BR23        BRG1        BRG1COCO    BRG1COCO13AG00000400000000001215533700000000000000100000000000000000000000001641Z01620180310X066015000
2MAIL0000065077BR23        BRG1        BRG1COCO    BRG1COCO13AG00000500000000001227395500000000000000100000000000000000000000001641Z01620180310X066015000
2MAIL0000065077BR23        BRG1        BRG1COCO    BRG1COCO13AG00000600000000001231389600000000000000100000000000000000000000001641Z01620180310X066015000
2MAIL0000065077BR23        BRG1        BRG1COCO    BRG1COCO13AG00000700000000001233695100000000000000100000000000000000000000001641Z01620180310X066015000
2MAIL0000065077BR23        BRG1        BRG1COCO    BRG1COCO13AG00000800000000001235699800000000000001000000000000000000000000003939Z01620180310X066000000
1MAIL0000065078BR23        BRG1        BRG1COCO    BRG1COCO13AG2018030500:00:00OR  01000005497193000549719365078                              2018030520180310Z016CIF201803100000000000048831NN0                                                  0
2MAIL0000065078BR23        BRG1        BRG1COCO    BRG1COCO13AG00000100000000001132018300000000000000200000000000000000000000009619Z01620180310X066000000
2MAIL0000065078BR23        BRG1        BRG1COCO    BRG1COCO13AG00000200000000001132019700000000000000100000000000000000000000002260Z01620180310X066000000
2MAIL0000065078BR23        BRG1        BRG1COCO    BRG1COCO13AG00000300000000001132019800000000000000100000000000000000000000002260Z01620180310X066000000
2MAIL0000065078BR23        BRG1        BRG1COCO    BRG1COCO13AG00000400000000001132019900000000000000100000000000000000000000002260Z01620180310X066000000
2MAIL0000065078BR23        BRG1        BRG1COCO    BRG1COCO13AG00000500000000001132020900000000000000100000000000000000000000002260Z01620180310X066000000
2MAIL0000065078BR23        BRG1        BRG1COCO    BRG1COCO13AG00000600000000001132033100000000000000200000000000000000000000003795Z01620180310X066000000
2MAIL0000065078BR23        BRG1        BRG1COCO    BRG1COCO13AG00000700000000001132036700000000000000200000000000000000000000003795Z01620180310X066000000
2MAIL0000065078BR23        BRG1        BRG1COCO    BRG1COCO13AG00000800000000001132200400000000000000200000000000000000000000003668Z01620180310X066000000
2MAIL0000065078BR23        BRG1        BRG1COCO    BRG1COCO13AG00000900000000001215533700000000000000200000000000000000000000003795Z01620180310X066000000
2MAIL0000065078BR23        BRG1        BRG1COCO    BRG1COCO13AG00001000000000001221415400000000000000100000000000000000000000004809Z01620180310X066000000
2MAIL0000065078BR23        BRG1        BRG1COCO    BRG1COCO13AG00001100000000001227735000000000000000100000000000000000000000002260Z01620180310X066000000
2MAIL0000065078BR23        BRG1        BRG1COCO    BRG1COCO13AG00001200000000001231231200000000000000100000000000000000000000004255Z01620180310X066000000
2MAIL0000065078BR23        BRG1        BRG1COCO    BRG1COCO13AG00001300000000001231389600000000000000200000000000000000000000003795Z01620180310X066000000
1MAIL0000065079BR23        BRG1        BRG1COCO    BRG1COCO13AG2018030500:00:00OR  01000004758774000475877465079                              2018030520180310Z859CIF201803100000000000057217NN0                                                  0
2MAIL0000065079BR23        BRG1        BRG1COCO    BRG1COCO13AG00000100000000001235356200000000000001500000000000000000000000033941Z85920180310X066000000
2MAIL0000065079BR23        BRG1        BRG1COCO    BRG1COCO13AG00000200000000001235737300000000000000800000000000000000000000023276Z85920180310X066000000
1MAIL0000065080BR23        BRG1        BRG1COCO    BRG1COCO13AG2018030500:00:00OR  01000004559133000455913365080                              2018030520180310Z859CIF201803100000000000057217NN0                                                  0
2MAIL0000065080BR23        BRG1        BRG1COCO    BRG1COCO13AG00000100000000001235356200000000000001500000000000000000000000033941Z85920180310X066000000
2MAIL0000065080BR23        BRG1        BRG1COCO    BRG1COCO13AG00000200000000001235737300000000000000800000000000000000000000023276Z85920180310X066000000
1MAIL0000065081BR23        BRG1        BRG1COCO    BRG1COCO13AG2018030500:00:00OR  01000004436567000443656765081                              2018030520180310Z859CIF201803100000000000057217NN0                                                  0
2MAIL0000065081BR23        BRG1        BRG1COCO    BRG1COCO13AG00000100000000001235356200000000000001500000000000000000000000033941Z85920180310X066000000
2MAIL0000065081BR23        BRG1        BRG1COCO    BRG1COCO13AG00000200000000001235737300000000000000800000000000000000000000023276Z85920180310X066000000
1MAIL0000065082BR23        BRG1        BRG1COCO    BRG1COCO13AG2018030500:00:00OR  01000004396550000439655065082                              2018030520180310Z859CIF201803100000000000114436NN0                                                  0
2MAIL0000065082BR23        BRG1        BRG1COCO    BRG1COCO13AG00000100000000001235356200000000000003000000000000000000000000067883Z85920180310X066000000
2MAIL0000065082BR23        BRG1        BRG1COCO    BRG1COCO13AG00000200000000001235737300000000000001600000000000000000000000046553Z85920180310X066000000
1MAIL0000065083BR23        BRG1        BRG1COCO    BRG1COCO13AG2018030500:00:00OR  01000003961165000396116565083                              2018030520180310Z859CIF201803100000000000114436NN0                                                  0
2MAIL0000065083BR23        BRG1        BRG1COCO    BRG1COCO13AG00000100000000001235356200000000000003000000000000000000000000067883Z85920180310X066000000
2MAIL0000065083BR23        BRG1        BRG1COCO    BRG1COCO13AG00000200000000001235737300000000000001600000000000000000000000046553Z85920180310X066000000
1MAIL0000065084BR23        BRG1        BRG1COCO    BRG1COCO13AG2018030500:00:00OR  01000003961164000396116465084                              2018030520180310Z859CIF201803100000000000057217NN0                                                  0
2MAIL0000065084BR23        BRG1        BRG1COCO    BRG1COCO13AG00000100000000001235356200000000000001500000000000000000000000033941Z85920180310X066000000
2MAIL0000065084BR23        BRG1        BRG1COCO    BRG1COCO13AG00000200000000001235737300000000000000800000000000000000000000023276Z85920180310X066000000
1MAIL0000065085BR23        BRG1        BRG1COCO    BRG1COCO13AG2018030500:00:00OR  01000003173420000317342065085                              2018030520180310Z859CIF201803100000000000114436NN0                                                  0
2MAIL0000065085BR23        BRG1        BRG1COCO    BRG1COCO13AG00000100000000001235356200000000000003000000000000000000000000067883Z85920180310X066000000
2MAIL0000065085BR23        BRG1        BRG1COCO    BRG1COCO13AG00000200000000001235737300000000000001600000000000000000000000046553Z85920180310X066000000
1MAIL0000065086BR23        BRG1        BRG1COCO    BRG1COCO13AG2018030500:00:00OR  01000000918676000091867665086                              2018030520180310Z859CIF201803100000000000114436NN0                                                  0
2MAIL0000065086BR23        BRG1        BRG1COCO    BRG1COCO13AG00000100000000001235356200000000000003000000000000000000000000067883Z85920180310X066000000
2MAIL0000065086BR23        BRG1        BRG1COCO    BRG1COCO13AG00000200000000001235737300000000000001600000000000000000000000046553Z85920180310X066000000
1MAIL0000065087BR23        BRG1        BRG1COCO    BRG1COCO13AG2018030500:00:00OR  01000000918664000091866465087                              2018030520180310Z859CIF201803100000000000114436NN0                                                  0
2MAIL0000065087BR23        BRG1        BRG1COCO    BRG1COCO13AG00000100000000001235356200000000000003000000000000000000000000067883Z85920180310X066000000
2MAIL0000065087BR23        BRG1        BRG1COCO    BRG1COCO13AG00000200000000001235737300000000000001600000000000000000000000046553Z85920180310X066000000
1MAIL0000065088BR23        BRG1        BRG1COCO    BRG1COCO13AG2018030500:00:00OR  01000000918653000091865365088                              2018030520180310Z859CIF201803100000000000057217NN0                                                  0
2MAIL0000065088BR23        BRG1        BRG1COCO    BRG1COCO13AG00000100000000001235356200000000000001500000000000000000000000033941Z85920180310X066000000
2MAIL0000065088BR23        BRG1        BRG1COCO    BRG1COCO13AG00000200000000001235737300000000000000800000000000000000000000023276Z85920180310X066000000
1MAIL0000065089BR23        BRG1        BRG1COCO    BRG1COCO13AG2018030500:00:00OR  01000000918642000091864265089                              2018030520180310Z859CIF201803100000000000114436NN0                                                  0
2MAIL0000065089BR23        BRG1        BRG1COCO    BRG1COCO13AG00000100000000001235356200000000000003000000000000000000000000067883Z85920180310X066000000
2MAIL0000065089BR23        BRG1        BRG1COCO    BRG1COCO13AG00000200000000001235737300000000000001600000000000000000000000046553Z85920180310X066000000
