1MAIL0000066125BR23        BRG1        BRG1COCO    BRG1COCO13AG2018030800:00:00OR  01000004948021000494802166125                              2018030820180310Z016CIF201803100000000000042696NN0                                                  0
2MAIL0000066125BR23        BRG1        BRG1COCO    BRG1COCO13AG00000100000000001132033100000000000000200000000000000000000000003282Z01620180310X066015000
2MAIL0000066125BR23        BRG1        BRG1COCO    BRG1COCO13AG00000200000000001132036700000000000000400000000000000000000000006566Z01620180310X066015000
2MAIL0000066125BR23        BRG1        BRG1COCO    BRG1COCO13AG00000300000000001226089600000000000001200000000000000000000000004055Z01620180310X066009920
2MAIL0000066125BR23        BRG1        BRG1COCO    BRG1COCO13AG00000400000000001228090100000000000003000000000000000000000000021389Z01620180310X066004960
2MAIL0000066125BR23        BRG1        BRG1COCO    BRG1COCO13AG00000500000000001235699700000000000001000000000000000000000000003702Z01620180310X066006000
2MAIL0000066125BR23        BRG1        BRG1COCO    BRG1COCO13AG00000600000000001235699800000000000001000000000000000000000000003702Z01620180310X066006000
1MAIL0000066126BR23        BRG1        BRG1COCO    BRG1COCO13AG2018030800:00:00OR  01000002899788000289978866126                              2018030820180310Z016CIF201803100000000000060509NN0                                                  0
2MAIL0000066126BR23        BRG1        BRG1COCO    BRG1COCO13AG00000100000000001132030800000000000000400000000000000000000000012446Z01620180310X066018000
2MAIL0000066126BR23        BRG1        BRG1COCO    BRG1COCO13AG00000200000000001132034900000000000000500000000000000000000000007006Z01620180310X066015000
2MAIL0000066126BR23        BRG1        BRG1COCO    BRG1COCO13AG00000300000000001132035100000000000000500000000000000000000000007392Z01620180310X066015000
2MAIL0000066126BR23        BRG1        BRG1COCO    BRG1COCO13AG00000400000000001132200400000000000000200000000000000000000000003550Z01620180310X066004850
2MAIL0000066126BR23        BRG1        BRG1COCO    BRG1COCO13AG00000500000000001132213000000000000000100000000000000000000000003427Z01620180310X066004950
2MAIL0000066126BR23        BRG1        BRG1COCO    BRG1COCO13AG00000600000000001132213100000000000000100000000000000000000000003427Z01620180310X066004950
2MAIL0000066126BR23        BRG1        BRG1COCO    BRG1COCO13AG00000700000000001226089600000000000001200000000000000000000000003816Z01620180310X066006750
2MAIL0000066126BR23        BRG1        BRG1COCO    BRG1COCO13AG00000800000000001233081900000000000001400000000000000000000000004675Z01620180310X066006750
2MAIL0000066126BR23        BRG1        BRG1COCO    BRG1COCO13AG00000900000000001233098600000000000001400000000000000000000000004675Z01620180310X066006750
2MAIL0000066126BR23        BRG1        BRG1COCO    BRG1COCO13AG00001000000000001235699400000000000001000000000000000000000000003365Z01620180310X066006000
2MAIL0000066126BR23        BRG1        BRG1COCO    BRG1COCO13AG00001100000000001235699700000000000001000000000000000000000000003365Z01620180310X066006000
2MAIL0000066126BR23        BRG1        BRG1COCO    BRG1COCO13AG00001200000000001235699800000000000001000000000000000000000000003365Z01620180310X066006000
1MAIL0000066127BR23        BRG1        BRG1COCO    BRG1COCO13AG2018030800:00:00OR  01000004054180000405418066127                              2018030820180310ZG40CIF201803100000000000010751NN0                                                  0
2MAIL0000066127BR23        BRG1        BRG1COCO    BRG1COCO13AG00000100000000001132004000000000000000500000000000000000000000004039ZG4020180310X066005000
2MAIL0000066127BR23        BRG1        BRG1COCO    BRG1COCO13AG00000200000000001132036700000000000000400000000000000000000000006712ZG4020180310X066015000
1MAIL0000066128BR23        BRG1        BRG1COCO    BRG1COCO13AG2018030800:00:00OR  01000004774154000477415466128                              2018030820180310Z859CIF201803100000000000022628NN0                                                  0
2MAIL0000066128BR23        BRG1        BRG1COCO    BRG1COCO13AG00000100000000001235356200000000000001000000000000000000000000022628Z85920180310X066000000
1MAIL0000066129BR23        BRG1        BRG1COCO    BRG1COCO13AG2018030800:00:00OR  01000004774154000477415466129                              2018030820180310Z016CIF201803100000000000059288NN0                                                  0
2MAIL0000066129BR23        BRG1        BRG1COCO    BRG1COCO13AG00000100000000001132185100000000000000800000000000000000000000022738Z01620180310X066018000
2MAIL0000066129BR23        BRG1        BRG1COCO    BRG1COCO13AG00000200000000001226089600000000000001200000000000000000000000004055Z01620180310X066009920
2MAIL0000066129BR23        BRG1        BRG1COCO    BRG1COCO13AG00000300000000001228090100000000000003000000000000000000000000021389Z01620180310X066004960
2MAIL0000066129BR23        BRG1        BRG1COCO    BRG1COCO13AG00000400000000001235699400000000000001000000000000000000000000003702Z01620180310X066006000
2MAIL0000066129BR23        BRG1        BRG1COCO    BRG1COCO13AG00000500000000001235699700000000000001000000000000000000000000003702Z01620180310X066006000
2MAIL0000066129BR23        BRG1        BRG1COCO    BRG1COCO13AG00000600000000001235699800000000000001000000000000000000000000003702Z01620180310X066006000
1MAIL0000066130BR23        BRG1        BRG1COCO    BRG1COCO13AG2018030800:00:00OR  01000005460657000546065766130                              2018030820180310Z016CIF201803100000000000062247NN0                                                  0
2MAIL0000066130BR23        BRG1        BRG1COCO    BRG1COCO13AG00000100000000001132030800000000000000400000000000000000000000012446Z01620180310X066018000
2MAIL0000066130BR23        BRG1        BRG1COCO    BRG1COCO13AG00000200000000001132033100000000000000400000000000000000000000006566Z01620180310X066015000
2MAIL0000066130BR23        BRG1        BRG1COCO    BRG1COCO13AG00000300000000001132036700000000000000400000000000000000000000006566Z01620180310X066015000
2MAIL0000066130BR23        BRG1        BRG1COCO    BRG1COCO13AG00000400000000001132213000000000000000100000000000000000000000003771Z01620180310X066004950
2MAIL0000066130BR23        BRG1        BRG1COCO    BRG1COCO13AG00000500000000001132213100000000000000100000000000000000000000003771Z01620180310X066004950
2MAIL0000066130BR23        BRG1        BRG1COCO    BRG1COCO13AG00000600000000001215533700000000000000200000000000000000000000003282Z01620180310X066015000
2MAIL0000066130BR23        BRG1        BRG1COCO    BRG1COCO13AG00000700000000001223975300000000000000100000000000000000000000004522Z01620180310X066005000
2MAIL0000066130BR23        BRG1        BRG1COCO    BRG1COCO13AG00000800000000001226089600000000000001200000000000000000000000004055Z01620180310X066009920
2MAIL0000066130BR23        BRG1        BRG1COCO    BRG1COCO13AG00000900000000001228512700000000000000100000000000000000000000004522Z01620180310X066005000
2MAIL0000066130BR23        BRG1        BRG1COCO    BRG1COCO13AG00001000000000001231189200000000000000100000000000000000000000004522Z01620180310X066005000
2MAIL0000066130BR23        BRG1        BRG1COCO    BRG1COCO13AG00001100000000001231231200000000000000100000000000000000000000004522Z01620180310X066005000
2MAIL0000066130BR23        BRG1        BRG1COCO    BRG1COCO13AG00001200000000001235699700000000000001000000000000000000000000003702Z01620180310X066006000
1MAIL0000066131BR23        BRG1        BRG1COCO    BRG1COCO13AG2018030800:00:00OR  01000004628812000462881266131                              2018030820180310Z016CIF201803100000000000030243NN0                                                  0
2MAIL0000066131BR23        BRG1        BRG1COCO    BRG1COCO13AG00000100000000001132213000000000000000200000000000000000000000007541Z01620180310X066004950
2MAIL0000066131BR23        BRG1        BRG1COCO    BRG1COCO13AG00000200000000001132213100000000000000200000000000000000000000007541Z01620180310X066004950
2MAIL0000066131BR23        BRG1        BRG1COCO    BRG1COCO13AG00000300000000001226089600000000000001200000000000000000000000004055Z01620180310X066009920
2MAIL0000066131BR23        BRG1        BRG1COCO    BRG1COCO13AG00000400000000001235699400000000000001000000000000000000000000003702Z01620180310X066006000
2MAIL0000066131BR23        BRG1        BRG1COCO    BRG1COCO13AG00000500000000001235699700000000000001000000000000000000000000003702Z01620180310X066006000
2MAIL0000066131BR23        BRG1        BRG1COCO    BRG1COCO13AG00000600000000001235699800000000000001000000000000000000000000003702Z01620180310X066006000
1MAIL0000066132BR23        BRG1        BRG1COCO    BRG1COCO13AG2018030800:00:00OR  01000002933681000293368166132                              2018030820180310Z016CIF201803100000000000084514NN0                                                  0
2MAIL0000066132BR23        BRG1        BRG1COCO    BRG1COCO13AG00000100000000001132030800000000000000600000000000000000000000017775Z01620180310X066018000
2MAIL0000066132BR23        BRG1        BRG1COCO    BRG1COCO13AG00000200000000001132033100000000000000300000000000000000000000005130Z01620180310X066015000
2MAIL0000066132BR23        BRG1        BRG1COCO    BRG1COCO13AG00000300000000001132034900000000000000500000000000000000000000008030Z01620180310X066015000
2MAIL0000066132BR23        BRG1        BRG1COCO    BRG1COCO13AG00000400000000001132035000000000000000500000000000000000000000008918Z01620180310X066015000
2MAIL0000066132BR23        BRG1        BRG1COCO    BRG1COCO13AG00000500000000001132035100000000000000500000000000000000000000008472Z01620180310X066015000
2MAIL0000066132BR23        BRG1        BRG1COCO    BRG1COCO13AG00000600000000001132036700000000000001000000000000000000000000017100Z01620180310X066015000
2MAIL0000066132BR23        BRG1        BRG1COCO    BRG1COCO13AG00000700000000001132200400000000000000200000000000000000000000003699Z01620180310X066004850
2MAIL0000066132BR23        BRG1        BRG1COCO    BRG1COCO13AG00000800000000001215533700000000000000300000000000000000000000005130Z01620180310X066015000
2MAIL0000066132BR23        BRG1        BRG1COCO    BRG1COCO13AG00000900000000001227395500000000000000300000000000000000000000005130Z01620180310X066015000
2MAIL0000066132BR23        BRG1        BRG1COCO    BRG1COCO13AG00001000000000001233695100000000000000300000000000000000000000005130Z01620180310X066015000
1MAIL0000066141BR23        BRG1        BRG1COCO    BRG1COCO13AG2018030800:00:00OR  01000005344478000534447866141                              2018030820180310Z016CIF201803100000000000005603NN0                                                  0
2MAIL0000066141BR23        BRG1        BRG1COCO    BRG1COCO13AG00000100000000001132200400000000000000100000000000000000000000001944Z01620180310X066000000
2MAIL0000066141BR23        BRG1        BRG1COCO    BRG1COCO13AG00000200000000001132400100000000000000100000000000000000000000003659Z01620180310X066000000
1MAIL0000066142BR23        BRG1        BRG1COCO    BRG1COCO13AG2018030800:00:00OR  01000005344478000534447866142                              2018030820180310Z859CIF201803100000000000005819NN0                                                  0
2MAIL0000066142BR23        BRG1        BRG1COCO    BRG1COCO13AG00000100000000001235737300000000000000200000000000000000000000005819Z85920180310X066000000
1MAIL0000066143BR23        BRG1        BRG1COCO    BRG1COCO13AG2018030800:00:00OR  01000005202765000520276566143                              2018030820180310Z016CIF201803100000000000006783NN0                                                  0
2MAIL0000066143BR23        BRG1        BRG1COCO    BRG1COCO13AG00000100000000001132036700000000000000100000000000000000000000001641Z01620180310X066015000
2MAIL0000066143BR23        BRG1        BRG1COCO    BRG1COCO13AG00000200000000001233098400000000000001400000000000000000000000005142Z01620180310X066006750
1MAIL0000066144BR23        BRG1        BRG1COCO    BRG1COCO13AG2018030800:00:00OR  01000005099042000509904266144                              2018030820180310Z016CIF201803100000000000006603NN0                                                  0
2MAIL0000066144BR23        BRG1        BRG1COCO    BRG1COCO13AG00000100000000001132036700000000000000100000000000000000000000001641Z01620180310X066015000
2MAIL0000066144BR23        BRG1        BRG1COCO    BRG1COCO13AG00000200000000001233098400000000000001400000000000000000000000004962Z01620180310X066010000
1MAIL0000066145BR23        BRG1        BRG1COCO    BRG1COCO13AG2018030800:00:00OR  01000004272239000427223966145                              2018030820180310Z016CIF201803100000000000001641NN0                                                  0
2MAIL0000066145BR23        BRG1        BRG1COCO    BRG1COCO13AG00000100000000001132036700000000000000100000000000000000000000001641Z01620180310X066015000
1MAIL0000066146BR23        BRG1        BRG1COCO    BRG1COCO13AG2018030800:00:00OR  01000004029985000402998566146                              2018030820180310Z016CIF201803100000000000001641NN0                                                  0
2MAIL0000066146BR23        BRG1        BRG1COCO    BRG1COCO13AG00000100000000001132036700000000000000100000000000000000000000001641Z01620180310X066015000
1MAIL0000066147BR23        BRG1        BRG1COCO    BRG1COCO13AG2018030800:00:00OR  01000003829737000382973766147                              2018030820180310Z016CIF201803100000000000001710NN0                                                  0
2MAIL0000066147BR23        BRG1        BRG1COCO    BRG1COCO13AG00000100000000001132036700000000000000100000000000000000000000001710Z01620180310X066015000
1MAIL0000066148BR23        BRG1        BRG1COCO    BRG1COCO13AG2018030800:00:00OR  01000003333457000333345766148                              2018030820180310Z016CIF201803100000000000003282NN0                                                  0
2MAIL0000066148BR23        BRG1        BRG1COCO    BRG1COCO13AG00000100000000001132033100000000000000100000000000000000000000001641Z01620180310X066015000
2MAIL0000066148BR23        BRG1        BRG1COCO    BRG1COCO13AG00000200000000001132036700000000000000100000000000000000000000001641Z01620180310X066015000
