1MAIL0000065138BR23        BRG1        BRG1COCO    BRG1COCO13AG2018030600:00:00OR  01000003895656000389565665138                              2018030620180307Z016CIF201803070000000000019168NN0                                                  0
2MAIL0000065138BR23        BRG1        BRG1COCO    BRG1COCO13AG00000100000000001132019700000000000000100000000000000000000000002396Z01620180307X066000000
2MAIL0000065138BR23        BRG1        BRG1COCO    BRG1COCO13AG00000200000000001132019800000000000000100000000000000000000000002396Z01620180307X066000000
2MAIL0000065138BR23        BRG1        BRG1COCO    BRG1COCO13AG00000300000000001132019900000000000000200000000000000000000000004792Z01620180307X066000000
2MAIL0000065138BR23        BRG1        BRG1COCO    BRG1COCO13AG00000400000000001132020900000000000000200000000000000000000000004792Z01620180307X066000000
2MAIL0000065138BR23        BRG1        BRG1COCO    BRG1COCO13AG00000500000000001227735000000000000000200000000000000000000000004792Z01620180307X066000000
1MAIL0000065139BR23        BRG1        BRG1COCO    BRG1COCO13AG2018030600:00:00OR  01000004332592000433259265139                              2018030620180307Z016CIF201803070000000000011475NN0                                                  0
2MAIL0000065139BR23        BRG1        BRG1COCO    BRG1COCO13AG00000100000000001132019800000000000000100000000000000000000000002184Z01620180307X066005000
2MAIL0000065139BR23        BRG1        BRG1COCO    BRG1COCO13AG00000200000000001132020900000000000000100000000000000000000000002184Z01620180307X066005000
2MAIL0000065139BR23        BRG1        BRG1COCO    BRG1COCO13AG00000300000000001132033100000000000000100000000000000000000000001641Z01620180307X066015000
2MAIL0000065139BR23        BRG1        BRG1COCO    BRG1COCO13AG00000400000000001132036700000000000000100000000000000000000000001641Z01620180307X066015000
2MAIL0000065139BR23        BRG1        BRG1COCO    BRG1COCO13AG00000500000000001227735000000000000000100000000000000000000000002184Z01620180307X066005000
2MAIL0000065139BR23        BRG1        BRG1COCO    BRG1COCO13AG00000600000000001231389600000000000000100000000000000000000000001641Z01620180307X066015000
1MAIL0000065140BR23        BRG1        BRG1COCO    BRG1COCO13AG2018030600:00:00OR  01000000616602000061660265140                              2018030620180307Z016CIF201803070000000000118939NN0                                                  0
2MAIL0000065140BR23        BRG1        BRG1COCO    BRG1COCO13AG00000100000000001214448900000000000002000000000000000000000000118939Z01620180307X066018000
1MAIL0000065141BR23        BRG1        BRG1COCO    BRG1COCO13AG2018030600:00:00OR  01000005398650000539865065141                              2018030620180307ZG40CIF201803070000000000010104NN0                                                  0
2MAIL0000065141BR23        BRG1        BRG1COCO    BRG1COCO13AG00000100000000001132036700000000000000300000000000000000000000005034ZG4020180307X066015000
2MAIL0000065141BR23        BRG1        BRG1COCO    BRG1COCO13AG00000200000000001233098400000000000001400000000000000000000000005070ZG4020180307X066010000
1MAIL0000065142BR23        BRG1        BRG1COCO    BRG1COCO13AG2018030600:00:00OR  01000004965879000496587965142                              2018030620180307Z859CIF201803070000000000012607NN0                                                  0
2MAIL0000065142BR23        BRG1        BRG1COCO    BRG1COCO13AG00000100000000001235356200000000000000300000000000000000000000006788Z85920180307X066000000
2MAIL0000065142BR23        BRG1        BRG1COCO    BRG1COCO13AG00000200000000001235737300000000000000200000000000000000000000005819Z85920180307X066000000
1MAIL0000065143BR23        BRG1        BRG1COCO    BRG1COCO13AG2018030600:00:00OR  01000002874040000287404065143                              2018030620180307Z859CIF201803070000000000012607NN0                                                  0
2MAIL0000065143BR23        BRG1        BRG1COCO    BRG1COCO13AG00000100000000001235356200000000000000300000000000000000000000006788Z85920180307X066000000
2MAIL0000065143BR23        BRG1        BRG1COCO    BRG1COCO13AG00000200000000001235737300000000000000200000000000000000000000005819Z85920180307X066000000
1MAIL0000065144BR23        BRG1        BRG1COCO    BRG1COCO13AG2018030600:00:00OR  01000005344476000534447665144                              2018030620180307Z859CIF201803070000000000033941NN0                                                  0
2MAIL0000065144BR23        BRG1        BRG1COCO    BRG1COCO13AG00000100000000001235356200000000000001500000000000000000000000033941Z85920180307X066000000
1MAIL0000065145BR23        BRG1        BRG1COCO    BRG1COCO13AG2018030600:00:00OR  01000004937844000493784465145                              2018030620180307Z016CIF201803070000000000014157NN0                                                  0
2MAIL0000065145BR23        BRG1        BRG1COCO    BRG1COCO13AG00000100000000001132036700000000000000300000000000000000000000005213Z01620180307X066010000
2MAIL0000065145BR23        BRG1        BRG1COCO    BRG1COCO13AG00000200000000001132200400000000000000200000000000000000000000003731Z01620180307X066000000
2MAIL0000065145BR23        BRG1        BRG1COCO    BRG1COCO13AG00000300000000001215533700000000000000300000000000000000000000005213Z01620180307X066010000
1MAIL0000065146BR23        BRG1        BRG1COCO    BRG1COCO13AG2018030600:00:00OR  01000004911500000491150065146                              2018030620180307Z016CIF201803070000000000024315NN0                                                  0
2MAIL0000065146BR23        BRG1        BRG1COCO    BRG1COCO13AG00000100000000001132019700000000000000100000000000000000000000002184Z01620180307X066005000
2MAIL0000065146BR23        BRG1        BRG1COCO    BRG1COCO13AG00000200000000001132019800000000000000100000000000000000000000002184Z01620180307X066005000
2MAIL0000065146BR23        BRG1        BRG1COCO    BRG1COCO13AG00000300000000001132020900000000000000100000000000000000000000002184Z01620180307X066005000
2MAIL0000065146BR23        BRG1        BRG1COCO    BRG1COCO13AG00000400000000001132033100000000000000100000000000000000000000001738Z01620180307X066010000
2MAIL0000065146BR23        BRG1        BRG1COCO    BRG1COCO13AG00000500000000001132036700000000000000200000000000000000000000003476Z01620180307X066010000
2MAIL0000065146BR23        BRG1        BRG1COCO    BRG1COCO13AG00000600000000001132200400000000000000300000000000000000000000005597Z01620180307X066000000
2MAIL0000065146BR23        BRG1        BRG1COCO    BRG1COCO13AG00000700000000001215533700000000000000400000000000000000000000006952Z01620180307X066010000
1MAIL0000065147BR23        BRG1        BRG1COCO    BRG1COCO13AG2018030600:00:00OR  01000003628304000362830465147                              2018030620180307Z016CIF201803070000000000014159NN0                                                  0
2MAIL0000065147BR23        BRG1        BRG1COCO    BRG1COCO13AG00000100000000001132033100000000000000200000000000000000000000003476Z01620180307X066010000
2MAIL0000065147BR23        BRG1        BRG1COCO    BRG1COCO13AG00000200000000001132036700000000000000200000000000000000000000003476Z01620180307X066010000
2MAIL0000065147BR23        BRG1        BRG1COCO    BRG1COCO13AG00000300000000001132200400000000000000200000000000000000000000003731Z01620180307X066000000
2MAIL0000065147BR23        BRG1        BRG1COCO    BRG1COCO13AG00000400000000001215533700000000000000200000000000000000000000003476Z01620180307X066010000
1MAIL0000065148BR23        BRG1        BRG1COCO    BRG1COCO13AG2018030600:00:00OR  01000002931795000293179565148                              2018030620180307Z016CIF201803070000000000040367NN0                                                  0
2MAIL0000065148BR23        BRG1        BRG1COCO    BRG1COCO13AG00000100000000001132033100000000000000100000000000000000000000001738Z01620180307X066010000
2MAIL0000065148BR23        BRG1        BRG1COCO    BRG1COCO13AG00000200000000001132036700000000000000100000000000000000000000001738Z01620180307X066010000
2MAIL0000065148BR23        BRG1        BRG1COCO    BRG1COCO13AG00000300000000001132200400000000000000100000000000000000000000001866Z01620180307X066000000
2MAIL0000065148BR23        BRG1        BRG1COCO    BRG1COCO13AG00000400000000001231189200000000000000100000000000000000000000004522Z01620180307X066005000
2MAIL0000065148BR23        BRG1        BRG1COCO    BRG1COCO13AG00000500000000001231231200000000000000100000000000000000000000004522Z01620180307X066005000
2MAIL0000065148BR23        BRG1        BRG1COCO    BRG1COCO13AG00000600000000001233098400000000000001400000000000000000000000004967Z01620180307X066009920
2MAIL0000065148BR23        BRG1        BRG1COCO    BRG1COCO13AG00000700000000001233154200000000000001400000000000000000000000004967Z01620180307X066009920
2MAIL0000065148BR23        BRG1        BRG1COCO    BRG1COCO13AG00000800000000001235699700000000000001000000000000000000000000003702Z01620180307X066006000
2MAIL0000065148BR23        BRG1        BRG1COCO    BRG1COCO13AG00000900000000001235699800000000000002000000000000000000000000007405Z01620180307X066006000
2MAIL0000065148BR23        BRG1        BRG1COCO    BRG1COCO13AG00001000000000001236512800000000000001000000000000000000000000001748Z01620180307X066000010
2MAIL0000065148BR23        BRG1        BRG1COCO    BRG1COCO13AG00001100000000001236512900000000000001000000000000000000000000001596Z01620180307X066005000
2MAIL0000065148BR23        BRG1        BRG1COCO    BRG1COCO13AG00001200000000001236515000000000000001000000000000000000000000001596Z01620180307X066005000
1MAIL0000065149BR23        BRG1        BRG1COCO    BRG1COCO13AG2018030600:00:00OR  01000005222250000522225065149                              2018030620180307Z016CIF201803070000000000015521NN0                                                  0
2MAIL0000065149BR23        BRG1        BRG1COCO    BRG1COCO13AG00000100000000001132200400000000000000300000000000000000000000005597Z01620180307X066000000
2MAIL0000065149BR23        BRG1        BRG1COCO    BRG1COCO13AG00000200000000001233081900000000000001400000000000000000000000004962Z01620180307X066010000
2MAIL0000065149BR23        BRG1        BRG1COCO    BRG1COCO13AG00000300000000001233098500000000000001400000000000000000000000004962Z01620180307X066010000
1MAIL0000065150BR23        BRG1        BRG1COCO    BRG1COCO13AG2018030600:00:00OR  01000004172794000417279465150                              2018030620180307Z016CIF201803070000000000076439NN0                                                  0
2MAIL0000065150BR23        BRG1        BRG1COCO    BRG1COCO13AG00000100000000001223975300000000000000300000000000000000000000014138Z01620180307X066005000
2MAIL0000065150BR23        BRG1        BRG1COCO    BRG1COCO13AG00000200000000001228100400000000000001000000000000000000000000022452Z01620180307X066018000
2MAIL0000065150BR23        BRG1        BRG1COCO    BRG1COCO13AG00000300000000001231189200000000000000300000000000000000000000014138Z01620180307X066005000
2MAIL0000065150BR23        BRG1        BRG1COCO    BRG1COCO13AG00000400000000001231231200000000000000300000000000000000000000014138Z01620180307X066005000
2MAIL0000065150BR23        BRG1        BRG1COCO    BRG1COCO13AG00000500000000001235699800000000000003000000000000000000000000011573Z01620180307X066006000
1MAIL0000065151BR23        BRG1        BRG1COCO    BRG1COCO13AG2018030600:00:00OR  01000003483123000348312365151                              2018030620180307Z016CIF201803070000000000016637NN0                                                  0
2MAIL0000065151BR23        BRG1        BRG1COCO    BRG1COCO13AG00000100000000001132033100000000000000300000000000000000000000004923Z01620180307X066015000
2MAIL0000065151BR23        BRG1        BRG1COCO    BRG1COCO13AG00000200000000001132036700000000000000400000000000000000000000006566Z01620180307X066015000
2MAIL0000065151BR23        BRG1        BRG1COCO    BRG1COCO13AG00000300000000001132200400000000000000100000000000000000000000001866Z01620180307X066000000
2MAIL0000065151BR23        BRG1        BRG1COCO    BRG1COCO13AG00000400000000001215533700000000000000200000000000000000000000003282Z01620180307X066015000
1MAIL0000065152BR23        BRG1        BRG1COCO    BRG1COCO13AG2018030600:00:00OR  01000005460652000546065265152                              2018030620180307Z016CIF201803070000000000087458NN0                                                  0
2MAIL0000065152BR23        BRG1        BRG1COCO    BRG1COCO13AG00000100000000001226089600000000000003600000000000000000000000012275Z01620180307X066000000
2MAIL0000065152BR23        BRG1        BRG1COCO    BRG1COCO13AG00000200000000001233081900000000000004200000000000000000000000015037Z01620180307X066000000
2MAIL0000065152BR23        BRG1        BRG1COCO    BRG1COCO13AG00000300000000001233098400000000000004200000000000000000000000015037Z01620180307X066000000
2MAIL0000065152BR23        BRG1        BRG1COCO    BRG1COCO13AG00000400000000001233098500000000000002800000000000000000000000010024Z01620180307X066000000
2MAIL0000065152BR23        BRG1        BRG1COCO    BRG1COCO13AG00000500000000001233098800000000000002800000000000000000000000010024Z01620180307X066000000
2MAIL0000065152BR23        BRG1        BRG1COCO    BRG1COCO13AG00000600000000001233154200000000000004200000000000000000000000015037Z01620180307X066000000
2MAIL0000065152BR23        BRG1        BRG1COCO    BRG1COCO13AG00000700000000001234708700000000000002800000000000000000000000010024Z01620180307X066000000
1MAIL0000065153BR23        BRG1        BRG1COCO    BRG1COCO13AG2018030600:00:00OR  01000003178727000317872765153                              2018030620180307Z016CIF201803070000000000045535NN0                                                  0
2MAIL0000065153BR23        BRG1        BRG1COCO    BRG1COCO13AG00000100000000001132019700000000000000100000000000000000000000002184Z01620180307X066005000
2MAIL0000065153BR23        BRG1        BRG1COCO    BRG1COCO13AG00000200000000001132019800000000000000100000000000000000000000002184Z01620180307X066005000
2MAIL0000065153BR23        BRG1        BRG1COCO    BRG1COCO13AG00000300000000001132036700000000000000600000000000000000000000009846Z01620180307X066015000
2MAIL0000065153BR23        BRG1        BRG1COCO    BRG1COCO13AG00000400000000001132200400000000000000400000000000000000000000007463Z01620180307X066000000
2MAIL0000065153BR23        BRG1        BRG1COCO    BRG1COCO13AG00000500000000001132213000000000000000100000000000000000000000003771Z01620180307X066004950
2MAIL0000065153BR23        BRG1        BRG1COCO    BRG1COCO13AG00000600000000001132400100000000000000200000000000000000000000006672Z01620180307X066005000
2MAIL0000065153BR23        BRG1        BRG1COCO    BRG1COCO13AG00000700000000001223975300000000000000200000000000000000000000009046Z01620180307X066005000
2MAIL0000065153BR23        BRG1        BRG1COCO    BRG1COCO13AG00000800000000001227735000000000000000200000000000000000000000004369Z01620180307X066005000
1MAIL0000065209BR23        BRG1        BRG1COCO    BRG1COCO13AG2018030600:00:00OR  01000002956375000295637565209                              2018030620180307ZG40CIF201803070000000000438751NN0                                                  0
2MAIL0000065209BR23        BRG1        BRG1COCO    BRG1COCO13AG00000100000000001132004000000000000010000000000000000000000000074989ZG4020180307X066005000
2MAIL0000065209BR23        BRG1        BRG1COCO    BRG1COCO13AG00000200000000001132033100000000000003200000000000000000000000050523ZG4020180307X066007000
2MAIL0000065209BR23        BRG1        BRG1COCO    BRG1COCO13AG00000300000000001132036700000000000003200000000000000000000000050523ZG4020180307X066007000
2MAIL0000065209BR23        BRG1        BRG1COCO    BRG1COCO13AG00000400000000001132213100000000000000600000000000000000000000018081ZG4020180307X066004950
2MAIL0000065209BR23        BRG1        BRG1COCO    BRG1COCO13AG00000500000000001227395500000000000001600000000000000000000000025262ZG4020180307X066007000
2MAIL0000065209BR23        BRG1        BRG1COCO    BRG1COCO13AG00000600000000001228274000000000000000800000000000000000000000028928ZG4020180307X066005000
2MAIL0000065209BR23        BRG1        BRG1COCO    BRG1COCO13AG00000700000000001231189200000000000000800000000000000000000000028928ZG4020180307X066005000
2MAIL0000065209BR23        BRG1        BRG1COCO    BRG1COCO13AG00000800000000001231389600000000000001600000000000000000000000025262ZG4020180307X066007000
2MAIL0000065209BR23        BRG1        BRG1COCO    BRG1COCO13AG00000900000000001233098400000000000011200000000000000000000000038930ZG4020180307X066000000
2MAIL0000065209BR23        BRG1        BRG1COCO    BRG1COCO13AG00001000000000001233099500000000000011200000000000000000000000038930ZG4020180307X066000000
2MAIL0000065209BR23        BRG1        BRG1COCO    BRG1COCO13AG00001100000000001233154200000000000011200000000000000000000000038930ZG4020180307X066000000
2MAIL0000065209BR23        BRG1        BRG1COCO    BRG1COCO13AG00001200000000001234708700000000000005600000000000000000000000019465ZG4020180307X066000000
1MAIL0000065210BR23        BRG1        BRG1COCO    BRG1COCO13AG2018030600:00:00OR  01000005070723000507072365210                              2018030620180307Z016CIF201803070000000000025887NN0                                                  0
2MAIL0000065210BR23        BRG1        BRG1COCO    BRG1COCO13AG00000100000000001132018300000000000000100000000000000000000000003598Z01620180307X066025000
2MAIL0000065210BR23        BRG1        BRG1COCO    BRG1COCO13AG00000200000000001132033100000000000000100000000000000000000000001710Z01620180307X066015000
2MAIL0000065210BR23        BRG1        BRG1COCO    BRG1COCO13AG00000300000000001132036700000000000000100000000000000000000000001710Z01620180307X066015000
2MAIL0000065210BR23        BRG1        BRG1COCO    BRG1COCO13AG00000400000000001132200400000000000000100000000000000000000000001850Z01620180307X066004850
2MAIL0000065210BR23        BRG1        BRG1COCO    BRG1COCO13AG00000500000000001227395500000000000000100000000000000000000000001710Z01620180307X066015000
2MAIL0000065210BR23        BRG1        BRG1COCO    BRG1COCO13AG00000600000000001233081900000000000001400000000000000000000000005171Z01620180307X066010000
2MAIL0000065210BR23        BRG1        BRG1COCO    BRG1COCO13AG00000700000000001233098400000000000001400000000000000000000000005171Z01620180307X066010000
2MAIL0000065210BR23        BRG1        BRG1COCO    BRG1COCO13AG00000800000000001233154200000000000001400000000000000000000000004967Z01620180307X066013560
1MAIL0000065211BR23        BRG1        BRG1COCO    BRG1COCO13AG2018030600:00:00OR  01000004789461000478946165211                              2018030620180307Z016CIF201803070000000000150831NN0                                                  0
2MAIL0000065211BR23        BRG1        BRG1COCO    BRG1COCO13AG00000100000000001132030800000000000000400000000000000000000000012446Z01620180307X066018000
2MAIL0000065211BR23        BRG1        BRG1COCO    BRG1COCO13AG00000200000000001132034900000000000000500000000000000000000000007707Z01620180307X066015000
2MAIL0000065211BR23        BRG1        BRG1COCO    BRG1COCO13AG00000300000000001228090100000000000015000000000000000000000000106944Z01620180307X066004960
2MAIL0000065211BR23        BRG1        BRG1COCO    BRG1COCO13AG00000400000000001228512700000000000000100000000000000000000000004522Z01620180307X066005000
2MAIL0000065211BR23        BRG1        BRG1COCO    BRG1COCO13AG00000500000000001231231200000000000000100000000000000000000000004522Z01620180307X066005000
2MAIL0000065211BR23        BRG1        BRG1COCO    BRG1COCO13AG00000600000000001233098400000000000001400000000000000000000000004962Z01620180307X066010000
2MAIL0000065211BR23        BRG1        BRG1COCO    BRG1COCO13AG00000700000000001233098800000000000001400000000000000000000000004962Z01620180307X066010000
2MAIL0000065211BR23        BRG1        BRG1COCO    BRG1COCO13AG00000800000000001233154200000000000001400000000000000000000000004766Z01620180307X066013560
1MAIL0000065212BR23        BRG1        BRG1COCO    BRG1COCO13AG2018030600:00:00OR  01000002987423000298742365212                              2018030620180307Z016CIF201803070000000000200032NN0                                                  0
2MAIL0000065212BR23        BRG1        BRG1COCO    BRG1COCO13AG00000100000000001132018300000000000000200000000000000000000000007197Z01620180307X066025000
2MAIL0000065212BR23        BRG1        BRG1COCO    BRG1COCO13AG00000200000000001132034900000000000000500000000000000000000000007006Z01620180307X066015000
2MAIL0000065212BR23        BRG1        BRG1COCO    BRG1COCO13AG00000300000000001132035000000000000000500000000000000000000000007779Z01620180307X066015000
2MAIL0000065212BR23        BRG1        BRG1COCO    BRG1COCO13AG00000400000000001132200400000000000000800000000000000000000000014202Z01620180307X066004850
2MAIL0000065212BR23        BRG1        BRG1COCO    BRG1COCO13AG00000500000000001132213100000000000001200000000000000000000000041132Z01620180307X066004950
2MAIL0000065212BR23        BRG1        BRG1COCO    BRG1COCO13AG00000600000000001226089600000000000001200000000000000000000000003816Z01620180307X066006750
2MAIL0000065212BR23        BRG1        BRG1COCO    BRG1COCO13AG00000700000000001228090100000000000015000000000000000000000000097214Z01620180307X066004960
2MAIL0000065212BR23        BRG1        BRG1COCO    BRG1COCO13AG00000800000000001228512700000000000000100000000000000000000000004112Z01620180307X066005000
2MAIL0000065212BR23        BRG1        BRG1COCO    BRG1COCO13AG00000900000000001231189200000000000000100000000000000000000000004112Z01620180307X066005000
2MAIL0000065212BR23        BRG1        BRG1COCO    BRG1COCO13AG00001000000000001231231200000000000000100000000000000000000000004112Z01620180307X066005000
2MAIL0000065212BR23        BRG1        BRG1COCO    BRG1COCO13AG00001100000000001233081900000000000001400000000000000000000000004675Z01620180307X066006750
2MAIL0000065212BR23        BRG1        BRG1COCO    BRG1COCO13AG00001200000000001233098400000000000001400000000000000000000000004675Z01620180307X066006750
1MAIL0000065213BR23        BRG1        BRG1COCO    BRG1COCO13AG2018030600:00:00OR  01000005515894000551589465213                              2018030620180307Z846CIF201803070000000000004700NN0                                                  0
2MAIL0000065213BR23        BRG1        BRG1COCO    BRG1COCO13AG00000100000000001235356200000000000000200000000000000000000000004700Z84620180307X066000000
1MAIL0000065214BR23        BRG1        BRG1COCO    BRG1COCO13AG2018030600:00:00OR  01000005515894000551589465214                              2018030620180307Z016CIF201803070000000000088798NN0                                                  0
2MAIL0000065214BR23        BRG1        BRG1COCO    BRG1COCO13AG00000100000000001132004000000000000000500000000000000000000000004115Z01620180307X066005000
2MAIL0000065214BR23        BRG1        BRG1COCO    BRG1COCO13AG00000200000000001132033100000000000000100000000000000000000000001641Z01620180307X066015000
2MAIL0000065214BR23        BRG1        BRG1COCO    BRG1COCO13AG00000300000000001132036700000000000000200000000000000000000000003281Z01620180307X066015000
2MAIL0000065214BR23        BRG1        BRG1COCO    BRG1COCO13AG00000400000000001132200400000000000000200000000000000000000000003550Z01620180307X066004850
2MAIL0000065214BR23        BRG1        BRG1COCO    BRG1COCO13AG00000500000000001215533700000000000000200000000000000000000000003281Z01620180307X066015000
2MAIL0000065214BR23        BRG1        BRG1COCO    BRG1COCO13AG00000600000000001223975300000000000000100000000000000000000000004522Z01620180307X066005000
2MAIL0000065214BR23        BRG1        BRG1COCO    BRG1COCO13AG00000700000000001228090100000000000003000000000000000000000000021389Z01620180307X066004960
2MAIL0000065214BR23        BRG1        BRG1COCO    BRG1COCO13AG00000800000000001228100400000000000000400000000000000000000000008618Z01620180307X066018000
2MAIL0000065214BR23        BRG1        BRG1COCO    BRG1COCO13AG00000900000000001231189200000000000000100000000000000000000000004522Z01620180307X066005000
2MAIL0000065214BR23        BRG1        BRG1COCO    BRG1COCO13AG00001000000000001231231200000000000000100000000000000000000000004522Z01620180307X066005000
2MAIL0000065214BR23        BRG1        BRG1COCO    BRG1COCO13AG00001100000000001233081900000000000001400000000000000000000000004967Z01620180307X066009920
2MAIL0000065214BR23        BRG1        BRG1COCO    BRG1COCO13AG00001200000000001233098400000000000001400000000000000000000000004967Z01620180307X066009920
2MAIL0000065214BR23        BRG1        BRG1COCO    BRG1COCO13AG00001300000000001233098500000000000001400000000000000000000000004967Z01620180307X066009920
2MAIL0000065214BR23        BRG1        BRG1COCO    BRG1COCO13AG00001400000000001233098600000000000001400000000000000000000000004967Z01620180307X066009920
2MAIL0000065214BR23        BRG1        BRG1COCO    BRG1COCO13AG00001500000000001233154200000000000001400000000000000000000000004967Z01620180307X066009920
2MAIL0000065214BR23        BRG1        BRG1COCO    BRG1COCO13AG00001600000000001234705800000000000000100000000000000000000000004522Z01620180307X066005000
1MAIL0000065215BR23        BRG1        BRG1COCO    BRG1COCO13AG2018030600:00:00OR  01000003201697000320169765215                              2018030620180307Z009CIF201803070000000000193092NN0                                                  0
2MAIL0000065215BR23        BRG1        BRG1COCO    BRG1COCO13AG00000100000000001228090100000000000030000000000000000000000000193092Z00920180307X066004960
1MAIL0000065216BR23        BRG1        BRG1COCO    BRG1COCO13AG2018030600:00:00OR  01000003201697000320169765216                              2018030620180307Z016CIF201803070000000000274740NN0                                                  0
2MAIL0000065216BR23        BRG1        BRG1COCO    BRG1COCO13AG00000100000000001132030800000000000001200000000000000000000000037338Z01620180307X066018000
2MAIL0000065216BR23        BRG1        BRG1COCO    BRG1COCO13AG00000200000000001132030900000000000000400000000000000000000000012831Z01620180307X066018000
2MAIL0000065216BR23        BRG1        BRG1COCO    BRG1COCO13AG00000300000000001132033100000000000001000000000000000000000000016414Z01620180307X066015000
2MAIL0000065216BR23        BRG1        BRG1COCO    BRG1COCO13AG00000400000000001132033900000000000000400000000000000000000000013652Z01620180307X066018000
2MAIL0000065216BR23        BRG1        BRG1COCO    BRG1COCO13AG00000500000000001132036700000000000002000000000000000000000000032829Z01620180307X066015000
2MAIL0000065216BR23        BRG1        BRG1COCO    BRG1COCO13AG00000600000000001132200400000000000000600000000000000000000000010651Z01620180307X066004850
2MAIL0000065216BR23        BRG1        BRG1COCO    BRG1COCO13AG00000700000000001214451500000000000000500000000000000000000000027002Z01620180307X066020000
2MAIL0000065216BR23        BRG1        BRG1COCO    BRG1COCO13AG00000800000000001215533700000000000001000000000000000000000000016414Z01620180307X066015000
2MAIL0000065216BR23        BRG1        BRG1COCO    BRG1COCO13AG00000900000000001221415400000000000000600000000000000000000000021591Z01620180307X066025000
2MAIL0000065216BR23        BRG1        BRG1COCO    BRG1COCO13AG00001000000000001226089600000000000002400000000000000000000000007631Z01620180307X066006750
2MAIL0000065216BR23        BRG1        BRG1COCO    BRG1COCO13AG00001100000000001228100400000000000001000000000000000000000000021546Z01620180307X066018000
2MAIL0000065216BR23        BRG1        BRG1COCO    BRG1COCO13AG00001200000000001233081900000000000002800000000000000000000000009348Z01620180307X066006750
2MAIL0000065216BR23        BRG1        BRG1COCO    BRG1COCO13AG00001300000000001233098400000000000002800000000000000000000000009348Z01620180307X066006750
2MAIL0000065216BR23        BRG1        BRG1COCO    BRG1COCO13AG00001400000000001233098500000000000001400000000000000000000000004675Z01620180307X066006750
2MAIL0000065216BR23        BRG1        BRG1COCO    BRG1COCO13AG00001500000000001233098600000000000001400000000000000000000000004675Z01620180307X066006750
2MAIL0000065216BR23        BRG1        BRG1COCO    BRG1COCO13AG00001600000000001233098800000000000001400000000000000000000000004675Z01620180307X066006750
2MAIL0000065216BR23        BRG1        BRG1COCO    BRG1COCO13AG00001700000000001233099500000000000001400000000000000000000000004675Z01620180307X066006750
2MAIL0000065216BR23        BRG1        BRG1COCO    BRG1COCO13AG00001800000000001233154200000000000001400000000000000000000000004675Z01620180307X066006750
2MAIL0000065216BR23        BRG1        BRG1COCO    BRG1COCO13AG00001900000000001234708700000000000001400000000000000000000000004675Z01620180307X066006750
2MAIL0000065216BR23        BRG1        BRG1COCO    BRG1COCO13AG00002000000000001235699400000000000001000000000000000000000000003365Z01620180307X066006000
2MAIL0000065216BR23        BRG1        BRG1COCO    BRG1COCO13AG00002100000000001235699700000000000001000000000000000000000000003365Z01620180307X066006000
2MAIL0000065216BR23        BRG1        BRG1COCO    BRG1COCO13AG00002200000000001235699800000000000001000000000000000000000000003365Z01620180307X066006000
1MAIL0000065217BR23        BRG1        BRG1COCO    BRG1COCO13AG2018030600:00:00OR  01000002984816000298481665217                              2018030620180307Z016CIF201803070000000000193119NN0                                                  0
2MAIL0000065217BR23        BRG1        BRG1COCO    BRG1COCO13AG00000100000000001132019700000000000000100000000000000000000000002184Z01620180307X066005000
2MAIL0000065217BR23        BRG1        BRG1COCO    BRG1COCO13AG00000200000000001132019800000000000000100000000000000000000000002184Z01620180307X066005000
2MAIL0000065217BR23        BRG1        BRG1COCO    BRG1COCO13AG00000300000000001132019900000000000000100000000000000000000000002184Z01620180307X066005000
2MAIL0000065217BR23        BRG1        BRG1COCO    BRG1COCO13AG00000400000000001132020900000000000000100000000000000000000000002184Z01620180307X066005000
2MAIL0000065217BR23        BRG1        BRG1COCO    BRG1COCO13AG00000500000000001132030800000000000000400000000000000000000000011850Z01620180307X066018000
2MAIL0000065217BR23        BRG1        BRG1COCO    BRG1COCO13AG00000600000000001132033100000000000000600000000000000000000000009846Z01620180307X066015000
2MAIL0000065217BR23        BRG1        BRG1COCO    BRG1COCO13AG00000700000000001132034900000000000000500000000000000000000000007707Z01620180307X066015000
2MAIL0000065217BR23        BRG1        BRG1COCO    BRG1COCO13AG00000800000000001132035000000000000000500000000000000000000000008559Z01620180307X066015000
2MAIL0000065217BR23        BRG1        BRG1COCO    BRG1COCO13AG00000900000000001132035100000000000000500000000000000000000000008131Z01620180307X066015000
2MAIL0000065217BR23        BRG1        BRG1COCO    BRG1COCO13AG00001000000000001132036700000000000002000000000000000000000000032820Z01620180307X066015000
2MAIL0000065217BR23        BRG1        BRG1COCO    BRG1COCO13AG00001100000000001132400100000000000000100000000000000000000000003336Z01620180307X066005000
2MAIL0000065217BR23        BRG1        BRG1COCO    BRG1COCO13AG00001200000000001215533700000000000001000000000000000000000000016409Z01620180307X066015000
2MAIL0000065217BR23        BRG1        BRG1COCO    BRG1COCO13AG00001300000000001223975300000000000000100000000000000000000000004522Z01620180307X066005000
2MAIL0000065217BR23        BRG1        BRG1COCO    BRG1COCO13AG00001400000000001227395500000000000000500000000000000000000000008205Z01620180307X066015000
2MAIL0000065217BR23        BRG1        BRG1COCO    BRG1COCO13AG00001500000000001227735000000000000000100000000000000000000000002184Z01620180307X066005000
2MAIL0000065217BR23        BRG1        BRG1COCO    BRG1COCO13AG00001600000000001228274000000000000000100000000000000000000000004522Z01620180307X066005000
2MAIL0000065217BR23        BRG1        BRG1COCO    BRG1COCO13AG00001700000000001228512700000000000000100000000000000000000000004522Z01620180307X066005000
2MAIL0000065217BR23        BRG1        BRG1COCO    BRG1COCO13AG00001800000000001231189200000000000000100000000000000000000000004522Z01620180307X066005000
2MAIL0000065217BR23        BRG1        BRG1COCO    BRG1COCO13AG00001900000000001231231200000000000000100000000000000000000000004522Z01620180307X066005000
2MAIL0000065217BR23        BRG1        BRG1COCO    BRG1COCO13AG00002000000000001231389600000000000000500000000000000000000000008205Z01620180307X066015000
2MAIL0000065217BR23        BRG1        BRG1COCO    BRG1COCO13AG00002100000000001233081900000000000001400000000000000000000000004967Z01620180307X066009920
2MAIL0000065217BR23        BRG1        BRG1COCO    BRG1COCO13AG00002200000000001233098400000000000001400000000000000000000000004967Z01620180307X066009920
2MAIL0000065217BR23        BRG1        BRG1COCO    BRG1COCO13AG00002300000000001233098500000000000001400000000000000000000000004967Z01620180307X066009920
2MAIL0000065217BR23        BRG1        BRG1COCO    BRG1COCO13AG00002400000000001233098800000000000001400000000000000000000000004967Z01620180307X066009920
2MAIL0000065217BR23        BRG1        BRG1COCO    BRG1COCO13AG00002500000000001233695100000000000000500000000000000000000000008205Z01620180307X066015000
2MAIL0000065217BR23        BRG1        BRG1COCO    BRG1COCO13AG00002600000000001234705700000000000000100000000000000000000000004522Z01620180307X066005000
2MAIL0000065217BR23        BRG1        BRG1COCO    BRG1COCO13AG00002700000000001234705800000000000000100000000000000000000000004522Z01620180307X066005000
2MAIL0000065217BR23        BRG1        BRG1COCO    BRG1COCO13AG00002800000000001235699700000000000001000000000000000000000000003702Z01620180307X066006000
2MAIL0000065217BR23        BRG1        BRG1COCO    BRG1COCO13AG00002900000000001235699800000000000001000000000000000000000000003702Z01620180307X066006000
1MAIL0000065218BR23        BRG1        BRG1COCO    BRG1COCO13AG2018030600:00:00OR  01000005515895000551589565218                              2018030620180307Z859CIF201803070000000000011638NN0                                                  0
2MAIL0000065218BR23        BRG1        BRG1COCO    BRG1COCO13AG00000100000000001235737300000000000000400000000000000000000000011638Z85920180307X066000000
1MAIL0000065219BR23        BRG1        BRG1COCO    BRG1COCO13AG2018030600:00:00OR  01000005515895000551589565219                              2018030620180307Z016CIF201803070000000000139171NN0                                                  0
2MAIL0000065219BR23        BRG1        BRG1COCO    BRG1COCO13AG00000100000000001132019700000000000000200000000000000000000000004369Z01620180307X066005000
2MAIL0000065219BR23        BRG1        BRG1COCO    BRG1COCO13AG00000200000000001132019800000000000000200000000000000000000000004369Z01620180307X066005000
2MAIL0000065219BR23        BRG1        BRG1COCO    BRG1COCO13AG00000300000000001132019900000000000000300000000000000000000000006553Z01620180307X066005000
2MAIL0000065219BR23        BRG1        BRG1COCO    BRG1COCO13AG00000400000000001132020900000000000000200000000000000000000000004369Z01620180307X066005000
2MAIL0000065219BR23        BRG1        BRG1COCO    BRG1COCO13AG00000500000000001132033100000000000000200000000000000000000000003281Z01620180307X066015000
2MAIL0000065219BR23        BRG1        BRG1COCO    BRG1COCO13AG00000600000000001132036700000000000000100000000000000000000000001641Z01620180307X066015000
2MAIL0000065219BR23        BRG1        BRG1COCO    BRG1COCO13AG00000700000000001132200400000000000000500000000000000000000000008876Z01620180307X066004850
2MAIL0000065219BR23        BRG1        BRG1COCO    BRG1COCO13AG00000800000000001132213000000000000000300000000000000000000000011311Z01620180307X066004950
2MAIL0000065219BR23        BRG1        BRG1COCO    BRG1COCO13AG00000900000000001132213100000000000000300000000000000000000000011311Z01620180307X066004950
2MAIL0000065219BR23        BRG1        BRG1COCO    BRG1COCO13AG00001000000000001215533700000000000000100000000000000000000000001641Z01620180307X066015000
2MAIL0000065219BR23        BRG1        BRG1COCO    BRG1COCO13AG00001100000000001223975300000000000000100000000000000000000000004522Z01620180307X066005000
2MAIL0000065219BR23        BRG1        BRG1COCO    BRG1COCO13AG00001200000000001227395500000000000000100000000000000000000000001641Z01620180307X066015000
2MAIL0000065219BR23        BRG1        BRG1COCO    BRG1COCO13AG00001300000000001227735000000000000000300000000000000000000000006553Z01620180307X066005000
2MAIL0000065219BR23        BRG1        BRG1COCO    BRG1COCO13AG00001400000000001228100400000000000000100000000000000000000000002155Z01620180307X066018000
2MAIL0000065219BR23        BRG1        BRG1COCO    BRG1COCO13AG00001500000000001228274000000000000000200000000000000000000000009331Z01620180307X066002000
2MAIL0000065219BR23        BRG1        BRG1COCO    BRG1COCO13AG00001600000000001228512700000000000000200000000000000000000000009046Z01620180307X066005000
2MAIL0000065219BR23        BRG1        BRG1COCO    BRG1COCO13AG00001700000000001231189200000000000000200000000000000000000000009046Z01620180307X066005000
2MAIL0000065219BR23        BRG1        BRG1COCO    BRG1COCO13AG00001800000000001231231200000000000000200000000000000000000000009046Z01620180307X066005000
2MAIL0000065219BR23        BRG1        BRG1COCO    BRG1COCO13AG00001900000000001231389600000000000000100000000000000000000000001641Z01620180307X066015000
2MAIL0000065219BR23        BRG1        BRG1COCO    BRG1COCO13AG00002000000000001233081900000000000001400000000000000000000000004967Z01620180307X066009920
2MAIL0000065219BR23        BRG1        BRG1COCO    BRG1COCO13AG00002100000000001233098400000000000001400000000000000000000000004967Z01620180307X066009920
2MAIL0000065219BR23        BRG1        BRG1COCO    BRG1COCO13AG00002200000000001233099500000000000001400000000000000000000000004967Z01620180307X066009920
2MAIL0000065219BR23        BRG1        BRG1COCO    BRG1COCO13AG00002300000000001234705700000000000000200000000000000000000000009046Z01620180307X066005000
2MAIL0000065219BR23        BRG1        BRG1COCO    BRG1COCO13AG00002400000000001234705800000000000000100000000000000000000000004522Z01620180307X066005000
1MAIL0000065220BR23        BRG1        BRG1COCO    BRG1COCO13AG2018030600:00:00OR  01000004758774000475877465220                              2018030620180307Z016CIF201803070000000000087160NN0                                                  0
2MAIL0000065220BR23        BRG1        BRG1COCO    BRG1COCO13AG00000100000000001132034900000000000002000000000000000000000000028025Z01620180307X066015000
2MAIL0000065220BR23        BRG1        BRG1COCO    BRG1COCO13AG00000200000000001132035100000000000004000000000000000000000000059135Z01620180307X066015000
1MAIL0000065221BR23        BRG1        BRG1COCO    BRG1COCO13AG2018030600:00:00OR  01000004436567000443656765221                              2018030620180307Z016CIF201803070000000000087160NN0                                                  0
2MAIL0000065221BR23        BRG1        BRG1COCO    BRG1COCO13AG00000100000000001132034900000000000002000000000000000000000000028025Z01620180307X066015000
2MAIL0000065221BR23        BRG1        BRG1COCO    BRG1COCO13AG00000200000000001132035100000000000004000000000000000000000000059135Z01620180307X066015000
1MAIL0000065222BR23        BRG1        BRG1COCO    BRG1COCO13AG2018030600:00:00OR  01000004396550000439655065222                              2018030620180307Z016CIF201803070000000000263031NN0                                                  0
2MAIL0000065222BR23        BRG1        BRG1COCO    BRG1COCO13AG00000100000000001132034900000000000006000000000000000000000000084072Z01620180307X066015000
2MAIL0000065222BR23        BRG1        BRG1COCO    BRG1COCO13AG00000200000000001132035000000000000002000000000000000000000000031121Z01620180307X066015000
2MAIL0000065222BR23        BRG1        BRG1COCO    BRG1COCO13AG00000300000000001132035100000000000010000000000000000000000000147838Z01620180307X066015000
1MAIL0000065223BR23        BRG1        BRG1COCO    BRG1COCO13AG2018030600:00:00OR  01000003961165000396116565223                              2018030620180307Z016CIF201803070000000000118281NN0                                                  0
2MAIL0000065223BR23        BRG1        BRG1COCO    BRG1COCO13AG00000100000000001132034900000000000002000000000000000000000000028025Z01620180307X066015000
2MAIL0000065223BR23        BRG1        BRG1COCO    BRG1COCO13AG00000200000000001132035000000000000002000000000000000000000000031121Z01620180307X066015000
2MAIL0000065223BR23        BRG1        BRG1COCO    BRG1COCO13AG00000300000000001132035100000000000004000000000000000000000000059135Z01620180307X066015000
1MAIL0000065224BR23        BRG1        BRG1COCO    BRG1COCO13AG2018030600:00:00OR  01000003961164000396116465224                              2018030620180307Z016CIF201803070000000000057593NN0                                                  0
2MAIL0000065224BR23        BRG1        BRG1COCO    BRG1COCO13AG00000100000000001132034900000000000002000000000000000000000000028025Z01620180307X066015000
2MAIL0000065224BR23        BRG1        BRG1COCO    BRG1COCO13AG00000200000000001132035100000000000002000000000000000000000000029568Z01620180307X066015000
1MAIL0000065225BR23        BRG1        BRG1COCO    BRG1COCO13AG2018030600:00:00OR  01000003173420000317342065225                              2018030620180307Z016CIF201803070000000000287969NN0                                                  0
2MAIL0000065225BR23        BRG1        BRG1COCO    BRG1COCO13AG00000100000000001132034900000000000012000000000000000000000000168145Z01620180307X066015000
2MAIL0000065225BR23        BRG1        BRG1COCO    BRG1COCO13AG00000200000000001132035000000000000002000000000000000000000000031121Z01620180307X066015000
2MAIL0000065225BR23        BRG1        BRG1COCO    BRG1COCO13AG00000300000000001132035100000000000006000000000000000000000000088703Z01620180307X066015000
1MAIL0000065226BR23        BRG1        BRG1COCO    BRG1COCO13AG2018030600:00:00OR  01000000918676000091867665226                              2018030620180307Z016CIF201803070000000000475229NN0                                                  0
2MAIL0000065226BR23        BRG1        BRG1COCO    BRG1COCO13AG00000100000000001132033900000000000001200000000000000000000000040955Z01620180307X066018000
2MAIL0000065226BR23        BRG1        BRG1COCO    BRG1COCO13AG00000200000000001132034900000000000016000000000000000000000000224193Z01620180307X066015000
2MAIL0000065226BR23        BRG1        BRG1COCO    BRG1COCO13AG00000300000000001132035000000000000004000000000000000000000000062243Z01620180307X066015000
2MAIL0000065226BR23        BRG1        BRG1COCO    BRG1COCO13AG00000400000000001132035100000000000010000000000000000000000000147838Z01620180307X066015000
1MAIL0000065227BR23        BRG1        BRG1COCO    BRG1COCO13AG2018030600:00:00OR  01000000918664000091866465227                              2018030620180307Z016CIF201803070000000000460135NN0                                                  0
2MAIL0000065227BR23        BRG1        BRG1COCO    BRG1COCO13AG00000100000000001132033900000000000002400000000000000000000000081909Z01620180307X066018000
2MAIL0000065227BR23        BRG1        BRG1COCO    BRG1COCO13AG00000200000000001132034900000000000012000000000000000000000000168145Z01620180307X066015000
2MAIL0000065227BR23        BRG1        BRG1COCO    BRG1COCO13AG00000300000000001132035000000000000004000000000000000000000000062243Z01620180307X066015000
2MAIL0000065227BR23        BRG1        BRG1COCO    BRG1COCO13AG00000400000000001132035100000000000010000000000000000000000000147838Z01620180307X066015000
1MAIL0000065228BR23        BRG1        BRG1COCO    BRG1COCO13AG2018030600:00:00OR  01000000918653000091865365228                              2018030620180307Z016CIF201803070000000000070523NN0                                                  0
2MAIL0000065228BR23        BRG1        BRG1COCO    BRG1COCO13AG00000100000000001132033900000000000001200000000000000000000000040955Z01620180307X066018000
2MAIL0000065228BR23        BRG1        BRG1COCO    BRG1COCO13AG00000200000000001132035100000000000002000000000000000000000000029568Z01620180307X066015000
1MAIL0000065229BR23        BRG1        BRG1COCO    BRG1COCO13AG2018030600:00:00OR  01000000918642000091864265229                              2018030620180307Z016CIF201803070000000000397892NN0                                                  0
2MAIL0000065229BR23        BRG1        BRG1COCO    BRG1COCO13AG00000100000000001132033900000000000002400000000000000000000000081909Z01620180307X066018000
2MAIL0000065229BR23        BRG1        BRG1COCO    BRG1COCO13AG00000200000000001132034900000000000012000000000000000000000000168145Z01620180307X066015000
2MAIL0000065229BR23        BRG1        BRG1COCO    BRG1COCO13AG00000300000000001132035100000000000010000000000000000000000000147838Z01620180307X066015000
1MAIL0000065230BR23        BRG1        BRG1COCO    BRG1COCO13AG2018030600:00:00OR  01000003180257000318025765230                              2018030620180307Z016CIF201803070000000000972146NN0                                                  0
2MAIL0000065230BR23        BRG1        BRG1COCO    BRG1COCO13AG00000100000000001228090100000000000150000000000000000000000000972146Z01620180307X066004960
1MAIL0000065231BR23        BRG1        BRG1COCO    BRG1COCO13AG2018030600:00:00OR  01000002979970000297997065231                              2018030620180307Z016CIF201803070000000000972146NN0                                                  0
2MAIL0000065231BR23        BRG1        BRG1COCO    BRG1COCO13AG00000100000000001228090100000000000150000000000000000000000000972146Z01620180307X066004960
1MAIL0000065232BR23        BRG1        BRG1COCO    BRG1COCO13AG2018030600:00:00OR  01000002988774000298877465232                              2018030620180307Z016CIF201803070000000000221325NN0                                                  0
2MAIL0000065232BR23        BRG1        BRG1COCO    BRG1COCO13AG00000100000000001132019700000000000000200000000000000000000000004553Z01620180307X066005000
2MAIL0000065232BR23        BRG1        BRG1COCO    BRG1COCO13AG00000200000000001132019800000000000000200000000000000000000000004553Z01620180307X066005000
2MAIL0000065232BR23        BRG1        BRG1COCO    BRG1COCO13AG00000300000000001132019900000000000000200000000000000000000000004553Z01620180307X066005000
2MAIL0000065232BR23        BRG1        BRG1COCO    BRG1COCO13AG00000400000000001132020900000000000000200000000000000000000000004553Z01620180307X066005000
2MAIL0000065232BR23        BRG1        BRG1COCO    BRG1COCO13AG00000500000000001132213000000000000000500000000000000000000000019644Z01620180307X066004950
2MAIL0000065232BR23        BRG1        BRG1COCO    BRG1COCO13AG00000600000000001132213100000000000000500000000000000000000000019644Z01620180307X066004950
2MAIL0000065232BR23        BRG1        BRG1COCO    BRG1COCO13AG00000700000000001132400100000000000000100000000000000000000000003477Z01620180307X066005000
2MAIL0000065232BR23        BRG1        BRG1COCO    BRG1COCO13AG00000800000000001223975300000000000000300000000000000000000000014138Z01620180307X066005000
2MAIL0000065232BR23        BRG1        BRG1COCO    BRG1COCO13AG00000900000000001227735000000000000000200000000000000000000000004553Z01620180307X066005000
2MAIL0000065232BR23        BRG1        BRG1COCO    BRG1COCO13AG00001000000000001228274000000000000000300000000000000000000000014138Z01620180307X066005000
2MAIL0000065232BR23        BRG1        BRG1COCO    BRG1COCO13AG00001100000000001228512700000000000000300000000000000000000000014138Z01620180307X066005000
2MAIL0000065232BR23        BRG1        BRG1COCO    BRG1COCO13AG00001200000000001231189200000000000000300000000000000000000000014138Z01620180307X066005000
2MAIL0000065232BR23        BRG1        BRG1COCO    BRG1COCO13AG00001300000000001231231200000000000000300000000000000000000000014138Z01620180307X066005000
2MAIL0000065232BR23        BRG1        BRG1COCO    BRG1COCO13AG00001400000000001234705700000000000000300000000000000000000000014138Z01620180307X066005000
2MAIL0000065232BR23        BRG1        BRG1COCO    BRG1COCO13AG00001500000000001234705800000000000000300000000000000000000000014138Z01620180307X066005000
2MAIL0000065232BR23        BRG1        BRG1COCO    BRG1COCO13AG00001600000000001235356200000000000002000000000000000000000000045255Z01620180307X066000000
2MAIL0000065232BR23        BRG1        BRG1COCO    BRG1COCO13AG00001700000000001235699400000000000001000000000000000000000000003858Z01620180307X066006000
2MAIL0000065232BR23        BRG1        BRG1COCO    BRG1COCO13AG00001800000000001235699700000000000001000000000000000000000000003858Z01620180307X066006000
2MAIL0000065232BR23        BRG1        BRG1COCO    BRG1COCO13AG00001900000000001235699800000000000001000000000000000000000000003858Z01620180307X066006000
1MAIL0000065233BR23        BRG1        BRG1COCO    BRG1COCO13AG2018030600:00:00OR  01000002966874000296687465233                              2018030620180307Z016CIF201803070000000000032161NN0                                                  0
2MAIL0000065233BR23        BRG1        BRG1COCO    BRG1COCO13AG00000100000000001226089600000000000001200000000000000000000000004051Z01620180307X066010000
2MAIL0000065233BR23        BRG1        BRG1COCO    BRG1COCO13AG00000200000000001231189200000000000000100000000000000000000000004761Z01620180307X066000000
2MAIL0000065233BR23        BRG1        BRG1COCO    BRG1COCO13AG00000300000000001231231200000000000000100000000000000000000000004761Z01620180307X066000000
2MAIL0000065233BR23        BRG1        BRG1COCO    BRG1COCO13AG00000400000000001233081900000000000001400000000000000000000000004962Z01620180307X066010000
2MAIL0000065233BR23        BRG1        BRG1COCO    BRG1COCO13AG00000500000000001233098400000000000001400000000000000000000000004962Z01620180307X066010000
2MAIL0000065233BR23        BRG1        BRG1COCO    BRG1COCO13AG00000600000000001233098600000000000001400000000000000000000000004962Z01620180307X066010000
2MAIL0000065233BR23        BRG1        BRG1COCO    BRG1COCO13AG00000700000000001235699800000000000001000000000000000000000000003702Z01620180307X066006000
1MAIL0000065234BR23        BRG1        BRG1COCO    BRG1COCO13AG2018030600:00:00OR  01000004111654000411165465234                              2018030620180307Z016CIF201803070000000000595825NN0                                                  0
2MAIL0000065234BR23        BRG1        BRG1COCO    BRG1COCO13AG00000100000000001132034900000000000006000000000000000000000000085304Z01620180307X066012000
2MAIL0000065234BR23        BRG1        BRG1COCO    BRG1COCO13AG00000200000000001214448900000000000003600000000000000000000000214091Z01620180307X066018000
2MAIL0000065234BR23        BRG1        BRG1COCO    BRG1COCO13AG00000300000000001227395500000000000009600000000000000000000000148215Z01620180307X066007000
2MAIL0000065234BR23        BRG1        BRG1COCO    BRG1COCO13AG00000400000000001231389600000000000009600000000000000000000000148215Z01620180307X066007000
1MAIL0000065235BR23        BRG1        BRG1COCO    BRG1COCO13AG2018030600:00:00OR  01000004938087000493808765235                              2018030620180307Z016CIF201803070000000000023011NN0                                                  0
2MAIL0000065235BR23        BRG1        BRG1COCO    BRG1COCO13AG00000100000000001132036700000000000000300000000000000000000000004923Z01620180307X066015000
2MAIL0000065235BR23        BRG1        BRG1COCO    BRG1COCO13AG00000200000000001228274000000000000000100000000000000000000000004522Z01620180307X066005000
2MAIL0000065235BR23        BRG1        BRG1COCO    BRG1COCO13AG00000300000000001228512700000000000000100000000000000000000000004522Z01620180307X066005000
2MAIL0000065235BR23        BRG1        BRG1COCO    BRG1COCO13AG00000400000000001231189200000000000000100000000000000000000000004522Z01620180307X066005000
2MAIL0000065235BR23        BRG1        BRG1COCO    BRG1COCO13AG00000500000000001231231200000000000000100000000000000000000000004522Z01620180307X066005000
1MAIL0000065236BR23        BRG1        BRG1COCO    BRG1COCO13AG2018030600:00:00OR  01000004870585000487058565236                              2018030620180307Z016CIF201803070000000000025510NN0                                                  0
2MAIL0000065236BR23        BRG1        BRG1COCO    BRG1COCO13AG00000100000000001226089600000000000001200000000000000000000000004501Z01620180307X066000000
2MAIL0000065236BR23        BRG1        BRG1COCO    BRG1COCO13AG00000200000000001228100400000000000000200000000000000000000000004467Z01620180307X066015000
2MAIL0000065236BR23        BRG1        BRG1COCO    BRG1COCO13AG00000300000000001233098400000000000001400000000000000000000000005514Z01620180307X066000000
2MAIL0000065236BR23        BRG1        BRG1COCO    BRG1COCO13AG00000400000000001233098500000000000001400000000000000000000000005514Z01620180307X066000000
2MAIL0000065236BR23        BRG1        BRG1COCO    BRG1COCO13AG00000500000000001233154200000000000001400000000000000000000000005514Z01620180307X066000000
1MAIL0000065237BR23        BRG1        BRG1COCO    BRG1COCO13AG2018030600:00:00OR  01000003483136000348313665237                              2018030620180307Z016CIF201803070000000000042527NN0                                                  0
2MAIL0000065237BR23        BRG1        BRG1COCO    BRG1COCO13AG00000100000000001132019700000000000000100000000000000000000000002300Z01620180307X066000000
2MAIL0000065237BR23        BRG1        BRG1COCO    BRG1COCO13AG00000200000000001132019800000000000000100000000000000000000000002300Z01620180307X066000000
2MAIL0000065237BR23        BRG1        BRG1COCO    BRG1COCO13AG00000300000000001132019900000000000000100000000000000000000000002300Z01620180307X066000000
2MAIL0000065237BR23        BRG1        BRG1COCO    BRG1COCO13AG00000400000000001132020900000000000000100000000000000000000000002300Z01620180307X066000000
2MAIL0000065237BR23        BRG1        BRG1COCO    BRG1COCO13AG00000500000000001223975300000000000000100000000000000000000000004761Z01620180307X066000000
2MAIL0000065237BR23        BRG1        BRG1COCO    BRG1COCO13AG00000600000000001228274000000000000000100000000000000000000000004761Z01620180307X066000000
2MAIL0000065237BR23        BRG1        BRG1COCO    BRG1COCO13AG00000700000000001228512700000000000000100000000000000000000000004761Z01620180307X066000000
2MAIL0000065237BR23        BRG1        BRG1COCO    BRG1COCO13AG00000800000000001231189200000000000000100000000000000000000000004761Z01620180307X066000000
2MAIL0000065237BR23        BRG1        BRG1COCO    BRG1COCO13AG00000900000000001231231200000000000000100000000000000000000000004761Z01620180307X066000000
2MAIL0000065237BR23        BRG1        BRG1COCO    BRG1COCO13AG00001000000000001234705700000000000000100000000000000000000000004761Z01620180307X066000000
2MAIL0000065237BR23        BRG1        BRG1COCO    BRG1COCO13AG00001100000000001234705800000000000000100000000000000000000000004761Z01620180307X066000000
1MAIL0000065238BR23        BRG1        BRG1COCO    BRG1COCO13AG2018030600:00:00OR  01000005097813000509781365238                              2018030620180307Z859CIF201803070000000000033941NN0                                                  0
2MAIL0000065238BR23        BRG1        BRG1COCO    BRG1COCO13AG00000100000000001235356200000000000001500000000000000000000000033941Z85920180307X066000000
1MAIL0000065239BR23        BRG1        BRG1COCO    BRG1COCO13AG2018030600:00:00OR  01000005097813000509781365239                              2018030620180307Z016CIF201803070000000000389752NN0                                                  0
2MAIL0000065239BR23        BRG1        BRG1COCO    BRG1COCO13AG00000100000000001132033100000000000003200000000000000000000000052512Z01620180307X066015000
2MAIL0000065239BR23        BRG1        BRG1COCO    BRG1COCO13AG00000200000000001228090100000000000045000000000000000000000000320831Z01620180307X066004960
2MAIL0000065239BR23        BRG1        BRG1COCO    BRG1COCO13AG00000300000000001233695100000000000001000000000000000000000000016409Z01620180307X066015000
1MAIL0000065240BR23        BRG1        BRG1COCO    BRG1COCO13AG2018030600:00:00OR  01000005513865000551386565240                              2018030620180307Z016CIF201803070000000000023142NN0                                                  0
2MAIL0000065240BR23        BRG1        BRG1COCO    BRG1COCO13AG00000100000000001132019900000000000000100000000000000000000000002184Z01620180307X066005000
2MAIL0000065240BR23        BRG1        BRG1COCO    BRG1COCO13AG00000200000000001132020900000000000000100000000000000000000000002184Z01620180307X066005000
2MAIL0000065240BR23        BRG1        BRG1COCO    BRG1COCO13AG00000300000000001132033100000000000000200000000000000000000000003281Z01620180307X066015000
2MAIL0000065240BR23        BRG1        BRG1COCO    BRG1COCO13AG00000400000000001132036700000000000000200000000000000000000000003281Z01620180307X066015000
2MAIL0000065240BR23        BRG1        BRG1COCO    BRG1COCO13AG00000500000000001132200400000000000000100000000000000000000000001775Z01620180307X066004850
2MAIL0000065240BR23        BRG1        BRG1COCO    BRG1COCO13AG00000600000000001215533700000000000000100000000000000000000000001641Z01620180307X066015000
2MAIL0000065240BR23        BRG1        BRG1COCO    BRG1COCO13AG00000700000000001227395500000000000000100000000000000000000000001641Z01620180307X066015000
2MAIL0000065240BR23        BRG1        BRG1COCO    BRG1COCO13AG00000800000000001231389600000000000000100000000000000000000000001641Z01620180307X066015000
2MAIL0000065240BR23        BRG1        BRG1COCO    BRG1COCO13AG00000900000000001233098600000000000001400000000000000000000000005514Z01620180307X066000000
1MAIL0000065241BR23        BRG1        BRG1COCO    BRG1COCO13AG2018030600:00:00OR  01000004170390000417039065241                              2018030620180307Z016CIF201803070000000000075942NN0                                                  0
2MAIL0000065241BR23        BRG1        BRG1COCO    BRG1COCO13AG00000100000000001132030800000000000002400000000000000000000000069995Z01620180307X066015000
2MAIL0000065241BR23        BRG1        BRG1COCO    BRG1COCO13AG00000200000000001214448900000000000000100000000000000000000000005947Z01620180307X066018000
1MAIL0000065242BR23        BRG1        BRG1COCO    BRG1COCO13AG2018030600:00:00OR  01000000923133000092313365242                              2018030620180307Z016CIF201803070000000000162985NN0                                                  0
2MAIL0000065242BR23        BRG1        BRG1COCO    BRG1COCO13AG00000100000000001132034900000000000004000000000000000000000000056869Z01620180307X066012000
2MAIL0000065242BR23        BRG1        BRG1COCO    BRG1COCO13AG00000200000000001132213000000000000001800000000000000000000000053058Z01620180307X066004950
2MAIL0000065242BR23        BRG1        BRG1COCO    BRG1COCO13AG00000300000000001132213100000000000001800000000000000000000000053058Z01620180307X066004950
1MAIL0000065243BR23        BRG1        BRG1COCO    BRG1COCO13AG2018030600:00:00OR  01000004311551000431155165243                              2018030620180307Z016CIF201803070000000000021389NN0                                                  0
2MAIL0000065243BR23        BRG1        BRG1COCO    BRG1COCO13AG00000100000000001228090100000000000003000000000000000000000000021389Z01620180307X066004960
1MAIL0000065244BR23        BRG1        BRG1COCO    BRG1COCO13AG2018030600:00:00OR  01000005441037000544103765244                              2018030620180307Z016CIF201803070000000000007910NN0                                                  0
2MAIL0000065244BR23        BRG1        BRG1COCO    BRG1COCO13AG00000100000000001132036700000000000000100000000000000000000000001710Z01620180307X066015000
2MAIL0000065244BR23        BRG1        BRG1COCO    BRG1COCO13AG00000200000000001215533700000000000000100000000000000000000000001710Z01620180307X066015000
2MAIL0000065244BR23        BRG1        BRG1COCO    BRG1COCO13AG00000300000000001228100400000000000000200000000000000000000000004490Z01620180307X066018000
1MAIL0000065245BR23        BRG1        BRG1COCO    BRG1COCO13AG2018030600:00:00OR  01000005518705000551870565245                              2018030620180307Z016CIF201803070000000000017231NN0                                                  0
2MAIL0000065245BR23        BRG1        BRG1COCO    BRG1COCO13AG00000100000000001132033100000000000000200000000000000000000000003282Z01620180307X066015000
2MAIL0000065245BR23        BRG1        BRG1COCO    BRG1COCO13AG00000200000000001132036700000000000000100000000000000000000000001641Z01620180307X066015000
2MAIL0000065245BR23        BRG1        BRG1COCO    BRG1COCO13AG00000300000000001132213000000000000000100000000000000000000000003771Z01620180307X066004950
2MAIL0000065245BR23        BRG1        BRG1COCO    BRG1COCO13AG00000400000000001132213100000000000000100000000000000000000000003771Z01620180307X066004950
2MAIL0000065245BR23        BRG1        BRG1COCO    BRG1COCO13AG00000500000000001233099500000000000001400000000000000000000000004766Z01620180307X066013560
1MAIL0000065246BR23        BRG1        BRG1COCO    BRG1COCO13AG2018030600:00:00OR  01000005151440000515144065246                              2018030620180307Z016CIF201803070000000000019824NN0                                                  0
2MAIL0000065246BR23        BRG1        BRG1COCO    BRG1COCO13AG00000100000000001132033100000000000000200000000000000000000000003281Z01620180307X066015000
2MAIL0000065246BR23        BRG1        BRG1COCO    BRG1COCO13AG00000200000000001132036700000000000000400000000000000000000000006565Z01620180307X066015000
2MAIL0000065246BR23        BRG1        BRG1COCO    BRG1COCO13AG00000300000000001132200400000000000000100000000000000000000000001775Z01620180307X066004850
2MAIL0000065246BR23        BRG1        BRG1COCO    BRG1COCO13AG00000400000000001215533700000000000000200000000000000000000000003281Z01620180307X066015000
2MAIL0000065246BR23        BRG1        BRG1COCO    BRG1COCO13AG00000500000000001227395500000000000000200000000000000000000000003281Z01620180307X066015000
2MAIL0000065246BR23        BRG1        BRG1COCO    BRG1COCO13AG00000600000000001233695100000000000000100000000000000000000000001641Z01620180307X066015000
1MAIL0000065247BR23        BRG1        BRG1COCO    BRG1COCO13AG2018030600:00:00OR  01000003642921000364292165247                              2018030620180307Z009CIF201803070000000000070452NN0                                                  0
2MAIL0000065247BR23        BRG1        BRG1COCO    BRG1COCO13AG00000100000000001223975300000000000000200000000000000000000000009046Z00920180307X066005000
2MAIL0000065247BR23        BRG1        BRG1COCO    BRG1COCO13AG00000200000000001228090100000000000001000000000000000000000000007130Z00920180307X066004960
2MAIL0000065247BR23        BRG1        BRG1COCO    BRG1COCO13AG00000300000000001228274000000000000000200000000000000000000000009046Z00920180307X066005000
2MAIL0000065247BR23        BRG1        BRG1COCO    BRG1COCO13AG00000400000000001228512700000000000000200000000000000000000000009046Z00920180307X066005000
2MAIL0000065247BR23        BRG1        BRG1COCO    BRG1COCO13AG00000500000000001231189200000000000000200000000000000000000000009046Z00920180307X066005000
2MAIL0000065247BR23        BRG1        BRG1COCO    BRG1COCO13AG00000600000000001231231200000000000000200000000000000000000000009046Z00920180307X066005000
2MAIL0000065247BR23        BRG1        BRG1COCO    BRG1COCO13AG00000700000000001234705700000000000000200000000000000000000000009046Z00920180307X066005000
2MAIL0000065247BR23        BRG1        BRG1COCO    BRG1COCO13AG00000800000000001234705800000000000000200000000000000000000000009046Z00920180307X066005000
1MAIL0000065248BR23        BRG1        BRG1COCO    BRG1COCO13AG2018030600:00:00OR  01000003642921000364292165248                              2018030620180307Z016CIF201803070000000000063231NN0                                                  0
2MAIL0000065248BR23        BRG1        BRG1COCO    BRG1COCO13AG00000100000000001132019700000000000000200000000000000000000000004369Z01620180307X066005000
2MAIL0000065248BR23        BRG1        BRG1COCO    BRG1COCO13AG00000200000000001132019800000000000000200000000000000000000000004369Z01620180307X066005000
2MAIL0000065248BR23        BRG1        BRG1COCO    BRG1COCO13AG00000300000000001132019900000000000000200000000000000000000000004369Z01620180307X066005000
2MAIL0000065248BR23        BRG1        BRG1COCO    BRG1COCO13AG00000400000000001132020900000000000000200000000000000000000000004369Z01620180307X066005000
2MAIL0000065248BR23        BRG1        BRG1COCO    BRG1COCO13AG00000500000000001132033100000000000000200000000000000000000000003474Z01620180307X066010000
2MAIL0000065248BR23        BRG1        BRG1COCO    BRG1COCO13AG00000600000000001132036700000000000000300000000000000000000000005212Z01620180307X066010000
2MAIL0000065248BR23        BRG1        BRG1COCO    BRG1COCO13AG00000700000000001132400100000000000000200000000000000000000000006672Z01620180307X066005000
2MAIL0000065248BR23        BRG1        BRG1COCO    BRG1COCO13AG00000800000000001215533700000000000000200000000000000000000000003474Z01620180307X066010000
2MAIL0000065248BR23        BRG1        BRG1COCO    BRG1COCO13AG00000900000000001227395500000000000000200000000000000000000000003474Z01620180307X066010000
2MAIL0000065248BR23        BRG1        BRG1COCO    BRG1COCO13AG00001000000000001227735000000000000000200000000000000000000000004369Z01620180307X066005000
2MAIL0000065248BR23        BRG1        BRG1COCO    BRG1COCO13AG00001100000000001231389600000000000000200000000000000000000000003474Z01620180307X066010000
2MAIL0000065248BR23        BRG1        BRG1COCO    BRG1COCO13AG00001200000000001233098400000000000001400000000000000000000000005017Z01620180307X066009000
2MAIL0000065248BR23        BRG1        BRG1COCO    BRG1COCO13AG00001300000000001233154200000000000001400000000000000000000000005017Z01620180307X066009000
2MAIL0000065248BR23        BRG1        BRG1COCO    BRG1COCO13AG00001400000000001233695100000000000000200000000000000000000000003474Z01620180307X066010000
2MAIL0000065248BR23        BRG1        BRG1COCO    BRG1COCO13AG00001500000000001236512800000000000000600000000000000000000000001049Z01620180307X066000000
2MAIL0000065248BR23        BRG1        BRG1COCO    BRG1COCO13AG00001600000000001236514100000000000000600000000000000000000000001049Z01620180307X066000000
1MAIL0000065249BR23        BRG1        BRG1COCO    BRG1COCO13AG2018030600:00:00OR  01000002989458000298945865249                              2018030620180307Z016CIF201803070000000000213887NN0                                                  0
2MAIL0000065249BR23        BRG1        BRG1COCO    BRG1COCO13AG00000100000000001228090100000000000030000000000000000000000000213887Z01620180307X066004960
1MAIL0000065250BR23        BRG1        BRG1COCO    BRG1COCO13AG2018030600:00:00OR  01000004213242000421324265250                              2018030620180307Z016CIF201803070000000000027479NN0                                                  0
2MAIL0000065250BR23        BRG1        BRG1COCO    BRG1COCO13AG00000100000000001214470800000000000000500000000000000000000000027479Z01620180307X066020000
1MAIL0000065251BR23        BRG1        BRG1COCO    BRG1COCO13AG2018030600:00:00OR  01000002981644000298164465251                              2018030620180307Z016CIF201803070000000000213887NN0                                                  0
2MAIL0000065251BR23        BRG1        BRG1COCO    BRG1COCO13AG00000100000000001228090100000000000030000000000000000000000000213887Z01620180307X066004960
1MAIL0000065252BR23        BRG1        BRG1COCO    BRG1COCO13AG2018030600:00:00OR  01000003471050000347105065252                              2018030620180307ZG05CIF201803070000000000190714NN0                                                  0
2MAIL0000065252BR23        BRG1        BRG1COCO    BRG1COCO13AG00000100000000001228090100000000000030000000000000000000000000190714ZG0520180307X066004960
1MAIL0000065253BR23        BRG1        BRG1COCO    BRG1COCO13AG2018030600:00:00OR  01000002980339000298033965253                              2018030620180307Z016CIF201803070000000000194429NN0                                                  0
2MAIL0000065253BR23        BRG1        BRG1COCO    BRG1COCO13AG00000100000000001228090100000000000030000000000000000000000000194429Z01620180307X066004960
1MAIL0000065254BR23        BRG1        BRG1COCO    BRG1COCO13AG2018030600:00:00OR  01000002983186000298318665254                              2018030620180307Z016CIF201803070000000000213887NN0                                                  0
2MAIL0000065254BR23        BRG1        BRG1COCO    BRG1COCO13AG00000100000000001228090100000000000030000000000000000000000000213887Z01620180307X066004960
1MAIL0000065255BR23        BRG1        BRG1COCO    BRG1COCO13AG2018030600:00:00OR  01000003323617000332361765255                              2018030620180307ZG05CIF201803070000000000006778NN0                                                  0
2MAIL0000065255BR23        BRG1        BRG1COCO    BRG1COCO13AG00000100000000001132036700000000000000200000000000000000000000003474ZG0520180307X066012000
2MAIL0000065255BR23        BRG1        BRG1COCO    BRG1COCO13AG00000200000000001233695100000000000000100000000000000000000000001737ZG0520180307X066012000
2MAIL0000065255BR23        BRG1        BRG1COCO    BRG1COCO13AG00000300000000001236512900000000000000400000000000000000000000000627ZG0520180307X066005000
2MAIL0000065255BR23        BRG1        BRG1COCO    BRG1COCO13AG00000400000000001236515000000000000000600000000000000000000000000940ZG0520180307X066005000
1MAIL0000065256BR23        BRG1        BRG1COCO    BRG1COCO13AG2018030600:00:00OR  01000002933330000293333065256                              2018030620180307Z016CIF201803070000000000194429NN0                                                  0
2MAIL0000065256BR23        BRG1        BRG1COCO    BRG1COCO13AG00000100000000001228090100000000000030000000000000000000000000194429Z01620180307X066004960
1MAIL0000065257BR23        BRG1        BRG1COCO    BRG1COCO13AG2018030600:00:00OR  01000001367015000136701565257                              2018030620180307Z016CIF201803070000000000388858NN0                                                  0
2MAIL0000065257BR23        BRG1        BRG1COCO    BRG1COCO13AG00000100000000001228090100000000000060000000000000000000000000388858Z01620180307X066004960
1MAIL0000065258BR23        BRG1        BRG1COCO    BRG1COCO13AG2018030600:00:00OR  01000005148786000514878665258                              2018030620180307Z859CIF201803070000000000064972NN0                                                  0
2MAIL0000065258BR23        BRG1        BRG1COCO    BRG1COCO13AG00000100000000001233114700000000000000600000000000000000000000007755Z85920180307X066000000
2MAIL0000065258BR23        BRG1        BRG1COCO    BRG1COCO13AG00000200000000001235356200000000000001500000000000000000000000033941Z85920180307X066000000
2MAIL0000065258BR23        BRG1        BRG1COCO    BRG1COCO13AG00000300000000001235737300000000000000800000000000000000000000023276Z85920180307X066000000
1MAIL0000065259BR23        BRG1        BRG1COCO    BRG1COCO13AG2018030600:00:00OR  01000004764943000476494365259                              2018030620180307Z859CIF201803070000000000014870NN0                                                  0
2MAIL0000065259BR23        BRG1        BRG1COCO    BRG1COCO13AG00000100000000001235356200000000000000400000000000000000000000009051Z85920180307X066000000
2MAIL0000065259BR23        BRG1        BRG1COCO    BRG1COCO13AG00000200000000001235737300000000000000200000000000000000000000005819Z85920180307X066000000
1MAIL0000065260BR23        BRG1        BRG1COCO    BRG1COCO13AG2018030600:00:00OR  01000004892751000489275165260                              2018030620180307Z016CIF201803070000000000016164NN0                                                  0
2MAIL0000065260BR23        BRG1        BRG1COCO    BRG1COCO13AG00000100000000001235356200000000000000200000000000000000000000004526Z01620180307X066000000
2MAIL0000065260BR23        BRG1        BRG1COCO    BRG1COCO13AG00000200000000001235699500000000000000200000000000000000000000005819Z01620180307X066000000
2MAIL0000065260BR23        BRG1        BRG1COCO    BRG1COCO13AG00000300000000001235737300000000000000200000000000000000000000005819Z01620180307X066000000
1MAIL0000065261BR23        BRG1        BRG1COCO    BRG1COCO13AG2018030600:00:00OR  01000005202756000520275665261                              2018030620180307Z016CIF201803070000000000015124NN0                                                  0
2MAIL0000065261BR23        BRG1        BRG1COCO    BRG1COCO13AG00000100000000001132018300000000000000100000000000000000000000003598Z01620180307X066025000
2MAIL0000065261BR23        BRG1        BRG1COCO    BRG1COCO13AG00000200000000001132033100000000000000200000000000000000000000003282Z01620180307X066015000
2MAIL0000065261BR23        BRG1        BRG1COCO    BRG1COCO13AG00000300000000001132036700000000000000200000000000000000000000003282Z01620180307X066015000
2MAIL0000065261BR23        BRG1        BRG1COCO    BRG1COCO13AG00000400000000001233098400000000000001400000000000000000000000004962Z01620180307X066010000
1MAIL0000065262BR23        BRG1        BRG1COCO    BRG1COCO13AG2018030600:00:00OR  01000004435595000443559565262                              2018030620180307Z016CIF201803070000000000016162NN0                                                  0
2MAIL0000065262BR23        BRG1        BRG1COCO    BRG1COCO13AG00000100000000001233114700000000000000200000000000000000000000002585Z01620180307X066000000
2MAIL0000065262BR23        BRG1        BRG1COCO    BRG1COCO13AG00000200000000001235356200000000000000600000000000000000000000013577Z01620180307X066000000
1MAIL0000065263BR23        BRG1        BRG1COCO    BRG1COCO13AG2018030600:00:00OR  01000002850419000285041965263                              2018030620180307Z016CIF201803070000000000407353NN0                                                  0
2MAIL0000065263BR23        BRG1        BRG1COCO    BRG1COCO13AG00000100000000001132019700000000000000300000000000000000000000006553Z01620180307X066005000
2MAIL0000065263BR23        BRG1        BRG1COCO    BRG1COCO13AG00000200000000001132030800000000000001200000000000000000000000038704Z01620180307X066015000
2MAIL0000065263BR23        BRG1        BRG1COCO    BRG1COCO13AG00000300000000001132033100000000000003200000000000000000000000052525Z01620180307X066015000
2MAIL0000065263BR23        BRG1        BRG1COCO    BRG1COCO13AG00000400000000001132034900000000000002000000000000000000000000028025Z01620180307X066015000
2MAIL0000065263BR23        BRG1        BRG1COCO    BRG1COCO13AG00000500000000001132036700000000000006400000000000000000000000105051Z01620180307X066015000
2MAIL0000065263BR23        BRG1        BRG1COCO    BRG1COCO13AG00000600000000001132200400000000000002400000000000000000000000042629Z01620180307X066004800
2MAIL0000065263BR23        BRG1        BRG1COCO    BRG1COCO13AG00000700000000001233098400000000000011200000000000000000000000037392Z01620180307X066006750
2MAIL0000065263BR23        BRG1        BRG1COCO    BRG1COCO13AG00000800000000001233098500000000000011200000000000000000000000037392Z01620180307X066006750
2MAIL0000065263BR23        BRG1        BRG1COCO    BRG1COCO13AG00000900000000001233099500000000000005600000000000000000000000018696Z01620180307X066006750
2MAIL0000065263BR23        BRG1        BRG1COCO    BRG1COCO13AG00001000000000001235699400000000000004000000000000000000000000013462Z01620180307X066006000
2MAIL0000065263BR23        BRG1        BRG1COCO    BRG1COCO13AG00001100000000001235699700000000000004000000000000000000000000013462Z01620180307X066006000
2MAIL0000065263BR23        BRG1        BRG1COCO    BRG1COCO13AG00001200000000001235699800000000000004000000000000000000000000013462Z01620180307X066006000
