1MAIL0000064947BR23        BRG1        BRG1COCO    BRG1COCO13AG2018030200:00:00OR  01000003952132000395213264947                              2018030220180303Z859CIF201803030000000000042670NN0                                                  0
2MAIL0000064947BR23        BRG1        BRG1COCO    BRG1COCO13AG00000100000000001235356200000000000001500000000000000000000000033941Z85920180303X066000000
2MAIL0000064947BR23        BRG1        BRG1COCO    BRG1COCO13AG00000200000000001235737300000000000000300000000000000000000000008729Z85920180303X066000000
1MAIL0000064948BR23        BRG1        BRG1COCO    BRG1COCO13AG2018030200:00:00OR  01000003952132000395213264948                              2018030220180303Z016CIF201803030000000000020522NN0                                                  0
2MAIL0000064948BR23        BRG1        BRG1COCO    BRG1COCO13AG00000100000000001132033100000000000000600000000000000000000000010261Z01620180303X066015000
2MAIL0000064948BR23        BRG1        BRG1COCO    BRG1COCO13AG00000200000000001132036700000000000000600000000000000000000000010261Z01620180303X066015000
1MAIL0000064951BR23        BRG1        BRG1COCO    BRG1COCO13AG2018030200:00:00OR  01000003869289000386928964951                              2018030220180303Z016CIF201803030000000000065163NN0                                                  0
2MAIL0000064951BR23        BRG1        BRG1COCO    BRG1COCO13AG00000100000000001132018300000000000000100000000000000000000000003598Z01620180303X066025000
2MAIL0000064951BR23        BRG1        BRG1COCO    BRG1COCO13AG00000200000000001132019800000000000000100000000000000000000000002184Z01620180303X066005000
2MAIL0000064951BR23        BRG1        BRG1COCO    BRG1COCO13AG00000300000000001132019900000000000000100000000000000000000000002184Z01620180303X066005000
2MAIL0000064951BR23        BRG1        BRG1COCO    BRG1COCO13AG00000400000000001132033100000000000000100000000000000000000000001641Z01620180303X066015000
2MAIL0000064951BR23        BRG1        BRG1COCO    BRG1COCO13AG00000500000000001132036700000000000000300000000000000000000000004923Z01620180303X066015000
2MAIL0000064951BR23        BRG1        BRG1COCO    BRG1COCO13AG00000600000000001132200400000000000000100000000000000000000000001775Z01620180303X066004850
2MAIL0000064951BR23        BRG1        BRG1COCO    BRG1COCO13AG00000700000000001215533700000000000000100000000000000000000000001641Z01620180303X066015000
2MAIL0000064951BR23        BRG1        BRG1COCO    BRG1COCO13AG00000800000000001221415400000000000000100000000000000000000000003598Z01620180303X066025000
2MAIL0000064951BR23        BRG1        BRG1COCO    BRG1COCO13AG00000900000000001226089600000000000001200000000000000000000000003816Z01620180303X066006750
2MAIL0000064951BR23        BRG1        BRG1COCO    BRG1COCO13AG00001000000000001227395500000000000000100000000000000000000000001641Z01620180303X066015000
2MAIL0000064951BR23        BRG1        BRG1COCO    BRG1COCO13AG00001100000000001228100400000000000000300000000000000000000000006464Z01620180303X066018000
2MAIL0000064951BR23        BRG1        BRG1COCO    BRG1COCO13AG00001200000000001228512700000000000000100000000000000000000000004112Z01620180303X066005000
2MAIL0000064951BR23        BRG1        BRG1COCO    BRG1COCO13AG00001300000000001231189200000000000000100000000000000000000000004112Z01620180303X066005000
2MAIL0000064951BR23        BRG1        BRG1COCO    BRG1COCO13AG00001400000000001231389600000000000000100000000000000000000000001641Z01620180303X066015000
2MAIL0000064951BR23        BRG1        BRG1COCO    BRG1COCO13AG00001500000000001233081900000000000001400000000000000000000000004675Z01620180303X066006750
2MAIL0000064951BR23        BRG1        BRG1COCO    BRG1COCO13AG00001600000000001233098400000000000001400000000000000000000000004675Z01620180303X066006750
2MAIL0000064951BR23        BRG1        BRG1COCO    BRG1COCO13AG00001700000000001233695100000000000000100000000000000000000000001641Z01620180303X066015000
2MAIL0000064951BR23        BRG1        BRG1COCO    BRG1COCO13AG00001800000000001234705700000000000000100000000000000000000000004112Z01620180303X066005000
2MAIL0000064951BR23        BRG1        BRG1COCO    BRG1COCO13AG00001900000000001235699700000000000001000000000000000000000000003365Z01620180303X066006000
2MAIL0000064951BR23        BRG1        BRG1COCO    BRG1COCO13AG00002000000000001235699800000000000001000000000000000000000000003365Z01620180303X066006000
1MAIL0000064952BR23        BRG1        BRG1COCO    BRG1COCO13AG2018030200:00:00OR  01000002856941000285694164952                              2018030220180303Z016CIF201803030000000000065356NN0                                                  0
2MAIL0000064952BR23        BRG1        BRG1COCO    BRG1COCO13AG00000100000000001132036700000000000000400000000000000000000000006566Z01620180303X066015000
2MAIL0000064952BR23        BRG1        BRG1COCO    BRG1COCO13AG00000200000000001226089600000000000002400000000000000000000000007631Z01620180303X066006750
2MAIL0000064952BR23        BRG1        BRG1COCO    BRG1COCO13AG00000300000000001228100400000000000000500000000000000000000000010773Z01620180303X066018000
2MAIL0000064952BR23        BRG1        BRG1COCO    BRG1COCO13AG00000400000000001235699400000000000004000000000000000000000000013462Z01620180303X066006000
2MAIL0000064952BR23        BRG1        BRG1COCO    BRG1COCO13AG00000500000000001235699700000000000004000000000000000000000000013462Z01620180303X066006000
2MAIL0000064952BR23        BRG1        BRG1COCO    BRG1COCO13AG00000600000000001235699800000000000004000000000000000000000000013462Z01620180303X066006000
