1MAIL0000066042BR23        BRG1        BRG1COCO    BRG1COCO13AG2018030800:00:00OR  01000004945402000494540266042                              2018030820180310Z016CIF201803100000000000014598NN0                                                  0
2MAIL0000066042BR23        BRG1        BRG1COCO    BRG1COCO13AG00000100000000001233098400000000000001400000000000000000000000004866Z01620180310X066010000
2MAIL0000066042BR23        BRG1        BRG1COCO    BRG1COCO13AG00000200000000001233098600000000000001400000000000000000000000004866Z01620180310X066010000
2MAIL0000066042BR23        BRG1        BRG1COCO    BRG1COCO13AG00000300000000001233099500000000000001400000000000000000000000004866Z01620180310X066010000
1MAIL0000066043BR23        BRG1        BRG1COCO    BRG1COCO13AG2018030800:00:00OR  01000004945402000494540266043                              2018030820180310Z859CIF201803100000000000010345NN0                                                  0
2MAIL0000066043BR23        BRG1        BRG1COCO    BRG1COCO13AG00000100000000001235356200000000000000200000000000000000000000004526Z85920180310X066000000
2MAIL0000066043BR23        BRG1        BRG1COCO    BRG1COCO13AG00000200000000001235737300000000000000200000000000000000000000005819Z85920180310X066000000
1MAIL0000066044BR23        BRG1        BRG1COCO    BRG1COCO13AG2018030800:00:00OR  01000004111654000411165466044                              2018030820180310Z016CIF201803100000000001132875NN0                                                  0
2MAIL0000066044BR23        BRG1        BRG1COCO    BRG1COCO13AG00000100000000001132004000000000000006000000000000000000000000046320Z01620180310X066000000
2MAIL0000066044BR23        BRG1        BRG1COCO    BRG1COCO13AG00000200000000001132004200000000000006000000000000000000000000070386Z01620180310X066000000
2MAIL0000066044BR23        BRG1        BRG1COCO    BRG1COCO13AG00000300000000001224882700000000000001200000000000000000000000029461Z01620180310X066005000
2MAIL0000066044BR23        BRG1        BRG1COCO    BRG1COCO13AG00000400000000001224882800000000000001200000000000000000000000029461Z01620180310X066005000
2MAIL0000066044BR23        BRG1        BRG1COCO    BRG1COCO13AG00000500000000001228134700000000000001200000000000000000000000029461Z01620180310X066005000
2MAIL0000066044BR23        BRG1        BRG1COCO    BRG1COCO13AG00000600000000001228274000000000000003000000000000000000000000106137Z01620180310X066004950
2MAIL0000066044BR23        BRG1        BRG1COCO    BRG1COCO13AG00000700000000001228512700000000000006000000000000000000000000212275Z01620180310X066004950
2MAIL0000066044BR23        BRG1        BRG1COCO    BRG1COCO13AG00000800000000001231231200000000000002800000000000000000000000099010Z01620180310X066005000
2MAIL0000066044BR23        BRG1        BRG1COCO    BRG1COCO13AG00000900000000001231417800000000000001200000000000000000000000029461Z01620180310X066005000
2MAIL0000066044BR23        BRG1        BRG1COCO    BRG1COCO13AG00001000000000001234705700000000000010700000000000000000000000378358Z01620180310X066005000
2MAIL0000066044BR23        BRG1        BRG1COCO    BRG1COCO13AG00001100000000001234705800000000000002900000000000000000000000102545Z01620180310X066005000
1MAIL0000066045BR23        BRG1        BRG1COCO    BRG1COCO13AG2018030800:00:00OR  01000004111654000411165466045                              2018030820180310Z016CIF201803100000000002629207NN0                                                  0
2MAIL0000066045BR23        BRG1        BRG1COCO    BRG1COCO13AG00000100000000001132213000000000000010800000000000000000000000318348Z01620180310X066004950
2MAIL0000066045BR23        BRG1        BRG1COCO    BRG1COCO13AG00000200000000001132213100000000000016800000000000000000000000495208Z01620180310X066004950
2MAIL0000066045BR23        BRG1        BRG1COCO    BRG1COCO13AG00000300000000001233081900000000000022400000000000000000000000076104Z01620180310X066000100
2MAIL0000066045BR23        BRG1        BRG1COCO    BRG1COCO13AG00000400000000001233098400000000000056000000000000000000000000190263Z01620180310X066000100
2MAIL0000066045BR23        BRG1        BRG1COCO    BRG1COCO13AG00000500000000001233098500000000000056000000000000000000000000190263Z01620180310X066000100
2MAIL0000066045BR23        BRG1        BRG1COCO    BRG1COCO13AG00000600000000001233098600000000000056000000000000000000000000190263Z01620180310X066000100
2MAIL0000066045BR23        BRG1        BRG1COCO    BRG1COCO13AG00000700000000001233098800000000000056000000000000000000000000190263Z01620180310X066000100
2MAIL0000066045BR23        BRG1        BRG1COCO    BRG1COCO13AG00000800000000001233099500000000000056000000000000000000000000190263Z01620180310X066000100
2MAIL0000066045BR23        BRG1        BRG1COCO    BRG1COCO13AG00000900000000001233154200000000000056000000000000000000000000190263Z01620180310X066000100
2MAIL0000066045BR23        BRG1        BRG1COCO    BRG1COCO13AG00001000000000001234708700000000000056000000000000000000000000190263Z01620180310X066000100
2MAIL0000066045BR23        BRG1        BRG1COCO    BRG1COCO13AG00001100000000001235699400000000000040000000000000000000000000135902Z01620180310X066000100
2MAIL0000066045BR23        BRG1        BRG1COCO    BRG1COCO13AG00001200000000001235699700000000000040000000000000000000000000135902Z01620180310X066000100
2MAIL0000066045BR23        BRG1        BRG1COCO    BRG1COCO13AG00001300000000001235699800000000000040000000000000000000000000135902Z01620180310X066000100
1MAIL0000066046BR23        BRG1        BRG1COCO    BRG1COCO13AG2018030800:00:00OR  01000001038518000103851866046                              2018030820180310Z016CIF201803100000000002189191NN0                                                  0
2MAIL0000066046BR23        BRG1        BRG1COCO    BRG1COCO13AG00000100000000001224882700000000000001200000000000000000000000034257Z01620180310X066005000
2MAIL0000066046BR23        BRG1        BRG1COCO    BRG1COCO13AG00000200000000001224882800000000000001200000000000000000000000034257Z01620180310X066005000
2MAIL0000066046BR23        BRG1        BRG1COCO    BRG1COCO13AG00000300000000001226089600000000000048000000000000000000000000152621Z01620180310X066006750
2MAIL0000066046BR23        BRG1        BRG1COCO    BRG1COCO13AG00000400000000001228134700000000000001200000000000000000000000034257Z01620180310X066005000
2MAIL0000066046BR23        BRG1        BRG1COCO    BRG1COCO13AG00000500000000001231417800000000000001200000000000000000000000034257Z01620180310X066005000
2MAIL0000066046BR23        BRG1        BRG1COCO    BRG1COCO13AG00000600000000001233081900000000000056000000000000000000000000186961Z01620180310X066006750
2MAIL0000066046BR23        BRG1        BRG1COCO    BRG1COCO13AG00000700000000001233098400000000000056000000000000000000000000186961Z01620180310X066006750
2MAIL0000066046BR23        BRG1        BRG1COCO    BRG1COCO13AG00000800000000001233098500000000000056000000000000000000000000186961Z01620180310X066006750
2MAIL0000066046BR23        BRG1        BRG1COCO    BRG1COCO13AG00000900000000001233098600000000000056000000000000000000000000186961Z01620180310X066006750
2MAIL0000066046BR23        BRG1        BRG1COCO    BRG1COCO13AG00001000000000001233098800000000000056000000000000000000000000186961Z01620180310X066006750
2MAIL0000066046BR23        BRG1        BRG1COCO    BRG1COCO13AG00001100000000001233099500000000000056000000000000000000000000186961Z01620180310X066006750
2MAIL0000066046BR23        BRG1        BRG1COCO    BRG1COCO13AG00001200000000001233154200000000000056000000000000000000000000186961Z01620180310X066006750
2MAIL0000066046BR23        BRG1        BRG1COCO    BRG1COCO13AG00001300000000001234708700000000000056000000000000000000000000186961Z01620180310X066006750
2MAIL0000066046BR23        BRG1        BRG1COCO    BRG1COCO13AG00001400000000001235699400000000000040000000000000000000000000134618Z01620180310X066006000
2MAIL0000066046BR23        BRG1        BRG1COCO    BRG1COCO13AG00001500000000001235699700000000000040000000000000000000000000134618Z01620180310X066006000
2MAIL0000066046BR23        BRG1        BRG1COCO    BRG1COCO13AG00001600000000001235699800000000000040000000000000000000000000134618Z01620180310X066006000
1MAIL0000066047BR23        BRG1        BRG1COCO    BRG1COCO13AG2018030800:00:00OR  01000000942641000094264166047                              2018030820180310Z016CIF201803100000000001956444NN0                                                  0
2MAIL0000066047BR23        BRG1        BRG1COCO    BRG1COCO13AG00000100000000001224882700000000000001200000000000000000000000034257Z01620180310X066005000
2MAIL0000066047BR23        BRG1        BRG1COCO    BRG1COCO13AG00000200000000001224882800000000000001200000000000000000000000034257Z01620180310X066005000
2MAIL0000066047BR23        BRG1        BRG1COCO    BRG1COCO13AG00000300000000001226089600000000000033600000000000000000000000106835Z01620180310X066006750
2MAIL0000066047BR23        BRG1        BRG1COCO    BRG1COCO13AG00000400000000001228134700000000000001200000000000000000000000034257Z01620180310X066005000
2MAIL0000066047BR23        BRG1        BRG1COCO    BRG1COCO13AG00000500000000001231417800000000000001200000000000000000000000034257Z01620180310X066005000
2MAIL0000066047BR23        BRG1        BRG1COCO    BRG1COCO13AG00000600000000001233081900000000000056000000000000000000000000186961Z01620180310X066006750
2MAIL0000066047BR23        BRG1        BRG1COCO    BRG1COCO13AG00000700000000001233098400000000000056000000000000000000000000186961Z01620180310X066006750
2MAIL0000066047BR23        BRG1        BRG1COCO    BRG1COCO13AG00000800000000001233098500000000000056000000000000000000000000186961Z01620180310X066006750
2MAIL0000066047BR23        BRG1        BRG1COCO    BRG1COCO13AG00000900000000001233098600000000000056000000000000000000000000186961Z01620180310X066006750
2MAIL0000066047BR23        BRG1        BRG1COCO    BRG1COCO13AG00001000000000001233099500000000000056000000000000000000000000186961Z01620180310X066006750
2MAIL0000066047BR23        BRG1        BRG1COCO    BRG1COCO13AG00001100000000001233154200000000000056000000000000000000000000186961Z01620180310X066006750
2MAIL0000066047BR23        BRG1        BRG1COCO    BRG1COCO13AG00001200000000001234708700000000000056000000000000000000000000186961Z01620180310X066006750
2MAIL0000066047BR23        BRG1        BRG1COCO    BRG1COCO13AG00001300000000001235699400000000000040000000000000000000000000134618Z01620180310X066006000
2MAIL0000066047BR23        BRG1        BRG1COCO    BRG1COCO13AG00001400000000001235699700000000000040000000000000000000000000134618Z01620180310X066006000
2MAIL0000066047BR23        BRG1        BRG1COCO    BRG1COCO13AG00001500000000001235699800000000000040000000000000000000000000134618Z01620180310X066006000
1MAIL0000066048BR23        BRG1        BRG1COCO    BRG1COCO13AG2018030800:00:00OR  01000005117686000511768666048                              2018030820180310Z016CIF201803100000000000051486NN0                                                  0
2MAIL0000066048BR23        BRG1        BRG1COCO    BRG1COCO13AG00000100000000001132033100000000000000600000000000000000000000009849Z01620180310X066015000
2MAIL0000066048BR23        BRG1        BRG1COCO    BRG1COCO13AG00000200000000001132036700000000000000800000000000000000000000013131Z01620180310X066015000
2MAIL0000066048BR23        BRG1        BRG1COCO    BRG1COCO13AG00000300000000001132200400000000000001000000000000000000000000018657Z01620180310X066000000
2MAIL0000066048BR23        BRG1        BRG1COCO    BRG1COCO13AG00000400000000001215533700000000000000600000000000000000000000009849Z01620180310X066015000
1MAIL0000066049BR23        BRG1        BRG1COCO    BRG1COCO13AG2018030800:00:00OR  01000003909150000390915066049                              2018030820180310Z016CIF201803100000000000066150NN0                                                  0
2MAIL0000066049BR23        BRG1        BRG1COCO    BRG1COCO13AG00000100000000001132200400000000000001000000000000000000000000018657Z01620180310X066000000
2MAIL0000066049BR23        BRG1        BRG1COCO    BRG1COCO13AG00000200000000001228090100000000000003000000000000000000000000019443Z01620180310X066004960
2MAIL0000066049BR23        BRG1        BRG1COCO    BRG1COCO13AG00000300000000001233081900000000000001400000000000000000000000004675Z01620180310X066006750
2MAIL0000066049BR23        BRG1        BRG1COCO    BRG1COCO13AG00000400000000001233098400000000000001400000000000000000000000004675Z01620180310X066006750
2MAIL0000066049BR23        BRG1        BRG1COCO    BRG1COCO13AG00000500000000001233098500000000000001400000000000000000000000004675Z01620180310X066006750
2MAIL0000066049BR23        BRG1        BRG1COCO    BRG1COCO13AG00000600000000001233098600000000000001400000000000000000000000004675Z01620180310X066006750
2MAIL0000066049BR23        BRG1        BRG1COCO    BRG1COCO13AG00000700000000001233098800000000000001400000000000000000000000004675Z01620180310X066006750
2MAIL0000066049BR23        BRG1        BRG1COCO    BRG1COCO13AG00000800000000001233099500000000000001400000000000000000000000004675Z01620180310X066006750
1MAIL0000066050BR23        BRG1        BRG1COCO    BRG1COCO13AG2018030800:00:00OR  01000002934939000293493966050                              2018030820180310Z016CIF201803100000000000080279NN0                                                  0
2MAIL0000066050BR23        BRG1        BRG1COCO    BRG1COCO13AG00000100000000001132033100000000000000600000000000000000000000009849Z01620180310X066015000
2MAIL0000066050BR23        BRG1        BRG1COCO    BRG1COCO13AG00000200000000001132036700000000000000800000000000000000000000013131Z01620180310X066015000
2MAIL0000066050BR23        BRG1        BRG1COCO    BRG1COCO13AG00000300000000001132200400000000000001000000000000000000000000018657Z01620180310X066000000
2MAIL0000066050BR23        BRG1        BRG1COCO    BRG1COCO13AG00000400000000001215533700000000000000600000000000000000000000009849Z01620180310X066015000
2MAIL0000066050BR23        BRG1        BRG1COCO    BRG1COCO13AG00000500000000001228090100000000000003000000000000000000000000019443Z01620180310X066004960
2MAIL0000066050BR23        BRG1        BRG1COCO    BRG1COCO13AG00000600000000001233081900000000000001400000000000000000000000004675Z01620180310X066006750
2MAIL0000066050BR23        BRG1        BRG1COCO    BRG1COCO13AG00000700000000001233098400000000000001400000000000000000000000004675Z01620180310X066006750
1MAIL0000066051BR23        BRG1        BRG1COCO    BRG1COCO13AG2018030800:00:00OR  01000004967241000496724166051                              2018030820180310Z859CIF201803100000000000007436NN0                                                  0
2MAIL0000066051BR23        BRG1        BRG1COCO    BRG1COCO13AG00000100000000001235356200000000000000200000000000000000000000004526Z85920180310X066000000
2MAIL0000066051BR23        BRG1        BRG1COCO    BRG1COCO13AG00000200000000001235737300000000000000100000000000000000000000002910Z85920180310X066000000
1MAIL0000066052BR23        BRG1        BRG1COCO    BRG1COCO13AG2018030800:00:00OR  01000004967241000496724166052                              2018030820180310Z016CIF201803100000000000017476NN0                                                  0
2MAIL0000066052BR23        BRG1        BRG1COCO    BRG1COCO13AG00000100000000001132033100000000000000100000000000000000000000001641Z01620180310X066015000
2MAIL0000066052BR23        BRG1        BRG1COCO    BRG1COCO13AG00000200000000001132036700000000000000100000000000000000000000001641Z01620180310X066015000
2MAIL0000066052BR23        BRG1        BRG1COCO    BRG1COCO13AG00000300000000001132200400000000000000100000000000000000000000001866Z01620180310X066000000
2MAIL0000066052BR23        BRG1        BRG1COCO    BRG1COCO13AG00000400000000001215533700000000000000100000000000000000000000001641Z01620180310X066015000
2MAIL0000066052BR23        BRG1        BRG1COCO    BRG1COCO13AG00000500000000001228090100000000000000500000000000000000000000003565Z01620180310X066004960
2MAIL0000066052BR23        BRG1        BRG1COCO    BRG1COCO13AG00000600000000001228100400000000000000100000000000000000000000002155Z01620180310X066018000
2MAIL0000066052BR23        BRG1        BRG1COCO    BRG1COCO13AG00000700000000001233098400000000000001400000000000000000000000004967Z01620180310X066009920
1MAIL0000066053BR23        BRG1        BRG1COCO    BRG1COCO13AG2018030800:00:00OR  01000004226528000422652866053                              2018030820180310Z859CIF201803100000000000004526NN0                                                  0
2MAIL0000066053BR23        BRG1        BRG1COCO    BRG1COCO13AG00000100000000001235356200000000000000200000000000000000000000004526Z85920180310X066000000
1MAIL0000066054BR23        BRG1        BRG1COCO    BRG1COCO13AG2018030800:00:00OR  01000005570787000557078766054                              2018030820180310Z859CIF201803100000000000011314NN0                                                  0
2MAIL0000066054BR23        BRG1        BRG1COCO    BRG1COCO13AG00000100000000001235356200000000000000500000000000000000000000011314Z85920180310X066000000
1MAIL0000066055BR23        BRG1        BRG1COCO    BRG1COCO13AG2018030800:00:00OR  01000005570787000557078766055                              2018030820180310Z016CIF201803100000000000008249NN0                                                  0
2MAIL0000066055BR23        BRG1        BRG1COCO    BRG1COCO13AG00000100000000001132033100000000000000100000000000000000000000001641Z01620180310X066015000
2MAIL0000066055BR23        BRG1        BRG1COCO    BRG1COCO13AG00000200000000001132036700000000000000100000000000000000000000001641Z01620180310X066015000
2MAIL0000066055BR23        BRG1        BRG1COCO    BRG1COCO13AG00000300000000001233098400000000000001400000000000000000000000004967Z01620180310X066009920
1MAIL0000066056BR23        BRG1        BRG1COCO    BRG1COCO13AG2018030800:00:00OR  01000005570811000557081166056                              2018030820180310Z016CIF201803100000000000008784NN0                                                  0
2MAIL0000066056BR23        BRG1        BRG1COCO    BRG1COCO13AG00000100000000001132033100000000000000100000000000000000000000001710Z01620180310X066015000
2MAIL0000066056BR23        BRG1        BRG1COCO    BRG1COCO13AG00000200000000001132036700000000000000100000000000000000000000001710Z01620180310X066015000
2MAIL0000066056BR23        BRG1        BRG1COCO    BRG1COCO13AG00000300000000001132200400000000000000100000000000000000000000001944Z01620180310X066000000
2MAIL0000066056BR23        BRG1        BRG1COCO    BRG1COCO13AG00000400000000001215533700000000000000100000000000000000000000001710Z01620180310X066015000
2MAIL0000066056BR23        BRG1        BRG1COCO    BRG1COCO13AG00000500000000001227395500000000000000100000000000000000000000001710Z01620180310X066015000
1MAIL0000066057BR23        BRG1        BRG1COCO    BRG1COCO13AG2018030800:00:00OR  01000004642190000464219066057                              2018030820180310Z016CIF201803100000000000005057NN0                                                  0
2MAIL0000066057BR23        BRG1        BRG1COCO    BRG1COCO13AG00000100000000001132033100000000000000100000000000000000000000001641Z01620180310X066015000
2MAIL0000066057BR23        BRG1        BRG1COCO    BRG1COCO13AG00000200000000001132036700000000000000100000000000000000000000001641Z01620180310X066015000
2MAIL0000066057BR23        BRG1        BRG1COCO    BRG1COCO13AG00000300000000001132200400000000000000100000000000000000000000001775Z01620180310X066004850
1MAIL0000066058BR23        BRG1        BRG1COCO    BRG1COCO13AG2018030800:00:00OR  01000004794187000479418766058                              2018030820180310Z016CIF201803100000000000025778NN0                                                  0
2MAIL0000066058BR23        BRG1        BRG1COCO    BRG1COCO13AG00000100000000001228090100000000000003000000000000000000000000021469Z01620180310X066004600
2MAIL0000066058BR23        BRG1        BRG1COCO    BRG1COCO13AG00000200000000001228100400000000000000200000000000000000000000004309Z01620180310X066018000
