1MAIL0000064130BR23        BRG1        BRG1COCO    BRG1COCO13AG2018022300:00:00OR  01000002979903000297990364130                              2018022320180223Z016CIF201802230000000000097295NN0                                                  0
2MAIL0000064130BR23        BRG1        BRG1COCO    BRG1COCO13AG00000100000000001132034900000000000000500000000000000000000000008030Z01620180223X066015000
2MAIL0000064130BR23        BRG1        BRG1COCO    BRG1COCO13AG00000200000000001132035000000000000000500000000000000000000000008918Z01620180223X066015000
2MAIL0000064130BR23        BRG1        BRG1COCO    BRG1COCO13AG00000300000000001132035100000000000000500000000000000000000000008472Z01620180223X066015000
2MAIL0000064130BR23        BRG1        BRG1COCO    BRG1COCO13AG00000400000000001132213000000000000000100000000000000000000000003929Z01620180223X066004950
2MAIL0000064130BR23        BRG1        BRG1COCO    BRG1COCO13AG00000500000000001132213100000000000000100000000000000000000000003929Z01620180223X066004950
2MAIL0000064130BR23        BRG1        BRG1COCO    BRG1COCO13AG00000600000000001226089600000000000001200000000000000000000000004221Z01620180223X066010000
2MAIL0000064130BR23        BRG1        BRG1COCO    BRG1COCO13AG00000700000000001228090100000000000003000000000000000000000000022286Z01620180223X066004960
2MAIL0000064130BR23        BRG1        BRG1COCO    BRG1COCO13AG00000800000000001228100400000000000001000000000000000000000000022452Z01620180223X066018000
2MAIL0000064130BR23        BRG1        BRG1COCO    BRG1COCO13AG00000900000000001233098400000000000001400000000000000000000000005171Z01620180223X066010000
2MAIL0000064130BR23        BRG1        BRG1COCO    BRG1COCO13AG00001000000000001233154200000000000001400000000000000000000000005171Z01620180223X066010000
2MAIL0000064130BR23        BRG1        BRG1COCO    BRG1COCO13AG00001100000000001234705700000000000000100000000000000000000000004716Z01620180223X066004950
1MAIL0000064131BR23        BRG1        BRG1COCO    BRG1COCO13AG2018022300:00:00OR  01000002982469000298246964131                              2018022320180223Z016CIF201802230000000000083779NN0                                                  0
2MAIL0000064131BR23        BRG1        BRG1COCO    BRG1COCO13AG00000100000000001132033100000000000000300000000000000000000000004923Z01620180223X066015000
2MAIL0000064131BR23        BRG1        BRG1COCO    BRG1COCO13AG00000200000000001132036700000000000000500000000000000000000000008205Z01620180223X066015000
2MAIL0000064131BR23        BRG1        BRG1COCO    BRG1COCO13AG00000300000000001132200400000000000000500000000000000000000000008876Z01620180223X066004850
2MAIL0000064131BR23        BRG1        BRG1COCO    BRG1COCO13AG00000400000000001132213000000000000000200000000000000000000000007541Z01620180223X066004950
2MAIL0000064131BR23        BRG1        BRG1COCO    BRG1COCO13AG00000500000000001132213100000000000000200000000000000000000000007541Z01620180223X066004950
2MAIL0000064131BR23        BRG1        BRG1COCO    BRG1COCO13AG00000600000000001215533700000000000000300000000000000000000000004923Z01620180223X066015000
2MAIL0000064131BR23        BRG1        BRG1COCO    BRG1COCO13AG00000700000000001221415400000000000000100000000000000000000000004078Z01620180223X066015000
2MAIL0000064131BR23        BRG1        BRG1COCO    BRG1COCO13AG00000800000000001227395500000000000000300000000000000000000000004923Z01620180223X066015000
2MAIL0000064131BR23        BRG1        BRG1COCO    BRG1COCO13AG00000900000000001231389600000000000000300000000000000000000000004923Z01620180223X066015000
2MAIL0000064131BR23        BRG1        BRG1COCO    BRG1COCO13AG00001000000000001233098400000000000001400000000000000000000000004967Z01620180223X066009920
2MAIL0000064131BR23        BRG1        BRG1COCO    BRG1COCO13AG00001100000000001233099500000000000001400000000000000000000000004967Z01620180223X066009920
2MAIL0000064131BR23        BRG1        BRG1COCO    BRG1COCO13AG00001200000000001233154200000000000001400000000000000000000000004967Z01620180223X066009920
2MAIL0000064131BR23        BRG1        BRG1COCO    BRG1COCO13AG00001300000000001233695100000000000000300000000000000000000000004923Z01620180223X066015000
2MAIL0000064131BR23        BRG1        BRG1COCO    BRG1COCO13AG00001400000000001234705800000000000000100000000000000000000000004526Z01620180223X066004950
2MAIL0000064131BR23        BRG1        BRG1COCO    BRG1COCO13AG00001500000000001236512800000000000001000000000000000000000000001748Z01620180223X066000000
2MAIL0000064131BR23        BRG1        BRG1COCO    BRG1COCO13AG00001600000000001236514100000000000001000000000000000000000000001748Z01620180223X066000000
