1MAIL0000064143BR23        BRG1        BRG1COCO    BRG1COCO13AG2018022600:00:00OR  01000005354939000535493964143                              2018022620180226Z016CIF201802260000000000033744NN0                                                  0
2MAIL0000064143BR23        BRG1        BRG1COCO    BRG1COCO13AG00000100000000001132036700000000000000400000000000000000000000006950Z01620180226X066010000
2MAIL0000064143BR23        BRG1        BRG1COCO    BRG1COCO13AG00000200000000001132200400000000000000300000000000000000000000005373Z01620180226X066004000
2MAIL0000064143BR23        BRG1        BRG1COCO    BRG1COCO13AG00000300000000001226089600000000000002400000000000000000000000008193Z01620180226X066009000
2MAIL0000064143BR23        BRG1        BRG1COCO    BRG1COCO13AG00000400000000001233098600000000000002800000000000000000000000010036Z01620180226X066009000
2MAIL0000064143BR23        BRG1        BRG1COCO    BRG1COCO13AG00000500000000001236512900000000000001000000000000000000000000001596Z01620180226X066005000
2MAIL0000064143BR23        BRG1        BRG1COCO    BRG1COCO13AG00000600000000001236515000000000000001000000000000000000000000001596Z01620180226X066005000
1MAIL0000064144BR23        BRG1        BRG1COCO    BRG1COCO13AG2018022600:00:00OR  01000005481963000548196364144                              2018022620180226Z016CIF201802260000000000018399NN0                                                  0
2MAIL0000064144BR23        BRG1        BRG1COCO    BRG1COCO13AG00000100000000001132036700000000000000100000000000000000000000001641Z01620180226X066015000
2MAIL0000064144BR23        BRG1        BRG1COCO    BRG1COCO13AG00000200000000001132213000000000000000100000000000000000000000003808Z01620180226X066004000
2MAIL0000064144BR23        BRG1        BRG1COCO    BRG1COCO13AG00000300000000001132213100000000000000100000000000000000000000003808Z01620180226X066004000
2MAIL0000064144BR23        BRG1        BRG1COCO    BRG1COCO13AG00000400000000001234705700000000000000100000000000000000000000004571Z01620180226X066004000
2MAIL0000064144BR23        BRG1        BRG1COCO    BRG1COCO13AG00000500000000001234705800000000000000100000000000000000000000004571Z01620180226X066004000
