1MAIL0000064998BR23        BRG1        BRG1COCO    BRG1COCO13AG2018030200:00:00OR  01000002984724000298472464998                              2018030220180303Z859CIF201803030000000000033941NN0                                                  0
2MAIL0000064998BR23        BRG1        BRG1COCO    BRG1COCO13AG00000100000000001235356200000000000001500000000000000000000000033941Z85920180303X066000000
1MAIL0000064999BR23        BRG1        BRG1COCO    BRG1COCO13AG2018030200:00:00OR  01000005102383000510238364999                              2018030220180303Z016CIF201803030000000000038020NN0                                                  0
2MAIL0000064999BR23        BRG1        BRG1COCO    BRG1COCO13AG00000100000000001132036700000000000000600000000000000000000000009849Z01620180303X066015000
2MAIL0000064999BR23        BRG1        BRG1COCO    BRG1COCO13AG00000200000000001227395500000000000000400000000000000000000000006566Z01620180303X066015000
2MAIL0000064999BR23        BRG1        BRG1COCO    BRG1COCO13AG00000300000000001228090100000000000003000000000000000000000000021605Z01620180303X066004000
1MAIL0000065000BR23        BRG1        BRG1COCO    BRG1COCO13AG2018030200:00:00OR  01000005079543000507954365000                              2018030220180303Z016CIF201803030000000000003282NN0                                                  0
2MAIL0000065000BR23        BRG1        BRG1COCO    BRG1COCO13AG00000100000000001132036700000000000000200000000000000000000000003282Z01620180303X066015000
1MAIL0000065001BR23        BRG1        BRG1COCO    BRG1COCO13AG2018030200:00:00OR  01000003182401000318240165001                              2018030220180303Z016CIF201803030000000000051302NN0                                                  0
2MAIL0000065001BR23        BRG1        BRG1COCO    BRG1COCO13AG00000100000000001132033100000000000001000000000000000000000000017100Z01620180303X066015000
2MAIL0000065001BR23        BRG1        BRG1COCO    BRG1COCO13AG00000200000000001132036700000000000002000000000000000000000000034202Z01620180303X066015000
1MAIL0000065003BR23        BRG1        BRG1COCO    BRG1COCO13AG2018030200:00:00OR  01000004965883000496588365003                              2018030220180303Z016CIF201803030000000000051385NN0                                                  0
2MAIL0000065003BR23        BRG1        BRG1COCO    BRG1COCO13AG00000100000000001132033100000000000000100000000000000000000000001641Z01620180303X066015000
2MAIL0000065003BR23        BRG1        BRG1COCO    BRG1COCO13AG00000200000000001132036700000000000000200000000000000000000000003282Z01620180303X066015000
2MAIL0000065003BR23        BRG1        BRG1COCO    BRG1COCO13AG00000300000000001132200400000000000000200000000000000000000000003731Z01620180303X066000000
2MAIL0000065003BR23        BRG1        BRG1COCO    BRG1COCO13AG00000400000000001215533700000000000000100000000000000000000000001641Z01620180303X066015000
2MAIL0000065003BR23        BRG1        BRG1COCO    BRG1COCO13AG00000500000000001228090100000000000000500000000000000000000000003273Z01620180303X066004000
2MAIL0000065003BR23        BRG1        BRG1COCO    BRG1COCO13AG00000600000000001231189200000000000000100000000000000000000000004112Z01620180303X066005000
2MAIL0000065003BR23        BRG1        BRG1COCO    BRG1COCO13AG00000700000000001233081900000000000001400000000000000000000000004712Z01620180303X066006000
2MAIL0000065003BR23        BRG1        BRG1COCO    BRG1COCO13AG00000800000000001233098400000000000001400000000000000000000000004712Z01620180303X066006000
2MAIL0000065003BR23        BRG1        BRG1COCO    BRG1COCO13AG00000900000000001233098600000000000001400000000000000000000000004712Z01620180303X066006000
2MAIL0000065003BR23        BRG1        BRG1COCO    BRG1COCO13AG00001000000000001234705700000000000000100000000000000000000000004112Z01620180303X066005000
2MAIL0000065003BR23        BRG1        BRG1COCO    BRG1COCO13AG00001100000000001234705800000000000000100000000000000000000000004112Z01620180303X066005000
2MAIL0000065003BR23        BRG1        BRG1COCO    BRG1COCO13AG00001200000000001235699800000000000001000000000000000000000000003365Z01620180303X066006000
2MAIL0000065003BR23        BRG1        BRG1COCO    BRG1COCO13AG00001300000000001236512900000000000002500000000000000000000000003990Z01620180303X066005000
2MAIL0000065003BR23        BRG1        BRG1COCO    BRG1COCO13AG00001400000000001236515000000000000002500000000000000000000000003990Z01620180303X066005000
