1MAIL0000065296BR23        BRG1        BRG1COCO    BRG1COCO13AG2018030600:00:00OR  01000005099248000509924865296                              2018030620180310Z016CIF201803100000000000022498NN0                                                  0
2MAIL0000065296BR23        BRG1        BRG1COCO    BRG1COCO13AG00000100000000001228090100000000000003000000000000000000000000022498Z01620180310X066004000
1MAIL0000065297BR23        BRG1        BRG1COCO    BRG1COCO13AG2018030600:00:00OR  01000004918493000491849365297                              2018030620180310Z016CIF201803100000000000066820NN0                                                  0
2MAIL0000065297BR23        BRG1        BRG1COCO    BRG1COCO13AG00000100000000001228090100000000000009000000000000000000000000066820Z01620180310X066004960
1MAIL0000065298BR23        BRG1        BRG1COCO    BRG1COCO13AG2018030600:00:00OR  01000003181325000318132565298                              2018030620180310Z016CIF201803100000000000022286NN0                                                  0
2MAIL0000065298BR23        BRG1        BRG1COCO    BRG1COCO13AG00000100000000001228090100000000000003000000000000000000000000022286Z01620180310X066004960
1MAIL0000065299BR23        BRG1        BRG1COCO    BRG1COCO13AG2018030600:00:00OR  01000004765172000476517265299                              2018030620180310Z016CIF201803100000000000262979NN0                                                  0
2MAIL0000065299BR23        BRG1        BRG1COCO    BRG1COCO13AG00000100000000001132004000000000000000500000000000000000000000003742Z01620180310X066005000
2MAIL0000065299BR23        BRG1        BRG1COCO    BRG1COCO13AG00000200000000001132004200000000000000500000000000000000000000005686Z01620180310X066005000
2MAIL0000065299BR23        BRG1        BRG1COCO    BRG1COCO13AG00000300000000001132030900000000000000200000000000000000000000006416Z01620180310X066018000
2MAIL0000065299BR23        BRG1        BRG1COCO    BRG1COCO13AG00000400000000001132033900000000000000200000000000000000000000006826Z01620180310X066018000
2MAIL0000065299BR23        BRG1        BRG1COCO    BRG1COCO13AG00000500000000001132034900000000000000500000000000000000000000007006Z01620180310X066015000
2MAIL0000065299BR23        BRG1        BRG1COCO    BRG1COCO13AG00000600000000001132035100000000000000500000000000000000000000007392Z01620180310X066015000
2MAIL0000065299BR23        BRG1        BRG1COCO    BRG1COCO13AG00000700000000001132185100000000000000200000000000000000000000005685Z01620180310X066018000
2MAIL0000065299BR23        BRG1        BRG1COCO    BRG1COCO13AG00000800000000001132200400000000000000100000000000000000000000001776Z01620180310X066004800
2MAIL0000065299BR23        BRG1        BRG1COCO    BRG1COCO13AG00000900000000001132400100000000000000100000000000000000000000003336Z01620180310X066005000
2MAIL0000065299BR23        BRG1        BRG1COCO    BRG1COCO13AG00001000000000001223975300000000000000200000000000000000000000008224Z01620180310X066005000
2MAIL0000065299BR23        BRG1        BRG1COCO    BRG1COCO13AG00001100000000001226089600000000000002400000000000000000000000008183Z01620180310X066000000
2MAIL0000065299BR23        BRG1        BRG1COCO    BRG1COCO13AG00001200000000001228090100000000000015000000000000000000000000097685Z01620180310X066004500
2MAIL0000065299BR23        BRG1        BRG1COCO    BRG1COCO13AG00001300000000001228274000000000000000500000000000000000000000020558Z01620180310X066005000
2MAIL0000065299BR23        BRG1        BRG1COCO    BRG1COCO13AG00001400000000001231189200000000000000100000000000000000000000004112Z01620180310X066005000
2MAIL0000065299BR23        BRG1        BRG1COCO    BRG1COCO13AG00001500000000001231231200000000000000400000000000000000000000016447Z01620180310X066005000
2MAIL0000065299BR23        BRG1        BRG1COCO    BRG1COCO13AG00001600000000001233081900000000000002800000000000000000000000009423Z01620180310X066006000
2MAIL0000065299BR23        BRG1        BRG1COCO    BRG1COCO13AG00001700000000001233098400000000000002800000000000000000000000009423Z01620180310X066006000
2MAIL0000065299BR23        BRG1        BRG1COCO    BRG1COCO13AG00001800000000001233098500000000000001400000000000000000000000004712Z01620180310X066006000
2MAIL0000065299BR23        BRG1        BRG1COCO    BRG1COCO13AG00001900000000001233098600000000000002800000000000000000000000009423Z01620180310X066006000
2MAIL0000065299BR23        BRG1        BRG1COCO    BRG1COCO13AG00002000000000001233098800000000000001400000000000000000000000004712Z01620180310X066006000
2MAIL0000065299BR23        BRG1        BRG1COCO    BRG1COCO13AG00002100000000001233099500000000000001400000000000000000000000004712Z01620180310X066006000
2MAIL0000065299BR23        BRG1        BRG1COCO    BRG1COCO13AG00002200000000001233154200000000000002800000000000000000000000009423Z01620180310X066006000
2MAIL0000065299BR23        BRG1        BRG1COCO    BRG1COCO13AG00002300000000001234708700000000000001400000000000000000000000004712Z01620180310X066006000
2MAIL0000065299BR23        BRG1        BRG1COCO    BRG1COCO13AG00002400000000001235699400000000000001000000000000000000000000003365Z01620180310X066006000
1MAIL0000065300BR23        BRG1        BRG1COCO    BRG1COCO13AG2018030600:00:00OR  01000004714035000471403565300                              2018030620180310Z016CIF201803100000000000130350NN0                                                  0
2MAIL0000065300BR23        BRG1        BRG1COCO    BRG1COCO13AG00000100000000001132033100000000000000300000000000000000000000004923Z01620180310X066015000
2MAIL0000065300BR23        BRG1        BRG1COCO    BRG1COCO13AG00000200000000001132036700000000000000300000000000000000000000004923Z01620180310X066015000
2MAIL0000065300BR23        BRG1        BRG1COCO    BRG1COCO13AG00000300000000001215533700000000000000200000000000000000000000003282Z01620180310X066015000
2MAIL0000065300BR23        BRG1        BRG1COCO    BRG1COCO13AG00000400000000001228090100000000000018000000000000000000000000117222Z01620180310X066004500
1MAIL0000065301BR23        BRG1        BRG1COCO    BRG1COCO13AG2018030600:00:00OR  01000004853499000485349965301                              2018030620180310Z016CIF201803100000000000459688NN0                                                  0
2MAIL0000065301BR23        BRG1        BRG1COCO    BRG1COCO13AG00000100000000001235356200000000000009000000000000000000000000203648Z01620180310X066000000
2MAIL0000065301BR23        BRG1        BRG1COCO    BRG1COCO13AG00000200000000001235737300000000000008800000000000000000000000256040Z01620180310X066000000
1MAIL0000065302BR23        BRG1        BRG1COCO    BRG1COCO13AG2018030600:00:00OR  01000002980487000298048765302                              2018030620180310Z016CIF201803100000000000388858NN0                                                  0
2MAIL0000065302BR23        BRG1        BRG1COCO    BRG1COCO13AG00000100000000001228090100000000000060000000000000000000000000388858Z01620180310X066004960
