1MAIL0000065772BR23        BRG1        BRG1COCO    BRG1COCO13AG2018030800:00:00OR  01000002980819000298081965772                              2018030820180310ZG16CIF201803100000000000369108NN0                                                  0
2MAIL0000065772BR23        BRG1        BRG1COCO    BRG1COCO13AG00000100000000001132033100000000000000600000000000000000000000009849ZG1620180310X066015000
2MAIL0000065772BR23        BRG1        BRG1COCO    BRG1COCO13AG00000200000000001132036700000000000000600000000000000000000000009849ZG1620180310X066015000
2MAIL0000065772BR23        BRG1        BRG1COCO    BRG1COCO13AG00000300000000001215533700000000000000600000000000000000000000009849ZG1620180310X066015000
2MAIL0000065772BR23        BRG1        BRG1COCO    BRG1COCO13AG00000400000000001228090100000000000030000000000000000000000000194429ZG1620180310X066004960
2MAIL0000065772BR23        BRG1        BRG1COCO    BRG1COCO13AG00000500000000001228100400000000000005000000000000000000000000107732ZG1620180310X066018000
2MAIL0000065772BR23        BRG1        BRG1COCO    BRG1COCO13AG00000600000000001233081900000000000001400000000000000000000000004675ZG1620180310X066006750
2MAIL0000065772BR23        BRG1        BRG1COCO    BRG1COCO13AG00000700000000001233098400000000000001400000000000000000000000004675ZG1620180310X066006750
2MAIL0000065772BR23        BRG1        BRG1COCO    BRG1COCO13AG00000800000000001233098500000000000001400000000000000000000000004675ZG1620180310X066006750
2MAIL0000065772BR23        BRG1        BRG1COCO    BRG1COCO13AG00000900000000001233098600000000000001400000000000000000000000004675ZG1620180310X066006750
2MAIL0000065772BR23        BRG1        BRG1COCO    BRG1COCO13AG00001000000000001233098800000000000001400000000000000000000000004675ZG1620180310X066006750
2MAIL0000065772BR23        BRG1        BRG1COCO    BRG1COCO13AG00001100000000001233099500000000000001400000000000000000000000004675ZG1620180310X066006750
2MAIL0000065772BR23        BRG1        BRG1COCO    BRG1COCO13AG00001200000000001233154200000000000001400000000000000000000000004675ZG1620180310X066006750
2MAIL0000065772BR23        BRG1        BRG1COCO    BRG1COCO13AG00001300000000001234708700000000000001400000000000000000000000004675ZG1620180310X066006750
1MAIL0000065773BR23        BRG1        BRG1COCO    BRG1COCO13AG2018030800:00:00OR  01000003828555000382855565773                              2018030820180310Z016CIF201803100000000000071521NN0                                                  0
2MAIL0000065773BR23        BRG1        BRG1COCO    BRG1COCO13AG00000100000000001132033100000000000000500000000000000000000000008205Z01620180310X066015000
2MAIL0000065773BR23        BRG1        BRG1COCO    BRG1COCO13AG00000200000000001132036700000000000000500000000000000000000000008205Z01620180310X066015000
2MAIL0000065773BR23        BRG1        BRG1COCO    BRG1COCO13AG00000300000000001132200400000000000000500000000000000000000000008876Z01620180310X066004850
2MAIL0000065773BR23        BRG1        BRG1COCO    BRG1COCO13AG00000400000000001228090100000000000003000000000000000000000000021389Z01620180310X066004960
2MAIL0000065773BR23        BRG1        BRG1COCO    BRG1COCO13AG00000500000000001233081900000000000002800000000000000000000000009934Z01620180310X066009920
2MAIL0000065773BR23        BRG1        BRG1COCO    BRG1COCO13AG00000600000000001233098400000000000002800000000000000000000000009941Z01620180310X066009850
2MAIL0000065773BR23        BRG1        BRG1COCO    BRG1COCO13AG00000700000000001233154200000000000001400000000000000000000000004971Z01620180310X066009850
1MAIL0000065774BR23        BRG1        BRG1COCO    BRG1COCO13AG2018030800:00:00OR  01000004176469000417646965774                              2018030820180310Z859CIF201803100000000000013577NN0                                                  0
2MAIL0000065774BR23        BRG1        BRG1COCO    BRG1COCO13AG00000100000000001235356200000000000000600000000000000000000000013577Z85920180310X066000000
1MAIL0000065775BR23        BRG1        BRG1COCO    BRG1COCO13AG2018030800:00:00OR  01000004176469000417646965775                              2018030820180310Z016CIF201803100000000000009924NN0                                                  0
2MAIL0000065775BR23        BRG1        BRG1COCO    BRG1COCO13AG00000100000000001233098400000000000001400000000000000000000000004962Z01620180310X066010000
2MAIL0000065775BR23        BRG1        BRG1COCO    BRG1COCO13AG00000200000000001233154200000000000001400000000000000000000000004962Z01620180310X066010000
1MAIL0000065776BR23        BRG1        BRG1COCO    BRG1COCO13AG2018030800:00:00OR  01000002979903000297990365776                              2018030820180310Z016CIF201803100000000000136581NN0                                                  0
2MAIL0000065776BR23        BRG1        BRG1COCO    BRG1COCO13AG00000100000000001132033100000000000000200000000000000000000000003420Z01620180310X066015000
2MAIL0000065776BR23        BRG1        BRG1COCO    BRG1COCO13AG00000200000000001132036700000000000000200000000000000000000000003420Z01620180310X066015000
2MAIL0000065776BR23        BRG1        BRG1COCO    BRG1COCO13AG00000300000000001132200400000000000000100000000000000000000000001850Z01620180310X066004850
2MAIL0000065776BR23        BRG1        BRG1COCO    BRG1COCO13AG00000400000000001215533700000000000000100000000000000000000000001710Z01620180310X066015000
2MAIL0000065776BR23        BRG1        BRG1COCO    BRG1COCO13AG00000500000000001226089600000000000001200000000000000000000000004223Z01620180310X066009960
2MAIL0000065776BR23        BRG1        BRG1COCO    BRG1COCO13AG00000600000000001227395500000000000000200000000000000000000000003420Z01620180310X066015000
2MAIL0000065776BR23        BRG1        BRG1COCO    BRG1COCO13AG00000700000000001228090100000000000003000000000000000000000000022286Z01620180310X066004960
2MAIL0000065776BR23        BRG1        BRG1COCO    BRG1COCO13AG00000800000000001231231200000000000000100000000000000000000000004716Z01620180310X066004960
2MAIL0000065776BR23        BRG1        BRG1COCO    BRG1COCO13AG00000900000000001233081900000000000001400000000000000000000000005173Z01620180310X066009960
2MAIL0000065776BR23        BRG1        BRG1COCO    BRG1COCO13AG00001000000000001233098400000000000001400000000000000000000000005173Z01620180310X066009960
2MAIL0000065776BR23        BRG1        BRG1COCO    BRG1COCO13AG00001100000000001233098500000000000001400000000000000000000000005173Z01620180310X066009960
2MAIL0000065776BR23        BRG1        BRG1COCO    BRG1COCO13AG00001200000000001233098600000000000001400000000000000000000000005173Z01620180310X066009960
2MAIL0000065776BR23        BRG1        BRG1COCO    BRG1COCO13AG00001300000000001233098800000000000001400000000000000000000000005173Z01620180310X066009960
2MAIL0000065776BR23        BRG1        BRG1COCO    BRG1COCO13AG00001400000000001233099500000000000001400000000000000000000000005173Z01620180310X066009960
2MAIL0000065776BR23        BRG1        BRG1COCO    BRG1COCO13AG00001500000000001233154200000000000001400000000000000000000000005173Z01620180310X066009960
2MAIL0000065776BR23        BRG1        BRG1COCO    BRG1COCO13AG00001600000000001234708700000000000001400000000000000000000000005173Z01620180310X066009960
2MAIL0000065776BR23        BRG1        BRG1COCO    BRG1COCO13AG00001700000000001235699400000000000011000000000000000000000000042436Z01620180310X066006000
2MAIL0000065776BR23        BRG1        BRG1COCO    BRG1COCO13AG00001800000000001235699700000000000001000000000000000000000000003858Z01620180310X066006000
2MAIL0000065776BR23        BRG1        BRG1COCO    BRG1COCO13AG00001900000000001235699800000000000001000000000000000000000000003858Z01620180310X066006000
1MAIL0000065777BR23        BRG1        BRG1COCO    BRG1COCO13AG2018030800:00:00OR  01000005282483000528248365777                              2018030820180310Z016CIF201803100000000000053012NN0                                                  0
2MAIL0000065777BR23        BRG1        BRG1COCO    BRG1COCO13AG00000100000000001132019800000000000000100000000000000000000000002186Z01620180310X066004950
2MAIL0000065777BR23        BRG1        BRG1COCO    BRG1COCO13AG00000200000000001132019900000000000000100000000000000000000000002186Z01620180310X066004950
2MAIL0000065777BR23        BRG1        BRG1COCO    BRG1COCO13AG00000300000000001132020900000000000000100000000000000000000000002186Z01620180310X066004950
2MAIL0000065777BR23        BRG1        BRG1COCO    BRG1COCO13AG00000400000000001132033100000000000000200000000000000000000000003281Z01620180310X066015000
2MAIL0000065777BR23        BRG1        BRG1COCO    BRG1COCO13AG00000500000000001132036700000000000000200000000000000000000000003281Z01620180310X066015000
2MAIL0000065777BR23        BRG1        BRG1COCO    BRG1COCO13AG00000600000000001132213000000000000000100000000000000000000000003771Z01620180310X066004950
2MAIL0000065777BR23        BRG1        BRG1COCO    BRG1COCO13AG00000700000000001132213100000000000000100000000000000000000000003771Z01620180310X066004950
2MAIL0000065777BR23        BRG1        BRG1COCO    BRG1COCO13AG00000800000000001215533700000000000000200000000000000000000000003281Z01620180310X066015000
2MAIL0000065777BR23        BRG1        BRG1COCO    BRG1COCO13AG00000900000000001226089600000000000001200000000000000000000000004055Z01620180310X066009920
2MAIL0000065777BR23        BRG1        BRG1COCO    BRG1COCO13AG00001000000000001227395500000000000000200000000000000000000000003281Z01620180310X066015000
2MAIL0000065777BR23        BRG1        BRG1COCO    BRG1COCO13AG00001100000000001231389600000000000000200000000000000000000000003281Z01620180310X066015000
2MAIL0000065777BR23        BRG1        BRG1COCO    BRG1COCO13AG00001200000000001233081900000000000001400000000000000000000000005237Z01620180310X066005000
2MAIL0000065777BR23        BRG1        BRG1COCO    BRG1COCO13AG00001300000000001233098400000000000001400000000000000000000000004967Z01620180310X066009920
2MAIL0000065777BR23        BRG1        BRG1COCO    BRG1COCO13AG00001400000000001233154200000000000001400000000000000000000000004967Z01620180310X066009920
2MAIL0000065777BR23        BRG1        BRG1COCO    BRG1COCO13AG00001500000000001233695100000000000000200000000000000000000000003281Z01620180310X066015000
1MAIL0000065778BR23        BRG1        BRG1COCO    BRG1COCO13AG2018030800:00:00OR  01000003181325000318132565778                              2018030820180310Z859CIF201803100000000000002585NN0                                                  0
2MAIL0000065778BR23        BRG1        BRG1COCO    BRG1COCO13AG00000100000000001233114700000000000000200000000000000000000000002585Z85920180310X066000000
1MAIL0000065779BR23        BRG1        BRG1COCO    BRG1COCO13AG2018030800:00:00OR  01000005198783000519878365779                              2018030820180310Z016CIF201803100000000000013201NN0                                                  0
2MAIL0000065779BR23        BRG1        BRG1COCO    BRG1COCO13AG00000100000000001132004200000000000000500000000000000000000000006583Z01620180310X066000000
2MAIL0000065779BR23        BRG1        BRG1COCO    BRG1COCO13AG00000200000000001132036700000000000000200000000000000000000000003281Z01620180310X066015000
2MAIL0000065779BR23        BRG1        BRG1COCO    BRG1COCO13AG00000300000000001132400100000000000000100000000000000000000000003337Z01620180310X066004960
1MAIL0000065780BR23        BRG1        BRG1COCO    BRG1COCO13AG2018030800:00:00OR  01000002927213000292721365780                              2018030820180310Z016CIF201803100000000000033941NN0                                                  0
2MAIL0000065780BR23        BRG1        BRG1COCO    BRG1COCO13AG00000100000000001235356200000000000001500000000000000000000000033941Z01620180310X066000000
1MAIL0000065781BR23        BRG1        BRG1COCO    BRG1COCO13AG2018030800:00:00OR  01000002927213000292721365781                              2018030820180310Z016CIF201803100000000000057817NN0                                                  0
2MAIL0000065781BR23        BRG1        BRG1COCO    BRG1COCO13AG00000100000000001132033100000000000000300000000000000000000000004923Z01620180310X066015000
2MAIL0000065781BR23        BRG1        BRG1COCO    BRG1COCO13AG00000200000000001132036700000000000000300000000000000000000000004923Z01620180310X066015000
2MAIL0000065781BR23        BRG1        BRG1COCO    BRG1COCO13AG00000300000000001132200400000000000000200000000000000000000000003550Z01620180310X066004850
2MAIL0000065781BR23        BRG1        BRG1COCO    BRG1COCO13AG00000400000000001223975300000000000000100000000000000000000000004522Z01620180310X066005000
2MAIL0000065781BR23        BRG1        BRG1COCO    BRG1COCO13AG00000500000000001228100400000000000000300000000000000000000000006465Z01620180310X066018000
2MAIL0000065781BR23        BRG1        BRG1COCO    BRG1COCO13AG00000600000000001231189200000000000000100000000000000000000000004522Z01620180310X066005000
2MAIL0000065781BR23        BRG1        BRG1COCO    BRG1COCO13AG00000700000000001231231200000000000000100000000000000000000000004522Z01620180310X066005000
2MAIL0000065781BR23        BRG1        BRG1COCO    BRG1COCO13AG00000800000000001233098400000000000001400000000000000000000000004967Z01620180310X066009920
2MAIL0000065781BR23        BRG1        BRG1COCO    BRG1COCO13AG00000900000000001233098600000000000001400000000000000000000000004967Z01620180310X066009920
2MAIL0000065781BR23        BRG1        BRG1COCO    BRG1COCO13AG00001000000000001233154200000000000001400000000000000000000000004967Z01620180310X066009920
2MAIL0000065781BR23        BRG1        BRG1COCO    BRG1COCO13AG00001100000000001234705800000000000000100000000000000000000000004522Z01620180310X066005000
2MAIL0000065781BR23        BRG1        BRG1COCO    BRG1COCO13AG00001200000000001234708700000000000001400000000000000000000000004967Z01620180310X066009920
1MAIL0000065782BR23        BRG1        BRG1COCO    BRG1COCO13AG2018030800:00:00OR  01000005363490000536349065782                              2018030820180310Z016CIF201803100000000000008488NN0                                                  0
2MAIL0000065782BR23        BRG1        BRG1COCO    BRG1COCO13AG00000100000000001132033100000000000000100000000000000000000000001641Z01620180310X066015000
2MAIL0000065782BR23        BRG1        BRG1COCO    BRG1COCO13AG00000200000000001132036700000000000000100000000000000000000000001641Z01620180310X066015000
2MAIL0000065782BR23        BRG1        BRG1COCO    BRG1COCO13AG00000300000000001215533700000000000000100000000000000000000000001641Z01620180310X066015000
2MAIL0000065782BR23        BRG1        BRG1COCO    BRG1COCO13AG00000400000000001228090100000000000000500000000000000000000000003565Z01620180310X066004960
1MAIL0000065783BR23        BRG1        BRG1COCO    BRG1COCO13AG2018030800:00:00OR  01000002937108000293710865783                              2018030820180310Z016CIF201803100000000000079784NN0                                                  0
2MAIL0000065783BR23        BRG1        BRG1COCO    BRG1COCO13AG00000100000000001132200400000000000000400000000000000000000000007399Z01620180310X066004850
2MAIL0000065783BR23        BRG1        BRG1COCO    BRG1COCO13AG00000200000000001132213000000000000000100000000000000000000000003929Z01620180310X066004950
2MAIL0000065783BR23        BRG1        BRG1COCO    BRG1COCO13AG00000300000000001132213100000000000000100000000000000000000000003929Z01620180310X066004950
2MAIL0000065783BR23        BRG1        BRG1COCO    BRG1COCO13AG00000400000000001228090100000000000003000000000000000000000000022286Z01620180310X066004960
2MAIL0000065783BR23        BRG1        BRG1COCO    BRG1COCO13AG00000500000000001228100400000000000000500000000000000000000000011227Z01620180310X066018000
2MAIL0000065783BR23        BRG1        BRG1COCO    BRG1COCO13AG00000600000000001233081900000000000001400000000000000000000000005171Z01620180310X066010000
2MAIL0000065783BR23        BRG1        BRG1COCO    BRG1COCO13AG00000700000000001233098400000000000001400000000000000000000000005171Z01620180310X066010000
2MAIL0000065783BR23        BRG1        BRG1COCO    BRG1COCO13AG00000800000000001233098600000000000001400000000000000000000000005171Z01620180310X066010000
2MAIL0000065783BR23        BRG1        BRG1COCO    BRG1COCO13AG00000900000000001233154200000000000001400000000000000000000000005171Z01620180310X066010000
2MAIL0000065783BR23        BRG1        BRG1COCO    BRG1COCO13AG00001000000000001236512800000000000001000000000000000000000000001805Z01620180310X066000000
2MAIL0000065783BR23        BRG1        BRG1COCO    BRG1COCO13AG00001100000000001236512900000000000002000000000000000000000000003360Z01620180310X066000000
2MAIL0000065783BR23        BRG1        BRG1COCO    BRG1COCO13AG00001200000000001236514100000000000001000000000000000000000000001805Z01620180310X066000000
2MAIL0000065783BR23        BRG1        BRG1COCO    BRG1COCO13AG00001300000000001236515000000000000002000000000000000000000000003360Z01620180310X066000000
1MAIL0000065784BR23        BRG1        BRG1COCO    BRG1COCO13AG2018030800:00:00OR  01000003756481000375648165784                              2018030820180310Z016CIF201803100000000000107549NN0                                                  0
2MAIL0000065784BR23        BRG1        BRG1COCO    BRG1COCO13AG00000100000000001132004000000000000001000000000000000000000000007483Z01620180310X066005000
2MAIL0000065784BR23        BRG1        BRG1COCO    BRG1COCO13AG00000200000000001132030800000000000000400000000000000000000000012446Z01620180310X066018000
2MAIL0000065784BR23        BRG1        BRG1COCO    BRG1COCO13AG00000300000000001132033100000000000000400000000000000000000000006566Z01620180310X066015000
2MAIL0000065784BR23        BRG1        BRG1COCO    BRG1COCO13AG00000400000000001132036700000000000000400000000000000000000000006566Z01620180310X066015000
2MAIL0000065784BR23        BRG1        BRG1COCO    BRG1COCO13AG00000500000000001132185100000000000000200000000000000000000000005685Z01620180310X066018000
2MAIL0000065784BR23        BRG1        BRG1COCO    BRG1COCO13AG00000600000000001132200400000000000000500000000000000000000000008877Z01620180310X066004850
2MAIL0000065784BR23        BRG1        BRG1COCO    BRG1COCO13AG00000700000000001132213000000000000000100000000000000000000000003427Z01620180310X066004950
2MAIL0000065784BR23        BRG1        BRG1COCO    BRG1COCO13AG00000800000000001132213100000000000000100000000000000000000000003427Z01620180310X066004950
2MAIL0000065784BR23        BRG1        BRG1COCO    BRG1COCO13AG00000900000000001215533700000000000000400000000000000000000000006566Z01620180310X066015000
2MAIL0000065784BR23        BRG1        BRG1COCO    BRG1COCO13AG00001000000000001221415400000000000000300000000000000000000000010796Z01620180310X066025000
2MAIL0000065784BR23        BRG1        BRG1COCO    BRG1COCO13AG00001100000000001231231200000000000000300000000000000000000000012335Z01620180310X066005000
2MAIL0000065784BR23        BRG1        BRG1COCO    BRG1COCO13AG00001200000000001233081900000000000001400000000000000000000000004675Z01620180310X066006750
2MAIL0000065784BR23        BRG1        BRG1COCO    BRG1COCO13AG00001300000000001233098400000000000001400000000000000000000000004675Z01620180310X066006750
2MAIL0000065784BR23        BRG1        BRG1COCO    BRG1COCO13AG00001400000000001233098500000000000001400000000000000000000000004675Z01620180310X066006750
2MAIL0000065784BR23        BRG1        BRG1COCO    BRG1COCO13AG00001500000000001233098800000000000001400000000000000000000000004675Z01620180310X066006750
2MAIL0000065784BR23        BRG1        BRG1COCO    BRG1COCO13AG00001600000000001234708700000000000001400000000000000000000000004675Z01620180310X066006750
1MAIL0000065785BR23        BRG1        BRG1COCO    BRG1COCO13AG2018030800:00:00OR  01000005393460000539346065785                              2018030820180310Z846CIF201803100000000000014099NN0                                                  0
2MAIL0000065785BR23        BRG1        BRG1COCO    BRG1COCO13AG00000100000000001235356200000000000000600000000000000000000000014099Z84620180310X066000000
1MAIL0000065786BR23        BRG1        BRG1COCO    BRG1COCO13AG2018030800:00:00OR  01000004559359000455935965786                              2018030820180310Z016CIF201803100000000000121678NN0                                                  0
2MAIL0000065786BR23        BRG1        BRG1COCO    BRG1COCO13AG00000100000000001132018300000000000000100000000000000000000000003598Z01620180310X066025000
2MAIL0000065786BR23        BRG1        BRG1COCO    BRG1COCO13AG00000200000000001132036700000000000000200000000000000000000000003281Z01620180310X066015000
2MAIL0000065786BR23        BRG1        BRG1COCO    BRG1COCO13AG00000300000000001132213000000000000000100000000000000000000000003771Z01620180310X066004950
2MAIL0000065786BR23        BRG1        BRG1COCO    BRG1COCO13AG00000400000000001132213100000000000000100000000000000000000000003771Z01620180310X066004950
2MAIL0000065786BR23        BRG1        BRG1COCO    BRG1COCO13AG00000500000000001215533700000000000000200000000000000000000000003281Z01620180310X066015000
2MAIL0000065786BR23        BRG1        BRG1COCO    BRG1COCO13AG00000600000000001223975300000000000000100000000000000000000000004522Z01620180310X066005000
2MAIL0000065786BR23        BRG1        BRG1COCO    BRG1COCO13AG00000700000000001226089600000000000001200000000000000000000000004055Z01620180310X066009920
2MAIL0000065786BR23        BRG1        BRG1COCO    BRG1COCO13AG00000800000000001227395500000000000000200000000000000000000000003281Z01620180310X066015000
2MAIL0000065786BR23        BRG1        BRG1COCO    BRG1COCO13AG00000900000000001228100400000000000001000000000000000000000000021546Z01620180310X066018000
2MAIL0000065786BR23        BRG1        BRG1COCO    BRG1COCO13AG00001000000000001228512700000000000000100000000000000000000000004522Z01620180310X066005000
2MAIL0000065786BR23        BRG1        BRG1COCO    BRG1COCO13AG00001100000000001231189200000000000000200000000000000000000000009046Z01620180310X066005000
2MAIL0000065786BR23        BRG1        BRG1COCO    BRG1COCO13AG00001200000000001231231200000000000000100000000000000000000000004522Z01620180310X066005000
2MAIL0000065786BR23        BRG1        BRG1COCO    BRG1COCO13AG00001300000000001233081900000000000002800000000000000000000000009934Z01620180310X066009920
2MAIL0000065786BR23        BRG1        BRG1COCO    BRG1COCO13AG00001400000000001233098400000000000002800000000000000000000000009934Z01620180310X066009920
2MAIL0000065786BR23        BRG1        BRG1COCO    BRG1COCO13AG00001500000000001233098600000000000001400000000000000000000000004967Z01620180310X066009920
2MAIL0000065786BR23        BRG1        BRG1COCO    BRG1COCO13AG00001600000000001233099500000000000001400000000000000000000000004967Z01620180310X066009920
2MAIL0000065786BR23        BRG1        BRG1COCO    BRG1COCO13AG00001700000000001233154200000000000001400000000000000000000000004967Z01620180310X066009920
2MAIL0000065786BR23        BRG1        BRG1COCO    BRG1COCO13AG00001800000000001234705700000000000000100000000000000000000000004522Z01620180310X066005000
2MAIL0000065786BR23        BRG1        BRG1COCO    BRG1COCO13AG00001900000000001234705800000000000000100000000000000000000000004522Z01620180310X066005000
2MAIL0000065786BR23        BRG1        BRG1COCO    BRG1COCO13AG00002000000000001234708700000000000001400000000000000000000000004967Z01620180310X066009920
2MAIL0000065786BR23        BRG1        BRG1COCO    BRG1COCO13AG00002100000000001235699800000000000001000000000000000000000000003702Z01620180310X066006000
1MAIL0000065787BR23        BRG1        BRG1COCO    BRG1COCO13AG2018030800:00:00OR  01000005578938000557893865787                              2018030820180310Z846CIF201803100000000000004700NN0                                                  0
2MAIL0000065787BR23        BRG1        BRG1COCO    BRG1COCO13AG00000100000000001235356200000000000000200000000000000000000000004700Z84620180310X066000000
1MAIL0000065788BR23        BRG1        BRG1COCO    BRG1COCO13AG2018030800:00:00OR  01000005578938000557893865788                              2018030820180310Z016CIF201803100000000000075333NN0                                                  0
2MAIL0000065788BR23        BRG1        BRG1COCO    BRG1COCO13AG00000100000000001132004000000000000000500000000000000000000000004116Z01620180310X066005000
2MAIL0000065788BR23        BRG1        BRG1COCO    BRG1COCO13AG00000200000000001132033100000000000000300000000000000000000000004923Z01620180310X066015000
2MAIL0000065788BR23        BRG1        BRG1COCO    BRG1COCO13AG00000300000000001132036700000000000000300000000000000000000000004923Z01620180310X066015000
2MAIL0000065788BR23        BRG1        BRG1COCO    BRG1COCO13AG00000400000000001132200400000000000000200000000000000000000000003550Z01620180310X066004850
2MAIL0000065788BR23        BRG1        BRG1COCO    BRG1COCO13AG00000500000000001228090100000000000003000000000000000000000000021389Z01620180310X066004960
2MAIL0000065788BR23        BRG1        BRG1COCO    BRG1COCO13AG00000600000000001228100400000000000001000000000000000000000000021546Z01620180310X066018000
2MAIL0000065788BR23        BRG1        BRG1COCO    BRG1COCO13AG00000700000000001233081900000000000001400000000000000000000000004962Z01620180310X066010000
2MAIL0000065788BR23        BRG1        BRG1COCO    BRG1COCO13AG00000800000000001233098400000000000001400000000000000000000000004962Z01620180310X066010000
2MAIL0000065788BR23        BRG1        BRG1COCO    BRG1COCO13AG00000900000000001233154200000000000001400000000000000000000000004962Z01620180310X066010000
1MAIL0000065789BR23        BRG1        BRG1COCO    BRG1COCO13AG2018030800:00:00OR  01000003832195000383219565789                              2018030820180310Z016CIF201803100000000000016586NN0                                                  0
2MAIL0000065789BR23        BRG1        BRG1COCO    BRG1COCO13AG00000100000000001132033100000000000000100000000000000000000000001834Z01620180310X066005000
2MAIL0000065789BR23        BRG1        BRG1COCO    BRG1COCO13AG00000200000000001132036700000000000000100000000000000000000000001738Z01620180310X066010000
2MAIL0000065789BR23        BRG1        BRG1COCO    BRG1COCO13AG00000300000000001132213000000000000000100000000000000000000000003808Z01620180310X066004000
2MAIL0000065789BR23        BRG1        BRG1COCO    BRG1COCO13AG00000400000000001132213100000000000000100000000000000000000000003808Z01620180310X066004000
2MAIL0000065789BR23        BRG1        BRG1COCO    BRG1COCO13AG00000500000000001227395500000000000000100000000000000000000000001834Z01620180310X066005000
2MAIL0000065789BR23        BRG1        BRG1COCO    BRG1COCO13AG00000600000000001236512900000000000001000000000000000000000000001782Z01620180310X066005000
2MAIL0000065789BR23        BRG1        BRG1COCO    BRG1COCO13AG00000700000000001236515000000000000001000000000000000000000000001782Z01620180310X066005000
1MAIL0000065790BR23        BRG1        BRG1COCO    BRG1COCO13AG2018030800:00:00OR  01000003477293000347729365790                              2018030820180310Z016CIF201803100000000000012053NN0                                                  0
2MAIL0000065790BR23        BRG1        BRG1COCO    BRG1COCO13AG00000100000000001132033100000000000000100000000000000000000000001641Z01620180310X066015000
2MAIL0000065790BR23        BRG1        BRG1COCO    BRG1COCO13AG00000200000000001132036700000000000000100000000000000000000000001641Z01620180310X066015000
2MAIL0000065790BR23        BRG1        BRG1COCO    BRG1COCO13AG00000300000000001215533700000000000000100000000000000000000000001641Z01620180310X066015000
2MAIL0000065790BR23        BRG1        BRG1COCO    BRG1COCO13AG00000400000000001228090100000000000001000000000000000000000000007130Z01620180310X066004960
1MAIL0000065791BR23        BRG1        BRG1COCO    BRG1COCO13AG2018030800:00:00OR  01000003477293000347729365791                              2018030820180310Z859CIF201803100000000000022950NN0                                                  0
2MAIL0000065791BR23        BRG1        BRG1COCO    BRG1COCO13AG00000100000000001233114700000000000000400000000000000000000000005170Z85920180310X066000000
2MAIL0000065791BR23        BRG1        BRG1COCO    BRG1COCO13AG00000200000000001235356200000000000000400000000000000000000000009051Z85920180310X066000000
2MAIL0000065791BR23        BRG1        BRG1COCO    BRG1COCO13AG00000300000000001235737300000000000000300000000000000000000000008729Z85920180310X066000000
1MAIL0000065792BR23        BRG1        BRG1COCO    BRG1COCO13AG2018030800:00:00OR  01000003475866000347586665792                              2018030820180310Z016CIF201803100000000000020346NN0                                                  0
2MAIL0000065792BR23        BRG1        BRG1COCO    BRG1COCO13AG00000100000000001132033100000000000000100000000000000000000000001641Z01620180310X066015000
2MAIL0000065792BR23        BRG1        BRG1COCO    BRG1COCO13AG00000200000000001132036700000000000000100000000000000000000000001641Z01620180310X066015000
2MAIL0000065792BR23        BRG1        BRG1COCO    BRG1COCO13AG00000300000000001228090100000000000001000000000000000000000000007130Z01620180310X066004960
2MAIL0000065792BR23        BRG1        BRG1COCO    BRG1COCO13AG00000400000000001233081900000000000001400000000000000000000000004967Z01620180310X066009920
2MAIL0000065792BR23        BRG1        BRG1COCO    BRG1COCO13AG00000500000000001233098400000000000001400000000000000000000000004967Z01620180310X066009920
1MAIL0000065793BR23        BRG1        BRG1COCO    BRG1COCO13AG2018030800:00:00OR  01000005513881000551388165793                              2018030820180310Z016CIF201803100000000000016308NN0                                                  0
2MAIL0000065793BR23        BRG1        BRG1COCO    BRG1COCO13AG00000100000000001132033100000000000000200000000000000000000000003281Z01620180310X066015000
2MAIL0000065793BR23        BRG1        BRG1COCO    BRG1COCO13AG00000200000000001132036700000000000000200000000000000000000000003281Z01620180310X066015000
2MAIL0000065793BR23        BRG1        BRG1COCO    BRG1COCO13AG00000300000000001215533700000000000000200000000000000000000000003281Z01620180310X066015000
2MAIL0000065793BR23        BRG1        BRG1COCO    BRG1COCO13AG00000400000000001228100400000000000000300000000000000000000000006465Z01620180310X066018000
1MAIL0000065794BR23        BRG1        BRG1COCO    BRG1COCO13AG2018030800:00:00OR  01000002846624000284662465794                              2018030820180310Z859CIF201803100000000000013577NN0                                                  0
2MAIL0000065794BR23        BRG1        BRG1COCO    BRG1COCO13AG00000100000000001235356200000000000000600000000000000000000000013577Z85920180310X066000000
1MAIL0000065795BR23        BRG1        BRG1COCO    BRG1COCO13AG2018030800:00:00OR  01000002987876000298787665795                              2018030820180310Z016CIF201803100000000000068878NN0                                                  0
2MAIL0000065795BR23        BRG1        BRG1COCO    BRG1COCO13AG00000100000000001132036700000000000000500000000000000000000000008205Z01620180310X066015000
2MAIL0000065795BR23        BRG1        BRG1COCO    BRG1COCO13AG00000200000000001215533700000000000000300000000000000000000000004923Z01620180310X066015000
2MAIL0000065795BR23        BRG1        BRG1COCO    BRG1COCO13AG00000300000000001221415400000000000000300000000000000000000000010796Z01620180310X066025000
2MAIL0000065795BR23        BRG1        BRG1COCO    BRG1COCO13AG00000400000000001228512700000000000000100000000000000000000000004522Z01620180310X066005000
2MAIL0000065795BR23        BRG1        BRG1COCO    BRG1COCO13AG00000500000000001231189200000000000000100000000000000000000000004522Z01620180310X066005000
2MAIL0000065795BR23        BRG1        BRG1COCO    BRG1COCO13AG00000600000000001231231200000000000000100000000000000000000000004522Z01620180310X066005000
2MAIL0000065795BR23        BRG1        BRG1COCO    BRG1COCO13AG00000700000000001234705700000000000000100000000000000000000000004522Z01620180310X066005000
2MAIL0000065795BR23        BRG1        BRG1COCO    BRG1COCO13AG00000800000000001234705800000000000000100000000000000000000000004522Z01620180310X066005000
2MAIL0000065795BR23        BRG1        BRG1COCO    BRG1COCO13AG00000900000000001236512900000000000007000000000000000000000000011172Z01620180310X066005000
2MAIL0000065795BR23        BRG1        BRG1COCO    BRG1COCO13AG00001000000000001236515000000000000007000000000000000000000000011172Z01620180310X066005000
1MAIL0000065796BR23        BRG1        BRG1COCO    BRG1COCO13AG2018030800:00:00OR  01000003201697000320169765796                              2018030820180310Z859CIF201803100000000000094700NN0                                                  0
2MAIL0000065796BR23        BRG1        BRG1COCO    BRG1COCO13AG00000100000000001233114700000000000002000000000000000000000000025851Z85920180310X066000000
2MAIL0000065796BR23        BRG1        BRG1COCO    BRG1COCO13AG00000200000000001235356200000000000001500000000000000000000000033941Z85920180310X066000000
2MAIL0000065796BR23        BRG1        BRG1COCO    BRG1COCO13AG00000300000000001235562300000000000000200000000000000000000000011632Z85920180310X066000000
2MAIL0000065796BR23        BRG1        BRG1COCO    BRG1COCO13AG00000400000000001235737300000000000000800000000000000000000000023276Z85920180310X066000000
1MAIL0000065797BR23        BRG1        BRG1COCO    BRG1COCO13AG2018030800:00:00OR  01000005532920000553292065797                              2018030820180310Z016CIF201803100000000000023649NN0                                                  0
2MAIL0000065797BR23        BRG1        BRG1COCO    BRG1COCO13AG00000100000000001132019800000000000000100000000000000000000000002184Z01620180310X066005000
2MAIL0000065797BR23        BRG1        BRG1COCO    BRG1COCO13AG00000200000000001132033100000000000000100000000000000000000000001641Z01620180310X066015000
2MAIL0000065797BR23        BRG1        BRG1COCO    BRG1COCO13AG00000300000000001132036700000000000000300000000000000000000000004923Z01620180310X066015000
2MAIL0000065797BR23        BRG1        BRG1COCO    BRG1COCO13AG00000400000000001233081900000000000001400000000000000000000000004967Z01620180310X066009920
2MAIL0000065797BR23        BRG1        BRG1COCO    BRG1COCO13AG00000500000000001233098400000000000001400000000000000000000000004967Z01620180310X066009920
2MAIL0000065797BR23        BRG1        BRG1COCO    BRG1COCO13AG00000600000000001233154200000000000001400000000000000000000000004967Z01620180310X066009920
1MAIL0000065798BR23        BRG1        BRG1COCO    BRG1COCO13AG2018030800:00:00OR  01000005344475000534447565798                              2018030820180310Z859CIF201803100000000000013577NN0                                                  0
2MAIL0000065798BR23        BRG1        BRG1COCO    BRG1COCO13AG00000100000000001235356200000000000000600000000000000000000000013577Z85920180310X066000000
1MAIL0000065799BR23        BRG1        BRG1COCO    BRG1COCO13AG2018030800:00:00OR  01000005344475000534447565799                              2018030820180310Z016CIF201803100000000000020583NN0                                                  0
2MAIL0000065799BR23        BRG1        BRG1COCO    BRG1COCO13AG00000100000000001132033100000000000000100000000000000000000000001641Z01620180310X066015000
2MAIL0000065799BR23        BRG1        BRG1COCO    BRG1COCO13AG00000200000000001132036700000000000000200000000000000000000000003281Z01620180310X066015000
2MAIL0000065799BR23        BRG1        BRG1COCO    BRG1COCO13AG00000300000000001228090100000000000001500000000000000000000000010694Z01620180310X066004960
2MAIL0000065799BR23        BRG1        BRG1COCO    BRG1COCO13AG00000400000000001233081900000000000001400000000000000000000000004967Z01620180310X066009920
1MAIL0000065800BR23        BRG1        BRG1COCO    BRG1COCO13AG2018030800:00:00OR  01000004323793000432379365800                              2018030820180310Z016CIF201803100000000000026351NN0                                                  0
2MAIL0000065800BR23        BRG1        BRG1COCO    BRG1COCO13AG00000100000000001228090100000000000003000000000000000000000000021389Z01620180310X066004960
2MAIL0000065800BR23        BRG1        BRG1COCO    BRG1COCO13AG00000200000000001233081900000000000001400000000000000000000000004962Z01620180310X066010000
1MAIL0000065801BR23        BRG1        BRG1COCO    BRG1COCO13AG2018030800:00:00OR  01000005431742000543174265801                              2018030820180310Z016CIF201803100000000000083767NN0                                                  0
2MAIL0000065801BR23        BRG1        BRG1COCO    BRG1COCO13AG00000100000000001132018300000000000000100000000000000000000000003598Z01620180310X066025000
2MAIL0000065801BR23        BRG1        BRG1COCO    BRG1COCO13AG00000200000000001132200400000000000000300000000000000000000000005326Z01620180310X066004850
2MAIL0000065801BR23        BRG1        BRG1COCO    BRG1COCO13AG00000300000000001221415400000000000000100000000000000000000000003598Z01620180310X066025000
2MAIL0000065801BR23        BRG1        BRG1COCO    BRG1COCO13AG00000400000000001223975300000000000000100000000000000000000000004522Z01620180310X066005000
2MAIL0000065801BR23        BRG1        BRG1COCO    BRG1COCO13AG00000500000000001228090100000000000006000000000000000000000000042778Z01620180310X066004960
2MAIL0000065801BR23        BRG1        BRG1COCO    BRG1COCO13AG00000600000000001231231200000000000000100000000000000000000000004522Z01620180310X066005000
2MAIL0000065801BR23        BRG1        BRG1COCO    BRG1COCO13AG00000700000000001233081900000000000001400000000000000000000000004967Z01620180310X066009920
2MAIL0000065801BR23        BRG1        BRG1COCO    BRG1COCO13AG00000800000000001233098400000000000001400000000000000000000000004967Z01620180310X066009920
2MAIL0000065801BR23        BRG1        BRG1COCO    BRG1COCO13AG00000900000000001233154200000000000001400000000000000000000000004967Z01620180310X066009920
2MAIL0000065801BR23        BRG1        BRG1COCO    BRG1COCO13AG00001000000000001234705800000000000000100000000000000000000000004522Z01620180310X066005000
1MAIL0000065802BR23        BRG1        BRG1COCO    BRG1COCO13AG2018030800:00:00OR  01000003827745000382774565802                              2018030820180310Z859CIF201803100000000000023276NN0                                                  0
2MAIL0000065802BR23        BRG1        BRG1COCO    BRG1COCO13AG00000100000000001235737300000000000000800000000000000000000000023276Z85920180310X066000000
1MAIL0000065803BR23        BRG1        BRG1COCO    BRG1COCO13AG2018030800:00:00OR  01000005453508000545350865803                              2018030820180310Z009CIF201803100000000000035764NN0                                                  0
2MAIL0000065803BR23        BRG1        BRG1COCO    BRG1COCO13AG00000100000000001214451500000000000000700000000000000000000000035764Z00920180310X066020000
1MAIL0000065804BR23        BRG1        BRG1COCO    BRG1COCO13AG2018030800:00:00OR  01000005453508000545350865804                              2018030820180310Z016CIF201803100000000000041133NN0                                                  0
2MAIL0000065804BR23        BRG1        BRG1COCO    BRG1COCO13AG00000100000000001214451500000000000000800000000000000000000000041133Z01620180310X066020000
1MAIL0000065805BR23        BRG1        BRG1COCO    BRG1COCO13AG2018030800:00:00OR  01000002928003000292800365805                              2018030820180310Z016CIF201803100000000000017976NN0                                                  0
2MAIL0000065805BR23        BRG1        BRG1COCO    BRG1COCO13AG00000100000000001132036700000000000000100000000000000000000000001710Z01620180310X066015000
2MAIL0000065805BR23        BRG1        BRG1COCO    BRG1COCO13AG00000200000000001215533700000000000000100000000000000000000000001710Z01620180310X066015000
2MAIL0000065805BR23        BRG1        BRG1COCO    BRG1COCO13AG00000300000000001227395500000000000000100000000000000000000000001710Z01620180310X066015000
2MAIL0000065805BR23        BRG1        BRG1COCO    BRG1COCO13AG00000400000000001231231200000000000000100000000000000000000000004713Z01620180310X066005000
2MAIL0000065805BR23        BRG1        BRG1COCO    BRG1COCO13AG00000500000000001231389600000000000000100000000000000000000000001710Z01620180310X066015000
2MAIL0000065805BR23        BRG1        BRG1COCO    BRG1COCO13AG00000600000000001233695100000000000000100000000000000000000000001710Z01620180310X066015000
2MAIL0000065805BR23        BRG1        BRG1COCO    BRG1COCO13AG00000700000000001234705700000000000000100000000000000000000000004713Z01620180310X066005000
1MAIL0000065806BR23        BRG1        BRG1COCO    BRG1COCO13AG2018030800:00:00OR  01000005156768000515676865806                              2018030820180310Z016CIF201803100000000000031021NN0                                                  0
2MAIL0000065806BR23        BRG1        BRG1COCO    BRG1COCO13AG00000100000000001132036700000000000000300000000000000000000000005793Z01620180310X066000000
2MAIL0000065806BR23        BRG1        BRG1COCO    BRG1COCO13AG00000200000000001226089600000000000001200000000000000000000000004051Z01620180310X066010000
2MAIL0000065806BR23        BRG1        BRG1COCO    BRG1COCO13AG00000300000000001228090100000000000001500000000000000000000000011253Z01620180310X066000000
2MAIL0000065806BR23        BRG1        BRG1COCO    BRG1COCO13AG00000400000000001233081900000000000001400000000000000000000000004962Z01620180310X066010000
2MAIL0000065806BR23        BRG1        BRG1COCO    BRG1COCO13AG00000500000000001233098500000000000001400000000000000000000000004962Z01620180310X066010000
1MAIL0000065807BR23        BRG1        BRG1COCO    BRG1COCO13AG2018030800:00:00OR  01000004340937000434093765807                              2018030820180310Z016CIF201803100000000000122956NN0                                                  0
2MAIL0000065807BR23        BRG1        BRG1COCO    BRG1COCO13AG00000100000000001132019700000000000000200000000000000000000000004369Z01620180310X066005000
2MAIL0000065807BR23        BRG1        BRG1COCO    BRG1COCO13AG00000200000000001132019800000000000000200000000000000000000000004369Z01620180310X066005000
2MAIL0000065807BR23        BRG1        BRG1COCO    BRG1COCO13AG00000300000000001132019900000000000000200000000000000000000000004369Z01620180310X066005000
2MAIL0000065807BR23        BRG1        BRG1COCO    BRG1COCO13AG00000400000000001132020900000000000000200000000000000000000000004369Z01620180310X066005000
2MAIL0000065807BR23        BRG1        BRG1COCO    BRG1COCO13AG00000500000000001132033100000000000000300000000000000000000000004923Z01620180310X066015000
2MAIL0000065807BR23        BRG1        BRG1COCO    BRG1COCO13AG00000600000000001132036700000000000000500000000000000000000000008208Z01620180310X066015000
2MAIL0000065807BR23        BRG1        BRG1COCO    BRG1COCO13AG00000700000000001132213000000000000000300000000000000000000000010283Z01620180310X066004950
2MAIL0000065807BR23        BRG1        BRG1COCO    BRG1COCO13AG00000800000000001132213100000000000000300000000000000000000000010283Z01620180310X066004950
2MAIL0000065807BR23        BRG1        BRG1COCO    BRG1COCO13AG00000900000000001215533700000000000000300000000000000000000000004923Z01620180310X066015000
2MAIL0000065807BR23        BRG1        BRG1COCO    BRG1COCO13AG00001000000000001223975300000000000000200000000000000000000000008224Z01620180310X066005000
2MAIL0000065807BR23        BRG1        BRG1COCO    BRG1COCO13AG00001100000000001227395500000000000000300000000000000000000000004923Z01620180310X066015000
2MAIL0000065807BR23        BRG1        BRG1COCO    BRG1COCO13AG00001200000000001227735000000000000000200000000000000000000000004369Z01620180310X066005000
2MAIL0000065807BR23        BRG1        BRG1COCO    BRG1COCO13AG00001300000000001228274000000000000000200000000000000000000000008224Z01620180310X066005000
2MAIL0000065807BR23        BRG1        BRG1COCO    BRG1COCO13AG00001400000000001228512700000000000000200000000000000000000000008224Z01620180310X066005000
2MAIL0000065807BR23        BRG1        BRG1COCO    BRG1COCO13AG00001500000000001231189200000000000000200000000000000000000000008224Z01620180310X066005000
2MAIL0000065807BR23        BRG1        BRG1COCO    BRG1COCO13AG00001600000000001231231200000000000000200000000000000000000000008224Z01620180310X066005000
2MAIL0000065807BR23        BRG1        BRG1COCO    BRG1COCO13AG00001700000000001234705700000000000000200000000000000000000000008224Z01620180310X066005000
2MAIL0000065807BR23        BRG1        BRG1COCO    BRG1COCO13AG00001800000000001234705800000000000000200000000000000000000000008224Z01620180310X066005000
1MAIL0000065808BR23        BRG1        BRG1COCO    BRG1COCO13AG2018030800:00:00OR  01000002922795000292279565808                              2018030820180310Z016CIF201803100000000000037758NN0                                                  0
2MAIL0000065808BR23        BRG1        BRG1COCO    BRG1COCO13AG00000100000000001132033100000000000000100000000000000000000000001710Z01620180310X066015000
2MAIL0000065808BR23        BRG1        BRG1COCO    BRG1COCO13AG00000200000000001132036700000000000000200000000000000000000000003420Z01620180310X066015000
2MAIL0000065808BR23        BRG1        BRG1COCO    BRG1COCO13AG00000300000000001228090100000000000003000000000000000000000000022286Z01620180310X066004960
2MAIL0000065808BR23        BRG1        BRG1COCO    BRG1COCO13AG00000400000000001233081900000000000001400000000000000000000000005171Z01620180310X066010000
2MAIL0000065808BR23        BRG1        BRG1COCO    BRG1COCO13AG00000500000000001233098400000000000001400000000000000000000000005171Z01620180310X066010000
1MAIL0000065809BR23        BRG1        BRG1COCO    BRG1COCO13AG2018030800:00:00OR  01000004448133000444813365809                              2018030820180310Z016CIF201803100000000000028341NN0                                                  0
2MAIL0000065809BR23        BRG1        BRG1COCO    BRG1COCO13AG00000100000000001132033100000000000000100000000000000000000000001738Z01620180310X066010000
2MAIL0000065809BR23        BRG1        BRG1COCO    BRG1COCO13AG00000200000000001132036700000000000000200000000000000000000000003476Z01620180310X066010000
2MAIL0000065809BR23        BRG1        BRG1COCO    BRG1COCO13AG00000300000000001215533700000000000000100000000000000000000000001738Z01620180310X066010000
2MAIL0000065809BR23        BRG1        BRG1COCO    BRG1COCO13AG00000400000000001228090100000000000003000000000000000000000000021389Z01620180310X066004960
1MAIL0000065810BR23        BRG1        BRG1COCO    BRG1COCO13AG2018030800:00:00OR  01000004776409000477640965810                              2018030820180310Z016CIF201803100000000000109247NN0                                                  0
2MAIL0000065810BR23        BRG1        BRG1COCO    BRG1COCO13AG00000100000000001132020900000000000000100000000000000000000000002184Z01620180310X066005000
2MAIL0000065810BR23        BRG1        BRG1COCO    BRG1COCO13AG00000200000000001132033100000000000000800000000000000000000000013131Z01620180310X066015000
2MAIL0000065810BR23        BRG1        BRG1COCO    BRG1COCO13AG00000300000000001132036700000000000001400000000000000000000000022980Z01620180310X066015000
2MAIL0000065810BR23        BRG1        BRG1COCO    BRG1COCO13AG00000400000000001215533700000000000000800000000000000000000000013131Z01620180310X066015000
2MAIL0000065810BR23        BRG1        BRG1COCO    BRG1COCO13AG00000500000000001228090100000000000003000000000000000000000000021389Z01620180310X066004960
2MAIL0000065810BR23        BRG1        BRG1COCO    BRG1COCO13AG00000600000000001228100400000000000001000000000000000000000000021546Z01620180310X066018000
2MAIL0000065810BR23        BRG1        BRG1COCO    BRG1COCO13AG00000700000000001233098400000000000001400000000000000000000000004962Z01620180310X066010000
2MAIL0000065810BR23        BRG1        BRG1COCO    BRG1COCO13AG00000800000000001233098500000000000001400000000000000000000000004962Z01620180310X066010000
2MAIL0000065810BR23        BRG1        BRG1COCO    BRG1COCO13AG00000900000000001233154200000000000001400000000000000000000000004962Z01620180310X066010000
1MAIL0000065811BR23        BRG1        BRG1COCO    BRG1COCO13AG2018030800:00:00OR  01000004025105000402510565811                              2018030820180310Z859CIF201803100000000000004526NN0                                                  0
2MAIL0000065811BR23        BRG1        BRG1COCO    BRG1COCO13AG00000100000000001235356200000000000000200000000000000000000000004526Z85920180310X066000000
1MAIL0000065812BR23        BRG1        BRG1COCO    BRG1COCO13AG2018030800:00:00OR  01000003469715000346971565812                              2018030820180310Z859CIF201803100000000000004526NN0                                                  0
2MAIL0000065812BR23        BRG1        BRG1COCO    BRG1COCO13AG00000100000000001235356200000000000000200000000000000000000000004526Z85920180310X066000000
1MAIL0000065813BR23        BRG1        BRG1COCO    BRG1COCO13AG2018030800:00:00OR  01000002979904000297990465813                              2018030820180310Z016CIF201803100000000000213887NN0                                                  0
2MAIL0000065813BR23        BRG1        BRG1COCO    BRG1COCO13AG00000100000000001228090100000000000030000000000000000000000000213887Z01620180310X066004960
1MAIL0000065814BR23        BRG1        BRG1COCO    BRG1COCO13AG2018030800:00:00OR  01000002979973000297997365814                              2018030820180310Z016CIF201803100000000000147966NN0                                                  0
2MAIL0000065814BR23        BRG1        BRG1COCO    BRG1COCO13AG00000100000000001132019700000000000000400000000000000000000000008737Z01620180310X066005000
2MAIL0000065814BR23        BRG1        BRG1COCO    BRG1COCO13AG00000200000000001132019800000000000000400000000000000000000000008737Z01620180310X066005000
2MAIL0000065814BR23        BRG1        BRG1COCO    BRG1COCO13AG00000300000000001132019900000000000000400000000000000000000000008737Z01620180310X066005000
2MAIL0000065814BR23        BRG1        BRG1COCO    BRG1COCO13AG00000400000000001132020900000000000000400000000000000000000000008737Z01620180310X066005000
2MAIL0000065814BR23        BRG1        BRG1COCO    BRG1COCO13AG00000500000000001132033100000000000000400000000000000000000000006565Z01620180310X066015000
2MAIL0000065814BR23        BRG1        BRG1COCO    BRG1COCO13AG00000600000000001132034900000000000000500000000000000000000000007707Z01620180310X066015000
2MAIL0000065814BR23        BRG1        BRG1COCO    BRG1COCO13AG00000700000000001132035000000000000000500000000000000000000000008559Z01620180310X066015000
2MAIL0000065814BR23        BRG1        BRG1COCO    BRG1COCO13AG00000800000000001132035100000000000000500000000000000000000000008131Z01620180310X066015000
2MAIL0000065814BR23        BRG1        BRG1COCO    BRG1COCO13AG00000900000000001132036700000000000000400000000000000000000000006565Z01620180310X066015000
2MAIL0000065814BR23        BRG1        BRG1COCO    BRG1COCO13AG00001000000000001132200400000000000000400000000000000000000000007101Z01620180310X066004850
2MAIL0000065814BR23        BRG1        BRG1COCO    BRG1COCO13AG00001100000000001132213000000000000000200000000000000000000000007541Z01620180310X066004950
2MAIL0000065814BR23        BRG1        BRG1COCO    BRG1COCO13AG00001200000000001132213100000000000000200000000000000000000000007543Z01620180310X066004920
2MAIL0000065814BR23        BRG1        BRG1COCO    BRG1COCO13AG00001300000000001132400100000000000000400000000000000000000000013342Z01620180310X066005000
2MAIL0000065814BR23        BRG1        BRG1COCO    BRG1COCO13AG00001400000000001215533700000000000000400000000000000000000000006565Z01620180310X066015000
2MAIL0000065814BR23        BRG1        BRG1COCO    BRG1COCO13AG00001500000000001227395500000000000000400000000000000000000000006565Z01620180310X066015000
2MAIL0000065814BR23        BRG1        BRG1COCO    BRG1COCO13AG00001600000000001227735000000000000000400000000000000000000000008737Z01620180310X066005000
2MAIL0000065814BR23        BRG1        BRG1COCO    BRG1COCO13AG00001700000000001231389600000000000000400000000000000000000000006565Z01620180310X066015000
2MAIL0000065814BR23        BRG1        BRG1COCO    BRG1COCO13AG00001800000000001233098600000000000001400000000000000000000000004967Z01620180310X066009920
2MAIL0000065814BR23        BRG1        BRG1COCO    BRG1COCO13AG00001900000000001233695100000000000000400000000000000000000000006565Z01620180310X066015000
1MAIL0000065815BR23        BRG1        BRG1COCO    BRG1COCO13AG2018030800:00:00OR  01000004025105000402510565815                              2018030820180310Z016CIF201803100000000000038069NN0                                                  0
2MAIL0000065815BR23        BRG1        BRG1COCO    BRG1COCO13AG00000100000000001132033100000000000000500000000000000000000000008205Z01620180310X066015000
2MAIL0000065815BR23        BRG1        BRG1COCO    BRG1COCO13AG00000200000000001132036700000000000000500000000000000000000000008205Z01620180310X066015000
2MAIL0000065815BR23        BRG1        BRG1COCO    BRG1COCO13AG00000300000000001132200400000000000000100000000000000000000000001791Z01620180310X066004000
2MAIL0000065815BR23        BRG1        BRG1COCO    BRG1COCO13AG00000400000000001233081900000000000001400000000000000000000000004967Z01620180310X066009920
2MAIL0000065815BR23        BRG1        BRG1COCO    BRG1COCO13AG00000500000000001233098400000000000001400000000000000000000000004967Z01620180310X066009920
2MAIL0000065815BR23        BRG1        BRG1COCO    BRG1COCO13AG00000600000000001233154200000000000001400000000000000000000000004967Z01620180310X066009920
2MAIL0000065815BR23        BRG1        BRG1COCO    BRG1COCO13AG00000700000000001234708700000000000001400000000000000000000000004967Z01620180310X066009920
1MAIL0000065816BR23        BRG1        BRG1COCO    BRG1COCO13AG2018030800:00:00OR  01000005200195000520019565816                              2018030820180310Z016CIF201803100000000000026781NN0                                                  0
2MAIL0000065816BR23        BRG1        BRG1COCO    BRG1COCO13AG00000100000000001132033100000000000000100000000000000000000000001931Z01620180310X066000000
2MAIL0000065816BR23        BRG1        BRG1COCO    BRG1COCO13AG00000200000000001132036700000000000000100000000000000000000000001931Z01620180310X066000000
2MAIL0000065816BR23        BRG1        BRG1COCO    BRG1COCO13AG00000300000000001215533700000000000000100000000000000000000000001931Z01620180310X066000000
2MAIL0000065816BR23        BRG1        BRG1COCO    BRG1COCO13AG00000400000000001226089600000000000001200000000000000000000000004501Z01620180310X066000000
2MAIL0000065816BR23        BRG1        BRG1COCO    BRG1COCO13AG00000500000000001227395500000000000000100000000000000000000000001931Z01620180310X066000000
2MAIL0000065816BR23        BRG1        BRG1COCO    BRG1COCO13AG00000600000000001228090100000000000001500000000000000000000000010694Z01620180310X066004960
2MAIL0000065816BR23        BRG1        BRG1COCO    BRG1COCO13AG00000700000000001231389600000000000000100000000000000000000000001931Z01620180310X066000000
2MAIL0000065816BR23        BRG1        BRG1COCO    BRG1COCO13AG00000800000000001233695100000000000000100000000000000000000000001931Z01620180310X066000000
1MAIL0000065817BR23        BRG1        BRG1COCO    BRG1COCO13AG2018030800:00:00OR  01000003266913000326691365817                              2018030820180310Z016CIF201803100000000000229999NN0                                                  0
2MAIL0000065817BR23        BRG1        BRG1COCO    BRG1COCO13AG00000100000000001132033100000000000000100000000000000000000000001834Z01620180310X066005000
2MAIL0000065817BR23        BRG1        BRG1COCO    BRG1COCO13AG00000200000000001132036700000000000000100000000000000000000000001931Z01620180310X066000000
2MAIL0000065817BR23        BRG1        BRG1COCO    BRG1COCO13AG00000300000000001215533700000000000000100000000000000000000000001931Z01620180310X066000000
2MAIL0000065817BR23        BRG1        BRG1COCO    BRG1COCO13AG00000400000000001226089600000000000001200000000000000000000000004092Z01620180310X066000000
2MAIL0000065817BR23        BRG1        BRG1COCO    BRG1COCO13AG00000500000000001228090100000000000030000000000000000000000000194429Z01620180310X066004960
2MAIL0000065817BR23        BRG1        BRG1COCO    BRG1COCO13AG00000600000000001233081900000000000001400000000000000000000000005013Z01620180310X066000000
2MAIL0000065817BR23        BRG1        BRG1COCO    BRG1COCO13AG00000700000000001233098500000000000001400000000000000000000000005013Z01620180310X066000000
2MAIL0000065817BR23        BRG1        BRG1COCO    BRG1COCO13AG00000800000000001233154200000000000001400000000000000000000000005013Z01620180310X066000000
2MAIL0000065817BR23        BRG1        BRG1COCO    BRG1COCO13AG00000900000000001235699400000000000001000000000000000000000000003581Z01620180310X066000000
2MAIL0000065817BR23        BRG1        BRG1COCO    BRG1COCO13AG00001000000000001235699700000000000001000000000000000000000000003581Z01620180310X066000000
2MAIL0000065817BR23        BRG1        BRG1COCO    BRG1COCO13AG00001100000000001235699800000000000001000000000000000000000000003581Z01620180310X066000000
1MAIL0000065818BR23        BRG1        BRG1COCO    BRG1COCO13AG2018030800:00:00OR  01000004631026000463102665818                              2018030820180310Z859CIF201803100000000000010345NN0                                                  0
2MAIL0000065818BR23        BRG1        BRG1COCO    BRG1COCO13AG00000100000000001235356200000000000000200000000000000000000000004526Z85920180310X066000000
2MAIL0000065818BR23        BRG1        BRG1COCO    BRG1COCO13AG00000200000000001235737300000000000000200000000000000000000000005819Z85920180310X066000000
1MAIL0000065819BR23        BRG1        BRG1COCO    BRG1COCO13AG2018030800:00:00OR  01000004788391000478839165819                              2018030820180310Z016CIF201803100000000000097507NN0                                                  0
2MAIL0000065819BR23        BRG1        BRG1COCO    BRG1COCO13AG00000100000000001132004000000000000000500000000000000000000000004039Z01620180310X066005000
2MAIL0000065819BR23        BRG1        BRG1COCO    BRG1COCO13AG00000200000000001132200400000000000000300000000000000000000000005229Z01620180310X066004800
2MAIL0000065819BR23        BRG1        BRG1COCO    BRG1COCO13AG00000300000000001226089600000000000001200000000000000000000000004017Z01620180310X066009000
2MAIL0000065819BR23        BRG1        BRG1COCO    BRG1COCO13AG00000400000000001231189200000000000000100000000000000000000000004438Z01620180310X066005000
2MAIL0000065819BR23        BRG1        BRG1COCO    BRG1COCO13AG00000500000000001231231200000000000000100000000000000000000000004438Z01620180310X066005000
2MAIL0000065819BR23        BRG1        BRG1COCO    BRG1COCO13AG00000600000000001233081900000000000001400000000000000000000000004920Z01620180310X066009000
2MAIL0000065819BR23        BRG1        BRG1COCO    BRG1COCO13AG00000700000000001233098400000000000004200000000000000000000000014761Z01620180310X066009000
2MAIL0000065819BR23        BRG1        BRG1COCO    BRG1COCO13AG00000800000000001233098500000000000001400000000000000000000000004920Z01620180310X066009000
2MAIL0000065819BR23        BRG1        BRG1COCO    BRG1COCO13AG00000900000000001233098600000000000001400000000000000000000000004920Z01620180310X066009000
2MAIL0000065819BR23        BRG1        BRG1COCO    BRG1COCO13AG00001000000000001233098800000000000001400000000000000000000000004920Z01620180310X066009000
2MAIL0000065819BR23        BRG1        BRG1COCO    BRG1COCO13AG00001100000000001233099500000000000001400000000000000000000000004920Z01620180310X066009000
2MAIL0000065819BR23        BRG1        BRG1COCO    BRG1COCO13AG00001200000000001233154200000000000001400000000000000000000000004920Z01620180310X066009000
2MAIL0000065819BR23        BRG1        BRG1COCO    BRG1COCO13AG00001300000000001234708700000000000001400000000000000000000000004920Z01620180310X066009000
2MAIL0000065819BR23        BRG1        BRG1COCO    BRG1COCO13AG00001400000000001235699400000000000001000000000000000000000000003630Z01620180310X066006000
2MAIL0000065819BR23        BRG1        BRG1COCO    BRG1COCO13AG00001500000000001235699700000000000001000000000000000000000000003630Z01620180310X066006000
2MAIL0000065819BR23        BRG1        BRG1COCO    BRG1COCO13AG00001600000000001235699800000000000001000000000000000000000000003630Z01620180310X066006000
2MAIL0000065819BR23        BRG1        BRG1COCO    BRG1COCO13AG00001700000000001236512800000000000002000000000000000000000000003435Z01620180310X066000000
2MAIL0000065819BR23        BRG1        BRG1COCO    BRG1COCO13AG00001800000000001236512900000000000002000000000000000000000000003135Z01620180310X066005000
2MAIL0000065819BR23        BRG1        BRG1COCO    BRG1COCO13AG00001900000000001236514100000000000002000000000000000000000000003435Z01620180310X066000000
2MAIL0000065819BR23        BRG1        BRG1COCO    BRG1COCO13AG00002000000000001236515000000000000002000000000000000000000000003135Z01620180310X066005000
2MAIL0000065819BR23        BRG1        BRG1COCO    BRG1COCO13AG00002100000000001236528200000000000000500000000000000000000000002115Z01620180310X066000000
1MAIL0000065820BR23        BRG1        BRG1COCO    BRG1COCO13AG2018030800:00:00OR  01000004788391000478839165820                              2018030820180310Z859CIF201803100000000000025215NN0                                                  0
2MAIL0000065820BR23        BRG1        BRG1COCO    BRG1COCO13AG00000100000000001235356200000000000000600000000000000000000000013577Z85920180310X066000000
2MAIL0000065820BR23        BRG1        BRG1COCO    BRG1COCO13AG00000200000000001235737300000000000000400000000000000000000000011638Z85920180310X066000000
1MAIL0000065821BR23        BRG1        BRG1COCO    BRG1COCO13AG2018030800:00:00OR  01000005049578000504957865821                              2018030820180310Z016CIF201803100000000000086245NN0                                                  0
2MAIL0000065821BR23        BRG1        BRG1COCO    BRG1COCO13AG00000100000000001132034900000000000000500000000000000000000000007707Z01620180310X066015000
2MAIL0000065821BR23        BRG1        BRG1COCO    BRG1COCO13AG00000200000000001132035100000000000000500000000000000000000000008131Z01620180310X066015000
2MAIL0000065821BR23        BRG1        BRG1COCO    BRG1COCO13AG00000300000000001228090100000000000003000000000000000000000000021389Z01620180310X066004960
2MAIL0000065821BR23        BRG1        BRG1COCO    BRG1COCO13AG00000400000000001228100400000000000001000000000000000000000000021546Z01620180310X066018000
2MAIL0000065821BR23        BRG1        BRG1COCO    BRG1COCO13AG00000500000000001233098400000000000001400000000000000000000000005017Z01620180310X066009000
2MAIL0000065821BR23        BRG1        BRG1COCO    BRG1COCO13AG00000600000000001233098500000000000001400000000000000000000000005017Z01620180310X066009000
2MAIL0000065821BR23        BRG1        BRG1COCO    BRG1COCO13AG00000700000000001233098600000000000001400000000000000000000000005017Z01620180310X066009000
2MAIL0000065821BR23        BRG1        BRG1COCO    BRG1COCO13AG00000800000000001233154200000000000001400000000000000000000000005017Z01620180310X066009000
2MAIL0000065821BR23        BRG1        BRG1COCO    BRG1COCO13AG00000900000000001235699400000000000001000000000000000000000000003702Z01620180310X066006000
2MAIL0000065821BR23        BRG1        BRG1COCO    BRG1COCO13AG00001000000000001235699800000000000001000000000000000000000000003702Z01620180310X066006000
1MAIL0000065822BR23        BRG1        BRG1COCO    BRG1COCO13AG2018030800:00:00OR  01000005049578000504957865822                              2018030820180310Z859CIF201803100000000000057217NN0                                                  0
2MAIL0000065822BR23        BRG1        BRG1COCO    BRG1COCO13AG00000100000000001235356200000000000001500000000000000000000000033941Z85920180310X066000000
2MAIL0000065822BR23        BRG1        BRG1COCO    BRG1COCO13AG00000200000000001235737300000000000000800000000000000000000000023276Z85920180310X066000000
1MAIL0000065823BR23        BRG1        BRG1COCO    BRG1COCO13AG2018030800:00:00OR  01000000925018000092501865823                              2018030820180310Z859CIF201803100000000000011638NN0                                                  0
2MAIL0000065823BR23        BRG1        BRG1COCO    BRG1COCO13AG00000100000000001235737300000000000000400000000000000000000000011638Z85920180310X066000000
1MAIL0000065824BR23        BRG1        BRG1COCO    BRG1COCO13AG2018030800:00:00OR  01000000925018000092501865824                              2018030820180310Z009CIF201803100000000000096545NN0                                                  0
2MAIL0000065824BR23        BRG1        BRG1COCO    BRG1COCO13AG00000100000000001228090100000000000015000000000000000000000000096545Z00920180310X066004960
1MAIL0000065825BR23        BRG1        BRG1COCO    BRG1COCO13AG2018030800:00:00OR  01000000925018000092501865825                              2018030820180310Z016CIF201803100000000000063045NN0                                                  0
2MAIL0000065825BR23        BRG1        BRG1COCO    BRG1COCO13AG00000100000000001132019700000000000000100000000000000000000000002184Z01620180310X066005000
2MAIL0000065825BR23        BRG1        BRG1COCO    BRG1COCO13AG00000200000000001132020900000000000000100000000000000000000000002184Z01620180310X066005000
2MAIL0000065825BR23        BRG1        BRG1COCO    BRG1COCO13AG00000300000000001132030800000000000000200000000000000000000000006223Z01620180310X066018000
2MAIL0000065825BR23        BRG1        BRG1COCO    BRG1COCO13AG00000400000000001132034900000000000000500000000000000000000000007006Z01620180310X066015000
2MAIL0000065825BR23        BRG1        BRG1COCO    BRG1COCO13AG00000500000000001224882700000000000000200000000000000000000000005770Z01620180310X066004000
2MAIL0000065825BR23        BRG1        BRG1COCO    BRG1COCO13AG00000600000000001231231200000000000000100000000000000000000000004112Z01620180310X066005000
2MAIL0000065825BR23        BRG1        BRG1COCO    BRG1COCO13AG00000700000000001233098400000000000001400000000000000000000000004712Z01620180310X066006000
2MAIL0000065825BR23        BRG1        BRG1COCO    BRG1COCO13AG00000800000000001233098500000000000001400000000000000000000000004712Z01620180310X066006000
2MAIL0000065825BR23        BRG1        BRG1COCO    BRG1COCO13AG00000900000000001233098800000000000001400000000000000000000000004712Z01620180310X066006000
2MAIL0000065825BR23        BRG1        BRG1COCO    BRG1COCO13AG00001000000000001234705700000000000000100000000000000000000000004112Z01620180310X066005000
2MAIL0000065825BR23        BRG1        BRG1COCO    BRG1COCO13AG00001100000000001234705800000000000000100000000000000000000000004112Z01620180310X066005000
2MAIL0000065825BR23        BRG1        BRG1COCO    BRG1COCO13AG00001200000000001235699800000000000001000000000000000000000000003438Z01620180310X066004000
2MAIL0000065825BR23        BRG1        BRG1COCO    BRG1COCO13AG00001300000000001236512800000000000001000000000000000000000000001692Z01620180310X066000000
2MAIL0000065825BR23        BRG1        BRG1COCO    BRG1COCO13AG00001400000000001236512900000000000002000000000000000000000000003192Z01620180310X066005000
2MAIL0000065825BR23        BRG1        BRG1COCO    BRG1COCO13AG00001500000000001236514100000000000001000000000000000000000000001692Z01620180310X066000000
2MAIL0000065825BR23        BRG1        BRG1COCO    BRG1COCO13AG00001600000000001236515000000000000002000000000000000000000000003192Z01620180310X066005000
1MAIL0000065826BR23        BRG1        BRG1COCO    BRG1COCO13AG2018030800:00:00OR  01000002901231000290123165826                              2018030820180310Z016CIF201803100000000000042127NN0                                                  0
2MAIL0000065826BR23        BRG1        BRG1COCO    BRG1COCO13AG00000100000000001228090100000000000003000000000000000000000000021389Z01620180310X066004960
2MAIL0000065826BR23        BRG1        BRG1COCO    BRG1COCO13AG00000200000000001233098400000000000001400000000000000000000000005082Z01620180310X066006000
2MAIL0000065826BR23        BRG1        BRG1COCO    BRG1COCO13AG00000300000000001233098600000000000001400000000000000000000000005082Z01620180310X066006000
2MAIL0000065826BR23        BRG1        BRG1COCO    BRG1COCO13AG00000400000000001235699800000000000001000000000000000000000000003630Z01620180310X066006000
2MAIL0000065826BR23        BRG1        BRG1COCO    BRG1COCO13AG00000500000000001236512800000000000000600000000000000000000000001030Z01620180310X066000000
2MAIL0000065826BR23        BRG1        BRG1COCO    BRG1COCO13AG00000600000000001236512900000000000001000000000000000000000000001596Z01620180310X066005000
2MAIL0000065826BR23        BRG1        BRG1COCO    BRG1COCO13AG00000700000000001236514100000000000000600000000000000000000000001030Z01620180310X066000000
2MAIL0000065826BR23        BRG1        BRG1COCO    BRG1COCO13AG00000800000000001236515000000000000001000000000000000000000000001596Z01620180310X066005000
2MAIL0000065826BR23        BRG1        BRG1COCO    BRG1COCO13AG00000900000000001236528200000000000000400000000000000000000000001692Z01620180310X066000000
1MAIL0000065827BR23        BRG1        BRG1COCO    BRG1COCO13AG2018030800:00:00OR  01000002901231000290123165827                              2018030820180310Z859CIF201803100000000000011314NN0                                                  0
2MAIL0000065827BR23        BRG1        BRG1COCO    BRG1COCO13AG00000100000000001235356200000000000000500000000000000000000000011314Z85920180310X066000000
1MAIL0000065828BR23        BRG1        BRG1COCO    BRG1COCO13AG2018030800:00:00OR  01000005099237000509923765828                              2018030820180310Z016CIF201803100000000000070336NN0                                                  0
2MAIL0000065828BR23        BRG1        BRG1COCO    BRG1COCO13AG00000100000000001132033100000000000000300000000000000000000000005329Z01620180310X066008000
2MAIL0000065828BR23        BRG1        BRG1COCO    BRG1COCO13AG00000200000000001132036700000000000000500000000000000000000000008881Z01620180310X066008000
2MAIL0000065828BR23        BRG1        BRG1COCO    BRG1COCO13AG00000300000000001215533700000000000000200000000000000000000000003552Z01620180310X066008000
2MAIL0000065828BR23        BRG1        BRG1COCO    BRG1COCO13AG00000400000000001228090100000000000006000000000000000000000000042778Z01620180310X066004960
2MAIL0000065828BR23        BRG1        BRG1COCO    BRG1COCO13AG00000500000000001228100400000000000000200000000000000000000000004467Z01620180310X066015000
2MAIL0000065828BR23        BRG1        BRG1COCO    BRG1COCO13AG00000600000000001231389600000000000000300000000000000000000000005329Z01620180310X066008000
1MAIL0000065829BR23        BRG1        BRG1COCO    BRG1COCO13AG2018030800:00:00OR  01000002979895000297989565829                              2018030820180310Z016CIF201803100000000000042778NN0                                                  0
2MAIL0000065829BR23        BRG1        BRG1COCO    BRG1COCO13AG00000100000000001228090100000000000006000000000000000000000000042778Z01620180310X066004960
1MAIL0000065830BR23        BRG1        BRG1COCO    BRG1COCO13AG2018030800:00:00OR  01000005377432000537743265830                              2018030820180310Z016CIF201803100000000000035603NN0                                                  0
2MAIL0000065830BR23        BRG1        BRG1COCO    BRG1COCO13AG00000100000000001132033100000000000000100000000000000000000000001796Z01620180310X066007000
2MAIL0000065830BR23        BRG1        BRG1COCO    BRG1COCO13AG00000200000000001132036700000000000000200000000000000000000000003591Z01620180310X066007000
2MAIL0000065830BR23        BRG1        BRG1COCO    BRG1COCO13AG00000300000000001132200400000000000000200000000000000000000000003731Z01620180310X066000000
2MAIL0000065830BR23        BRG1        BRG1COCO    BRG1COCO13AG00000400000000001215533700000000000000100000000000000000000000001796Z01620180310X066007000
2MAIL0000065830BR23        BRG1        BRG1COCO    BRG1COCO13AG00000500000000001233098400000000000001400000000000000000000000005237Z01620180310X066005000
2MAIL0000065830BR23        BRG1        BRG1COCO    BRG1COCO13AG00000600000000001233098600000000000001400000000000000000000000005237Z01620180310X066005000
2MAIL0000065830BR23        BRG1        BRG1COCO    BRG1COCO13AG00000700000000001233099500000000000001400000000000000000000000005237Z01620180310X066005000
2MAIL0000065830BR23        BRG1        BRG1COCO    BRG1COCO13AG00000800000000001233154200000000000001400000000000000000000000005237Z01620180310X066005000
2MAIL0000065830BR23        BRG1        BRG1COCO    BRG1COCO13AG00000900000000001235699800000000000001000000000000000000000000003741Z01620180310X066005000
1MAIL0000065831BR23        BRG1        BRG1COCO    BRG1COCO13AG2018030800:00:00OR  01000005079890000507989065831                              2018030820180310Z859CIF201803100000000000037500NN0                                                  0
2MAIL0000065831BR23        BRG1        BRG1COCO    BRG1COCO13AG00000100000000001235356200000000000000500000000000000000000000011314Z85920180310X066000000
2MAIL0000065831BR23        BRG1        BRG1COCO    BRG1COCO13AG00000200000000001235699500000000000000500000000000000000000000014548Z85920180310X066000000
2MAIL0000065831BR23        BRG1        BRG1COCO    BRG1COCO13AG00000300000000001235737300000000000000400000000000000000000000011638Z85920180310X066000000
1MAIL0000065832BR23        BRG1        BRG1COCO    BRG1COCO13AG2018030800:00:00OR  01000005515900000551590065832                              2018030820180310Z016CIF201803100000000000106944NN0                                                  0
2MAIL0000065832BR23        BRG1        BRG1COCO    BRG1COCO13AG00000100000000001228090100000000000015000000000000000000000000106944Z01620180310X066004960
1MAIL0000065833BR23        BRG1        BRG1COCO    BRG1COCO13AG2018030800:00:00OR  01000004333383000433338365833                              2018030820180310Z859CIF201803100000000000026186NN0                                                  0
2MAIL0000065833BR23        BRG1        BRG1COCO    BRG1COCO13AG00000100000000001235699500000000000000500000000000000000000000014548Z85920180310X066000000
2MAIL0000065833BR23        BRG1        BRG1COCO    BRG1COCO13AG00000200000000001235737300000000000000400000000000000000000000011638Z85920180310X066000000
1MAIL0000065834BR23        BRG1        BRG1COCO    BRG1COCO13AG2018030800:00:00OR  01000004870585000487058565834                              2018030820180310Z859CIF201803100000000000037500NN0                                                  0
2MAIL0000065834BR23        BRG1        BRG1COCO    BRG1COCO13AG00000100000000001235356200000000000000500000000000000000000000011314Z85920180310X066000000
2MAIL0000065834BR23        BRG1        BRG1COCO    BRG1COCO13AG00000200000000001235699500000000000000500000000000000000000000014548Z85920180310X066000000
2MAIL0000065834BR23        BRG1        BRG1COCO    BRG1COCO13AG00000300000000001235737300000000000000400000000000000000000000011638Z85920180310X066000000
1MAIL0000065835BR23        BRG1        BRG1COCO    BRG1COCO13AG2018030800:00:00OR  01000004165475000416547565835                              2018030820180310Z859CIF201803100000000000023276NN0                                                  0
2MAIL0000065835BR23        BRG1        BRG1COCO    BRG1COCO13AG00000100000000001235737300000000000000800000000000000000000000023276Z85920180310X066000000
1MAIL0000065836BR23        BRG1        BRG1COCO    BRG1COCO13AG2018030800:00:00OR  01000004165475000416547565836                              2018030820180310Z016CIF201803100000000000016410NN0                                                  0
2MAIL0000065836BR23        BRG1        BRG1COCO    BRG1COCO13AG00000100000000001132036700000000000000500000000000000000000000008205Z01620180310X066015000
2MAIL0000065836BR23        BRG1        BRG1COCO    BRG1COCO13AG00000200000000001215533700000000000000500000000000000000000000008205Z01620180310X066015000
1MAIL0000065837BR23        BRG1        BRG1COCO    BRG1COCO13AG2018030800:00:00OR  01000004022454000402245465837                              2018030820180310ZG40CIF201803100000000000060640NN0                                                  0
2MAIL0000065837BR23        BRG1        BRG1COCO    BRG1COCO13AG00000100000000001132019700000000000000100000000000000000000000002143ZG4020180310X066005000
2MAIL0000065837BR23        BRG1        BRG1COCO    BRG1COCO13AG00000200000000001132019800000000000000100000000000000000000000002143ZG4020180310X066005000
2MAIL0000065837BR23        BRG1        BRG1COCO    BRG1COCO13AG00000300000000001132033100000000000000500000000000000000000000008050ZG4020180310X066015000
2MAIL0000065837BR23        BRG1        BRG1COCO    BRG1COCO13AG00000400000000001132036700000000000001000000000000000000000000016102ZG4020180310X066015000
2MAIL0000065837BR23        BRG1        BRG1COCO    BRG1COCO13AG00000500000000001215533700000000000001500000000000000000000000024152ZG4020180310X066015000
2MAIL0000065837BR23        BRG1        BRG1COCO    BRG1COCO13AG00000600000000001231389600000000000000500000000000000000000000008050ZG4020180310X066015000
1MAIL0000065838BR23        BRG1        BRG1COCO    BRG1COCO13AG2018030800:00:00OR  01000004435554000443555465838                              2018030820180310Z016CIF201803100000000000012172NN0                                                  0
2MAIL0000065838BR23        BRG1        BRG1COCO    BRG1COCO13AG00000100000000001132019800000000000000100000000000000000000000002184Z01620180310X066005000
2MAIL0000065838BR23        BRG1        BRG1COCO    BRG1COCO13AG00000200000000001132019900000000000000100000000000000000000000002184Z01620180310X066005000
2MAIL0000065838BR23        BRG1        BRG1COCO    BRG1COCO13AG00000300000000001132036700000000000000200000000000000000000000003282Z01620180310X066015000
2MAIL0000065838BR23        BRG1        BRG1COCO    BRG1COCO13AG00000400000000001234705800000000000000100000000000000000000000004522Z01620180310X066005000
1MAIL0000065839BR23        BRG1        BRG1COCO    BRG1COCO13AG2018030800:00:00OR  01000003202966000320296665839                              2018030820180310Z016CIF201803100000000000019367NN0                                                  0
2MAIL0000065839BR23        BRG1        BRG1COCO    BRG1COCO13AG00000100000000001132033100000000000000200000000000000000000000003474Z01620180310X066010000
2MAIL0000065839BR23        BRG1        BRG1COCO    BRG1COCO13AG00000200000000001132036700000000000000500000000000000000000000008688Z01620180310X066010000
2MAIL0000065839BR23        BRG1        BRG1COCO    BRG1COCO13AG00000300000000001132200400000000000000200000000000000000000000003731Z01620180310X066000000
2MAIL0000065839BR23        BRG1        BRG1COCO    BRG1COCO13AG00000400000000001215533700000000000000200000000000000000000000003474Z01620180310X066010000
1MAIL0000065840BR23        BRG1        BRG1COCO    BRG1COCO13AG2018030800:00:00OR  01000003628304000362830465840                              2018030820180310Z016CIF201803100000000000009926NN0                                                  0
2MAIL0000065840BR23        BRG1        BRG1COCO    BRG1COCO13AG00000100000000001233098400000000000002800000000000000000000000009926Z01620180310X066010000
1MAIL0000065841BR23        BRG1        BRG1COCO    BRG1COCO13AG2018030800:00:00OR  01000002853907000285390765841                              2018030820180310Z016CIF201803100000000000067978NN0                                                  0
2MAIL0000065841BR23        BRG1        BRG1COCO    BRG1COCO13AG00000100000000001132019700000000000000200000000000000000000000004553Z01620180310X066005000
2MAIL0000065841BR23        BRG1        BRG1COCO    BRG1COCO13AG00000200000000001132019800000000000000200000000000000000000000004553Z01620180310X066005000
2MAIL0000065841BR23        BRG1        BRG1COCO    BRG1COCO13AG00000300000000001132019900000000000000200000000000000000000000004553Z01620180310X066005000
2MAIL0000065841BR23        BRG1        BRG1COCO    BRG1COCO13AG00000400000000001132020900000000000000200000000000000000000000004553Z01620180310X066005000
2MAIL0000065841BR23        BRG1        BRG1COCO    BRG1COCO13AG00000500000000001132033100000000000000200000000000000000000000003420Z01620180310X066015000
2MAIL0000065841BR23        BRG1        BRG1COCO    BRG1COCO13AG00000600000000001132036700000000000000200000000000000000000000003420Z01620180310X066015000
2MAIL0000065841BR23        BRG1        BRG1COCO    BRG1COCO13AG00000700000000001132200400000000000000200000000000000000000000003699Z01620180310X066004850
2MAIL0000065841BR23        BRG1        BRG1COCO    BRG1COCO13AG00000800000000001132213000000000000000100000000000000000000000003929Z01620180310X066004950
2MAIL0000065841BR23        BRG1        BRG1COCO    BRG1COCO13AG00000900000000001132213100000000000000100000000000000000000000003929Z01620180310X066004950
2MAIL0000065841BR23        BRG1        BRG1COCO    BRG1COCO13AG00001000000000001132400100000000000000200000000000000000000000006952Z01620180310X066005000
2MAIL0000065841BR23        BRG1        BRG1COCO    BRG1COCO13AG00001100000000001215533700000000000000100000000000000000000000001710Z01620180310X066015000
2MAIL0000065841BR23        BRG1        BRG1COCO    BRG1COCO13AG00001200000000001221415400000000000000100000000000000000000000003598Z01620180310X066025000
2MAIL0000065841BR23        BRG1        BRG1COCO    BRG1COCO13AG00001300000000001227395500000000000000100000000000000000000000001710Z01620180310X066015000
2MAIL0000065841BR23        BRG1        BRG1COCO    BRG1COCO13AG00001400000000001227735000000000000000200000000000000000000000004553Z01620180310X066005000
2MAIL0000065841BR23        BRG1        BRG1COCO    BRG1COCO13AG00001500000000001231389600000000000000100000000000000000000000001710Z01620180310X066015000
2MAIL0000065841BR23        BRG1        BRG1COCO    BRG1COCO13AG00001600000000001233695100000000000000100000000000000000000000001710Z01620180310X066015000
2MAIL0000065841BR23        BRG1        BRG1COCO    BRG1COCO13AG00001700000000001234705700000000000000100000000000000000000000004713Z01620180310X066005000
2MAIL0000065841BR23        BRG1        BRG1COCO    BRG1COCO13AG00001800000000001234705800000000000000100000000000000000000000004713Z01620180310X066005000
1MAIL0000065842BR23        BRG1        BRG1COCO    BRG1COCO13AG2018030800:00:00OR  01000004170390000417039065842                              2018030820180310Z016CIF201803100000000000213375NN0                                                  0
2MAIL0000065842BR23        BRG1        BRG1COCO    BRG1COCO13AG00000100000000001132030800000000000006000000000000000000000000174988Z01620180310X066015000
2MAIL0000065842BR23        BRG1        BRG1COCO    BRG1COCO13AG00000200000000001132033900000000000001200000000000000000000000038387Z01620180310X066015000
1MAIL0000065843BR23        BRG1        BRG1COCO    BRG1COCO13AG2018030800:00:00OR  01000002980007000298000765843                              2018030820180310Z016CIF201803100000000000005170NN0                                                  0
2MAIL0000065843BR23        BRG1        BRG1COCO    BRG1COCO13AG00000100000000001233114700000000000000400000000000000000000000005170Z01620180310X066000000
1MAIL0000065844BR23        BRG1        BRG1COCO    BRG1COCO13AG2018030800:00:00OR  01000002980007000298000765844                              2018030820180310Z016CIF201803100000000000041323NN0                                                  0
2MAIL0000065844BR23        BRG1        BRG1COCO    BRG1COCO13AG00000100000000001132036700000000000000400000000000000000000000006840Z01620180310X066015000
2MAIL0000065844BR23        BRG1        BRG1COCO    BRG1COCO13AG00000200000000001132213100000000000000100000000000000000000000003929Z01620180310X066004950
2MAIL0000065844BR23        BRG1        BRG1COCO    BRG1COCO13AG00000300000000001223975300000000000000100000000000000000000000004713Z01620180310X066005000
2MAIL0000065844BR23        BRG1        BRG1COCO    BRG1COCO13AG00000400000000001227735000000000000000100000000000000000000000002276Z01620180310X066005000
2MAIL0000065844BR23        BRG1        BRG1COCO    BRG1COCO13AG00000500000000001228274000000000000000100000000000000000000000004713Z01620180310X066005000
2MAIL0000065844BR23        BRG1        BRG1COCO    BRG1COCO13AG00000600000000001228512700000000000000100000000000000000000000004713Z01620180310X066005000
2MAIL0000065844BR23        BRG1        BRG1COCO    BRG1COCO13AG00000700000000001231231200000000000000100000000000000000000000004713Z01620180310X066005000
2MAIL0000065844BR23        BRG1        BRG1COCO    BRG1COCO13AG00000800000000001234705700000000000000100000000000000000000000004713Z01620180310X066005000
2MAIL0000065844BR23        BRG1        BRG1COCO    BRG1COCO13AG00000900000000001234705800000000000000100000000000000000000000004713Z01620180310X066005000
1MAIL0000065845BR23        BRG1        BRG1COCO    BRG1COCO13AG2018030800:00:00OR  01000005097829000509782965845                              2018030820180310Z016CIF201803100000000000113567NN0                                                  0
2MAIL0000065845BR23        BRG1        BRG1COCO    BRG1COCO13AG00000100000000001132018300000000000000100000000000000000000000003598Z01620180310X066025000
2MAIL0000065845BR23        BRG1        BRG1COCO    BRG1COCO13AG00000200000000001132019700000000000000100000000000000000000000002184Z01620180310X066005000
2MAIL0000065845BR23        BRG1        BRG1COCO    BRG1COCO13AG00000300000000001132019800000000000000100000000000000000000000002184Z01620180310X066005000
2MAIL0000065845BR23        BRG1        BRG1COCO    BRG1COCO13AG00000400000000001132019900000000000000100000000000000000000000002184Z01620180310X066005000
2MAIL0000065845BR23        BRG1        BRG1COCO    BRG1COCO13AG00000500000000001132020900000000000000100000000000000000000000002184Z01620180310X066005000
2MAIL0000065845BR23        BRG1        BRG1COCO    BRG1COCO13AG00000600000000001132030800000000000000400000000000000000000000012446Z01620180310X066018000
2MAIL0000065845BR23        BRG1        BRG1COCO    BRG1COCO13AG00000700000000001132033100000000000000200000000000000000000000003282Z01620180310X066015000
2MAIL0000065845BR23        BRG1        BRG1COCO    BRG1COCO13AG00000800000000001132036700000000000000700000000000000000000000011490Z01620180310X066015000
2MAIL0000065845BR23        BRG1        BRG1COCO    BRG1COCO13AG00000900000000001132200400000000000000100000000000000000000000001775Z01620180310X066004850
2MAIL0000065845BR23        BRG1        BRG1COCO    BRG1COCO13AG00001000000000001132213000000000000000100000000000000000000000003427Z01620180310X066004950
2MAIL0000065845BR23        BRG1        BRG1COCO    BRG1COCO13AG00001100000000001132213100000000000000100000000000000000000000003427Z01620180310X066004950
2MAIL0000065845BR23        BRG1        BRG1COCO    BRG1COCO13AG00001200000000001132400100000000000000100000000000000000000000003336Z01620180310X066005000
2MAIL0000065845BR23        BRG1        BRG1COCO    BRG1COCO13AG00001300000000001215533700000000000000200000000000000000000000003282Z01620180310X066015000
2MAIL0000065845BR23        BRG1        BRG1COCO    BRG1COCO13AG00001400000000001221415400000000000000100000000000000000000000003598Z01620180310X066025000
2MAIL0000065845BR23        BRG1        BRG1COCO    BRG1COCO13AG00001500000000001226089600000000000002400000000000000000000000007631Z01620180310X066006750
2MAIL0000065845BR23        BRG1        BRG1COCO    BRG1COCO13AG00001600000000001227395500000000000000100000000000000000000000001641Z01620180310X066015000
2MAIL0000065845BR23        BRG1        BRG1COCO    BRG1COCO13AG00001700000000001227735000000000000000100000000000000000000000002184Z01620180310X066005000
2MAIL0000065845BR23        BRG1        BRG1COCO    BRG1COCO13AG00001800000000001231389600000000000000100000000000000000000000001641Z01620180310X066015000
2MAIL0000065845BR23        BRG1        BRG1COCO    BRG1COCO13AG00001900000000001233081900000000000001400000000000000000000000004675Z01620180310X066006750
2MAIL0000065845BR23        BRG1        BRG1COCO    BRG1COCO13AG00002000000000001233098400000000000002800000000000000000000000009348Z01620180310X066006750
2MAIL0000065845BR23        BRG1        BRG1COCO    BRG1COCO13AG00002100000000001233098500000000000001400000000000000000000000004675Z01620180310X066006750
2MAIL0000065845BR23        BRG1        BRG1COCO    BRG1COCO13AG00002200000000001233098600000000000001400000000000000000000000004675Z01620180310X066006750
2MAIL0000065845BR23        BRG1        BRG1COCO    BRG1COCO13AG00002300000000001233098800000000000001400000000000000000000000004675Z01620180310X066006750
2MAIL0000065845BR23        BRG1        BRG1COCO    BRG1COCO13AG00002400000000001233099500000000000001400000000000000000000000004675Z01620180310X066006750
2MAIL0000065845BR23        BRG1        BRG1COCO    BRG1COCO13AG00002500000000001233154200000000000001400000000000000000000000004675Z01620180310X066006750
2MAIL0000065845BR23        BRG1        BRG1COCO    BRG1COCO13AG00002600000000001234708700000000000001400000000000000000000000004675Z01620180310X066006750
1MAIL0000065846BR23        BRG1        BRG1COCO    BRG1COCO13AG2018030800:00:00OR  01000001211490000121149065846                              2018030820180310Z016CIF201803100000000000087089NN0                                                  0
2MAIL0000065846BR23        BRG1        BRG1COCO    BRG1COCO13AG00000100000000001226089600000000000002400000000000000000000000007631Z01620180310X066006750
2MAIL0000065846BR23        BRG1        BRG1COCO    BRG1COCO13AG00000200000000001233081900000000000002800000000000000000000000009348Z01620180310X066006750
2MAIL0000065846BR23        BRG1        BRG1COCO    BRG1COCO13AG00000300000000001233098400000000000004200000000000000000000000014022Z01620180310X066006750
2MAIL0000065846BR23        BRG1        BRG1COCO    BRG1COCO13AG00000400000000001233098500000000000002800000000000000000000000009348Z01620180310X066006750
2MAIL0000065846BR23        BRG1        BRG1COCO    BRG1COCO13AG00000500000000001233098600000000000002800000000000000000000000009348Z01620180310X066006750
2MAIL0000065846BR23        BRG1        BRG1COCO    BRG1COCO13AG00000600000000001233098800000000000002800000000000000000000000009348Z01620180310X066006750
2MAIL0000065846BR23        BRG1        BRG1COCO    BRG1COCO13AG00000700000000001233099500000000000002800000000000000000000000009348Z01620180310X066006750
2MAIL0000065846BR23        BRG1        BRG1COCO    BRG1COCO13AG00000800000000001233154200000000000002800000000000000000000000009348Z01620180310X066006750
2MAIL0000065846BR23        BRG1        BRG1COCO    BRG1COCO13AG00000900000000001234708700000000000002800000000000000000000000009348Z01620180310X066006750
1MAIL0000065847BR23        BRG1        BRG1COCO    BRG1COCO13AG2018030800:00:00OR  01000005460658000546065865847                              2018030820180310Z016CIF201803100000000000010679NN0                                                  0
2MAIL0000065847BR23        BRG1        BRG1COCO    BRG1COCO13AG00000100000000001132036700000000000000300000000000000000000000005130Z01620180310X066015000
2MAIL0000065847BR23        BRG1        BRG1COCO    BRG1COCO13AG00000200000000001132200400000000000000300000000000000000000000005549Z01620180310X066004850
1MAIL0000065848BR23        BRG1        BRG1COCO    BRG1COCO13AG2018030800:00:00OR  01000003183761000318376165848                              2018030820180310Z016CIF201803100000000000070678NN0                                                  0
2MAIL0000065848BR23        BRG1        BRG1COCO    BRG1COCO13AG00000100000000001132019700000000000000100000000000000000000000002184Z01620180310X066005000
2MAIL0000065848BR23        BRG1        BRG1COCO    BRG1COCO13AG00000200000000001132019800000000000000100000000000000000000000002184Z01620180310X066005000
2MAIL0000065848BR23        BRG1        BRG1COCO    BRG1COCO13AG00000300000000001132019900000000000000100000000000000000000000002184Z01620180310X066005000
2MAIL0000065848BR23        BRG1        BRG1COCO    BRG1COCO13AG00000400000000001132033100000000000000200000000000000000000000003281Z01620180310X066015000
2MAIL0000065848BR23        BRG1        BRG1COCO    BRG1COCO13AG00000500000000001132036700000000000000300000000000000000000000004923Z01620180310X066015000
2MAIL0000065848BR23        BRG1        BRG1COCO    BRG1COCO13AG00000600000000001132200400000000000000200000000000000000000000003550Z01620180310X066004850
2MAIL0000065848BR23        BRG1        BRG1COCO    BRG1COCO13AG00000700000000001215533700000000000000200000000000000000000000003281Z01620180310X066015000
2MAIL0000065848BR23        BRG1        BRG1COCO    BRG1COCO13AG00000800000000001226089600000000000001200000000000000000000000004055Z01620180310X066009920
2MAIL0000065848BR23        BRG1        BRG1COCO    BRG1COCO13AG00000900000000001227395500000000000000200000000000000000000000003281Z01620180310X066015000
2MAIL0000065848BR23        BRG1        BRG1COCO    BRG1COCO13AG00001000000000001227735000000000000000100000000000000000000000002184Z01620180310X066005000
2MAIL0000065848BR23        BRG1        BRG1COCO    BRG1COCO13AG00001100000000001228090100000000000003000000000000000000000000021389Z01620180310X066004960
2MAIL0000065848BR23        BRG1        BRG1COCO    BRG1COCO13AG00001200000000001231389600000000000000200000000000000000000000003281Z01620180310X066015000
2MAIL0000065848BR23        BRG1        BRG1COCO    BRG1COCO13AG00001300000000001233098400000000000001400000000000000000000000004967Z01620180310X066009920
2MAIL0000065848BR23        BRG1        BRG1COCO    BRG1COCO13AG00001400000000001233098800000000000001400000000000000000000000004967Z01620180310X066009920
2MAIL0000065848BR23        BRG1        BRG1COCO    BRG1COCO13AG00001500000000001233154200000000000001400000000000000000000000004967Z01620180310X066009920
1MAIL0000065849BR23        BRG1        BRG1COCO    BRG1COCO13AG2018030800:00:00OR  01000002900659000290065965849                              2018030820180310Z016CIF201803100000000000070020NN0                                                  0
2MAIL0000065849BR23        BRG1        BRG1COCO    BRG1COCO13AG00000100000000001132033100000000000000200000000000000000000000003420Z01620180310X066015000
2MAIL0000065849BR23        BRG1        BRG1COCO    BRG1COCO13AG00000200000000001132036700000000000000200000000000000000000000003420Z01620180310X066015000
2MAIL0000065849BR23        BRG1        BRG1COCO    BRG1COCO13AG00000300000000001132200400000000000000200000000000000000000000003699Z01620180310X066004850
2MAIL0000065849BR23        BRG1        BRG1COCO    BRG1COCO13AG00000400000000001215533700000000000000200000000000000000000000003420Z01620180310X066015000
2MAIL0000065849BR23        BRG1        BRG1COCO    BRG1COCO13AG00000500000000001221415400000000000000100000000000000000000000003598Z01620180310X066025000
2MAIL0000065849BR23        BRG1        BRG1COCO    BRG1COCO13AG00000600000000001227735000000000000000100000000000000000000000002276Z01620180310X066005000
2MAIL0000065849BR23        BRG1        BRG1COCO    BRG1COCO13AG00000700000000001228090100000000000003000000000000000000000000022286Z01620180310X066004960
2MAIL0000065849BR23        BRG1        BRG1COCO    BRG1COCO13AG00000800000000001228512700000000000000100000000000000000000000004713Z01620180310X066005000
2MAIL0000065849BR23        BRG1        BRG1COCO    BRG1COCO13AG00000900000000001231231200000000000000100000000000000000000000004713Z01620180310X066005000
2MAIL0000065849BR23        BRG1        BRG1COCO    BRG1COCO13AG00001000000000001231389600000000000000200000000000000000000000003420Z01620180310X066015000
2MAIL0000065849BR23        BRG1        BRG1COCO    BRG1COCO13AG00001100000000001233098500000000000001400000000000000000000000005171Z01620180310X066010000
2MAIL0000065849BR23        BRG1        BRG1COCO    BRG1COCO13AG00001200000000001233098800000000000001400000000000000000000000005171Z01620180310X066010000
2MAIL0000065849BR23        BRG1        BRG1COCO    BRG1COCO13AG00001300000000001234705700000000000000100000000000000000000000004713Z01620180310X066005000
1MAIL0000065850BR23        BRG1        BRG1COCO    BRG1COCO13AG2018030800:00:00OR  01000002876553000287655365850                              2018030820180310Z016CIF201803100000000000054519NN0                                                  0
2MAIL0000065850BR23        BRG1        BRG1COCO    BRG1COCO13AG00000100000000001228090100000000000003000000000000000000000000022286Z01620180310X066004960
2MAIL0000065850BR23        BRG1        BRG1COCO    BRG1COCO13AG00000200000000001228100400000000000000400000000000000000000000009857Z01620180310X066010000
2MAIL0000065850BR23        BRG1        BRG1COCO    BRG1COCO13AG00000300000000001233098400000000000001400000000000000000000000005401Z01620180310X066006000
2MAIL0000065850BR23        BRG1        BRG1COCO    BRG1COCO13AG00000400000000001234708700000000000001400000000000000000000000005401Z01620180310X066006000
2MAIL0000065850BR23        BRG1        BRG1COCO    BRG1COCO13AG00000500000000001235699400000000000001000000000000000000000000003858Z01620180310X066006000
2MAIL0000065850BR23        BRG1        BRG1COCO    BRG1COCO13AG00000600000000001235699700000000000001000000000000000000000000003858Z01620180310X066006000
2MAIL0000065850BR23        BRG1        BRG1COCO    BRG1COCO13AG00000700000000001235699800000000000001000000000000000000000000003858Z01620180310X066006000
1MAIL0000065851BR23        BRG1        BRG1COCO    BRG1COCO13AG2018030800:00:00OR  01000004156303000415630365851                              2018030820180310Z016CIF201803100000000000021391NN0                                                  0
2MAIL0000065851BR23        BRG1        BRG1COCO    BRG1COCO13AG00000100000000001228090100000000000003000000000000000000000000021391Z01620180310X066004950
1MAIL0000065852BR23        BRG1        BRG1COCO    BRG1COCO13AG2018030800:00:00OR  01000002902019000290201965852                              2018030820180310Z016CIF201803100000000000060221NN0                                                  0
2MAIL0000065852BR23        BRG1        BRG1COCO    BRG1COCO13AG00000100000000001132200400000000000000100000000000000000000000001775Z01620180310X066004850
2MAIL0000065852BR23        BRG1        BRG1COCO    BRG1COCO13AG00000200000000001215533700000000000000500000000000000000000000008688Z01620180310X066010000
2MAIL0000065852BR23        BRG1        BRG1COCO    BRG1COCO13AG00000300000000001228090100000000000003000000000000000000000000021391Z01620180310X066004950
2MAIL0000065852BR23        BRG1        BRG1COCO    BRG1COCO13AG00000400000000001228100400000000000000500000000000000000000000011825Z01620180310X066010000
2MAIL0000065852BR23        BRG1        BRG1COCO    BRG1COCO13AG00000500000000001233098400000000000001400000000000000000000000005514Z01620180310X066000000
2MAIL0000065852BR23        BRG1        BRG1COCO    BRG1COCO13AG00000600000000001233098600000000000001400000000000000000000000005514Z01620180310X066000000
2MAIL0000065852BR23        BRG1        BRG1COCO    BRG1COCO13AG00000700000000001233154200000000000001400000000000000000000000005514Z01620180310X066000000
1MAIL0000065853BR23        BRG1        BRG1COCO    BRG1COCO13AG2018030800:00:00OR  01000002907548000290754865853                              2018030820180310Z859CIF201803100000000000010345NN0                                                  0
2MAIL0000065853BR23        BRG1        BRG1COCO    BRG1COCO13AG00000100000000001235356200000000000000200000000000000000000000004526Z85920180310X066000000
2MAIL0000065853BR23        BRG1        BRG1COCO    BRG1COCO13AG00000200000000001235737300000000000000200000000000000000000000005819Z85920180310X066000000
