1MAIL0000064960BR23        BRG1        BRG1COCO    BRG1COCO13AG2018030200:00:00OR  01000005281683000528168364960                              2018030220180303Z016CIF201803030000000000088126NN0                                                  0
2MAIL0000064960BR23        BRG1        BRG1COCO    BRG1COCO13AG00000100000000001233114700000000000001000000000000000000000000012191Z01620180303X066000000
2MAIL0000064960BR23        BRG1        BRG1COCO    BRG1COCO13AG00000200000000001235356200000000000001500000000000000000000000032020Z01620180303X066000000
2MAIL0000064960BR23        BRG1        BRG1COCO    BRG1COCO13AG00000300000000001235737300000000000001600000000000000000000000043915Z01620180303X066000000
1MAIL0000064961BR23        BRG1        BRG1COCO    BRG1COCO13AG2018030200:00:00OR  01000005513866000551386664961                              2018030220180303Z016CIF201803030000000000005142NN0                                                  0
2MAIL0000064961BR23        BRG1        BRG1COCO    BRG1COCO13AG00000100000000001214451500000000000000100000000000000000000000005142Z01620180303X066020000
1MAIL0000064962BR23        BRG1        BRG1COCO    BRG1COCO13AG2018030200:00:00OR  01000003702898000370289864962                              2018030220180303Z859CIF201803030000000000032325NN0                                                  0
2MAIL0000064962BR23        BRG1        BRG1COCO    BRG1COCO13AG00000100000000001233114700000000000000500000000000000000000000006463Z85920180303X066000000
2MAIL0000064962BR23        BRG1        BRG1COCO    BRG1COCO13AG00000200000000001235356200000000000000500000000000000000000000011314Z85920180303X066000000
2MAIL0000064962BR23        BRG1        BRG1COCO    BRG1COCO13AG00000300000000001235737300000000000000500000000000000000000000014548Z85920180303X066000000
1MAIL0000064963BR23        BRG1        BRG1COCO    BRG1COCO13AG2018030200:00:00OR  01000004693534000469353464963                              2018030220180303Z016CIF201803030000000000140852NN0                                                  0
2MAIL0000064963BR23        BRG1        BRG1COCO    BRG1COCO13AG00000100000000001132036700000000000001500000000000000000000000024621Z01620180303X066015000
2MAIL0000064963BR23        BRG1        BRG1COCO    BRG1COCO13AG00000200000000001132213000000000000000300000000000000000000000011311Z01620180303X066004950
2MAIL0000064963BR23        BRG1        BRG1COCO    BRG1COCO13AG00000300000000001132213100000000000000100000000000000000000000003771Z01620180303X066004950
2MAIL0000064963BR23        BRG1        BRG1COCO    BRG1COCO13AG00000400000000001132400100000000000000100000000000000000000000003336Z01620180303X066005000
2MAIL0000064963BR23        BRG1        BRG1COCO    BRG1COCO13AG00000500000000001223975300000000000000100000000000000000000000004522Z01620180303X066005000
2MAIL0000064963BR23        BRG1        BRG1COCO    BRG1COCO13AG00000600000000001226089600000000000001200000000000000000000000004051Z01620180303X066010000
2MAIL0000064963BR23        BRG1        BRG1COCO    BRG1COCO13AG00000700000000001227395500000000000000500000000000000000000000008208Z01620180303X066015000
2MAIL0000064963BR23        BRG1        BRG1COCO    BRG1COCO13AG00000800000000001228274000000000000000100000000000000000000000004522Z01620180303X066005000
2MAIL0000064963BR23        BRG1        BRG1COCO    BRG1COCO13AG00000900000000001228512700000000000000100000000000000000000000004522Z01620180303X066005000
2MAIL0000064963BR23        BRG1        BRG1COCO    BRG1COCO13AG00001000000000001231189200000000000000100000000000000000000000004522Z01620180303X066005000
2MAIL0000064963BR23        BRG1        BRG1COCO    BRG1COCO13AG00001100000000001231231200000000000000100000000000000000000000004522Z01620180303X066005000
2MAIL0000064963BR23        BRG1        BRG1COCO    BRG1COCO13AG00001200000000001231389600000000000000500000000000000000000000008208Z01620180303X066015000
2MAIL0000064963BR23        BRG1        BRG1COCO    BRG1COCO13AG00001300000000001233081900000000000001400000000000000000000000004962Z01620180303X066010000
2MAIL0000064963BR23        BRG1        BRG1COCO    BRG1COCO13AG00001400000000001233098400000000000001400000000000000000000000004962Z01620180303X066010000
2MAIL0000064963BR23        BRG1        BRG1COCO    BRG1COCO13AG00001500000000001233098500000000000001400000000000000000000000004962Z01620180303X066010000
2MAIL0000064963BR23        BRG1        BRG1COCO    BRG1COCO13AG00001600000000001233098600000000000001400000000000000000000000004962Z01620180303X066010000
2MAIL0000064963BR23        BRG1        BRG1COCO    BRG1COCO13AG00001700000000001233098800000000000001400000000000000000000000004962Z01620180303X066010000
2MAIL0000064963BR23        BRG1        BRG1COCO    BRG1COCO13AG00001800000000001233099500000000000001400000000000000000000000004766Z01620180303X066013560
2MAIL0000064963BR23        BRG1        BRG1COCO    BRG1COCO13AG00001900000000001233154200000000000001400000000000000000000000004766Z01620180303X066013560
2MAIL0000064963BR23        BRG1        BRG1COCO    BRG1COCO13AG00002000000000001234705700000000000000100000000000000000000000004522Z01620180303X066005000
2MAIL0000064963BR23        BRG1        BRG1COCO    BRG1COCO13AG00002100000000001234708700000000000001400000000000000000000000004766Z01620180303X066013560
2MAIL0000064963BR23        BRG1        BRG1COCO    BRG1COCO13AG00002200000000001235699400000000000001000000000000000000000000003702Z01620180303X066006000
2MAIL0000064963BR23        BRG1        BRG1COCO    BRG1COCO13AG00002300000000001235699700000000000001000000000000000000000000003702Z01620180303X066006000
2MAIL0000064963BR23        BRG1        BRG1COCO    BRG1COCO13AG00002400000000001235699800000000000001000000000000000000000000003702Z01620180303X066006000
1MAIL0000064964BR23        BRG1        BRG1COCO    BRG1COCO13AG2018030200:00:00OR  01000004693534000469353464964                              2018030220180303Z859CIF201803030000000000046545NN0                                                  0
2MAIL0000064964BR23        BRG1        BRG1COCO    BRG1COCO13AG00000100000000001233114700000000000001200000000000000000000000015511Z85920180303X066000000
2MAIL0000064964BR23        BRG1        BRG1COCO    BRG1COCO13AG00000200000000001235356200000000000000600000000000000000000000013577Z85920180303X066000000
2MAIL0000064964BR23        BRG1        BRG1COCO    BRG1COCO13AG00000300000000001235737300000000000000600000000000000000000000017457Z85920180303X066000000
1MAIL0000064965BR23        BRG1        BRG1COCO    BRG1COCO13AG2018030200:00:00OR  01000005336833000533683364965                              2018030220180303Z016CIF201803030000000000037661NN0                                                  0
2MAIL0000064965BR23        BRG1        BRG1COCO    BRG1COCO13AG00000100000000001132033100000000000000100000000000000000000000001641Z01620180303X066015000
2MAIL0000064965BR23        BRG1        BRG1COCO    BRG1COCO13AG00000200000000001132036700000000000000100000000000000000000000001641Z01620180303X066015000
2MAIL0000064965BR23        BRG1        BRG1COCO    BRG1COCO13AG00000300000000001228090100000000000003000000000000000000000000021389Z01620180303X066004960
2MAIL0000064965BR23        BRG1        BRG1COCO    BRG1COCO13AG00000400000000001231189200000000000000100000000000000000000000004522Z01620180303X066005000
2MAIL0000064965BR23        BRG1        BRG1COCO    BRG1COCO13AG00000500000000001233154200000000000001400000000000000000000000004766Z01620180303X066013560
2MAIL0000064965BR23        BRG1        BRG1COCO    BRG1COCO13AG00000600000000001235699800000000000001000000000000000000000000003702Z01620180303X066006000
1MAIL0000064967BR23        BRG1        BRG1COCO    BRG1COCO13AG2018030200:00:00OR  01000003702898000370289864967                              2018030220180303Z016CIF201803030000000000028750NN0                                                  0
2MAIL0000064967BR23        BRG1        BRG1COCO    BRG1COCO13AG00000100000000001132036700000000000000100000000000000000000000001710Z01620180303X066015000
2MAIL0000064967BR23        BRG1        BRG1COCO    BRG1COCO13AG00000200000000001132200400000000000000100000000000000000000000001850Z01620180303X066004850
2MAIL0000064967BR23        BRG1        BRG1COCO    BRG1COCO13AG00000300000000001228090100000000000001000000000000000000000000007431Z01620180303X066004930
2MAIL0000064967BR23        BRG1        BRG1COCO    BRG1COCO13AG00000400000000001228100400000000000000100000000000000000000000002246Z01620180303X066018000
2MAIL0000064967BR23        BRG1        BRG1COCO    BRG1COCO13AG00000500000000001233081900000000000001400000000000000000000000005171Z01620180303X066010000
2MAIL0000064967BR23        BRG1        BRG1COCO    BRG1COCO13AG00000600000000001233098400000000000001400000000000000000000000005171Z01620180303X066010000
2MAIL0000064967BR23        BRG1        BRG1COCO    BRG1COCO13AG00000700000000001233098500000000000001400000000000000000000000005171Z01620180303X066010000
1MAIL0000064969BR23        BRG1        BRG1COCO    BRG1COCO13AG2018030200:00:00OR  01000003676728000367672864969                              2018030220180303Z016CIF201803030000000000028563NN0                                                  0
2MAIL0000064969BR23        BRG1        BRG1COCO    BRG1COCO13AG00000100000000001132033100000000000000500000000000000000000000008208Z01620180303X066015000
2MAIL0000064969BR23        BRG1        BRG1COCO    BRG1COCO13AG00000200000000001132036700000000000000500000000000000000000000008208Z01620180303X066015000
2MAIL0000064969BR23        BRG1        BRG1COCO    BRG1COCO13AG00000300000000001215533700000000000000500000000000000000000000008208Z01620180303X066015000
2MAIL0000064969BR23        BRG1        BRG1COCO    BRG1COCO13AG00000400000000001235699800000000000001000000000000000000000000003939Z01620180303X066000000
