1MAIL0000064259BR23        BRG1        BRG1COCO    BRG1COCO13AG2018022700:00:00OR  01000003738340000373834064259                              2018022720180228Z016CIF201802280000000000011202NN0                                                  0
2MAIL0000064259BR23        BRG1        BRG1COCO    BRG1COCO13AG00000100000000001132019800000000000000100000000000000000000000002184Z01620180228X066005000
2MAIL0000064259BR23        BRG1        BRG1COCO    BRG1COCO13AG00000200000000001132036700000000000000200000000000000000000000003281Z01620180228X066015000
2MAIL0000064259BR23        BRG1        BRG1COCO    BRG1COCO13AG00000300000000001215533700000000000000100000000000000000000000001641Z01620180228X066015000
2MAIL0000064259BR23        BRG1        BRG1COCO    BRG1COCO13AG00000400000000001226089600000000000001200000000000000000000000004096Z01620180228X066009000
1MAIL0000064260BR23        BRG1        BRG1COCO    BRG1COCO13AG2018022700:00:00OR  01000002979919000297991964260                              2018022720180228Z016CIF201802280000000000062904NN0                                                  0
2MAIL0000064260BR23        BRG1        BRG1COCO    BRG1COCO13AG00000100000000001132020900000000000000100000000000000000000000002184Z01620180228X066005000
2MAIL0000064260BR23        BRG1        BRG1COCO    BRG1COCO13AG00000200000000001132033100000000000000200000000000000000000000003282Z01620180228X066015000
2MAIL0000064260BR23        BRG1        BRG1COCO    BRG1COCO13AG00000300000000001132036700000000000000500000000000000000000000008208Z01620180228X066015000
2MAIL0000064260BR23        BRG1        BRG1COCO    BRG1COCO13AG00000400000000001132400100000000000000100000000000000000000000003336Z01620180228X066005000
2MAIL0000064260BR23        BRG1        BRG1COCO    BRG1COCO13AG00000500000000001215533700000000000000200000000000000000000000003282Z01620180228X066015000
2MAIL0000064260BR23        BRG1        BRG1COCO    BRG1COCO13AG00000600000000001226089600000000000001200000000000000000000000004051Z01620180228X066010000
2MAIL0000064260BR23        BRG1        BRG1COCO    BRG1COCO13AG00000700000000001227735000000000000000100000000000000000000000002184Z01620180228X066005000
2MAIL0000064260BR23        BRG1        BRG1COCO    BRG1COCO13AG00000800000000001231389600000000000000100000000000000000000000001641Z01620180228X066015000
2MAIL0000064260BR23        BRG1        BRG1COCO    BRG1COCO13AG00000900000000001233081900000000000001400000000000000000000000004962Z01620180228X066010000
2MAIL0000064260BR23        BRG1        BRG1COCO    BRG1COCO13AG00001000000000001233098400000000000001400000000000000000000000004962Z01620180228X066010000
2MAIL0000064260BR23        BRG1        BRG1COCO    BRG1COCO13AG00001100000000001233098500000000000001400000000000000000000000004962Z01620180228X066010000
2MAIL0000064260BR23        BRG1        BRG1COCO    BRG1COCO13AG00001200000000001233098800000000000001400000000000000000000000004962Z01620180228X066010000
2MAIL0000064260BR23        BRG1        BRG1COCO    BRG1COCO13AG00001300000000001233154200000000000002800000000000000000000000009926Z01620180228X066010000
2MAIL0000064260BR23        BRG1        BRG1COCO    BRG1COCO13AG00001400000000001234708700000000000001400000000000000000000000004962Z01620180228X066010000
1MAIL0000064261BR23        BRG1        BRG1COCO    BRG1COCO13AG2018022700:00:00OR  01000005140918000514091864261                              2018022720180228Z016CIF201802280000000000229903NN0                                                  0
2MAIL0000064261BR23        BRG1        BRG1COCO    BRG1COCO13AG00000100000000001226089600000000000008400000000000000000000000028642Z01620180228X066000000
2MAIL0000064261BR23        BRG1        BRG1COCO    BRG1COCO13AG00000200000000001228090100000000000021000000000000000000000000136100Z01620180228X066004960
2MAIL0000064261BR23        BRG1        BRG1COCO    BRG1COCO13AG00000300000000001233081900000000000002800000000000000000000000010024Z01620180228X066000000
2MAIL0000064261BR23        BRG1        BRG1COCO    BRG1COCO13AG00000400000000001233098500000000000002800000000000000000000000010024Z01620180228X066000000
2MAIL0000064261BR23        BRG1        BRG1COCO    BRG1COCO13AG00000500000000001233098800000000000005600000000000000000000000020050Z01620180228X066000000
2MAIL0000064261BR23        BRG1        BRG1COCO    BRG1COCO13AG00000600000000001233099500000000000001400000000000000000000000005013Z01620180228X066000000
2MAIL0000064261BR23        BRG1        BRG1COCO    BRG1COCO13AG00000700000000001233154200000000000005600000000000000000000000020050Z01620180228X066000000
1MAIL0000064262BR23        BRG1        BRG1COCO    BRG1COCO13AG2018022700:00:00OR  01000004942297000494229764262                              2018022720180228Z016CIF201802280000000000038886NN0                                                  0
2MAIL0000064262BR23        BRG1        BRG1COCO    BRG1COCO13AG00000100000000001228090100000000000006000000000000000000000000038886Z01620180228X066004960
1MAIL0000064263BR23        BRG1        BRG1COCO    BRG1COCO13AG2018022700:00:00OR  01000002989774000298977464263                              2018022720180228Z016CIF201802280000000000122277NN0                                                  0
2MAIL0000064263BR23        BRG1        BRG1COCO    BRG1COCO13AG00000100000000001228090100000000000015000000000000000000000000097214Z01620180228X066004960
2MAIL0000064263BR23        BRG1        BRG1COCO    BRG1COCO13AG00000200000000001233081900000000000001400000000000000000000000005013Z01620180228X066000000
2MAIL0000064263BR23        BRG1        BRG1COCO    BRG1COCO13AG00000300000000001233098400000000000002800000000000000000000000010024Z01620180228X066000000
2MAIL0000064263BR23        BRG1        BRG1COCO    BRG1COCO13AG00000400000000001233098800000000000001400000000000000000000000005013Z01620180228X066000000
2MAIL0000064263BR23        BRG1        BRG1COCO    BRG1COCO13AG00000500000000001233154200000000000001400000000000000000000000005013Z01620180228X066000000
1MAIL0000064264BR23        BRG1        BRG1COCO    BRG1COCO13AG2018022700:00:00OR  01000002979937000297993764264                              2018022720180228Z016CIF201802280000000000058329NN0                                                  0
2MAIL0000064264BR23        BRG1        BRG1COCO    BRG1COCO13AG00000100000000001228090100000000000009000000000000000000000000058329Z01620180228X066004960
1MAIL0000064265BR23        BRG1        BRG1COCO    BRG1COCO13AG2018022700:00:00OR  01000002980011000298001164265                              2018022720180228Z016CIF201802280000000000131384NN0                                                  0
2MAIL0000064265BR23        BRG1        BRG1COCO    BRG1COCO13AG00000100000000001226089600000000000001200000000000000000000000004092Z01620180228X066000000
2MAIL0000064265BR23        BRG1        BRG1COCO    BRG1COCO13AG00000200000000001228090100000000000015000000000000000000000000097214Z01620180228X066004960
2MAIL0000064265BR23        BRG1        BRG1COCO    BRG1COCO13AG00000300000000001233081900000000000001400000000000000000000000005013Z01620180228X066000000
2MAIL0000064265BR23        BRG1        BRG1COCO    BRG1COCO13AG00000400000000001233098400000000000001400000000000000000000000005013Z01620180228X066000000
2MAIL0000064265BR23        BRG1        BRG1COCO    BRG1COCO13AG00000500000000001233098500000000000001400000000000000000000000005013Z01620180228X066000000
2MAIL0000064265BR23        BRG1        BRG1COCO    BRG1COCO13AG00000600000000001233098800000000000001400000000000000000000000005013Z01620180228X066000000
2MAIL0000064265BR23        BRG1        BRG1COCO    BRG1COCO13AG00000700000000001233154200000000000001400000000000000000000000005013Z01620180228X066000000
2MAIL0000064265BR23        BRG1        BRG1COCO    BRG1COCO13AG00000800000000001234708700000000000001400000000000000000000000005013Z01620180228X066000000
1MAIL0000064266BR23        BRG1        BRG1COCO    BRG1COCO13AG2018022700:00:00OR  01000005460652000546065264266                              2018022720180228Z016CIF201802280000000000184672NN0                                                  0
2MAIL0000064266BR23        BRG1        BRG1COCO    BRG1COCO13AG00000100000000001226089600000000000003600000000000000000000000012275Z01620180228X066000000
2MAIL0000064266BR23        BRG1        BRG1COCO    BRG1COCO13AG00000200000000001228090100000000000015000000000000000000000000097214Z01620180228X066004960
2MAIL0000064266BR23        BRG1        BRG1COCO    BRG1COCO13AG00000300000000001233081900000000000004200000000000000000000000015037Z01620180228X066000000
2MAIL0000064266BR23        BRG1        BRG1COCO    BRG1COCO13AG00000400000000001233098400000000000004200000000000000000000000015037Z01620180228X066000000
2MAIL0000064266BR23        BRG1        BRG1COCO    BRG1COCO13AG00000500000000001233098500000000000002800000000000000000000000010024Z01620180228X066000000
2MAIL0000064266BR23        BRG1        BRG1COCO    BRG1COCO13AG00000600000000001233098800000000000002800000000000000000000000010024Z01620180228X066000000
2MAIL0000064266BR23        BRG1        BRG1COCO    BRG1COCO13AG00000700000000001233154200000000000004200000000000000000000000015037Z01620180228X066000000
2MAIL0000064266BR23        BRG1        BRG1COCO    BRG1COCO13AG00000800000000001234708700000000000002800000000000000000000000010024Z01620180228X066000000
1MAIL0000064267BR23        BRG1        BRG1COCO    BRG1COCO13AG2018022700:00:00OR  01000002980033000298003364267                              2018022720180228Z016CIF201802280000000000044664NN0                                                  0
2MAIL0000064267BR23        BRG1        BRG1COCO    BRG1COCO13AG00000100000000001233081900000000000002800000000000000000000000009926Z01620180228X066010000
2MAIL0000064267BR23        BRG1        BRG1COCO    BRG1COCO13AG00000200000000001233098400000000000002800000000000000000000000009926Z01620180228X066010000
2MAIL0000064267BR23        BRG1        BRG1COCO    BRG1COCO13AG00000300000000001233098500000000000001400000000000000000000000004962Z01620180228X066010000
2MAIL0000064267BR23        BRG1        BRG1COCO    BRG1COCO13AG00000400000000001233098800000000000001400000000000000000000000004962Z01620180228X066010000
2MAIL0000064267BR23        BRG1        BRG1COCO    BRG1COCO13AG00000500000000001233154200000000000002800000000000000000000000009926Z01620180228X066010000
2MAIL0000064267BR23        BRG1        BRG1COCO    BRG1COCO13AG00000600000000001234708700000000000001400000000000000000000000004962Z01620180228X066010000
1MAIL0000064268BR23        BRG1        BRG1COCO    BRG1COCO13AG2018022700:00:00OR  01000002988804000298880464268                              2018022720180228Z016CIF201802280000000000015659NN0                                                  0
2MAIL0000064268BR23        BRG1        BRG1COCO    BRG1COCO13AG00000100000000001132019800000000000000100000000000000000000000002276Z01620180228X066005000
2MAIL0000064268BR23        BRG1        BRG1COCO    BRG1COCO13AG00000200000000001132020900000000000000100000000000000000000000002276Z01620180228X066005000
2MAIL0000064268BR23        BRG1        BRG1COCO    BRG1COCO13AG00000300000000001132036700000000000000100000000000000000000000001710Z01620180228X066015000
2MAIL0000064268BR23        BRG1        BRG1COCO    BRG1COCO13AG00000400000000001132200400000000000000200000000000000000000000003701Z01620180228X066004820
2MAIL0000064268BR23        BRG1        BRG1COCO    BRG1COCO13AG00000500000000001215533700000000000000100000000000000000000000001710Z01620180228X066015000
2MAIL0000064268BR23        BRG1        BRG1COCO    BRG1COCO13AG00000600000000001227735000000000000000100000000000000000000000002276Z01620180228X066005000
2MAIL0000064268BR23        BRG1        BRG1COCO    BRG1COCO13AG00000700000000001233695100000000000000100000000000000000000000001710Z01620180228X066015000
