1MAIL0000065920BR23        BRG1        BRG1COCO    BRG1COCO13AG2018030800:00:00OR  01000003873818000387381865920                              2018030820180310Z016CIF201803100000000000068086NN0                                                  0
2MAIL0000065920BR23        BRG1        BRG1COCO    BRG1COCO13AG00000100000000001132019700000000000000100000000000000000000000002185Z01620180310X066004960
2MAIL0000065920BR23        BRG1        BRG1COCO    BRG1COCO13AG00000200000000001132033100000000000000100000000000000000000000001641Z01620180310X066015000
2MAIL0000065920BR23        BRG1        BRG1COCO    BRG1COCO13AG00000300000000001132036700000000000000300000000000000000000000004923Z01620180310X066015000
2MAIL0000065920BR23        BRG1        BRG1COCO    BRG1COCO13AG00000400000000001215533700000000000000300000000000000000000000004923Z01620180310X066015000
2MAIL0000065920BR23        BRG1        BRG1COCO    BRG1COCO13AG00000500000000001227395500000000000000300000000000000000000000004923Z01620180310X066015000
2MAIL0000065920BR23        BRG1        BRG1COCO    BRG1COCO13AG00000600000000001228090100000000000003000000000000000000000000021389Z01620180310X066004960
2MAIL0000065920BR23        BRG1        BRG1COCO    BRG1COCO13AG00000700000000001231389600000000000000100000000000000000000000001641Z01620180310X066015000
2MAIL0000065920BR23        BRG1        BRG1COCO    BRG1COCO13AG00000800000000001233081900000000000001400000000000000000000000004964Z01620180310X066009960
2MAIL0000065920BR23        BRG1        BRG1COCO    BRG1COCO13AG00000900000000001233098400000000000001400000000000000000000000004964Z01620180310X066009960
2MAIL0000065920BR23        BRG1        BRG1COCO    BRG1COCO13AG00001000000000001233098500000000000001400000000000000000000000004964Z01620180310X066009960
2MAIL0000065920BR23        BRG1        BRG1COCO    BRG1COCO13AG00001100000000001233098800000000000001400000000000000000000000004964Z01620180310X066009960
2MAIL0000065920BR23        BRG1        BRG1COCO    BRG1COCO13AG00001200000000001233154200000000000001400000000000000000000000004964Z01620180310X066009960
2MAIL0000065920BR23        BRG1        BRG1COCO    BRG1COCO13AG00001300000000001233695100000000000000100000000000000000000000001641Z01620180310X066015000
1MAIL0000065921BR23        BRG1        BRG1COCO    BRG1COCO13AG2018030800:00:00OR  01000003873818000387381865921                              2018030820180310Z859CIF201803100000000000004526NN0                                                  0
2MAIL0000065921BR23        BRG1        BRG1COCO    BRG1COCO13AG00000100000000001235356200000000000000200000000000000000000000004526Z85920180310X066000000
1MAIL0000065922BR23        BRG1        BRG1COCO    BRG1COCO13AG2018030800:00:00OR  01000002929724000292972465922                              2018030820180310Z859CIF201803100000000000184265NN0                                                  0
2MAIL0000065922BR23        BRG1        BRG1COCO    BRG1COCO13AG00000100000000001235356200000000000003000000000000000000000000067883Z85920180310X066000000
2MAIL0000065922BR23        BRG1        BRG1COCO    BRG1COCO13AG00000200000000001235737300000000000004000000000000000000000000116382Z85920180310X066000000
1MAIL0000065923BR23        BRG1        BRG1COCO    BRG1COCO13AG2018030800:00:00OR  01000004302079000430207965923                              2018030820180310Z016CIF201803100000000000018905NN0                                                  0
2MAIL0000065923BR23        BRG1        BRG1COCO    BRG1COCO13AG00000100000000001132213000000000000000100000000000000000000000003771Z01620180310X066004950
2MAIL0000065923BR23        BRG1        BRG1COCO    BRG1COCO13AG00000200000000001215533700000000000000100000000000000000000000001641Z01620180310X066015000
2MAIL0000065923BR23        BRG1        BRG1COCO    BRG1COCO13AG00000300000000001228090100000000000000500000000000000000000000003565Z01620180310X066004960
2MAIL0000065923BR23        BRG1        BRG1COCO    BRG1COCO13AG00000400000000001233081900000000000001400000000000000000000000004964Z01620180310X066009960
2MAIL0000065923BR23        BRG1        BRG1COCO    BRG1COCO13AG00000500000000001233098400000000000001400000000000000000000000004964Z01620180310X066009960
1MAIL0000065924BR23        BRG1        BRG1COCO    BRG1COCO13AG2018030800:00:00OR  01000002847223000284722365924                              2018030820180310Z859CIF201803100000000000010345NN0                                                  0
2MAIL0000065924BR23        BRG1        BRG1COCO    BRG1COCO13AG00000100000000001235356200000000000000200000000000000000000000004526Z85920180310X066000000
2MAIL0000065924BR23        BRG1        BRG1COCO    BRG1COCO13AG00000200000000001235737300000000000000200000000000000000000000005819Z85920180310X066000000
1MAIL0000065925BR23        BRG1        BRG1COCO    BRG1COCO13AG2018030800:00:00OR  01000002847223000284722365925                              2018030820180310Z016CIF201803100000000000021605NN0                                                  0
2MAIL0000065925BR23        BRG1        BRG1COCO    BRG1COCO13AG00000100000000001228090100000000000003000000000000000000000000021605Z01620180310X066004000
