1MAIL0000065091BR23        BRG1        BRG1COCO    BRG1COCO13AG2018030500:00:00OR  01000004929397000492939765091                              2018030520180305Z016CIF201803050000000000021561NN0                                                  0
2MAIL0000065091BR23        BRG1        BRG1COCO    BRG1COCO13AG00000100000000001132019800000000000000100000000000000000000000002184Z01620180305X066005000
2MAIL0000065091BR23        BRG1        BRG1COCO    BRG1COCO13AG00000200000000001132019900000000000000100000000000000000000000002184Z01620180305X066005000
2MAIL0000065091BR23        BRG1        BRG1COCO    BRG1COCO13AG00000300000000001132033100000000000000100000000000000000000000001738Z01620180305X066010000
2MAIL0000065091BR23        BRG1        BRG1COCO    BRG1COCO13AG00000400000000001132213000000000000000100000000000000000000000003808Z01620180305X066004000
2MAIL0000065091BR23        BRG1        BRG1COCO    BRG1COCO13AG00000500000000001227395500000000000000100000000000000000000000001738Z01620180305X066010000
2MAIL0000065091BR23        BRG1        BRG1COCO    BRG1COCO13AG00000600000000001228090100000000000000500000000000000000000000003600Z01620180305X066004000
2MAIL0000065091BR23        BRG1        BRG1COCO    BRG1COCO13AG00000700000000001231189200000000000000100000000000000000000000004571Z01620180305X066004000
2MAIL0000065091BR23        BRG1        BRG1COCO    BRG1COCO13AG00000800000000001233695100000000000000100000000000000000000000001738Z01620180305X066010000
