1MAIL0000066164BR23        BRG1        BRG1COCO    BRG1COCO13AG2018030800:00:00OR  01000005532851000553285166164                              2018030820180310Z859CIF201803100000000000086905NN0                                                  0
2MAIL0000066164BR23        BRG1        BRG1COCO    BRG1COCO13AG00000100000000001235356200000000000001500000000000000000000000032020Z85920180310X066000000
2MAIL0000066164BR23        BRG1        BRG1COCO    BRG1COCO13AG00000200000000001235562300000000000000200000000000000000000000010970Z85920180310X066000000
2MAIL0000066164BR23        BRG1        BRG1COCO    BRG1COCO13AG00000300000000001235737300000000000001600000000000000000000000043915Z85920180310X066000000
1MAIL0000066166BR23        BRG1        BRG1COCO    BRG1COCO13AG2018030800:00:00OR  01000003483976000348397666166                              2018030820180310Z016CIF201803100000000000081316NN0                                                  0
2MAIL0000066166BR23        BRG1        BRG1COCO    BRG1COCO13AG00000100000000001132019800000000000000100000000000000000000000002184Z01620180310X066005000
2MAIL0000066166BR23        BRG1        BRG1COCO    BRG1COCO13AG00000200000000001132033100000000000000200000000000000000000000003281Z01620180310X066015000
2MAIL0000066166BR23        BRG1        BRG1COCO    BRG1COCO13AG00000300000000001132034900000000000000500000000000000000000000007707Z01620180310X066015000
2MAIL0000066166BR23        BRG1        BRG1COCO    BRG1COCO13AG00000400000000001132036700000000000000100000000000000000000000001641Z01620180310X066015000
2MAIL0000066166BR23        BRG1        BRG1COCO    BRG1COCO13AG00000500000000001132200400000000000000300000000000000000000000005373Z01620180310X066004000
2MAIL0000066166BR23        BRG1        BRG1COCO    BRG1COCO13AG00000600000000001221415400000000000000100000000000000000000000003934Z01620180310X066018000
2MAIL0000066166BR23        BRG1        BRG1COCO    BRG1COCO13AG00000700000000001223975300000000000000100000000000000000000000004522Z01620180310X066005000
2MAIL0000066166BR23        BRG1        BRG1COCO    BRG1COCO13AG00000800000000001226089600000000000001200000000000000000000000004055Z01620180310X066009900
2MAIL0000066166BR23        BRG1        BRG1COCO    BRG1COCO13AG00000900000000001227395500000000000000100000000000000000000000001641Z01620180310X066015000
2MAIL0000066166BR23        BRG1        BRG1COCO    BRG1COCO13AG00001000000000001228090100000000000003000000000000000000000000021389Z01620180310X066004960
2MAIL0000066166BR23        BRG1        BRG1COCO    BRG1COCO13AG00001100000000001231189200000000000000100000000000000000000000004522Z01620180310X066005000
2MAIL0000066166BR23        BRG1        BRG1COCO    BRG1COCO13AG00001200000000001231389600000000000000100000000000000000000000001641Z01620180310X066015000
2MAIL0000066166BR23        BRG1        BRG1COCO    BRG1COCO13AG00001300000000001233098400000000000001400000000000000000000000004968Z01620180310X066009900
2MAIL0000066166BR23        BRG1        BRG1COCO    BRG1COCO13AG00001400000000001233098500000000000001400000000000000000000000004968Z01620180310X066009900
2MAIL0000066166BR23        BRG1        BRG1COCO    BRG1COCO13AG00001500000000001233098800000000000001400000000000000000000000004968Z01620180310X066009900
2MAIL0000066166BR23        BRG1        BRG1COCO    BRG1COCO13AG00001600000000001234705700000000000000100000000000000000000000004522Z01620180310X066005000
