1MAIL0000064133BR23        BRG1        BRG1COCO    BRG1COCO13AG2018022300:00:00OR  01000004960605000496060564133                              2018022320180223Z016CIF201802230000000000426158NN0                                                  0
2MAIL0000064133BR23        BRG1        BRG1COCO    BRG1COCO13AG00000100000000001132018300000000000000800000000000000000000000030707Z01620180223X066020000
2MAIL0000064133BR23        BRG1        BRG1COCO    BRG1COCO13AG00000200000000001132019700000000000000100000000000000000000000002300Z01620180223X066000000
2MAIL0000064133BR23        BRG1        BRG1COCO    BRG1COCO13AG00000300000000001132019800000000000000100000000000000000000000002300Z01620180223X066000000
2MAIL0000064133BR23        BRG1        BRG1COCO    BRG1COCO13AG00000400000000001132019900000000000000100000000000000000000000002300Z01620180223X066000000
2MAIL0000064133BR23        BRG1        BRG1COCO    BRG1COCO13AG00000500000000001132020900000000000000100000000000000000000000002300Z01620180223X066000000
2MAIL0000064133BR23        BRG1        BRG1COCO    BRG1COCO13AG00000600000000001132033100000000000000500000000000000000000000008883Z01620180223X066008000
2MAIL0000064133BR23        BRG1        BRG1COCO    BRG1COCO13AG00000700000000001132036700000000000001000000000000000000000000017766Z01620180223X066008000
2MAIL0000064133BR23        BRG1        BRG1COCO    BRG1COCO13AG00000800000000001132400100000000000000100000000000000000000000003511Z01620180223X066000000
2MAIL0000064133BR23        BRG1        BRG1COCO    BRG1COCO13AG00000900000000001215533700000000000000700000000000000000000000012436Z01620180223X066008000
2MAIL0000064133BR23        BRG1        BRG1COCO    BRG1COCO13AG00001000000000001221415400000000000000800000000000000000000000030707Z01620180223X066020000
2MAIL0000064133BR23        BRG1        BRG1COCO    BRG1COCO13AG00001100000000001223975300000000000000100000000000000000000000004328Z01620180223X066000000
2MAIL0000064133BR23        BRG1        BRG1COCO    BRG1COCO13AG00001200000000001227395500000000000000500000000000000000000000008883Z01620180223X066008000
2MAIL0000064133BR23        BRG1        BRG1COCO    BRG1COCO13AG00001300000000001227735000000000000000100000000000000000000000002300Z01620180223X066000000
2MAIL0000064133BR23        BRG1        BRG1COCO    BRG1COCO13AG00001400000000001228090100000000000015000000000000000000000000102186Z01620180223X066000100
2MAIL0000064133BR23        BRG1        BRG1COCO    BRG1COCO13AG00001500000000001228274000000000000000100000000000000000000000004328Z01620180223X066000000
2MAIL0000064133BR23        BRG1        BRG1COCO    BRG1COCO13AG00001600000000001228512700000000000000100000000000000000000000004328Z01620180223X066000000
2MAIL0000064133BR23        BRG1        BRG1COCO    BRG1COCO13AG00001700000000001231189200000000000000100000000000000000000000004328Z01620180223X066000000
2MAIL0000064133BR23        BRG1        BRG1COCO    BRG1COCO13AG00001800000000001231231200000000000000100000000000000000000000004328Z01620180223X066000000
2MAIL0000064133BR23        BRG1        BRG1COCO    BRG1COCO13AG00001900000000001231389600000000000000500000000000000000000000008883Z01620180223X066008000
2MAIL0000064133BR23        BRG1        BRG1COCO    BRG1COCO13AG00002000000000001233081900000000000005600000000000000000000000020050Z01620180223X066000000
2MAIL0000064133BR23        BRG1        BRG1COCO    BRG1COCO13AG00002100000000001233098400000000000005600000000000000000000000020050Z01620180223X066000000
2MAIL0000064133BR23        BRG1        BRG1COCO    BRG1COCO13AG00002200000000001233098500000000000005600000000000000000000000020050Z01620180223X066000000
2MAIL0000064133BR23        BRG1        BRG1COCO    BRG1COCO13AG00002300000000001233098600000000000005600000000000000000000000020050Z01620180223X066000000
2MAIL0000064133BR23        BRG1        BRG1COCO    BRG1COCO13AG00002400000000001233098800000000000005600000000000000000000000020050Z01620180223X066000000
2MAIL0000064133BR23        BRG1        BRG1COCO    BRG1COCO13AG00002500000000001233099500000000000005600000000000000000000000020050Z01620180223X066000000
2MAIL0000064133BR23        BRG1        BRG1COCO    BRG1COCO13AG00002600000000001233154200000000000005600000000000000000000000020050Z01620180223X066000000
2MAIL0000064133BR23        BRG1        BRG1COCO    BRG1COCO13AG00002700000000001234705700000000000000100000000000000000000000004328Z01620180223X066000000
2MAIL0000064133BR23        BRG1        BRG1COCO    BRG1COCO13AG00002800000000001234705800000000000000100000000000000000000000004328Z01620180223X066000000
2MAIL0000064133BR23        BRG1        BRG1COCO    BRG1COCO13AG00002900000000001234708700000000000005600000000000000000000000020050Z01620180223X066000000
