1MAIL0000064992BR23        BRG1        BRG1COCO    BRG1COCO13AG2018022700:00:00OR  01000004466052000446605264992                              2018022720180303Z016CIF201803030000000000113897NN0                                                  0
2MAIL0000064992BR23        BRG1        BRG1COCO    BRG1COCO13AG00000100000000001132018300000000000000100000000000000000000000003598Z01620180303X066025000
2MAIL0000064992BR23        BRG1        BRG1COCO    BRG1COCO13AG00000200000000001132019800000000000000100000000000000000000000002184Z01620180303X066005000
2MAIL0000064992BR23        BRG1        BRG1COCO    BRG1COCO13AG00000300000000001132033100000000000000100000000000000000000000001641Z01620180303X066015000
2MAIL0000064992BR23        BRG1        BRG1COCO    BRG1COCO13AG00000400000000001132036700000000000000100000000000000000000000001641Z01620180303X066015000
2MAIL0000064992BR23        BRG1        BRG1COCO    BRG1COCO13AG00000500000000001132200400000000000000500000000000000000000000008876Z01620180303X066004850
2MAIL0000064992BR23        BRG1        BRG1COCO    BRG1COCO13AG00000600000000001132213000000000000000100000000000000000000000003771Z01620180303X066004950
2MAIL0000064992BR23        BRG1        BRG1COCO    BRG1COCO13AG00000700000000001215533700000000000000100000000000000000000000001641Z01620180303X066015000
2MAIL0000064992BR23        BRG1        BRG1COCO    BRG1COCO13AG00000800000000001221415400000000000000100000000000000000000000003598Z01620180303X066025000
2MAIL0000064992BR23        BRG1        BRG1COCO    BRG1COCO13AG00000900000000001223975300000000000000100000000000000000000000004522Z01620180303X066005000
2MAIL0000064992BR23        BRG1        BRG1COCO    BRG1COCO13AG00001000000000001226089600000000000001200000000000000000000000004096Z01620180303X066009000
2MAIL0000064992BR23        BRG1        BRG1COCO    BRG1COCO13AG00001100000000001227395500000000000000100000000000000000000000001641Z01620180303X066015000
2MAIL0000064992BR23        BRG1        BRG1COCO    BRG1COCO13AG00001200000000001228100400000000000000100000000000000000000000002155Z01620180303X066018000
2MAIL0000064992BR23        BRG1        BRG1COCO    BRG1COCO13AG00001300000000001228274000000000000000100000000000000000000000004522Z01620180303X066005000
2MAIL0000064992BR23        BRG1        BRG1COCO    BRG1COCO13AG00001400000000001228512700000000000000100000000000000000000000004522Z01620180303X066005000
2MAIL0000064992BR23        BRG1        BRG1COCO    BRG1COCO13AG00001500000000001231189200000000000000100000000000000000000000004522Z01620180303X066005000
2MAIL0000064992BR23        BRG1        BRG1COCO    BRG1COCO13AG00001600000000001231231200000000000000100000000000000000000000004522Z01620180303X066005000
2MAIL0000064992BR23        BRG1        BRG1COCO    BRG1COCO13AG00001700000000001231389600000000000000100000000000000000000000001641Z01620180303X066015000
2MAIL0000064992BR23        BRG1        BRG1COCO    BRG1COCO13AG00001800000000001233098500000000000001400000000000000000000000005017Z01620180303X066009000
2MAIL0000064992BR23        BRG1        BRG1COCO    BRG1COCO13AG00001900000000001233098600000000000001400000000000000000000000005017Z01620180303X066009000
2MAIL0000064992BR23        BRG1        BRG1COCO    BRG1COCO13AG00002000000000001233098800000000000001400000000000000000000000005017Z01620180303X066009000
2MAIL0000064992BR23        BRG1        BRG1COCO    BRG1COCO13AG00002100000000001233099500000000000001400000000000000000000000005017Z01620180303X066009000
2MAIL0000064992BR23        BRG1        BRG1COCO    BRG1COCO13AG00002200000000001233695100000000000000100000000000000000000000001641Z01620180303X066015000
2MAIL0000064992BR23        BRG1        BRG1COCO    BRG1COCO13AG00002300000000001234705700000000000000100000000000000000000000004522Z01620180303X066005000
2MAIL0000064992BR23        BRG1        BRG1COCO    BRG1COCO13AG00002400000000001234705800000000000000100000000000000000000000004522Z01620180303X066005000
2MAIL0000064992BR23        BRG1        BRG1COCO    BRG1COCO13AG00002500000000001235699400000000000001000000000000000000000000003702Z01620180303X066006000
2MAIL0000064992BR23        BRG1        BRG1COCO    BRG1COCO13AG00002600000000001235699700000000000001000000000000000000000000003702Z01620180303X066006000
2MAIL0000064992BR23        BRG1        BRG1COCO    BRG1COCO13AG00002700000000001235699800000000000001000000000000000000000000003702Z01620180303X066006000
2MAIL0000064992BR23        BRG1        BRG1COCO    BRG1COCO13AG00002800000000001236512800000000000001200000000000000000000000001972Z01620180303X066006000
2MAIL0000064992BR23        BRG1        BRG1COCO    BRG1COCO13AG00002900000000001236512900000000000001200000000000000000000000002138Z01620180303X066005000
2MAIL0000064992BR23        BRG1        BRG1COCO    BRG1COCO13AG00003000000000001236514100000000000001200000000000000000000000001972Z01620180303X066006000
2MAIL0000064992BR23        BRG1        BRG1COCO    BRG1COCO13AG00003100000000001236515000000000000001200000000000000000000000002138Z01620180303X066005000
2MAIL0000064992BR23        BRG1        BRG1COCO    BRG1COCO13AG00003200000000001236528200000000000001000000000000000000000000004725Z01620180303X066010000
1MAIL0000064993BR23        BRG1        BRG1COCO    BRG1COCO13AG2018022700:00:00OR  01000004643302000464330264993                              2018022720180303Z016CIF201803030000000000075574NN0                                                  0
2MAIL0000064993BR23        BRG1        BRG1COCO    BRG1COCO13AG00000100000000001132019700000000000000100000000000000000000000002276Z01620180303X066005000
2MAIL0000064993BR23        BRG1        BRG1COCO    BRG1COCO13AG00000200000000001132033100000000000000100000000000000000000000001710Z01620180303X066015000
2MAIL0000064993BR23        BRG1        BRG1COCO    BRG1COCO13AG00000300000000001132036700000000000000100000000000000000000000001710Z01620180303X066015000
2MAIL0000064993BR23        BRG1        BRG1COCO    BRG1COCO13AG00000400000000001215533700000000000000100000000000000000000000001710Z01620180303X066015000
2MAIL0000064993BR23        BRG1        BRG1COCO    BRG1COCO13AG00000500000000001227395500000000000000100000000000000000000000001710Z01620180303X066015000
2MAIL0000064993BR23        BRG1        BRG1COCO    BRG1COCO13AG00000600000000001228090100000000000003000000000000000000000000022286Z01620180303X066004960
2MAIL0000064993BR23        BRG1        BRG1COCO    BRG1COCO13AG00000700000000001228100400000000000000200000000000000000000000004490Z01620180303X066018000
2MAIL0000064993BR23        BRG1        BRG1COCO    BRG1COCO13AG00000800000000001228512700000000000000100000000000000000000000004713Z01620180303X066005000
2MAIL0000064993BR23        BRG1        BRG1COCO    BRG1COCO13AG00000900000000001231389600000000000000100000000000000000000000001710Z01620180303X066015000
2MAIL0000064993BR23        BRG1        BRG1COCO    BRG1COCO13AG00001000000000001233081900000000000001400000000000000000000000005171Z01620180303X066010000
2MAIL0000064993BR23        BRG1        BRG1COCO    BRG1COCO13AG00001100000000001233098400000000000001400000000000000000000000005171Z01620180303X066010000
2MAIL0000064993BR23        BRG1        BRG1COCO    BRG1COCO13AG00001200000000001233695100000000000000100000000000000000000000001710Z01620180303X066015000
2MAIL0000064993BR23        BRG1        BRG1COCO    BRG1COCO13AG00001300000000001234705700000000000000100000000000000000000000004713Z01620180303X066005000
2MAIL0000064993BR23        BRG1        BRG1COCO    BRG1COCO13AG00001400000000001235356200000000000000200000000000000000000000004526Z01620180303X066000000
2MAIL0000064993BR23        BRG1        BRG1COCO    BRG1COCO13AG00001500000000001235699800000000000001000000000000000000000000003858Z01620180303X066006000
2MAIL0000064993BR23        BRG1        BRG1COCO    BRG1COCO13AG00001600000000001236512800000000000001000000000000000000000000001661Z01620180303X066008000
2MAIL0000064993BR23        BRG1        BRG1COCO    BRG1COCO13AG00001700000000001236512900000000000001500000000000000000000000002394Z01620180303X066005000
2MAIL0000064993BR23        BRG1        BRG1COCO    BRG1COCO13AG00001800000000001236514100000000000001000000000000000000000000001661Z01620180303X066008000
2MAIL0000064993BR23        BRG1        BRG1COCO    BRG1COCO13AG00001900000000001236515000000000000001500000000000000000000000002394Z01620180303X066005000
