1MAIL0000065107BR23        BRG1        BRG1COCO    BRG1COCO13AG2018030500:00:00OR  01000003477208000347720865107                              2018030520180305ZG40CIF201803050000000000037374NN0                                                  0
2MAIL0000065107BR23        BRG1        BRG1COCO    BRG1COCO13AG00000100000000001132213000000000000000100000000000000000000000003700ZG4020180305X066004950
2MAIL0000065107BR23        BRG1        BRG1COCO    BRG1COCO13AG00000200000000001132213100000000000000100000000000000000000000003700ZG4020180305X066004950
2MAIL0000065107BR23        BRG1        BRG1COCO    BRG1COCO13AG00000300000000001226089600000000000001200000000000000000000000004414ZG4020180305X066000000
2MAIL0000065107BR23        BRG1        BRG1COCO    BRG1COCO13AG00000400000000001233098600000000000001400000000000000000000000005406ZG4020180305X066000000
2MAIL0000065107BR23        BRG1        BRG1COCO    BRG1COCO13AG00000500000000001233098800000000000001400000000000000000000000005406ZG4020180305X066000000
2MAIL0000065107BR23        BRG1        BRG1COCO    BRG1COCO13AG00000600000000001233099500000000000001400000000000000000000000005406ZG4020180305X066000000
2MAIL0000065107BR23        BRG1        BRG1COCO    BRG1COCO13AG00000700000000001234705700000000000000100000000000000000000000004671ZG4020180305X066000000
2MAIL0000065107BR23        BRG1        BRG1COCO    BRG1COCO13AG00000800000000001234705800000000000000100000000000000000000000004671ZG4020180305X066000000
