1MAIL0000064114BR23        BRG1        BRG1COCO    BRG1COCO13AG2018022300:00:00OR  01000004033058000403305864114                              2018022320180223Z846CIF201802230000000000006650NN0                                                  0
2MAIL0000064114BR23        BRG1        BRG1COCO    BRG1COCO13AG00000100000000001235356200000000000000300000000000000000000000006650Z84620180223X066000000
1MAIL0000064115BR23        BRG1        BRG1COCO    BRG1COCO13AG2018022300:00:00OR  01000004033343000403334364115                              2018022320180223Z016CIF201802230000000000078413NN0                                                  0
2MAIL0000064115BR23        BRG1        BRG1COCO    BRG1COCO13AG00000100000000001132036700000000000000100000000000000000000000001710Z01620180223X066015000
2MAIL0000064115BR23        BRG1        BRG1COCO    BRG1COCO13AG00000200000000001228090100000000000009000000000000000000000000066820Z01620180223X066004960
2MAIL0000064115BR23        BRG1        BRG1COCO    BRG1COCO13AG00000300000000001231189200000000000000100000000000000000000000004713Z01620180223X066005000
2MAIL0000064115BR23        BRG1        BRG1COCO    BRG1COCO13AG00000400000000001233098600000000000001400000000000000000000000005170Z01620180223X066010000
1MAIL0000064116BR23        BRG1        BRG1COCO    BRG1COCO13AG2018022300:00:00OR  01000004033343000403334364116                              2018022320180223Z846CIF201802230000000000006650NN0                                                  0
2MAIL0000064116BR23        BRG1        BRG1COCO    BRG1COCO13AG00000100000000001235356200000000000000300000000000000000000000006650Z84620180223X066000000
1MAIL0000064117BR23        BRG1        BRG1COCO    BRG1COCO13AG2018022300:00:00OR  01000004033501000403350164117                              2018022320180223Z846CIF201802230000000000006650NN0                                                  0
2MAIL0000064117BR23        BRG1        BRG1COCO    BRG1COCO13AG00000100000000001235356200000000000000300000000000000000000000006650Z84620180223X066000000
1MAIL0000064118BR23        BRG1        BRG1COCO    BRG1COCO13AG2018022300:00:00OR  01000004265564000426556464118                              2018022320180223Z016CIF201802230000000000013834NN0                                                  0
2MAIL0000064118BR23        BRG1        BRG1COCO    BRG1COCO13AG00000100000000001132036700000000000000100000000000000000000000001710Z01620180223X066015000
2MAIL0000064118BR23        BRG1        BRG1COCO    BRG1COCO13AG00000200000000001228100400000000000000100000000000000000000000002241Z01620180223X066018000
2MAIL0000064118BR23        BRG1        BRG1COCO    BRG1COCO13AG00000300000000001231189200000000000000100000000000000000000000004713Z01620180223X066005000
2MAIL0000064118BR23        BRG1        BRG1COCO    BRG1COCO13AG00000400000000001233098600000000000001400000000000000000000000005170Z01620180223X066010000
1MAIL0000064119BR23        BRG1        BRG1COCO    BRG1COCO13AG2018022300:00:00OR  01000004265564000426556464119                              2018022320180223Z846CIF201802230000000000027544NN0                                                  0
2MAIL0000064119BR23        BRG1        BRG1COCO    BRG1COCO13AG00000100000000001233114700000000000000300000000000000000000000003796Z84620180223X066000000
2MAIL0000064119BR23        BRG1        BRG1COCO    BRG1COCO13AG00000200000000001235356200000000000000300000000000000000000000006650Z84620180223X066000000
2MAIL0000064119BR23        BRG1        BRG1COCO    BRG1COCO13AG00000300000000001235699500000000000000300000000000000000000000008549Z84620180223X066000000
2MAIL0000064119BR23        BRG1        BRG1COCO    BRG1COCO13AG00000400000000001235737300000000000000300000000000000000000000008549Z84620180223X066000000
1MAIL0000064120BR23        BRG1        BRG1COCO    BRG1COCO13AG2018022300:00:00OR  01000004382364000438236464120                              2018022320180223Z846CIF201802230000000000045580NN0                                                  0
2MAIL0000064120BR23        BRG1        BRG1COCO    BRG1COCO13AG00000100000000001233114700000000000001200000000000000000000000015183Z84620180223X066000000
2MAIL0000064120BR23        BRG1        BRG1COCO    BRG1COCO13AG00000200000000001235356200000000000000600000000000000000000000013299Z84620180223X066000000
2MAIL0000064120BR23        BRG1        BRG1COCO    BRG1COCO13AG00000300000000001235699500000000000000300000000000000000000000008549Z84620180223X066000000
2MAIL0000064120BR23        BRG1        BRG1COCO    BRG1COCO13AG00000400000000001235737300000000000000300000000000000000000000008549Z84620180223X066000000
1MAIL0000064121BR23        BRG1        BRG1COCO    BRG1COCO13AG2018022300:00:00OR  01000004464228000446422864121                              2018022320180223Z846CIF201802230000000000013299NN0                                                  0
2MAIL0000064121BR23        BRG1        BRG1COCO    BRG1COCO13AG00000100000000001235356200000000000000600000000000000000000000013299Z84620180223X066000000
1MAIL0000064122BR23        BRG1        BRG1COCO    BRG1COCO13AG2018022300:00:00OR  01000005421629000542162964122                              2018022320180223Z016CIF201802230000000000038790NN0                                                  0
2MAIL0000064122BR23        BRG1        BRG1COCO    BRG1COCO13AG00000100000000001233114700000000000000600000000000000000000000007755Z01620180223X066000000
2MAIL0000064122BR23        BRG1        BRG1COCO    BRG1COCO13AG00000200000000001235356200000000000000600000000000000000000000013577Z01620180223X066000000
2MAIL0000064122BR23        BRG1        BRG1COCO    BRG1COCO13AG00000300000000001235699500000000000000300000000000000000000000008729Z01620180223X066000000
2MAIL0000064122BR23        BRG1        BRG1COCO    BRG1COCO13AG00000400000000001235737300000000000000300000000000000000000000008729Z01620180223X066000000
1MAIL0000064123BR23        BRG1        BRG1COCO    BRG1COCO13AG2018022300:00:00OR  01000004008730000400873064123                              2018022320180223Z016CIF201802230000000000063990NN0                                                  0
2MAIL0000064123BR23        BRG1        BRG1COCO    BRG1COCO13AG00000100000000001132033100000000000000200000000000000000000000003420Z01620180223X066015000
2MAIL0000064123BR23        BRG1        BRG1COCO    BRG1COCO13AG00000200000000001132036700000000000000200000000000000000000000003420Z01620180223X066015000
2MAIL0000064123BR23        BRG1        BRG1COCO    BRG1COCO13AG00000300000000001215533700000000000000200000000000000000000000003420Z01620180223X066015000
2MAIL0000064123BR23        BRG1        BRG1COCO    BRG1COCO13AG00000400000000001227395500000000000000200000000000000000000000003822Z01620180223X066005000
2MAIL0000064123BR23        BRG1        BRG1COCO    BRG1COCO13AG00000500000000001228090100000000000003000000000000000000000000022274Z01620180223X066004960
2MAIL0000064123BR23        BRG1        BRG1COCO    BRG1COCO13AG00000600000000001228100400000000000000100000000000000000000000002241Z01620180223X066018000
2MAIL0000064123BR23        BRG1        BRG1COCO    BRG1COCO13AG00000700000000001231231200000000000000100000000000000000000000004713Z01620180223X066005000
2MAIL0000064123BR23        BRG1        BRG1COCO    BRG1COCO13AG00000800000000001233081900000000000001400000000000000000000000005170Z01620180223X066010000
2MAIL0000064123BR23        BRG1        BRG1COCO    BRG1COCO13AG00000900000000001233098400000000000001400000000000000000000000005170Z01620180223X066010000
2MAIL0000064123BR23        BRG1        BRG1COCO    BRG1COCO13AG00001000000000001233098600000000000001400000000000000000000000005170Z01620180223X066010000
2MAIL0000064123BR23        BRG1        BRG1COCO    BRG1COCO13AG00001100000000001233154200000000000001400000000000000000000000005170Z01620180223X066010000
1MAIL0000064124BR23        BRG1        BRG1COCO    BRG1COCO13AG2018022300:00:00OR  01000003941351000394135164124                              2018022320180223Z016CIF201802230000000000486184NN0                                                  0
2MAIL0000064124BR23        BRG1        BRG1COCO    BRG1COCO13AG00000100000000001132035000000000000002000000000000000000000000032906Z01620180223X066012000
2MAIL0000064124BR23        BRG1        BRG1COCO    BRG1COCO13AG00000200000000001132035100000000000002000000000000000000000000031266Z01620180223X066012000
2MAIL0000064124BR23        BRG1        BRG1COCO    BRG1COCO13AG00000300000000001223975300000000000000800000000000000000000000029482Z01620180223X066005000
2MAIL0000064124BR23        BRG1        BRG1COCO    BRG1COCO13AG00000400000000001228100400000000000006000000000000000000000000115842Z01620180223X066018000
2MAIL0000064124BR23        BRG1        BRG1COCO    BRG1COCO13AG00000500000000001228274000000000000000800000000000000000000000029482Z01620180223X066005000
2MAIL0000064124BR23        BRG1        BRG1COCO    BRG1COCO13AG00000600000000001228512700000000000000800000000000000000000000029482Z01620180223X066005000
2MAIL0000064124BR23        BRG1        BRG1COCO    BRG1COCO13AG00000700000000001231189200000000000000800000000000000000000000029482Z01620180223X066005000
2MAIL0000064124BR23        BRG1        BRG1COCO    BRG1COCO13AG00000800000000001231231200000000000000800000000000000000000000029482Z01620180223X066005000
2MAIL0000064124BR23        BRG1        BRG1COCO    BRG1COCO13AG00000900000000001233081900000000000005600000000000000000000000019845Z01620180223X066000000
2MAIL0000064124BR23        BRG1        BRG1COCO    BRG1COCO13AG00001000000000001233098400000000000005600000000000000000000000019845Z01620180223X066000000
2MAIL0000064124BR23        BRG1        BRG1COCO    BRG1COCO13AG00001100000000001233098500000000000005600000000000000000000000019845Z01620180223X066000000
2MAIL0000064124BR23        BRG1        BRG1COCO    BRG1COCO13AG00001200000000001233098600000000000005600000000000000000000000019845Z01620180223X066000000
2MAIL0000064124BR23        BRG1        BRG1COCO    BRG1COCO13AG00001300000000001233098800000000000005600000000000000000000000019845Z01620180223X066000000
2MAIL0000064124BR23        BRG1        BRG1COCO    BRG1COCO13AG00001400000000001233099500000000000005600000000000000000000000019845Z01620180223X066000000
2MAIL0000064124BR23        BRG1        BRG1COCO    BRG1COCO13AG00001500000000001233154200000000000005600000000000000000000000019845Z01620180223X066000000
2MAIL0000064124BR23        BRG1        BRG1COCO    BRG1COCO13AG00001600000000001234708700000000000005600000000000000000000000019845Z01620180223X066000000
1MAIL0000064125BR23        BRG1        BRG1COCO    BRG1COCO13AG2018022300:00:00OR  01000003941351000394135164125                              2018022320180223Z016CIF201802230000000000514850NN0                                                  0
2MAIL0000064125BR23        BRG1        BRG1COCO    BRG1COCO13AG00000100000000001132036700000000000009600000000000000000000000154455Z01620180223X066007000
2MAIL0000064125BR23        BRG1        BRG1COCO    BRG1COCO13AG00000200000000001215533700000000000009600000000000000000000000154455Z01620180223X066007000
2MAIL0000064125BR23        BRG1        BRG1COCO    BRG1COCO13AG00000300000000001231389600000000000003200000000000000000000000051485Z01620180223X066007000
2MAIL0000064125BR23        BRG1        BRG1COCO    BRG1COCO13AG00000400000000001233695100000000000009600000000000000000000000154455Z01620180223X066007000
1MAIL0000064127BR23        BRG1        BRG1COCO    BRG1COCO13AG2018022300:00:00OR  01000004033058000403305864127                              2018022320180223Z016CIF201802230000000000011453NN0                                                  0
2MAIL0000064127BR23        BRG1        BRG1COCO    BRG1COCO13AG00000100000000001132036700000000000000100000000000000000000000001897Z01620180223X066000000
2MAIL0000064127BR23        BRG1        BRG1COCO    BRG1COCO13AG00000200000000001231189200000000000000100000000000000000000000004680Z01620180223X066000000
2MAIL0000064127BR23        BRG1        BRG1COCO    BRG1COCO13AG00000300000000001233098400000000000001400000000000000000000000004876Z01620180223X066010000
