1MAIL0000064100BR23        BRG1        BRG1COCO    BRG1COCO13AG2018022300:00:00OR  01000005515895000551589564100                              2018022320180223Z016CIF201802230000000000068739NN0                                                  0
2MAIL0000064100BR23        BRG1        BRG1COCO    BRG1COCO13AG00000100000000001132019700000000000000100000000000000000000000002184Z01620180223X066005000
2MAIL0000064100BR23        BRG1        BRG1COCO    BRG1COCO13AG00000200000000001132019800000000000000200000000000000000000000004369Z01620180223X066005000
2MAIL0000064100BR23        BRG1        BRG1COCO    BRG1COCO13AG00000300000000001132019900000000000000200000000000000000000000004369Z01620180223X066005000
2MAIL0000064100BR23        BRG1        BRG1COCO    BRG1COCO13AG00000400000000001132020900000000000000200000000000000000000000004369Z01620180223X066005000
2MAIL0000064100BR23        BRG1        BRG1COCO    BRG1COCO13AG00000500000000001132213000000000000000200000000000000000000000007541Z01620180223X066004950
2MAIL0000064100BR23        BRG1        BRG1COCO    BRG1COCO13AG00000600000000001132213100000000000000200000000000000000000000007541Z01620180223X066004950
2MAIL0000064100BR23        BRG1        BRG1COCO    BRG1COCO13AG00000700000000001223975300000000000000100000000000000000000000004522Z01620180223X066005000
2MAIL0000064100BR23        BRG1        BRG1COCO    BRG1COCO13AG00000800000000001227735000000000000000100000000000000000000000002184Z01620180223X066005000
2MAIL0000064100BR23        BRG1        BRG1COCO    BRG1COCO13AG00000900000000001228274000000000000000200000000000000000000000009046Z01620180223X066005000
2MAIL0000064100BR23        BRG1        BRG1COCO    BRG1COCO13AG00001000000000001228512700000000000000200000000000000000000000009046Z01620180223X066005000
2MAIL0000064100BR23        BRG1        BRG1COCO    BRG1COCO13AG00001100000000001231189200000000000000100000000000000000000000004522Z01620180223X066005000
2MAIL0000064100BR23        BRG1        BRG1COCO    BRG1COCO13AG00001200000000001231231200000000000000200000000000000000000000009046Z01620180223X066005000
