1MAIL0000064803BR23        BRG1        BRG1COCO    BRG1COCO13AG2018030100:00:00OR  01000002899785000289978564803                              2018030120180303Z859CIF201803030000000000022628NN0                                                  0
2MAIL0000064803BR23        BRG1        BRG1COCO    BRG1COCO13AG00000100000000001235356200000000000001000000000000000000000000022628Z85920180303X066000000
1MAIL0000064804BR23        BRG1        BRG1COCO    BRG1COCO13AG2018030100:00:00OR  01000002982205000298220564804                              2018030120180303Z859CIF201803030000000000039760NN0                                                  0
2MAIL0000064804BR23        BRG1        BRG1COCO    BRG1COCO13AG00000100000000001235356200000000000001500000000000000000000000033941Z85920180303X066000000
2MAIL0000064804BR23        BRG1        BRG1COCO    BRG1COCO13AG00000200000000001235737300000000000000200000000000000000000000005819Z85920180303X066000000
1MAIL0000064805BR23        BRG1        BRG1COCO    BRG1COCO13AG2018030100:00:00OR  01000005526496000552649664805                              2018030120180303Z016CIF201803030000000000074557NN0                                                  0
2MAIL0000064805BR23        BRG1        BRG1COCO    BRG1COCO13AG00000100000000001132019700000000000000100000000000000000000000002146Z01620180303X066005000
2MAIL0000064805BR23        BRG1        BRG1COCO    BRG1COCO13AG00000200000000001132019800000000000000100000000000000000000000002146Z01620180303X066005000
2MAIL0000064805BR23        BRG1        BRG1COCO    BRG1COCO13AG00000300000000001132033100000000000000500000000000000000000000008064Z01620180303X066015000
2MAIL0000064805BR23        BRG1        BRG1COCO    BRG1COCO13AG00000400000000001132036700000000000001000000000000000000000000016127Z01620180303X066015000
2MAIL0000064805BR23        BRG1        BRG1COCO    BRG1COCO13AG00000500000000001132200400000000000000200000000000000000000000003492Z01620180303X066004800
2MAIL0000064805BR23        BRG1        BRG1COCO    BRG1COCO13AG00000600000000001132213000000000000000300000000000000000000000011122Z01620180303X066004900
2MAIL0000064805BR23        BRG1        BRG1COCO    BRG1COCO13AG00000700000000001132213100000000000000200000000000000000000000007414Z01620180303X066004900
2MAIL0000064805BR23        BRG1        BRG1COCO    BRG1COCO13AG00000800000000001215533700000000000000200000000000000000000000003226Z01620180303X066015000
2MAIL0000064805BR23        BRG1        BRG1COCO    BRG1COCO13AG00000900000000001227395500000000000000200000000000000000000000003226Z01620180303X066015000
2MAIL0000064805BR23        BRG1        BRG1COCO    BRG1COCO13AG00001000000000001228100400000000000000500000000000000000000000012755Z01620180303X066018000
2MAIL0000064805BR23        BRG1        BRG1COCO    BRG1COCO13AG00001100000000001231389600000000000000200000000000000000000000003226Z01620180303X066015000
2MAIL0000064805BR23        BRG1        BRG1COCO    BRG1COCO13AG00001200000000001233695100000000000000100000000000000000000000001613Z01620180303X066015000
1MAIL0000064806BR23        BRG1        BRG1COCO    BRG1COCO13AG2018030100:00:00OR  01000005421629000542162964806                              2018030120180303Z846CIF201803030000000000026182NN0                                                  0
2MAIL0000064806BR23        BRG1        BRG1COCO    BRG1COCO13AG00000100000000001235356200000000000000600000000000000000000000014099Z84620180303X066000000
2MAIL0000064806BR23        BRG1        BRG1COCO    BRG1COCO13AG00000200000000001235737300000000000000400000000000000000000000012083Z84620180303X066000000
1MAIL0000064807BR23        BRG1        BRG1COCO    BRG1COCO13AG2018030100:00:00OR  01000004382364000438236464807                              2018030120180303Z846CIF201803030000000000040530NN0                                                  0
2MAIL0000064807BR23        BRG1        BRG1COCO    BRG1COCO13AG00000100000000001235356200000000000000800000000000000000000000017732Z84620180303X066000000
2MAIL0000064807BR23        BRG1        BRG1COCO    BRG1COCO13AG00000200000000001235737300000000000000800000000000000000000000022798Z84620180303X066000000
1MAIL0000064808BR23        BRG1        BRG1COCO    BRG1COCO13AG2018030100:00:00OR  01000004382364000438236464808                              2018030120180303Z016CIF201803030000000000003420NN0                                                  0
2MAIL0000064808BR23        BRG1        BRG1COCO    BRG1COCO13AG00000100000000001132036700000000000000200000000000000000000000003420Z01620180303X066015000
1MAIL0000064809BR23        BRG1        BRG1COCO    BRG1COCO13AG2018030100:00:00OR  01000003941351000394135164809                              2018030120180303Z016CIF201803030000000000590113NN0                                                  0
2MAIL0000064809BR23        BRG1        BRG1COCO    BRG1COCO13AG00000100000000001132034900000000000002000000000000000000000000029637Z01620180303X066012000
2MAIL0000064809BR23        BRG1        BRG1COCO    BRG1COCO13AG00000200000000001132035100000000000002000000000000000000000000031266Z01620180303X066012000
2MAIL0000064809BR23        BRG1        BRG1COCO    BRG1COCO13AG00000300000000001223975300000000000000800000000000000000000000029482Z01620180303X066005000
2MAIL0000064809BR23        BRG1        BRG1COCO    BRG1COCO13AG00000400000000001226089600000000000004800000000000000000000000016200Z01620180303X066000000
2MAIL0000064809BR23        BRG1        BRG1COCO    BRG1COCO13AG00000500000000001228274000000000000000800000000000000000000000029482Z01620180303X066005000
2MAIL0000064809BR23        BRG1        BRG1COCO    BRG1COCO13AG00000600000000001228512700000000000000800000000000000000000000029482Z01620180303X066005000
2MAIL0000064809BR23        BRG1        BRG1COCO    BRG1COCO13AG00000700000000001231189200000000000000800000000000000000000000029482Z01620180303X066005000
2MAIL0000064809BR23        BRG1        BRG1COCO    BRG1COCO13AG00000800000000001233081900000000000005600000000000000000000000019845Z01620180303X066000000
2MAIL0000064809BR23        BRG1        BRG1COCO    BRG1COCO13AG00000900000000001233098400000000000005600000000000000000000000019845Z01620180303X066000000
2MAIL0000064809BR23        BRG1        BRG1COCO    BRG1COCO13AG00001000000000001233098500000000000005600000000000000000000000019845Z01620180303X066000000
2MAIL0000064809BR23        BRG1        BRG1COCO    BRG1COCO13AG00001100000000001233098600000000000005600000000000000000000000019845Z01620180303X066000000
2MAIL0000064809BR23        BRG1        BRG1COCO    BRG1COCO13AG00001200000000001233098800000000000005600000000000000000000000019845Z01620180303X066000000
2MAIL0000064809BR23        BRG1        BRG1COCO    BRG1COCO13AG00001300000000001233099500000000000005600000000000000000000000019845Z01620180303X066000000
2MAIL0000064809BR23        BRG1        BRG1COCO    BRG1COCO13AG00001400000000001233154200000000000005600000000000000000000000019845Z01620180303X066000000
2MAIL0000064809BR23        BRG1        BRG1COCO    BRG1COCO13AG00001500000000001234705700000000000000800000000000000000000000029482Z01620180303X066005000
2MAIL0000064809BR23        BRG1        BRG1COCO    BRG1COCO13AG00001600000000001234705800000000000000800000000000000000000000029482Z01620180303X066005000
2MAIL0000064809BR23        BRG1        BRG1COCO    BRG1COCO13AG00001700000000001234708700000000000005600000000000000000000000019845Z01620180303X066000000
2MAIL0000064809BR23        BRG1        BRG1COCO    BRG1COCO13AG00001800000000001236512800000000000015600000000000000000000000024898Z01620180303X066000000
2MAIL0000064809BR23        BRG1        BRG1COCO    BRG1COCO13AG00001900000000001236512900000000000021000000000000000000000000028441Z01620180303X066005000
2MAIL0000064809BR23        BRG1        BRG1COCO    BRG1COCO13AG00002000000000001236514100000000000015600000000000000000000000024898Z01620180303X066000000
2MAIL0000064809BR23        BRG1        BRG1COCO    BRG1COCO13AG00002100000000001236515000000000000021000000000000000000000000028441Z01620180303X066005000
2MAIL0000064809BR23        BRG1        BRG1COCO    BRG1COCO13AG00002200000000001236528200000000000012000000000000000000000000070680Z01620180303X066000000
1MAIL0000064810BR23        BRG1        BRG1COCO    BRG1COCO13AG2018030100:00:00OR  01000004032569000403256964810                              2018030120180303Z016CIF201803030000000000014390NN0                                                  0
2MAIL0000064810BR23        BRG1        BRG1COCO    BRG1COCO13AG00000100000000001132018300000000000000100000000000000000000000004090Z01620180303X066025000
2MAIL0000064810BR23        BRG1        BRG1COCO    BRG1COCO13AG00000200000000001132033100000000000000100000000000000000000000001710Z01620180303X066015000
2MAIL0000064810BR23        BRG1        BRG1COCO    BRG1COCO13AG00000300000000001132036700000000000000200000000000000000000000003420Z01620180303X066015000
2MAIL0000064810BR23        BRG1        BRG1COCO    BRG1COCO13AG00000400000000001233098600000000000001400000000000000000000000005170Z01620180303X066010000
1MAIL0000064811BR23        BRG1        BRG1COCO    BRG1COCO13AG2018030100:00:00OR  01000005198296000519829664811                              2018030120180303Z859CIF201803030000000000005819NN0                                                  0
2MAIL0000064811BR23        BRG1        BRG1COCO    BRG1COCO13AG00000100000000001233114700000000000000100000000000000000000000001293Z85920180303X066000000
2MAIL0000064811BR23        BRG1        BRG1COCO    BRG1COCO13AG00000200000000001235356200000000000000200000000000000000000000004526Z85920180303X066000000
1MAIL0000064812BR23        BRG1        BRG1COCO    BRG1COCO13AG2018030100:00:00OR  01000005254980000525498064812                              2018030120180303Z859CIF201803030000000000009051NN0                                                  0
2MAIL0000064812BR23        BRG1        BRG1COCO    BRG1COCO13AG00000100000000001235356200000000000000400000000000000000000000009051Z85920180303X066000000
1MAIL0000064813BR23        BRG1        BRG1COCO    BRG1COCO13AG2018030100:00:00OR  01000002984648000298464864813                              2018030120180303Z016CIF201803030000000000716017NN0                                                  0
2MAIL0000064813BR23        BRG1        BRG1COCO    BRG1COCO13AG00000100000000001228090100000000000105000000000000000000000000716017Z01620180303X066000000
1MAIL0000064814BR23        BRG1        BRG1COCO    BRG1COCO13AG2018030100:00:00OR  01000003249322000324932264814                              2018030120180303Z016CIF201803030000000000024894NN0                                                  0
2MAIL0000064814BR23        BRG1        BRG1COCO    BRG1COCO13AG00000100000000001132033100000000000000200000000000000000000000003281Z01620180303X066015000
2MAIL0000064814BR23        BRG1        BRG1COCO    BRG1COCO13AG00000200000000001132036700000000000000200000000000000000000000003281Z01620180303X066015000
2MAIL0000064814BR23        BRG1        BRG1COCO    BRG1COCO13AG00000300000000001215533700000000000000200000000000000000000000003281Z01620180303X066015000
2MAIL0000064814BR23        BRG1        BRG1COCO    BRG1COCO13AG00000400000000001233081900000000000001400000000000000000000000005017Z01620180303X066009000
2MAIL0000064814BR23        BRG1        BRG1COCO    BRG1COCO13AG00000500000000001233098400000000000001400000000000000000000000005017Z01620180303X066009000
2MAIL0000064814BR23        BRG1        BRG1COCO    BRG1COCO13AG00000600000000001233098800000000000001400000000000000000000000005017Z01620180303X066009000
1MAIL0000064815BR23        BRG1        BRG1COCO    BRG1COCO13AG2018030100:00:00OR  01000003249322000324932264815                              2018030120180303Z859CIF201803030000000000004526NN0                                                  0
2MAIL0000064815BR23        BRG1        BRG1COCO    BRG1COCO13AG00000100000000001235356200000000000000200000000000000000000000004526Z85920180303X066000000
1MAIL0000064816BR23        BRG1        BRG1COCO    BRG1COCO13AG2018030100:00:00OR  01000003757295000375729564816                              2018030120180303Z859CIF201803030000000000027153NN0                                                  0
2MAIL0000064816BR23        BRG1        BRG1COCO    BRG1COCO13AG00000100000000001235356200000000000001200000000000000000000000027153Z85920180303X066000000
1MAIL0000064817BR23        BRG1        BRG1COCO    BRG1COCO13AG2018030100:00:00OR  01000005298220000529822064817                              2018030120180303Z859CIF201803030000000000027153NN0                                                  0
2MAIL0000064817BR23        BRG1        BRG1COCO    BRG1COCO13AG00000100000000001235356200000000000001200000000000000000000000027153Z85920180303X066000000
1MAIL0000064818BR23        BRG1        BRG1COCO    BRG1COCO13AG2018030100:00:00OR  01000004983539000498353964818                              2018030120180303Z016CIF201803030000000000018663NN0                                                  0
2MAIL0000064818BR23        BRG1        BRG1COCO    BRG1COCO13AG00000100000000001132200400000000000001000000000000000000000000018663Z01620180303X066004000
1MAIL0000064819BR23        BRG1        BRG1COCO    BRG1COCO13AG2018030100:00:00OR  01000004983539000498353964819                              2018030120180303Z859CIF201803030000000000007436NN0                                                  0
2MAIL0000064819BR23        BRG1        BRG1COCO    BRG1COCO13AG00000100000000001235356200000000000000200000000000000000000000004526Z85920180303X066000000
2MAIL0000064819BR23        BRG1        BRG1COCO    BRG1COCO13AG00000200000000001235737300000000000000100000000000000000000000002910Z85920180303X066000000
1MAIL0000064820BR23        BRG1        BRG1COCO    BRG1COCO13AG2018030100:00:00OR  01000005398650000539865064820                              2018030120180303ZG40CIF201803030000000000010104NN0                                                  0
2MAIL0000064820BR23        BRG1        BRG1COCO    BRG1COCO13AG00000100000000001132036700000000000000300000000000000000000000005034ZG4020180303X066015000
2MAIL0000064820BR23        BRG1        BRG1COCO    BRG1COCO13AG00000200000000001233098400000000000001400000000000000000000000005070ZG4020180303X066010000
1MAIL0000064821BR23        BRG1        BRG1COCO    BRG1COCO13AG2018030100:00:00OR  01000002982205000298220564821                              2018030120180303Z016CIF201803030000000000019806NN0                                                  0
2MAIL0000064821BR23        BRG1        BRG1COCO    BRG1COCO13AG00000100000000001132004000000000000001000000000000000000000000008232Z01620180303X066005000
2MAIL0000064821BR23        BRG1        BRG1COCO    BRG1COCO13AG00000200000000001235699400000000000001000000000000000000000000003858Z01620180303X066006000
2MAIL0000064821BR23        BRG1        BRG1COCO    BRG1COCO13AG00000300000000001235699700000000000001000000000000000000000000003858Z01620180303X066006000
2MAIL0000064821BR23        BRG1        BRG1COCO    BRG1COCO13AG00000400000000001235699800000000000001000000000000000000000000003858Z01620180303X066006000
1MAIL0000064822BR23        BRG1        BRG1COCO    BRG1COCO13AG2018030100:00:00OR  01000004010249000401024964822                              2018030120180303Z016CIF201803030000000000084803NN0                                                  0
2MAIL0000064822BR23        BRG1        BRG1COCO    BRG1COCO13AG00000100000000001132033100000000000000500000000000000000000000008208Z01620180303X066015000
2MAIL0000064822BR23        BRG1        BRG1COCO    BRG1COCO13AG00000200000000001132036700000000000000500000000000000000000000008208Z01620180303X066015000
2MAIL0000064822BR23        BRG1        BRG1COCO    BRG1COCO13AG00000300000000001132213000000000000000100000000000000000000000003771Z01620180303X066004950
2MAIL0000064822BR23        BRG1        BRG1COCO    BRG1COCO13AG00000400000000001132213100000000000000100000000000000000000000003771Z01620180303X066004950
2MAIL0000064822BR23        BRG1        BRG1COCO    BRG1COCO13AG00000500000000001215533700000000000000500000000000000000000000008208Z01620180303X066015000
2MAIL0000064822BR23        BRG1        BRG1COCO    BRG1COCO13AG00000600000000001226089600000000000001200000000000000000000000004051Z01620180303X066010000
2MAIL0000064822BR23        BRG1        BRG1COCO    BRG1COCO13AG00000700000000001227395500000000000000500000000000000000000000008208Z01620180303X066015000
2MAIL0000064822BR23        BRG1        BRG1COCO    BRG1COCO13AG00000800000000001228274000000000000000100000000000000000000000004522Z01620180303X066005000
2MAIL0000064822BR23        BRG1        BRG1COCO    BRG1COCO13AG00000900000000001228512700000000000000100000000000000000000000004522Z01620180303X066005000
2MAIL0000064822BR23        BRG1        BRG1COCO    BRG1COCO13AG00001000000000001231189200000000000000100000000000000000000000004522Z01620180303X066005000
2MAIL0000064822BR23        BRG1        BRG1COCO    BRG1COCO13AG00001100000000001231231200000000000000100000000000000000000000004522Z01620180303X066005000
2MAIL0000064822BR23        BRG1        BRG1COCO    BRG1COCO13AG00001200000000001233081900000000000001400000000000000000000000004962Z01620180303X066010000
2MAIL0000064822BR23        BRG1        BRG1COCO    BRG1COCO13AG00001300000000001233098400000000000001400000000000000000000000004962Z01620180303X066010000
2MAIL0000064822BR23        BRG1        BRG1COCO    BRG1COCO13AG00001400000000001233098600000000000001400000000000000000000000004962Z01620180303X066010000
2MAIL0000064822BR23        BRG1        BRG1COCO    BRG1COCO13AG00001500000000001235699400000000000001000000000000000000000000003702Z01620180303X066006000
2MAIL0000064822BR23        BRG1        BRG1COCO    BRG1COCO13AG00001600000000001235699800000000000001000000000000000000000000003702Z01620180303X066006000
1MAIL0000064823BR23        BRG1        BRG1COCO    BRG1COCO13AG2018030100:00:00OR  01000002899785000289978564823                              2018030120180303Z016CIF201803030000000000042375NN0                                                  0
2MAIL0000064823BR23        BRG1        BRG1COCO    BRG1COCO13AG00000100000000001132036700000000000000400000000000000000000000006840Z01620180303X066015000
2MAIL0000064823BR23        BRG1        BRG1COCO    BRG1COCO13AG00000200000000001215533700000000000000400000000000000000000000006840Z01620180303X066015000
2MAIL0000064823BR23        BRG1        BRG1COCO    BRG1COCO13AG00000300000000001223975300000000000000100000000000000000000000004713Z01620180303X066005000
2MAIL0000064823BR23        BRG1        BRG1COCO    BRG1COCO13AG00000400000000001227395500000000000000400000000000000000000000006840Z01620180303X066015000
2MAIL0000064823BR23        BRG1        BRG1COCO    BRG1COCO13AG00000500000000001228512700000000000000100000000000000000000000004713Z01620180303X066005000
2MAIL0000064823BR23        BRG1        BRG1COCO    BRG1COCO13AG00000600000000001231189200000000000000100000000000000000000000004713Z01620180303X066005000
2MAIL0000064823BR23        BRG1        BRG1COCO    BRG1COCO13AG00000700000000001235699400000000000001000000000000000000000000003858Z01620180303X066006000
2MAIL0000064823BR23        BRG1        BRG1COCO    BRG1COCO13AG00000800000000001235699800000000000001000000000000000000000000003858Z01620180303X066006000
1MAIL0000064832BR23        BRG1        BRG1COCO    BRG1COCO13AG2018030100:00:00OR  01000003832671000383267164832                              2018030120180303Z016CIF201803030000000000071754NN0                                                  0
2MAIL0000064832BR23        BRG1        BRG1COCO    BRG1COCO13AG00000100000000001132019800000000000000100000000000000000000000002184Z01620180303X066005000
2MAIL0000064832BR23        BRG1        BRG1COCO    BRG1COCO13AG00000200000000001132033100000000000000500000000000000000000000008688Z01620180303X066010000
2MAIL0000064832BR23        BRG1        BRG1COCO    BRG1COCO13AG00000300000000001132036700000000000000500000000000000000000000008688Z01620180303X066010000
2MAIL0000064832BR23        BRG1        BRG1COCO    BRG1COCO13AG00000400000000001132200400000000000000500000000000000000000000008876Z01620180303X066004850
2MAIL0000064832BR23        BRG1        BRG1COCO    BRG1COCO13AG00000500000000001215533700000000000000500000000000000000000000008688Z01620180303X066010000
2MAIL0000064832BR23        BRG1        BRG1COCO    BRG1COCO13AG00000600000000001228512700000000000000100000000000000000000000004522Z01620180303X066005000
2MAIL0000064832BR23        BRG1        BRG1COCO    BRG1COCO13AG00000700000000001231231200000000000000100000000000000000000000004522Z01620180303X066005000
2MAIL0000064832BR23        BRG1        BRG1COCO    BRG1COCO13AG00000800000000001233098800000000000001400000000000000000000000005514Z01620180303X066000000
2MAIL0000064832BR23        BRG1        BRG1COCO    BRG1COCO13AG00000900000000001233154200000000000001400000000000000000000000005514Z01620180303X066000000
2MAIL0000064832BR23        BRG1        BRG1COCO    BRG1COCO13AG00001000000000001234705700000000000000100000000000000000000000004522Z01620180303X066005000
2MAIL0000064832BR23        BRG1        BRG1COCO    BRG1COCO13AG00001100000000001234705800000000000000100000000000000000000000004522Z01620180303X066005000
2MAIL0000064832BR23        BRG1        BRG1COCO    BRG1COCO13AG00001200000000001234708700000000000001400000000000000000000000005514Z01620180303X066000000
1MAIL0000064833BR23        BRG1        BRG1COCO    BRG1COCO13AG2018030100:00:00OR  01000004145594000414559464833                              2018030120180303Z016CIF201803030000000000086989NN0                                                  0
2MAIL0000064833BR23        BRG1        BRG1COCO    BRG1COCO13AG00000100000000001132019700000000000000100000000000000000000000002184Z01620180303X066005000
2MAIL0000064833BR23        BRG1        BRG1COCO    BRG1COCO13AG00000200000000001132019800000000000000100000000000000000000000002184Z01620180303X066005000
2MAIL0000064833BR23        BRG1        BRG1COCO    BRG1COCO13AG00000300000000001132019900000000000000100000000000000000000000002184Z01620180303X066005000
2MAIL0000064833BR23        BRG1        BRG1COCO    BRG1COCO13AG00000400000000001132020900000000000000100000000000000000000000002184Z01620180303X066005000
2MAIL0000064833BR23        BRG1        BRG1COCO    BRG1COCO13AG00000500000000001132033100000000000000200000000000000000000000003474Z01620180303X066010000
2MAIL0000064833BR23        BRG1        BRG1COCO    BRG1COCO13AG00000600000000001132036700000000000000200000000000000000000000003474Z01620180303X066010000
2MAIL0000064833BR23        BRG1        BRG1COCO    BRG1COCO13AG00000700000000001132200400000000000000200000000000000000000000003550Z01620180303X066004850
2MAIL0000064833BR23        BRG1        BRG1COCO    BRG1COCO13AG00000800000000001132400100000000000000100000000000000000000000003336Z01620180303X066005000
2MAIL0000064833BR23        BRG1        BRG1COCO    BRG1COCO13AG00000900000000001215533700000000000000200000000000000000000000003474Z01620180303X066010000
2MAIL0000064833BR23        BRG1        BRG1COCO    BRG1COCO13AG00001000000000001223975300000000000000100000000000000000000000004522Z01620180303X066005000
2MAIL0000064833BR23        BRG1        BRG1COCO    BRG1COCO13AG00001100000000001227395500000000000000100000000000000000000000001738Z01620180303X066010000
2MAIL0000064833BR23        BRG1        BRG1COCO    BRG1COCO13AG00001200000000001227735000000000000000100000000000000000000000002184Z01620180303X066005000
2MAIL0000064833BR23        BRG1        BRG1COCO    BRG1COCO13AG00001300000000001228274000000000000000100000000000000000000000004522Z01620180303X066005000
2MAIL0000064833BR23        BRG1        BRG1COCO    BRG1COCO13AG00001400000000001228512700000000000000100000000000000000000000004522Z01620180303X066005000
2MAIL0000064833BR23        BRG1        BRG1COCO    BRG1COCO13AG00001500000000001231189200000000000000100000000000000000000000004522Z01620180303X066005000
2MAIL0000064833BR23        BRG1        BRG1COCO    BRG1COCO13AG00001600000000001231231200000000000000100000000000000000000000004522Z01620180303X066005000
2MAIL0000064833BR23        BRG1        BRG1COCO    BRG1COCO13AG00001700000000001231389600000000000000100000000000000000000000001738Z01620180303X066010000
2MAIL0000064833BR23        BRG1        BRG1COCO    BRG1COCO13AG00001800000000001234705700000000000000100000000000000000000000004522Z01620180303X066005000
2MAIL0000064833BR23        BRG1        BRG1COCO    BRG1COCO13AG00001900000000001234705800000000000000100000000000000000000000004522Z01620180303X066005000
2MAIL0000064833BR23        BRG1        BRG1COCO    BRG1COCO13AG00002000000000001235699400000000000002000000000000000000000000007877Z01620180303X066000000
2MAIL0000064833BR23        BRG1        BRG1COCO    BRG1COCO13AG00002100000000001235699700000000000002000000000000000000000000007877Z01620180303X066000000
2MAIL0000064833BR23        BRG1        BRG1COCO    BRG1COCO13AG00002200000000001235699800000000000002000000000000000000000000007877Z01620180303X066000000
1MAIL0000064834BR23        BRG1        BRG1COCO    BRG1COCO13AG2018030100:00:00OR  01000002876553000287655364834                              2018030120180303Z016CIF201803030000000000049301NN0                                                  0
2MAIL0000064834BR23        BRG1        BRG1COCO    BRG1COCO13AG00000100000000001228090100000000000003000000000000000000000000022286Z01620180303X066004960
2MAIL0000064834BR23        BRG1        BRG1COCO    BRG1COCO13AG00000200000000001228100400000000000000400000000000000000000000009857Z01620180303X066010000
2MAIL0000064834BR23        BRG1        BRG1COCO    BRG1COCO13AG00000300000000001233098400000000000001400000000000000000000000005458Z01620180303X066005000
2MAIL0000064834BR23        BRG1        BRG1COCO    BRG1COCO13AG00000400000000001235699400000000000001000000000000000000000000003900Z01620180303X066005000
2MAIL0000064834BR23        BRG1        BRG1COCO    BRG1COCO13AG00000500000000001235699700000000000001000000000000000000000000003900Z01620180303X066005000
2MAIL0000064834BR23        BRG1        BRG1COCO    BRG1COCO13AG00000600000000001235699800000000000001000000000000000000000000003900Z01620180303X066005000
1MAIL0000064835BR23        BRG1        BRG1COCO    BRG1COCO13AG2018030100:00:00OR  01000004114287000411428764835                              2018030120180303Z016CIF201803030000000000070266NN0                                                  0
2MAIL0000064835BR23        BRG1        BRG1COCO    BRG1COCO13AG00000100000000001132020900000000000000100000000000000000000000002184Z01620180303X066005000
2MAIL0000064835BR23        BRG1        BRG1COCO    BRG1COCO13AG00000200000000001132033100000000000000200000000000000000000000003476Z01620180303X066010000
2MAIL0000064835BR23        BRG1        BRG1COCO    BRG1COCO13AG00000300000000001132036700000000000000200000000000000000000000003476Z01620180303X066010000
2MAIL0000064835BR23        BRG1        BRG1COCO    BRG1COCO13AG00000400000000001132213000000000000000100000000000000000000000003771Z01620180303X066004950
2MAIL0000064835BR23        BRG1        BRG1COCO    BRG1COCO13AG00000500000000001132213100000000000000100000000000000000000000003771Z01620180303X066004950
2MAIL0000064835BR23        BRG1        BRG1COCO    BRG1COCO13AG00000600000000001215533700000000000000200000000000000000000000003476Z01620180303X066010000
2MAIL0000064835BR23        BRG1        BRG1COCO    BRG1COCO13AG00000700000000001223975300000000000000100000000000000000000000004522Z01620180303X066005000
2MAIL0000064835BR23        BRG1        BRG1COCO    BRG1COCO13AG00000800000000001227395500000000000000200000000000000000000000003476Z01620180303X066010000
2MAIL0000064835BR23        BRG1        BRG1COCO    BRG1COCO13AG00000900000000001228090100000000000003000000000000000000000000021389Z01620180303X066004960
2MAIL0000064835BR23        BRG1        BRG1COCO    BRG1COCO13AG00001000000000001228100400000000000000200000000000000000000000004729Z01620180303X066010000
2MAIL0000064835BR23        BRG1        BRG1COCO    BRG1COCO13AG00001100000000001228274000000000000000100000000000000000000000004522Z01620180303X066005000
2MAIL0000064835BR23        BRG1        BRG1COCO    BRG1COCO13AG00001200000000001231189200000000000000100000000000000000000000004522Z01620180303X066005000
2MAIL0000064835BR23        BRG1        BRG1COCO    BRG1COCO13AG00001300000000001231389600000000000000200000000000000000000000003476Z01620180303X066010000
2MAIL0000064835BR23        BRG1        BRG1COCO    BRG1COCO13AG00001400000000001233695100000000000000200000000000000000000000003476Z01620180303X066010000
1MAIL0000064836BR23        BRG1        BRG1COCO    BRG1COCO13AG2018030100:00:00OR  01000005479716000547971664836                              2018030120180303Z016CIF201803030000000000042778NN0                                                  0
2MAIL0000064836BR23        BRG1        BRG1COCO    BRG1COCO13AG00000100000000001228090100000000000006000000000000000000000000042778Z01620180303X066004960
1MAIL0000064837BR23        BRG1        BRG1COCO    BRG1COCO13AG2018030100:00:00OR  01000004341444000434144464837                              2018030120180303Z016CIF201803030000000000032175NN0                                                  0
2MAIL0000064837BR23        BRG1        BRG1COCO    BRG1COCO13AG00000100000000001214448900000000000000100000000000000000000000005824Z01620180303X066018000
2MAIL0000064837BR23        BRG1        BRG1COCO    BRG1COCO13AG00000200000000001214451500000000000000500000000000000000000000026351Z01620180303X066018000
1MAIL0000064838BR23        BRG1        BRG1COCO    BRG1COCO13AG2018030100:00:00OR  01000003181489000318148964838                              2018030120180303Z016CIF201803030000000000024615NN0                                                  0
2MAIL0000064838BR23        BRG1        BRG1COCO    BRG1COCO13AG00000100000000001132036700000000000000500000000000000000000000008205Z01620180303X066015000
2MAIL0000064838BR23        BRG1        BRG1COCO    BRG1COCO13AG00000200000000001215533700000000000000500000000000000000000000008205Z01620180303X066015000
2MAIL0000064838BR23        BRG1        BRG1COCO    BRG1COCO13AG00000300000000001227395500000000000000500000000000000000000000008205Z01620180303X066015000
1MAIL0000064839BR23        BRG1        BRG1COCO    BRG1COCO13AG2018030100:00:00OR  01000003471050000347105064839                              2018030120180303ZG05CIF201803030000000000190714NN0                                                  0
2MAIL0000064839BR23        BRG1        BRG1COCO    BRG1COCO13AG00000100000000001228090100000000000030000000000000000000000000190714ZG0520180303X066004960
