1MAIL0000064088BR23        BRG1        BRG1COCO    BRG1COCO13AG2018022300:00:00OR  01000005516599000551659964088                              2018022320180223Z016CIF201802230000000000007436NN0                                                  0
2MAIL0000064088BR23        BRG1        BRG1COCO    BRG1COCO13AG00000100000000001235356200000000000000200000000000000000000000004526Z01620180223X066000000
2MAIL0000064088BR23        BRG1        BRG1COCO    BRG1COCO13AG00000200000000001235699500000000000000100000000000000000000000002910Z01620180223X066000000
1MAIL0000064089BR23        BRG1        BRG1COCO    BRG1COCO13AG2018022300:00:00OR  01000002980243000298024364089                              2018022320180223Z016CIF201802230000000000147338NN0                                                  0
2MAIL0000064089BR23        BRG1        BRG1COCO    BRG1COCO13AG00000100000000001228090100000000000015000000000000000000000000097214Z01620180223X066004960
2MAIL0000064089BR23        BRG1        BRG1COCO    BRG1COCO13AG00000200000000001233081900000000000001400000000000000000000000005013Z01620180223X066000000
2MAIL0000064089BR23        BRG1        BRG1COCO    BRG1COCO13AG00000300000000001233098400000000000005600000000000000000000000020050Z01620180223X066000000
2MAIL0000064089BR23        BRG1        BRG1COCO    BRG1COCO13AG00000400000000001233098600000000000002800000000000000000000000010024Z01620180223X066000000
2MAIL0000064089BR23        BRG1        BRG1COCO    BRG1COCO13AG00000500000000001233098800000000000002800000000000000000000000010024Z01620180223X066000000
2MAIL0000064089BR23        BRG1        BRG1COCO    BRG1COCO13AG00000600000000001233154200000000000001400000000000000000000000005013Z01620180223X066000000
1MAIL0000064090BR23        BRG1        BRG1COCO    BRG1COCO13AG2018022300:00:00OR  01000001038836000103883664090                              2018022320180223Z016CIF201802230000000000025063NN0                                                  0
2MAIL0000064090BR23        BRG1        BRG1COCO    BRG1COCO13AG00000100000000001233081900000000000001400000000000000000000000005013Z01620180223X066000000
2MAIL0000064090BR23        BRG1        BRG1COCO    BRG1COCO13AG00000200000000001233098400000000000002800000000000000000000000010024Z01620180223X066000000
2MAIL0000064090BR23        BRG1        BRG1COCO    BRG1COCO13AG00000300000000001233098600000000000001400000000000000000000000005013Z01620180223X066000000
2MAIL0000064090BR23        BRG1        BRG1COCO    BRG1COCO13AG00000400000000001233098800000000000001400000000000000000000000005013Z01620180223X066000000
1MAIL0000064091BR23        BRG1        BRG1COCO    BRG1COCO13AG2018022300:00:00OR  01000001038573000103857364091                              2018022320180223Z016CIF201802230000000000122277NN0                                                  0
2MAIL0000064091BR23        BRG1        BRG1COCO    BRG1COCO13AG00000100000000001228090100000000000015000000000000000000000000097214Z01620180223X066004960
2MAIL0000064091BR23        BRG1        BRG1COCO    BRG1COCO13AG00000200000000001233081900000000000001400000000000000000000000005013Z01620180223X066000000
2MAIL0000064091BR23        BRG1        BRG1COCO    BRG1COCO13AG00000300000000001233098400000000000002800000000000000000000000010024Z01620180223X066000000
2MAIL0000064091BR23        BRG1        BRG1COCO    BRG1COCO13AG00000400000000001233098600000000000001400000000000000000000000005013Z01620180223X066000000
2MAIL0000064091BR23        BRG1        BRG1COCO    BRG1COCO13AG00000500000000001233098800000000000001400000000000000000000000005013Z01620180223X066000000
1MAIL0000064092BR23        BRG1        BRG1COCO    BRG1COCO13AG2018022300:00:00OR  01000005180387000518038764092                              2018022320180223Z016CIF201802230000000000122277NN0                                                  0
2MAIL0000064092BR23        BRG1        BRG1COCO    BRG1COCO13AG00000100000000001228090100000000000015000000000000000000000000097214Z01620180223X066004960
2MAIL0000064092BR23        BRG1        BRG1COCO    BRG1COCO13AG00000200000000001233098400000000000002800000000000000000000000010024Z01620180223X066000000
2MAIL0000064092BR23        BRG1        BRG1COCO    BRG1COCO13AG00000300000000001233098500000000000001400000000000000000000000005013Z01620180223X066000000
2MAIL0000064092BR23        BRG1        BRG1COCO    BRG1COCO13AG00000400000000001233098600000000000001400000000000000000000000005013Z01620180223X066000000
2MAIL0000064092BR23        BRG1        BRG1COCO    BRG1COCO13AG00000500000000001233098800000000000001400000000000000000000000005013Z01620180223X066000000
1MAIL0000064093BR23        BRG1        BRG1COCO    BRG1COCO13AG2018022300:00:00OR  01000005298012000529801264093                              2018022320180223Z016CIF201802230000000000122277NN0                                                  0
2MAIL0000064093BR23        BRG1        BRG1COCO    BRG1COCO13AG00000100000000001228090100000000000015000000000000000000000000097214Z01620180223X066004960
2MAIL0000064093BR23        BRG1        BRG1COCO    BRG1COCO13AG00000200000000001233081900000000000001400000000000000000000000005013Z01620180223X066000000
2MAIL0000064093BR23        BRG1        BRG1COCO    BRG1COCO13AG00000300000000001233098400000000000002800000000000000000000000010024Z01620180223X066000000
2MAIL0000064093BR23        BRG1        BRG1COCO    BRG1COCO13AG00000400000000001233098600000000000001400000000000000000000000005013Z01620180223X066000000
2MAIL0000064093BR23        BRG1        BRG1COCO    BRG1COCO13AG00000500000000001233098800000000000001400000000000000000000000005013Z01620180223X066000000
1MAIL0000064094BR23        BRG1        BRG1COCO    BRG1COCO13AG2018022300:00:00OR  01000002916856000291685664094                              2018022320180223Z016CIF201802230000000000025063NN0                                                  0
2MAIL0000064094BR23        BRG1        BRG1COCO    BRG1COCO13AG00000100000000001233098400000000000002800000000000000000000000010024Z01620180223X066000000
2MAIL0000064094BR23        BRG1        BRG1COCO    BRG1COCO13AG00000200000000001233098600000000000001400000000000000000000000005013Z01620180223X066000000
2MAIL0000064094BR23        BRG1        BRG1COCO    BRG1COCO13AG00000300000000001233098800000000000001400000000000000000000000005013Z01620180223X066000000
2MAIL0000064094BR23        BRG1        BRG1COCO    BRG1COCO13AG00000400000000001233154200000000000001400000000000000000000000005013Z01620180223X066000000
1MAIL0000064095BR23        BRG1        BRG1COCO    BRG1COCO13AG2018022300:00:00OR  01000002980011000298001164095                              2018022320180223Z859CIF201802230000000000121227NN0                                                  0
2MAIL0000064095BR23        BRG1        BRG1COCO    BRG1COCO13AG00000100000000001235356200000000000001500000000000000000000000033941Z85920180223X066000000
2MAIL0000064095BR23        BRG1        BRG1COCO    BRG1COCO13AG00000200000000001235699500000000000001500000000000000000000000043643Z85920180223X066000000
2MAIL0000064095BR23        BRG1        BRG1COCO    BRG1COCO13AG00000300000000001235737300000000000001500000000000000000000000043643Z85920180223X066000000
1MAIL0000064096BR23        BRG1        BRG1COCO    BRG1COCO13AG2018022300:00:00OR  01000002979958000297995864096                              2018022320180223Z016CIF201802230000000000131384NN0                                                  0
2MAIL0000064096BR23        BRG1        BRG1COCO    BRG1COCO13AG00000100000000001226089600000000000001200000000000000000000000004092Z01620180223X066000000
2MAIL0000064096BR23        BRG1        BRG1COCO    BRG1COCO13AG00000200000000001228090100000000000015000000000000000000000000097214Z01620180223X066004960
2MAIL0000064096BR23        BRG1        BRG1COCO    BRG1COCO13AG00000300000000001233098400000000000001400000000000000000000000005013Z01620180223X066000000
2MAIL0000064096BR23        BRG1        BRG1COCO    BRG1COCO13AG00000400000000001233098500000000000001400000000000000000000000005013Z01620180223X066000000
2MAIL0000064096BR23        BRG1        BRG1COCO    BRG1COCO13AG00000500000000001233098800000000000001400000000000000000000000005013Z01620180223X066000000
2MAIL0000064096BR23        BRG1        BRG1COCO    BRG1COCO13AG00000600000000001233099500000000000001400000000000000000000000005013Z01620180223X066000000
2MAIL0000064096BR23        BRG1        BRG1COCO    BRG1COCO13AG00000700000000001233154200000000000001400000000000000000000000005013Z01620180223X066000000
2MAIL0000064096BR23        BRG1        BRG1COCO    BRG1COCO13AG00000800000000001234708700000000000001400000000000000000000000005013Z01620180223X066000000
1MAIL0000064097BR23        BRG1        BRG1COCO    BRG1COCO13AG2018022300:00:00OR  01000002979958000297995864097                              2018022320180223Z016CIF201802230000000000052971NN0                                                  0
2MAIL0000064097BR23        BRG1        BRG1COCO    BRG1COCO13AG00000100000000001132033100000000000000200000000000000000000000003282Z01620180223X066015000
2MAIL0000064097BR23        BRG1        BRG1COCO    BRG1COCO13AG00000200000000001132036700000000000002500000000000000000000000041035Z01620180223X066015000
2MAIL0000064097BR23        BRG1        BRG1COCO    BRG1COCO13AG00000300000000001132200400000000000000200000000000000000000000003731Z01620180223X066000000
2MAIL0000064097BR23        BRG1        BRG1COCO    BRG1COCO13AG00000400000000001215533700000000000000300000000000000000000000004923Z01620180223X066015000
1MAIL0000064098BR23        BRG1        BRG1COCO    BRG1COCO13AG2018022300:00:00OR  01000002979926000297992664098                              2018022320180223Z859CIF201802230000000000085663NN0                                                  0
2MAIL0000064098BR23        BRG1        BRG1COCO    BRG1COCO13AG00000100000000001233114700000000000000400000000000000000000000005170Z85920180223X066000000
2MAIL0000064098BR23        BRG1        BRG1COCO    BRG1COCO13AG00000200000000001235356200000000000001500000000000000000000000033941Z85920180223X066000000
2MAIL0000064098BR23        BRG1        BRG1COCO    BRG1COCO13AG00000300000000001235699500000000000000800000000000000000000000023276Z85920180223X066000000
2MAIL0000064098BR23        BRG1        BRG1COCO    BRG1COCO13AG00000400000000001235737300000000000000800000000000000000000000023276Z85920180223X066000000
