1MAIL0000066061BR23        BRG1        BRG1COCO    BRG1COCO13AG2018030800:00:00OR  01000004767551000476755166061                              2018030820180310Z016CIF201803100000000000009051NN0                                                  0
2MAIL0000066061BR23        BRG1        BRG1COCO    BRG1COCO13AG00000100000000001235356200000000000000400000000000000000000000009051Z01620180310X066000000
1MAIL0000066062BR23        BRG1        BRG1COCO    BRG1COCO13AG2018030800:00:00OR  01000002982981000298298166062                              2018030820180310Z016CIF201803100000000000048123NN0                                                  0
2MAIL0000066062BR23        BRG1        BRG1COCO    BRG1COCO13AG00000100000000001132033100000000000000200000000000000000000000003282Z01620180310X066015000
2MAIL0000066062BR23        BRG1        BRG1COCO    BRG1COCO13AG00000200000000001132036700000000000000400000000000000000000000006566Z01620180310X066015000
2MAIL0000066062BR23        BRG1        BRG1COCO    BRG1COCO13AG00000300000000001132200400000000000000100000000000000000000000001791Z01620180310X066004000
2MAIL0000066062BR23        BRG1        BRG1COCO    BRG1COCO13AG00000400000000001215533700000000000000200000000000000000000000003282Z01620180310X066015000
2MAIL0000066062BR23        BRG1        BRG1COCO    BRG1COCO13AG00000500000000001227395500000000000000200000000000000000000000003282Z01620180310X066015000
2MAIL0000066062BR23        BRG1        BRG1COCO    BRG1COCO13AG00000600000000001228090100000000000000500000000000000000000000003240Z01620180310X066004960
2MAIL0000066062BR23        BRG1        BRG1COCO    BRG1COCO13AG00000700000000001233081900000000000001400000000000000000000000004675Z01620180310X066006750
2MAIL0000066062BR23        BRG1        BRG1COCO    BRG1COCO13AG00000800000000001233098400000000000001400000000000000000000000004675Z01620180310X066006750
2MAIL0000066062BR23        BRG1        BRG1COCO    BRG1COCO13AG00000900000000001233098500000000000001400000000000000000000000004675Z01620180310X066006750
2MAIL0000066062BR23        BRG1        BRG1COCO    BRG1COCO13AG00001000000000001233098600000000000001400000000000000000000000004675Z01620180310X066006750
2MAIL0000066062BR23        BRG1        BRG1COCO    BRG1COCO13AG00001100000000001236512900000000000002500000000000000000000000003990Z01620180310X066005000
2MAIL0000066062BR23        BRG1        BRG1COCO    BRG1COCO13AG00001200000000001236515000000000000002500000000000000000000000003990Z01620180310X066005000
