1MAIL0000065466BR23        BRG1        BRG1COCO    BRG1COCO13AG2018030700:00:00OR  01000004872357000487235765466                              2018030720180310Z859CIF201803100000000000220756NN0                                                  0
2MAIL0000065466BR23        BRG1        BRG1COCO    BRG1COCO13AG00000100000000001233114700000000000004000000000000000000000000048762Z85920180310X066000000
2MAIL0000065466BR23        BRG1        BRG1COCO    BRG1COCO13AG00000200000000001235356200000000000006000000000000000000000000128079Z85920180310X066000000
2MAIL0000065466BR23        BRG1        BRG1COCO    BRG1COCO13AG00000300000000001235737300000000000001600000000000000000000000043915Z85920180310X066000000
1MAIL0000065467BR23        BRG1        BRG1COCO    BRG1COCO13AG2018030700:00:00OR  01000003425256000342525665467                              2018030720180310Z859CIF201803100000000000057217NN0                                                  0
2MAIL0000065467BR23        BRG1        BRG1COCO    BRG1COCO13AG00000100000000001235356200000000000001500000000000000000000000033941Z85920180310X066000000
2MAIL0000065467BR23        BRG1        BRG1COCO    BRG1COCO13AG00000200000000001235737300000000000000800000000000000000000000023276Z85920180310X066000000
1MAIL0000065468BR23        BRG1        BRG1COCO    BRG1COCO13AG2018030700:00:00OR  01000003425256000342525665468                              2018030720180310Z016CIF201803100000000000072918NN0                                                  0
2MAIL0000065468BR23        BRG1        BRG1COCO    BRG1COCO13AG00000100000000001132030800000000000000600000000000000000000000018669Z01620180310X066018000
2MAIL0000065468BR23        BRG1        BRG1COCO    BRG1COCO13AG00000200000000001132036700000000000000200000000000000000000000003282Z01620180310X066015000
2MAIL0000065468BR23        BRG1        BRG1COCO    BRG1COCO13AG00000300000000001228090100000000000003000000000000000000000000021389Z01620180310X066004960
2MAIL0000065468BR23        BRG1        BRG1COCO    BRG1COCO13AG00000400000000001233081900000000000001400000000000000000000000004962Z01620180310X066010000
2MAIL0000065468BR23        BRG1        BRG1COCO    BRG1COCO13AG00000500000000001233098400000000000002800000000000000000000000009926Z01620180310X066010000
2MAIL0000065468BR23        BRG1        BRG1COCO    BRG1COCO13AG00000600000000001233098500000000000001400000000000000000000000004962Z01620180310X066010000
2MAIL0000065468BR23        BRG1        BRG1COCO    BRG1COCO13AG00000700000000001233098800000000000001400000000000000000000000004962Z01620180310X066010000
2MAIL0000065468BR23        BRG1        BRG1COCO    BRG1COCO13AG00000800000000001233154200000000000001400000000000000000000000004766Z01620180310X066013560
1MAIL0000065469BR23        BRG1        BRG1COCO    BRG1COCO13AG2018030700:00:00OR  01000001150125000115012565469                              2018030720180310Z016CIF201803100000000000060879NN0                                                  0
2MAIL0000065469BR23        BRG1        BRG1COCO    BRG1COCO13AG00000100000000001132019800000000000000300000000000000000000000006553Z01620180310X066005000
2MAIL0000065469BR23        BRG1        BRG1COCO    BRG1COCO13AG00000200000000001132019900000000000000300000000000000000000000006553Z01620180310X066005000
2MAIL0000065469BR23        BRG1        BRG1COCO    BRG1COCO13AG00000300000000001132033100000000000000500000000000000000000000008205Z01620180310X066015000
2MAIL0000065469BR23        BRG1        BRG1COCO    BRG1COCO13AG00000400000000001132036700000000000001000000000000000000000000016409Z01620180310X066015000
2MAIL0000065469BR23        BRG1        BRG1COCO    BRG1COCO13AG00000500000000001132400100000000000000200000000000000000000000006672Z01620180310X066005000
2MAIL0000065469BR23        BRG1        BRG1COCO    BRG1COCO13AG00000600000000001227735000000000000000300000000000000000000000006553Z01620180310X066005000
2MAIL0000065469BR23        BRG1        BRG1COCO    BRG1COCO13AG00000700000000001233154200000000000002800000000000000000000000009934Z01620180310X066009920
1MAIL0000065470BR23        BRG1        BRG1COCO    BRG1COCO13AG2018030700:00:00OR  01000002927218000292721865470                              2018030720180310Z016CIF201803100000000000004526NN0                                                  0
2MAIL0000065470BR23        BRG1        BRG1COCO    BRG1COCO13AG00000100000000001235356200000000000000200000000000000000000000004526Z01620180310X066000000
1MAIL0000065471BR23        BRG1        BRG1COCO    BRG1COCO13AG2018030700:00:00OR  01000002927218000292721865471                              2018030720180310Z016CIF201803100000000000020614NN0                                                  0
2MAIL0000065471BR23        BRG1        BRG1COCO    BRG1COCO13AG00000100000000001132200400000000000000200000000000000000000000003550Z01620180310X066004850
2MAIL0000065471BR23        BRG1        BRG1COCO    BRG1COCO13AG00000200000000001228090100000000000001000000000000000000000000007130Z01620180310X066004960
2MAIL0000065471BR23        BRG1        BRG1COCO    BRG1COCO13AG00000300000000001233098400000000000001400000000000000000000000004967Z01620180310X066009920
2MAIL0000065471BR23        BRG1        BRG1COCO    BRG1COCO13AG00000400000000001233099500000000000001400000000000000000000000004967Z01620180310X066009920
1MAIL0000065472BR23        BRG1        BRG1COCO    BRG1COCO13AG2018030700:00:00OR  01000005412945000541294565472                              2018030720180310Z016CIF201803100000000000005696NN0                                                  0
2MAIL0000065472BR23        BRG1        BRG1COCO    BRG1COCO13AG00000100000000001132020900000000000000100000000000000000000000002276Z01620180310X066005000
2MAIL0000065472BR23        BRG1        BRG1COCO    BRG1COCO13AG00000200000000001132036700000000000000100000000000000000000000001710Z01620180310X066015000
2MAIL0000065472BR23        BRG1        BRG1COCO    BRG1COCO13AG00000300000000001215533700000000000000100000000000000000000000001710Z01620180310X066015000
1MAIL0000065473BR23        BRG1        BRG1COCO    BRG1COCO13AG2018030700:00:00OR  01000002922733000292273365473                              2018030720180310Z016CIF201803100000000000010656NN0                                                  0
2MAIL0000065473BR23        BRG1        BRG1COCO    BRG1COCO13AG00000100000000001132020900000000000000100000000000000000000000002184Z01620180310X066005000
2MAIL0000065473BR23        BRG1        BRG1COCO    BRG1COCO13AG00000200000000001132036700000000000000200000000000000000000000003281Z01620180310X066015000
2MAIL0000065473BR23        BRG1        BRG1COCO    BRG1COCO13AG00000300000000001132200400000000000000200000000000000000000000003550Z01620180310X066004850
2MAIL0000065473BR23        BRG1        BRG1COCO    BRG1COCO13AG00000400000000001215533700000000000000100000000000000000000000001641Z01620180310X066015000
1MAIL0000065474BR23        BRG1        BRG1COCO    BRG1COCO13AG2018030700:00:00OR  01000004347298000434729865474                              2018030720180310Z016CIF201803100000000000020278NN0                                                  0
2MAIL0000065474BR23        BRG1        BRG1COCO    BRG1COCO13AG00000100000000001132020900000000000000100000000000000000000000002184Z01620180310X066005000
2MAIL0000065474BR23        BRG1        BRG1COCO    BRG1COCO13AG00000200000000001132033100000000000000200000000000000000000000003281Z01620180310X066015000
2MAIL0000065474BR23        BRG1        BRG1COCO    BRG1COCO13AG00000300000000001132036700000000000000400000000000000000000000006565Z01620180310X066015000
2MAIL0000065474BR23        BRG1        BRG1COCO    BRG1COCO13AG00000400000000001215533700000000000000200000000000000000000000003281Z01620180310X066015000
2MAIL0000065474BR23        BRG1        BRG1COCO    BRG1COCO13AG00000500000000001233098400000000000001400000000000000000000000004967Z01620180310X066009920
1MAIL0000065475BR23        BRG1        BRG1COCO    BRG1COCO13AG2018030700:00:00OR  01000004984856000498485665475                              2018030720180310Z016CIF201803100000000000111367NN0                                                  0
2MAIL0000065475BR23        BRG1        BRG1COCO    BRG1COCO13AG00000100000000001228090100000000000015000000000000000000000000111367Z01620180310X066004960
1MAIL0000065476BR23        BRG1        BRG1COCO    BRG1COCO13AG2018030700:00:00OR  01000004005989000400598965476                              2018030720180310Z016CIF201803100000000000004967NN0                                                  0
2MAIL0000065476BR23        BRG1        BRG1COCO    BRG1COCO13AG00000100000000001233154200000000000001400000000000000000000000004967Z01620180310X066013560
1MAIL0000065477BR23        BRG1        BRG1COCO    BRG1COCO13AG2018030700:00:00OR  01000003184644000318464465477                              2018030720180310Z016CIF201803100000000000029261NN0                                                  0
2MAIL0000065477BR23        BRG1        BRG1COCO    BRG1COCO13AG00000100000000001132033100000000000000100000000000000000000000001710Z01620180310X066015000
2MAIL0000065477BR23        BRG1        BRG1COCO    BRG1COCO13AG00000200000000001132036700000000000000100000000000000000000000001710Z01620180310X066015000
2MAIL0000065477BR23        BRG1        BRG1COCO    BRG1COCO13AG00000300000000001132213000000000000000100000000000000000000000003929Z01620180310X066004950
2MAIL0000065477BR23        BRG1        BRG1COCO    BRG1COCO13AG00000400000000001132213100000000000000100000000000000000000000003929Z01620180310X066004950
2MAIL0000065477BR23        BRG1        BRG1COCO    BRG1COCO13AG00000500000000001215533700000000000000100000000000000000000000001710Z01620180310X066015000
2MAIL0000065477BR23        BRG1        BRG1COCO    BRG1COCO13AG00000600000000001226089600000000000001200000000000000000000000004221Z01620180310X066010000
2MAIL0000065477BR23        BRG1        BRG1COCO    BRG1COCO13AG00000700000000001227395500000000000000100000000000000000000000001710Z01620180310X066015000
2MAIL0000065477BR23        BRG1        BRG1COCO    BRG1COCO13AG00000800000000001233098400000000000001400000000000000000000000005171Z01620180310X066010000
2MAIL0000065477BR23        BRG1        BRG1COCO    BRG1COCO13AG00000900000000001234708700000000000001400000000000000000000000005171Z01620180310X066010000
1MAIL0000065478BR23        BRG1        BRG1COCO    BRG1COCO13AG2018030700:00:00OR  01000003469526000346952665478                              2018030720180310Z016CIF201803100000000000092605NN0                                                  0
2MAIL0000065478BR23        BRG1        BRG1COCO    BRG1COCO13AG00000100000000001132033100000000000000200000000000000000000000003320Z01620180310X066000000
2MAIL0000065478BR23        BRG1        BRG1COCO    BRG1COCO13AG00000200000000001132036700000000000000200000000000000000000000003320Z01620180310X066000000
2MAIL0000065478BR23        BRG1        BRG1COCO    BRG1COCO13AG00000300000000001132400100000000000000100000000000000000000000003020Z01620180310X066000000
2MAIL0000065478BR23        BRG1        BRG1COCO    BRG1COCO13AG00000400000000001215533700000000000000200000000000000000000000003320Z01620180310X066000000
2MAIL0000065478BR23        BRG1        BRG1COCO    BRG1COCO13AG00000500000000001224882700000000000000100000000000000000000000002455Z01620180310X066005000
2MAIL0000065478BR23        BRG1        BRG1COCO    BRG1COCO13AG00000600000000001227395500000000000000200000000000000000000000003320Z01620180310X066000000
2MAIL0000065478BR23        BRG1        BRG1COCO    BRG1COCO13AG00000700000000001228090100000000000003000000000000000000000000019433Z01620180310X066000000
2MAIL0000065478BR23        BRG1        BRG1COCO    BRG1COCO13AG00000800000000001228100400000000000001000000000000000000000000019209Z01620180310X066015000
2MAIL0000065478BR23        BRG1        BRG1COCO    BRG1COCO13AG00000900000000001231389600000000000000200000000000000000000000003320Z01620180310X066000000
2MAIL0000065478BR23        BRG1        BRG1COCO    BRG1COCO13AG00001000000000001233098400000000000002800000000000000000000000009522Z01620180310X066000000
2MAIL0000065478BR23        BRG1        BRG1COCO    BRG1COCO13AG00001100000000001233098500000000000001400000000000000000000000004762Z01620180310X066000000
2MAIL0000065478BR23        BRG1        BRG1COCO    BRG1COCO13AG00001200000000001233098800000000000001400000000000000000000000004762Z01620180310X066000000
2MAIL0000065478BR23        BRG1        BRG1COCO    BRG1COCO13AG00001300000000001233154200000000000002800000000000000000000000009522Z01620180310X066000000
2MAIL0000065478BR23        BRG1        BRG1COCO    BRG1COCO13AG00001400000000001233695100000000000000200000000000000000000000003320Z01620180310X066000000
1MAIL0000065479BR23        BRG1        BRG1COCO    BRG1COCO13AG2018030700:00:00OR  01000002878270000287827065479                              2018030720180310Z016CIF201803100000000000012930NN0                                                  0
2MAIL0000065479BR23        BRG1        BRG1COCO    BRG1COCO13AG00000100000000001233114700000000000000200000000000000000000000002585Z01620180310X066000000
2MAIL0000065479BR23        BRG1        BRG1COCO    BRG1COCO13AG00000200000000001235356200000000000000200000000000000000000000004526Z01620180310X066000000
2MAIL0000065479BR23        BRG1        BRG1COCO    BRG1COCO13AG00000300000000001235737300000000000000200000000000000000000000005819Z01620180310X066000000
1MAIL0000065480BR23        BRG1        BRG1COCO    BRG1COCO13AG2018030700:00:00OR  01000000923202000092320265480                              2018030720180310Z016CIF201803100000000000177779NN0                                                  0
2MAIL0000065480BR23        BRG1        BRG1COCO    BRG1COCO13AG00000100000000001132213000000000000000400000000000000000000000013847Z01620180310X066004000
2MAIL0000065480BR23        BRG1        BRG1COCO    BRG1COCO13AG00000200000000001132213100000000000000200000000000000000000000006924Z01620180310X066004000
2MAIL0000065480BR23        BRG1        BRG1COCO    BRG1COCO13AG00000300000000001223975300000000000000400000000000000000000000017312Z01620180310X066000000
2MAIL0000065480BR23        BRG1        BRG1COCO    BRG1COCO13AG00000400000000001228100400000000000001000000000000000000000000022072Z01620180310X066016000
2MAIL0000065480BR23        BRG1        BRG1COCO    BRG1COCO13AG00000500000000001228274000000000000000400000000000000000000000017312Z01620180310X066000000
2MAIL0000065480BR23        BRG1        BRG1COCO    BRG1COCO13AG00000600000000001228512700000000000000400000000000000000000000017312Z01620180310X066000000
2MAIL0000065480BR23        BRG1        BRG1COCO    BRG1COCO13AG00000700000000001231189200000000000000400000000000000000000000017312Z01620180310X066000000
2MAIL0000065480BR23        BRG1        BRG1COCO    BRG1COCO13AG00000800000000001231231200000000000000400000000000000000000000017312Z01620180310X066000000
2MAIL0000065480BR23        BRG1        BRG1COCO    BRG1COCO13AG00000900000000001233426800000000000004000000000000000000000000013752Z01620180310X066004000
2MAIL0000065480BR23        BRG1        BRG1COCO    BRG1COCO13AG00001000000000001234705700000000000000400000000000000000000000017312Z01620180310X066000000
2MAIL0000065480BR23        BRG1        BRG1COCO    BRG1COCO13AG00001100000000001234705800000000000000400000000000000000000000017312Z01620180310X066000000
1MAIL0000065481BR23        BRG1        BRG1COCO    BRG1COCO13AG2018030700:00:00OR  01000002984067000298406765481                              2018030720180310Z016CIF201803100000000000030208NN0                                                  0
2MAIL0000065481BR23        BRG1        BRG1COCO    BRG1COCO13AG00000100000000001132019700000000000000200000000000000000000000004553Z01620180310X066005000
2MAIL0000065481BR23        BRG1        BRG1COCO    BRG1COCO13AG00000200000000001132019800000000000000200000000000000000000000004553Z01620180310X066005000
2MAIL0000065481BR23        BRG1        BRG1COCO    BRG1COCO13AG00000300000000001132019900000000000000200000000000000000000000004553Z01620180310X066005000
2MAIL0000065481BR23        BRG1        BRG1COCO    BRG1COCO13AG00000400000000001132020900000000000000200000000000000000000000004553Z01620180310X066005000
2MAIL0000065481BR23        BRG1        BRG1COCO    BRG1COCO13AG00000500000000001132200400000000000000200000000000000000000000003771Z01620180310X066003000
2MAIL0000065481BR23        BRG1        BRG1COCO    BRG1COCO13AG00000600000000001215533700000000000000200000000000000000000000003621Z01620180310X066010000
2MAIL0000065481BR23        BRG1        BRG1COCO    BRG1COCO13AG00000700000000001227735000000000000000100000000000000000000000002276Z01620180310X066005000
2MAIL0000065481BR23        BRG1        BRG1COCO    BRG1COCO13AG00000800000000001228100400000000000000100000000000000000000000002328Z01620180310X066015000
1MAIL0000065482BR23        BRG1        BRG1COCO    BRG1COCO13AG2018030700:00:00OR  01000002937376000293737665482                              2018030720180310Z016CIF201803100000000000223417NN0                                                  0
2MAIL0000065482BR23        BRG1        BRG1COCO    BRG1COCO13AG00000100000000001228090100000000000030000000000000000000000000194469Z01620180310X066004940
2MAIL0000065482BR23        BRG1        BRG1COCO    BRG1COCO13AG00000200000000001228100400000000000001000000000000000000000000022072Z01620180310X066016000
2MAIL0000065482BR23        BRG1        BRG1COCO    BRG1COCO13AG00000300000000001233426800000000000002000000000000000000000000006876Z01620180310X066004000
1MAIL0000065483BR23        BRG1        BRG1COCO    BRG1COCO13AG2018030700:00:00OR  01000003469719000346971965483                              2018030720180310Z016CIF201803100000000000070245NN0                                                  0
2MAIL0000065483BR23        BRG1        BRG1COCO    BRG1COCO13AG00000100000000001132033100000000000000300000000000000000000000005130Z01620180310X066015000
2MAIL0000065483BR23        BRG1        BRG1COCO    BRG1COCO13AG00000200000000001132036700000000000000500000000000000000000000008550Z01620180310X066015000
2MAIL0000065483BR23        BRG1        BRG1COCO    BRG1COCO13AG00000300000000001132200400000000000000300000000000000000000000005599Z01620180310X066004000
2MAIL0000065483BR23        BRG1        BRG1COCO    BRG1COCO13AG00000400000000001215533700000000000000500000000000000000000000008550Z01620180310X066015000
2MAIL0000065483BR23        BRG1        BRG1COCO    BRG1COCO13AG00000500000000001223975300000000000000300000000000000000000000014138Z01620180310X066005000
2MAIL0000065483BR23        BRG1        BRG1COCO    BRG1COCO13AG00000600000000001228274000000000000000200000000000000000000000009426Z01620180310X066005000
2MAIL0000065483BR23        BRG1        BRG1COCO    BRG1COCO13AG00000700000000001231189200000000000000200000000000000000000000009426Z01620180310X066005000
2MAIL0000065483BR23        BRG1        BRG1COCO    BRG1COCO13AG00000800000000001231231200000000000000200000000000000000000000009426Z01620180310X066005000
1MAIL0000065484BR23        BRG1        BRG1COCO    BRG1COCO13AG2018030700:00:00OR  01000005235620000523562065484                              2018030720180310Z016CIF201803100000000000583288NN0                                                  0
2MAIL0000065484BR23        BRG1        BRG1COCO    BRG1COCO13AG00000100000000001228090100000000000090000000000000000000000000583288Z01620180310X066004960
1MAIL0000065485BR23        BRG1        BRG1COCO    BRG1COCO13AG2018030700:00:00OR  01000000937745000093774565485                              2018030720180310Z016CIF201803100000000000583288NN0                                                  0
2MAIL0000065485BR23        BRG1        BRG1COCO    BRG1COCO13AG00000100000000001228090100000000000090000000000000000000000000583288Z01620180310X066004960
1MAIL0000065486BR23        BRG1        BRG1COCO    BRG1COCO13AG2018030700:00:00OR  01000005010674000501067465486                              2018030720180310Z016CIF201803100000000000046135NN0                                                  0
2MAIL0000065486BR23        BRG1        BRG1COCO    BRG1COCO13AG00000100000000001132019800000000000000100000000000000000000000002184Z01620180310X066005000
2MAIL0000065486BR23        BRG1        BRG1COCO    BRG1COCO13AG00000200000000001132020900000000000000100000000000000000000000002184Z01620180310X066005000
2MAIL0000065486BR23        BRG1        BRG1COCO    BRG1COCO13AG00000300000000001132033100000000000000300000000000000000000000004923Z01620180310X066015000
2MAIL0000065486BR23        BRG1        BRG1COCO    BRG1COCO13AG00000400000000001132034900000000000000500000000000000000000000007707Z01620180310X066015000
2MAIL0000065486BR23        BRG1        BRG1COCO    BRG1COCO13AG00000500000000001132036700000000000000600000000000000000000000009846Z01620180310X066015000
2MAIL0000065486BR23        BRG1        BRG1COCO    BRG1COCO13AG00000600000000001215533700000000000000300000000000000000000000004923Z01620180310X066015000
2MAIL0000065486BR23        BRG1        BRG1COCO    BRG1COCO13AG00000700000000001227395500000000000000300000000000000000000000004923Z01620180310X066015000
2MAIL0000065486BR23        BRG1        BRG1COCO    BRG1COCO13AG00000800000000001228274000000000000000100000000000000000000000004522Z01620180310X066005000
2MAIL0000065486BR23        BRG1        BRG1COCO    BRG1COCO13AG00000900000000001231389600000000000000300000000000000000000000004923Z01620180310X066015000
1MAIL0000065487BR23        BRG1        BRG1COCO    BRG1COCO13AG2018030700:00:00OR  01000005030301000503030165487                              2018030720180310Z016CIF201803100000000000005029NN0                                                  0
2MAIL0000065487BR23        BRG1        BRG1COCO    BRG1COCO13AG00000100000000001233695100000000000000200000000000000000000000003281Z01620180310X066015000
2MAIL0000065487BR23        BRG1        BRG1COCO    BRG1COCO13AG00000200000000001236512800000000000001000000000000000000000000001748Z01620180310X066000000
1MAIL0000065488BR23        BRG1        BRG1COCO    BRG1COCO13AG2018030700:00:00OR  01000004984856000498485665488                              2018030720180310Z016CIF201803100000000000105202NN0                                                  0
2MAIL0000065488BR23        BRG1        BRG1COCO    BRG1COCO13AG00000100000000001132018300000000000000100000000000000000000000004636Z01620180310X066015000
2MAIL0000065488BR23        BRG1        BRG1COCO    BRG1COCO13AG00000200000000001132019700000000000000100000000000000000000000002275Z01620180310X066005000
2MAIL0000065488BR23        BRG1        BRG1COCO    BRG1COCO13AG00000300000000001132019800000000000000100000000000000000000000002275Z01620180310X066005000
2MAIL0000065488BR23        BRG1        BRG1COCO    BRG1COCO13AG00000400000000001132019900000000000000100000000000000000000000002275Z01620180310X066005000
2MAIL0000065488BR23        BRG1        BRG1COCO    BRG1COCO13AG00000500000000001132030800000000000000200000000000000000000000006084Z01620180310X066015000
2MAIL0000065488BR23        BRG1        BRG1COCO    BRG1COCO13AG00000600000000001132033100000000000000200000000000000000000000003420Z01620180310X066015000
2MAIL0000065488BR23        BRG1        BRG1COCO    BRG1COCO13AG00000700000000001132033900000000000000200000000000000000000000006674Z01620180310X066015000
2MAIL0000065488BR23        BRG1        BRG1COCO    BRG1COCO13AG00000800000000001132036700000000000000300000000000000000000000005129Z01620180310X066015000
2MAIL0000065488BR23        BRG1        BRG1COCO    BRG1COCO13AG00000900000000001132213000000000000000200000000000000000000000007856Z01620180310X066004950
2MAIL0000065488BR23        BRG1        BRG1COCO    BRG1COCO13AG00001000000000001132213100000000000000100000000000000000000000003928Z01620180310X066004950
2MAIL0000065488BR23        BRG1        BRG1COCO    BRG1COCO13AG00001100000000001215533700000000000000300000000000000000000000005129Z01620180310X066015000
2MAIL0000065488BR23        BRG1        BRG1COCO    BRG1COCO13AG00001200000000001221415400000000000000100000000000000000000000004636Z01620180310X066015000
2MAIL0000065488BR23        BRG1        BRG1COCO    BRG1COCO13AG00001300000000001223975300000000000000100000000000000000000000004713Z01620180310X066005000
2MAIL0000065488BR23        BRG1        BRG1COCO    BRG1COCO13AG00001400000000001227395500000000000000200000000000000000000000003420Z01620180310X066015000
2MAIL0000065488BR23        BRG1        BRG1COCO    BRG1COCO13AG00001500000000001228100400000000000000600000000000000000000000013939Z01620180310X066015000
2MAIL0000065488BR23        BRG1        BRG1COCO    BRG1COCO13AG00001600000000001231189200000000000000100000000000000000000000004713Z01620180310X066005000
2MAIL0000065488BR23        BRG1        BRG1COCO    BRG1COCO13AG00001700000000001231389600000000000000100000000000000000000000001710Z01620180310X066015000
2MAIL0000065488BR23        BRG1        BRG1COCO    BRG1COCO13AG00001800000000001233098400000000000001400000000000000000000000005170Z01620180310X066010000
2MAIL0000065488BR23        BRG1        BRG1COCO    BRG1COCO13AG00001900000000001233098500000000000001400000000000000000000000005170Z01620180310X066010000
2MAIL0000065488BR23        BRG1        BRG1COCO    BRG1COCO13AG00002000000000001233154200000000000001400000000000000000000000005170Z01620180310X066010000
2MAIL0000065488BR23        BRG1        BRG1COCO    BRG1COCO13AG00002100000000001233695100000000000000100000000000000000000000001710Z01620180310X066015000
2MAIL0000065488BR23        BRG1        BRG1COCO    BRG1COCO13AG00002200000000001234708700000000000001400000000000000000000000005170Z01620180310X066010000
1MAIL0000065489BR23        BRG1        BRG1COCO    BRG1COCO13AG2018030700:00:00OR  01000002876031000287603165489                              2018030720180310Z016CIF201803100000000000351233NN0                                                  0
2MAIL0000065489BR23        BRG1        BRG1COCO    BRG1COCO13AG00000100000000001132019800000000000000100000000000000000000000002184Z01620180310X066005000
2MAIL0000065489BR23        BRG1        BRG1COCO    BRG1COCO13AG00000200000000001132030800000000000000400000000000000000000000012446Z01620180310X066018000
2MAIL0000065489BR23        BRG1        BRG1COCO    BRG1COCO13AG00000300000000001132030900000000000000400000000000000000000000012831Z01620180310X066018000
2MAIL0000065489BR23        BRG1        BRG1COCO    BRG1COCO13AG00000400000000001132036700000000000001000000000000000000000000016414Z01620180310X066015000
2MAIL0000065489BR23        BRG1        BRG1COCO    BRG1COCO13AG00000500000000001132200400000000000000500000000000000000000000008877Z01620180310X066004850
2MAIL0000065489BR23        BRG1        BRG1COCO    BRG1COCO13AG00000600000000001132213000000000000000200000000000000000000000006855Z01620180310X066004950
2MAIL0000065489BR23        BRG1        BRG1COCO    BRG1COCO13AG00000700000000001132213100000000000000400000000000000000000000013711Z01620180310X066004950
2MAIL0000065489BR23        BRG1        BRG1COCO    BRG1COCO13AG00000800000000001132400100000000000000100000000000000000000000003336Z01620180310X066005000
2MAIL0000065489BR23        BRG1        BRG1COCO    BRG1COCO13AG00000900000000001215533700000000000001000000000000000000000000016414Z01620180310X066015000
2MAIL0000065489BR23        BRG1        BRG1COCO    BRG1COCO13AG00001000000000001221415400000000000000200000000000000000000000007197Z01620180310X066025000
2MAIL0000065489BR23        BRG1        BRG1COCO    BRG1COCO13AG00001100000000001223975300000000000000100000000000000000000000004112Z01620180310X066005000
2MAIL0000065489BR23        BRG1        BRG1COCO    BRG1COCO13AG00001200000000001227395500000000000000600000000000000000000000009849Z01620180310X066015000
2MAIL0000065489BR23        BRG1        BRG1COCO    BRG1COCO13AG00001300000000001228090100000000000021000000000000000000000000136100Z01620180310X066004960
2MAIL0000065489BR23        BRG1        BRG1COCO    BRG1COCO13AG00001400000000001228100400000000000003000000000000000000000000064639Z01620180310X066018000
2MAIL0000065489BR23        BRG1        BRG1COCO    BRG1COCO13AG00001500000000001231231200000000000000200000000000000000000000008224Z01620180310X066005000
2MAIL0000065489BR23        BRG1        BRG1COCO    BRG1COCO13AG00001600000000001233098500000000000002800000000000000000000000009348Z01620180310X066006750
2MAIL0000065489BR23        BRG1        BRG1COCO    BRG1COCO13AG00001700000000001233098800000000000002800000000000000000000000009348Z01620180310X066006750
2MAIL0000065489BR23        BRG1        BRG1COCO    BRG1COCO13AG00001800000000001233099500000000000002800000000000000000000000009348Z01620180310X066006750
1MAIL0000065490BR23        BRG1        BRG1COCO    BRG1COCO13AG2018030700:00:00OR  01000005431731000543173165490                              2018030720180310Z016CIF201803100000000000032932NN0                                                  0
2MAIL0000065490BR23        BRG1        BRG1COCO    BRG1COCO13AG00000100000000001132033100000000000000100000000000000000000000001641Z01620180310X066015000
2MAIL0000065490BR23        BRG1        BRG1COCO    BRG1COCO13AG00000200000000001132036700000000000000100000000000000000000000001641Z01620180310X066015000
2MAIL0000065490BR23        BRG1        BRG1COCO    BRG1COCO13AG00000300000000001226089600000000000001200000000000000000000000004055Z01620180310X066009920
2MAIL0000065490BR23        BRG1        BRG1COCO    BRG1COCO13AG00000400000000001228090100000000000001500000000000000000000000010694Z01620180310X066004960
2MAIL0000065490BR23        BRG1        BRG1COCO    BRG1COCO13AG00000500000000001233081900000000000001400000000000000000000000004967Z01620180310X066009920
2MAIL0000065490BR23        BRG1        BRG1COCO    BRG1COCO13AG00000600000000001233098400000000000001400000000000000000000000004967Z01620180310X066009920
2MAIL0000065490BR23        BRG1        BRG1COCO    BRG1COCO13AG00000700000000001233154200000000000001400000000000000000000000004967Z01620180310X066009920
1MAIL0000065491BR23        BRG1        BRG1COCO    BRG1COCO13AG2018030700:00:00OR  01000003756481000375648165491                              2018030720180310Z016CIF201803100000000000097214NN0                                                  0
2MAIL0000065491BR23        BRG1        BRG1COCO    BRG1COCO13AG00000100000000001228090100000000000015000000000000000000000000097214Z01620180310X066004960
1MAIL0000065492BR23        BRG1        BRG1COCO    BRG1COCO13AG2018030700:00:00OR  01000005363491000536349165492                              2018030720180310Z016CIF201803100000000000044975NN0                                                  0
2MAIL0000065492BR23        BRG1        BRG1COCO    BRG1COCO13AG00000100000000001132033100000000000000100000000000000000000000001641Z01620180310X066015000
2MAIL0000065492BR23        BRG1        BRG1COCO    BRG1COCO13AG00000200000000001132036700000000000000100000000000000000000000001641Z01620180310X066015000
2MAIL0000065492BR23        BRG1        BRG1COCO    BRG1COCO13AG00000300000000001132200400000000000000200000000000000000000000003550Z01620180310X066004850
2MAIL0000065492BR23        BRG1        BRG1COCO    BRG1COCO13AG00000400000000001228090100000000000003000000000000000000000000019443Z01620180310X066004960
2MAIL0000065492BR23        BRG1        BRG1COCO    BRG1COCO13AG00000500000000001233081900000000000001400000000000000000000000004675Z01620180310X066006750
2MAIL0000065492BR23        BRG1        BRG1COCO    BRG1COCO13AG00000600000000001233098400000000000001400000000000000000000000004675Z01620180310X066006750
2MAIL0000065492BR23        BRG1        BRG1COCO    BRG1COCO13AG00000700000000001233098500000000000001400000000000000000000000004675Z01620180310X066006750
2MAIL0000065492BR23        BRG1        BRG1COCO    BRG1COCO13AG00000800000000001233154200000000000001400000000000000000000000004675Z01620180310X066006750
1MAIL0000065493BR23        BRG1        BRG1COCO    BRG1COCO13AG2018030700:00:00OR  01000005433653000543365365493                              2018030720180310Z846CIF201803100000000000004700NN0                                                  0
2MAIL0000065493BR23        BRG1        BRG1COCO    BRG1COCO13AG00000100000000001235356200000000000000200000000000000000000000004700Z84620180310X066000000
1MAIL0000065494BR23        BRG1        BRG1COCO    BRG1COCO13AG2018030700:00:00OR  01000005433653000543365365494                              2018030720180310Z016CIF201803100000000000014111NN0                                                  0
2MAIL0000065494BR23        BRG1        BRG1COCO    BRG1COCO13AG00000100000000001132036700000000000000100000000000000000000000001710Z01620180310X066015000
2MAIL0000065494BR23        BRG1        BRG1COCO    BRG1COCO13AG00000200000000001223975300000000000000100000000000000000000000004713Z01620180310X066005000
2MAIL0000065494BR23        BRG1        BRG1COCO    BRG1COCO13AG00000300000000001224882700000000000000100000000000000000000000002975Z01620180310X066005000
2MAIL0000065494BR23        BRG1        BRG1COCO    BRG1COCO13AG00000400000000001234705800000000000000100000000000000000000000004713Z01620180310X066005000
1MAIL0000065495BR23        BRG1        BRG1COCO    BRG1COCO13AG2018030700:00:00OR  01000004127680000412768065495                              2018030720180310Z016CIF201803100000000000109910NN0                                                  0
2MAIL0000065495BR23        BRG1        BRG1COCO    BRG1COCO13AG00000100000000001132018300000000000000100000000000000000000000003598Z01620180310X066025000
2MAIL0000065495BR23        BRG1        BRG1COCO    BRG1COCO13AG00000200000000001132033100000000000000200000000000000000000000003281Z01620180310X066015000
2MAIL0000065495BR23        BRG1        BRG1COCO    BRG1COCO13AG00000300000000001132213000000000000000100000000000000000000000003771Z01620180310X066004950
2MAIL0000065495BR23        BRG1        BRG1COCO    BRG1COCO13AG00000400000000001132213100000000000000100000000000000000000000003771Z01620180310X066004950
2MAIL0000065495BR23        BRG1        BRG1COCO    BRG1COCO13AG00000500000000001215533700000000000000200000000000000000000000003281Z01620180310X066015000
2MAIL0000065495BR23        BRG1        BRG1COCO    BRG1COCO13AG00000600000000001223975300000000000000100000000000000000000000004522Z01620180310X066005000
2MAIL0000065495BR23        BRG1        BRG1COCO    BRG1COCO13AG00000700000000001228090100000000000003000000000000000000000000021389Z01620180310X066004960
2MAIL0000065495BR23        BRG1        BRG1COCO    BRG1COCO13AG00000800000000001231189200000000000000100000000000000000000000004522Z01620180310X066005000
2MAIL0000065495BR23        BRG1        BRG1COCO    BRG1COCO13AG00000900000000001233081900000000000001400000000000000000000000004967Z01620180310X066009920
2MAIL0000065495BR23        BRG1        BRG1COCO    BRG1COCO13AG00001000000000001233098400000000000001400000000000000000000000004967Z01620180310X066009920
2MAIL0000065495BR23        BRG1        BRG1COCO    BRG1COCO13AG00001100000000001233098600000000000001400000000000000000000000004967Z01620180310X066009920
2MAIL0000065495BR23        BRG1        BRG1COCO    BRG1COCO13AG00001200000000001233098800000000000001400000000000000000000000004967Z01620180310X066009920
2MAIL0000065495BR23        BRG1        BRG1COCO    BRG1COCO13AG00001300000000001233099500000000000001400000000000000000000000004967Z01620180310X066009920
2MAIL0000065495BR23        BRG1        BRG1COCO    BRG1COCO13AG00001400000000001233154200000000000001400000000000000000000000004967Z01620180310X066009920
2MAIL0000065495BR23        BRG1        BRG1COCO    BRG1COCO13AG00001500000000001234705700000000000000100000000000000000000000004522Z01620180310X066005000
2MAIL0000065495BR23        BRG1        BRG1COCO    BRG1COCO13AG00001600000000001234705800000000000000100000000000000000000000004522Z01620180310X066005000
2MAIL0000065495BR23        BRG1        BRG1COCO    BRG1COCO13AG00001700000000001234708700000000000001400000000000000000000000004967Z01620180310X066009920
2MAIL0000065495BR23        BRG1        BRG1COCO    BRG1COCO13AG00001800000000001235699400000000000001000000000000000000000000003702Z01620180310X066006000
2MAIL0000065495BR23        BRG1        BRG1COCO    BRG1COCO13AG00001900000000001235699700000000000001000000000000000000000000003702Z01620180310X066006000
2MAIL0000065495BR23        BRG1        BRG1COCO    BRG1COCO13AG00002000000000001235699800000000000001000000000000000000000000003702Z01620180310X066006000
2MAIL0000065495BR23        BRG1        BRG1COCO    BRG1COCO13AG00002100000000001236512800000000000001000000000000000000000000001748Z01620180310X066000000
2MAIL0000065495BR23        BRG1        BRG1COCO    BRG1COCO13AG00002200000000001236512900000000000001000000000000000000000000001680Z01620180310X066000000
2MAIL0000065495BR23        BRG1        BRG1COCO    BRG1COCO13AG00002300000000001236514100000000000001000000000000000000000000001748Z01620180310X066000000
2MAIL0000065495BR23        BRG1        BRG1COCO    BRG1COCO13AG00002400000000001236515000000000000001000000000000000000000000001680Z01620180310X066000000
1MAIL0000065496BR23        BRG1        BRG1COCO    BRG1COCO13AG2018030700:00:00OR  01000005094017000509401765496                              2018030720180310Z016CIF201803100000000000055917NN0                                                  0
2MAIL0000065496BR23        BRG1        BRG1COCO    BRG1COCO13AG00000100000000001132033100000000000000100000000000000000000000001710Z01620180310X066015000
2MAIL0000065496BR23        BRG1        BRG1COCO    BRG1COCO13AG00000200000000001132036700000000000000200000000000000000000000003420Z01620180310X066015000
2MAIL0000065496BR23        BRG1        BRG1COCO    BRG1COCO13AG00000300000000001132213000000000000000100000000000000000000000003929Z01620180310X066004950
2MAIL0000065496BR23        BRG1        BRG1COCO    BRG1COCO13AG00000400000000001132213100000000000000100000000000000000000000003929Z01620180310X066004950
2MAIL0000065496BR23        BRG1        BRG1COCO    BRG1COCO13AG00000500000000001215533700000000000000100000000000000000000000001710Z01620180310X066015000
2MAIL0000065496BR23        BRG1        BRG1COCO    BRG1COCO13AG00000600000000001227395500000000000000100000000000000000000000001710Z01620180310X066015000
2MAIL0000065496BR23        BRG1        BRG1COCO    BRG1COCO13AG00000700000000001228090100000000000003000000000000000000000000022286Z01620180310X066004960
2MAIL0000065496BR23        BRG1        BRG1COCO    BRG1COCO13AG00000800000000001231389600000000000000100000000000000000000000001710Z01620180310X066015000
2MAIL0000065496BR23        BRG1        BRG1COCO    BRG1COCO13AG00000900000000001233081900000000000001400000000000000000000000005171Z01620180310X066010000
2MAIL0000065496BR23        BRG1        BRG1COCO    BRG1COCO13AG00001000000000001233098400000000000001400000000000000000000000005171Z01620180310X066010000
2MAIL0000065496BR23        BRG1        BRG1COCO    BRG1COCO13AG00001100000000001233154200000000000001400000000000000000000000005171Z01620180310X066010000
1MAIL0000065497BR23        BRG1        BRG1COCO    BRG1COCO13AG2018030700:00:00OR  01000001302497000130249765497                              2018030720180310Z016CIF201803100000000000446847NN0                                                  0
2MAIL0000065497BR23        BRG1        BRG1COCO    BRG1COCO13AG00000100000000001132004000000000000002000000000000000000000000014967Z01620180310X066005000
2MAIL0000065497BR23        BRG1        BRG1COCO    BRG1COCO13AG00000200000000001132019700000000000000200000000000000000000000004369Z01620180310X066005000
2MAIL0000065497BR23        BRG1        BRG1COCO    BRG1COCO13AG00000300000000001132019800000000000000200000000000000000000000004369Z01620180310X066005000
2MAIL0000065497BR23        BRG1        BRG1COCO    BRG1COCO13AG00000400000000001132019900000000000000200000000000000000000000004369Z01620180310X066005000
2MAIL0000065497BR23        BRG1        BRG1COCO    BRG1COCO13AG00000500000000001132020900000000000000200000000000000000000000004369Z01620180310X066005000
2MAIL0000065497BR23        BRG1        BRG1COCO    BRG1COCO13AG00000600000000001132030800000000000001200000000000000000000000037338Z01620180310X066018000
2MAIL0000065497BR23        BRG1        BRG1COCO    BRG1COCO13AG00000700000000001132030900000000000000600000000000000000000000019245Z01620180310X066018000
2MAIL0000065497BR23        BRG1        BRG1COCO    BRG1COCO13AG00000800000000001132033100000000000000500000000000000000000000008208Z01620180310X066015000
2MAIL0000065497BR23        BRG1        BRG1COCO    BRG1COCO13AG00000900000000001132033900000000000000600000000000000000000000020477Z01620180310X066018000
2MAIL0000065497BR23        BRG1        BRG1COCO    BRG1COCO13AG00001000000000001132034900000000000000500000000000000000000000007006Z01620180310X066015000
2MAIL0000065497BR23        BRG1        BRG1COCO    BRG1COCO13AG00001100000000001132035000000000000000500000000000000000000000007779Z01620180310X066015000
2MAIL0000065497BR23        BRG1        BRG1COCO    BRG1COCO13AG00001200000000001132035100000000000000500000000000000000000000007392Z01620180310X066015000
2MAIL0000065497BR23        BRG1        BRG1COCO    BRG1COCO13AG00001300000000001132036700000000000000800000000000000000000000013131Z01620180310X066015000
2MAIL0000065497BR23        BRG1        BRG1COCO    BRG1COCO13AG00001400000000001132400100000000000000200000000000000000000000006672Z01620180310X066005000
2MAIL0000065497BR23        BRG1        BRG1COCO    BRG1COCO13AG00001500000000001215533700000000000000300000000000000000000000004923Z01620180310X066015000
2MAIL0000065497BR23        BRG1        BRG1COCO    BRG1COCO13AG00001600000000001223975300000000000000200000000000000000000000008224Z01620180310X066005000
2MAIL0000065497BR23        BRG1        BRG1COCO    BRG1COCO13AG00001700000000001227735000000000000000200000000000000000000000004369Z01620180310X066005000
2MAIL0000065497BR23        BRG1        BRG1COCO    BRG1COCO13AG00001800000000001228090100000000000030000000000000000000000000194429Z01620180310X066004960
2MAIL0000065497BR23        BRG1        BRG1COCO    BRG1COCO13AG00001900000000001228512700000000000000200000000000000000000000008224Z01620180310X066005000
2MAIL0000065497BR23        BRG1        BRG1COCO    BRG1COCO13AG00002000000000001231189200000000000000200000000000000000000000008224Z01620180310X066005000
2MAIL0000065497BR23        BRG1        BRG1COCO    BRG1COCO13AG00002100000000001231231200000000000000200000000000000000000000008224Z01620180310X066005000
2MAIL0000065497BR23        BRG1        BRG1COCO    BRG1COCO13AG00002200000000001233098500000000000005600000000000000000000000018696Z01620180310X066006750
2MAIL0000065497BR23        BRG1        BRG1COCO    BRG1COCO13AG00002300000000001233098800000000000005600000000000000000000000018696Z01620180310X066006750
2MAIL0000065497BR23        BRG1        BRG1COCO    BRG1COCO13AG00002400000000001233695100000000000000300000000000000000000000004923Z01620180310X066015000
2MAIL0000065497BR23        BRG1        BRG1COCO    BRG1COCO13AG00002500000000001234705700000000000000100000000000000000000000004112Z01620180310X066005000
2MAIL0000065497BR23        BRG1        BRG1COCO    BRG1COCO13AG00002600000000001234705800000000000000100000000000000000000000004112Z01620180310X066005000
1MAIL0000065498BR23        BRG1        BRG1COCO    BRG1COCO13AG2018030700:00:00OR  01000005039902000503990265498                              2018030720180310Z016CIF201803100000000000343298NN0                                                  0
2MAIL0000065498BR23        BRG1        BRG1COCO    BRG1COCO13AG00000100000000001132004000000000000002000000000000000000000000014967Z01620180310X066005000
2MAIL0000065498BR23        BRG1        BRG1COCO    BRG1COCO13AG00000200000000001132004200000000000002000000000000000000000000022743Z01620180310X066005000
2MAIL0000065498BR23        BRG1        BRG1COCO    BRG1COCO13AG00000300000000001132030800000000000000600000000000000000000000018669Z01620180310X066018000
2MAIL0000065498BR23        BRG1        BRG1COCO    BRG1COCO13AG00000400000000001132030900000000000000600000000000000000000000019245Z01620180310X066018000
2MAIL0000065498BR23        BRG1        BRG1COCO    BRG1COCO13AG00000500000000001132034900000000000000500000000000000000000000007006Z01620180310X066015000
2MAIL0000065498BR23        BRG1        BRG1COCO    BRG1COCO13AG00000600000000001132035000000000000000500000000000000000000000007779Z01620180310X066015000
2MAIL0000065498BR23        BRG1        BRG1COCO    BRG1COCO13AG00000700000000001132035100000000000000500000000000000000000000007392Z01620180310X066015000
2MAIL0000065498BR23        BRG1        BRG1COCO    BRG1COCO13AG00000800000000001226089600000000000003600000000000000000000000011446Z01620180310X066006750
2MAIL0000065498BR23        BRG1        BRG1COCO    BRG1COCO13AG00000900000000001228090100000000000001000000000000000000000000006481Z01620180310X066004960
2MAIL0000065498BR23        BRG1        BRG1COCO    BRG1COCO13AG00001000000000001228100400000000000005000000000000000000000000107732Z01620180310X066018000
2MAIL0000065498BR23        BRG1        BRG1COCO    BRG1COCO13AG00001100000000001228274000000000000000100000000000000000000000004112Z01620180310X066005000
2MAIL0000065498BR23        BRG1        BRG1COCO    BRG1COCO13AG00001200000000001231189200000000000000200000000000000000000000008224Z01620180310X066005000
2MAIL0000065498BR23        BRG1        BRG1COCO    BRG1COCO13AG00001300000000001233081900000000000005600000000000000000000000018696Z01620180310X066006750
2MAIL0000065498BR23        BRG1        BRG1COCO    BRG1COCO13AG00001400000000001233098400000000000005600000000000000000000000018696Z01620180310X066006750
2MAIL0000065498BR23        BRG1        BRG1COCO    BRG1COCO13AG00001500000000001233098500000000000004200000000000000000000000014022Z01620180310X066006750
2MAIL0000065498BR23        BRG1        BRG1COCO    BRG1COCO13AG00001600000000001233098800000000000004200000000000000000000000014022Z01620180310X066006750
2MAIL0000065498BR23        BRG1        BRG1COCO    BRG1COCO13AG00001700000000001233099500000000000004200000000000000000000000014022Z01620180310X066006750
2MAIL0000065498BR23        BRG1        BRG1COCO    BRG1COCO13AG00001800000000001233154200000000000002800000000000000000000000009348Z01620180310X066006750
2MAIL0000065498BR23        BRG1        BRG1COCO    BRG1COCO13AG00001900000000001234708700000000000005600000000000000000000000018696Z01620180310X066006750
1MAIL0000065499BR23        BRG1        BRG1COCO    BRG1COCO13AG2018030700:00:00OR  01000005511224000551122465499                              2018030720180310Z016CIF201803100000000000018022NN0                                                  0
2MAIL0000065499BR23        BRG1        BRG1COCO    BRG1COCO13AG00000100000000001132030800000000000000200000000000000000000000005925Z01620180310X066018000
2MAIL0000065499BR23        BRG1        BRG1COCO    BRG1COCO13AG00000200000000001228090100000000000001000000000000000000000000007130Z01620180310X066004960
2MAIL0000065499BR23        BRG1        BRG1COCO    BRG1COCO13AG00000300000000001233098500000000000001400000000000000000000000004967Z01620180310X066009920
1MAIL0000065500BR23        BRG1        BRG1COCO    BRG1COCO13AG2018030700:00:00OR  01000005511224000551122465500                              2018030720180310Z859CIF201803100000000000005495NN0                                                  0
2MAIL0000065500BR23        BRG1        BRG1COCO    BRG1COCO13AG00000100000000001233114700000000000000200000000000000000000000002585Z85920180310X066000000
2MAIL0000065500BR23        BRG1        BRG1COCO    BRG1COCO13AG00000200000000001235737300000000000000100000000000000000000000002910Z85920180310X066000000
1MAIL0000065501BR23        BRG1        BRG1COCO    BRG1COCO13AG2018030700:00:00OR  01000003778827000377882765501                              2018030720180310Z859CIF201803100000000000009694NN0                                                  0
2MAIL0000065501BR23        BRG1        BRG1COCO    BRG1COCO13AG00000100000000001233114700000000000000300000000000000000000000003878Z85920180310X066000000
2MAIL0000065501BR23        BRG1        BRG1COCO    BRG1COCO13AG00000200000000001235562300000000000000100000000000000000000000005816Z85920180310X066000000
1MAIL0000065502BR23        BRG1        BRG1COCO    BRG1COCO13AG2018030700:00:00OR  01000003778827000377882765502                              2018030720180310Z016CIF201803100000000000006832NN0                                                  0
2MAIL0000065502BR23        BRG1        BRG1COCO    BRG1COCO13AG00000100000000001132036700000000000000100000000000000000000000001641Z01620180310X066015000
2MAIL0000065502BR23        BRG1        BRG1COCO    BRG1COCO13AG00000200000000001132200400000000000000200000000000000000000000003550Z01620180310X066004850
2MAIL0000065502BR23        BRG1        BRG1COCO    BRG1COCO13AG00000300000000001215533700000000000000100000000000000000000000001641Z01620180310X066015000
1MAIL0000065503BR23        BRG1        BRG1COCO    BRG1COCO13AG2018030700:00:00OR  01000004574587000457458765503                              2018030720180310Z859CIF201803100000000000004526NN0                                                  0
2MAIL0000065503BR23        BRG1        BRG1COCO    BRG1COCO13AG00000100000000001235356200000000000000200000000000000000000000004526Z85920180310X066000000
1MAIL0000065504BR23        BRG1        BRG1COCO    BRG1COCO13AG2018030700:00:00OR  01000005474991000547499165504                              2018030720180310Z859CIF201803100000000000004526NN0                                                  0
2MAIL0000065504BR23        BRG1        BRG1COCO    BRG1COCO13AG00000100000000001235356200000000000000200000000000000000000000004526Z85920180310X066000000
1MAIL0000065505BR23        BRG1        BRG1COCO    BRG1COCO13AG2018030700:00:00OR  01000002916169000291616965505                              2018030720180310Z859CIF201803100000000000004526NN0                                                  0
2MAIL0000065505BR23        BRG1        BRG1COCO    BRG1COCO13AG00000100000000001235356200000000000000200000000000000000000000004526Z85920180310X066000000
1MAIL0000065506BR23        BRG1        BRG1COCO    BRG1COCO13AG2018030700:00:00OR  01000005200195000520019565506                              2018030720180310Z859CIF201803100000000000004526NN0                                                  0
2MAIL0000065506BR23        BRG1        BRG1COCO    BRG1COCO13AG00000100000000001235356200000000000000200000000000000000000000004526Z85920180310X066000000
1MAIL0000065507BR23        BRG1        BRG1COCO    BRG1COCO13AG2018030700:00:00OR  01000004205042000420504265507                              2018030720180310Z859CIF201803100000000000004526NN0                                                  0
2MAIL0000065507BR23        BRG1        BRG1COCO    BRG1COCO13AG00000100000000001235356200000000000000200000000000000000000000004526Z85920180310X066000000
1MAIL0000065508BR23        BRG1        BRG1COCO    BRG1COCO13AG2018030700:00:00OR  01000002900015000290001565508                              2018030720180310Z859CIF201803100000000000004526NN0                                                  0
2MAIL0000065508BR23        BRG1        BRG1COCO    BRG1COCO13AG00000100000000001235356200000000000000200000000000000000000000004526Z85920180310X066000000
1MAIL0000065509BR23        BRG1        BRG1COCO    BRG1COCO13AG2018030700:00:00OR  01000005532407000553240765509                              2018030720180310Z016CIF201803100000000000133555NN0                                                  0
2MAIL0000065509BR23        BRG1        BRG1COCO    BRG1COCO13AG00000100000000001132004000000000000000500000000000000000000000003742Z01620180310X066005000
2MAIL0000065509BR23        BRG1        BRG1COCO    BRG1COCO13AG00000200000000001132030800000000000000600000000000000000000000018669Z01620180310X066018000
2MAIL0000065509BR23        BRG1        BRG1COCO    BRG1COCO13AG00000300000000001132030900000000000000600000000000000000000000019245Z01620180310X066018000
2MAIL0000065509BR23        BRG1        BRG1COCO    BRG1COCO13AG00000400000000001132033900000000000000600000000000000000000000020477Z01620180310X066018000
2MAIL0000065509BR23        BRG1        BRG1COCO    BRG1COCO13AG00000500000000001132036700000000000000400000000000000000000000006798Z01620180310X066012000
2MAIL0000065509BR23        BRG1        BRG1COCO    BRG1COCO13AG00000600000000001132213000000000000000200000000000000000000000007212Z01620180310X066000000
2MAIL0000065509BR23        BRG1        BRG1COCO    BRG1COCO13AG00000700000000001231189200000000000000200000000000000000000000008656Z01620180310X066000000
2MAIL0000065509BR23        BRG1        BRG1COCO    BRG1COCO13AG00000800000000001231231200000000000000200000000000000000000000008656Z01620180310X066000000
2MAIL0000065509BR23        BRG1        BRG1COCO    BRG1COCO13AG00000900000000001233081900000000000001400000000000000000000000005013Z01620180310X066000000
2MAIL0000065509BR23        BRG1        BRG1COCO    BRG1COCO13AG00001000000000001233098400000000000002800000000000000000000000010024Z01620180310X066000000
2MAIL0000065509BR23        BRG1        BRG1COCO    BRG1COCO13AG00001100000000001233098500000000000001400000000000000000000000005013Z01620180310X066000000
2MAIL0000065509BR23        BRG1        BRG1COCO    BRG1COCO13AG00001200000000001233098600000000000002800000000000000000000000010024Z01620180310X066000000
2MAIL0000065509BR23        BRG1        BRG1COCO    BRG1COCO13AG00001300000000001233098800000000000001400000000000000000000000005013Z01620180310X066000000
2MAIL0000065509BR23        BRG1        BRG1COCO    BRG1COCO13AG00001400000000001233099500000000000001400000000000000000000000005013Z01620180310X066000000
1MAIL0000065510BR23        BRG1        BRG1COCO    BRG1COCO13AG2018030700:00:00OR  01000004309514000430951465510                              2018030720180310Z016CIF201803100000000000007130NN0                                                  0
2MAIL0000065510BR23        BRG1        BRG1COCO    BRG1COCO13AG00000100000000001132033100000000000000100000000000000000000000001738Z01620180310X066010000
2MAIL0000065510BR23        BRG1        BRG1COCO    BRG1COCO13AG00000200000000001132036700000000000000200000000000000000000000003476Z01620180310X066010000
2MAIL0000065510BR23        BRG1        BRG1COCO    BRG1COCO13AG00000300000000001236512900000000000000600000000000000000000000000958Z01620180310X066005000
2MAIL0000065510BR23        BRG1        BRG1COCO    BRG1COCO13AG00000400000000001236515000000000000000600000000000000000000000000958Z01620180310X066005000
1MAIL0000065511BR23        BRG1        BRG1COCO    BRG1COCO13AG2018030700:00:00OR  01000004309514000430951465511                              2018030720180310Z859CIF201803100000000000004526NN0                                                  0
2MAIL0000065511BR23        BRG1        BRG1COCO    BRG1COCO13AG00000100000000001235356200000000000000200000000000000000000000004526Z85920180310X066000000
1MAIL0000065512BR23        BRG1        BRG1COCO    BRG1COCO13AG2018030700:00:00OR  01000002980025000298002565512                              2018030720180310Z016CIF201803100000000000008170NN0                                                  0
2MAIL0000065512BR23        BRG1        BRG1COCO    BRG1COCO13AG00000100000000001132036700000000000000100000000000000000000000001810Z01620180310X066010000
2MAIL0000065512BR23        BRG1        BRG1COCO    BRG1COCO13AG00000200000000001227395500000000000000100000000000000000000000001810Z01620180310X066010000
2MAIL0000065512BR23        BRG1        BRG1COCO    BRG1COCO13AG00000300000000001236512900000000000001500000000000000000000000002394Z01620180310X066005000
2MAIL0000065512BR23        BRG1        BRG1COCO    BRG1COCO13AG00000400000000001236528200000000000000500000000000000000000000002156Z01620180310X066000000
1MAIL0000065513BR23        BRG1        BRG1COCO    BRG1COCO13AG2018030700:00:00OR  01000002979934000297993465513                              2018030720180310Z016CIF201803100000000000032041NN0                                                  0
2MAIL0000065513BR23        BRG1        BRG1COCO    BRG1COCO13AG00000100000000001132033100000000000000100000000000000000000000001738Z01620180310X066010000
2MAIL0000065513BR23        BRG1        BRG1COCO    BRG1COCO13AG00000200000000001132036700000000000000200000000000000000000000003474Z01620180310X066010000
2MAIL0000065513BR23        BRG1        BRG1COCO    BRG1COCO13AG00000300000000001215533700000000000000100000000000000000000000001738Z01620180310X066010000
2MAIL0000065513BR23        BRG1        BRG1COCO    BRG1COCO13AG00000400000000001228090100000000000003000000000000000000000000021389Z01620180310X066004960
2MAIL0000065513BR23        BRG1        BRG1COCO    BRG1COCO13AG00000500000000001235699800000000000001000000000000000000000000003702Z01620180310X066006000
1MAIL0000065514BR23        BRG1        BRG1COCO    BRG1COCO13AG2018030700:00:00OR  01000003234581000323458165514                              2018030720180310Z016CIF201803100000000000086163NN0                                                  0
2MAIL0000065514BR23        BRG1        BRG1COCO    BRG1COCO13AG00000100000000001132004000000000000000500000000000000000000000004115Z01620180310X066005000
2MAIL0000065514BR23        BRG1        BRG1COCO    BRG1COCO13AG00000200000000001132033100000000000000200000000000000000000000003541Z01620180310X066012000
2MAIL0000065514BR23        BRG1        BRG1COCO    BRG1COCO13AG00000300000000001132036700000000000000200000000000000000000000003541Z01620180310X066012000
2MAIL0000065514BR23        BRG1        BRG1COCO    BRG1COCO13AG00000400000000001132200400000000000000200000000000000000000000003701Z01620180310X066004800
2MAIL0000065514BR23        BRG1        BRG1COCO    BRG1COCO13AG00000500000000001215533700000000000000200000000000000000000000003541Z01620180310X066012000
2MAIL0000065514BR23        BRG1        BRG1COCO    BRG1COCO13AG00000600000000001223975300000000000000100000000000000000000000004713Z01620180310X066005000
2MAIL0000065514BR23        BRG1        BRG1COCO    BRG1COCO13AG00000700000000001226089600000000000001200000000000000000000000004502Z01620180310X066004000
2MAIL0000065514BR23        BRG1        BRG1COCO    BRG1COCO13AG00000800000000001228100400000000000000500000000000000000000000011227Z01620180310X066018000
2MAIL0000065514BR23        BRG1        BRG1COCO    BRG1COCO13AG00000900000000001228274000000000000000100000000000000000000000004713Z01620180310X066005000
2MAIL0000065514BR23        BRG1        BRG1COCO    BRG1COCO13AG00001000000000001228512700000000000000100000000000000000000000004713Z01620180310X066005000
2MAIL0000065514BR23        BRG1        BRG1COCO    BRG1COCO13AG00001100000000001231231200000000000000100000000000000000000000004713Z01620180310X066005000
2MAIL0000065514BR23        BRG1        BRG1COCO    BRG1COCO13AG00001200000000001233081900000000000001400000000000000000000000005343Z01620180310X066007000
2MAIL0000065514BR23        BRG1        BRG1COCO    BRG1COCO13AG00001300000000001233098500000000000001400000000000000000000000005343Z01620180310X066007000
2MAIL0000065514BR23        BRG1        BRG1COCO    BRG1COCO13AG00001400000000001233098600000000000001400000000000000000000000005343Z01620180310X066007000
2MAIL0000065514BR23        BRG1        BRG1COCO    BRG1COCO13AG00001500000000001234705700000000000000100000000000000000000000004713Z01620180310X066005000
2MAIL0000065514BR23        BRG1        BRG1COCO    BRG1COCO13AG00001600000000001234705800000000000000100000000000000000000000004713Z01620180310X066005000
2MAIL0000065514BR23        BRG1        BRG1COCO    BRG1COCO13AG00001700000000001235699800000000000001000000000000000000000000003858Z01620180310X066006000
2MAIL0000065514BR23        BRG1        BRG1COCO    BRG1COCO13AG00001800000000001236512900000000000001200000000000000000000000001915Z01620180310X066005000
2MAIL0000065514BR23        BRG1        BRG1COCO    BRG1COCO13AG00001900000000001236515000000000000001200000000000000000000000001915Z01620180310X066005000
1MAIL0000065515BR23        BRG1        BRG1COCO    BRG1COCO13AG2018030700:00:00OR  01000005356218000535621865515                              2018030720180310Z016CIF201803100000000000013552NN0                                                  0
2MAIL0000065515BR23        BRG1        BRG1COCO    BRG1COCO13AG00000100000000001132033100000000000000100000000000000000000000001897Z01620180310X066000000
2MAIL0000065515BR23        BRG1        BRG1COCO    BRG1COCO13AG00000200000000001132036700000000000000100000000000000000000000001897Z01620180310X066000000
2MAIL0000065515BR23        BRG1        BRG1COCO    BRG1COCO13AG00000300000000001235356200000000000000200000000000000000000000004269Z01620180310X066000000
2MAIL0000065515BR23        BRG1        BRG1COCO    BRG1COCO13AG00000400000000001235737300000000000000200000000000000000000000005489Z01620180310X066000000
1MAIL0000065516BR23        BRG1        BRG1COCO    BRG1COCO13AG2018030700:00:00OR  01000004178778000417877865516                              2018030720180310Z016CIF201803100000000000037338NN0                                                  0
2MAIL0000065516BR23        BRG1        BRG1COCO    BRG1COCO13AG00000100000000001132030800000000000001200000000000000000000000037338Z01620180310X066018000
1MAIL0000065517BR23        BRG1        BRG1COCO    BRG1COCO13AG2018030700:00:00OR  01000003476293000347629365517                              2018030720180310Z016CIF201803100000000000021389NN0                                                  0
2MAIL0000065517BR23        BRG1        BRG1COCO    BRG1COCO13AG00000100000000001228090100000000000003000000000000000000000000021389Z01620180310X066004960
1MAIL0000065518BR23        BRG1        BRG1COCO    BRG1COCO13AG2018030700:00:00OR  01000002899770000289977065518                              2018030720180310Z016CIF201803100000000000051702NN0                                                  0
2MAIL0000065518BR23        BRG1        BRG1COCO    BRG1COCO13AG00000100000000001233114700000000000004000000000000000000000000051702Z01620180310X066000000
1MAIL0000065519BR23        BRG1        BRG1COCO    BRG1COCO13AG2018030700:00:00OR  01000003476300000347630065519                              2018030720180310Z016CIF201803100000000000079868NN0                                                  0
2MAIL0000065519BR23        BRG1        BRG1COCO    BRG1COCO13AG00000100000000001132036700000000000000500000000000000000000000008208Z01620180310X066015000
2MAIL0000065519BR23        BRG1        BRG1COCO    BRG1COCO13AG00000200000000001132200400000000000000500000000000000000000000008877Z01620180310X066004850
2MAIL0000065519BR23        BRG1        BRG1COCO    BRG1COCO13AG00000300000000001228090100000000000003000000000000000000000000021389Z01620180310X066004960
2MAIL0000065519BR23        BRG1        BRG1COCO    BRG1COCO13AG00000400000000001228100400000000000001000000000000000000000000021546Z01620180310X066018000
2MAIL0000065519BR23        BRG1        BRG1COCO    BRG1COCO13AG00000500000000001233098400000000000001400000000000000000000000004962Z01620180310X066010000
2MAIL0000065519BR23        BRG1        BRG1COCO    BRG1COCO13AG00000600000000001233098600000000000001400000000000000000000000004962Z01620180310X066010000
2MAIL0000065519BR23        BRG1        BRG1COCO    BRG1COCO13AG00000700000000001233098800000000000001400000000000000000000000004962Z01620180310X066010000
2MAIL0000065519BR23        BRG1        BRG1COCO    BRG1COCO13AG00000800000000001233154200000000000001400000000000000000000000004962Z01620180310X066010000
1MAIL0000065520BR23        BRG1        BRG1COCO    BRG1COCO13AG2018030700:00:00OR  01000002899770000289977065520                              2018030720180310Z016CIF201803100000000000082821NN0                                                  0
2MAIL0000065520BR23        BRG1        BRG1COCO    BRG1COCO13AG00000100000000001132019700000000000000100000000000000000000000002184Z01620180310X066005000
2MAIL0000065520BR23        BRG1        BRG1COCO    BRG1COCO13AG00000200000000001132020900000000000000100000000000000000000000002184Z01620180310X066005000
2MAIL0000065520BR23        BRG1        BRG1COCO    BRG1COCO13AG00000300000000001132033100000000000000300000000000000000000000004923Z01620180310X066015000
2MAIL0000065520BR23        BRG1        BRG1COCO    BRG1COCO13AG00000400000000001132036700000000000000500000000000000000000000008208Z01620180310X066015000
2MAIL0000065520BR23        BRG1        BRG1COCO    BRG1COCO13AG00000500000000001132213000000000000000200000000000000000000000007541Z01620180310X066004950
2MAIL0000065520BR23        BRG1        BRG1COCO    BRG1COCO13AG00000600000000001132213100000000000000200000000000000000000000007541Z01620180310X066004950
2MAIL0000065520BR23        BRG1        BRG1COCO    BRG1COCO13AG00000700000000001215533700000000000000500000000000000000000000008208Z01620180310X066015000
2MAIL0000065520BR23        BRG1        BRG1COCO    BRG1COCO13AG00000800000000001226089600000000000001200000000000000000000000004051Z01620180310X066010000
2MAIL0000065520BR23        BRG1        BRG1COCO    BRG1COCO13AG00000900000000001227395500000000000000300000000000000000000000004923Z01620180310X066015000
2MAIL0000065520BR23        BRG1        BRG1COCO    BRG1COCO13AG00001000000000001233098400000000000002800000000000000000000000009926Z01620180310X066010000
2MAIL0000065520BR23        BRG1        BRG1COCO    BRG1COCO13AG00001100000000001233098600000000000002800000000000000000000000009926Z01620180310X066010000
2MAIL0000065520BR23        BRG1        BRG1COCO    BRG1COCO13AG00001200000000001233098800000000000001400000000000000000000000004962Z01620180310X066010000
2MAIL0000065520BR23        BRG1        BRG1COCO    BRG1COCO13AG00001300000000001233099500000000000001400000000000000000000000004962Z01620180310X066010000
2MAIL0000065520BR23        BRG1        BRG1COCO    BRG1COCO13AG00001400000000001233695100000000000000200000000000000000000000003282Z01620180310X066015000
1MAIL0000065521BR23        BRG1        BRG1COCO    BRG1COCO13AG2018030700:00:00OR  01000000938152000093815265521                              2018030720180310Z016CIF201803100000000000180752NN0                                                  0
2MAIL0000065521BR23        BRG1        BRG1COCO    BRG1COCO13AG00000100000000001132034900000000000002000000000000000000000000028025Z01620180310X066015000
2MAIL0000065521BR23        BRG1        BRG1COCO    BRG1COCO13AG00000200000000001132035000000000000001000000000000000000000000015561Z01620180310X066015000
2MAIL0000065521BR23        BRG1        BRG1COCO    BRG1COCO13AG00000300000000001132035100000000000001000000000000000000000000014784Z01620180310X066015000
2MAIL0000065521BR23        BRG1        BRG1COCO    BRG1COCO13AG00000400000000001132213000000000000000400000000000000000000000013711Z01620180310X066004950
2MAIL0000065521BR23        BRG1        BRG1COCO    BRG1COCO13AG00000500000000001132213100000000000000400000000000000000000000013711Z01620180310X066004950
2MAIL0000065521BR23        BRG1        BRG1COCO    BRG1COCO13AG00000600000000001223975300000000000000200000000000000000000000008224Z01620180310X066005000
2MAIL0000065521BR23        BRG1        BRG1COCO    BRG1COCO13AG00000700000000001228274000000000000000200000000000000000000000008224Z01620180310X066005000
2MAIL0000065521BR23        BRG1        BRG1COCO    BRG1COCO13AG00000800000000001228512700000000000000200000000000000000000000008224Z01620180310X066005000
2MAIL0000065521BR23        BRG1        BRG1COCO    BRG1COCO13AG00000900000000001231189200000000000000200000000000000000000000008224Z01620180310X066005000
2MAIL0000065521BR23        BRG1        BRG1COCO    BRG1COCO13AG00001000000000001231231200000000000000200000000000000000000000008224Z01620180310X066005000
2MAIL0000065521BR23        BRG1        BRG1COCO    BRG1COCO13AG00001100000000001233081900000000000002800000000000000000000000009348Z01620180310X066006750
2MAIL0000065521BR23        BRG1        BRG1COCO    BRG1COCO13AG00001200000000001233098400000000000002800000000000000000000000009348Z01620180310X066006750
2MAIL0000065521BR23        BRG1        BRG1COCO    BRG1COCO13AG00001300000000001233098800000000000002800000000000000000000000009348Z01620180310X066006750
2MAIL0000065521BR23        BRG1        BRG1COCO    BRG1COCO13AG00001400000000001233154200000000000002800000000000000000000000009348Z01620180310X066006750
2MAIL0000065521BR23        BRG1        BRG1COCO    BRG1COCO13AG00001500000000001234705700000000000000200000000000000000000000008224Z01620180310X066005000
2MAIL0000065521BR23        BRG1        BRG1COCO    BRG1COCO13AG00001600000000001234705800000000000000200000000000000000000000008224Z01620180310X066005000
1MAIL0000065522BR23        BRG1        BRG1COCO    BRG1COCO13AG2018030700:00:00OR  01000002980018000298001865522                              2018030720180310Z016CIF201803100000000000074915NN0                                                  0
2MAIL0000065522BR23        BRG1        BRG1COCO    BRG1COCO13AG00000100000000001132019800000000000000100000000000000000000000002184Z01620180310X066005000
2MAIL0000065522BR23        BRG1        BRG1COCO    BRG1COCO13AG00000200000000001132200400000000000000100000000000000000000000001791Z01620180310X066004000
2MAIL0000065522BR23        BRG1        BRG1COCO    BRG1COCO13AG00000300000000001223975300000000000000100000000000000000000000004112Z01620180310X066005000
2MAIL0000065522BR23        BRG1        BRG1COCO    BRG1COCO13AG00000400000000001226089600000000000001200000000000000000000000003816Z01620180310X066006750
2MAIL0000065522BR23        BRG1        BRG1COCO    BRG1COCO13AG00000500000000001228274000000000000000100000000000000000000000004112Z01620180310X066005000
2MAIL0000065522BR23        BRG1        BRG1COCO    BRG1COCO13AG00000600000000001228512700000000000000100000000000000000000000004112Z01620180310X066005000
2MAIL0000065522BR23        BRG1        BRG1COCO    BRG1COCO13AG00000700000000001231189200000000000000200000000000000000000000008224Z01620180310X066005000
2MAIL0000065522BR23        BRG1        BRG1COCO    BRG1COCO13AG00000800000000001231231200000000000000200000000000000000000000008224Z01620180310X066005000
2MAIL0000065522BR23        BRG1        BRG1COCO    BRG1COCO13AG00000900000000001233081900000000000001400000000000000000000000004675Z01620180310X066006750
2MAIL0000065522BR23        BRG1        BRG1COCO    BRG1COCO13AG00001000000000001233098400000000000001400000000000000000000000004675Z01620180310X066006750
2MAIL0000065522BR23        BRG1        BRG1COCO    BRG1COCO13AG00001100000000001233098600000000000001400000000000000000000000004675Z01620180310X066006750
2MAIL0000065522BR23        BRG1        BRG1COCO    BRG1COCO13AG00001200000000001233154200000000000001400000000000000000000000004675Z01620180310X066006750
2MAIL0000065522BR23        BRG1        BRG1COCO    BRG1COCO13AG00001300000000001234705700000000000000200000000000000000000000008224Z01620180310X066005000
2MAIL0000065522BR23        BRG1        BRG1COCO    BRG1COCO13AG00001400000000001234705800000000000000200000000000000000000000008224Z01620180310X066005000
2MAIL0000065522BR23        BRG1        BRG1COCO    BRG1COCO13AG00001500000000001236512900000000000001000000000000000000000000001596Z01620180310X066005000
2MAIL0000065522BR23        BRG1        BRG1COCO    BRG1COCO13AG00001600000000001236515000000000000001000000000000000000000000001596Z01620180310X066005000
1MAIL0000065523BR23        BRG1        BRG1COCO    BRG1COCO13AG2018030700:00:00OR  01000002869836000286983665523                              2018030720180310Z016CIF201803100000000000005819NN0                                                  0
2MAIL0000065523BR23        BRG1        BRG1COCO    BRG1COCO13AG00000100000000001235737300000000000000200000000000000000000000005819Z01620180310X066000000
1MAIL0000065524BR23        BRG1        BRG1COCO    BRG1COCO13AG2018030700:00:00OR  01000002869836000286983665524                              2018030720180310Z016CIF201803100000000000033189NN0                                                  0
2MAIL0000065524BR23        BRG1        BRG1COCO    BRG1COCO13AG00000100000000001132019700000000000000100000000000000000000000002184Z01620180310X066005000
2MAIL0000065524BR23        BRG1        BRG1COCO    BRG1COCO13AG00000200000000001132020900000000000000100000000000000000000000002184Z01620180310X066005000
2MAIL0000065524BR23        BRG1        BRG1COCO    BRG1COCO13AG00000300000000001132033100000000000000200000000000000000000000003281Z01620180310X066015000
2MAIL0000065524BR23        BRG1        BRG1COCO    BRG1COCO13AG00000400000000001132036700000000000000200000000000000000000000003281Z01620180310X066015000
2MAIL0000065524BR23        BRG1        BRG1COCO    BRG1COCO13AG00000500000000001215533700000000000000200000000000000000000000003281Z01620180310X066015000
2MAIL0000065524BR23        BRG1        BRG1COCO    BRG1COCO13AG00000600000000001228274000000000000000100000000000000000000000004522Z01620180310X066005000
2MAIL0000065524BR23        BRG1        BRG1COCO    BRG1COCO13AG00000700000000001231231200000000000000100000000000000000000000004522Z01620180310X066005000
2MAIL0000065524BR23        BRG1        BRG1COCO    BRG1COCO13AG00000800000000001233098400000000000001400000000000000000000000004967Z01620180310X066009920
2MAIL0000065524BR23        BRG1        BRG1COCO    BRG1COCO13AG00000900000000001233154200000000000001400000000000000000000000004967Z01620180310X066009920
1MAIL0000065525BR23        BRG1        BRG1COCO    BRG1COCO13AG2018030700:00:00OR  01000002973876000297387665525                              2018030720180310Z859CIF201803100000000000042670NN0                                                  0
2MAIL0000065525BR23        BRG1        BRG1COCO    BRG1COCO13AG00000100000000001235356200000000000001500000000000000000000000033941Z85920180310X066000000
2MAIL0000065525BR23        BRG1        BRG1COCO    BRG1COCO13AG00000200000000001235737300000000000000300000000000000000000000008729Z85920180310X066000000
1MAIL0000065526BR23        BRG1        BRG1COCO    BRG1COCO13AG2018030700:00:00OR  01000005511206000551120665526                              2018030720180310Z016CIF201803100000000000003282NN0                                                  0
2MAIL0000065526BR23        BRG1        BRG1COCO    BRG1COCO13AG00000100000000001132033100000000000000100000000000000000000000001641Z01620180310X066015000
2MAIL0000065526BR23        BRG1        BRG1COCO    BRG1COCO13AG00000200000000001132036700000000000000100000000000000000000000001641Z01620180310X066015000
1MAIL0000065527BR23        BRG1        BRG1COCO    BRG1COCO13AG2018030700:00:00OR  01000005511206000551120665527                              2018030720180310Z859CIF201803100000000000004526NN0                                                  0
2MAIL0000065527BR23        BRG1        BRG1COCO    BRG1COCO13AG00000100000000001235356200000000000000200000000000000000000000004526Z85920180310X066000000
1MAIL0000065528BR23        BRG1        BRG1COCO    BRG1COCO13AG2018030700:00:00OR  01000005181821000518182165528                              2018030720180310Z016CIF201803100000000000006163NN0                                                  0
2MAIL0000065528BR23        BRG1        BRG1COCO    BRG1COCO13AG00000100000000001132036700000000000000100000000000000000000000001641Z01620180310X066015000
2MAIL0000065528BR23        BRG1        BRG1COCO    BRG1COCO13AG00000200000000001234705700000000000000100000000000000000000000004522Z01620180310X066005000
1MAIL0000065529BR23        BRG1        BRG1COCO    BRG1COCO13AG2018030700:00:00OR  01000002984648000298464865529                              2018030720180310Z016CIF201803100000000000716017NN0                                                  0
2MAIL0000065529BR23        BRG1        BRG1COCO    BRG1COCO13AG00000100000000001228090100000000000105000000000000000000000000716017Z01620180310X066000000
1MAIL0000065530BR23        BRG1        BRG1COCO    BRG1COCO13AG2018030700:00:00OR  01000003757294000375729465530                              2018030720180310Z859CIF201803100000000000046865NN0                                                  0
2MAIL0000065530BR23        BRG1        BRG1COCO    BRG1COCO13AG00000100000000001233114700000000000001500000000000000000000000019388Z85920180310X066000000
2MAIL0000065530BR23        BRG1        BRG1COCO    BRG1COCO13AG00000200000000001235356200000000000000700000000000000000000000015839Z85920180310X066000000
2MAIL0000065530BR23        BRG1        BRG1COCO    BRG1COCO13AG00000300000000001235737300000000000000400000000000000000000000011638Z85920180310X066000000
1MAIL0000065541BR23        BRG1        BRG1COCO    BRG1COCO13AG2018030700:00:00OR  01000005412457000541245765541                              2018030720180307Z859CIF201803070000000000005173NN0                                                  0
2MAIL0000065541BR23        BRG1        BRG1COCO    BRG1COCO13AG00000100000000001235356200000000000000100000000000000000000000002263Z85920180307X066000000
2MAIL0000065541BR23        BRG1        BRG1COCO    BRG1COCO13AG00000200000000001235737300000000000000100000000000000000000000002910Z85920180307X066000000
1MAIL0000065542BR23        BRG1        BRG1COCO    BRG1COCO13AG2018030700:00:00OR  01000004034255000403425565542                              2018030720180307Z016CIF201803070000000000004130NN0                                                  0
2MAIL0000065542BR23        BRG1        BRG1COCO    BRG1COCO13AG00000100000000001132019800000000000000100000000000000000000000002280Z01620180307X066004850
2MAIL0000065542BR23        BRG1        BRG1COCO    BRG1COCO13AG00000200000000001132200400000000000000100000000000000000000000001850Z01620180307X066004850
1MAIL0000065543BR23        BRG1        BRG1COCO    BRG1COCO13AG2018030700:00:00OR  01000005417046000541704665543                              2018030720180307Z859CIF201803070000000000011314NN0                                                  0
2MAIL0000065543BR23        BRG1        BRG1COCO    BRG1COCO13AG00000100000000001235356200000000000000500000000000000000000000011314Z85920180307X066000000
1MAIL0000065544BR23        BRG1        BRG1COCO    BRG1COCO13AG2018030700:00:00OR  01000002979958000297995865544                              2018030720180307Z016CIF201803070000000000034170NN0                                                  0
2MAIL0000065544BR23        BRG1        BRG1COCO    BRG1COCO13AG00000100000000001226089600000000000001200000000000000000000000004092Z01620180307X066000000
2MAIL0000065544BR23        BRG1        BRG1COCO    BRG1COCO13AG00000200000000001233098400000000000001400000000000000000000000005013Z01620180307X066000000
2MAIL0000065544BR23        BRG1        BRG1COCO    BRG1COCO13AG00000300000000001233098500000000000001400000000000000000000000005013Z01620180307X066000000
2MAIL0000065544BR23        BRG1        BRG1COCO    BRG1COCO13AG00000400000000001233098800000000000001400000000000000000000000005013Z01620180307X066000000
2MAIL0000065544BR23        BRG1        BRG1COCO    BRG1COCO13AG00000500000000001233099500000000000001400000000000000000000000005013Z01620180307X066000000
2MAIL0000065544BR23        BRG1        BRG1COCO    BRG1COCO13AG00000600000000001233154200000000000001400000000000000000000000005013Z01620180307X066000000
2MAIL0000065544BR23        BRG1        BRG1COCO    BRG1COCO13AG00000700000000001234708700000000000001400000000000000000000000005013Z01620180307X066000000
1MAIL0000065545BR23        BRG1        BRG1COCO    BRG1COCO13AG2018030700:00:00OR  01000002933348000293334865545                              2018030720180307Z859CIF201803070000000000031034NN0                                                  0
2MAIL0000065545BR23        BRG1        BRG1COCO    BRG1COCO13AG00000100000000001235356200000000000000600000000000000000000000013577Z85920180307X066000000
2MAIL0000065545BR23        BRG1        BRG1COCO    BRG1COCO13AG00000200000000001235737300000000000000600000000000000000000000017457Z85920180307X066000000
1MAIL0000065546BR23        BRG1        BRG1COCO    BRG1COCO13AG2018030700:00:00OR  01000002933348000293334865546                              2018030720180307Z016CIF201803070000000000019452NN0                                                  0
2MAIL0000065546BR23        BRG1        BRG1COCO    BRG1COCO13AG00000100000000001228090100000000000003000000000000000000000000019452Z01620180307X066004910
1MAIL0000065547BR23        BRG1        BRG1COCO    BRG1COCO13AG2018030700:00:00OR  01000002980011000298001165547                              2018030720180307Z859CIF201803070000000000077584NN0                                                  0
2MAIL0000065547BR23        BRG1        BRG1COCO    BRG1COCO13AG00000100000000001235356200000000000001500000000000000000000000033941Z85920180307X066000000
2MAIL0000065547BR23        BRG1        BRG1COCO    BRG1COCO13AG00000200000000001235737300000000000001500000000000000000000000043643Z85920180307X066000000
1MAIL0000065548BR23        BRG1        BRG1COCO    BRG1COCO13AG2018030700:00:00OR  01000002979926000297992665548                              2018030720180307Z859CIF201803070000000000051398NN0                                                  0
2MAIL0000065548BR23        BRG1        BRG1COCO    BRG1COCO13AG00000100000000001235356200000000000001500000000000000000000000033941Z85920180307X066000000
2MAIL0000065548BR23        BRG1        BRG1COCO    BRG1COCO13AG00000200000000001235737300000000000000600000000000000000000000017457Z85920180307X066000000
1MAIL0000065549BR23        BRG1        BRG1COCO    BRG1COCO13AG2018030700:00:00OR  01000005140918000514091865549                              2018030720180307Z859CIF201803070000000000031034NN0                                                  0
2MAIL0000065549BR23        BRG1        BRG1COCO    BRG1COCO13AG00000100000000001235356200000000000000600000000000000000000000013577Z85920180307X066000000
2MAIL0000065549BR23        BRG1        BRG1COCO    BRG1COCO13AG00000200000000001235737300000000000000600000000000000000000000017457Z85920180307X066000000
1MAIL0000065550BR23        BRG1        BRG1COCO    BRG1COCO13AG2018030700:00:00OR  01000005140918000514091865550                              2018030720180307Z016CIF201803070000000000161903NN0                                                  0
2MAIL0000065550BR23        BRG1        BRG1COCO    BRG1COCO13AG00000100000000001132018300000000000000400000000000000000000000019192Z01620180307X066000000
2MAIL0000065550BR23        BRG1        BRG1COCO    BRG1COCO13AG00000200000000001132019700000000000000400000000000000000000000009197Z01620180307X066000000
2MAIL0000065550BR23        BRG1        BRG1COCO    BRG1COCO13AG00000300000000001132020900000000000000400000000000000000000000009197Z01620180307X066000000
2MAIL0000065550BR23        BRG1        BRG1COCO    BRG1COCO13AG00000400000000001132036700000000000000400000000000000000000000006566Z01620180307X066015000
2MAIL0000065550BR23        BRG1        BRG1COCO    BRG1COCO13AG00000500000000001132213000000000000000400000000000000000000000013847Z01620180307X066004000
2MAIL0000065550BR23        BRG1        BRG1COCO    BRG1COCO13AG00000600000000001132213100000000000000400000000000000000000000013847Z01620180307X066004000
2MAIL0000065550BR23        BRG1        BRG1COCO    BRG1COCO13AG00000700000000001221415400000000000000200000000000000000000000009596Z01620180307X066000000
2MAIL0000065550BR23        BRG1        BRG1COCO    BRG1COCO13AG00000800000000001223975300000000000000400000000000000000000000017312Z01620180307X066000000
2MAIL0000065550BR23        BRG1        BRG1COCO    BRG1COCO13AG00000900000000001227395500000000000000400000000000000000000000006566Z01620180307X066015000
2MAIL0000065550BR23        BRG1        BRG1COCO    BRG1COCO13AG00001000000000001227735000000000000000400000000000000000000000009197Z01620180307X066000000
2MAIL0000065550BR23        BRG1        BRG1COCO    BRG1COCO13AG00001100000000001231189200000000000000400000000000000000000000017312Z01620180307X066000000
2MAIL0000065550BR23        BRG1        BRG1COCO    BRG1COCO13AG00001200000000001233081900000000000002800000000000000000000000010024Z01620180307X066000000
2MAIL0000065550BR23        BRG1        BRG1COCO    BRG1COCO13AG00001300000000001233098400000000000002800000000000000000000000010024Z01620180307X066000000
2MAIL0000065550BR23        BRG1        BRG1COCO    BRG1COCO13AG00001400000000001233098500000000000001400000000000000000000000005013Z01620180307X066000000
2MAIL0000065550BR23        BRG1        BRG1COCO    BRG1COCO13AG00001500000000001233154200000000000001400000000000000000000000005013Z01620180307X066000000
