1MAIL0000064203BR23        BRG1        BRG1COCO    BRG1COCO13AG2018022700:00:00OR  01000005121455000512145564203                              2018022720180228Z016CIF201802280000000000067730NN0                                                  0
2MAIL0000064203BR23        BRG1        BRG1COCO    BRG1COCO13AG00000100000000001132019700000000000000100000000000000000000000002300Z01620180228X066000000
2MAIL0000064203BR23        BRG1        BRG1COCO    BRG1COCO13AG00000200000000001132019800000000000000100000000000000000000000002300Z01620180228X066000000
2MAIL0000064203BR23        BRG1        BRG1COCO    BRG1COCO13AG00000300000000001132033100000000000000100000000000000000000000001931Z01620180228X066000000
2MAIL0000064203BR23        BRG1        BRG1COCO    BRG1COCO13AG00000400000000001132036700000000000000300000000000000000000000005793Z01620180228X066000000
2MAIL0000064203BR23        BRG1        BRG1COCO    BRG1COCO13AG00000500000000001132200400000000000000200000000000000000000000003731Z01620180228X066000000
2MAIL0000064203BR23        BRG1        BRG1COCO    BRG1COCO13AG00000600000000001132400100000000000000100000000000000000000000003511Z01620180228X066000000
2MAIL0000064203BR23        BRG1        BRG1COCO    BRG1COCO13AG00000700000000001215533700000000000000100000000000000000000000001931Z01620180228X066000000
2MAIL0000064203BR23        BRG1        BRG1COCO    BRG1COCO13AG00000800000000001228090100000000000003000000000000000000000000022505Z01620180228X066000000
2MAIL0000064203BR23        BRG1        BRG1COCO    BRG1COCO13AG00000900000000001228100400000000000000200000000000000000000000005255Z01620180228X066000000
2MAIL0000064203BR23        BRG1        BRG1COCO    BRG1COCO13AG00001000000000001231389600000000000000100000000000000000000000001931Z01620180228X066000000
2MAIL0000064203BR23        BRG1        BRG1COCO    BRG1COCO13AG00001100000000001233081900000000000001400000000000000000000000005514Z01620180228X066000000
2MAIL0000064203BR23        BRG1        BRG1COCO    BRG1COCO13AG00001200000000001233098400000000000001400000000000000000000000005514Z01620180228X066000000
2MAIL0000064203BR23        BRG1        BRG1COCO    BRG1COCO13AG00001300000000001233154200000000000001400000000000000000000000005514Z01620180228X066000000
1MAIL0000064204BR23        BRG1        BRG1COCO    BRG1COCO13AG2018022700:00:00OR  01000005121455000512145564204                              2018022720180228Z016CIF201802280000000000140615NN0                                                  0
2MAIL0000064204BR23        BRG1        BRG1COCO    BRG1COCO13AG00000100000000001233114700000000000001500000000000000000000000019388Z01620180228X066000000
2MAIL0000064204BR23        BRG1        BRG1COCO    BRG1COCO13AG00000200000000001235356200000000000001500000000000000000000000033941Z01620180228X066000000
2MAIL0000064204BR23        BRG1        BRG1COCO    BRG1COCO13AG00000300000000001235699500000000000001500000000000000000000000043643Z01620180228X066000000
2MAIL0000064204BR23        BRG1        BRG1COCO    BRG1COCO13AG00000400000000001235737300000000000001500000000000000000000000043643Z01620180228X066000000
1MAIL0000064205BR23        BRG1        BRG1COCO    BRG1COCO13AG2018022700:00:00OR  01000001367015000136701564205                              2018022720180228Z016CIF201802280000000000145906NN0                                                  0
2MAIL0000064205BR23        BRG1        BRG1COCO    BRG1COCO13AG00000100000000001132004000000000000001000000000000000000000000007483Z01620180228X066005000
2MAIL0000064205BR23        BRG1        BRG1COCO    BRG1COCO13AG00000200000000001132004200000000000000500000000000000000000000005686Z01620180228X066005000
2MAIL0000064205BR23        BRG1        BRG1COCO    BRG1COCO13AG00000300000000001132018300000000000000300000000000000000000000010592Z01620180228X066025000
2MAIL0000064205BR23        BRG1        BRG1COCO    BRG1COCO13AG00000400000000001132030900000000000000400000000000000000000000012831Z01620180228X066018000
2MAIL0000064205BR23        BRG1        BRG1COCO    BRG1COCO13AG00000500000000001132035100000000000000500000000000000000000000007392Z01620180228X066015000
2MAIL0000064205BR23        BRG1        BRG1COCO    BRG1COCO13AG00000600000000001132213000000000000000200000000000000000000000006858Z01620180228X066004920
2MAIL0000064205BR23        BRG1        BRG1COCO    BRG1COCO13AG00000700000000001132213100000000000000200000000000000000000000006855Z01620180228X066004950
2MAIL0000064205BR23        BRG1        BRG1COCO    BRG1COCO13AG00000800000000001132400100000000000000200000000000000000000000006672Z01620180228X066005000
2MAIL0000064205BR23        BRG1        BRG1COCO    BRG1COCO13AG00000900000000001221415400000000000000300000000000000000000000010796Z01620180228X066025000
2MAIL0000064205BR23        BRG1        BRG1COCO    BRG1COCO13AG00001000000000001223975300000000000000100000000000000000000000004112Z01620180228X066005000
2MAIL0000064205BR23        BRG1        BRG1COCO    BRG1COCO13AG00001100000000001228512700000000000000100000000000000000000000004112Z01620180228X066005000
2MAIL0000064205BR23        BRG1        BRG1COCO    BRG1COCO13AG00001200000000001231189200000000000000100000000000000000000000004112Z01620180228X066005000
2MAIL0000064205BR23        BRG1        BRG1COCO    BRG1COCO13AG00001300000000001231231200000000000000100000000000000000000000004112Z01620180228X066005000
2MAIL0000064205BR23        BRG1        BRG1COCO    BRG1COCO13AG00001400000000001234705700000000000000100000000000000000000000004112Z01620180228X066005000
2MAIL0000064205BR23        BRG1        BRG1COCO    BRG1COCO13AG00001500000000001234705800000000000000100000000000000000000000004112Z01620180228X066005000
2MAIL0000064205BR23        BRG1        BRG1COCO    BRG1COCO13AG00001600000000001236512800000000000005200000000000000000000000008094Z01620180228X066008000
2MAIL0000064205BR23        BRG1        BRG1COCO    BRG1COCO13AG00001700000000001236512900000000000007000000000000000000000000011172Z01620180228X066005000
2MAIL0000064205BR23        BRG1        BRG1COCO    BRG1COCO13AG00001800000000001236514100000000000005200000000000000000000000008094Z01620180228X066008000
2MAIL0000064205BR23        BRG1        BRG1COCO    BRG1COCO13AG00001900000000001236515000000000000007000000000000000000000000011172Z01620180228X066005000
2MAIL0000064205BR23        BRG1        BRG1COCO    BRG1COCO13AG00002000000000001236528200000000000002000000000000000000000000007537Z01620180228X066010000
1MAIL0000064206BR23        BRG1        BRG1COCO    BRG1COCO13AG2018022700:00:00OR  01000005035482000503548264206                              2018022720180228Z859CIF201802280000000000189111NN0                                                  0
2MAIL0000064206BR23        BRG1        BRG1COCO    BRG1COCO13AG00000100000000001235356200000000000004500000000000000000000000101824Z85920180228X066000000
2MAIL0000064206BR23        BRG1        BRG1COCO    BRG1COCO13AG00000200000000001235699500000000000003000000000000000000000000087287Z85920180228X066000000
1MAIL0000064207BR23        BRG1        BRG1COCO    BRG1COCO13AG2018022700:00:00OR  01000005350231000535023164207                              2018022720180228Z016CIF201802280000000000017104NN0                                                  0
2MAIL0000064207BR23        BRG1        BRG1COCO    BRG1COCO13AG00000100000000001132019800000000000000100000000000000000000000002184Z01620180228X066005000
2MAIL0000064207BR23        BRG1        BRG1COCO    BRG1COCO13AG00000200000000001132036700000000000000100000000000000000000000001641Z01620180228X066015000
2MAIL0000064207BR23        BRG1        BRG1COCO    BRG1COCO13AG00000300000000001132400100000000000000100000000000000000000000003336Z01620180228X066005000
2MAIL0000064207BR23        BRG1        BRG1COCO    BRG1COCO13AG00000400000000001215533700000000000000100000000000000000000000001641Z01620180228X066015000
2MAIL0000064207BR23        BRG1        BRG1COCO    BRG1COCO13AG00000500000000001234705800000000000000100000000000000000000000004522Z01620180228X066005000
2MAIL0000064207BR23        BRG1        BRG1COCO    BRG1COCO13AG00000600000000001236528200000000000000800000000000000000000000003780Z01620180228X066010000
1MAIL0000064208BR23        BRG1        BRG1COCO    BRG1COCO13AG2018022700:00:00OR  01000004911482000491148264208                              2018022720180228Z016CIF201802280000000000009686NN0                                                  0
2MAIL0000064208BR23        BRG1        BRG1COCO    BRG1COCO13AG00000100000000001132019800000000000000100000000000000000000000002184Z01620180228X066005000
2MAIL0000064208BR23        BRG1        BRG1COCO    BRG1COCO13AG00000200000000001132200400000000000000200000000000000000000000003731Z01620180228X066000000
2MAIL0000064208BR23        BRG1        BRG1COCO    BRG1COCO13AG00000300000000001132213000000000000000100000000000000000000000003771Z01620180228X066004950
1MAIL0000064209BR23        BRG1        BRG1COCO    BRG1COCO13AG2018022700:00:00OR  01000003628369000362836964209                              2018022720180228Z016CIF201802280000000000011815NN0                                                  0
2MAIL0000064209BR23        BRG1        BRG1COCO    BRG1COCO13AG00000100000000001132019800000000000000100000000000000000000000002184Z01620180228X066005000
2MAIL0000064209BR23        BRG1        BRG1COCO    BRG1COCO13AG00000200000000001132020900000000000000100000000000000000000000002184Z01620180228X066005000
2MAIL0000064209BR23        BRG1        BRG1COCO    BRG1COCO13AG00000300000000001132036700000000000000100000000000000000000000001641Z01620180228X066015000
2MAIL0000064209BR23        BRG1        BRG1COCO    BRG1COCO13AG00000400000000001215533700000000000000100000000000000000000000001641Z01620180228X066015000
2MAIL0000064209BR23        BRG1        BRG1COCO    BRG1COCO13AG00000500000000001236512800000000000000300000000000000000000000000483Z01620180228X066008000
2MAIL0000064209BR23        BRG1        BRG1COCO    BRG1COCO13AG00000600000000001236512900000000000000500000000000000000000000000891Z01620180228X066005000
2MAIL0000064209BR23        BRG1        BRG1COCO    BRG1COCO13AG00000700000000001236514100000000000000300000000000000000000000000483Z01620180228X066008000
2MAIL0000064209BR23        BRG1        BRG1COCO    BRG1COCO13AG00000800000000001236515000000000000000500000000000000000000000000891Z01620180228X066005000
2MAIL0000064209BR23        BRG1        BRG1COCO    BRG1COCO13AG00000900000000001236528200000000000000300000000000000000000000001417Z01620180228X066010000
1MAIL0000064210BR23        BRG1        BRG1COCO    BRG1COCO13AG2018022700:00:00OR  01000004699352000469935264210                              2018022720180228Z016CIF201802280000000000050316NN0                                                  0
2MAIL0000064210BR23        BRG1        BRG1COCO    BRG1COCO13AG00000100000000001132019700000000000000700000000000000000000000016772Z01620180228X066000000
2MAIL0000064210BR23        BRG1        BRG1COCO    BRG1COCO13AG00000200000000001132019900000000000000700000000000000000000000016772Z01620180228X066000000
2MAIL0000064210BR23        BRG1        BRG1COCO    BRG1COCO13AG00000300000000001227735000000000000000700000000000000000000000016772Z01620180228X066000000
1MAIL0000064211BR23        BRG1        BRG1COCO    BRG1COCO13AG2018022700:00:00OR  01000005344476000534447664211                              2018022720180228Z859CIF201802280000000000033941NN0                                                  0
2MAIL0000064211BR23        BRG1        BRG1COCO    BRG1COCO13AG00000100000000001235356200000000000001500000000000000000000000033941Z85920180228X066000000
1MAIL0000064212BR23        BRG1        BRG1COCO    BRG1COCO13AG2018022700:00:00OR  01000004326210000432621064212                              2018022720180228Z016CIF201802280000000000004203NN0                                                  0
2MAIL0000064212BR23        BRG1        BRG1COCO    BRG1COCO13AG00000100000000001233114700000000000000100000000000000000000000001293Z01620180228X066000000
2MAIL0000064212BR23        BRG1        BRG1COCO    BRG1COCO13AG00000200000000001235737300000000000000100000000000000000000000002910Z01620180228X066000000
1MAIL0000064213BR23        BRG1        BRG1COCO    BRG1COCO13AG2018022700:00:00OR  01000005137201000513720164213                              2018022720180228Z016CIF201802280000000000009697NN0                                                  0
2MAIL0000064213BR23        BRG1        BRG1COCO    BRG1COCO13AG00000100000000001233114700000000000000300000000000000000000000003878Z01620180228X066000000
2MAIL0000064213BR23        BRG1        BRG1COCO    BRG1COCO13AG00000200000000001235737300000000000000200000000000000000000000005819Z01620180228X066000000
1MAIL0000064214BR23        BRG1        BRG1COCO    BRG1COCO13AG2018022700:00:00OR  01000005117687000511768764214                              2018022720180228Z016CIF201802280000000000005836NN0                                                  0
2MAIL0000064214BR23        BRG1        BRG1COCO    BRG1COCO13AG00000100000000001132020900000000000000100000000000000000000000002276Z01620180228X066005000
2MAIL0000064214BR23        BRG1        BRG1COCO    BRG1COCO13AG00000200000000001132036700000000000000100000000000000000000000001710Z01620180228X066015000
2MAIL0000064214BR23        BRG1        BRG1COCO    BRG1COCO13AG00000300000000001132200400000000000000100000000000000000000000001850Z01620180228X066004850
1MAIL0000064215BR23        BRG1        BRG1COCO    BRG1COCO13AG2018022700:00:00OR  01000005411842000541184264215                              2018022720180228Z859CIF201802280000000000013577NN0                                                  0
2MAIL0000064215BR23        BRG1        BRG1COCO    BRG1COCO13AG00000100000000001235356200000000000000600000000000000000000000013577Z85920180228X066000000
1MAIL0000064216BR23        BRG1        BRG1COCO    BRG1COCO13AG2018022700:00:00OR  01000004797278000479727864216                              2018022720180228Z016CIF201802280000000000031105NN0                                                  0
2MAIL0000064216BR23        BRG1        BRG1COCO    BRG1COCO13AG00000100000000001132034900000000000000500000000000000000000000007707Z01620180228X066015000
2MAIL0000064216BR23        BRG1        BRG1COCO    BRG1COCO13AG00000200000000001132035100000000000000500000000000000000000000008131Z01620180228X066015000
2MAIL0000064216BR23        BRG1        BRG1COCO    BRG1COCO13AG00000300000000001132036700000000000000100000000000000000000000001641Z01620180228X066015000
2MAIL0000064216BR23        BRG1        BRG1COCO    BRG1COCO13AG00000400000000001233098500000000000001400000000000000000000000004962Z01620180228X066010000
2MAIL0000064216BR23        BRG1        BRG1COCO    BRG1COCO13AG00000500000000001233154200000000000001400000000000000000000000004962Z01620180228X066010000
2MAIL0000064216BR23        BRG1        BRG1COCO    BRG1COCO13AG00000600000000001235699800000000000001000000000000000000000000003702Z01620180228X066006000
1MAIL0000064217BR23        BRG1        BRG1COCO    BRG1COCO13AG2018022700:00:00OR  01000005517100000551710064217                              2018022720180228Z016CIF201802280000000000004552NN0                                                  0
2MAIL0000064217BR23        BRG1        BRG1COCO    BRG1COCO13AG00000100000000001132019900000000000000100000000000000000000000002276Z01620180228X066005000
2MAIL0000064217BR23        BRG1        BRG1COCO    BRG1COCO13AG00000200000000001132020900000000000000100000000000000000000000002276Z01620180228X066005000
1MAIL0000064218BR23        BRG1        BRG1COCO    BRG1COCO13AG2018022700:00:00OR  01000005517100000551710064218                              2018022720180228Z016CIF201802280000000000010554NN0                                                  0
2MAIL0000064218BR23        BRG1        BRG1COCO    BRG1COCO13AG00000100000000001132033100000000000000100000000000000000000000001710Z01620180228X066015000
2MAIL0000064218BR23        BRG1        BRG1COCO    BRG1COCO13AG00000200000000001132036700000000000000200000000000000000000000003420Z01620180228X066015000
2MAIL0000064218BR23        BRG1        BRG1COCO    BRG1COCO13AG00000300000000001215533700000000000000100000000000000000000000001710Z01620180228X066015000
2MAIL0000064218BR23        BRG1        BRG1COCO    BRG1COCO13AG00000400000000001228090100000000000000500000000000000000000000003714Z01620180228X066004960
1MAIL0000064219BR23        BRG1        BRG1COCO    BRG1COCO13AG2018022700:00:00OR  01000004814592000481459264219                              2018022720180228Z016CIF201802280000000000012423NN0                                                  0
2MAIL0000064219BR23        BRG1        BRG1COCO    BRG1COCO13AG00000100000000001132030800000000000000200000000000000000000000005925Z01620180228X066018000
2MAIL0000064219BR23        BRG1        BRG1COCO    BRG1COCO13AG00000200000000001132033900000000000000200000000000000000000000006498Z01620180228X066018000
1MAIL0000064220BR23        BRG1        BRG1COCO    BRG1COCO13AG2018022700:00:00OR  01000002979922000297992264220                              2018022720180228Z016CIF201802280000000000279307NN0                                                  0
2MAIL0000064220BR23        BRG1        BRG1COCO    BRG1COCO13AG00000100000000001235356200000000000004500000000000000000000000101824Z01620180228X066000000
2MAIL0000064220BR23        BRG1        BRG1COCO    BRG1COCO13AG00000200000000001235699500000000000004500000000000000000000000130930Z01620180228X066000000
2MAIL0000064220BR23        BRG1        BRG1COCO    BRG1COCO13AG00000300000000001235737300000000000001600000000000000000000000046553Z01620180228X066000000
1MAIL0000064221BR23        BRG1        BRG1COCO    BRG1COCO13AG2018022700:00:00OR  01000005510751000551075164221                              2018022720180228Z016CIF201802280000000000096972NN0                                                  0
2MAIL0000064221BR23        BRG1        BRG1COCO    BRG1COCO13AG00000100000000001233114700000000000001500000000000000000000000019388Z01620180228X066000000
2MAIL0000064221BR23        BRG1        BRG1COCO    BRG1COCO13AG00000200000000001235356200000000000001500000000000000000000000033941Z01620180228X066000000
2MAIL0000064221BR23        BRG1        BRG1COCO    BRG1COCO13AG00000300000000001235737300000000000001500000000000000000000000043643Z01620180228X066000000
1MAIL0000064222BR23        BRG1        BRG1COCO    BRG1COCO13AG2018022700:00:00OR  01000005510751000551075164222                              2018022720180228Z016CIF201802280000000000103140NN0                                                  0
2MAIL0000064222BR23        BRG1        BRG1COCO    BRG1COCO13AG00000100000000001132018300000000000000100000000000000000000000003598Z01620180228X066025000
2MAIL0000064222BR23        BRG1        BRG1COCO    BRG1COCO13AG00000200000000001132200400000000000002400000000000000000000000046658Z01620180228X066000000
2MAIL0000064222BR23        BRG1        BRG1COCO    BRG1COCO13AG00000300000000001221415400000000000000100000000000000000000000003598Z01620180228X066025000
2MAIL0000064222BR23        BRG1        BRG1COCO    BRG1COCO13AG00000400000000001228090100000000000006000000000000000000000000044573Z01620180228X066004960
2MAIL0000064222BR23        BRG1        BRG1COCO    BRG1COCO13AG00000500000000001228274000000000000000100000000000000000000000004713Z01620180228X066005000
1MAIL0000064223BR23        BRG1        BRG1COCO    BRG1COCO13AG2018022700:00:00OR  01000004580333000458033364223                              2018022720180228Z016CIF201802280000000000005057NN0                                                  0
2MAIL0000064223BR23        BRG1        BRG1COCO    BRG1COCO13AG00000100000000001132036700000000000000100000000000000000000000001641Z01620180228X066015000
2MAIL0000064223BR23        BRG1        BRG1COCO    BRG1COCO13AG00000200000000001132200400000000000000100000000000000000000000001775Z01620180228X066004850
2MAIL0000064223BR23        BRG1        BRG1COCO    BRG1COCO13AG00000300000000001231389600000000000000100000000000000000000000001641Z01620180228X066015000
1MAIL0000064224BR23        BRG1        BRG1COCO    BRG1COCO13AG2018022700:00:00OR  01000000937745000093774564224                              2018022720180228Z016CIF201802280000000000165920NN0                                                  0
2MAIL0000064224BR23        BRG1        BRG1COCO    BRG1COCO13AG00000100000000001132035100000000000004000000000000000000000000059135Z01620180228X066015000
2MAIL0000064224BR23        BRG1        BRG1COCO    BRG1COCO13AG00000200000000001132213000000000000001000000000000000000000000034276Z01620180228X066004950
2MAIL0000064224BR23        BRG1        BRG1COCO    BRG1COCO13AG00000300000000001231231200000000000000400000000000000000000000016447Z01620180228X066005000
2MAIL0000064224BR23        BRG1        BRG1COCO    BRG1COCO13AG00000400000000001234705700000000000000800000000000000000000000032893Z01620180228X066005000
2MAIL0000064224BR23        BRG1        BRG1COCO    BRG1COCO13AG00000500000000001236514100000000000005200000000000000000000000008094Z01620180228X066008000
2MAIL0000064224BR23        BRG1        BRG1COCO    BRG1COCO13AG00000600000000001236528200000000000004000000000000000000000000015075Z01620180228X066010000
1MAIL0000064225BR23        BRG1        BRG1COCO    BRG1COCO13AG2018022700:00:00OR  01000004363644000436364464225                              2018022720180228Z016CIF201802280000000000022453NN0                                                  0
2MAIL0000064225BR23        BRG1        BRG1COCO    BRG1COCO13AG00000100000000001132019900000000000000100000000000000000000000002184Z01620180228X066005000
2MAIL0000064225BR23        BRG1        BRG1COCO    BRG1COCO13AG00000200000000001132033100000000000000100000000000000000000000001641Z01620180228X066015000
2MAIL0000064225BR23        BRG1        BRG1COCO    BRG1COCO13AG00000300000000001132036700000000000000100000000000000000000000001641Z01620180228X066015000
2MAIL0000064225BR23        BRG1        BRG1COCO    BRG1COCO13AG00000400000000001215533700000000000000100000000000000000000000001641Z01620180228X066015000
2MAIL0000064225BR23        BRG1        BRG1COCO    BRG1COCO13AG00000500000000001228100400000000000000100000000000000000000000002155Z01620180228X066018000
2MAIL0000064225BR23        BRG1        BRG1COCO    BRG1COCO13AG00000600000000001233098800000000000001400000000000000000000000004967Z01620180228X066009920
2MAIL0000064225BR23        BRG1        BRG1COCO    BRG1COCO13AG00000700000000001234705800000000000000100000000000000000000000004522Z01620180228X066005000
2MAIL0000064225BR23        BRG1        BRG1COCO    BRG1COCO13AG00000800000000001235699800000000000001000000000000000000000000003702Z01620180228X066006000
1MAIL0000064226BR23        BRG1        BRG1COCO    BRG1COCO13AG2018022700:00:00OR  01000005513866000551386664226                              2018022720180228ZG40CIF201802280000000000184404NN0                                                  0
2MAIL0000064226BR23        BRG1        BRG1COCO    BRG1COCO13AG00000100000000001132030900000000000003600000000000000000000000107881ZG4020180228X066018000
2MAIL0000064226BR23        BRG1        BRG1COCO    BRG1COCO13AG00000200000000001132033900000000000002400000000000000000000000076523ZG4020180228X066018000
1MAIL0000064227BR23        BRG1        BRG1COCO    BRG1COCO13AG2018022700:00:00OR  01000002867879000286787964227                              2018022720180228Z016CIF201802280000000000010328NN0                                                  0
2MAIL0000064227BR23        BRG1        BRG1COCO    BRG1COCO13AG00000100000000001132019900000000000000100000000000000000000000002300Z01620180228X066000000
2MAIL0000064227BR23        BRG1        BRG1COCO    BRG1COCO13AG00000200000000001132020900000000000000100000000000000000000000002300Z01620180228X066000000
2MAIL0000064227BR23        BRG1        BRG1COCO    BRG1COCO13AG00000300000000001132033100000000000000100000000000000000000000001931Z01620180228X066000000
2MAIL0000064227BR23        BRG1        BRG1COCO    BRG1COCO13AG00000400000000001132036700000000000000100000000000000000000000001931Z01620180228X066000000
2MAIL0000064227BR23        BRG1        BRG1COCO    BRG1COCO13AG00000500000000001132200400000000000000100000000000000000000000001866Z01620180228X066000000
1MAIL0000064228BR23        BRG1        BRG1COCO    BRG1COCO13AG2018022700:00:00OR  01000002981644000298164464228                              2018022720180228Z016CIF201802280000000000072213NN0                                                  0
2MAIL0000064228BR23        BRG1        BRG1COCO    BRG1COCO13AG00000100000000001132019700000000000000200000000000000000000000004369Z01620180228X066005000
2MAIL0000064228BR23        BRG1        BRG1COCO    BRG1COCO13AG00000200000000001132019800000000000000200000000000000000000000004369Z01620180228X066005000
2MAIL0000064228BR23        BRG1        BRG1COCO    BRG1COCO13AG00000300000000001132019900000000000000200000000000000000000000004369Z01620180228X066005000
2MAIL0000064228BR23        BRG1        BRG1COCO    BRG1COCO13AG00000400000000001132020900000000000000200000000000000000000000004369Z01620180228X066005000
2MAIL0000064228BR23        BRG1        BRG1COCO    BRG1COCO13AG00000500000000001132033100000000000000200000000000000000000000003281Z01620180228X066015000
2MAIL0000064228BR23        BRG1        BRG1COCO    BRG1COCO13AG00000600000000001132036700000000000001000000000000000000000000016409Z01620180228X066015000
2MAIL0000064228BR23        BRG1        BRG1COCO    BRG1COCO13AG00000700000000001132400100000000000000100000000000000000000000003336Z01620180228X066005000
2MAIL0000064228BR23        BRG1        BRG1COCO    BRG1COCO13AG00000800000000001215533700000000000000200000000000000000000000003281Z01620180228X066015000
2MAIL0000064228BR23        BRG1        BRG1COCO    BRG1COCO13AG00000900000000001226089600000000000001200000000000000000000000004321Z01620180228X066004000
2MAIL0000064228BR23        BRG1        BRG1COCO    BRG1COCO13AG00001000000000001227735000000000000000200000000000000000000000004369Z01620180228X066005000
2MAIL0000064228BR23        BRG1        BRG1COCO    BRG1COCO13AG00001100000000001233081900000000000001400000000000000000000000005017Z01620180228X066009000
2MAIL0000064228BR23        BRG1        BRG1COCO    BRG1COCO13AG00001200000000001233098400000000000001400000000000000000000000005017Z01620180228X066009000
2MAIL0000064228BR23        BRG1        BRG1COCO    BRG1COCO13AG00001300000000001236512800000000000001000000000000000000000000001661Z01620180228X066005000
2MAIL0000064228BR23        BRG1        BRG1COCO    BRG1COCO13AG00001400000000001236512900000000000002000000000000000000000000003192Z01620180228X066005000
2MAIL0000064228BR23        BRG1        BRG1COCO    BRG1COCO13AG00001500000000001236514100000000000001000000000000000000000000001661Z01620180228X066005000
2MAIL0000064228BR23        BRG1        BRG1COCO    BRG1COCO13AG00001600000000001236515000000000000002000000000000000000000000003192Z01620180228X066005000
1MAIL0000064229BR23        BRG1        BRG1COCO    BRG1COCO13AG2018022700:00:00OR  01000002981644000298164464229                              2018022720180228Z016CIF201802280000000000213887NN0                                                  0
2MAIL0000064229BR23        BRG1        BRG1COCO    BRG1COCO13AG00000100000000001228090100000000000030000000000000000000000000213887Z01620180228X066004960
1MAIL0000064230BR23        BRG1        BRG1COCO    BRG1COCO13AG2018022700:00:00OR  01000003470892000347089264230                              2018022720180228Z016CIF201802280000000000024003NN0                                                  0
2MAIL0000064230BR23        BRG1        BRG1COCO    BRG1COCO13AG00000100000000001132033100000000000000100000000000000000000000001738Z01620180228X066010000
2MAIL0000064230BR23        BRG1        BRG1COCO    BRG1COCO13AG00000200000000001132036700000000000000200000000000000000000000003474Z01620180228X066010000
2MAIL0000064230BR23        BRG1        BRG1COCO    BRG1COCO13AG00000300000000001215533700000000000000100000000000000000000000001738Z01620180228X066010000
2MAIL0000064230BR23        BRG1        BRG1COCO    BRG1COCO13AG00000400000000001227395500000000000000100000000000000000000000001738Z01620180228X066010000
2MAIL0000064230BR23        BRG1        BRG1COCO    BRG1COCO13AG00000500000000001231389600000000000000100000000000000000000000001738Z01620180228X066010000
2MAIL0000064230BR23        BRG1        BRG1COCO    BRG1COCO13AG00000600000000001233098400000000000001400000000000000000000000005293Z01620180228X066004000
2MAIL0000064230BR23        BRG1        BRG1COCO    BRG1COCO13AG00000700000000001236512800000000000001000000000000000000000000001748Z01620180228X066000000
2MAIL0000064230BR23        BRG1        BRG1COCO    BRG1COCO13AG00000800000000001236512900000000000001500000000000000000000000002394Z01620180228X066005000
2MAIL0000064230BR23        BRG1        BRG1COCO    BRG1COCO13AG00000900000000001236514100000000000001000000000000000000000000001748Z01620180228X066000000
2MAIL0000064230BR23        BRG1        BRG1COCO    BRG1COCO13AG00001000000000001236515000000000000001500000000000000000000000002394Z01620180228X066005000
1MAIL0000064231BR23        BRG1        BRG1COCO    BRG1COCO13AG2018022700:00:00OR  01000003477203000347720364231                              2018022720180228ZG05CIF201802280000000000027498NN0                                                  0
2MAIL0000064231BR23        BRG1        BRG1COCO    BRG1COCO13AG00000100000000001132033100000000000000400000000000000000000000006819ZG0520180228X066010000
2MAIL0000064231BR23        BRG1        BRG1COCO    BRG1COCO13AG00000200000000001132036700000000000000400000000000000000000000006819ZG0520180228X066010000
2MAIL0000064231BR23        BRG1        BRG1COCO    BRG1COCO13AG00000300000000001132200400000000000000100000000000000000000000001743ZG0520180228X066004800
2MAIL0000064231BR23        BRG1        BRG1COCO    BRG1COCO13AG00000400000000001215533700000000000000400000000000000000000000006819ZG0520180228X066010000
2MAIL0000064231BR23        BRG1        BRG1COCO    BRG1COCO13AG00000500000000001233154200000000000001400000000000000000000000005298ZG0520180228X066002000
1MAIL0000064232BR23        BRG1        BRG1COCO    BRG1COCO13AG2018022700:00:00OR  01000002848033000284803364232                              2018022720180228Z016CIF201802280000000000023305NN0                                                  0
2MAIL0000064232BR23        BRG1        BRG1COCO    BRG1COCO13AG00000100000000001228090100000000000003000000000000000000000000021389Z01620180228X066004960
2MAIL0000064232BR23        BRG1        BRG1COCO    BRG1COCO13AG00000200000000001236512900000000000000600000000000000000000000000958Z01620180228X066005000
2MAIL0000064232BR23        BRG1        BRG1COCO    BRG1COCO13AG00000300000000001236515000000000000000600000000000000000000000000958Z01620180228X066005000
1MAIL0000064233BR23        BRG1        BRG1COCO    BRG1COCO13AG2018022700:00:00OR  01000002848033000284803364233                              2018022720180228Z859CIF201802280000000000033941NN0                                                  0
2MAIL0000064233BR23        BRG1        BRG1COCO    BRG1COCO13AG00000100000000001235356200000000000001500000000000000000000000033941Z85920180228X066000000
1MAIL0000064234BR23        BRG1        BRG1COCO    BRG1COCO13AG2018022700:00:00OR  01000004995319000499531964234                              2018022720180228Z859CIF201802280000000000004526NN0                                                  0
2MAIL0000064234BR23        BRG1        BRG1COCO    BRG1COCO13AG00000100000000001235356200000000000000200000000000000000000000004526Z85920180228X066000000
1MAIL0000064235BR23        BRG1        BRG1COCO    BRG1COCO13AG2018022700:00:00OR  01000004995319000499531964235                              2018022720180228Z016CIF201802280000000000037609NN0                                                  0
2MAIL0000064235BR23        BRG1        BRG1COCO    BRG1COCO13AG00000100000000001132033100000000000000100000000000000000000000001810Z01620180228X066010000
2MAIL0000064235BR23        BRG1        BRG1COCO    BRG1COCO13AG00000200000000001132036700000000000000100000000000000000000000001810Z01620180228X066010000
2MAIL0000064235BR23        BRG1        BRG1COCO    BRG1COCO13AG00000300000000001228090100000000000003000000000000000000000000022286Z01620180228X066004960
2MAIL0000064235BR23        BRG1        BRG1COCO    BRG1COCO13AG00000400000000001233098400000000000001400000000000000000000000005401Z01620180228X066006000
2MAIL0000064235BR23        BRG1        BRG1COCO    BRG1COCO13AG00000500000000001236512800000000000000600000000000000000000000001029Z01620180228X066005000
2MAIL0000064235BR23        BRG1        BRG1COCO    BRG1COCO13AG00000600000000001236512900000000000000600000000000000000000000000958Z01620180228X066005000
2MAIL0000064235BR23        BRG1        BRG1COCO    BRG1COCO13AG00000700000000001236514100000000000000600000000000000000000000001029Z01620180228X066005000
2MAIL0000064235BR23        BRG1        BRG1COCO    BRG1COCO13AG00000800000000001236515000000000000000600000000000000000000000000958Z01620180228X066005000
2MAIL0000064235BR23        BRG1        BRG1COCO    BRG1COCO13AG00000900000000001236528200000000000000600000000000000000000000002328Z01620180228X066010000
1MAIL0000064236BR23        BRG1        BRG1COCO    BRG1COCO13AG2018022700:00:00OR  01000002980692000298069264236                              2018022720180228Z016CIF201802280000000000048343NN0                                                  0
2MAIL0000064236BR23        BRG1        BRG1COCO    BRG1COCO13AG00000100000000001228090100000000000002000000000000000000000000014858Z01620180228X066004960
2MAIL0000064236BR23        BRG1        BRG1COCO    BRG1COCO13AG00000200000000001231189200000000000000100000000000000000000000004713Z01620180228X066005000
2MAIL0000064236BR23        BRG1        BRG1COCO    BRG1COCO13AG00000300000000001231231200000000000000100000000000000000000000004713Z01620180228X066005000
2MAIL0000064236BR23        BRG1        BRG1COCO    BRG1COCO13AG00000400000000001233098400000000000001400000000000000000000000005171Z01620180228X066010000
2MAIL0000064236BR23        BRG1        BRG1COCO    BRG1COCO13AG00000500000000001235699700000000000001000000000000000000000000003858Z01620180228X066006000
2MAIL0000064236BR23        BRG1        BRG1COCO    BRG1COCO13AG00000600000000001235699800000000000001000000000000000000000000003858Z01620180228X066006000
2MAIL0000064236BR23        BRG1        BRG1COCO    BRG1COCO13AG00000700000000001236512900000000000003500000000000000000000000005586Z01620180228X066005000
2MAIL0000064236BR23        BRG1        BRG1COCO    BRG1COCO13AG00000800000000001236515000000000000003500000000000000000000000005586Z01620180228X066005000
1MAIL0000064237BR23        BRG1        BRG1COCO    BRG1COCO13AG2018022700:00:00OR  01000003180257000318025764237                              2018022720180228Z016CIF201802280000000000972146NN0                                                  0
2MAIL0000064237BR23        BRG1        BRG1COCO    BRG1COCO13AG00000100000000001228090100000000000150000000000000000000000000972146Z01620180228X066004960
1MAIL0000064238BR23        BRG1        BRG1COCO    BRG1COCO13AG2018022700:00:00OR  01000005438129000543812964238                              2018022720180228Z016CIF201802280000000000042778NN0                                                  0
2MAIL0000064238BR23        BRG1        BRG1COCO    BRG1COCO13AG00000100000000001228090100000000000006000000000000000000000000042778Z01620180228X066004960
1MAIL0000064239BR23        BRG1        BRG1COCO    BRG1COCO13AG2018022700:00:00OR  01000003483118000348311864239                              2018022720180228Z016CIF201802280000000000020437NN0                                                  0
2MAIL0000064239BR23        BRG1        BRG1COCO    BRG1COCO13AG00000100000000001228090100000000000003000000000000000000000000020437Z01620180228X066000100
1MAIL0000064240BR23        BRG1        BRG1COCO    BRG1COCO13AG2018022700:00:00OR  01000003054678000305467864240                              2018022720180228Z016CIF201802280000000000005819NN0                                                  0
2MAIL0000064240BR23        BRG1        BRG1COCO    BRG1COCO13AG00000100000000001235699500000000000000200000000000000000000000005819Z01620180228X066000000
1MAIL0000064241BR23        BRG1        BRG1COCO    BRG1COCO13AG2018022700:00:00OR  01000003054678000305467864241                              2018022720180228Z016CIF201802280000000000005611NN0                                                  0
2MAIL0000064241BR23        BRG1        BRG1COCO    BRG1COCO13AG00000100000000001236512800000000000002000000000000000000000000003217Z01620180228X066008000
2MAIL0000064241BR23        BRG1        BRG1COCO    BRG1COCO13AG00000200000000001236515000000000000001500000000000000000000000002394Z01620180228X066005000
1MAIL0000064242BR23        BRG1        BRG1COCO    BRG1COCO13AG2018022700:00:00OR  01000005454560000545456064242                              2018022720180228Z016CIF201802280000000000034789NN0                                                  0
2MAIL0000064242BR23        BRG1        BRG1COCO    BRG1COCO13AG00000100000000001228090100000000000003000000000000000000000000020437Z01620180228X066000100
2MAIL0000064242BR23        BRG1        BRG1COCO    BRG1COCO13AG00000200000000001233098400000000000002800000000000000000000000010024Z01620180228X066000000
2MAIL0000064242BR23        BRG1        BRG1COCO    BRG1COCO13AG00000300000000001234705800000000000000100000000000000000000000004328Z01620180228X066000000
1MAIL0000064243BR23        BRG1        BRG1COCO    BRG1COCO13AG2018022700:00:00OR  01000003900294000390029464243                              2018022720180228Z016CIF201802280000000000020643NN0                                                  0
2MAIL0000064243BR23        BRG1        BRG1COCO    BRG1COCO13AG00000100000000001132200400000000000000500000000000000000000000009329Z01620180228X066000000
2MAIL0000064243BR23        BRG1        BRG1COCO    BRG1COCO13AG00000200000000001235356200000000000000500000000000000000000000011314Z01620180228X066000000
1MAIL0000064244BR23        BRG1        BRG1COCO    BRG1COCO13AG2018022700:00:00OR  01000002925510000292551064244                              2018022720180228Z016CIF201802280000000000011314NN0                                                  0
2MAIL0000064244BR23        BRG1        BRG1COCO    BRG1COCO13AG00000100000000001235356200000000000000500000000000000000000000011314Z01620180228X066000000
1MAIL0000064245BR23        BRG1        BRG1COCO    BRG1COCO13AG2018022700:00:00OR  01000005298012000529801264245                              2018022720180228Z016CIF201802280000000000032972NN0                                                  0
2MAIL0000064245BR23        BRG1        BRG1COCO    BRG1COCO13AG00000100000000001132019800000000000000300000000000000000000000006897Z01620180228X066000000
2MAIL0000064245BR23        BRG1        BRG1COCO    BRG1COCO13AG00000200000000001132020900000000000000300000000000000000000000006897Z01620180228X066000000
2MAIL0000064245BR23        BRG1        BRG1COCO    BRG1COCO13AG00000300000000001132036700000000000000600000000000000000000000009849Z01620180228X066015000
2MAIL0000064245BR23        BRG1        BRG1COCO    BRG1COCO13AG00000400000000001132200400000000000000500000000000000000000000009329Z01620180228X066000000
1MAIL0000064246BR23        BRG1        BRG1COCO    BRG1COCO13AG2018022700:00:00OR  01000004226528000422652864246                              2018022720180228Z016CIF201802280000000000006921NN0                                                  0
2MAIL0000064246BR23        BRG1        BRG1COCO    BRG1COCO13AG00000100000000001132036700000000000000100000000000000000000000001750Z01620180228X066013000
2MAIL0000064246BR23        BRG1        BRG1COCO    BRG1COCO13AG00000200000000001233098400000000000001400000000000000000000000005171Z01620180228X066010000
1MAIL0000064247BR23        BRG1        BRG1COCO    BRG1COCO13AG2018022700:00:00OR  01000003331177000333117764247                              2018022720180228Z016CIF201802280000000000016956NN0                                                  0
2MAIL0000064247BR23        BRG1        BRG1COCO    BRG1COCO13AG00000100000000001132033100000000000000200000000000000000000000003501Z01620180228X066013000
2MAIL0000064247BR23        BRG1        BRG1COCO    BRG1COCO13AG00000200000000001132036700000000000000300000000000000000000000005251Z01620180228X066013000
2MAIL0000064247BR23        BRG1        BRG1COCO    BRG1COCO13AG00000300000000001228090100000000000000500000000000000000000000003714Z01620180228X066004960
2MAIL0000064247BR23        BRG1        BRG1COCO    BRG1COCO13AG00000400000000001228100400000000000000200000000000000000000000004490Z01620180228X066018000
1MAIL0000064248BR23        BRG1        BRG1COCO    BRG1COCO13AG2018022700:00:00OR  01000003070521000307052164248                              2018022720180228Z016CIF201802280000000000038245NN0                                                  0
2MAIL0000064248BR23        BRG1        BRG1COCO    BRG1COCO13AG00000100000000001132033100000000000000200000000000000000000000003476Z01620180228X066010000
2MAIL0000064248BR23        BRG1        BRG1COCO    BRG1COCO13AG00000200000000001132036700000000000000200000000000000000000000003476Z01620180228X066010000
2MAIL0000064248BR23        BRG1        BRG1COCO    BRG1COCO13AG00000300000000001132200400000000000000600000000000000000000000011194Z01620180228X066000000
2MAIL0000064248BR23        BRG1        BRG1COCO    BRG1COCO13AG00000400000000001215533700000000000000300000000000000000000000005213Z01620180228X066010000
2MAIL0000064248BR23        BRG1        BRG1COCO    BRG1COCO13AG00000500000000001233081900000000000001400000000000000000000000004962Z01620180228X066010000
2MAIL0000064248BR23        BRG1        BRG1COCO    BRG1COCO13AG00000600000000001233098400000000000001400000000000000000000000004962Z01620180228X066010000
2MAIL0000064248BR23        BRG1        BRG1COCO    BRG1COCO13AG00000700000000001233154200000000000001400000000000000000000000004962Z01620180228X066010000
