1MAIL0000064981BR23        BRG1        BRG1COCO    BRG1COCO13AG2018030200:00:00OR  01000003059673000305967364981                              2018030220180303Z016CIF201803030000000000047980NN0                                                  0
2MAIL0000064981BR23        BRG1        BRG1COCO    BRG1COCO13AG00000100000000001132033100000000000000200000000000000000000000003420Z01620180303X066015000
2MAIL0000064981BR23        BRG1        BRG1COCO    BRG1COCO13AG00000200000000001132036700000000000000200000000000000000000000003420Z01620180303X066015000
2MAIL0000064981BR23        BRG1        BRG1COCO    BRG1COCO13AG00000300000000001223975300000000000000200000000000000000000000009430Z01620180303X066004950
2MAIL0000064981BR23        BRG1        BRG1COCO    BRG1COCO13AG00000400000000001227395500000000000000200000000000000000000000003420Z01620180303X066015000
2MAIL0000064981BR23        BRG1        BRG1COCO    BRG1COCO13AG00000500000000001228512700000000000000200000000000000000000000009430Z01620180303X066004950
2MAIL0000064981BR23        BRG1        BRG1COCO    BRG1COCO13AG00000600000000001231189200000000000000200000000000000000000000009430Z01620180303X066004950
2MAIL0000064981BR23        BRG1        BRG1COCO    BRG1COCO13AG00000700000000001231231200000000000000200000000000000000000000009430Z01620180303X066004950
1MAIL0000064982BR23        BRG1        BRG1COCO    BRG1COCO13AG2018030200:00:00OR  01000002874040000287404064982                              2018030220180303Z016CIF201803030000000000012607NN0                                                  0
2MAIL0000064982BR23        BRG1        BRG1COCO    BRG1COCO13AG00000100000000001235356200000000000000300000000000000000000000006788Z01620180303X066000000
2MAIL0000064982BR23        BRG1        BRG1COCO    BRG1COCO13AG00000200000000001235737300000000000000200000000000000000000000005819Z01620180303X066000000
1MAIL0000064983BR23        BRG1        BRG1COCO    BRG1COCO13AG2018030200:00:00OR  01000004965879000496587964983                              2018030220180303Z859CIF201803030000000000012607NN0                                                  0
2MAIL0000064983BR23        BRG1        BRG1COCO    BRG1COCO13AG00000100000000001235356200000000000000300000000000000000000000006788Z85920180303X066000000
2MAIL0000064983BR23        BRG1        BRG1COCO    BRG1COCO13AG00000200000000001235737300000000000000200000000000000000000000005819Z85920180303X066000000
1MAIL0000064984BR23        BRG1        BRG1COCO    BRG1COCO13AG2018030200:00:00OR  01000003755715000375571564984                              2018030220180303Z016CIF201803030000000000029879NN0                                                  0
2MAIL0000064984BR23        BRG1        BRG1COCO    BRG1COCO13AG00000100000000001132036700000000000000200000000000000000000000003474Z01620180303X066010000
2MAIL0000064984BR23        BRG1        BRG1COCO    BRG1COCO13AG00000200000000001132200400000000000000200000000000000000000000003552Z01620180303X066004800
2MAIL0000064984BR23        BRG1        BRG1COCO    BRG1COCO13AG00000300000000001215533700000000000000200000000000000000000000003474Z01620180303X066010000
2MAIL0000064984BR23        BRG1        BRG1COCO    BRG1COCO13AG00000400000000001233098600000000000001400000000000000000000000005183Z01620180303X066006000
2MAIL0000064984BR23        BRG1        BRG1COCO    BRG1COCO13AG00000500000000001233154200000000000001400000000000000000000000005183Z01620180303X066006000
2MAIL0000064984BR23        BRG1        BRG1COCO    BRG1COCO13AG00000600000000001234708700000000000001400000000000000000000000005183Z01620180303X066006000
2MAIL0000064984BR23        BRG1        BRG1COCO    BRG1COCO13AG00000700000000001236512900000000000001200000000000000000000000001915Z01620180303X066005000
2MAIL0000064984BR23        BRG1        BRG1COCO    BRG1COCO13AG00000800000000001236515000000000000001200000000000000000000000001915Z01620180303X066005000
1MAIL0000064985BR23        BRG1        BRG1COCO    BRG1COCO13AG2018030200:00:00OR  01000003755715000375571564985                              2018030220180303Z859CIF201803030000000000004526NN0                                                  0
2MAIL0000064985BR23        BRG1        BRG1COCO    BRG1COCO13AG00000100000000001235356200000000000000200000000000000000000000004526Z85920180303X066000000
