1MAIL0000066100BR23        BRG1        BRG1COCO    BRG1COCO13AG2018030800:00:00OR  01000004769742000476974266100                              2018030820180310Z016CIF201803100000000000014967NN0                                                  0
2MAIL0000066100BR23        BRG1        BRG1COCO    BRG1COCO13AG00000100000000001132004000000000000002000000000000000000000000014967Z01620180310X066005000
1MAIL0000066101BR23        BRG1        BRG1COCO    BRG1COCO13AG2018030800:00:00OR  01000005259257000525925766101                              2018030820180310Z016CIF201803100000000000004923NN0                                                  0
2MAIL0000066101BR23        BRG1        BRG1COCO    BRG1COCO13AG00000100000000001132033100000000000000100000000000000000000000001641Z01620180310X066015000
2MAIL0000066101BR23        BRG1        BRG1COCO    BRG1COCO13AG00000200000000001132036700000000000000100000000000000000000000001641Z01620180310X066015000
2MAIL0000066101BR23        BRG1        BRG1COCO    BRG1COCO13AG00000300000000001215533700000000000000100000000000000000000000001641Z01620180310X066015000
1MAIL0000066102BR23        BRG1        BRG1COCO    BRG1COCO13AG2018030800:00:00OR  01000001338841000133884166102                              2018030820180310Z016CIF201803100000000000036025NN0                                                  0
2MAIL0000066102BR23        BRG1        BRG1COCO    BRG1COCO13AG00000100000000001132019700000000000000200000000000000000000000004369Z01620180310X066005000
2MAIL0000066102BR23        BRG1        BRG1COCO    BRG1COCO13AG00000200000000001132019800000000000000100000000000000000000000002184Z01620180310X066005000
2MAIL0000066102BR23        BRG1        BRG1COCO    BRG1COCO13AG00000300000000001132019900000000000000100000000000000000000000002184Z01620180310X066005000
2MAIL0000066102BR23        BRG1        BRG1COCO    BRG1COCO13AG00000400000000001132033100000000000000200000000000000000000000003282Z01620180310X066015000
2MAIL0000066102BR23        BRG1        BRG1COCO    BRG1COCO13AG00000500000000001132036700000000000000600000000000000000000000009849Z01620180310X066015000
2MAIL0000066102BR23        BRG1        BRG1COCO    BRG1COCO13AG00000600000000001215533700000000000000400000000000000000000000006566Z01620180310X066015000
2MAIL0000066102BR23        BRG1        BRG1COCO    BRG1COCO13AG00000700000000001228100400000000000000200000000000000000000000004309Z01620180310X066018000
2MAIL0000066102BR23        BRG1        BRG1COCO    BRG1COCO13AG00000800000000001231389600000000000000200000000000000000000000003282Z01620180310X066015000
1MAIL0000066110BR23        BRG1        BRG1COCO    BRG1COCO13AG2018030800:00:00OR  01000004363365000436336566110                              2018030820180310Z016CIF201803100000000000013577NN0                                                  0
2MAIL0000066110BR23        BRG1        BRG1COCO    BRG1COCO13AG00000100000000001235356200000000000000600000000000000000000000013577Z01620180310X066000000
1MAIL0000066111BR23        BRG1        BRG1COCO    BRG1COCO13AG2018030800:00:00OR  01000003830039000383003966111                              2018030820180310Z016CIF201803100000000000005173NN0                                                  0
2MAIL0000066111BR23        BRG1        BRG1COCO    BRG1COCO13AG00000100000000001235356200000000000000100000000000000000000000002263Z01620180310X066000000
2MAIL0000066111BR23        BRG1        BRG1COCO    BRG1COCO13AG00000200000000001235737300000000000000100000000000000000000000002910Z01620180310X066000000
1MAIL0000066112BR23        BRG1        BRG1COCO    BRG1COCO13AG2018030800:00:00OR  01000003830039000383003966112                              2018030820180310Z016CIF201803100000000000074465NN0                                                  0
2MAIL0000066112BR23        BRG1        BRG1COCO    BRG1COCO13AG00000100000000001132200400000000000000200000000000000000000000003550Z01620180310X066004850
2MAIL0000066112BR23        BRG1        BRG1COCO    BRG1COCO13AG00000200000000001132213000000000000000100000000000000000000000003771Z01620180310X066004950
2MAIL0000066112BR23        BRG1        BRG1COCO    BRG1COCO13AG00000300000000001132213100000000000000100000000000000000000000003771Z01620180310X066004950
2MAIL0000066112BR23        BRG1        BRG1COCO    BRG1COCO13AG00000400000000001221415400000000000000100000000000000000000000003598Z01620180310X066025000
2MAIL0000066112BR23        BRG1        BRG1COCO    BRG1COCO13AG00000500000000001223975300000000000000100000000000000000000000004522Z01620180310X066005000
2MAIL0000066112BR23        BRG1        BRG1COCO    BRG1COCO13AG00000600000000001228090100000000000000500000000000000000000000003565Z01620180310X066004960
2MAIL0000066112BR23        BRG1        BRG1COCO    BRG1COCO13AG00000700000000001228100400000000000000100000000000000000000000002155Z01620180310X066018000
2MAIL0000066112BR23        BRG1        BRG1COCO    BRG1COCO13AG00000800000000001228274000000000000000100000000000000000000000004522Z01620180310X066005000
2MAIL0000066112BR23        BRG1        BRG1COCO    BRG1COCO13AG00000900000000001228512700000000000000100000000000000000000000004522Z01620180310X066005000
2MAIL0000066112BR23        BRG1        BRG1COCO    BRG1COCO13AG00001000000000001231189200000000000000100000000000000000000000004522Z01620180310X066005000
2MAIL0000066112BR23        BRG1        BRG1COCO    BRG1COCO13AG00001100000000001231231200000000000000100000000000000000000000004522Z01620180310X066005000
2MAIL0000066112BR23        BRG1        BRG1COCO    BRG1COCO13AG00001200000000001233081900000000000001400000000000000000000000004967Z01620180310X066009920
2MAIL0000066112BR23        BRG1        BRG1COCO    BRG1COCO13AG00001300000000001233098400000000000001400000000000000000000000004967Z01620180310X066009920
2MAIL0000066112BR23        BRG1        BRG1COCO    BRG1COCO13AG00001400000000001233098500000000000001400000000000000000000000004967Z01620180310X066009920
2MAIL0000066112BR23        BRG1        BRG1COCO    BRG1COCO13AG00001500000000001234705700000000000000100000000000000000000000004522Z01620180310X066005000
2MAIL0000066112BR23        BRG1        BRG1COCO    BRG1COCO13AG00001600000000001234705800000000000000100000000000000000000000004522Z01620180310X066005000
2MAIL0000066112BR23        BRG1        BRG1COCO    BRG1COCO13AG00001700000000001236512800000000000000600000000000000000000000001049Z01620180310X066000000
2MAIL0000066112BR23        BRG1        BRG1COCO    BRG1COCO13AG00001800000000001236512900000000000000600000000000000000000000001126Z01620180310X066000000
2MAIL0000066112BR23        BRG1        BRG1COCO    BRG1COCO13AG00001900000000001236514100000000000000600000000000000000000000001049Z01620180310X066000000
2MAIL0000066112BR23        BRG1        BRG1COCO    BRG1COCO13AG00002000000000001236515000000000000000600000000000000000000000001126Z01620180310X066000000
2MAIL0000066112BR23        BRG1        BRG1COCO    BRG1COCO13AG00002100000000001236528200000000000000600000000000000000000000003150Z01620180310X066000000
1MAIL0000066113BR23        BRG1        BRG1COCO    BRG1COCO13AG2018030800:00:00OR  01000002882330000288233066113                              2018030820180310Z016CIF201803100000000000106433NN0                                                  0
2MAIL0000066113BR23        BRG1        BRG1COCO    BRG1COCO13AG00000100000000001132030900000000000001200000000000000000000000036078Z01620180310X066015000
2MAIL0000066113BR23        BRG1        BRG1COCO    BRG1COCO13AG00000200000000001132033900000000000001200000000000000000000000038387Z01620180310X066015000
2MAIL0000066113BR23        BRG1        BRG1COCO    BRG1COCO13AG00000300000000001132185100000000000001200000000000000000000000031968Z01620180310X066015000
1MAIL0000066114BR23        BRG1        BRG1COCO    BRG1COCO13AG2018030800:00:00OR  01000002870617000287061766114                              2018030820180310Z016CIF201803100000000000270179NN0                                                  0
2MAIL0000066114BR23        BRG1        BRG1COCO    BRG1COCO13AG00000100000000001132030800000000000003600000000000000000000000103009Z01620180310X066015000
2MAIL0000066114BR23        BRG1        BRG1COCO    BRG1COCO13AG00000200000000001132030900000000000001200000000000000000000000035401Z01620180310X066015000
2MAIL0000066114BR23        BRG1        BRG1COCO    BRG1COCO13AG00000300000000001132033900000000000001200000000000000000000000037667Z01620180310X066015000
2MAIL0000066114BR23        BRG1        BRG1COCO    BRG1COCO13AG00000400000000001132185100000000000003600000000000000000000000094102Z01620180310X066015000
1MAIL0000066115BR23        BRG1        BRG1COCO    BRG1COCO13AG2018030800:00:00OR  01000005517103000551710366115                              2018030820180310Z016CIF201803100000000000040085NN0                                                  0
2MAIL0000066115BR23        BRG1        BRG1COCO    BRG1COCO13AG00000100000000001235356200000000000001000000000000000000000000022628Z01620180310X066000000
2MAIL0000066115BR23        BRG1        BRG1COCO    BRG1COCO13AG00000200000000001235737300000000000000600000000000000000000000017457Z01620180310X066000000
1MAIL0000066116BR23        BRG1        BRG1COCO    BRG1COCO13AG2018030800:00:00OR  01000005517103000551710366116                              2018030820180310Z016CIF201803100000000000099862NN0                                                  0
2MAIL0000066116BR23        BRG1        BRG1COCO    BRG1COCO13AG00000100000000001132019800000000000000100000000000000000000000002184Z01620180310X066005000
2MAIL0000066116BR23        BRG1        BRG1COCO    BRG1COCO13AG00000200000000001132020900000000000000100000000000000000000000002184Z01620180310X066005000
2MAIL0000066116BR23        BRG1        BRG1COCO    BRG1COCO13AG00000300000000001132036700000000000000100000000000000000000000001641Z01620180310X066015000
2MAIL0000066116BR23        BRG1        BRG1COCO    BRG1COCO13AG00000400000000001132200400000000000000100000000000000000000000001775Z01620180310X066004850
2MAIL0000066116BR23        BRG1        BRG1COCO    BRG1COCO13AG00000500000000001215533700000000000000100000000000000000000000001641Z01620180310X066015000
2MAIL0000066116BR23        BRG1        BRG1COCO    BRG1COCO13AG00000600000000001221415400000000000000100000000000000000000000003598Z01620180310X066025000
2MAIL0000066116BR23        BRG1        BRG1COCO    BRG1COCO13AG00000700000000001226089600000000000001200000000000000000000000004055Z01620180310X066009920
2MAIL0000066116BR23        BRG1        BRG1COCO    BRG1COCO13AG00000800000000001227395500000000000000100000000000000000000000001641Z01620180310X066015000
2MAIL0000066116BR23        BRG1        BRG1COCO    BRG1COCO13AG00000900000000001228090100000000000009000000000000000000000000067515Z01620180310X066000000
2MAIL0000066116BR23        BRG1        BRG1COCO    BRG1COCO13AG00001000000000001228100400000000000000100000000000000000000000002155Z01620180310X066018000
2MAIL0000066116BR23        BRG1        BRG1COCO    BRG1COCO13AG00001100000000001233695100000000000000100000000000000000000000001641Z01620180310X066015000
2MAIL0000066116BR23        BRG1        BRG1COCO    BRG1COCO13AG00001200000000001235699800000000000001000000000000000000000000003702Z01620180310X066006000
2MAIL0000066116BR23        BRG1        BRG1COCO    BRG1COCO13AG00001300000000001236512800000000000001200000000000000000000000002098Z01620180310X066000000
2MAIL0000066116BR23        BRG1        BRG1COCO    BRG1COCO13AG00001400000000001236512900000000000001200000000000000000000000002016Z01620180310X066000000
2MAIL0000066116BR23        BRG1        BRG1COCO    BRG1COCO13AG00001500000000001236515000000000000001200000000000000000000000002016Z01620180310X066000000
