1MAIL0000065990BR23        BRG1        BRG1COCO    BRG1COCO13AG2018021400:00:00OR  01000000928097000092809765990                              2018021420180310Z859CIF201803100000000000535337NN0                                                  0
2MAIL0000065990BR23        BRG1        BRG1COCO    BRG1COCO13AG00000100000000001225663500000000000001500000000000000000000000033941Z85920180310X066000000
2MAIL0000065990BR23        BRG1        BRG1COCO    BRG1COCO13AG00000200000000001232035700000000000001500000000000000000000000033941Z85920180310X066000000
2MAIL0000065990BR23        BRG1        BRG1COCO    BRG1COCO13AG00000300000000001234816400000000000003000000000000000000000000087287Z85920180310X066000000
2MAIL0000065990BR23        BRG1        BRG1COCO    BRG1COCO13AG00000400000000001234831400000000000003000000000000000000000000087287Z85920180310X066000000
2MAIL0000065990BR23        BRG1        BRG1COCO    BRG1COCO13AG00000500000000001235356200000000000003000000000000000000000000067883Z85920180310X066000000
2MAIL0000065990BR23        BRG1        BRG1COCO    BRG1COCO13AG00000600000000001235449300000000000001500000000000000000000000033941Z85920180310X066000000
2MAIL0000065990BR23        BRG1        BRG1COCO    BRG1COCO13AG00000700000000001235699500000000000003000000000000000000000000087287Z85920180310X066000000
2MAIL0000065990BR23        BRG1        BRG1COCO    BRG1COCO13AG00000800000000001235737300000000000002400000000000000000000000069829Z85920180310X066000000
2MAIL0000065990BR23        BRG1        BRG1COCO    BRG1COCO13AG00000900000000001236073500000000000001500000000000000000000000033941Z85920180310X066000000
