1MAIL0000065009BR23        BRG1        BRG1COCO    BRG1COCO13AG2018030200:00:00OR  01000004764950000476495065009                              2018030220180303Z859CIF201803030000000000134802NN0                                                  0
2MAIL0000065009BR23        BRG1        BRG1COCO    BRG1COCO13AG00000100000000001235356200000000000003000000000000000000000000067883Z85920180303X066000000
2MAIL0000065009BR23        BRG1        BRG1COCO    BRG1COCO13AG00000200000000001235699500000000000001500000000000000000000000043643Z85920180303X066000000
2MAIL0000065009BR23        BRG1        BRG1COCO    BRG1COCO13AG00000300000000001235737300000000000000800000000000000000000000023276Z85920180303X066000000
1MAIL0000065010BR23        BRG1        BRG1COCO    BRG1COCO13AG2018030200:00:00OR  01000004347076000434707665010                              2018030220180303Z859CIF201803030000000000057217NN0                                                  0
2MAIL0000065010BR23        BRG1        BRG1COCO    BRG1COCO13AG00000100000000001235356200000000000001500000000000000000000000033941Z85920180303X066000000
2MAIL0000065010BR23        BRG1        BRG1COCO    BRG1COCO13AG00000200000000001235737300000000000000800000000000000000000000023276Z85920180303X066000000
1MAIL0000065011BR23        BRG1        BRG1COCO    BRG1COCO13AG2018030200:00:00OR  01000004347076000434707665011                              2018030220180303Z016CIF201803030000000000066438NN0                                                  0
2MAIL0000065011BR23        BRG1        BRG1COCO    BRG1COCO13AG00000100000000001132018300000000000000100000000000000000000000003598Z01620180303X066025000
2MAIL0000065011BR23        BRG1        BRG1COCO    BRG1COCO13AG00000200000000001132019700000000000000100000000000000000000000002184Z01620180303X066005000
2MAIL0000065011BR23        BRG1        BRG1COCO    BRG1COCO13AG00000300000000001132019800000000000000100000000000000000000000002184Z01620180303X066005000
2MAIL0000065011BR23        BRG1        BRG1COCO    BRG1COCO13AG00000400000000001132033100000000000000400000000000000000000000006566Z01620180303X066015000
2MAIL0000065011BR23        BRG1        BRG1COCO    BRG1COCO13AG00000500000000001132036700000000000000600000000000000000000000009849Z01620180303X066015000
2MAIL0000065011BR23        BRG1        BRG1COCO    BRG1COCO13AG00000600000000001132200400000000000000200000000000000000000000003550Z01620180303X066004850
2MAIL0000065011BR23        BRG1        BRG1COCO    BRG1COCO13AG00000700000000001215533700000000000000400000000000000000000000006566Z01620180303X066015000
2MAIL0000065011BR23        BRG1        BRG1COCO    BRG1COCO13AG00000800000000001221415400000000000000100000000000000000000000003598Z01620180303X066025000
2MAIL0000065011BR23        BRG1        BRG1COCO    BRG1COCO13AG00000900000000001223975300000000000000100000000000000000000000004522Z01620180303X066005000
2MAIL0000065011BR23        BRG1        BRG1COCO    BRG1COCO13AG00001000000000001226089600000000000001200000000000000000000000004051Z01620180303X066010000
2MAIL0000065011BR23        BRG1        BRG1COCO    BRG1COCO13AG00001100000000001227395500000000000000200000000000000000000000003282Z01620180303X066015000
2MAIL0000065011BR23        BRG1        BRG1COCO    BRG1COCO13AG00001200000000001231389600000000000000200000000000000000000000003282Z01620180303X066015000
2MAIL0000065011BR23        BRG1        BRG1COCO    BRG1COCO13AG00001300000000001233098400000000000001400000000000000000000000004962Z01620180303X066010000
2MAIL0000065011BR23        BRG1        BRG1COCO    BRG1COCO13AG00001400000000001233154200000000000001400000000000000000000000004962Z01620180303X066010000
2MAIL0000065011BR23        BRG1        BRG1COCO    BRG1COCO13AG00001500000000001233695100000000000000200000000000000000000000003282Z01620180303X066015000
