1MAIL0000065332BR23        BRG1        BRG1COCO    BRG1COCO13AG2018030600:00:00OR  01000005354947000535494765332                              2018030620180310Z859CIF201803100000000000011314NN0                                                  0
2MAIL0000065332BR23        BRG1        BRG1COCO    BRG1COCO13AG00000100000000001235356200000000000000500000000000000000000000011314Z85920180310X066000000
1MAIL0000065333BR23        BRG1        BRG1COCO    BRG1COCO13AG2018030600:00:00OR  01000005175944000517594465333                              2018030620180310Z016CIF201803100000000000213887NN0                                                  0
2MAIL0000065333BR23        BRG1        BRG1COCO    BRG1COCO13AG00000100000000001228090100000000000030000000000000000000000000213887Z01620180310X066004960
1MAIL0000065334BR23        BRG1        BRG1COCO    BRG1COCO13AG2018030600:00:00OR  01000002973876000297387665334                              2018030620180310Z016CIF201803100000000000506314NN0                                                  0
2MAIL0000065334BR23        BRG1        BRG1COCO    BRG1COCO13AG00000100000000001132004000000000000000500000000000000000000000003742Z01620180310X066005000
2MAIL0000065334BR23        BRG1        BRG1COCO    BRG1COCO13AG00000200000000001132004200000000000000500000000000000000000000005686Z01620180310X066005000
2MAIL0000065334BR23        BRG1        BRG1COCO    BRG1COCO13AG00000300000000001132019700000000000000100000000000000000000000002184Z01620180310X066005000
2MAIL0000065334BR23        BRG1        BRG1COCO    BRG1COCO13AG00000400000000001132030800000000000000600000000000000000000000018669Z01620180310X066018000
2MAIL0000065334BR23        BRG1        BRG1COCO    BRG1COCO13AG00000500000000001132030900000000000000400000000000000000000000012831Z01620180310X066018000
2MAIL0000065334BR23        BRG1        BRG1COCO    BRG1COCO13AG00000600000000001132033100000000000000500000000000000000000000008208Z01620180310X066015000
2MAIL0000065334BR23        BRG1        BRG1COCO    BRG1COCO13AG00000700000000001132033900000000000000200000000000000000000000006826Z01620180310X066018000
2MAIL0000065334BR23        BRG1        BRG1COCO    BRG1COCO13AG00000800000000001132035100000000000000500000000000000000000000007392Z01620180310X066015000
2MAIL0000065334BR23        BRG1        BRG1COCO    BRG1COCO13AG00000900000000001132036700000000000000500000000000000000000000008208Z01620180310X066015000
2MAIL0000065334BR23        BRG1        BRG1COCO    BRG1COCO13AG00001000000000001132185100000000000000200000000000000000000000005685Z01620180310X066018000
2MAIL0000065334BR23        BRG1        BRG1COCO    BRG1COCO13AG00001100000000001132200400000000000000200000000000000000000000003582Z01620180310X066004000
2MAIL0000065334BR23        BRG1        BRG1COCO    BRG1COCO13AG00001200000000001215533700000000000000300000000000000000000000004923Z01620180310X066015000
2MAIL0000065334BR23        BRG1        BRG1COCO    BRG1COCO13AG00001300000000001221415400000000000000100000000000000000000000004078Z01620180310X066015000
2MAIL0000065334BR23        BRG1        BRG1COCO    BRG1COCO13AG00001400000000001223975300000000000000100000000000000000000000004112Z01620180310X066005000
2MAIL0000065334BR23        BRG1        BRG1COCO    BRG1COCO13AG00001500000000001227735000000000000000100000000000000000000000002184Z01620180310X066005000
2MAIL0000065334BR23        BRG1        BRG1COCO    BRG1COCO13AG00001600000000001228090100000000000060000000000000000000000000389104Z01620180310X066004900
2MAIL0000065334BR23        BRG1        BRG1COCO    BRG1COCO13AG00001700000000001231231200000000000000100000000000000000000000004112Z01620180310X066005000
2MAIL0000065334BR23        BRG1        BRG1COCO    BRG1COCO13AG00001800000000001231389600000000000000200000000000000000000000003282Z01620180310X066015000
2MAIL0000065334BR23        BRG1        BRG1COCO    BRG1COCO13AG00001900000000001233695100000000000000200000000000000000000000003282Z01620180310X066015000
2MAIL0000065334BR23        BRG1        BRG1COCO    BRG1COCO13AG00002000000000001234705700000000000000100000000000000000000000004112Z01620180310X066005000
2MAIL0000065334BR23        BRG1        BRG1COCO    BRG1COCO13AG00002100000000001234705800000000000000100000000000000000000000004112Z01620180310X066005000
1MAIL0000065335BR23        BRG1        BRG1COCO    BRG1COCO13AG2018030600:00:00OR  01000003899208000389920865335                              2018030620180310Z016CIF201803100000000000019454NN0                                                  0
2MAIL0000065335BR23        BRG1        BRG1COCO    BRG1COCO13AG00000100000000001228090100000000000003000000000000000000000000019454Z01620180310X066004900
1MAIL0000065336BR23        BRG1        BRG1COCO    BRG1COCO13AG2018030600:00:00OR  01000004872357000487235765336                              2018030620180310Z016CIF201803100000000000334100NN0                                                  0
2MAIL0000065336BR23        BRG1        BRG1COCO    BRG1COCO13AG00000100000000001228090100000000000045000000000000000000000000334100Z01620180310X066004960
1MAIL0000065337BR23        BRG1        BRG1COCO    BRG1COCO13AG2018030600:00:00OR  01000004872357000487235765337                              2018030620180310Z016CIF201803100000000000779567NN0                                                  0
2MAIL0000065337BR23        BRG1        BRG1COCO    BRG1COCO13AG00000100000000001228090100000000000105000000000000000000000000779567Z01620180310X066004960
1MAIL0000065338BR23        BRG1        BRG1COCO    BRG1COCO13AG2018030600:00:00OR  01000004872357000487235765338                              2018030620180310Z859CIF201803100000000000107955NN0                                                  0
2MAIL0000065338BR23        BRG1        BRG1COCO    BRG1COCO13AG00000100000000001235356200000000000003000000000000000000000000064040Z85920180310X066000000
2MAIL0000065338BR23        BRG1        BRG1COCO    BRG1COCO13AG00000200000000001235737300000000000001600000000000000000000000043915Z85920180310X066000000
1MAIL0000065339BR23        BRG1        BRG1COCO    BRG1COCO13AG2018030600:00:00OR  01000005109123000510912365339                              2018030620180310Z016CIF201803100000000000102971NN0                                                  0
2MAIL0000065339BR23        BRG1        BRG1COCO    BRG1COCO13AG00000100000000001132033100000000000001600000000000000000000000025743Z01620180310X066007000
2MAIL0000065339BR23        BRG1        BRG1COCO    BRG1COCO13AG00000200000000001132036700000000000003200000000000000000000000051485Z01620180310X066007000
2MAIL0000065339BR23        BRG1        BRG1COCO    BRG1COCO13AG00000300000000001215533700000000000001600000000000000000000000025743Z01620180310X066007000
1MAIL0000065340BR23        BRG1        BRG1COCO    BRG1COCO13AG2018030600:00:00OR  01000005109123000510912365340                              2018030620180310Z859CIF201803100000000000007014NN0                                                  0
2MAIL0000065340BR23        BRG1        BRG1COCO    BRG1COCO13AG00000100000000001235356200000000000000200000000000000000000000004269Z85920180310X066000000
2MAIL0000065340BR23        BRG1        BRG1COCO    BRG1COCO13AG00000200000000001235737300000000000000100000000000000000000000002745Z85920180310X066000000
1MAIL0000065341BR23        BRG1        BRG1COCO    BRG1COCO13AG2018030600:00:00OR  01000005538710000553871065341                              2018030620180310Z016CIF201803100000000000032421NN0                                                  0
2MAIL0000065341BR23        BRG1        BRG1COCO    BRG1COCO13AG00000100000000001132019800000000000000100000000000000000000000002396Z01620180310X066000000
2MAIL0000065341BR23        BRG1        BRG1COCO    BRG1COCO13AG00000200000000001132019900000000000000100000000000000000000000002396Z01620180310X066000000
2MAIL0000065341BR23        BRG1        BRG1COCO    BRG1COCO13AG00000300000000001132020900000000000000100000000000000000000000002396Z01620180310X066000000
2MAIL0000065341BR23        BRG1        BRG1COCO    BRG1COCO13AG00000400000000001132033100000000000000100000000000000000000000002012Z01620180310X066000000
2MAIL0000065341BR23        BRG1        BRG1COCO    BRG1COCO13AG00000500000000001132036700000000000000200000000000000000000000004024Z01620180310X066000000
2MAIL0000065341BR23        BRG1        BRG1COCO    BRG1COCO13AG00000600000000001215533700000000000000100000000000000000000000002012Z01620180310X066000000
2MAIL0000065341BR23        BRG1        BRG1COCO    BRG1COCO13AG00000700000000001227395500000000000000100000000000000000000000002012Z01620180310X066000000
2MAIL0000065341BR23        BRG1        BRG1COCO    BRG1COCO13AG00000800000000001227735000000000000000100000000000000000000000002396Z01620180310X066000000
2MAIL0000065341BR23        BRG1        BRG1COCO    BRG1COCO13AG00000900000000001228090100000000000001000000000000000000000000007816Z01620180310X066000000
2MAIL0000065341BR23        BRG1        BRG1COCO    BRG1COCO13AG00001000000000001231189200000000000000100000000000000000000000004961Z01620180310X066000000
1MAIL0000065342BR23        BRG1        BRG1COCO    BRG1COCO13AG2018030600:00:00OR  01000002862102000286210265342                              2018030620180310Z016CIF201803100000000000332018NN0                                                  0
2MAIL0000065342BR23        BRG1        BRG1COCO    BRG1COCO13AG00000100000000001132004000000000000002000000000000000000000000014967Z01620180310X066005000
2MAIL0000065342BR23        BRG1        BRG1COCO    BRG1COCO13AG00000200000000001132019700000000000000600000000000000000000000013106Z01620180310X066005000
2MAIL0000065342BR23        BRG1        BRG1COCO    BRG1COCO13AG00000300000000001132019800000000000000600000000000000000000000013106Z01620180310X066005000
2MAIL0000065342BR23        BRG1        BRG1COCO    BRG1COCO13AG00000400000000001132019900000000000000600000000000000000000000013106Z01620180310X066005000
2MAIL0000065342BR23        BRG1        BRG1COCO    BRG1COCO13AG00000500000000001132020900000000000000600000000000000000000000013106Z01620180310X066005000
2MAIL0000065342BR23        BRG1        BRG1COCO    BRG1COCO13AG00000600000000001132035100000000000002000000000000000000000000029568Z01620180310X066015000
2MAIL0000065342BR23        BRG1        BRG1COCO    BRG1COCO13AG00000700000000001221415400000000000000200000000000000000000000007197Z01620180310X066025000
2MAIL0000065342BR23        BRG1        BRG1COCO    BRG1COCO13AG00000800000000001223975300000000000000600000000000000000000000024670Z01620180310X066005000
2MAIL0000065342BR23        BRG1        BRG1COCO    BRG1COCO13AG00000900000000001227735000000000000000600000000000000000000000013106Z01620180310X066005000
2MAIL0000065342BR23        BRG1        BRG1COCO    BRG1COCO13AG00001000000000001228274000000000000000600000000000000000000000024670Z01620180310X066005000
2MAIL0000065342BR23        BRG1        BRG1COCO    BRG1COCO13AG00001100000000001228512700000000000000600000000000000000000000024670Z01620180310X066005000
2MAIL0000065342BR23        BRG1        BRG1COCO    BRG1COCO13AG00001200000000001231189200000000000000600000000000000000000000024670Z01620180310X066005000
2MAIL0000065342BR23        BRG1        BRG1COCO    BRG1COCO13AG00001300000000001231231200000000000000600000000000000000000000024670Z01620180310X066005000
2MAIL0000065342BR23        BRG1        BRG1COCO    BRG1COCO13AG00001400000000001233098400000000000005600000000000000000000000018696Z01620180310X066006750
2MAIL0000065342BR23        BRG1        BRG1COCO    BRG1COCO13AG00001500000000001233099500000000000007000000000000000000000000023370Z01620180310X066006750
2MAIL0000065342BR23        BRG1        BRG1COCO    BRG1COCO13AG00001600000000001234705700000000000000600000000000000000000000024670Z01620180310X066005000
2MAIL0000065342BR23        BRG1        BRG1COCO    BRG1COCO13AG00001700000000001234705800000000000000600000000000000000000000024670Z01620180310X066005000
1MAIL0000065343BR23        BRG1        BRG1COCO    BRG1COCO13AG2018030600:00:00OR  01000005430359000543035965343                              2018030620180310Z016CIF201803100000000000011559NN0                                                  0
2MAIL0000065343BR23        BRG1        BRG1COCO    BRG1COCO13AG00000100000000001132019800000000000000100000000000000000000000002276Z01620180310X066005000
2MAIL0000065343BR23        BRG1        BRG1COCO    BRG1COCO13AG00000200000000001132200400000000000000100000000000000000000000001850Z01620180310X066004850
2MAIL0000065343BR23        BRG1        BRG1COCO    BRG1COCO13AG00000300000000001132400100000000000000100000000000000000000000003477Z01620180310X066005000
2MAIL0000065343BR23        BRG1        BRG1COCO    BRG1COCO13AG00000400000000001215533700000000000000100000000000000000000000001710Z01620180310X066015000
2MAIL0000065343BR23        BRG1        BRG1COCO    BRG1COCO13AG00000500000000001228100400000000000000100000000000000000000000002246Z01620180310X066018000
1MAIL0000065344BR23        BRG1        BRG1COCO    BRG1COCO13AG2018030600:00:00OR  01000002983664000298366465344                              2018030620180310Z016CIF201803100000000000210715NN0                                                  0
2MAIL0000065344BR23        BRG1        BRG1COCO    BRG1COCO13AG00000100000000001132018300000000000000100000000000000000000000003598Z01620180310X066025000
2MAIL0000065344BR23        BRG1        BRG1COCO    BRG1COCO13AG00000200000000001132033100000000000000200000000000000000000000003282Z01620180310X066015000
2MAIL0000065344BR23        BRG1        BRG1COCO    BRG1COCO13AG00000300000000001132034900000000000001000000000000000000000000014012Z01620180310X066015000
2MAIL0000065344BR23        BRG1        BRG1COCO    BRG1COCO13AG00000400000000001132035100000000000001000000000000000000000000014784Z01620180310X066015000
2MAIL0000065344BR23        BRG1        BRG1COCO    BRG1COCO13AG00000500000000001132036700000000000000800000000000000000000000013131Z01620180310X066015000
2MAIL0000065344BR23        BRG1        BRG1COCO    BRG1COCO13AG00000600000000001215533700000000000000200000000000000000000000003282Z01620180310X066015000
2MAIL0000065344BR23        BRG1        BRG1COCO    BRG1COCO13AG00000700000000001221415400000000000000200000000000000000000000007197Z01620180310X066025000
2MAIL0000065344BR23        BRG1        BRG1COCO    BRG1COCO13AG00000800000000001223975300000000000000200000000000000000000000008224Z01620180310X066005000
2MAIL0000065344BR23        BRG1        BRG1COCO    BRG1COCO13AG00000900000000001224882700000000000000800000000000000000000000022838Z01620180310X066005000
2MAIL0000065344BR23        BRG1        BRG1COCO    BRG1COCO13AG00001000000000001226089600000000000002400000000000000000000000007631Z01620180310X066006750
2MAIL0000065344BR23        BRG1        BRG1COCO    BRG1COCO13AG00001100000000001228512700000000000000200000000000000000000000008224Z01620180310X066005000
2MAIL0000065344BR23        BRG1        BRG1COCO    BRG1COCO13AG00001200000000001231231200000000000000200000000000000000000000008224Z01620180310X066005000
2MAIL0000065344BR23        BRG1        BRG1COCO    BRG1COCO13AG00001300000000001233081900000000000002800000000000000000000000009348Z01620180310X066006750
2MAIL0000065344BR23        BRG1        BRG1COCO    BRG1COCO13AG00001400000000001233098400000000000005600000000000000000000000018696Z01620180310X066006750
2MAIL0000065344BR23        BRG1        BRG1COCO    BRG1COCO13AG00001500000000001233098500000000000002800000000000000000000000009348Z01620180310X066006750
2MAIL0000065344BR23        BRG1        BRG1COCO    BRG1COCO13AG00001600000000001233098600000000000001400000000000000000000000004675Z01620180310X066006750
2MAIL0000065344BR23        BRG1        BRG1COCO    BRG1COCO13AG00001700000000001233098800000000000002800000000000000000000000009348Z01620180310X066006750
2MAIL0000065344BR23        BRG1        BRG1COCO    BRG1COCO13AG00001800000000001233099500000000000002800000000000000000000000009348Z01620180310X066006750
2MAIL0000065344BR23        BRG1        BRG1COCO    BRG1COCO13AG00001900000000001233154200000000000002800000000000000000000000009348Z01620180310X066006750
2MAIL0000065344BR23        BRG1        BRG1COCO    BRG1COCO13AG00002000000000001234708700000000000002800000000000000000000000009348Z01620180310X066006750
2MAIL0000065344BR23        BRG1        BRG1COCO    BRG1COCO13AG00002100000000001235699400000000000002000000000000000000000000006732Z01620180310X066006000
2MAIL0000065344BR23        BRG1        BRG1COCO    BRG1COCO13AG00002200000000001235699700000000000001000000000000000000000000003365Z01620180310X066006000
2MAIL0000065344BR23        BRG1        BRG1COCO    BRG1COCO13AG00002300000000001235699800000000000002000000000000000000000000006732Z01620180310X066006000
1MAIL0000065345BR23        BRG1        BRG1COCO    BRG1COCO13AG2018030600:00:00OR  01000005526495000552649565345                              2018030620180310Z016CIF201803100000000000019562NN0                                                  0
2MAIL0000065345BR23        BRG1        BRG1COCO    BRG1COCO13AG00000100000000001132019900000000000000100000000000000000000000002184Z01620180310X066005000
2MAIL0000065345BR23        BRG1        BRG1COCO    BRG1COCO13AG00000200000000001132036700000000000000100000000000000000000000001641Z01620180310X066015000
2MAIL0000065345BR23        BRG1        BRG1COCO    BRG1COCO13AG00000300000000001132200400000000000000100000000000000000000000001775Z01620180310X066004850
2MAIL0000065345BR23        BRG1        BRG1COCO    BRG1COCO13AG00000400000000001132400100000000000000100000000000000000000000003336Z01620180310X066005000
2MAIL0000065345BR23        BRG1        BRG1COCO    BRG1COCO13AG00000500000000001215533700000000000000100000000000000000000000001641Z01620180310X066015000
2MAIL0000065345BR23        BRG1        BRG1COCO    BRG1COCO13AG00000600000000001227735000000000000000100000000000000000000000002184Z01620180310X066005000
2MAIL0000065345BR23        BRG1        BRG1COCO    BRG1COCO13AG00000700000000001231389600000000000000100000000000000000000000001834Z01620180310X066005000
2MAIL0000065345BR23        BRG1        BRG1COCO    BRG1COCO13AG00000800000000001233098400000000000001400000000000000000000000004967Z01620180310X066009920
1MAIL0000065346BR23        BRG1        BRG1COCO    BRG1COCO13AG2018030600:00:00OR  01000003199453000319945365346                              2018030620180310Z016CIF201803100000000000019543NN0                                                  0
2MAIL0000065346BR23        BRG1        BRG1COCO    BRG1COCO13AG00000100000000001132018300000000000000100000000000000000000000003598Z01620180310X066025000
2MAIL0000065346BR23        BRG1        BRG1COCO    BRG1COCO13AG00000200000000001132033100000000000000200000000000000000000000003281Z01620180310X066015000
2MAIL0000065346BR23        BRG1        BRG1COCO    BRG1COCO13AG00000300000000001132036700000000000000100000000000000000000000001641Z01620180310X066015000
2MAIL0000065346BR23        BRG1        BRG1COCO    BRG1COCO13AG00000400000000001132200400000000000000200000000000000000000000003550Z01620180310X066004850
2MAIL0000065346BR23        BRG1        BRG1COCO    BRG1COCO13AG00000500000000001132213000000000000000100000000000000000000000003771Z01620180310X066004950
2MAIL0000065346BR23        BRG1        BRG1COCO    BRG1COCO13AG00000600000000001235699800000000000001000000000000000000000000003702Z01620180310X066006000
1MAIL0000065347BR23        BRG1        BRG1COCO    BRG1COCO13AG2018030600:00:00OR  01000002856419000285641965347                              2018030620180310Z016CIF201803100000000000138931NN0                                                  0
2MAIL0000065347BR23        BRG1        BRG1COCO    BRG1COCO13AG00000100000000001132018300000000000000100000000000000000000000003839Z01620180310X066020000
2MAIL0000065347BR23        BRG1        BRG1COCO    BRG1COCO13AG00000200000000001132019900000000000000100000000000000000000000002184Z01620180310X066005000
2MAIL0000065347BR23        BRG1        BRG1COCO    BRG1COCO13AG00000300000000001132200400000000000000100000000000000000000000001775Z01620180310X066004850
2MAIL0000065347BR23        BRG1        BRG1COCO    BRG1COCO13AG00000400000000001132213000000000000000100000000000000000000000003427Z01620180310X066004950
2MAIL0000065347BR23        BRG1        BRG1COCO    BRG1COCO13AG00000500000000001132213100000000000000100000000000000000000000003427Z01620180310X066004950
2MAIL0000065347BR23        BRG1        BRG1COCO    BRG1COCO13AG00000600000000001221415400000000000000100000000000000000000000003839Z01620180310X066020000
2MAIL0000065347BR23        BRG1        BRG1COCO    BRG1COCO13AG00000700000000001228090100000000000009000000000000000000000000061373Z01620180310X066000000
2MAIL0000065347BR23        BRG1        BRG1COCO    BRG1COCO13AG00000800000000001228100400000000000000500000000000000000000000011824Z01620180310X066010000
2MAIL0000065347BR23        BRG1        BRG1COCO    BRG1COCO13AG00000900000000001228274000000000000000100000000000000000000000004112Z01620180310X066005000
2MAIL0000065347BR23        BRG1        BRG1COCO    BRG1COCO13AG00001000000000001231189200000000000000100000000000000000000000004112Z01620180310X066005000
2MAIL0000065347BR23        BRG1        BRG1COCO    BRG1COCO13AG00001100000000001233081900000000000001400000000000000000000000005013Z01620180310X066000000
2MAIL0000065347BR23        BRG1        BRG1COCO    BRG1COCO13AG00001200000000001233098400000000000001400000000000000000000000005013Z01620180310X066000000
2MAIL0000065347BR23        BRG1        BRG1COCO    BRG1COCO13AG00001300000000001233098800000000000001400000000000000000000000005013Z01620180310X066000000
2MAIL0000065347BR23        BRG1        BRG1COCO    BRG1COCO13AG00001400000000001233154200000000000001400000000000000000000000005013Z01620180310X066000000
2MAIL0000065347BR23        BRG1        BRG1COCO    BRG1COCO13AG00001500000000001234705700000000000000100000000000000000000000004112Z01620180310X066005000
2MAIL0000065347BR23        BRG1        BRG1COCO    BRG1COCO13AG00001600000000001234705800000000000000100000000000000000000000004112Z01620180310X066005000
2MAIL0000065347BR23        BRG1        BRG1COCO    BRG1COCO13AG00001700000000001235699400000000000001000000000000000000000000003581Z01620180310X066000000
2MAIL0000065347BR23        BRG1        BRG1COCO    BRG1COCO13AG00001800000000001235699700000000000001000000000000000000000000003581Z01620180310X066000000
2MAIL0000065347BR23        BRG1        BRG1COCO    BRG1COCO13AG00001900000000001235699800000000000001000000000000000000000000003581Z01620180310X066000000
1MAIL0000065348BR23        BRG1        BRG1COCO    BRG1COCO13AG2018030600:00:00OR  01000002982044000298204465348                              2018030620180310Z016CIF201803100000000000031645NN0                                                  0
2MAIL0000065348BR23        BRG1        BRG1COCO    BRG1COCO13AG00000100000000001132033100000000000000100000000000000000000000001810Z01620180310X066010000
2MAIL0000065348BR23        BRG1        BRG1COCO    BRG1COCO13AG00000200000000001132036700000000000000100000000000000000000000001810Z01620180310X066010000
2MAIL0000065348BR23        BRG1        BRG1COCO    BRG1COCO13AG00000300000000001132213000000000000000100000000000000000000000003929Z01620180310X066004950
2MAIL0000065348BR23        BRG1        BRG1COCO    BRG1COCO13AG00000400000000001227395500000000000000100000000000000000000000001810Z01620180310X066010000
2MAIL0000065348BR23        BRG1        BRG1COCO    BRG1COCO13AG00000500000000001228090100000000000003000000000000000000000000022286Z01620180310X066004960
1MAIL0000065349BR23        BRG1        BRG1COCO    BRG1COCO13AG2018030600:00:00OR  01000003830025000383002565349                              2018030620180310Z016CIF201803100000000000045845NN0                                                  0
2MAIL0000065349BR23        BRG1        BRG1COCO    BRG1COCO13AG00000100000000001132020900000000000000100000000000000000000000002184Z01620180310X066005000
2MAIL0000065349BR23        BRG1        BRG1COCO    BRG1COCO13AG00000200000000001132036700000000000000100000000000000000000000001738Z01620180310X066010000
2MAIL0000065349BR23        BRG1        BRG1COCO    BRG1COCO13AG00000300000000001214448900000000000000300000000000000000000000018350Z01620180310X066018000
2MAIL0000065349BR23        BRG1        BRG1COCO    BRG1COCO13AG00000400000000001227735000000000000000100000000000000000000000002184Z01620180310X066005000
2MAIL0000065349BR23        BRG1        BRG1COCO    BRG1COCO13AG00000500000000001228090100000000000003000000000000000000000000021389Z01620180310X066004960
1MAIL0000065350BR23        BRG1        BRG1COCO    BRG1COCO13AG2018030600:00:00OR  01000005166177000516617765350                              2018030620180310Z016CIF201803100000000000058329NN0                                                  0
2MAIL0000065350BR23        BRG1        BRG1COCO    BRG1COCO13AG00000100000000001228090100000000000009000000000000000000000000058329Z01620180310X066004960
1MAIL0000065351BR23        BRG1        BRG1COCO    BRG1COCO13AG2018030600:00:00OR  01000002873038000287303865351                              2018030620180310Z016CIF201803100000000000022505NN0                                                  0
2MAIL0000065351BR23        BRG1        BRG1COCO    BRG1COCO13AG00000100000000001228090100000000000003000000000000000000000000022505Z01620180310X066000000
1MAIL0000065352BR23        BRG1        BRG1COCO    BRG1COCO13AG2018030600:00:00OR  01000002873038000287303865352                              2018030620180310Z016CIF201803100000000000021389NN0                                                  0
2MAIL0000065352BR23        BRG1        BRG1COCO    BRG1COCO13AG00000100000000001228090100000000000003000000000000000000000000021389Z01620180310X066004960
1MAIL0000065377BR23        BRG1        BRG1COCO    BRG1COCO13AG2018030700:00:00OR  01000004778764000477876465377                              2018030720180307Z016CIF201803070000000000016528NN0                                                  0
2MAIL0000065377BR23        BRG1        BRG1COCO    BRG1COCO13AG00000100000000001132019900000000000000100000000000000000000000002184Z01620180307X066005000
2MAIL0000065377BR23        BRG1        BRG1COCO    BRG1COCO13AG00000200000000001132020900000000000000100000000000000000000000002184Z01620180307X066005000
2MAIL0000065377BR23        BRG1        BRG1COCO    BRG1COCO13AG00000300000000001132033100000000000000100000000000000000000000001641Z01620180307X066015000
2MAIL0000065377BR23        BRG1        BRG1COCO    BRG1COCO13AG00000400000000001132036700000000000000200000000000000000000000003281Z01620180307X066015000
2MAIL0000065377BR23        BRG1        BRG1COCO    BRG1COCO13AG00000500000000001132200400000000000000300000000000000000000000005597Z01620180307X066000000
2MAIL0000065377BR23        BRG1        BRG1COCO    BRG1COCO13AG00000600000000001215533700000000000000100000000000000000000000001641Z01620180307X066015000
1MAIL0000065378BR23        BRG1        BRG1COCO    BRG1COCO13AG2018030700:00:00OR  01000002879526000287952665378                              2018030720180307Z016CIF201803070000000000019782NN0                                                  0
2MAIL0000065378BR23        BRG1        BRG1COCO    BRG1COCO13AG00000100000000001132019700000000000000100000000000000000000000002184Z01620180307X066005000
2MAIL0000065378BR23        BRG1        BRG1COCO    BRG1COCO13AG00000200000000001132019800000000000000100000000000000000000000002184Z01620180307X066005000
2MAIL0000065378BR23        BRG1        BRG1COCO    BRG1COCO13AG00000300000000001132036700000000000000100000000000000000000000001641Z01620180307X066015000
2MAIL0000065378BR23        BRG1        BRG1COCO    BRG1COCO13AG00000400000000001132200400000000000000200000000000000000000000003731Z01620180307X066000000
2MAIL0000065378BR23        BRG1        BRG1COCO    BRG1COCO13AG00000500000000001132400100000000000000100000000000000000000000003336Z01620180307X066005000
2MAIL0000065378BR23        BRG1        BRG1COCO    BRG1COCO13AG00000600000000001227735000000000000000100000000000000000000000002184Z01620180307X066005000
2MAIL0000065378BR23        BRG1        BRG1COCO    BRG1COCO13AG00000700000000001228512700000000000000100000000000000000000000004522Z01620180307X066005000
1MAIL0000065379BR23        BRG1        BRG1COCO    BRG1COCO13AG2018030700:00:00OR  01000003391924000339192465379                              2018030720180307Z016CIF201803070000000000005212NN0                                                  0
2MAIL0000065379BR23        BRG1        BRG1COCO    BRG1COCO13AG00000100000000001132036700000000000000200000000000000000000000003474Z01620180307X066010000
2MAIL0000065379BR23        BRG1        BRG1COCO    BRG1COCO13AG00000200000000001215533700000000000000100000000000000000000000001738Z01620180307X066010000
1MAIL0000065380BR23        BRG1        BRG1COCO    BRG1COCO13AG2018030700:00:00OR  01000004559619000455961965380                              2018030720180307Z016CIF201803070000000000024585NN0                                                  0
2MAIL0000065380BR23        BRG1        BRG1COCO    BRG1COCO13AG00000100000000001132036700000000000000100000000000000000000000001710Z01620180307X066015000
2MAIL0000065380BR23        BRG1        BRG1COCO    BRG1COCO13AG00000200000000001132200400000000000000100000000000000000000000001944Z01620180307X066000000
2MAIL0000065380BR23        BRG1        BRG1COCO    BRG1COCO13AG00000300000000001132400100000000000000200000000000000000000000006952Z01620180307X066005000
2MAIL0000065380BR23        BRG1        BRG1COCO    BRG1COCO13AG00000400000000001223975300000000000000100000000000000000000000004713Z01620180307X066005000
2MAIL0000065380BR23        BRG1        BRG1COCO    BRG1COCO13AG00000500000000001227735000000000000000200000000000000000000000004553Z01620180307X066005000
2MAIL0000065380BR23        BRG1        BRG1COCO    BRG1COCO13AG00000600000000001228512700000000000000100000000000000000000000004713Z01620180307X066005000
1MAIL0000065381BR23        BRG1        BRG1COCO    BRG1COCO13AG2018030700:00:00OR  01000004974931000497493165381                              2018030720180307Z016CIF201803070000000000023306NN0                                                  0
2MAIL0000065381BR23        BRG1        BRG1COCO    BRG1COCO13AG00000100000000001132019700000000000000100000000000000000000000002184Z01620180307X066005000
2MAIL0000065381BR23        BRG1        BRG1COCO    BRG1COCO13AG00000200000000001132036700000000000000100000000000000000000000001641Z01620180307X066015000
2MAIL0000065381BR23        BRG1        BRG1COCO    BRG1COCO13AG00000300000000001132400100000000000000200000000000000000000000006672Z01620180307X066005000
2MAIL0000065381BR23        BRG1        BRG1COCO    BRG1COCO13AG00000400000000001227735000000000000000100000000000000000000000002184Z01620180307X066005000
2MAIL0000065381BR23        BRG1        BRG1COCO    BRG1COCO13AG00000500000000001228090100000000000000500000000000000000000000003565Z01620180307X066004960
2MAIL0000065381BR23        BRG1        BRG1COCO    BRG1COCO13AG00000600000000001236512800000000000001000000000000000000000000001748Z01620180307X066000000
2MAIL0000065381BR23        BRG1        BRG1COCO    BRG1COCO13AG00000700000000001236512900000000000001000000000000000000000000001782Z01620180307X066005000
2MAIL0000065381BR23        BRG1        BRG1COCO    BRG1COCO13AG00000800000000001236514100000000000001000000000000000000000000001748Z01620180307X066000000
2MAIL0000065381BR23        BRG1        BRG1COCO    BRG1COCO13AG00000900000000001236515000000000000001000000000000000000000000001782Z01620180307X066005000
1MAIL0000065382BR23        BRG1        BRG1COCO    BRG1COCO13AG2018030700:00:00OR  01000003266940000326694065382                              2018030720180307Z016CIF201803070000000000005270NN0                                                  0
2MAIL0000065382BR23        BRG1        BRG1COCO    BRG1COCO13AG00000100000000001132036700000000000000200000000000000000000000003420Z01620180307X066015000
2MAIL0000065382BR23        BRG1        BRG1COCO    BRG1COCO13AG00000200000000001132200400000000000000100000000000000000000000001850Z01620180307X066004850
1MAIL0000065383BR23        BRG1        BRG1COCO    BRG1COCO13AG2018030700:00:00OR  01000003483129000348312965383                              2018030720180307ZG05CIF201803070000000000006788NN0                                                  0
2MAIL0000065383BR23        BRG1        BRG1COCO    BRG1COCO13AG00000100000000001235356200000000000000300000000000000000000000006788ZG0520180307X066000000
1MAIL0000065384BR23        BRG1        BRG1COCO    BRG1COCO13AG2018030700:00:00OR  01000003483129000348312965384                              2018030720180307ZG05CIF201803070000000000044642NN0                                                  0
2MAIL0000065384BR23        BRG1        BRG1COCO    BRG1COCO13AG00000100000000001228090100000000000003000000000000000000000000020067ZG0520180307X066000000
2MAIL0000065384BR23        BRG1        BRG1COCO    BRG1COCO13AG00000200000000001233081900000000000001400000000000000000000000004915ZG0520180307X066000000
2MAIL0000065384BR23        BRG1        BRG1COCO    BRG1COCO13AG00000300000000001233098400000000000002800000000000000000000000009830ZG0520180307X066000000
2MAIL0000065384BR23        BRG1        BRG1COCO    BRG1COCO13AG00000400000000001233098600000000000001400000000000000000000000004915ZG0520180307X066000000
2MAIL0000065384BR23        BRG1        BRG1COCO    BRG1COCO13AG00000500000000001233098800000000000001400000000000000000000000004915ZG0520180307X066000000
1MAIL0000065385BR23        BRG1        BRG1COCO    BRG1COCO13AG2018030700:00:00OR  01000003483118000348311865385                              2018030720180307Z016CIF201803070000000000005819NN0                                                  0
2MAIL0000065385BR23        BRG1        BRG1COCO    BRG1COCO13AG00000100000000001235737300000000000000200000000000000000000000005819Z01620180307X066000000
1MAIL0000065386BR23        BRG1        BRG1COCO    BRG1COCO13AG2018030700:00:00OR  01000003483118000348311865386                              2018030720180307Z016CIF201803070000000000019443NN0                                                  0
2MAIL0000065386BR23        BRG1        BRG1COCO    BRG1COCO13AG00000100000000001228090100000000000003000000000000000000000000019443Z01620180307X066004960
1MAIL0000065387BR23        BRG1        BRG1COCO    BRG1COCO13AG2018030700:00:00OR  01000005137544000513754465387                              2018030720180307Z016CIF201803070000000000005698NN0                                                  0
2MAIL0000065387BR23        BRG1        BRG1COCO    BRG1COCO13AG00000100000000001132036700000000000000100000000000000000000000001810Z01620180307X066010000
2MAIL0000065387BR23        BRG1        BRG1COCO    BRG1COCO13AG00000200000000001132200400000000000000200000000000000000000000003888Z01620180307X066000000
1MAIL0000065388BR23        BRG1        BRG1COCO    BRG1COCO13AG2018030700:00:00OR  01000003474176000347417665388                              2018030720180307Z016CIF201803070000000000039686NN0                                                  0
2MAIL0000065388BR23        BRG1        BRG1COCO    BRG1COCO13AG00000100000000001231189200000000000000400000000000000000000000019843Z01620180307X066000000
2MAIL0000065388BR23        BRG1        BRG1COCO    BRG1COCO13AG00000200000000001231231200000000000000400000000000000000000000019843Z01620180307X066000000
1MAIL0000065389BR23        BRG1        BRG1COCO    BRG1COCO13AG2018030700:00:00OR  01000002873741000287374165389                              2018030720180307ZG05CIF201803070000000000008377NN0                                                  0
2MAIL0000065389BR23        BRG1        BRG1COCO    BRG1COCO13AG00000100000000001132019700000000000000100000000000000000000000002233ZG0520180307X066005000
2MAIL0000065389BR23        BRG1        BRG1COCO    BRG1COCO13AG00000200000000001132019800000000000000100000000000000000000000002233ZG0520180307X066005000
2MAIL0000065389BR23        BRG1        BRG1COCO    BRG1COCO13AG00000300000000001215533700000000000000100000000000000000000000001678ZG0520180307X066015000
2MAIL0000065389BR23        BRG1        BRG1COCO    BRG1COCO13AG00000400000000001227735000000000000000100000000000000000000000002233ZG0520180307X066005000
1MAIL0000065390BR23        BRG1        BRG1COCO    BRG1COCO13AG2018030700:00:00OR  01000003881958000388195865390                              2018030720180307Z016CIF201803070000000000108469NN0                                                  0
2MAIL0000065390BR23        BRG1        BRG1COCO    BRG1COCO13AG00000100000000001228100400000000000006000000000000000000000000108469Z01620180307X066020000
1MAIL0000065391BR23        BRG1        BRG1COCO    BRG1COCO13AG2018030700:00:00OR  01000005230422000523042265391                              2018030720180307Z016CIF201803070000000000031034NN0                                                  0
2MAIL0000065391BR23        BRG1        BRG1COCO    BRG1COCO13AG00000100000000001235356200000000000000600000000000000000000000013577Z01620180307X066000000
2MAIL0000065391BR23        BRG1        BRG1COCO    BRG1COCO13AG00000200000000001235737300000000000000600000000000000000000000017457Z01620180307X066000000
1MAIL0000065392BR23        BRG1        BRG1COCO    BRG1COCO13AG2018030700:00:00OR  01000005570793000557079365392                              2018030720180307Z016CIF201803070000000000016298NN0                                                  0
2MAIL0000065392BR23        BRG1        BRG1COCO    BRG1COCO13AG00000100000000001132036700000000000000100000000000000000000000001750Z01620180307X066013000
2MAIL0000065392BR23        BRG1        BRG1COCO    BRG1COCO13AG00000200000000001132200400000000000000200000000000000000000000003888Z01620180307X066000000
2MAIL0000065392BR23        BRG1        BRG1COCO    BRG1COCO13AG00000300000000001235699800000000000001000000000000000000000000003858Z01620180307X066006000
2MAIL0000065392BR23        BRG1        BRG1COCO    BRG1COCO13AG00000400000000001236512800000000000002000000000000000000000000003610Z01620180307X066000000
2MAIL0000065392BR23        BRG1        BRG1COCO    BRG1COCO13AG00000500000000001236515000000000000002000000000000000000000000003192Z01620180307X066005000
1MAIL0000065393BR23        BRG1        BRG1COCO    BRG1COCO13AG2018030700:00:00OR  01000004900020000490002065393                              2018030720180307Z859CIF201803070000000000009051NN0                                                  0
2MAIL0000065393BR23        BRG1        BRG1COCO    BRG1COCO13AG00000100000000001235356200000000000000400000000000000000000000009051Z85920180307X066000000
1MAIL0000065394BR23        BRG1        BRG1COCO    BRG1COCO13AG2018030700:00:00OR  01000004114753000411475365394                              2018030720180307Z016CIF201803070000000000030285NN0                                                  0
2MAIL0000065394BR23        BRG1        BRG1COCO    BRG1COCO13AG00000100000000001132019700000000000000100000000000000000000000002184Z01620180307X066005000
2MAIL0000065394BR23        BRG1        BRG1COCO    BRG1COCO13AG00000200000000001132019800000000000000100000000000000000000000002184Z01620180307X066005000
2MAIL0000065394BR23        BRG1        BRG1COCO    BRG1COCO13AG00000300000000001132019900000000000000100000000000000000000000002184Z01620180307X066005000
2MAIL0000065394BR23        BRG1        BRG1COCO    BRG1COCO13AG00000400000000001132020900000000000000100000000000000000000000002184Z01620180307X066005000
2MAIL0000065394BR23        BRG1        BRG1COCO    BRG1COCO13AG00000500000000001132033100000000000000200000000000000000000000003474Z01620180307X066010000
2MAIL0000065394BR23        BRG1        BRG1COCO    BRG1COCO13AG00000600000000001132036700000000000000300000000000000000000000005212Z01620180307X066010000
2MAIL0000065394BR23        BRG1        BRG1COCO    BRG1COCO13AG00000700000000001132200400000000000000200000000000000000000000003731Z01620180307X066000000
2MAIL0000065394BR23        BRG1        BRG1COCO    BRG1COCO13AG00000800000000001215533700000000000000200000000000000000000000003474Z01620180307X066010000
2MAIL0000065394BR23        BRG1        BRG1COCO    BRG1COCO13AG00000900000000001227735000000000000000100000000000000000000000002184Z01620180307X066005000
2MAIL0000065394BR23        BRG1        BRG1COCO    BRG1COCO13AG00001000000000001231389600000000000000200000000000000000000000003474Z01620180307X066010000
1MAIL0000065395BR23        BRG1        BRG1COCO    BRG1COCO13AG2018030700:00:00OR  01000002983531000298353165395                              2018030720180307Z859CIF201803070000000000005173NN0                                                  0
2MAIL0000065395BR23        BRG1        BRG1COCO    BRG1COCO13AG00000100000000001235356200000000000000100000000000000000000000002263Z85920180307X066000000
2MAIL0000065395BR23        BRG1        BRG1COCO    BRG1COCO13AG00000200000000001235737300000000000000100000000000000000000000002910Z85920180307X066000000
1MAIL0000065396BR23        BRG1        BRG1COCO    BRG1COCO13AG2018030700:00:00OR  01000001038573000103857365396                              2018030720180307Z016CIF201803070000000000014342NN0                                                  0
2MAIL0000065396BR23        BRG1        BRG1COCO    BRG1COCO13AG00000100000000001132200400000000000000500000000000000000000000009329Z01620180307X066000000
2MAIL0000065396BR23        BRG1        BRG1COCO    BRG1COCO13AG00000200000000001233098600000000000001400000000000000000000000005013Z01620180307X066000000
1MAIL0000065397BR23        BRG1        BRG1COCO    BRG1COCO13AG2018030700:00:00OR  01000003753358000375335865397                              2018030720180307Z859CIF201803070000000000006788NN0                                                  0
2MAIL0000065397BR23        BRG1        BRG1COCO    BRG1COCO13AG00000100000000001235356200000000000000300000000000000000000000006788Z85920180307X066000000
1MAIL0000065398BR23        BRG1        BRG1COCO    BRG1COCO13AG2018030700:00:00OR  01000003753358000375335865398                              2018030720180307Z016CIF201803070000000000005792NN0                                                  0
2MAIL0000065398BR23        BRG1        BRG1COCO    BRG1COCO13AG00000100000000001132036700000000000000300000000000000000000000005792Z01620180307X066000000
1MAIL0000065399BR23        BRG1        BRG1COCO    BRG1COCO13AG2018030700:00:00OR  01000005298012000529801265399                              2018030720180307Z016CIF201803070000000000063997NN0                                                  0
2MAIL0000065399BR23        BRG1        BRG1COCO    BRG1COCO13AG00000100000000001132019800000000000000200000000000000000000000004599Z01620180307X066000000
2MAIL0000065399BR23        BRG1        BRG1COCO    BRG1COCO13AG00000200000000001132020900000000000000300000000000000000000000006897Z01620180307X066000000
2MAIL0000065399BR23        BRG1        BRG1COCO    BRG1COCO13AG00000300000000001132036700000000000000500000000000000000000000008690Z01620180307X066010000
2MAIL0000065399BR23        BRG1        BRG1COCO    BRG1COCO13AG00000400000000001132200400000000000000500000000000000000000000009329Z01620180307X066000000
2MAIL0000065399BR23        BRG1        BRG1COCO    BRG1COCO13AG00000500000000001228090100000000000003000000000000000000000000019443Z01620180307X066004960
2MAIL0000065399BR23        BRG1        BRG1COCO    BRG1COCO13AG00000600000000001233098400000000000001400000000000000000000000005013Z01620180307X066000000
2MAIL0000065399BR23        BRG1        BRG1COCO    BRG1COCO13AG00000700000000001233098600000000000001400000000000000000000000005013Z01620180307X066000000
2MAIL0000065399BR23        BRG1        BRG1COCO    BRG1COCO13AG00000800000000001233154200000000000001400000000000000000000000005013Z01620180307X066000000
1MAIL0000065400BR23        BRG1        BRG1COCO    BRG1COCO13AG2018030700:00:00OR  01000005097827000509782765400                              2018030720180307Z016CIF201803070000000000012576NN0                                                  0
2MAIL0000065400BR23        BRG1        BRG1COCO    BRG1COCO13AG00000100000000001132020900000000000000100000000000000000000000002300Z01620180307X066000000
2MAIL0000065400BR23        BRG1        BRG1COCO    BRG1COCO13AG00000200000000001132036700000000000000100000000000000000000000001738Z01620180307X066010000
2MAIL0000065400BR23        BRG1        BRG1COCO    BRG1COCO13AG00000300000000001132200400000000000000100000000000000000000000001866Z01620180307X066000000
2MAIL0000065400BR23        BRG1        BRG1COCO    BRG1COCO13AG00000400000000001132400100000000000000200000000000000000000000006672Z01620180307X066005000
