1MAIL0000064412BR23        BRG1        BRG1COCO    BRG1COCO13AG2018022800:00:00OR  01000001319249000131924964412                              2018022820180228Z016CIF201802280000000000097214NN0                                                  0
2MAIL0000064412BR23        BRG1        BRG1COCO    BRG1COCO13AG00000100000000001228090100000000000015000000000000000000000000097214Z01620180228X066004960
1MAIL0000064413BR23        BRG1        BRG1COCO    BRG1COCO13AG2018022800:00:00OR  01000001319249000131924964413                              2018022820180228Z016CIF201802280000000000094087NN0                                                  0
2MAIL0000064413BR23        BRG1        BRG1COCO    BRG1COCO13AG00000100000000001132019700000000000000100000000000000000000000002184Z01620180228X066005000
2MAIL0000064413BR23        BRG1        BRG1COCO    BRG1COCO13AG00000200000000001132036700000000000000600000000000000000000000009849Z01620180228X066015000
2MAIL0000064413BR23        BRG1        BRG1COCO    BRG1COCO13AG00000300000000001221415400000000000000200000000000000000000000008636Z01620180228X066010000
2MAIL0000064413BR23        BRG1        BRG1COCO    BRG1COCO13AG00000400000000001223975300000000000000200000000000000000000000008224Z01620180228X066005000
2MAIL0000064413BR23        BRG1        BRG1COCO    BRG1COCO13AG00000500000000001227735000000000000000200000000000000000000000004369Z01620180228X066005000
2MAIL0000064413BR23        BRG1        BRG1COCO    BRG1COCO13AG00000600000000001228512700000000000000100000000000000000000000004112Z01620180228X066005000
2MAIL0000064413BR23        BRG1        BRG1COCO    BRG1COCO13AG00000700000000001231231200000000000000200000000000000000000000008224Z01620180228X066005000
2MAIL0000064413BR23        BRG1        BRG1COCO    BRG1COCO13AG00000800000000001233099500000000000001400000000000000000000000004675Z01620180228X066006750
2MAIL0000064413BR23        BRG1        BRG1COCO    BRG1COCO13AG00000900000000001233154200000000000001400000000000000000000000004675Z01620180228X066006750
2MAIL0000064413BR23        BRG1        BRG1COCO    BRG1COCO13AG00001000000000001234705700000000000000200000000000000000000000008224Z01620180228X066005000
2MAIL0000064413BR23        BRG1        BRG1COCO    BRG1COCO13AG00001100000000001234705800000000000000100000000000000000000000004112Z01620180228X066005000
2MAIL0000064413BR23        BRG1        BRG1COCO    BRG1COCO13AG00001200000000001236512800000000000002600000000000000000000000004047Z01620180228X066008000
2MAIL0000064413BR23        BRG1        BRG1COCO    BRG1COCO13AG00001300000000001236512900000000000003500000000000000000000000005586Z01620180228X066005000
2MAIL0000064413BR23        BRG1        BRG1COCO    BRG1COCO13AG00001400000000001236514100000000000002600000000000000000000000004047Z01620180228X066008000
2MAIL0000064413BR23        BRG1        BRG1COCO    BRG1COCO13AG00001500000000001236515000000000000003500000000000000000000000005586Z01620180228X066005000
2MAIL0000064413BR23        BRG1        BRG1COCO    BRG1COCO13AG00001600000000001236528200000000000002000000000000000000000000007537Z01620180228X066010000
1MAIL0000064414BR23        BRG1        BRG1COCO    BRG1COCO13AG2018022800:00:00OR  01000003697061000369706164414                              2018022820180228Z016CIF201802280000000000037799NN0                                                  0
2MAIL0000064414BR23        BRG1        BRG1COCO    BRG1COCO13AG00000100000000001228090100000000000003000000000000000000000000022286Z01620180228X066004960
2MAIL0000064414BR23        BRG1        BRG1COCO    BRG1COCO13AG00000200000000001233081900000000000001400000000000000000000000005171Z01620180228X066010000
2MAIL0000064414BR23        BRG1        BRG1COCO    BRG1COCO13AG00000300000000001233098400000000000001400000000000000000000000005171Z01620180228X066010000
2MAIL0000064414BR23        BRG1        BRG1COCO    BRG1COCO13AG00000400000000001233154200000000000001400000000000000000000000005171Z01620180228X066010000
1MAIL0000064415BR23        BRG1        BRG1COCO    BRG1COCO13AG2018022800:00:00OR  01000004915718000491571864415                              2018022820180228Z016CIF201802280000000000009426NN0                                                  0
2MAIL0000064415BR23        BRG1        BRG1COCO    BRG1COCO13AG00000100000000001234705700000000000000100000000000000000000000004713Z01620180228X066005000
2MAIL0000064415BR23        BRG1        BRG1COCO    BRG1COCO13AG00000200000000001234705800000000000000100000000000000000000000004713Z01620180228X066005000
1MAIL0000064416BR23        BRG1        BRG1COCO    BRG1COCO13AG2018022800:00:00OR  01000004034103000403410364416                              2018022820180228Z016CIF201802280000000000006144NN0                                                  0
2MAIL0000064416BR23        BRG1        BRG1COCO    BRG1COCO13AG00000100000000001132020900000000000000200000000000000000000000004369Z01620180228X066005000
2MAIL0000064416BR23        BRG1        BRG1COCO    BRG1COCO13AG00000200000000001132200400000000000000100000000000000000000000001775Z01620180228X066004850
1MAIL0000064417BR23        BRG1        BRG1COCO    BRG1COCO13AG2018022800:00:00OR  01000005413144000541314464417                              2018022820180228Z016CIF201802280000000000011474NN0                                                  0
2MAIL0000064417BR23        BRG1        BRG1COCO    BRG1COCO13AG00000100000000001132019800000000000000100000000000000000000000002184Z01620180228X066005000
2MAIL0000064417BR23        BRG1        BRG1COCO    BRG1COCO13AG00000200000000001132019900000000000000100000000000000000000000002184Z01620180228X066005000
2MAIL0000064417BR23        BRG1        BRG1COCO    BRG1COCO13AG00000300000000001132020900000000000000100000000000000000000000002184Z01620180228X066005000
2MAIL0000064417BR23        BRG1        BRG1COCO    BRG1COCO13AG00000400000000001132033100000000000000100000000000000000000000001641Z01620180228X066015000
2MAIL0000064417BR23        BRG1        BRG1COCO    BRG1COCO13AG00000500000000001132036700000000000000200000000000000000000000003281Z01620180228X066015000
1MAIL0000064418BR23        BRG1        BRG1COCO    BRG1COCO13AG2018022800:00:00OR  01000002899498000289949864418                              2018022820180228Z016CIF201802280000000000067314NN0                                                  0
2MAIL0000064418BR23        BRG1        BRG1COCO    BRG1COCO13AG00000100000000001132030800000000000000400000000000000000000000012446Z01620180228X066018000
2MAIL0000064418BR23        BRG1        BRG1COCO    BRG1COCO13AG00000200000000001132033900000000000000400000000000000000000000013652Z01620180228X066018000
2MAIL0000064418BR23        BRG1        BRG1COCO    BRG1COCO13AG00000300000000001226089600000000000001200000000000000000000000003816Z01620180228X066006750
2MAIL0000064418BR23        BRG1        BRG1COCO    BRG1COCO13AG00000400000000001233081900000000000001400000000000000000000000004675Z01620180228X066006750
2MAIL0000064418BR23        BRG1        BRG1COCO    BRG1COCO13AG00000500000000001233098400000000000001400000000000000000000000004675Z01620180228X066006750
2MAIL0000064418BR23        BRG1        BRG1COCO    BRG1COCO13AG00000600000000001233098500000000000001400000000000000000000000004675Z01620180228X066006750
2MAIL0000064418BR23        BRG1        BRG1COCO    BRG1COCO13AG00000700000000001233098600000000000001400000000000000000000000004675Z01620180228X066006750
2MAIL0000064418BR23        BRG1        BRG1COCO    BRG1COCO13AG00000800000000001233098800000000000001400000000000000000000000004675Z01620180228X066006750
2MAIL0000064418BR23        BRG1        BRG1COCO    BRG1COCO13AG00000900000000001233099500000000000001400000000000000000000000004675Z01620180228X066006750
2MAIL0000064418BR23        BRG1        BRG1COCO    BRG1COCO13AG00001000000000001233154200000000000001400000000000000000000000004675Z01620180228X066006750
2MAIL0000064418BR23        BRG1        BRG1COCO    BRG1COCO13AG00001100000000001234708700000000000001400000000000000000000000004675Z01620180228X066006750
1MAIL0000064419BR23        BRG1        BRG1COCO    BRG1COCO13AG2018022800:00:00OR  01000004170390000417039064419                              2018022820180228Z016CIF201802280000000000047670NN0                                                  0
2MAIL0000064419BR23        BRG1        BRG1COCO    BRG1COCO13AG00000100000000001215533700000000000000100000000000000000000000001544Z01620180228X066007000
2MAIL0000064419BR23        BRG1        BRG1COCO    BRG1COCO13AG00000200000000001228090100000000000006000000000000000000000000038868Z01620180228X066000000
2MAIL0000064419BR23        BRG1        BRG1COCO    BRG1COCO13AG00000300000000001234705700000000000000100000000000000000000000003722Z01620180228X066000000
2MAIL0000064419BR23        BRG1        BRG1COCO    BRG1COCO13AG00000400000000001234705800000000000000100000000000000000000000003536Z01620180228X066005000
1MAIL0000064420BR23        BRG1        BRG1COCO    BRG1COCO13AG2018022800:00:00OR  01000004406142000440614264420                              2018022820180228Z016CIF201802280000000000010249NN0                                                  0
2MAIL0000064420BR23        BRG1        BRG1COCO    BRG1COCO13AG00000100000000001132036700000000000000300000000000000000000000004923Z01620180228X066015000
2MAIL0000064420BR23        BRG1        BRG1COCO    BRG1COCO13AG00000200000000001132200400000000000000300000000000000000000000005326Z01620180228X066004850
1MAIL0000064421BR23        BRG1        BRG1COCO    BRG1COCO13AG2018022800:00:00OR  01000002898651000289865164421                              2018022820180228Z859CIF201802280000000000043953NN0                                                  0
2MAIL0000064421BR23        BRG1        BRG1COCO    BRG1COCO13AG00000100000000001233114700000000000002000000000000000000000000025851Z85920180228X066000000
2MAIL0000064421BR23        BRG1        BRG1COCO    BRG1COCO13AG00000200000000001235356200000000000000800000000000000000000000018102Z85920180228X066000000
1MAIL0000064422BR23        BRG1        BRG1COCO    BRG1COCO13AG2018022800:00:00OR  01000002984648000298464864422                              2018022820180228Z859CIF201802280000000000200079NN0                                                  0
2MAIL0000064422BR23        BRG1        BRG1COCO    BRG1COCO13AG00000100000000001233114700000000000004000000000000000000000000051702Z85920180228X066000000
2MAIL0000064422BR23        BRG1        BRG1COCO    BRG1COCO13AG00000200000000001235356200000000000004500000000000000000000000101824Z85920180228X066000000
2MAIL0000064422BR23        BRG1        BRG1COCO    BRG1COCO13AG00000300000000001235737300000000000001600000000000000000000000046553Z85920180228X066000000
1MAIL0000064423BR23        BRG1        BRG1COCO    BRG1COCO13AG2018022800:00:00OR  01000002983961000298396164423                              2018022820180228Z016CIF201802280000000000079736NN0                                                  0
2MAIL0000064423BR23        BRG1        BRG1COCO    BRG1COCO13AG00000100000000001226089600000000000002400000000000000000000000007692Z01620180228X066006000
2MAIL0000064423BR23        BRG1        BRG1COCO    BRG1COCO13AG00000200000000001233081900000000000002800000000000000000000000009423Z01620180228X066006000
2MAIL0000064423BR23        BRG1        BRG1COCO    BRG1COCO13AG00000300000000001233098400000000000002800000000000000000000000009423Z01620180228X066006000
2MAIL0000064423BR23        BRG1        BRG1COCO    BRG1COCO13AG00000400000000001233098500000000000002800000000000000000000000009423Z01620180228X066006000
2MAIL0000064423BR23        BRG1        BRG1COCO    BRG1COCO13AG00000500000000001233098600000000000001400000000000000000000000004712Z01620180228X066006000
2MAIL0000064423BR23        BRG1        BRG1COCO    BRG1COCO13AG00000600000000001233098800000000000002800000000000000000000000009423Z01620180228X066006000
2MAIL0000064423BR23        BRG1        BRG1COCO    BRG1COCO13AG00000700000000001233099500000000000002800000000000000000000000009423Z01620180228X066006000
2MAIL0000064423BR23        BRG1        BRG1COCO    BRG1COCO13AG00000800000000001233154200000000000001400000000000000000000000004762Z01620180228X066005000
2MAIL0000064423BR23        BRG1        BRG1COCO    BRG1COCO13AG00000900000000001234708700000000000001400000000000000000000000004712Z01620180228X066006000
2MAIL0000064423BR23        BRG1        BRG1COCO    BRG1COCO13AG00001000000000001235699400000000000001000000000000000000000000003581Z01620180228X066000000
2MAIL0000064423BR23        BRG1        BRG1COCO    BRG1COCO13AG00001100000000001235699700000000000001000000000000000000000000003581Z01620180228X066000000
2MAIL0000064423BR23        BRG1        BRG1COCO    BRG1COCO13AG00001200000000001235699800000000000001000000000000000000000000003581Z01620180228X066000000
1MAIL0000064424BR23        BRG1        BRG1COCO    BRG1COCO13AG2018022800:00:00OR  01000002983962000298396264424                              2018022820180228Z016CIF201802280000000000022583NN0                                                  0
2MAIL0000064424BR23        BRG1        BRG1COCO    BRG1COCO13AG00000100000000001132033100000000000000100000000000000000000000001641Z01620180228X066015000
2MAIL0000064424BR23        BRG1        BRG1COCO    BRG1COCO13AG00000200000000001132036700000000000000200000000000000000000000003281Z01620180228X066015000
2MAIL0000064424BR23        BRG1        BRG1COCO    BRG1COCO13AG00000300000000001215533700000000000000100000000000000000000000001641Z01620180228X066015000
2MAIL0000064424BR23        BRG1        BRG1COCO    BRG1COCO13AG00000400000000001227395500000000000000100000000000000000000000001641Z01620180228X066015000
2MAIL0000064424BR23        BRG1        BRG1COCO    BRG1COCO13AG00000500000000001228100400000000000000200000000000000000000000004309Z01620180228X066018000
2MAIL0000064424BR23        BRG1        BRG1COCO    BRG1COCO13AG00000600000000001231389600000000000000100000000000000000000000001641Z01620180228X066015000
2MAIL0000064424BR23        BRG1        BRG1COCO    BRG1COCO13AG00000700000000001233695100000000000000100000000000000000000000001641Z01620180228X066015000
2MAIL0000064424BR23        BRG1        BRG1COCO    BRG1COCO13AG00000800000000001235356200000000000000300000000000000000000000006788Z01620180228X066000000
1MAIL0000064425BR23        BRG1        BRG1COCO    BRG1COCO13AG2018022800:00:00OR  01000002983957000298395764425                              2018022820180228Z016CIF201802280000000000076368NN0                                                  0
2MAIL0000064425BR23        BRG1        BRG1COCO    BRG1COCO13AG00000100000000001132033100000000000000300000000000000000000000004923Z01620180228X066015000
2MAIL0000064425BR23        BRG1        BRG1COCO    BRG1COCO13AG00000200000000001132036700000000000000300000000000000000000000004923Z01620180228X066015000
2MAIL0000064425BR23        BRG1        BRG1COCO    BRG1COCO13AG00000300000000001215533700000000000000300000000000000000000000004923Z01620180228X066015000
2MAIL0000064425BR23        BRG1        BRG1COCO    BRG1COCO13AG00000400000000001223975300000000000000100000000000000000000000004112Z01620180228X066005000
2MAIL0000064425BR23        BRG1        BRG1COCO    BRG1COCO13AG00000500000000001227395500000000000000300000000000000000000000004923Z01620180228X066015000
2MAIL0000064425BR23        BRG1        BRG1COCO    BRG1COCO13AG00000600000000001228090100000000000003000000000000000000000000019639Z01620180228X066004000
2MAIL0000064425BR23        BRG1        BRG1COCO    BRG1COCO13AG00000700000000001228512700000000000000100000000000000000000000004112Z01620180228X066005000
2MAIL0000064425BR23        BRG1        BRG1COCO    BRG1COCO13AG00000800000000001231231200000000000000100000000000000000000000004112Z01620180228X066005000
2MAIL0000064425BR23        BRG1        BRG1COCO    BRG1COCO13AG00000900000000001231389600000000000000300000000000000000000000004923Z01620180228X066015000
2MAIL0000064425BR23        BRG1        BRG1COCO    BRG1COCO13AG00001000000000001233695100000000000000300000000000000000000000004923Z01620180228X066015000
2MAIL0000064425BR23        BRG1        BRG1COCO    BRG1COCO13AG00001100000000001234705700000000000000100000000000000000000000004112Z01620180228X066005000
2MAIL0000064425BR23        BRG1        BRG1COCO    BRG1COCO13AG00001200000000001235699400000000000001000000000000000000000000003581Z01620180228X066000000
2MAIL0000064425BR23        BRG1        BRG1COCO    BRG1COCO13AG00001300000000001235699700000000000001000000000000000000000000003581Z01620180228X066000000
2MAIL0000064425BR23        BRG1        BRG1COCO    BRG1COCO13AG00001400000000001235699800000000000001000000000000000000000000003581Z01620180228X066000000
