1MAIL0000064781BR23        BRG1        BRG1COCO    BRG1COCO13AG2018030100:00:00OR  01000003855312000385531264781                              2018030120180301Z016CIF201803010000000000024080NN0                                                  0
2MAIL0000064781BR23        BRG1        BRG1COCO    BRG1COCO13AG00000100000000001132213000000000000000100000000000000000000000003808Z01620180301X066004000
2MAIL0000064781BR23        BRG1        BRG1COCO    BRG1COCO13AG00000200000000001227735000000000000000100000000000000000000000002184Z01620180301X066005000
2MAIL0000064781BR23        BRG1        BRG1COCO    BRG1COCO13AG00000300000000001228274000000000000000100000000000000000000000004522Z01620180301X066005000
2MAIL0000064781BR23        BRG1        BRG1COCO    BRG1COCO13AG00000400000000001231189200000000000000100000000000000000000000004522Z01620180301X066005000
2MAIL0000064781BR23        BRG1        BRG1COCO    BRG1COCO13AG00000500000000001231231200000000000000100000000000000000000000004522Z01620180301X066005000
2MAIL0000064781BR23        BRG1        BRG1COCO    BRG1COCO13AG00000600000000001234705700000000000000100000000000000000000000004522Z01620180301X066005000
