1MAIL0000064935BR23        BRG1        BRG1COCO    BRG1COCO13AG2018030200:00:00OR  01000004163752000416375264935                              2018030220180303Z016CIF201803030000000000143812NN0                                                  0
2MAIL0000064935BR23        BRG1        BRG1COCO    BRG1COCO13AG00000100000000001214470800000000000002500000000000000000000000143812Z01620180303X066018000
1MAIL0000064936BR23        BRG1        BRG1COCO    BRG1COCO13AG2018030200:00:00OR  01000004163752000416375264936                              2018030220180303Z016CIF201803030000000000143812NN0                                                  0
2MAIL0000064936BR23        BRG1        BRG1COCO    BRG1COCO13AG00000100000000001214470800000000000002500000000000000000000000143812Z01620180303X066018000
1MAIL0000064937BR23        BRG1        BRG1COCO    BRG1COCO13AG2018030200:00:00OR  01000005156742000515674264937                              2018030220180303Z016CIF201803030000000000014253NN0                                                  0
2MAIL0000064937BR23        BRG1        BRG1COCO    BRG1COCO13AG00000100000000001132019900000000000000100000000000000000000000002184Z01620180303X066005000
2MAIL0000064937BR23        BRG1        BRG1COCO    BRG1COCO13AG00000200000000001132020900000000000000100000000000000000000000002184Z01620180303X066005000
2MAIL0000064937BR23        BRG1        BRG1COCO    BRG1COCO13AG00000300000000001132033100000000000000100000000000000000000000001641Z01620180303X066015000
2MAIL0000064937BR23        BRG1        BRG1COCO    BRG1COCO13AG00000400000000001132036700000000000000100000000000000000000000001641Z01620180303X066015000
2MAIL0000064937BR23        BRG1        BRG1COCO    BRG1COCO13AG00000500000000001215533700000000000000100000000000000000000000001641Z01620180303X066015000
2MAIL0000064937BR23        BRG1        BRG1COCO    BRG1COCO13AG00000600000000001233081900000000000001400000000000000000000000004962Z01620180303X066010000
1MAIL0000064938BR23        BRG1        BRG1COCO    BRG1COCO13AG2018030200:00:00OR  01000005376380000537638064938                              2018030220180303Z016CIF201803030000000000018682NN0                                                  0
2MAIL0000064938BR23        BRG1        BRG1COCO    BRG1COCO13AG00000100000000001132036700000000000000100000000000000000000000001641Z01620180303X066015000
2MAIL0000064938BR23        BRG1        BRG1COCO    BRG1COCO13AG00000200000000001228100400000000000000100000000000000000000000002155Z01620180303X066018000
2MAIL0000064938BR23        BRG1        BRG1COCO    BRG1COCO13AG00000300000000001233098400000000000001400000000000000000000000004962Z01620180303X066010000
2MAIL0000064938BR23        BRG1        BRG1COCO    BRG1COCO13AG00000400000000001233098500000000000001400000000000000000000000004962Z01620180303X066010000
2MAIL0000064938BR23        BRG1        BRG1COCO    BRG1COCO13AG00000500000000001233154200000000000001400000000000000000000000004962Z01620180303X066010000
1MAIL0000064939BR23        BRG1        BRG1COCO    BRG1COCO13AG2018030200:00:00OR  01000003829281000382928164939                              2018030220180303Z016CIF201803030000000000097276NN0                                                  0
2MAIL0000064939BR23        BRG1        BRG1COCO    BRG1COCO13AG00000100000000001132019900000000000000200000000000000000000000004553Z01620180303X066005000
2MAIL0000064939BR23        BRG1        BRG1COCO    BRG1COCO13AG00000200000000001132033100000000000000400000000000000000000000006840Z01620180303X066015000
2MAIL0000064939BR23        BRG1        BRG1COCO    BRG1COCO13AG00000300000000001132036700000000000000400000000000000000000000006840Z01620180303X066015000
2MAIL0000064939BR23        BRG1        BRG1COCO    BRG1COCO13AG00000400000000001215533700000000000000400000000000000000000000006840Z01620180303X066015000
2MAIL0000064939BR23        BRG1        BRG1COCO    BRG1COCO13AG00000500000000001223975300000000000000200000000000000000000000009426Z01620180303X066005000
2MAIL0000064939BR23        BRG1        BRG1COCO    BRG1COCO13AG00000600000000001227395500000000000000400000000000000000000000006840Z01620180303X066015000
2MAIL0000064939BR23        BRG1        BRG1COCO    BRG1COCO13AG00000700000000001227735000000000000000200000000000000000000000004553Z01620180303X066005000
2MAIL0000064939BR23        BRG1        BRG1COCO    BRG1COCO13AG00000800000000001228274000000000000000200000000000000000000000009426Z01620180303X066005000
2MAIL0000064939BR23        BRG1        BRG1COCO    BRG1COCO13AG00000900000000001228512700000000000000200000000000000000000000009426Z01620180303X066005000
2MAIL0000064939BR23        BRG1        BRG1COCO    BRG1COCO13AG00001000000000001231189200000000000000200000000000000000000000009426Z01620180303X066005000
2MAIL0000064939BR23        BRG1        BRG1COCO    BRG1COCO13AG00001100000000001231231200000000000000200000000000000000000000009426Z01620180303X066005000
2MAIL0000064939BR23        BRG1        BRG1COCO    BRG1COCO13AG00001200000000001231389600000000000000400000000000000000000000006840Z01620180303X066015000
2MAIL0000064939BR23        BRG1        BRG1COCO    BRG1COCO13AG00001300000000001233695100000000000000400000000000000000000000006840Z01620180303X066015000
1MAIL0000064940BR23        BRG1        BRG1COCO    BRG1COCO13AG2018030200:00:00OR  01000005079812000507981264940                              2018030220180303Z016CIF201803030000000000006463NN0                                                  0
2MAIL0000064940BR23        BRG1        BRG1COCO    BRG1COCO13AG00000100000000001233114700000000000000500000000000000000000000006463Z01620180303X066000000
1MAIL0000064941BR23        BRG1        BRG1COCO    BRG1COCO13AG2018030200:00:00OR  01000005079812000507981264941                              2018030220180303Z016CIF201803030000000000039730NN0                                                  0
2MAIL0000064941BR23        BRG1        BRG1COCO    BRG1COCO13AG00000100000000001132018300000000000000100000000000000000000000004078Z01620180303X066015000
2MAIL0000064941BR23        BRG1        BRG1COCO    BRG1COCO13AG00000200000000001132019700000000000000100000000000000000000000002184Z01620180303X066005000
2MAIL0000064941BR23        BRG1        BRG1COCO    BRG1COCO13AG00000300000000001132019800000000000000100000000000000000000000002184Z01620180303X066005000
2MAIL0000064941BR23        BRG1        BRG1COCO    BRG1COCO13AG00000400000000001132020900000000000000100000000000000000000000002184Z01620180303X066005000
2MAIL0000064941BR23        BRG1        BRG1COCO    BRG1COCO13AG00000500000000001132033100000000000000100000000000000000000000001796Z01620180303X066007000
2MAIL0000064941BR23        BRG1        BRG1COCO    BRG1COCO13AG00000600000000001132036700000000000000100000000000000000000000001796Z01620180303X066007000
2MAIL0000064941BR23        BRG1        BRG1COCO    BRG1COCO13AG00000700000000001132200400000000000000100000000000000000000000001866Z01620180303X066000000
2MAIL0000064941BR23        BRG1        BRG1COCO    BRG1COCO13AG00000800000000001132400100000000000000100000000000000000000000003336Z01620180303X066005000
2MAIL0000064941BR23        BRG1        BRG1COCO    BRG1COCO13AG00000900000000001215533700000000000000100000000000000000000000001796Z01620180303X066007000
2MAIL0000064941BR23        BRG1        BRG1COCO    BRG1COCO13AG00001000000000001221415400000000000000100000000000000000000000004078Z01620180303X066015000
2MAIL0000064941BR23        BRG1        BRG1COCO    BRG1COCO13AG00001100000000001227395500000000000000100000000000000000000000001796Z01620180303X066007000
2MAIL0000064941BR23        BRG1        BRG1COCO    BRG1COCO13AG00001200000000001231389600000000000000100000000000000000000000001796Z01620180303X066007000
2MAIL0000064941BR23        BRG1        BRG1COCO    BRG1COCO13AG00001300000000001233695100000000000000100000000000000000000000001796Z01620180303X066007000
2MAIL0000064941BR23        BRG1        BRG1COCO    BRG1COCO13AG00001400000000001234705700000000000000100000000000000000000000004522Z01620180303X066005000
2MAIL0000064941BR23        BRG1        BRG1COCO    BRG1COCO13AG00001500000000001234705800000000000000100000000000000000000000004522Z01620180303X066005000
1MAIL0000064942BR23        BRG1        BRG1COCO    BRG1COCO13AG2018030200:00:00OR  01000005079812000507981264942                              2018030220180303Z016CIF201803030000000000118610NN0                                                  0
2MAIL0000064942BR23        BRG1        BRG1COCO    BRG1COCO13AG00000100000000001223975300000000000000100000000000000000000000004522Z01620180303X066005000
2MAIL0000064942BR23        BRG1        BRG1COCO    BRG1COCO13AG00000200000000001224882700000000000000100000000000000000000000002855Z01620180303X066005000
2MAIL0000064942BR23        BRG1        BRG1COCO    BRG1COCO13AG00000300000000001224882800000000000000100000000000000000000000002855Z01620180303X066005000
2MAIL0000064942BR23        BRG1        BRG1COCO    BRG1COCO13AG00000400000000001228100400000000000001000000000000000000000000022072Z01620180303X066016000
2MAIL0000064942BR23        BRG1        BRG1COCO    BRG1COCO13AG00000500000000001228134700000000000000100000000000000000000000002855Z01620180303X066005000
2MAIL0000064942BR23        BRG1        BRG1COCO    BRG1COCO13AG00000600000000001228274000000000000000100000000000000000000000004522Z01620180303X066005000
2MAIL0000064942BR23        BRG1        BRG1COCO    BRG1COCO13AG00000700000000001228512700000000000000100000000000000000000000004522Z01620180303X066005000
2MAIL0000064942BR23        BRG1        BRG1COCO    BRG1COCO13AG00000800000000001231189200000000000000100000000000000000000000004522Z01620180303X066005000
2MAIL0000064942BR23        BRG1        BRG1COCO    BRG1COCO13AG00000900000000001231231200000000000000100000000000000000000000004522Z01620180303X066005000
2MAIL0000064942BR23        BRG1        BRG1COCO    BRG1COCO13AG00001000000000001231417800000000000000100000000000000000000000002855Z01620180303X066005000
2MAIL0000064942BR23        BRG1        BRG1COCO    BRG1COCO13AG00001100000000001234705700000000000000100000000000000000000000004522Z01620180303X066005000
2MAIL0000064942BR23        BRG1        BRG1COCO    BRG1COCO13AG00001200000000001234705800000000000000100000000000000000000000004522Z01620180303X066005000
2MAIL0000064942BR23        BRG1        BRG1COCO    BRG1COCO13AG00001300000000001236512800000000000005200000000000000000000000009092Z01620180303X066000000
2MAIL0000064942BR23        BRG1        BRG1COCO    BRG1COCO13AG00001400000000001236512900000000000007000000000000000000000000011760Z01620180303X066000000
2MAIL0000064942BR23        BRG1        BRG1COCO    BRG1COCO13AG00001500000000001236514100000000000005200000000000000000000000009092Z01620180303X066000000
2MAIL0000064942BR23        BRG1        BRG1COCO    BRG1COCO13AG00001600000000001236515000000000000014000000000000000000000000023520Z01620180303X066000000
1MAIL0000064943BR23        BRG1        BRG1COCO    BRG1COCO13AG2018030200:00:00OR  01000005326862000532686264943                              2018030220180303Z016CIF201803030000000000049938NN0                                                  0
2MAIL0000064943BR23        BRG1        BRG1COCO    BRG1COCO13AG00000100000000001132033100000000000000100000000000000000000000001738Z01620180303X066010000
2MAIL0000064943BR23        BRG1        BRG1COCO    BRG1COCO13AG00000200000000001132036700000000000000200000000000000000000000003474Z01620180303X066010000
2MAIL0000064943BR23        BRG1        BRG1COCO    BRG1COCO13AG00000300000000001132200400000000000000600000000000000000000000011194Z01620180303X066000000
2MAIL0000064943BR23        BRG1        BRG1COCO    BRG1COCO13AG00000400000000001215533700000000000000200000000000000000000000003474Z01620180303X066010000
2MAIL0000064943BR23        BRG1        BRG1COCO    BRG1COCO13AG00000500000000001227395500000000000000200000000000000000000000003474Z01620180303X066010000
2MAIL0000064943BR23        BRG1        BRG1COCO    BRG1COCO13AG00000600000000001231389600000000000000200000000000000000000000003474Z01620180303X066010000
2MAIL0000064943BR23        BRG1        BRG1COCO    BRG1COCO13AG00000700000000001233695100000000000000200000000000000000000000003474Z01620180303X066010000
2MAIL0000064943BR23        BRG1        BRG1COCO    BRG1COCO13AG00000800000000001234705700000000000000100000000000000000000000004522Z01620180303X066005000
2MAIL0000064943BR23        BRG1        BRG1COCO    BRG1COCO13AG00000900000000001234705800000000000000100000000000000000000000004522Z01620180303X066005000
2MAIL0000064943BR23        BRG1        BRG1COCO    BRG1COCO13AG00001000000000001236512800000000000001500000000000000000000000002623Z01620180303X066000000
2MAIL0000064943BR23        BRG1        BRG1COCO    BRG1COCO13AG00001100000000001236512900000000000001500000000000000000000000002673Z01620180303X066005000
2MAIL0000064943BR23        BRG1        BRG1COCO    BRG1COCO13AG00001200000000001236514100000000000001500000000000000000000000002623Z01620180303X066000000
2MAIL0000064943BR23        BRG1        BRG1COCO    BRG1COCO13AG00001300000000001236515000000000000001500000000000000000000000002673Z01620180303X066005000
1MAIL0000064944BR23        BRG1        BRG1COCO    BRG1COCO13AG2018030200:00:00OR  01000002916856000291685664944                              2018030220180303Z016CIF201803030000000000009329NN0                                                  0
2MAIL0000064944BR23        BRG1        BRG1COCO    BRG1COCO13AG00000100000000001132200400000000000000500000000000000000000000009329Z01620180303X066000000
