1MAIL0000064070BR23        BRG1        BRG1COCO    BRG1COCO13AG2018022300:00:00OR  01000004197956000419795664070                              2018022320180223Z859CIF201802230000000000017777NN0                                                  0
2MAIL0000064070BR23        BRG1        BRG1COCO    BRG1COCO13AG00000100000000001233114700000000000000500000000000000000000000006463Z85920180223X066000000
2MAIL0000064070BR23        BRG1        BRG1COCO    BRG1COCO13AG00000200000000001235356200000000000000500000000000000000000000011314Z85920180223X066000000
1MAIL0000064071BR23        BRG1        BRG1COCO    BRG1COCO13AG2018022300:00:00OR  01000004197956000419795664071                              2018022320180223Z016CIF201802230000000000047942NN0                                                  0
2MAIL0000064071BR23        BRG1        BRG1COCO    BRG1COCO13AG00000100000000001132036700000000000001500000000000000000000000024621Z01620180223X066015000
2MAIL0000064071BR23        BRG1        BRG1COCO    BRG1COCO13AG00000200000000001132200400000000000000100000000000000000000000001775Z01620180223X066004850
2MAIL0000064071BR23        BRG1        BRG1COCO    BRG1COCO13AG00000300000000001228100400000000000001000000000000000000000000021546Z01620180223X066018000
1MAIL0000064072BR23        BRG1        BRG1COCO    BRG1COCO13AG2018022300:00:00OR  01000004872333000487233364072                              2018022320180223Z016CIF201802230000000000306411NN0                                                  0
2MAIL0000064072BR23        BRG1        BRG1COCO    BRG1COCO13AG00000100000000001132018300000000000000200000000000000000000000006190Z01620180223X066025000
2MAIL0000064072BR23        BRG1        BRG1COCO    BRG1COCO13AG00000200000000001132019700000000000000200000000000000000000000003757Z01620180223X066005000
2MAIL0000064072BR23        BRG1        BRG1COCO    BRG1COCO13AG00000300000000001132019800000000000000200000000000000000000000003757Z01620180223X066005000
2MAIL0000064072BR23        BRG1        BRG1COCO    BRG1COCO13AG00000400000000001132019900000000000000200000000000000000000000003757Z01620180223X066005000
2MAIL0000064072BR23        BRG1        BRG1COCO    BRG1COCO13AG00000500000000001132020900000000000000200000000000000000000000003757Z01620180223X066005000
2MAIL0000064072BR23        BRG1        BRG1COCO    BRG1COCO13AG00000600000000001132033100000000000001000000000000000000000000015439Z01620180223X066007000
2MAIL0000064072BR23        BRG1        BRG1COCO    BRG1COCO13AG00000700000000001132036700000000000003200000000000000000000000049405Z01620180223X066007000
2MAIL0000064072BR23        BRG1        BRG1COCO    BRG1COCO13AG00000800000000001132200400000000000004000000000000000000000000061068Z01620180223X066004850
2MAIL0000064072BR23        BRG1        BRG1COCO    BRG1COCO13AG00000900000000001132213000000000000000400000000000000000000000011790Z01620180223X066004950
2MAIL0000064072BR23        BRG1        BRG1COCO    BRG1COCO13AG00001000000000001132400100000000000000100000000000000000000000002869Z01620180223X066005000
2MAIL0000064072BR23        BRG1        BRG1COCO    BRG1COCO13AG00001100000000001215533700000000000001000000000000000000000000015439Z01620180223X066007000
2MAIL0000064072BR23        BRG1        BRG1COCO    BRG1COCO13AG00001200000000001221415400000000000000400000000000000000000000012378Z01620180223X066025000
2MAIL0000064072BR23        BRG1        BRG1COCO    BRG1COCO13AG00001300000000001223975300000000000000100000000000000000000000003536Z01620180223X066005000
2MAIL0000064072BR23        BRG1        BRG1COCO    BRG1COCO13AG00001400000000001226089600000000000001200000000000000000000000003883Z01620180223X066000100
2MAIL0000064072BR23        BRG1        BRG1COCO    BRG1COCO13AG00001500000000001227395500000000000001000000000000000000000000015439Z01620180223X066007000
2MAIL0000064072BR23        BRG1        BRG1COCO    BRG1COCO13AG00001600000000001227735000000000000000200000000000000000000000003757Z01620180223X066005000
2MAIL0000064072BR23        BRG1        BRG1COCO    BRG1COCO13AG00001700000000001228274000000000000000100000000000000000000000003536Z01620180223X066005000
2MAIL0000064072BR23        BRG1        BRG1COCO    BRG1COCO13AG00001800000000001228512700000000000000100000000000000000000000003536Z01620180223X066005000
2MAIL0000064072BR23        BRG1        BRG1COCO    BRG1COCO13AG00001900000000001231189200000000000000100000000000000000000000003536Z01620180223X066005000
2MAIL0000064072BR23        BRG1        BRG1COCO    BRG1COCO13AG00002000000000001231231200000000000000100000000000000000000000003536Z01620180223X066005000
2MAIL0000064072BR23        BRG1        BRG1COCO    BRG1COCO13AG00002100000000001231389600000000000001000000000000000000000000015439Z01620180223X066007000
2MAIL0000064072BR23        BRG1        BRG1COCO    BRG1COCO13AG00002200000000001233081900000000000001400000000000000000000000004762Z01620180223X066000000
2MAIL0000064072BR23        BRG1        BRG1COCO    BRG1COCO13AG00002300000000001233098400000000000001400000000000000000000000004762Z01620180223X066000000
2MAIL0000064072BR23        BRG1        BRG1COCO    BRG1COCO13AG00002400000000001233098500000000000001400000000000000000000000004762Z01620180223X066000000
2MAIL0000064072BR23        BRG1        BRG1COCO    BRG1COCO13AG00002500000000001233098600000000000001400000000000000000000000004762Z01620180223X066000000
2MAIL0000064072BR23        BRG1        BRG1COCO    BRG1COCO13AG00002600000000001233098800000000000001400000000000000000000000004762Z01620180223X066000000
2MAIL0000064072BR23        BRG1        BRG1COCO    BRG1COCO13AG00002700000000001233099500000000000001400000000000000000000000004762Z01620180223X066000000
2MAIL0000064072BR23        BRG1        BRG1COCO    BRG1COCO13AG00002800000000001233154200000000000001400000000000000000000000004762Z01620180223X066000000
2MAIL0000064072BR23        BRG1        BRG1COCO    BRG1COCO13AG00002900000000001233695100000000000001000000000000000000000000015439Z01620180223X066007000
2MAIL0000064072BR23        BRG1        BRG1COCO    BRG1COCO13AG00003000000000001234705700000000000000100000000000000000000000003536Z01620180223X066005000
2MAIL0000064072BR23        BRG1        BRG1COCO    BRG1COCO13AG00003100000000001234705800000000000000100000000000000000000000003536Z01620180223X066005000
2MAIL0000064072BR23        BRG1        BRG1COCO    BRG1COCO13AG00003200000000001234708700000000000001400000000000000000000000004762Z01620180223X066000000
1MAIL0000064073BR23        BRG1        BRG1COCO    BRG1COCO13AG2018022300:00:00OR  01000002924755000292475564073                              2018022320180223Z859CIF201802230000000000030385NN0                                                  0
2MAIL0000064073BR23        BRG1        BRG1COCO    BRG1COCO13AG00000100000000001233114700000000000000400000000000000000000000005170Z85920180223X066000000
2MAIL0000064073BR23        BRG1        BRG1COCO    BRG1COCO13AG00000200000000001235356200000000000000600000000000000000000000013577Z85920180223X066000000
2MAIL0000064073BR23        BRG1        BRG1COCO    BRG1COCO13AG00000300000000001235737300000000000000400000000000000000000000011638Z85920180223X066000000
1MAIL0000064074BR23        BRG1        BRG1COCO    BRG1COCO13AG2018022300:00:00OR  01000005148786000514878664074                              2018022320180223Z016CIF201802230000000000036664NN0                                                  0
2MAIL0000064074BR23        BRG1        BRG1COCO    BRG1COCO13AG00000100000000001132019700000000000000100000000000000000000000002184Z01620180223X066005000
2MAIL0000064074BR23        BRG1        BRG1COCO    BRG1COCO13AG00000200000000001132033100000000000000100000000000000000000000001641Z01620180223X066015000
2MAIL0000064074BR23        BRG1        BRG1COCO    BRG1COCO13AG00000300000000001132036700000000000000200000000000000000000000003282Z01620180223X066015000
2MAIL0000064074BR23        BRG1        BRG1COCO    BRG1COCO13AG00000400000000001215533700000000000000200000000000000000000000003282Z01620180223X066015000
2MAIL0000064074BR23        BRG1        BRG1COCO    BRG1COCO13AG00000500000000001226089600000000000001200000000000000000000000004051Z01620180223X066010000
2MAIL0000064074BR23        BRG1        BRG1COCO    BRG1COCO13AG00000600000000001227395500000000000000200000000000000000000000003282Z01620180223X066015000
2MAIL0000064074BR23        BRG1        BRG1COCO    BRG1COCO13AG00000700000000001228090100000000000001500000000000000000000000010698Z01620180223X066004930
2MAIL0000064074BR23        BRG1        BRG1COCO    BRG1COCO13AG00000800000000001231389600000000000000200000000000000000000000003282Z01620180223X066015000
2MAIL0000064074BR23        BRG1        BRG1COCO    BRG1COCO13AG00000900000000001233098400000000000001400000000000000000000000004962Z01620180223X066010000
