1MAIL0000065900BR23        BRG1        BRG1COCO    BRG1COCO13AG2018030800:00:00OR  01000003241714000324171465900                              2018030820180310Z016CIF201803100000000000112014NN0                                                  0
2MAIL0000065900BR23        BRG1        BRG1COCO    BRG1COCO13AG00000100000000001132030800000000000003600000000000000000000000112014Z01620180310X066018000
1MAIL0000065901BR23        BRG1        BRG1COCO    BRG1COCO13AG2018030800:00:00OR  01000003241714000324171465901                              2018030820180310Z016CIF201803100000000000388858NN0                                                  0
2MAIL0000065901BR23        BRG1        BRG1COCO    BRG1COCO13AG00000100000000001228090100000000000060000000000000000000000000388858Z01620180310X066004960
1MAIL0000065902BR23        BRG1        BRG1COCO    BRG1COCO13AG2018030800:00:00OR  01000004812767000481276765902                              2018030820180310Z016CIF201803100000000000030875NN0                                                  0
2MAIL0000065902BR23        BRG1        BRG1COCO    BRG1COCO13AG00000100000000001132019900000000000000100000000000000000000000002184Z01620180310X066005000
2MAIL0000065902BR23        BRG1        BRG1COCO    BRG1COCO13AG00000200000000001132033100000000000000200000000000000000000000003282Z01620180310X066015000
2MAIL0000065902BR23        BRG1        BRG1COCO    BRG1COCO13AG00000300000000001132036700000000000000200000000000000000000000003282Z01620180310X066015000
2MAIL0000065902BR23        BRG1        BRG1COCO    BRG1COCO13AG00000400000000001132200400000000000000100000000000000000000000001775Z01620180310X066004850
2MAIL0000065902BR23        BRG1        BRG1COCO    BRG1COCO13AG00000500000000001231389600000000000000100000000000000000000000001641Z01620180310X066015000
2MAIL0000065902BR23        BRG1        BRG1COCO    BRG1COCO13AG00000600000000001234705700000000000000100000000000000000000000004522Z01620180310X066005000
2MAIL0000065902BR23        BRG1        BRG1COCO    BRG1COCO13AG00000700000000001234705800000000000000100000000000000000000000004522Z01620180310X066005000
2MAIL0000065902BR23        BRG1        BRG1COCO    BRG1COCO13AG00000800000000001235356200000000000000100000000000000000000000002263Z01620180310X066000000
2MAIL0000065902BR23        BRG1        BRG1COCO    BRG1COCO13AG00000900000000001235699400000000000001000000000000000000000000003702Z01620180310X066006000
2MAIL0000065902BR23        BRG1        BRG1COCO    BRG1COCO13AG00001000000000001235699800000000000001000000000000000000000000003702Z01620180310X066006000
1MAIL0000065903BR23        BRG1        BRG1COCO    BRG1COCO13AG2018030800:00:00OR  01000005175641000517564165903                              2018030820180310Z016CIF201803100000000000005496NN0                                                  0
2MAIL0000065903BR23        BRG1        BRG1COCO    BRG1COCO13AG00000100000000001132036700000000000000100000000000000000000000001931Z01620180310X066000000
2MAIL0000065903BR23        BRG1        BRG1COCO    BRG1COCO13AG00000200000000001228090100000000000000500000000000000000000000003565Z01620180310X066004960
1MAIL0000065904BR23        BRG1        BRG1COCO    BRG1COCO13AG2018030800:00:00OR  01000005175641000517564165904                              2018030820180310Z859CIF201803100000000000011314NN0                                                  0
2MAIL0000065904BR23        BRG1        BRG1COCO    BRG1COCO13AG00000100000000001235356200000000000000500000000000000000000000011314Z85920180310X066000000
1MAIL0000065905BR23        BRG1        BRG1COCO    BRG1COCO13AG2018030800:00:00OR  01000002851522000285152265905                              2018030820180310ZG40CIF201803100000000000053694NN0                                                  0
2MAIL0000065905BR23        BRG1        BRG1COCO    BRG1COCO13AG00000100000000001132036700000000000003200000000000000000000000053694ZG4020180310X066015000
1MAIL0000065906BR23        BRG1        BRG1COCO    BRG1COCO13AG2018030800:00:00OR  01000004104239000410423965906                              2018030820180310Z859CIF201803100000000000006788NN0                                                  0
2MAIL0000065906BR23        BRG1        BRG1COCO    BRG1COCO13AG00000100000000001235356200000000000000300000000000000000000000006788Z85920180310X066000000
1MAIL0000065907BR23        BRG1        BRG1COCO    BRG1COCO13AG2018030800:00:00OR  01000004104239000410423965907                              2018030820180310Z016CIF201803100000000000021605NN0                                                  0
2MAIL0000065907BR23        BRG1        BRG1COCO    BRG1COCO13AG00000100000000001228090100000000000003000000000000000000000000021605Z01620180310X066004000
1MAIL0000065908BR23        BRG1        BRG1COCO    BRG1COCO13AG2018030800:00:00OR  01000002983856000298385665908                              2018030820180310Z016CIF201803100000000000109829NN0                                                  0
2MAIL0000065908BR23        BRG1        BRG1COCO    BRG1COCO13AG00000100000000001132004200000000000000500000000000000000000000006254Z01620180310X066005000
2MAIL0000065908BR23        BRG1        BRG1COCO    BRG1COCO13AG00000200000000001132033100000000000000400000000000000000000000006565Z01620180310X066015000
2MAIL0000065908BR23        BRG1        BRG1COCO    BRG1COCO13AG00000300000000001132033900000000000000400000000000000000000000012998Z01620180310X066018000
2MAIL0000065908BR23        BRG1        BRG1COCO    BRG1COCO13AG00000400000000001132036700000000000000800000000000000000000000013128Z01620180310X066015000
2MAIL0000065908BR23        BRG1        BRG1COCO    BRG1COCO13AG00000500000000001215533700000000000000400000000000000000000000006565Z01620180310X066015000
2MAIL0000065908BR23        BRG1        BRG1COCO    BRG1COCO13AG00000600000000001223975300000000000000100000000000000000000000004522Z01620180310X066005000
2MAIL0000065908BR23        BRG1        BRG1COCO    BRG1COCO13AG00000700000000001227395500000000000000400000000000000000000000006565Z01620180310X066015000
2MAIL0000065908BR23        BRG1        BRG1COCO    BRG1COCO13AG00000800000000001231389600000000000000400000000000000000000000006565Z01620180310X066015000
2MAIL0000065908BR23        BRG1        BRG1COCO    BRG1COCO13AG00000900000000001233098400000000000001400000000000000000000000005017Z01620180310X066009000
2MAIL0000065908BR23        BRG1        BRG1COCO    BRG1COCO13AG00001000000000001233098500000000000001400000000000000000000000005017Z01620180310X066009000
2MAIL0000065908BR23        BRG1        BRG1COCO    BRG1COCO13AG00001100000000001233695100000000000000400000000000000000000000006565Z01620180310X066015000
2MAIL0000065908BR23        BRG1        BRG1COCO    BRG1COCO13AG00001200000000001234705700000000000000100000000000000000000000004522Z01620180310X066005000
2MAIL0000065908BR23        BRG1        BRG1COCO    BRG1COCO13AG00001300000000001234705800000000000000100000000000000000000000004522Z01620180310X066005000
2MAIL0000065908BR23        BRG1        BRG1COCO    BRG1COCO13AG00001400000000001235699400000000000001000000000000000000000000003939Z01620180310X066000000
2MAIL0000065908BR23        BRG1        BRG1COCO    BRG1COCO13AG00001500000000001235699700000000000001000000000000000000000000003939Z01620180310X066000000
2MAIL0000065908BR23        BRG1        BRG1COCO    BRG1COCO13AG00001600000000001235699800000000000001000000000000000000000000003939Z01620180310X066000000
2MAIL0000065908BR23        BRG1        BRG1COCO    BRG1COCO13AG00001700000000001236512800000000000001800000000000000000000000003147Z01620180310X066000000
2MAIL0000065908BR23        BRG1        BRG1COCO    BRG1COCO13AG00001800000000001236514100000000000001000000000000000000000000001748Z01620180310X066000000
2MAIL0000065908BR23        BRG1        BRG1COCO    BRG1COCO13AG00001900000000001236528200000000000001000000000000000000000000004312Z01620180310X066000000
1MAIL0000065909BR23        BRG1        BRG1COCO    BRG1COCO13AG2018030800:00:00OR  01000005161455000516145565909                              2018030820180310Z016CIF201803100000000000126129NN0                                                  0
2MAIL0000065909BR23        BRG1        BRG1COCO    BRG1COCO13AG00000100000000001132004200000000000001000000000000000000000000012508Z01620180310X066005000
2MAIL0000065909BR23        BRG1        BRG1COCO    BRG1COCO13AG00000200000000001132019700000000000000100000000000000000000000002184Z01620180310X066005000
2MAIL0000065909BR23        BRG1        BRG1COCO    BRG1COCO13AG00000300000000001132019800000000000000100000000000000000000000002184Z01620180310X066005000
2MAIL0000065909BR23        BRG1        BRG1COCO    BRG1COCO13AG00000400000000001132019900000000000000100000000000000000000000002184Z01620180310X066005000
2MAIL0000065909BR23        BRG1        BRG1COCO    BRG1COCO13AG00000500000000001132020900000000000000100000000000000000000000002184Z01620180310X066005000
2MAIL0000065909BR23        BRG1        BRG1COCO    BRG1COCO13AG00000600000000001132036700000000000000300000000000000000000000004923Z01620180310X066015000
2MAIL0000065909BR23        BRG1        BRG1COCO    BRG1COCO13AG00000700000000001132200400000000000000500000000000000000000000008904Z01620180310X066004550
2MAIL0000065909BR23        BRG1        BRG1COCO    BRG1COCO13AG00000800000000001132400100000000000000100000000000000000000000003336Z01620180310X066005000
2MAIL0000065909BR23        BRG1        BRG1COCO    BRG1COCO13AG00000900000000001221415400000000000000200000000000000000000000007677Z01620180310X066020000
2MAIL0000065909BR23        BRG1        BRG1COCO    BRG1COCO13AG00001000000000001227395500000000000000200000000000000000000000003281Z01620180310X066015000
2MAIL0000065909BR23        BRG1        BRG1COCO    BRG1COCO13AG00001100000000001227735000000000000000100000000000000000000000002184Z01620180310X066005000
2MAIL0000065909BR23        BRG1        BRG1COCO    BRG1COCO13AG00001200000000001228090100000000000003000000000000000000000000021389Z01620180310X066004960
2MAIL0000065909BR23        BRG1        BRG1COCO    BRG1COCO13AG00001300000000001231389600000000000000200000000000000000000000003281Z01620180310X066015000
2MAIL0000065909BR23        BRG1        BRG1COCO    BRG1COCO13AG00001400000000001233098400000000000002800000000000000000000000009934Z01620180310X066009920
2MAIL0000065909BR23        BRG1        BRG1COCO    BRG1COCO13AG00001500000000001233098600000000000001400000000000000000000000004967Z01620180310X066009920
2MAIL0000065909BR23        BRG1        BRG1COCO    BRG1COCO13AG00001600000000001233098800000000000001400000000000000000000000004967Z01620180310X066009920
2MAIL0000065909BR23        BRG1        BRG1COCO    BRG1COCO13AG00001700000000001233695100000000000000200000000000000000000000003281Z01620180310X066015000
2MAIL0000065909BR23        BRG1        BRG1COCO    BRG1COCO13AG00001800000000001234705700000000000000200000000000000000000000009046Z01620180310X066005000
2MAIL0000065909BR23        BRG1        BRG1COCO    BRG1COCO13AG00001900000000001234705800000000000000200000000000000000000000009046Z01620180310X066005000
2MAIL0000065909BR23        BRG1        BRG1COCO    BRG1COCO13AG00002000000000001234708700000000000001400000000000000000000000004967Z01620180310X066009920
2MAIL0000065909BR23        BRG1        BRG1COCO    BRG1COCO13AG00002100000000001235699800000000000001000000000000000000000000003702Z01620180310X066006000
1MAIL0000065911BR23        BRG1        BRG1COCO    BRG1COCO13AG2018030800:00:00OR  01000004958593000495859365911                              2018030820180308Z016CIF201803080000000000084883NN0                                                  0
2MAIL0000065911BR23        BRG1        BRG1COCO    BRG1COCO13AG00000100000000001132019800000000000000100000000000000000000000002184Z01620180308X066005000
2MAIL0000065911BR23        BRG1        BRG1COCO    BRG1COCO13AG00000200000000001132019900000000000000100000000000000000000000002184Z01620180308X066005000
2MAIL0000065911BR23        BRG1        BRG1COCO    BRG1COCO13AG00000300000000001132020900000000000000100000000000000000000000002184Z01620180308X066005000
2MAIL0000065911BR23        BRG1        BRG1COCO    BRG1COCO13AG00000400000000001132033100000000000000200000000000000000000000003281Z01620180308X066015000
2MAIL0000065911BR23        BRG1        BRG1COCO    BRG1COCO13AG00000500000000001132036700000000000000300000000000000000000000004923Z01620180308X066015000
2MAIL0000065911BR23        BRG1        BRG1COCO    BRG1COCO13AG00000600000000001132200400000000000000200000000000000000000000003731Z01620180308X066000000
2MAIL0000065911BR23        BRG1        BRG1COCO    BRG1COCO13AG00000700000000001132213000000000000000100000000000000000000000003808Z01620180308X066004000
2MAIL0000065911BR23        BRG1        BRG1COCO    BRG1COCO13AG00000800000000001132213100000000000000100000000000000000000000003808Z01620180308X066004000
2MAIL0000065911BR23        BRG1        BRG1COCO    BRG1COCO13AG00000900000000001132400100000000000000100000000000000000000000003336Z01620180308X066005000
2MAIL0000065911BR23        BRG1        BRG1COCO    BRG1COCO13AG00001000000000001215533700000000000000100000000000000000000000001641Z01620180308X066015000
2MAIL0000065911BR23        BRG1        BRG1COCO    BRG1COCO13AG00001100000000001226089600000000000002400000000000000000000000008193Z01620180308X066009000
2MAIL0000065911BR23        BRG1        BRG1COCO    BRG1COCO13AG00001200000000001227395500000000000000100000000000000000000000001641Z01620180308X066015000
2MAIL0000065911BR23        BRG1        BRG1COCO    BRG1COCO13AG00001300000000001227735000000000000000100000000000000000000000002184Z01620180308X066005000
2MAIL0000065911BR23        BRG1        BRG1COCO    BRG1COCO13AG00001400000000001231389600000000000000100000000000000000000000001641Z01620180308X066015000
2MAIL0000065911BR23        BRG1        BRG1COCO    BRG1COCO13AG00001500000000001233081900000000000002800000000000000000000000010036Z01620180308X066009000
2MAIL0000065911BR23        BRG1        BRG1COCO    BRG1COCO13AG00001600000000001233098400000000000002800000000000000000000000010036Z01620180308X066009000
2MAIL0000065911BR23        BRG1        BRG1COCO    BRG1COCO13AG00001700000000001233098600000000000002800000000000000000000000010036Z01620180308X066009000
2MAIL0000065911BR23        BRG1        BRG1COCO    BRG1COCO13AG00001800000000001233154200000000000002800000000000000000000000010036Z01620180308X066009000
