1MAIL0000064140BR23        BRG1        BRG1COCO    BRG1COCO13AG2018022600:00:00OR  01000003812914000381291464140                              2018022620180226Z016CIF201802260000000000023869NN0                                                  0
2MAIL0000064140BR23        BRG1        BRG1COCO    BRG1COCO13AG00000100000000001132033100000000000000200000000000000000000000003281Z01620180226X066015000
2MAIL0000064140BR23        BRG1        BRG1COCO    BRG1COCO13AG00000200000000001132036700000000000000200000000000000000000000003281Z01620180226X066015000
2MAIL0000064140BR23        BRG1        BRG1COCO    BRG1COCO13AG00000300000000001132200400000000000000400000000000000000000000007463Z01620180226X066000000
2MAIL0000064140BR23        BRG1        BRG1COCO    BRG1COCO13AG00000400000000001215533700000000000000200000000000000000000000003281Z01620180226X066015000
2MAIL0000064140BR23        BRG1        BRG1COCO    BRG1COCO13AG00000500000000001227395500000000000000200000000000000000000000003281Z01620180226X066015000
2MAIL0000064140BR23        BRG1        BRG1COCO    BRG1COCO13AG00000600000000001231389600000000000000100000000000000000000000001641Z01620180226X066015000
2MAIL0000064140BR23        BRG1        BRG1COCO    BRG1COCO13AG00000700000000001233695100000000000000100000000000000000000000001641Z01620180226X066015000
