1MAIL0000064134BR23        BRG1        BRG1COCO    BRG1COCO13AG2018021900:00:00OR  01000005294341000529434164134                              2018021920180223ZG05CIF201802230000000000089646NN0                                                  0
2MAIL0000064134BR23        BRG1        BRG1COCO    BRG1COCO13AG00000100000000001132033100000000000000100000000000000000000000001894ZG0520180223X066015000
2MAIL0000064134BR23        BRG1        BRG1COCO    BRG1COCO13AG00000200000000001132036700000000000000100000000000000000000000001894ZG0520180223X066015000
2MAIL0000064134BR23        BRG1        BRG1COCO    BRG1COCO13AG00000300000000001132200400000000000000100000000000000000000000001831ZG0520180223X066004850
2MAIL0000064134BR23        BRG1        BRG1COCO    BRG1COCO13AG00000400000000001132213000000000000000100000000000000000000000003892ZG0520180223X066004950
2MAIL0000064134BR23        BRG1        BRG1COCO    BRG1COCO13AG00000500000000001132400100000000000000100000000000000000000000003445ZG0520180223X066004950
2MAIL0000064134BR23        BRG1        BRG1COCO    BRG1COCO13AG00000600000000001215533700000000000001500000000000000000000000028414ZG0520180223X066000000
2MAIL0000064134BR23        BRG1        BRG1COCO    BRG1COCO13AG00000700000000001223975300000000000000100000000000000000000000004671ZG0520180223X066004950
2MAIL0000064134BR23        BRG1        BRG1COCO    BRG1COCO13AG00000800000000001227395500000000000000100000000000000000000000001894ZG0520180223X066015000
2MAIL0000064134BR23        BRG1        BRG1COCO    BRG1COCO13AG00000900000000001228090100000000000000500000000000000000000000003679ZG0520180223X066000000
2MAIL0000064134BR23        BRG1        BRG1COCO    BRG1COCO13AG00001000000000001228274000000000000000100000000000000000000000004671ZG0520180223X066004950
2MAIL0000064134BR23        BRG1        BRG1COCO    BRG1COCO13AG00001100000000001228512700000000000000100000000000000000000000004671ZG0520180223X066004950
2MAIL0000064134BR23        BRG1        BRG1COCO    BRG1COCO13AG00001200000000001231189200000000000000100000000000000000000000004671ZG0520180223X066004950
2MAIL0000064134BR23        BRG1        BRG1COCO    BRG1COCO13AG00001300000000001231231200000000000000100000000000000000000000004671ZG0520180223X066004950
2MAIL0000064134BR23        BRG1        BRG1COCO    BRG1COCO13AG00001400000000001231389600000000000000100000000000000000000000001894ZG0520180223X066015000
2MAIL0000064134BR23        BRG1        BRG1COCO    BRG1COCO13AG00001500000000001233098400000000000001400000000000000000000000005406ZG0520180223X066004950
2MAIL0000064134BR23        BRG1        BRG1COCO    BRG1COCO13AG00001600000000001233695100000000000000100000000000000000000000001894ZG0520180223X066015000
2MAIL0000064134BR23        BRG1        BRG1COCO    BRG1COCO13AG00001700000000001234705800000000000000100000000000000000000000004671ZG0520180223X066004950
2MAIL0000064134BR23        BRG1        BRG1COCO    BRG1COCO13AG00001800000000001236512800000000000000500000000000000000000000000859ZG0520180223X066000000
2MAIL0000064134BR23        BRG1        BRG1COCO    BRG1COCO13AG00001900000000001236512900000000000000500000000000000000000000000825ZG0520180223X066000000
2MAIL0000064134BR23        BRG1        BRG1COCO    BRG1COCO13AG00002000000000001236514100000000000000500000000000000000000000000859ZG0520180223X066000000
2MAIL0000064134BR23        BRG1        BRG1COCO    BRG1COCO13AG00002100000000001236515000000000000000500000000000000000000000000825ZG0520180223X066000000
2MAIL0000064134BR23        BRG1        BRG1COCO    BRG1COCO13AG00002200000000001236528200000000000000500000000000000000000000002115ZG0520180223X066000000
