1MAIL0000065631BR23        BRG1        BRG1COCO    BRG1COCO13AG2018030700:00:00OR  01000004803034000480303465631                              2018030720180307Z016CIF201803070000000000029466NN0                                                  0
2MAIL0000065631BR23        BRG1        BRG1COCO    BRG1COCO13AG00000100000000001132019700000000000000100000000000000000000000002184Z01620180307X066005000
2MAIL0000065631BR23        BRG1        BRG1COCO    BRG1COCO13AG00000200000000001132019800000000000000100000000000000000000000002184Z01620180307X066005000
2MAIL0000065631BR23        BRG1        BRG1COCO    BRG1COCO13AG00000300000000001132019900000000000000100000000000000000000000002184Z01620180307X066005000
2MAIL0000065631BR23        BRG1        BRG1COCO    BRG1COCO13AG00000400000000001132200400000000000000400000000000000000000000007164Z01620180307X066004000
2MAIL0000065631BR23        BRG1        BRG1COCO    BRG1COCO13AG00000500000000001223975300000000000000100000000000000000000000004522Z01620180307X066005000
2MAIL0000065631BR23        BRG1        BRG1COCO    BRG1COCO13AG00000600000000001227735000000000000000100000000000000000000000002184Z01620180307X066005000
2MAIL0000065631BR23        BRG1        BRG1COCO    BRG1COCO13AG00000700000000001228274000000000000000100000000000000000000000004522Z01620180307X066005000
2MAIL0000065631BR23        BRG1        BRG1COCO    BRG1COCO13AG00000800000000001231231200000000000000100000000000000000000000004522Z01620180307X066005000
1MAIL0000065632BR23        BRG1        BRG1COCO    BRG1COCO13AG2018030700:00:00OR  01000003823784000382378465632                              2018030720180307Z016CIF201803070000000000019027NN0                                                  0
2MAIL0000065632BR23        BRG1        BRG1COCO    BRG1COCO13AG00000100000000001132019800000000000000100000000000000000000000002184Z01620180307X066005000
2MAIL0000065632BR23        BRG1        BRG1COCO    BRG1COCO13AG00000200000000001132036700000000000000200000000000000000000000003474Z01620180307X066010000
2MAIL0000065632BR23        BRG1        BRG1COCO    BRG1COCO13AG00000300000000001132200400000000000000300000000000000000000000005373Z01620180307X066004000
2MAIL0000065632BR23        BRG1        BRG1COCO    BRG1COCO13AG00000400000000001215533700000000000000200000000000000000000000003474Z01620180307X066010000
2MAIL0000065632BR23        BRG1        BRG1COCO    BRG1COCO13AG00000500000000001228274000000000000000100000000000000000000000004522Z01620180307X066005000
