1MAIL0000065556BR23        BRG1        BRG1COCO    BRG1COCO13AG2018030700:00:00OR  01000000759438000075943865556                              2018030720180307Z016CIF201803070000000000029246NN0                                                  0
2MAIL0000065556BR23        BRG1        BRG1COCO    BRG1COCO13AG00000100000000001132019900000000000000100000000000000000000000002184Z01620180307X066005000
2MAIL0000065556BR23        BRG1        BRG1COCO    BRG1COCO13AG00000200000000001132213000000000000000200000000000000000000000007541Z01620180307X066004950
2MAIL0000065556BR23        BRG1        BRG1COCO    BRG1COCO13AG00000300000000001132213100000000000000100000000000000000000000003771Z01620180307X066004950
2MAIL0000065556BR23        BRG1        BRG1COCO    BRG1COCO13AG00000400000000001227735000000000000000100000000000000000000000002184Z01620180307X066005000
2MAIL0000065556BR23        BRG1        BRG1COCO    BRG1COCO13AG00000500000000001228274000000000000000100000000000000000000000004522Z01620180307X066005000
2MAIL0000065556BR23        BRG1        BRG1COCO    BRG1COCO13AG00000600000000001231189200000000000000100000000000000000000000004522Z01620180307X066005000
2MAIL0000065556BR23        BRG1        BRG1COCO    BRG1COCO13AG00000700000000001231231200000000000000100000000000000000000000004522Z01620180307X066005000
1MAIL0000065557BR23        BRG1        BRG1COCO    BRG1COCO13AG2018030700:00:00OR  01000004977012000497701265557                              2018030720180307Z016CIF201803070000000000017738NN0                                                  0
2MAIL0000065557BR23        BRG1        BRG1COCO    BRG1COCO13AG00000100000000001132036700000000000000300000000000000000000000004923Z01620180307X066015000
2MAIL0000065557BR23        BRG1        BRG1COCO    BRG1COCO13AG00000200000000001132213000000000000000100000000000000000000000003771Z01620180307X066004950
2MAIL0000065557BR23        BRG1        BRG1COCO    BRG1COCO13AG00000300000000001231189200000000000000100000000000000000000000004522Z01620180307X066005000
2MAIL0000065557BR23        BRG1        BRG1COCO    BRG1COCO13AG00000400000000001234705700000000000000100000000000000000000000004522Z01620180307X066005000
1MAIL0000065558BR23        BRG1        BRG1COCO    BRG1COCO13AG2018030700:00:00OR  01000003386143000338614365558                              2018030720180307Z016CIF201803070000000000035314NN0                                                  0
2MAIL0000065558BR23        BRG1        BRG1COCO    BRG1COCO13AG00000100000000001132019700000000000000100000000000000000000000002396Z01620180307X066000000
2MAIL0000065558BR23        BRG1        BRG1COCO    BRG1COCO13AG00000200000000001132019800000000000000100000000000000000000000002396Z01620180307X066000000
2MAIL0000065558BR23        BRG1        BRG1COCO    BRG1COCO13AG00000300000000001132020900000000000000100000000000000000000000002396Z01620180307X066000000
2MAIL0000065558BR23        BRG1        BRG1COCO    BRG1COCO13AG00000400000000001132036700000000000000300000000000000000000000005130Z01620180307X066015000
2MAIL0000065558BR23        BRG1        BRG1COCO    BRG1COCO13AG00000500000000001132200400000000000000400000000000000000000000007776Z01620180307X066000000
2MAIL0000065558BR23        BRG1        BRG1COCO    BRG1COCO13AG00000600000000001132400100000000000000300000000000000000000000010428Z01620180307X066005000
2MAIL0000065558BR23        BRG1        BRG1COCO    BRG1COCO13AG00000700000000001227735000000000000000200000000000000000000000004792Z01620180307X066000000
1MAIL0000065562BR23        BRG1        BRG1COCO    BRG1COCO13AG2018030700:00:00OR  01000005516058000551605865562                              2018030720180307Z016CIF201803070000000000007111NN0                                                  0
2MAIL0000065562BR23        BRG1        BRG1COCO    BRG1COCO13AG00000100000000001233114700000000000000200000000000000000000000002585Z01620180307X066000000
2MAIL0000065562BR23        BRG1        BRG1COCO    BRG1COCO13AG00000200000000001235356200000000000000200000000000000000000000004526Z01620180307X066000000
1MAIL0000065563BR23        BRG1        BRG1COCO    BRG1COCO13AG2018030700:00:00OR  01000005267192000526719265563                              2018030720180307Z016CIF201803070000000000005819NN0                                                  0
2MAIL0000065563BR23        BRG1        BRG1COCO    BRG1COCO13AG00000100000000001233114700000000000000100000000000000000000000001293Z01620180307X066000000
2MAIL0000065563BR23        BRG1        BRG1COCO    BRG1COCO13AG00000200000000001235356200000000000000200000000000000000000000004526Z01620180307X066000000
1MAIL0000065564BR23        BRG1        BRG1COCO    BRG1COCO13AG2018030700:00:00OR  01000004200500000420050065564                              2018030720180307Z016CIF201803070000000000024598NN0                                                  0
2MAIL0000065564BR23        BRG1        BRG1COCO    BRG1COCO13AG00000100000000001132020900000000000000100000000000000000000000002207Z01620180307X066004000
2MAIL0000065564BR23        BRG1        BRG1COCO    BRG1COCO13AG00000200000000001132033100000000000000200000000000000000000000003282Z01620180307X066015000
2MAIL0000065564BR23        BRG1        BRG1COCO    BRG1COCO13AG00000300000000001132036700000000000000200000000000000000000000003282Z01620180307X066015000
2MAIL0000065564BR23        BRG1        BRG1COCO    BRG1COCO13AG00000400000000001227395500000000000000100000000000000000000000001641Z01620180307X066015000
2MAIL0000065564BR23        BRG1        BRG1COCO    BRG1COCO13AG00000500000000001228090100000000000000500000000000000000000000003600Z01620180307X066004000
2MAIL0000065564BR23        BRG1        BRG1COCO    BRG1COCO13AG00000600000000001233098400000000000001400000000000000000000000005293Z01620180307X066004000
2MAIL0000065564BR23        BRG1        BRG1COCO    BRG1COCO13AG00000700000000001233098600000000000001400000000000000000000000005293Z01620180307X066004000
