1MAIL0000064270BR23        BRG1        BRG1COCO    BRG1COCO13AG2018022700:00:00OR  01000002901926000290192664270                              2018022720180227Z016CIF201802270000000000023137NN0                                                  0
2MAIL0000064270BR23        BRG1        BRG1COCO    BRG1COCO13AG00000100000000001132019800000000000000100000000000000000000000002207Z01620180227X066004000
2MAIL0000064270BR23        BRG1        BRG1COCO    BRG1COCO13AG00000200000000001132033100000000000000200000000000000000000000003281Z01620180227X066015000
2MAIL0000064270BR23        BRG1        BRG1COCO    BRG1COCO13AG00000300000000001132036700000000000000400000000000000000000000006565Z01620180227X066015000
2MAIL0000064270BR23        BRG1        BRG1COCO    BRG1COCO13AG00000400000000001215533700000000000000200000000000000000000000003281Z01620180227X066015000
2MAIL0000064270BR23        BRG1        BRG1COCO    BRG1COCO13AG00000500000000001227395500000000000000200000000000000000000000003281Z01620180227X066015000
2MAIL0000064270BR23        BRG1        BRG1COCO    BRG1COCO13AG00000600000000001234705700000000000000100000000000000000000000004522Z01620180227X066005000
1MAIL0000064274BR23        BRG1        BRG1COCO    BRG1COCO13AG2018022700:00:00OR  01000005271171000527117164274                              2018022720180227Z016CIF201802270000000000012020NN0                                                  0
2MAIL0000064274BR23        BRG1        BRG1COCO    BRG1COCO13AG00000100000000001132033100000000000000200000000000000000000000003474Z01620180227X066010000
2MAIL0000064274BR23        BRG1        BRG1COCO    BRG1COCO13AG00000200000000001132036700000000000000300000000000000000000000005212Z01620180227X066010000
2MAIL0000064274BR23        BRG1        BRG1COCO    BRG1COCO13AG00000300000000001233695100000000000000100000000000000000000000001738Z01620180227X066010000
2MAIL0000064274BR23        BRG1        BRG1COCO    BRG1COCO13AG00000400000000001236512900000000000000500000000000000000000000000798Z01620180227X066005000
2MAIL0000064274BR23        BRG1        BRG1COCO    BRG1COCO13AG00000500000000001236515000000000000000500000000000000000000000000798Z01620180227X066005000
1MAIL0000064275BR23        BRG1        BRG1COCO    BRG1COCO13AG2018022700:00:00OR  01000005494328000549432864275                              2018022720180227Z016CIF201802270000000000018962NN0                                                  0
2MAIL0000064275BR23        BRG1        BRG1COCO    BRG1COCO13AG00000100000000001132033100000000000000100000000000000000000000001815Z01620180227X066006000
2MAIL0000064275BR23        BRG1        BRG1COCO    BRG1COCO13AG00000200000000001132036700000000000000200000000000000000000000003629Z01620180227X066006000
2MAIL0000064275BR23        BRG1        BRG1COCO    BRG1COCO13AG00000300000000001132200400000000000000100000000000000000000000001791Z01620180227X066004000
2MAIL0000064275BR23        BRG1        BRG1COCO    BRG1COCO13AG00000400000000001215533700000000000000100000000000000000000000001815Z01620180227X066006000
2MAIL0000064275BR23        BRG1        BRG1COCO    BRG1COCO13AG00000500000000001227395500000000000000100000000000000000000000001815Z01620180227X066006000
2MAIL0000064275BR23        BRG1        BRG1COCO    BRG1COCO13AG00000600000000001228100400000000000000200000000000000000000000004467Z01620180227X066015000
2MAIL0000064275BR23        BRG1        BRG1COCO    BRG1COCO13AG00000700000000001231389600000000000000100000000000000000000000001815Z01620180227X066006000
2MAIL0000064275BR23        BRG1        BRG1COCO    BRG1COCO13AG00000800000000001233695100000000000000100000000000000000000000001815Z01620180227X066006000
1MAIL0000064276BR23        BRG1        BRG1COCO    BRG1COCO13AG2018022700:00:00OR  01000005090715000509071564276                              2018022720180227Z016CIF201802270000000000006998NN0                                                  0
2MAIL0000064276BR23        BRG1        BRG1COCO    BRG1COCO13AG00000100000000001132036700000000000000100000000000000000000000001815Z01620180227X066006000
2MAIL0000064276BR23        BRG1        BRG1COCO    BRG1COCO13AG00000200000000001233154200000000000001400000000000000000000000005183Z01620180227X066006000
