1MAIL0000064572BR23        BRG1        BRG1COCO    BRG1COCO13AG2018030100:00:00OR  01000004758774000475877464572                              2018030120180303Z016CIF201803030000000000059135NN0                                                  0
2MAIL0000064572BR23        BRG1        BRG1COCO    BRG1COCO13AG00000100000000001132035100000000000004000000000000000000000000059135Z01620180303X066015000
1MAIL0000064573BR23        BRG1        BRG1COCO    BRG1COCO13AG2018030100:00:00OR  01000004436567000443656764573                              2018030120180303Z016CIF201803030000000000059135NN0                                                  0
2MAIL0000064573BR23        BRG1        BRG1COCO    BRG1COCO13AG00000100000000001132035100000000000004000000000000000000000000059135Z01620180303X066015000
1MAIL0000064574BR23        BRG1        BRG1COCO    BRG1COCO13AG2018030100:00:00OR  01000004396550000439655064574                              2018030120180303Z016CIF201803030000000000263031NN0                                                  0
2MAIL0000064574BR23        BRG1        BRG1COCO    BRG1COCO13AG00000100000000001132034900000000000006000000000000000000000000084072Z01620180303X066015000
2MAIL0000064574BR23        BRG1        BRG1COCO    BRG1COCO13AG00000200000000001132035000000000000002000000000000000000000000031121Z01620180303X066015000
2MAIL0000064574BR23        BRG1        BRG1COCO    BRG1COCO13AG00000300000000001132035100000000000010000000000000000000000000147838Z01620180303X066015000
1MAIL0000064575BR23        BRG1        BRG1COCO    BRG1COCO13AG2018030100:00:00OR  01000003961165000396116564575                              2018030120180303Z016CIF201803030000000000088714NN0                                                  0
2MAIL0000064575BR23        BRG1        BRG1COCO    BRG1COCO13AG00000100000000001132034900000000000002000000000000000000000000028025Z01620180303X066015000
2MAIL0000064575BR23        BRG1        BRG1COCO    BRG1COCO13AG00000200000000001132035000000000000002000000000000000000000000031121Z01620180303X066015000
2MAIL0000064575BR23        BRG1        BRG1COCO    BRG1COCO13AG00000300000000001132035100000000000002000000000000000000000000029568Z01620180303X066015000
1MAIL0000064576BR23        BRG1        BRG1COCO    BRG1COCO13AG2018030100:00:00OR  01000003961164000396116464576                              2018030120180303Z016CIF201803030000000000059135NN0                                                  0
2MAIL0000064576BR23        BRG1        BRG1COCO    BRG1COCO13AG00000100000000001132035100000000000004000000000000000000000000059135Z01620180303X066015000
1MAIL0000064577BR23        BRG1        BRG1COCO    BRG1COCO13AG2018030100:00:00OR  01000003173420000317342064577                              2018030120180303Z016CIF201803030000000000287969NN0                                                  0
2MAIL0000064577BR23        BRG1        BRG1COCO    BRG1COCO13AG00000100000000001132034900000000000012000000000000000000000000168145Z01620180303X066015000
2MAIL0000064577BR23        BRG1        BRG1COCO    BRG1COCO13AG00000200000000001132035000000000000002000000000000000000000000031121Z01620180303X066015000
2MAIL0000064577BR23        BRG1        BRG1COCO    BRG1COCO13AG00000300000000001132035100000000000006000000000000000000000000088703Z01620180303X066015000
1MAIL0000064578BR23        BRG1        BRG1COCO    BRG1COCO13AG2018030100:00:00OR  01000000918676000091867664578                              2018030120180303Z016CIF201803030000000000475229NN0                                                  0
2MAIL0000064578BR23        BRG1        BRG1COCO    BRG1COCO13AG00000100000000001132033900000000000001200000000000000000000000040955Z01620180303X066018000
2MAIL0000064578BR23        BRG1        BRG1COCO    BRG1COCO13AG00000200000000001132034900000000000016000000000000000000000000224193Z01620180303X066015000
2MAIL0000064578BR23        BRG1        BRG1COCO    BRG1COCO13AG00000300000000001132035000000000000004000000000000000000000000062243Z01620180303X066015000
2MAIL0000064578BR23        BRG1        BRG1COCO    BRG1COCO13AG00000400000000001132035100000000000010000000000000000000000000147838Z01620180303X066015000
1MAIL0000064579BR23        BRG1        BRG1COCO    BRG1COCO13AG2018030100:00:00OR  01000000918664000091866464579                              2018030120180303Z016CIF201803030000000000460135NN0                                                  0
2MAIL0000064579BR23        BRG1        BRG1COCO    BRG1COCO13AG00000100000000001132033900000000000002400000000000000000000000081909Z01620180303X066018000
2MAIL0000064579BR23        BRG1        BRG1COCO    BRG1COCO13AG00000200000000001132034900000000000012000000000000000000000000168145Z01620180303X066015000
2MAIL0000064579BR23        BRG1        BRG1COCO    BRG1COCO13AG00000300000000001132035000000000000004000000000000000000000000062243Z01620180303X066015000
2MAIL0000064579BR23        BRG1        BRG1COCO    BRG1COCO13AG00000400000000001132035100000000000010000000000000000000000000147838Z01620180303X066015000
1MAIL0000064580BR23        BRG1        BRG1COCO    BRG1COCO13AG2018030100:00:00OR  01000000918653000091865364580                              2018030120180303Z016CIF201803030000000000070523NN0                                                  0
2MAIL0000064580BR23        BRG1        BRG1COCO    BRG1COCO13AG00000100000000001132033900000000000001200000000000000000000000040955Z01620180303X066018000
2MAIL0000064580BR23        BRG1        BRG1COCO    BRG1COCO13AG00000200000000001132035100000000000002000000000000000000000000029568Z01620180303X066015000
1MAIL0000064581BR23        BRG1        BRG1COCO    BRG1COCO13AG2018030100:00:00OR  01000000918642000091864264581                              2018030120180303Z016CIF201803030000000000375127NN0                                                  0
2MAIL0000064581BR23        BRG1        BRG1COCO    BRG1COCO13AG00000100000000001132034900000000000014000000000000000000000000196168Z01620180303X066015000
2MAIL0000064581BR23        BRG1        BRG1COCO    BRG1COCO13AG00000200000000001132035000000000000002000000000000000000000000031121Z01620180303X066015000
2MAIL0000064581BR23        BRG1        BRG1COCO    BRG1COCO13AG00000300000000001132035100000000000010000000000000000000000000147838Z01620180303X066015000
1MAIL0000064582BR23        BRG1        BRG1COCO    BRG1COCO13AG2018030100:00:00OR  01000005279032000527903264582                              2018030120180303Z016CIF201803030000000000020988NN0                                                  0
2MAIL0000064582BR23        BRG1        BRG1COCO    BRG1COCO13AG00000100000000001132018300000000000000100000000000000000000000003598Z01620180303X066025000
2MAIL0000064582BR23        BRG1        BRG1COCO    BRG1COCO13AG00000200000000001132033100000000000000100000000000000000000000001641Z01620180303X066015000
2MAIL0000064582BR23        BRG1        BRG1COCO    BRG1COCO13AG00000300000000001132036700000000000000100000000000000000000000001641Z01620180303X066015000
2MAIL0000064582BR23        BRG1        BRG1COCO    BRG1COCO13AG00000400000000001132200400000000000000100000000000000000000000001782Z01620180303X066004500
2MAIL0000064582BR23        BRG1        BRG1COCO    BRG1COCO13AG00000500000000001215533700000000000000100000000000000000000000001641Z01620180303X066015000
2MAIL0000064582BR23        BRG1        BRG1COCO    BRG1COCO13AG00000600000000001223975300000000000000100000000000000000000000004522Z01620180303X066005000
2MAIL0000064582BR23        BRG1        BRG1COCO    BRG1COCO13AG00000700000000001228512700000000000000100000000000000000000000004522Z01620180303X066005000
2MAIL0000064582BR23        BRG1        BRG1COCO    BRG1COCO13AG00000800000000001233695100000000000000100000000000000000000000001641Z01620180303X066015000
1MAIL0000064583BR23        BRG1        BRG1COCO    BRG1COCO13AG2018030100:00:00OR  01000005132847000513284764583                              2018030120180303Z016CIF201803030000000000008205NN0                                                  0
2MAIL0000064583BR23        BRG1        BRG1COCO    BRG1COCO13AG00000100000000001132033100000000000000100000000000000000000000001641Z01620180303X066015000
2MAIL0000064583BR23        BRG1        BRG1COCO    BRG1COCO13AG00000200000000001132036700000000000000200000000000000000000000003282Z01620180303X066015000
2MAIL0000064583BR23        BRG1        BRG1COCO    BRG1COCO13AG00000300000000001215533700000000000000200000000000000000000000003282Z01620180303X066015000
1MAIL0000064584BR23        BRG1        BRG1COCO    BRG1COCO13AG2018030100:00:00OR  01000004873691000487369164584                              2018030120180303Z016CIF201803030000000000118009NN0                                                  0
2MAIL0000064584BR23        BRG1        BRG1COCO    BRG1COCO13AG00000100000000001132019700000000000000400000000000000000000000008191Z01620180303X066000000
2MAIL0000064584BR23        BRG1        BRG1COCO    BRG1COCO13AG00000200000000001132019800000000000000400000000000000000000000008191Z01620180303X066000000
2MAIL0000064584BR23        BRG1        BRG1COCO    BRG1COCO13AG00000300000000001132020900000000000000400000000000000000000000008191Z01620180303X066000000
2MAIL0000064584BR23        BRG1        BRG1COCO    BRG1COCO13AG00000400000000001132033100000000000000400000000000000000000000006882Z01620180303X066000000
2MAIL0000064584BR23        BRG1        BRG1COCO    BRG1COCO13AG00000500000000001132036700000000000000400000000000000000000000006882Z01620180303X066000000
2MAIL0000064584BR23        BRG1        BRG1COCO    BRG1COCO13AG00000600000000001132200400000000000000200000000000000000000000003491Z01620180303X066000000
2MAIL0000064584BR23        BRG1        BRG1COCO    BRG1COCO13AG00000700000000001132213000000000000000400000000000000000000000014135Z01620180303X066000000
2MAIL0000064584BR23        BRG1        BRG1COCO    BRG1COCO13AG00000800000000001132213100000000000000400000000000000000000000014135Z01620180303X066000000
2MAIL0000064584BR23        BRG1        BRG1COCO    BRG1COCO13AG00000900000000001215533700000000000000400000000000000000000000006882Z01620180303X066000000
2MAIL0000064584BR23        BRG1        BRG1COCO    BRG1COCO13AG00001000000000001227395500000000000000400000000000000000000000006882Z01620180303X066000000
2MAIL0000064584BR23        BRG1        BRG1COCO    BRG1COCO13AG00001100000000001227735000000000000000400000000000000000000000008191Z01620180303X066000000
2MAIL0000064584BR23        BRG1        BRG1COCO    BRG1COCO13AG00001200000000001228090100000000000003000000000000000000000000019074Z01620180303X066004900
2MAIL0000064584BR23        BRG1        BRG1COCO    BRG1COCO13AG00001300000000001231389600000000000000400000000000000000000000006882Z01620180303X066000000
1MAIL0000064585BR23        BRG1        BRG1COCO    BRG1COCO13AG2018030100:00:00OR  01000004033538000403353864585                              2018030120180303Z016CIF201803030000000000074155NN0                                                  0
2MAIL0000064585BR23        BRG1        BRG1COCO    BRG1COCO13AG00000100000000001132019700000000000000100000000000000000000000002260Z01620180303X066000000
2MAIL0000064585BR23        BRG1        BRG1COCO    BRG1COCO13AG00000200000000001132019800000000000000100000000000000000000000002260Z01620180303X066000000
2MAIL0000064585BR23        BRG1        BRG1COCO    BRG1COCO13AG00000300000000001132019900000000000000100000000000000000000000002260Z01620180303X066000000
2MAIL0000064585BR23        BRG1        BRG1COCO    BRG1COCO13AG00000400000000001132020900000000000000100000000000000000000000002260Z01620180303X066000000
2MAIL0000064585BR23        BRG1        BRG1COCO    BRG1COCO13AG00000500000000001132033100000000000000200000000000000000000000003795Z01620180303X066000000
2MAIL0000064585BR23        BRG1        BRG1COCO    BRG1COCO13AG00000600000000001132036700000000000000200000000000000000000000003795Z01620180303X066000000
2MAIL0000064585BR23        BRG1        BRG1COCO    BRG1COCO13AG00000700000000001132400100000000000000100000000000000000000000003451Z01620180303X066000000
2MAIL0000064585BR23        BRG1        BRG1COCO    BRG1COCO13AG00000800000000001215533700000000000000200000000000000000000000003795Z01620180303X066000000
2MAIL0000064585BR23        BRG1        BRG1COCO    BRG1COCO13AG00000900000000001223975300000000000000200000000000000000000000009360Z01620180303X066000000
2MAIL0000064585BR23        BRG1        BRG1COCO    BRG1COCO13AG00001000000000001226089600000000000001200000000000000000000000004423Z01620180303X066000000
2MAIL0000064585BR23        BRG1        BRG1COCO    BRG1COCO13AG00001100000000001227735000000000000000100000000000000000000000002260Z01620180303X066000000
2MAIL0000064585BR23        BRG1        BRG1COCO    BRG1COCO13AG00001200000000001228274000000000000000100000000000000000000000004680Z01620180303X066000000
2MAIL0000064585BR23        BRG1        BRG1COCO    BRG1COCO13AG00001300000000001228512700000000000000100000000000000000000000004680Z01620180303X066000000
2MAIL0000064585BR23        BRG1        BRG1COCO    BRG1COCO13AG00001400000000001231189200000000000000100000000000000000000000004680Z01620180303X066000000
2MAIL0000064585BR23        BRG1        BRG1COCO    BRG1COCO13AG00001500000000001231231200000000000000200000000000000000000000009360Z01620180303X066000000
2MAIL0000064585BR23        BRG1        BRG1COCO    BRG1COCO13AG00001600000000001233081900000000000001400000000000000000000000005418Z01620180303X066000000
2MAIL0000064585BR23        BRG1        BRG1COCO    BRG1COCO13AG00001700000000001233098500000000000001400000000000000000000000005418Z01620180303X066000000
1MAIL0000064586BR23        BRG1        BRG1COCO    BRG1COCO13AG2018030100:00:00OR  01000002899157000289915764586                              2018030120180303Z016CIF201803030000000000009280NN0                                                  0
2MAIL0000064586BR23        BRG1        BRG1COCO    BRG1COCO13AG00000100000000001228100400000000000000200000000000000000000000004309Z01620180303X066018000
2MAIL0000064586BR23        BRG1        BRG1COCO    BRG1COCO13AG00000200000000001233098400000000000001400000000000000000000000004971Z01620180303X066009840
1MAIL0000064587BR23        BRG1        BRG1COCO    BRG1COCO13AG2018030100:00:00OR  01000003828028000382802864587                              2018030120180303Z016CIF201803030000000000037870NN0                                                  0
2MAIL0000064587BR23        BRG1        BRG1COCO    BRG1COCO13AG00000100000000001132033100000000000001000000000000000000000000016414Z01620180303X066015000
2MAIL0000064587BR23        BRG1        BRG1COCO    BRG1COCO13AG00000200000000001228090100000000000003000000000000000000000000021456Z01620180303X066004660
1MAIL0000064588BR23        BRG1        BRG1COCO    BRG1COCO13AG2018030100:00:00OR  01000004714035000471403564588                              2018030120180303Z016CIF201803030000000000337768NN0                                                  0
2MAIL0000064588BR23        BRG1        BRG1COCO    BRG1COCO13AG00000100000000001132004000000000000000500000000000000000000000003742Z01620180303X066005000
2MAIL0000064588BR23        BRG1        BRG1COCO    BRG1COCO13AG00000200000000001132004200000000000000500000000000000000000000005686Z01620180303X066005000
2MAIL0000064588BR23        BRG1        BRG1COCO    BRG1COCO13AG00000300000000001132018300000000000000100000000000000000000000003934Z01620180303X066018000
2MAIL0000064588BR23        BRG1        BRG1COCO    BRG1COCO13AG00000400000000001132019700000000000000100000000000000000000000002184Z01620180303X066005000
2MAIL0000064588BR23        BRG1        BRG1COCO    BRG1COCO13AG00000500000000001132019800000000000000100000000000000000000000002184Z01620180303X066005000
2MAIL0000064588BR23        BRG1        BRG1COCO    BRG1COCO13AG00000600000000001132019900000000000000100000000000000000000000002184Z01620180303X066005000
2MAIL0000064588BR23        BRG1        BRG1COCO    BRG1COCO13AG00000700000000001132020900000000000000100000000000000000000000002184Z01620180303X066005000
2MAIL0000064588BR23        BRG1        BRG1COCO    BRG1COCO13AG00000800000000001132033100000000000000500000000000000000000000008208Z01620180303X066015000
2MAIL0000064588BR23        BRG1        BRG1COCO    BRG1COCO13AG00000900000000001132033900000000000000200000000000000000000000007076Z01620180303X066015000
2MAIL0000064588BR23        BRG1        BRG1COCO    BRG1COCO13AG00001000000000001132034900000000000000500000000000000000000000007006Z01620180303X066015000
2MAIL0000064588BR23        BRG1        BRG1COCO    BRG1COCO13AG00001100000000001132035000000000000000500000000000000000000000007779Z01620180303X066015000
2MAIL0000064588BR23        BRG1        BRG1COCO    BRG1COCO13AG00001200000000001132036700000000000000600000000000000000000000009849Z01620180303X066015000
2MAIL0000064588BR23        BRG1        BRG1COCO    BRG1COCO13AG00001300000000001132185100000000000000200000000000000000000000005685Z01620180303X066018000
2MAIL0000064588BR23        BRG1        BRG1COCO    BRG1COCO13AG00001400000000001132200400000000000000400000000000000000000000007164Z01620180303X066004000
2MAIL0000064588BR23        BRG1        BRG1COCO    BRG1COCO13AG00001500000000001215533700000000000000500000000000000000000000008208Z01620180303X066015000
2MAIL0000064588BR23        BRG1        BRG1COCO    BRG1COCO13AG00001600000000001221415400000000000000100000000000000000000000003887Z01620180303X066019000
2MAIL0000064588BR23        BRG1        BRG1COCO    BRG1COCO13AG00001700000000001223975300000000000000100000000000000000000000004112Z01620180303X066005000
2MAIL0000064588BR23        BRG1        BRG1COCO    BRG1COCO13AG00001800000000001224882700000000000000100000000000000000000000002855Z01620180303X066005000
2MAIL0000064588BR23        BRG1        BRG1COCO    BRG1COCO13AG00001900000000001226089600000000000001200000000000000000000000003846Z01620180303X066006000
2MAIL0000064588BR23        BRG1        BRG1COCO    BRG1COCO13AG00002000000000001227395500000000000000300000000000000000000000004923Z01620180303X066015000
2MAIL0000064588BR23        BRG1        BRG1COCO    BRG1COCO13AG00002100000000001227735000000000000000100000000000000000000000002184Z01620180303X066005000
2MAIL0000064588BR23        BRG1        BRG1COCO    BRG1COCO13AG00002200000000001228090100000000000018000000000000000000000000116670Z01620180303X066004950
2MAIL0000064588BR23        BRG1        BRG1COCO    BRG1COCO13AG00002300000000001228100400000000000001000000000000000000000000021546Z01620180303X066018000
2MAIL0000064588BR23        BRG1        BRG1COCO    BRG1COCO13AG00002400000000001228274000000000000000100000000000000000000000004112Z01620180303X066005000
2MAIL0000064588BR23        BRG1        BRG1COCO    BRG1COCO13AG00002500000000001228512700000000000000100000000000000000000000004112Z01620180303X066005000
2MAIL0000064588BR23        BRG1        BRG1COCO    BRG1COCO13AG00002600000000001231189200000000000000200000000000000000000000008224Z01620180303X066005000
2MAIL0000064588BR23        BRG1        BRG1COCO    BRG1COCO13AG00002700000000001231231200000000000000100000000000000000000000004112Z01620180303X066005000
2MAIL0000064588BR23        BRG1        BRG1COCO    BRG1COCO13AG00002800000000001231389600000000000000300000000000000000000000004923Z01620180303X066015000
2MAIL0000064588BR23        BRG1        BRG1COCO    BRG1COCO13AG00002900000000001233081900000000000001400000000000000000000000004712Z01620180303X066006000
2MAIL0000064588BR23        BRG1        BRG1COCO    BRG1COCO13AG00003000000000001233098400000000000001400000000000000000000000004712Z01620180303X066006000
2MAIL0000064588BR23        BRG1        BRG1COCO    BRG1COCO13AG00003100000000001233098500000000000001400000000000000000000000004712Z01620180303X066006000
2MAIL0000064588BR23        BRG1        BRG1COCO    BRG1COCO13AG00003200000000001233098600000000000001400000000000000000000000004712Z01620180303X066006000
2MAIL0000064588BR23        BRG1        BRG1COCO    BRG1COCO13AG00003300000000001233098800000000000001400000000000000000000000004712Z01620180303X066006000
2MAIL0000064588BR23        BRG1        BRG1COCO    BRG1COCO13AG00003400000000001233099500000000000001400000000000000000000000004712Z01620180303X066006000
2MAIL0000064588BR23        BRG1        BRG1COCO    BRG1COCO13AG00003500000000001233154200000000000001400000000000000000000000004712Z01620180303X066006000
2MAIL0000064588BR23        BRG1        BRG1COCO    BRG1COCO13AG00003600000000001233695100000000000000300000000000000000000000004923Z01620180303X066015000
2MAIL0000064588BR23        BRG1        BRG1COCO    BRG1COCO13AG00003700000000001234705700000000000000100000000000000000000000004112Z01620180303X066005000
2MAIL0000064588BR23        BRG1        BRG1COCO    BRG1COCO13AG00003800000000001234705800000000000000100000000000000000000000004112Z01620180303X066005000
2MAIL0000064588BR23        BRG1        BRG1COCO    BRG1COCO13AG00003900000000001234708700000000000001400000000000000000000000004712Z01620180303X066006000
2MAIL0000064588BR23        BRG1        BRG1COCO    BRG1COCO13AG00004000000000001235699400000000000001000000000000000000000000003365Z01620180303X066006000
2MAIL0000064588BR23        BRG1        BRG1COCO    BRG1COCO13AG00004100000000001235699800000000000001000000000000000000000000003365Z01620180303X066006000
2MAIL0000064588BR23        BRG1        BRG1COCO    BRG1COCO13AG00004200000000001236512800000000000001200000000000000000000000002030Z01620180303X066000000
2MAIL0000064588BR23        BRG1        BRG1COCO    BRG1COCO13AG00004300000000001236512900000000000001500000000000000000000000002520Z01620180303X066000000
2MAIL0000064588BR23        BRG1        BRG1COCO    BRG1COCO13AG00004400000000001236514100000000000001500000000000000000000000002538Z01620180303X066000000
2MAIL0000064588BR23        BRG1        BRG1COCO    BRG1COCO13AG00004500000000001236515000000000000001200000000000000000000000002016Z01620180303X066000000
2MAIL0000064588BR23        BRG1        BRG1COCO    BRG1COCO13AG00004600000000001236528200000000000000600000000000000000000000002512Z01620180303X066000000
1MAIL0000064589BR23        BRG1        BRG1COCO    BRG1COCO13AG2018030100:00:00OR  01000003829749000382974964589                              2018030120180303Z016CIF201803030000000000076782NN0                                                  0
2MAIL0000064589BR23        BRG1        BRG1COCO    BRG1COCO13AG00000100000000001132004000000000000000500000000000000000000000004333Z01620180303X066000000
2MAIL0000064589BR23        BRG1        BRG1COCO    BRG1COCO13AG00000200000000001132020900000000000000100000000000000000000000002184Z01620180303X066005000
2MAIL0000064589BR23        BRG1        BRG1COCO    BRG1COCO13AG00000300000000001226089600000000000001200000000000000000000000004276Z01620180303X066005000
2MAIL0000064589BR23        BRG1        BRG1COCO    BRG1COCO13AG00000400000000001228090100000000000006000000000000000000000000042778Z01620180303X066004960
2MAIL0000064589BR23        BRG1        BRG1COCO    BRG1COCO13AG00000500000000001228100400000000000000200000000000000000000000005255Z01620180303X066000000
2MAIL0000064589BR23        BRG1        BRG1COCO    BRG1COCO13AG00000600000000001233081900000000000001400000000000000000000000005237Z01620180303X066005000
2MAIL0000064589BR23        BRG1        BRG1COCO    BRG1COCO13AG00000700000000001233154200000000000001400000000000000000000000005237Z01620180303X066005000
2MAIL0000064589BR23        BRG1        BRG1COCO    BRG1COCO13AG00000800000000001235699400000000000001000000000000000000000000003741Z01620180303X066005000
2MAIL0000064589BR23        BRG1        BRG1COCO    BRG1COCO13AG00000900000000001235699800000000000001000000000000000000000000003741Z01620180303X066005000
1MAIL0000064590BR23        BRG1        BRG1COCO    BRG1COCO13AG2018030100:00:00OR  01000005156619000515661964590                              2018030120180303Z016CIF201803030000000000032514NN0                                                  0
2MAIL0000064590BR23        BRG1        BRG1COCO    BRG1COCO13AG00000100000000001132036700000000000000100000000000000000000000001931Z01620180303X066000000
2MAIL0000064590BR23        BRG1        BRG1COCO    BRG1COCO13AG00000200000000001228090100000000000003000000000000000000000000021389Z01620180303X066004960
2MAIL0000064590BR23        BRG1        BRG1COCO    BRG1COCO13AG00000300000000001228100400000000000000200000000000000000000000005255Z01620180303X066000000
2MAIL0000064590BR23        BRG1        BRG1COCO    BRG1COCO13AG00000400000000001235699700000000000001000000000000000000000000003939Z01620180303X066000000
1MAIL0000064591BR23        BRG1        BRG1COCO    BRG1COCO13AG2018030100:00:00OR  01000005244599000524459964591                              2018030120180303Z859CIF201803030000000000021982NN0                                                  0
2MAIL0000064591BR23        BRG1        BRG1COCO    BRG1COCO13AG00000100000000001233114700000000000000100000000000000000000000001293Z85920180303X066000000
2MAIL0000064591BR23        BRG1        BRG1COCO    BRG1COCO13AG00000200000000001235356200000000000000400000000000000000000000009051Z85920180303X066000000
2MAIL0000064591BR23        BRG1        BRG1COCO    BRG1COCO13AG00000300000000001235737300000000000000400000000000000000000000011638Z85920180303X066000000
1MAIL0000064592BR23        BRG1        BRG1COCO    BRG1COCO13AG2018030100:00:00OR  01000005244599000524459964592                              2018030120180303Z016CIF201803030000000000007333NN0                                                  0
2MAIL0000064592BR23        BRG1        BRG1COCO    BRG1COCO13AG00000100000000001132036700000000000000100000000000000000000000001641Z01620180303X066015000
2MAIL0000064592BR23        BRG1        BRG1COCO    BRG1COCO13AG00000200000000001226089600000000000001200000000000000000000000004051Z01620180303X066010000
2MAIL0000064592BR23        BRG1        BRG1COCO    BRG1COCO13AG00000300000000001231389600000000000000100000000000000000000000001641Z01620180303X066015000
1MAIL0000064593BR23        BRG1        BRG1COCO    BRG1COCO13AG2018030100:00:00OR  01000005148786000514878664593                              2018030120180303Z859CIF201803030000000000087919NN0                                                  0
2MAIL0000064593BR23        BRG1        BRG1COCO    BRG1COCO13AG00000100000000001233114700000000000001500000000000000000000000019388Z85920180303X066000000
2MAIL0000064593BR23        BRG1        BRG1COCO    BRG1COCO13AG00000200000000001235356200000000000002000000000000000000000000045255Z85920180303X066000000
2MAIL0000064593BR23        BRG1        BRG1COCO    BRG1COCO13AG00000300000000001235737300000000000000800000000000000000000000023276Z85920180303X066000000
1MAIL0000064594BR23        BRG1        BRG1COCO    BRG1COCO13AG2018030100:00:00OR  01000005516597000551659764594                              2018030120180303Z009CIF201803030000000000007342NN0                                                  0
2MAIL0000064594BR23        BRG1        BRG1COCO    BRG1COCO13AG00000100000000001132019800000000000000100000000000000000000000002170Z00920180303X066005000
2MAIL0000064594BR23        BRG1        BRG1COCO    BRG1COCO13AG00000200000000001132036700000000000000100000000000000000000000001631Z00920180303X066015000
2MAIL0000064594BR23        BRG1        BRG1COCO    BRG1COCO13AG00000300000000001228090100000000000000500000000000000000000000003541Z00920180303X066004960
1MAIL0000064595BR23        BRG1        BRG1COCO    BRG1COCO13AG2018030100:00:00OR  01000004127669000412766964595                              2018030120180303Z016CIF201803030000000000021333NN0                                                  0
2MAIL0000064595BR23        BRG1        BRG1COCO    BRG1COCO13AG00000100000000001132033100000000000000500000000000000000000000008205Z01620180303X066015000
2MAIL0000064595BR23        BRG1        BRG1COCO    BRG1COCO13AG00000200000000001132036700000000000000500000000000000000000000008205Z01620180303X066015000
2MAIL0000064595BR23        BRG1        BRG1COCO    BRG1COCO13AG00000300000000001231389600000000000000300000000000000000000000004923Z01620180303X066015000
1MAIL0000064596BR23        BRG1        BRG1COCO    BRG1COCO13AG2018030100:00:00OR  01000003476293000347629364596                              2018030120180303Z016CIF201803030000000000025757NN0                                                  0
2MAIL0000064596BR23        BRG1        BRG1COCO    BRG1COCO13AG00000100000000001132020900000000000000100000000000000000000000002184Z01620180303X066005000
2MAIL0000064596BR23        BRG1        BRG1COCO    BRG1COCO13AG00000200000000001227735000000000000000100000000000000000000000002184Z01620180303X066005000
2MAIL0000064596BR23        BRG1        BRG1COCO    BRG1COCO13AG00000300000000001228090100000000000003000000000000000000000000021389Z01620180303X066004960
1MAIL0000064597BR23        BRG1        BRG1COCO    BRG1COCO13AG2018030100:00:00OR  01000000918642000091864264597                              2018030120180303Z859CIF201803030000000000464043NN0                                                  0
2MAIL0000064597BR23        BRG1        BRG1COCO    BRG1COCO13AG00000100000000001132004000000000000006000000000000000000000000046383Z85920180303X066000000
2MAIL0000064597BR23        BRG1        BRG1COCO    BRG1COCO13AG00000200000000001132004200000000000002000000000000000000000000023485Z85920180303X066000000
2MAIL0000064597BR23        BRG1        BRG1COCO    BRG1COCO13AG00000300000000001132030900000000000002400000000000000000000000092119Z85920180303X066000000
2MAIL0000064597BR23        BRG1        BRG1COCO    BRG1COCO13AG00000400000000001228090100000000000015000000000000000000000000100333Z85920180303X066000000
2MAIL0000064597BR23        BRG1        BRG1COCO    BRG1COCO13AG00000500000000001235356200000000000003000000000000000000000000067883Z85920180303X066000000
2MAIL0000064597BR23        BRG1        BRG1COCO    BRG1COCO13AG00000600000000001235699500000000000003000000000000000000000000087287Z85920180303X066000000
2MAIL0000064597BR23        BRG1        BRG1COCO    BRG1COCO13AG00000700000000001235737300000000000001600000000000000000000000046553Z85920180303X066000000
1MAIL0000064598BR23        BRG1        BRG1COCO    BRG1COCO13AG2018030100:00:00OR  01000005354952000535495264598                              2018030120180303Z016CIF201803030000000000024920NN0                                                  0
2MAIL0000064598BR23        BRG1        BRG1COCO    BRG1COCO13AG00000100000000001132033100000000000000100000000000000000000000001641Z01620180303X066015000
2MAIL0000064598BR23        BRG1        BRG1COCO    BRG1COCO13AG00000200000000001132200400000000000000200000000000000000000000003550Z01620180303X066004850
2MAIL0000064598BR23        BRG1        BRG1COCO    BRG1COCO13AG00000300000000001223975300000000000000100000000000000000000000004522Z01620180303X066005000
2MAIL0000064598BR23        BRG1        BRG1COCO    BRG1COCO13AG00000400000000001227395500000000000000100000000000000000000000001641Z01620180303X066015000
2MAIL0000064598BR23        BRG1        BRG1COCO    BRG1COCO13AG00000500000000001231231200000000000000100000000000000000000000004522Z01620180303X066005000
2MAIL0000064598BR23        BRG1        BRG1COCO    BRG1COCO13AG00000600000000001234705700000000000000100000000000000000000000004522Z01620180303X066005000
2MAIL0000064598BR23        BRG1        BRG1COCO    BRG1COCO13AG00000700000000001234705800000000000000100000000000000000000000004522Z01620180303X066005000
1MAIL0000064599BR23        BRG1        BRG1COCO    BRG1COCO13AG2018030100:00:00OR  01000005037052000503705264599                              2018030120180303Z016CIF201803030000000000019897NN0                                                  0
2MAIL0000064599BR23        BRG1        BRG1COCO    BRG1COCO13AG00000100000000001132019700000000000000100000000000000000000000002184Z01620180303X066005000
2MAIL0000064599BR23        BRG1        BRG1COCO    BRG1COCO13AG00000200000000001132036700000000000000100000000000000000000000001641Z01620180303X066015000
2MAIL0000064599BR23        BRG1        BRG1COCO    BRG1COCO13AG00000300000000001132200400000000000000100000000000000000000000001775Z01620180303X066004850
2MAIL0000064599BR23        BRG1        BRG1COCO    BRG1COCO13AG00000400000000001223975300000000000000100000000000000000000000004522Z01620180303X066005000
2MAIL0000064599BR23        BRG1        BRG1COCO    BRG1COCO13AG00000500000000001226089600000000000001200000000000000000000000004055Z01620180303X066009920
2MAIL0000064599BR23        BRG1        BRG1COCO    BRG1COCO13AG00000600000000001228090100000000000000500000000000000000000000003565Z01620180303X066004960
2MAIL0000064599BR23        BRG1        BRG1COCO    BRG1COCO13AG00000700000000001228100400000000000000100000000000000000000000002155Z01620180303X066018000
1MAIL0000064600BR23        BRG1        BRG1COCO    BRG1COCO13AG2018030100:00:00OR  01000005036231000503623164600                              2018030120180303Z016CIF201803030000000000359782NN0                                                  0
2MAIL0000064600BR23        BRG1        BRG1COCO    BRG1COCO13AG00000100000000001132033100000000000001000000000000000000000000016414Z01620180303X066015000
2MAIL0000064600BR23        BRG1        BRG1COCO    BRG1COCO13AG00000200000000001132034900000000000001000000000000000000000000014012Z01620180303X066015000
2MAIL0000064600BR23        BRG1        BRG1COCO    BRG1COCO13AG00000300000000001132035000000000000001000000000000000000000000015561Z01620180303X066015000
2MAIL0000064600BR23        BRG1        BRG1COCO    BRG1COCO13AG00000400000000001132035100000000000001000000000000000000000000014784Z01620180303X066015000
2MAIL0000064600BR23        BRG1        BRG1COCO    BRG1COCO13AG00000500000000001132036700000000000001000000000000000000000000016414Z01620180303X066015000
2MAIL0000064600BR23        BRG1        BRG1COCO    BRG1COCO13AG00000600000000001132200400000000000000200000000000000000000000003550Z01620180303X066004850
2MAIL0000064600BR23        BRG1        BRG1COCO    BRG1COCO13AG00000700000000001132213000000000000000200000000000000000000000006855Z01620180303X066004950
2MAIL0000064600BR23        BRG1        BRG1COCO    BRG1COCO13AG00000800000000001132213100000000000000200000000000000000000000006855Z01620180303X066004950
2MAIL0000064600BR23        BRG1        BRG1COCO    BRG1COCO13AG00000900000000001215533700000000000000600000000000000000000000009849Z01620180303X066015000
2MAIL0000064600BR23        BRG1        BRG1COCO    BRG1COCO13AG00001000000000001223975300000000000000200000000000000000000000008224Z01620180303X066005000
2MAIL0000064600BR23        BRG1        BRG1COCO    BRG1COCO13AG00001100000000001226089600000000000002400000000000000000000000007631Z01620180303X066006750
2MAIL0000064600BR23        BRG1        BRG1COCO    BRG1COCO13AG00001200000000001227395500000000000000600000000000000000000000009849Z01620180303X066015000
2MAIL0000064600BR23        BRG1        BRG1COCO    BRG1COCO13AG00001300000000001228100400000000000002000000000000000000000000043093Z01620180303X066018000
2MAIL0000064600BR23        BRG1        BRG1COCO    BRG1COCO13AG00001400000000001228274000000000000000200000000000000000000000008224Z01620180303X066005000
2MAIL0000064600BR23        BRG1        BRG1COCO    BRG1COCO13AG00001500000000001228512700000000000000200000000000000000000000008224Z01620180303X066005000
2MAIL0000064600BR23        BRG1        BRG1COCO    BRG1COCO13AG00001600000000001231189200000000000000200000000000000000000000008224Z01620180303X066005000
2MAIL0000064600BR23        BRG1        BRG1COCO    BRG1COCO13AG00001700000000001231231200000000000000200000000000000000000000008224Z01620180303X066005000
2MAIL0000064600BR23        BRG1        BRG1COCO    BRG1COCO13AG00001800000000001231389600000000000000600000000000000000000000009849Z01620180303X066015000
2MAIL0000064600BR23        BRG1        BRG1COCO    BRG1COCO13AG00001900000000001233081900000000000002800000000000000000000000009348Z01620180303X066006750
2MAIL0000064600BR23        BRG1        BRG1COCO    BRG1COCO13AG00002000000000001233098400000000000002800000000000000000000000009348Z01620180303X066006750
2MAIL0000064600BR23        BRG1        BRG1COCO    BRG1COCO13AG00002100000000001233098500000000000002800000000000000000000000009348Z01620180303X066006750
2MAIL0000064600BR23        BRG1        BRG1COCO    BRG1COCO13AG00002200000000001233098600000000000002800000000000000000000000009348Z01620180303X066006750
2MAIL0000064600BR23        BRG1        BRG1COCO    BRG1COCO13AG00002300000000001233098800000000000002800000000000000000000000009348Z01620180303X066006750
2MAIL0000064600BR23        BRG1        BRG1COCO    BRG1COCO13AG00002400000000001233099500000000000002800000000000000000000000009348Z01620180303X066006750
2MAIL0000064600BR23        BRG1        BRG1COCO    BRG1COCO13AG00002500000000001233154200000000000002800000000000000000000000009348Z01620180303X066006750
2MAIL0000064600BR23        BRG1        BRG1COCO    BRG1COCO13AG00002600000000001233695100000000000000600000000000000000000000009849Z01620180303X066015000
2MAIL0000064600BR23        BRG1        BRG1COCO    BRG1COCO13AG00002700000000001234705700000000000000200000000000000000000000008224Z01620180303X066005000
2MAIL0000064600BR23        BRG1        BRG1COCO    BRG1COCO13AG00002800000000001234705800000000000000200000000000000000000000008224Z01620180303X066005000
2MAIL0000064600BR23        BRG1        BRG1COCO    BRG1COCO13AG00002900000000001234708700000000000002800000000000000000000000009348Z01620180303X066006750
2MAIL0000064600BR23        BRG1        BRG1COCO    BRG1COCO13AG00003000000000001235699400000000000002000000000000000000000000006732Z01620180303X066006000
2MAIL0000064600BR23        BRG1        BRG1COCO    BRG1COCO13AG00003100000000001235699700000000000002000000000000000000000000006732Z01620180303X066006000
2MAIL0000064600BR23        BRG1        BRG1COCO    BRG1COCO13AG00003200000000001235699800000000000002000000000000000000000000006732Z01620180303X066006000
2MAIL0000064600BR23        BRG1        BRG1COCO    BRG1COCO13AG00003300000000001236512800000000000002400000000000000000000000003736Z01620180303X066008000
2MAIL0000064600BR23        BRG1        BRG1COCO    BRG1COCO13AG00003400000000001236512900000000000002400000000000000000000000003830Z01620180303X066005000
2MAIL0000064600BR23        BRG1        BRG1COCO    BRG1COCO13AG00003500000000001236514100000000000002400000000000000000000000003736Z01620180303X066008000
2MAIL0000064600BR23        BRG1        BRG1COCO    BRG1COCO13AG00003600000000001236515000000000000002400000000000000000000000003830Z01620180303X066005000
2MAIL0000064600BR23        BRG1        BRG1COCO    BRG1COCO13AG00003700000000001236528200000000000002000000000000000000000000007537Z01620180303X066010000
1MAIL0000064601BR23        BRG1        BRG1COCO    BRG1COCO13AG2018030100:00:00OR  01000005036231000503623164601                              2018030120180303Z859CIF201803030000000000136738NN0                                                  0
2MAIL0000064601BR23        BRG1        BRG1COCO    BRG1COCO13AG00000100000000001233114700000000000001200000000000000000000000015511Z85920180303X066000000
2MAIL0000064601BR23        BRG1        BRG1COCO    BRG1COCO13AG00000200000000001235356200000000000001500000000000000000000000033941Z85920180303X066000000
2MAIL0000064601BR23        BRG1        BRG1COCO    BRG1COCO13AG00000300000000001235699500000000000001500000000000000000000000043643Z85920180303X066000000
2MAIL0000064601BR23        BRG1        BRG1COCO    BRG1COCO13AG00000400000000001235737300000000000001500000000000000000000000043643Z85920180303X066000000
1MAIL0000064602BR23        BRG1        BRG1COCO    BRG1COCO13AG2018030100:00:00OR  01000002937726000293772664602                              2018030120180303ZG05CIF201803030000000000003881NN0                                                  0
2MAIL0000064602BR23        BRG1        BRG1COCO    BRG1COCO13AG00000100000000001132036700000000000000100000000000000000000000001678ZG0520180303X066015000
2MAIL0000064602BR23        BRG1        BRG1COCO    BRG1COCO13AG00000200000000001228100400000000000000100000000000000000000000002203ZG0520180303X066018000
1MAIL0000064603BR23        BRG1        BRG1COCO    BRG1COCO13AG2018030100:00:00OR  01000005050745000505074564603                              2018030120180303Z016CIF201803030000000000011489NN0                                                  0
2MAIL0000064603BR23        BRG1        BRG1COCO    BRG1COCO13AG00000100000000001132033100000000000000100000000000000000000000001641Z01620180303X066015000
2MAIL0000064603BR23        BRG1        BRG1COCO    BRG1COCO13AG00000200000000001132036700000000000000400000000000000000000000006566Z01620180303X066015000
2MAIL0000064603BR23        BRG1        BRG1COCO    BRG1COCO13AG00000300000000001215533700000000000000100000000000000000000000001641Z01620180303X066015000
2MAIL0000064603BR23        BRG1        BRG1COCO    BRG1COCO13AG00000400000000001233695100000000000000100000000000000000000000001641Z01620180303X066015000
1MAIL0000064604BR23        BRG1        BRG1COCO    BRG1COCO13AG2018030100:00:00OR  01000005050744000505074464604                              2018030120180303Z016CIF201803030000000000042761NN0                                                  0
2MAIL0000064604BR23        BRG1        BRG1COCO    BRG1COCO13AG00000100000000001132033100000000000000200000000000000000000000003282Z01620180303X066015000
2MAIL0000064604BR23        BRG1        BRG1COCO    BRG1COCO13AG00000200000000001132036700000000000000200000000000000000000000003282Z01620180303X066015000
2MAIL0000064604BR23        BRG1        BRG1COCO    BRG1COCO13AG00000300000000001215533700000000000000200000000000000000000000003282Z01620180303X066015000
2MAIL0000064604BR23        BRG1        BRG1COCO    BRG1COCO13AG00000400000000001227395500000000000000200000000000000000000000003282Z01620180303X066015000
2MAIL0000064604BR23        BRG1        BRG1COCO    BRG1COCO13AG00000500000000001228090100000000000003000000000000000000000000021389Z01620180303X066004960
2MAIL0000064604BR23        BRG1        BRG1COCO    BRG1COCO13AG00000600000000001233098400000000000001400000000000000000000000004962Z01620180303X066010000
2MAIL0000064604BR23        BRG1        BRG1COCO    BRG1COCO13AG00000700000000001233695100000000000000200000000000000000000000003282Z01620180303X066015000
1MAIL0000064605BR23        BRG1        BRG1COCO    BRG1COCO13AG2018030100:00:00OR  01000003334570000333457064605                              2018030120180303Z016CIF201803030000000000039412NN0                                                  0
2MAIL0000064605BR23        BRG1        BRG1COCO    BRG1COCO13AG00000100000000001132033100000000000000300000000000000000000000005130Z01620180303X066015000
2MAIL0000064605BR23        BRG1        BRG1COCO    BRG1COCO13AG00000200000000001132036700000000000000500000000000000000000000008550Z01620180303X066015000
2MAIL0000064605BR23        BRG1        BRG1COCO    BRG1COCO13AG00000300000000001215533700000000000000300000000000000000000000005130Z01620180303X066015000
2MAIL0000064605BR23        BRG1        BRG1COCO    BRG1COCO13AG00000400000000001227395500000000000000200000000000000000000000003420Z01620180303X066015000
2MAIL0000064605BR23        BRG1        BRG1COCO    BRG1COCO13AG00000500000000001231389600000000000000200000000000000000000000003420Z01620180303X066015000
2MAIL0000064605BR23        BRG1        BRG1COCO    BRG1COCO13AG00000600000000001233098400000000000001400000000000000000000000005171Z01620180303X066010000
2MAIL0000064605BR23        BRG1        BRG1COCO    BRG1COCO13AG00000700000000001233098600000000000001400000000000000000000000005171Z01620180303X066010000
2MAIL0000064605BR23        BRG1        BRG1COCO    BRG1COCO13AG00000800000000001233695100000000000000200000000000000000000000003420Z01620180303X066015000
1MAIL0000064606BR23        BRG1        BRG1COCO    BRG1COCO13AG2018030100:00:00OR  01000005412466000541246664606                              2018030120180303Z016CIF201803030000000000036127NN0                                                  0
2MAIL0000064606BR23        BRG1        BRG1COCO    BRG1COCO13AG00000100000000001132033100000000000000100000000000000000000000001720Z01620180303X066000000
2MAIL0000064606BR23        BRG1        BRG1COCO    BRG1COCO13AG00000200000000001132036700000000000000100000000000000000000000001720Z01620180303X066000000
2MAIL0000064606BR23        BRG1        BRG1COCO    BRG1COCO13AG00000300000000001132200400000000000000200000000000000000000000003491Z01620180303X066000000
2MAIL0000064606BR23        BRG1        BRG1COCO    BRG1COCO13AG00000400000000001132213000000000000000100000000000000000000000003534Z01620180303X066000000
2MAIL0000064606BR23        BRG1        BRG1COCO    BRG1COCO13AG00000500000000001132213100000000000000100000000000000000000000003534Z01620180303X066000000
2MAIL0000064606BR23        BRG1        BRG1COCO    BRG1COCO13AG00000600000000001215533700000000000000100000000000000000000000001720Z01620180303X066000000
2MAIL0000064606BR23        BRG1        BRG1COCO    BRG1COCO13AG00000700000000001223975300000000000000100000000000000000000000004242Z01620180303X066000000
2MAIL0000064606BR23        BRG1        BRG1COCO    BRG1COCO13AG00000800000000001227395500000000000000100000000000000000000000001720Z01620180303X066000000
2MAIL0000064606BR23        BRG1        BRG1COCO    BRG1COCO13AG00000900000000001228274000000000000000100000000000000000000000004242Z01620180303X066000000
2MAIL0000064606BR23        BRG1        BRG1COCO    BRG1COCO13AG00001000000000001231189200000000000000100000000000000000000000004242Z01620180303X066000000
2MAIL0000064606BR23        BRG1        BRG1COCO    BRG1COCO13AG00001100000000001231231200000000000000100000000000000000000000004242Z01620180303X066000000
2MAIL0000064606BR23        BRG1        BRG1COCO    BRG1COCO13AG00001200000000001231389600000000000000100000000000000000000000001720Z01620180303X066000000
1MAIL0000064607BR23        BRG1        BRG1COCO    BRG1COCO13AG2018030100:00:00OR  01000005526496000552649664607                              2018030120180303Z016CIF201803030000000000115744NN0                                                  0
2MAIL0000064607BR23        BRG1        BRG1COCO    BRG1COCO13AG00000100000000001233114700000000000001500000000000000000000000015635Z01620180303X066000000
2MAIL0000064607BR23        BRG1        BRG1COCO    BRG1COCO13AG00000200000000001235356200000000000001500000000000000000000000027376Z01620180303X066000000
2MAIL0000064607BR23        BRG1        BRG1COCO    BRG1COCO13AG00000300000000001235699500000000000001500000000000000000000000035193Z01620180303X066000000
2MAIL0000064607BR23        BRG1        BRG1COCO    BRG1COCO13AG00000400000000001235737300000000000001600000000000000000000000037540Z01620180303X066000000
1MAIL0000064608BR23        BRG1        BRG1COCO    BRG1COCO13AG2018030100:00:00OR  01000002898831000289883164608                              2018030120180303Z016CIF201803030000000000013577NN0                                                  0
2MAIL0000064608BR23        BRG1        BRG1COCO    BRG1COCO13AG00000100000000001235356200000000000000600000000000000000000000013577Z01620180303X066000000
1MAIL0000064609BR23        BRG1        BRG1COCO    BRG1COCO13AG2018030100:00:00OR  01000005257662000525766264609                              2018030120180303Z016CIF201803030000000000012930NN0                                                  0
2MAIL0000064609BR23        BRG1        BRG1COCO    BRG1COCO13AG00000100000000001233114700000000000000200000000000000000000000002585Z01620180303X066000000
2MAIL0000064609BR23        BRG1        BRG1COCO    BRG1COCO13AG00000200000000001235356200000000000000200000000000000000000000004526Z01620180303X066000000
2MAIL0000064609BR23        BRG1        BRG1COCO    BRG1COCO13AG00000300000000001235737300000000000000200000000000000000000000005819Z01620180303X066000000
1MAIL0000064610BR23        BRG1        BRG1COCO    BRG1COCO13AG2018030100:00:00OR  01000005257662000525766264610                              2018030120180303Z016CIF201803030000000000012856NN0                                                  0
2MAIL0000064610BR23        BRG1        BRG1COCO    BRG1COCO13AG00000100000000001132019800000000000000100000000000000000000000002184Z01620180303X066005000
2MAIL0000064610BR23        BRG1        BRG1COCO    BRG1COCO13AG00000200000000001132033100000000000000100000000000000000000000001834Z01620180303X066005000
2MAIL0000064610BR23        BRG1        BRG1COCO    BRG1COCO13AG00000300000000001132036700000000000000200000000000000000000000003668Z01620180303X066005000
2MAIL0000064610BR23        BRG1        BRG1COCO    BRG1COCO13AG00000400000000001132400100000000000000100000000000000000000000003336Z01620180303X066005000
2MAIL0000064610BR23        BRG1        BRG1COCO    BRG1COCO13AG00000500000000001227395500000000000000100000000000000000000000001834Z01620180303X066005000
1MAIL0000064611BR23        BRG1        BRG1COCO    BRG1COCO13AG2018030100:00:00OR  01000002980445000298044564611                              2018030120180303Z016CIF201803030000000000253978NN0                                                  0
2MAIL0000064611BR23        BRG1        BRG1COCO    BRG1COCO13AG00000100000000001132400100000000000000200000000000000000000000006672Z01620180303X066005000
2MAIL0000064611BR23        BRG1        BRG1COCO    BRG1COCO13AG00000200000000001226089600000000000003600000000000000000000000011538Z01620180303X066006000
2MAIL0000064611BR23        BRG1        BRG1COCO    BRG1COCO13AG00000300000000001228100400000000000005000000000000000000000000107732Z01620180303X066018000
2MAIL0000064611BR23        BRG1        BRG1COCO    BRG1COCO13AG00000400000000001228512700000000000000100000000000000000000000004112Z01620180303X066005000
2MAIL0000064611BR23        BRG1        BRG1COCO    BRG1COCO13AG00000500000000001231189200000000000000100000000000000000000000004112Z01620180303X066005000
2MAIL0000064611BR23        BRG1        BRG1COCO    BRG1COCO13AG00000600000000001233081900000000000004200000000000000000000000014135Z01620180303X066006000
2MAIL0000064611BR23        BRG1        BRG1COCO    BRG1COCO13AG00000700000000001233098400000000000004200000000000000000000000014135Z01620180303X066006000
2MAIL0000064611BR23        BRG1        BRG1COCO    BRG1COCO13AG00000800000000001233098500000000000004200000000000000000000000014135Z01620180303X066006000
2MAIL0000064611BR23        BRG1        BRG1COCO    BRG1COCO13AG00000900000000001233098600000000000004200000000000000000000000014135Z01620180303X066006000
2MAIL0000064611BR23        BRG1        BRG1COCO    BRG1COCO13AG00001000000000001233098800000000000004200000000000000000000000014135Z01620180303X066006000
2MAIL0000064611BR23        BRG1        BRG1COCO    BRG1COCO13AG00001100000000001233099500000000000004200000000000000000000000014135Z01620180303X066006000
2MAIL0000064611BR23        BRG1        BRG1COCO    BRG1COCO13AG00001200000000001233154200000000000004200000000000000000000000014135Z01620180303X066006000
2MAIL0000064611BR23        BRG1        BRG1COCO    BRG1COCO13AG00001300000000001234708700000000000004200000000000000000000000014135Z01620180303X066006000
2MAIL0000064611BR23        BRG1        BRG1COCO    BRG1COCO13AG00001400000000001235699800000000000002000000000000000000000000006732Z01620180303X066006000
1MAIL0000064612BR23        BRG1        BRG1COCO    BRG1COCO13AG2018030100:00:00OR  01000002980445000298044564612                              2018030120180303Z859CIF201803030000000000080493NN0                                                  0
2MAIL0000064612BR23        BRG1        BRG1COCO    BRG1COCO13AG00000100000000001235356200000000000001500000000000000000000000033941Z85920180303X066000000
2MAIL0000064612BR23        BRG1        BRG1COCO    BRG1COCO13AG00000200000000001235699500000000000000800000000000000000000000023276Z85920180303X066000000
2MAIL0000064612BR23        BRG1        BRG1COCO    BRG1COCO13AG00000300000000001235737300000000000000800000000000000000000000023276Z85920180303X066000000
1MAIL0000064613BR23        BRG1        BRG1COCO    BRG1COCO13AG2018030100:00:00OR  01000005274674000527467464613                              2018030120180303Z859CIF201803030000000000012607NN0                                                  0
2MAIL0000064613BR23        BRG1        BRG1COCO    BRG1COCO13AG00000100000000001233114700000000000000100000000000000000000000001293Z85920180303X066000000
2MAIL0000064613BR23        BRG1        BRG1COCO    BRG1COCO13AG00000200000000001235356200000000000000500000000000000000000000011314Z85920180303X066000000
1MAIL0000064614BR23        BRG1        BRG1COCO    BRG1COCO13AG2018030100:00:00OR  01000005215526000521552664614                              2018030120180303Z016CIF201803030000000000015538NN0                                                  0
2MAIL0000064614BR23        BRG1        BRG1COCO    BRG1COCO13AG00000100000000001132033100000000000000200000000000000000000000003282Z01620180303X066015000
2MAIL0000064614BR23        BRG1        BRG1COCO    BRG1COCO13AG00000200000000001132036700000000000000300000000000000000000000004923Z01620180303X066015000
2MAIL0000064614BR23        BRG1        BRG1COCO    BRG1COCO13AG00000300000000001226089600000000000001200000000000000000000000004051Z01620180303X066010000
2MAIL0000064614BR23        BRG1        BRG1COCO    BRG1COCO13AG00000400000000001227395500000000000000100000000000000000000000001641Z01620180303X066015000
2MAIL0000064614BR23        BRG1        BRG1COCO    BRG1COCO13AG00000500000000001231389600000000000000100000000000000000000000001641Z01620180303X066015000
1MAIL0000064615BR23        BRG1        BRG1COCO    BRG1COCO13AG2018030100:00:00OR  01000005215526000521552664615                              2018030120180303Z016CIF201803030000000000048489NN0                                                  0
2MAIL0000064615BR23        BRG1        BRG1COCO    BRG1COCO13AG00000100000000001233114700000000000000200000000000000000000000002585Z01620180303X066000000
2MAIL0000064615BR23        BRG1        BRG1COCO    BRG1COCO13AG00000200000000001235356200000000000001000000000000000000000000022628Z01620180303X066000000
2MAIL0000064615BR23        BRG1        BRG1COCO    BRG1COCO13AG00000300000000001235699500000000000000200000000000000000000000005819Z01620180303X066000000
2MAIL0000064615BR23        BRG1        BRG1COCO    BRG1COCO13AG00000400000000001235737300000000000000600000000000000000000000017457Z01620180303X066000000
1MAIL0000064616BR23        BRG1        BRG1COCO    BRG1COCO13AG2018030100:00:00OR  01000003181155000318115564616                              2018030120180303Z016CIF201803030000000000022184NN0                                                  0
2MAIL0000064616BR23        BRG1        BRG1COCO    BRG1COCO13AG00000100000000001132019800000000000000100000000000000000000000002185Z01620180303X066004960
2MAIL0000064616BR23        BRG1        BRG1COCO    BRG1COCO13AG00000200000000001132033100000000000000100000000000000000000000001641Z01620180303X066015000
2MAIL0000064616BR23        BRG1        BRG1COCO    BRG1COCO13AG00000300000000001132036700000000000000200000000000000000000000003282Z01620180303X066015000
2MAIL0000064616BR23        BRG1        BRG1COCO    BRG1COCO13AG00000400000000001132200400000000000000200000000000000000000000003550Z01620180303X066004850
2MAIL0000064616BR23        BRG1        BRG1COCO    BRG1COCO13AG00000500000000001215533700000000000000100000000000000000000000001641Z01620180303X066015000
2MAIL0000064616BR23        BRG1        BRG1COCO    BRG1COCO13AG00000600000000001227395500000000000000100000000000000000000000001641Z01620180303X066015000
2MAIL0000064616BR23        BRG1        BRG1COCO    BRG1COCO13AG00000700000000001231389600000000000000100000000000000000000000001641Z01620180303X066015000
2MAIL0000064616BR23        BRG1        BRG1COCO    BRG1COCO13AG00000800000000001233098400000000000001400000000000000000000000004962Z01620180303X066010000
2MAIL0000064616BR23        BRG1        BRG1COCO    BRG1COCO13AG00000900000000001233695100000000000000100000000000000000000000001641Z01620180303X066015000
1MAIL0000064617BR23        BRG1        BRG1COCO    BRG1COCO13AG2018030100:00:00OR  01000003853590000385359064617                              2018030120180303Z016CIF201803030000000000120138NN0                                                  0
2MAIL0000064617BR23        BRG1        BRG1COCO    BRG1COCO13AG00000100000000001132019700000000000000100000000000000000000000002185Z01620180303X066004960
2MAIL0000064617BR23        BRG1        BRG1COCO    BRG1COCO13AG00000200000000001132019900000000000000100000000000000000000000002185Z01620180303X066004960
2MAIL0000064617BR23        BRG1        BRG1COCO    BRG1COCO13AG00000300000000001132200400000000000000400000000000000000000000007101Z01620180303X066004850
2MAIL0000064617BR23        BRG1        BRG1COCO    BRG1COCO13AG00000400000000001132213000000000000000100000000000000000000000003771Z01620180303X066004950
2MAIL0000064617BR23        BRG1        BRG1COCO    BRG1COCO13AG00000500000000001132213100000000000000100000000000000000000000003771Z01620180303X066004950
2MAIL0000064617BR23        BRG1        BRG1COCO    BRG1COCO13AG00000600000000001132400100000000000000100000000000000000000000003337Z01620180303X066004960
2MAIL0000064617BR23        BRG1        BRG1COCO    BRG1COCO13AG00000700000000001226089600000000000001200000000000000000000000004051Z01620180303X066010000
2MAIL0000064617BR23        BRG1        BRG1COCO    BRG1COCO13AG00000800000000001227395500000000000000100000000000000000000000001641Z01620180303X066015000
2MAIL0000064617BR23        BRG1        BRG1COCO    BRG1COCO13AG00000900000000001227735000000000000000100000000000000000000000002185Z01620180303X066004960
2MAIL0000064617BR23        BRG1        BRG1COCO    BRG1COCO13AG00001000000000001228090100000000000003000000000000000000000000021389Z01620180303X066004960
2MAIL0000064617BR23        BRG1        BRG1COCO    BRG1COCO13AG00001100000000001233081900000000000001400000000000000000000000004962Z01620180303X066010000
2MAIL0000064617BR23        BRG1        BRG1COCO    BRG1COCO13AG00001200000000001233098400000000000001400000000000000000000000005458Z01620180303X066001000
2MAIL0000064617BR23        BRG1        BRG1COCO    BRG1COCO13AG00001300000000001233098500000000000001400000000000000000000000004962Z01620180303X066010000
2MAIL0000064617BR23        BRG1        BRG1COCO    BRG1COCO13AG00001400000000001233098600000000000001400000000000000000000000004962Z01620180303X066010000
2MAIL0000064617BR23        BRG1        BRG1COCO    BRG1COCO13AG00001500000000001233098800000000000001400000000000000000000000004962Z01620180303X066010000
2MAIL0000064617BR23        BRG1        BRG1COCO    BRG1COCO13AG00001600000000001233099500000000000001400000000000000000000000004962Z01620180303X066010000
2MAIL0000064617BR23        BRG1        BRG1COCO    BRG1COCO13AG00001700000000001233154200000000000001400000000000000000000000004962Z01620180303X066010000
2MAIL0000064617BR23        BRG1        BRG1COCO    BRG1COCO13AG00001800000000001233695100000000000000100000000000000000000000001641Z01620180303X066015000
2MAIL0000064617BR23        BRG1        BRG1COCO    BRG1COCO13AG00001900000000001234705700000000000000100000000000000000000000004524Z01620180303X066004960
2MAIL0000064617BR23        BRG1        BRG1COCO    BRG1COCO13AG00002000000000001234705800000000000000100000000000000000000000004524Z01620180303X066004960
2MAIL0000064617BR23        BRG1        BRG1COCO    BRG1COCO13AG00002100000000001234708700000000000001400000000000000000000000004962Z01620180303X066010000
2MAIL0000064617BR23        BRG1        BRG1COCO    BRG1COCO13AG00002200000000001235699400000000000001000000000000000000000000003702Z01620180303X066006000
2MAIL0000064617BR23        BRG1        BRG1COCO    BRG1COCO13AG00002300000000001235699700000000000001000000000000000000000000003702Z01620180303X066006000
2MAIL0000064617BR23        BRG1        BRG1COCO    BRG1COCO13AG00002400000000001235699800000000000001000000000000000000000000003702Z01620180303X066006000
2MAIL0000064617BR23        BRG1        BRG1COCO    BRG1COCO13AG00002500000000001236512800000000000000600000000000000000000000000965Z01620180303X066008000
2MAIL0000064617BR23        BRG1        BRG1COCO    BRG1COCO13AG00002600000000001236512900000000000000600000000000000000000000000958Z01620180303X066005000
2MAIL0000064617BR23        BRG1        BRG1COCO    BRG1COCO13AG00002700000000001236514100000000000000800000000000000000000000001287Z01620180303X066008000
2MAIL0000064617BR23        BRG1        BRG1COCO    BRG1COCO13AG00002800000000001236515000000000000000800000000000000000000000001277Z01620180303X066005000
2MAIL0000064617BR23        BRG1        BRG1COCO    BRG1COCO13AG00002900000000001236528200000000000000500000000000000000000000002048Z01620180303X066005000
1MAIL0000064618BR23        BRG1        BRG1COCO    BRG1COCO13AG2018030100:00:00OR  01000003257195000325719564618                              2018030120180303Z016CIF201803030000000000095324NN0                                                  0
2MAIL0000064618BR23        BRG1        BRG1COCO    BRG1COCO13AG00000100000000001132019800000000000000100000000000000000000000002184Z01620180303X066005000
2MAIL0000064618BR23        BRG1        BRG1COCO    BRG1COCO13AG00000200000000001132033100000000000000200000000000000000000000003282Z01620180303X066015000
2MAIL0000064618BR23        BRG1        BRG1COCO    BRG1COCO13AG00000300000000001132036700000000000000200000000000000000000000003282Z01620180303X066015000
2MAIL0000064618BR23        BRG1        BRG1COCO    BRG1COCO13AG00000400000000001132200400000000000000200000000000000000000000003582Z01620180303X066004000
2MAIL0000064618BR23        BRG1        BRG1COCO    BRG1COCO13AG00000500000000001215533700000000000000200000000000000000000000003282Z01620180303X066015000
2MAIL0000064618BR23        BRG1        BRG1COCO    BRG1COCO13AG00000600000000001227735000000000000000100000000000000000000000002184Z01620180303X066005000
2MAIL0000064618BR23        BRG1        BRG1COCO    BRG1COCO13AG00000700000000001228090100000000000006000000000000000000000000042805Z01620180303X066004900
2MAIL0000064618BR23        BRG1        BRG1COCO    BRG1COCO13AG00000800000000001231189200000000000000100000000000000000000000004522Z01620180303X066005000
2MAIL0000064618BR23        BRG1        BRG1COCO    BRG1COCO13AG00000900000000001231231200000000000000100000000000000000000000004522Z01620180303X066005000
2MAIL0000064618BR23        BRG1        BRG1COCO    BRG1COCO13AG00001000000000001231389600000000000000100000000000000000000000001641Z01620180303X066015000
2MAIL0000064618BR23        BRG1        BRG1COCO    BRG1COCO13AG00001100000000001233098400000000000001400000000000000000000000004962Z01620180303X066010000
2MAIL0000064618BR23        BRG1        BRG1COCO    BRG1COCO13AG00001200000000001233098500000000000001400000000000000000000000004962Z01620180303X066010000
2MAIL0000064618BR23        BRG1        BRG1COCO    BRG1COCO13AG00001300000000001233099500000000000001400000000000000000000000004796Z01620180303X066013000
2MAIL0000064618BR23        BRG1        BRG1COCO    BRG1COCO13AG00001400000000001233154200000000000001400000000000000000000000004796Z01620180303X066013000
2MAIL0000064618BR23        BRG1        BRG1COCO    BRG1COCO13AG00001500000000001234705700000000000000100000000000000000000000004522Z01620180303X066005000
1MAIL0000064619BR23        BRG1        BRG1COCO    BRG1COCO13AG2018030100:00:00OR  01000005099248000509924864619                              2018030120180303Z016CIF201803030000000000043857NN0                                                  0
2MAIL0000064619BR23        BRG1        BRG1COCO    BRG1COCO13AG00000100000000001132200400000000000000200000000000000000000000003889Z01620180303X066000000
2MAIL0000064619BR23        BRG1        BRG1COCO    BRG1COCO13AG00000200000000001132213000000000000000200000000000000000000000008266Z01620180303X066000000
2MAIL0000064619BR23        BRG1        BRG1COCO    BRG1COCO13AG00000300000000001132213100000000000000200000000000000000000000008266Z01620180303X066000000
2MAIL0000064619BR23        BRG1        BRG1COCO    BRG1COCO13AG00000400000000001228090100000000000003000000000000000000000000023436Z01620180303X066000000
1MAIL0000064620BR23        BRG1        BRG1COCO    BRG1COCO13AG2018030100:00:00OR  01000004892751000489275164620                              2018030120180303Z859CIF201803030000000000033941NN0                                                  0
2MAIL0000064620BR23        BRG1        BRG1COCO    BRG1COCO13AG00000100000000001235356200000000000001500000000000000000000000033941Z85920180303X066000000
1MAIL0000064621BR23        BRG1        BRG1COCO    BRG1COCO13AG2018030100:00:00OR  01000005259257000525925764621                              2018030120180303Z016CIF201803030000000000042489NN0                                                  0
2MAIL0000064621BR23        BRG1        BRG1COCO    BRG1COCO13AG00000100000000001132019800000000000000100000000000000000000000002184Z01620180303X066005000
2MAIL0000064621BR23        BRG1        BRG1COCO    BRG1COCO13AG00000200000000001132019900000000000000100000000000000000000000002184Z01620180303X066005000
2MAIL0000064621BR23        BRG1        BRG1COCO    BRG1COCO13AG00000300000000001132020900000000000000100000000000000000000000002184Z01620180303X066005000
2MAIL0000064621BR23        BRG1        BRG1COCO    BRG1COCO13AG00000400000000001132033100000000000000100000000000000000000000001641Z01620180303X066015000
2MAIL0000064621BR23        BRG1        BRG1COCO    BRG1COCO13AG00000500000000001132036700000000000000100000000000000000000000001641Z01620180303X066015000
2MAIL0000064621BR23        BRG1        BRG1COCO    BRG1COCO13AG00000600000000001132200400000000000000100000000000000000000000001775Z01620180303X066004850
2MAIL0000064621BR23        BRG1        BRG1COCO    BRG1COCO13AG00000700000000001215533700000000000000100000000000000000000000001641Z01620180303X066015000
2MAIL0000064621BR23        BRG1        BRG1COCO    BRG1COCO13AG00000800000000001223975300000000000000100000000000000000000000004522Z01620180303X066005000
2MAIL0000064621BR23        BRG1        BRG1COCO    BRG1COCO13AG00000900000000001227735000000000000000100000000000000000000000002184Z01620180303X066005000
2MAIL0000064621BR23        BRG1        BRG1COCO    BRG1COCO13AG00001000000000001228090100000000000000500000000000000000000000003565Z01620180303X066004960
2MAIL0000064621BR23        BRG1        BRG1COCO    BRG1COCO13AG00001100000000001231189200000000000000100000000000000000000000004522Z01620180303X066005000
2MAIL0000064621BR23        BRG1        BRG1COCO    BRG1COCO13AG00001200000000001231231200000000000000100000000000000000000000004522Z01620180303X066005000
2MAIL0000064621BR23        BRG1        BRG1COCO    BRG1COCO13AG00001300000000001233081900000000000001400000000000000000000000004962Z01620180303X066010000
2MAIL0000064621BR23        BRG1        BRG1COCO    BRG1COCO13AG00001400000000001233098400000000000001400000000000000000000000004962Z01620180303X066010000
1MAIL0000064622BR23        BRG1        BRG1COCO    BRG1COCO13AG2018030100:00:00OR  01000005392575000539257564622                              2018030120180303Z016CIF201803030000000000014754NN0                                                  0
2MAIL0000064622BR23        BRG1        BRG1COCO    BRG1COCO13AG00000100000000001132018300000000000000100000000000000000000000004078Z01620180303X066015000
2MAIL0000064622BR23        BRG1        BRG1COCO    BRG1COCO13AG00000200000000001132033100000000000000100000000000000000000000001641Z01620180303X066015000
2MAIL0000064622BR23        BRG1        BRG1COCO    BRG1COCO13AG00000300000000001132036700000000000000100000000000000000000000001641Z01620180303X066015000
2MAIL0000064622BR23        BRG1        BRG1COCO    BRG1COCO13AG00000400000000001215533700000000000000100000000000000000000000001641Z01620180303X066015000
2MAIL0000064622BR23        BRG1        BRG1COCO    BRG1COCO13AG00000500000000001221415400000000000000100000000000000000000000003598Z01620180303X066025000
2MAIL0000064622BR23        BRG1        BRG1COCO    BRG1COCO13AG00000600000000001228100400000000000000100000000000000000000000002155Z01620180303X066018000
1MAIL0000064623BR23        BRG1        BRG1COCO    BRG1COCO13AG2018030100:00:00OR  01000004027425000402742564623                              2018030120180303Z859CIF201803030000000000007436NN0                                                  0
2MAIL0000064623BR23        BRG1        BRG1COCO    BRG1COCO13AG00000100000000001235356200000000000000200000000000000000000000004526Z85920180303X066000000
2MAIL0000064623BR23        BRG1        BRG1COCO    BRG1COCO13AG00000200000000001235699500000000000000100000000000000000000000002910Z85920180303X066000000
1MAIL0000064624BR23        BRG1        BRG1COCO    BRG1COCO13AG2018030100:00:00OR  01000003628304000362830464624                              2018030120180303Z016CIF201803030000000000014159NN0                                                  0
2MAIL0000064624BR23        BRG1        BRG1COCO    BRG1COCO13AG00000100000000001132033100000000000000200000000000000000000000003476Z01620180303X066010000
2MAIL0000064624BR23        BRG1        BRG1COCO    BRG1COCO13AG00000200000000001132036700000000000000200000000000000000000000003476Z01620180303X066010000
2MAIL0000064624BR23        BRG1        BRG1COCO    BRG1COCO13AG00000300000000001132200400000000000000200000000000000000000000003731Z01620180303X066000000
2MAIL0000064624BR23        BRG1        BRG1COCO    BRG1COCO13AG00000400000000001215533700000000000000200000000000000000000000003476Z01620180303X066010000
1MAIL0000064625BR23        BRG1        BRG1COCO    BRG1COCO13AG2018030100:00:00OR  01000002931795000293179564625                              2018030120180303Z016CIF201803030000000000040367NN0                                                  0
2MAIL0000064625BR23        BRG1        BRG1COCO    BRG1COCO13AG00000100000000001132033100000000000000100000000000000000000000001738Z01620180303X066010000
2MAIL0000064625BR23        BRG1        BRG1COCO    BRG1COCO13AG00000200000000001132036700000000000000100000000000000000000000001738Z01620180303X066010000
2MAIL0000064625BR23        BRG1        BRG1COCO    BRG1COCO13AG00000300000000001132200400000000000000100000000000000000000000001866Z01620180303X066000000
2MAIL0000064625BR23        BRG1        BRG1COCO    BRG1COCO13AG00000400000000001231189200000000000000100000000000000000000000004522Z01620180303X066005000
2MAIL0000064625BR23        BRG1        BRG1COCO    BRG1COCO13AG00000500000000001231231200000000000000100000000000000000000000004522Z01620180303X066005000
2MAIL0000064625BR23        BRG1        BRG1COCO    BRG1COCO13AG00000600000000001233098400000000000001400000000000000000000000004967Z01620180303X066009920
2MAIL0000064625BR23        BRG1        BRG1COCO    BRG1COCO13AG00000700000000001233154200000000000001400000000000000000000000004967Z01620180303X066009920
2MAIL0000064625BR23        BRG1        BRG1COCO    BRG1COCO13AG00000800000000001235699700000000000001000000000000000000000000003702Z01620180303X066006000
2MAIL0000064625BR23        BRG1        BRG1COCO    BRG1COCO13AG00000900000000001235699800000000000002000000000000000000000000007405Z01620180303X066006000
2MAIL0000064625BR23        BRG1        BRG1COCO    BRG1COCO13AG00001000000000001236512800000000000001000000000000000000000000001748Z01620180303X066000010
2MAIL0000064625BR23        BRG1        BRG1COCO    BRG1COCO13AG00001100000000001236512900000000000001000000000000000000000000001596Z01620180303X066005000
2MAIL0000064625BR23        BRG1        BRG1COCO    BRG1COCO13AG00001200000000001236515000000000000001000000000000000000000000001596Z01620180303X066005000
1MAIL0000064626BR23        BRG1        BRG1COCO    BRG1COCO13AG2018030100:00:00OR  01000005532851000553285164626                              2018030120180303Z016CIF201803030000000000017283NN0                                                  0
2MAIL0000064626BR23        BRG1        BRG1COCO    BRG1COCO13AG00000100000000001132033100000000000000100000000000000000000000001897Z01620180303X066000000
2MAIL0000064626BR23        BRG1        BRG1COCO    BRG1COCO13AG00000200000000001132036700000000000000100000000000000000000000001897Z01620180303X066000000
2MAIL0000064626BR23        BRG1        BRG1COCO    BRG1COCO13AG00000300000000001132213000000000000000100000000000000000000000003899Z01620180303X066000000
2MAIL0000064626BR23        BRG1        BRG1COCO    BRG1COCO13AG00000400000000001132213100000000000000100000000000000000000000003899Z01620180303X066000000
2MAIL0000064626BR23        BRG1        BRG1COCO    BRG1COCO13AG00000500000000001215533700000000000000100000000000000000000000001897Z01620180303X066000000
2MAIL0000064626BR23        BRG1        BRG1COCO    BRG1COCO13AG00000600000000001227395500000000000000100000000000000000000000001897Z01620180303X066000000
2MAIL0000064626BR23        BRG1        BRG1COCO    BRG1COCO13AG00000700000000001231389600000000000000100000000000000000000000001897Z01620180303X066000000
1MAIL0000064627BR23        BRG1        BRG1COCO    BRG1COCO13AG2018030100:00:00OR  01000004917852000491785264627                              2018030120180303Z016CIF201803030000000000066169NN0                                                  0
2MAIL0000064627BR23        BRG1        BRG1COCO    BRG1COCO13AG00000100000000001233114700000000000001000000000000000000000000012191Z01620180303X066000000
2MAIL0000064627BR23        BRG1        BRG1COCO    BRG1COCO13AG00000200000000001235356200000000000001500000000000000000000000032020Z01620180303X066000000
2MAIL0000064627BR23        BRG1        BRG1COCO    BRG1COCO13AG00000300000000001235737300000000000000800000000000000000000000021958Z01620180303X066000000
1MAIL0000064628BR23        BRG1        BRG1COCO    BRG1COCO13AG2018030100:00:00OR  01000004918493000491849364628                              2018030120180303Z016CIF201803030000000000063507NN0                                                  0
2MAIL0000064628BR23        BRG1        BRG1COCO    BRG1COCO13AG00000100000000001228090100000000000006000000000000000000000000044547Z01620180303X066004960
2MAIL0000064628BR23        BRG1        BRG1COCO    BRG1COCO13AG00000200000000001236512900000000000007000000000000000000000000009480Z01620180303X066005000
2MAIL0000064628BR23        BRG1        BRG1COCO    BRG1COCO13AG00000300000000001236515000000000000007000000000000000000000000009480Z01620180303X066005000
1MAIL0000064629BR23        BRG1        BRG1COCO    BRG1COCO13AG2018030100:00:00OR  01000004918493000491849364629                              2018030120180303Z016CIF201803030000000000088126NN0                                                  0
2MAIL0000064629BR23        BRG1        BRG1COCO    BRG1COCO13AG00000100000000001233114700000000000001000000000000000000000000012191Z01620180303X066000000
2MAIL0000064629BR23        BRG1        BRG1COCO    BRG1COCO13AG00000200000000001235356200000000000001500000000000000000000000032020Z01620180303X066000000
2MAIL0000064629BR23        BRG1        BRG1COCO    BRG1COCO13AG00000300000000001235737300000000000001600000000000000000000000043915Z01620180303X066000000
1MAIL0000064630BR23        BRG1        BRG1COCO    BRG1COCO13AG2018030100:00:00OR  01000002979903000297990364630                              2018030120180303Z016CIF201803030000000000057484NN0                                                  0
2MAIL0000064630BR23        BRG1        BRG1COCO    BRG1COCO13AG00000100000000001132019900000000000000100000000000000000000000002277Z01620180303X066004960
2MAIL0000064630BR23        BRG1        BRG1COCO    BRG1COCO13AG00000200000000001132020900000000000000100000000000000000000000002277Z01620180303X066004960
2MAIL0000064630BR23        BRG1        BRG1COCO    BRG1COCO13AG00000300000000001132034900000000000000500000000000000000000000008030Z01620180303X066015000
2MAIL0000064630BR23        BRG1        BRG1COCO    BRG1COCO13AG00000400000000001132035000000000000000500000000000000000000000008918Z01620180303X066015000
2MAIL0000064630BR23        BRG1        BRG1COCO    BRG1COCO13AG00000500000000001132035100000000000000500000000000000000000000008472Z01620180303X066015000
2MAIL0000064630BR23        BRG1        BRG1COCO    BRG1COCO13AG00000600000000001132213000000000000000100000000000000000000000003929Z01620180303X066004950
2MAIL0000064630BR23        BRG1        BRG1COCO    BRG1COCO13AG00000700000000001223975300000000000000100000000000000000000000004716Z01620180303X066004960
2MAIL0000064630BR23        BRG1        BRG1COCO    BRG1COCO13AG00000800000000001228274000000000000000100000000000000000000000004716Z01620180303X066004960
2MAIL0000064630BR23        BRG1        BRG1COCO    BRG1COCO13AG00000900000000001231189200000000000000100000000000000000000000004717Z01620180303X066004930
2MAIL0000064630BR23        BRG1        BRG1COCO    BRG1COCO13AG00001000000000001231231200000000000000100000000000000000000000004716Z01620180303X066004960
2MAIL0000064630BR23        BRG1        BRG1COCO    BRG1COCO13AG00001100000000001234705700000000000000100000000000000000000000004716Z01620180303X066004960
1MAIL0000064631BR23        BRG1        BRG1COCO    BRG1COCO13AG2018030100:00:00OR  01000002982469000298246964631                              2018030120180303Z016CIF201803030000000000009328NN0                                                  0
2MAIL0000064631BR23        BRG1        BRG1COCO    BRG1COCO13AG00000100000000001132200400000000000000500000000000000000000000009328Z01620180303X066000000
1MAIL0000064632BR23        BRG1        BRG1COCO    BRG1COCO13AG2018030100:00:00OR  01000003205152000320515264632                              2018030120180303Z016CIF201803030000000000017888NN0                                                  0
2MAIL0000064632BR23        BRG1        BRG1COCO    BRG1COCO13AG00000100000000001228100400000000000000500000000000000000000000011168Z01620180303X066015000
2MAIL0000064632BR23        BRG1        BRG1COCO    BRG1COCO13AG00000200000000001236512900000000000002000000000000000000000000003360Z01620180303X066000000
2MAIL0000064632BR23        BRG1        BRG1COCO    BRG1COCO13AG00000300000000001236515000000000000002000000000000000000000000003360Z01620180303X066000000
1MAIL0000064633BR23        BRG1        BRG1COCO    BRG1COCO13AG2018030100:00:00OR  01000003205152000320515264633                              2018030120180303Z016CIF201803030000000000004526NN0                                                  0
2MAIL0000064633BR23        BRG1        BRG1COCO    BRG1COCO13AG00000100000000001235356200000000000000200000000000000000000000004526Z01620180303X066000000
1MAIL0000064634BR23        BRG1        BRG1COCO    BRG1COCO13AG2018030100:00:00OR  01000005263589000526358964634                              2018030120180303Z016CIF201803030000000000009655NN0                                                  0
2MAIL0000064634BR23        BRG1        BRG1COCO    BRG1COCO13AG00000100000000001132033100000000000000200000000000000000000000003862Z01620180303X066000000
2MAIL0000064634BR23        BRG1        BRG1COCO    BRG1COCO13AG00000200000000001132036700000000000000200000000000000000000000003862Z01620180303X066000000
2MAIL0000064634BR23        BRG1        BRG1COCO    BRG1COCO13AG00000300000000001227395500000000000000100000000000000000000000001931Z01620180303X066000000
1MAIL0000064635BR23        BRG1        BRG1COCO    BRG1COCO13AG2018030100:00:00OR  01000005538709000553870964635                              2018030120180303Z016CIF201803030000000000030637NN0                                                  0
2MAIL0000064635BR23        BRG1        BRG1COCO    BRG1COCO13AG00000100000000001132033100000000000000100000000000000000000000001897Z01620180303X066000000
2MAIL0000064635BR23        BRG1        BRG1COCO    BRG1COCO13AG00000200000000001132036700000000000000100000000000000000000000001897Z01620180303X066000000
2MAIL0000064635BR23        BRG1        BRG1COCO    BRG1COCO13AG00000300000000001132200400000000000000200000000000000000000000003668Z01620180303X066000000
2MAIL0000064635BR23        BRG1        BRG1COCO    BRG1COCO13AG00000400000000001132213000000000000000100000000000000000000000003705Z01620180303X066004950
2MAIL0000064635BR23        BRG1        BRG1COCO    BRG1COCO13AG00000500000000001132213100000000000000100000000000000000000000003705Z01620180303X066004950
2MAIL0000064635BR23        BRG1        BRG1COCO    BRG1COCO13AG00000600000000001221415400000000000000200000000000000000000000008176Z01620180303X066015000
2MAIL0000064635BR23        BRG1        BRG1COCO    BRG1COCO13AG00000700000000001227395500000000000000300000000000000000000000005692Z01620180303X066000000
2MAIL0000064635BR23        BRG1        BRG1COCO    BRG1COCO13AG00000800000000001231389600000000000000100000000000000000000000001897Z01620180303X066000000
1MAIL0000064636BR23        BRG1        BRG1COCO    BRG1COCO13AG2018030100:00:00OR  01000002912900000291290064636                              2018030120180303Z016CIF201803030000000000014526NN0                                                  0
2MAIL0000064636BR23        BRG1        BRG1COCO    BRG1COCO13AG00000100000000001132036700000000000000300000000000000000000000004923Z01620180303X066015000
2MAIL0000064636BR23        BRG1        BRG1COCO    BRG1COCO13AG00000200000000001132200400000000000000400000000000000000000000007463Z01620180303X066000000
2MAIL0000064636BR23        BRG1        BRG1COCO    BRG1COCO13AG00000300000000001236512900000000000000600000000000000000000000001070Z01620180303X066005000
2MAIL0000064636BR23        BRG1        BRG1COCO    BRG1COCO13AG00000400000000001236515000000000000000600000000000000000000000001070Z01620180303X066005000
1MAIL0000064637BR23        BRG1        BRG1COCO    BRG1COCO13AG2018030100:00:00OR  01000003178727000317872764637                              2018030120180303Z016CIF201803030000000000045535NN0                                                  0
2MAIL0000064637BR23        BRG1        BRG1COCO    BRG1COCO13AG00000100000000001132019700000000000000100000000000000000000000002184Z01620180303X066005000
2MAIL0000064637BR23        BRG1        BRG1COCO    BRG1COCO13AG00000200000000001132019800000000000000100000000000000000000000002184Z01620180303X066005000
2MAIL0000064637BR23        BRG1        BRG1COCO    BRG1COCO13AG00000300000000001132036700000000000000600000000000000000000000009846Z01620180303X066015000
2MAIL0000064637BR23        BRG1        BRG1COCO    BRG1COCO13AG00000400000000001132200400000000000000400000000000000000000000007463Z01620180303X066000000
2MAIL0000064637BR23        BRG1        BRG1COCO    BRG1COCO13AG00000500000000001132213000000000000000100000000000000000000000003771Z01620180303X066004950
2MAIL0000064637BR23        BRG1        BRG1COCO    BRG1COCO13AG00000600000000001132400100000000000000200000000000000000000000006672Z01620180303X066005000
2MAIL0000064637BR23        BRG1        BRG1COCO    BRG1COCO13AG00000700000000001223975300000000000000200000000000000000000000009046Z01620180303X066005000
2MAIL0000064637BR23        BRG1        BRG1COCO    BRG1COCO13AG00000800000000001227735000000000000000200000000000000000000000004369Z01620180303X066005000
1MAIL0000064638BR23        BRG1        BRG1COCO    BRG1COCO13AG2018030100:00:00OR  01000003341113000334111364638                              2018030120180303Z016CIF201803030000000000019780NN0                                                  0
2MAIL0000064638BR23        BRG1        BRG1COCO    BRG1COCO13AG00000100000000001132033100000000000000300000000000000000000000004923Z01620180303X066015000
2MAIL0000064638BR23        BRG1        BRG1COCO    BRG1COCO13AG00000200000000001132036700000000000000300000000000000000000000004923Z01620180303X066015000
2MAIL0000064638BR23        BRG1        BRG1COCO    BRG1COCO13AG00000300000000001233098400000000000001400000000000000000000000004967Z01620180303X066009920
2MAIL0000064638BR23        BRG1        BRG1COCO    BRG1COCO13AG00000400000000001233098800000000000001400000000000000000000000004967Z01620180303X066009920
1MAIL0000064639BR23        BRG1        BRG1COCO    BRG1COCO13AG2018030100:00:00OR  01000003827867000382786764639                              2018030120180303Z016CIF201803030000000000022902NN0                                                  0
2MAIL0000064639BR23        BRG1        BRG1COCO    BRG1COCO13AG00000100000000001132004200000000000000500000000000000000000000006584Z01620180303X066000000
2MAIL0000064639BR23        BRG1        BRG1COCO    BRG1COCO13AG00000200000000001226089600000000000001200000000000000000000000004501Z01620180303X066000000
2MAIL0000064639BR23        BRG1        BRG1COCO    BRG1COCO13AG00000300000000001235699400000000000001000000000000000000000000003939Z01620180303X066000000
2MAIL0000064639BR23        BRG1        BRG1COCO    BRG1COCO13AG00000400000000001235699700000000000001000000000000000000000000003939Z01620180303X066000000
2MAIL0000064639BR23        BRG1        BRG1COCO    BRG1COCO13AG00000500000000001235699800000000000001000000000000000000000000003939Z01620180303X066000000
1MAIL0000064640BR23        BRG1        BRG1COCO    BRG1COCO13AG2018030100:00:00OR  01000003827867000382786764640                              2018030120180303Z859CIF201803030000000000101824NN0                                                  0
2MAIL0000064640BR23        BRG1        BRG1COCO    BRG1COCO13AG00000100000000001235356200000000000004500000000000000000000000101824Z85920180303X066000000
1MAIL0000064641BR23        BRG1        BRG1COCO    BRG1COCO13AG2018030100:00:00OR  01000002980033000298003364641                              2018030120180303Z016CIF201803030000000000106944NN0                                                  0
2MAIL0000064641BR23        BRG1        BRG1COCO    BRG1COCO13AG00000100000000001228090100000000000015000000000000000000000000106944Z01620180303X066004960
1MAIL0000064642BR23        BRG1        BRG1COCO    BRG1COCO13AG2018030100:00:00OR  01000002979919000297991964642                              2018030120180303Z016CIF201803030000000000106944NN0                                                  0
2MAIL0000064642BR23        BRG1        BRG1COCO    BRG1COCO13AG00000100000000001228090100000000000015000000000000000000000000106944Z01620180303X066004960
1MAIL0000064643BR23        BRG1        BRG1COCO    BRG1COCO13AG2018030100:00:00OR  01000000757549000075754964643                              2018030120180303Z016CIF201803030000000000097214NN0                                                  0
2MAIL0000064643BR23        BRG1        BRG1COCO    BRG1COCO13AG00000100000000001228090100000000000015000000000000000000000000097214Z01620180303X066004960
1MAIL0000064644BR23        BRG1        BRG1COCO    BRG1COCO13AG2018030100:00:00OR  01000003058076000305807664644                              2018030120180303Z859CIF201803030000000000057217NN0                                                  0
2MAIL0000064644BR23        BRG1        BRG1COCO    BRG1COCO13AG00000100000000001235356200000000000001500000000000000000000000033941Z85920180303X066000000
2MAIL0000064644BR23        BRG1        BRG1COCO    BRG1COCO13AG00000200000000001235737300000000000000800000000000000000000000023276Z85920180303X066000000
1MAIL0000064645BR23        BRG1        BRG1COCO    BRG1COCO13AG2018030100:00:00OR  01000003058076000305807664645                              2018030120180303Z016CIF201803030000000000022782NN0                                                  0
2MAIL0000064645BR23        BRG1        BRG1COCO    BRG1COCO13AG00000100000000001132213000000000000000100000000000000000000000003808Z01620180303X066004000
2MAIL0000064645BR23        BRG1        BRG1COCO    BRG1COCO13AG00000200000000001224882700000000000000100000000000000000000000002855Z01620180303X066005000
2MAIL0000064645BR23        BRG1        BRG1COCO    BRG1COCO13AG00000300000000001224882800000000000000100000000000000000000000002855Z01620180303X066005000
2MAIL0000064645BR23        BRG1        BRG1COCO    BRG1COCO13AG00000400000000001228100400000000000000300000000000000000000000006544Z01620180303X066017000
2MAIL0000064645BR23        BRG1        BRG1COCO    BRG1COCO13AG00000500000000001236512900000000000002000000000000000000000000003360Z01620180303X066000000
2MAIL0000064645BR23        BRG1        BRG1COCO    BRG1COCO13AG00000600000000001236515000000000000002000000000000000000000000003360Z01620180303X066000000
1MAIL0000064646BR23        BRG1        BRG1COCO    BRG1COCO13AG2018030100:00:00OR  01000005446803000544680364646                              2018030120180303Z016CIF201803030000000000018451NN0                                                  0
2MAIL0000064646BR23        BRG1        BRG1COCO    BRG1COCO13AG00000100000000001132200400000000000000200000000000000000000000003550Z01620180303X066004850
2MAIL0000064646BR23        BRG1        BRG1COCO    BRG1COCO13AG00000200000000001233081900000000000001400000000000000000000000004967Z01620180303X066009920
2MAIL0000064646BR23        BRG1        BRG1COCO    BRG1COCO13AG00000300000000001233098400000000000001400000000000000000000000004967Z01620180303X066009920
2MAIL0000064646BR23        BRG1        BRG1COCO    BRG1COCO13AG00000400000000001233154200000000000001400000000000000000000000004967Z01620180303X066009920
1MAIL0000064647BR23        BRG1        BRG1COCO    BRG1COCO13AG2018030100:00:00OR  01000003059543000305954364647                              2018030120180303Z016CIF201803030000000000062281NN0                                                  0
2MAIL0000064647BR23        BRG1        BRG1COCO    BRG1COCO13AG00000100000000001132033100000000000000200000000000000000000000003420Z01620180303X066015000
2MAIL0000064647BR23        BRG1        BRG1COCO    BRG1COCO13AG00000200000000001132036700000000000000500000000000000000000000008550Z01620180303X066015000
2MAIL0000064647BR23        BRG1        BRG1COCO    BRG1COCO13AG00000300000000001215533700000000000000300000000000000000000000005130Z01620180303X066015000
2MAIL0000064647BR23        BRG1        BRG1COCO    BRG1COCO13AG00000400000000001226089600000000000001200000000000000000000000004221Z01620180303X066010000
2MAIL0000064647BR23        BRG1        BRG1COCO    BRG1COCO13AG00000500000000001233081900000000000001400000000000000000000000005171Z01620180303X066010000
2MAIL0000064647BR23        BRG1        BRG1COCO    BRG1COCO13AG00000600000000001233098400000000000001400000000000000000000000005171Z01620180303X066010000
2MAIL0000064647BR23        BRG1        BRG1COCO    BRG1COCO13AG00000700000000001233098500000000000001400000000000000000000000005171Z01620180303X066010000
2MAIL0000064647BR23        BRG1        BRG1COCO    BRG1COCO13AG00000800000000001233098600000000000001400000000000000000000000005171Z01620180303X066010000
2MAIL0000064647BR23        BRG1        BRG1COCO    BRG1COCO13AG00000900000000001233098800000000000001400000000000000000000000005171Z01620180303X066010000
2MAIL0000064647BR23        BRG1        BRG1COCO    BRG1COCO13AG00001000000000001233099500000000000001400000000000000000000000005171Z01620180303X066010000
2MAIL0000064647BR23        BRG1        BRG1COCO    BRG1COCO13AG00001100000000001233154200000000000001400000000000000000000000004967Z01620180303X066013560
2MAIL0000064647BR23        BRG1        BRG1COCO    BRG1COCO13AG00001200000000001234708700000000000001400000000000000000000000004967Z01620180303X066013560
1MAIL0000064648BR23        BRG1        BRG1COCO    BRG1COCO13AG2018030100:00:00OR  01000005329665000532966564648                              2018030120180303Z016CIF201803030000000000012119NN0                                                  0
2MAIL0000064648BR23        BRG1        BRG1COCO    BRG1COCO13AG00000100000000001132018300000000000000100000000000000000000000003598Z01620180303X066025000
2MAIL0000064648BR23        BRG1        BRG1COCO    BRG1COCO13AG00000200000000001132033100000000000000100000000000000000000000001641Z01620180303X066015000
2MAIL0000064648BR23        BRG1        BRG1COCO    BRG1COCO13AG00000300000000001132036700000000000000100000000000000000000000001641Z01620180303X066015000
2MAIL0000064648BR23        BRG1        BRG1COCO    BRG1COCO13AG00000400000000001215533700000000000000100000000000000000000000001641Z01620180303X066015000
2MAIL0000064648BR23        BRG1        BRG1COCO    BRG1COCO13AG00000500000000001221415400000000000000100000000000000000000000003598Z01620180303X066025000
1MAIL0000064649BR23        BRG1        BRG1COCO    BRG1COCO13AG2018030100:00:00OR  01000005449639000544963964649                              2018030120180303Z016CIF201803030000000000014021NN0                                                  0
2MAIL0000064649BR23        BRG1        BRG1COCO    BRG1COCO13AG00000100000000001226089600000000000001200000000000000000000000004087Z01620180303X066009200
2MAIL0000064649BR23        BRG1        BRG1COCO    BRG1COCO13AG00000200000000001233098400000000000001400000000000000000000000004967Z01620180303X066009920
2MAIL0000064649BR23        BRG1        BRG1COCO    BRG1COCO13AG00000300000000001233154200000000000001400000000000000000000000004967Z01620180303X066009920
1MAIL0000064650BR23        BRG1        BRG1COCO    BRG1COCO13AG2018030100:00:00OR  01000005335550000533555064650                              2018030120180303Z016CIF201803030000000000048174NN0                                                  0
2MAIL0000064650BR23        BRG1        BRG1COCO    BRG1COCO13AG00000100000000001132004000000000000002000000000000000000000000016463Z01620180303X066005000
2MAIL0000064650BR23        BRG1        BRG1COCO    BRG1COCO13AG00000200000000001132019800000000000000100000000000000000000000002184Z01620180303X066005000
2MAIL0000064650BR23        BRG1        BRG1COCO    BRG1COCO13AG00000300000000001132019900000000000000100000000000000000000000002184Z01620180303X066005000
2MAIL0000064650BR23        BRG1        BRG1COCO    BRG1COCO13AG00000400000000001132020900000000000000100000000000000000000000002184Z01620180303X066005000
2MAIL0000064650BR23        BRG1        BRG1COCO    BRG1COCO13AG00000500000000001132030800000000000000400000000000000000000000011850Z01620180303X066018000
2MAIL0000064650BR23        BRG1        BRG1COCO    BRG1COCO13AG00000600000000001132033900000000000000200000000000000000000000006498Z01620180303X066018000
2MAIL0000064650BR23        BRG1        BRG1COCO    BRG1COCO13AG00000700000000001132400100000000000000100000000000000000000000003336Z01620180303X066005000
2MAIL0000064650BR23        BRG1        BRG1COCO    BRG1COCO13AG00000800000000001215533700000000000000100000000000000000000000001834Z01620180303X066005000
2MAIL0000064650BR23        BRG1        BRG1COCO    BRG1COCO13AG00000900000000001231389600000000000000100000000000000000000000001641Z01620180303X066015000
1MAIL0000064651BR23        BRG1        BRG1COCO    BRG1COCO13AG2018030100:00:00OR  01000002979966000297996664651                              2018030120180303Z016CIF201803030000000000111431NN0                                                  0
2MAIL0000064651BR23        BRG1        BRG1COCO    BRG1COCO13AG00000100000000001228090100000000000015000000000000000000000000111431Z01620180303X066004960
1MAIL0000064652BR23        BRG1        BRG1COCO    BRG1COCO13AG2018030100:00:00OR  01000002906908000290690864652                              2018030120180303Z016CIF201803030000000000052516NN0                                                  0
2MAIL0000064652BR23        BRG1        BRG1COCO    BRG1COCO13AG00000100000000001132033100000000000000200000000000000000000000003420Z01620180303X066015000
2MAIL0000064652BR23        BRG1        BRG1COCO    BRG1COCO13AG00000200000000001132036700000000000000200000000000000000000000003420Z01620180303X066015000
2MAIL0000064652BR23        BRG1        BRG1COCO    BRG1COCO13AG00000300000000001132200400000000000000100000000000000000000000001850Z01620180303X066004850
2MAIL0000064652BR23        BRG1        BRG1COCO    BRG1COCO13AG00000400000000001132213000000000000000100000000000000000000000003929Z01620180303X066004950
2MAIL0000064652BR23        BRG1        BRG1COCO    BRG1COCO13AG00000500000000001215533700000000000000200000000000000000000000003420Z01620180303X066015000
2MAIL0000064652BR23        BRG1        BRG1COCO    BRG1COCO13AG00000600000000001227395500000000000000200000000000000000000000003420Z01620180303X066015000
2MAIL0000064652BR23        BRG1        BRG1COCO    BRG1COCO13AG00000700000000001231389600000000000000200000000000000000000000003420Z01620180303X066015000
2MAIL0000064652BR23        BRG1        BRG1COCO    BRG1COCO13AG00000800000000001233098400000000000001400000000000000000000000005171Z01620180303X066010000
2MAIL0000064652BR23        BRG1        BRG1COCO    BRG1COCO13AG00000900000000001233098600000000000001400000000000000000000000005171Z01620180303X066010000
2MAIL0000064652BR23        BRG1        BRG1COCO    BRG1COCO13AG00001000000000001233099500000000000001400000000000000000000000004967Z01620180303X066013560
2MAIL0000064652BR23        BRG1        BRG1COCO    BRG1COCO13AG00001100000000001233695100000000000000100000000000000000000000001710Z01620180303X066015000
2MAIL0000064652BR23        BRG1        BRG1COCO    BRG1COCO13AG00001200000000001234705700000000000000100000000000000000000000004713Z01620180303X066005000
2MAIL0000064652BR23        BRG1        BRG1COCO    BRG1COCO13AG00001300000000001234705800000000000000100000000000000000000000004713Z01620180303X066005000
2MAIL0000064652BR23        BRG1        BRG1COCO    BRG1COCO13AG00001400000000001236512900000000000001000000000000000000000000001596Z01620180303X066005000
2MAIL0000064652BR23        BRG1        BRG1COCO    BRG1COCO13AG00001500000000001236515000000000000001000000000000000000000000001596Z01620180303X066005000
1MAIL0000064653BR23        BRG1        BRG1COCO    BRG1COCO13AG2018030100:00:00OR  01000002979965000297996564653                              2018030120180303Z016CIF201803030000000000163065NN0                                                  0
2MAIL0000064653BR23        BRG1        BRG1COCO    BRG1COCO13AG00000100000000001132004000000000000001000000000000000000000000007483Z01620180303X066005000
2MAIL0000064653BR23        BRG1        BRG1COCO    BRG1COCO13AG00000200000000001132030900000000000000400000000000000000000000012831Z01620180303X066018000
2MAIL0000064653BR23        BRG1        BRG1COCO    BRG1COCO13AG00000300000000001132033900000000000000400000000000000000000000013652Z01620180303X066018000
2MAIL0000064653BR23        BRG1        BRG1COCO    BRG1COCO13AG00000400000000001132034900000000000000500000000000000000000000007006Z01620180303X066015000
2MAIL0000064653BR23        BRG1        BRG1COCO    BRG1COCO13AG00000500000000001132035000000000000000500000000000000000000000007779Z01620180303X066015000
2MAIL0000064653BR23        BRG1        BRG1COCO    BRG1COCO13AG00000600000000001132035100000000000000500000000000000000000000007392Z01620180303X066015000
2MAIL0000064653BR23        BRG1        BRG1COCO    BRG1COCO13AG00000700000000001132213000000000000000400000000000000000000000013711Z01620180303X066004950
2MAIL0000064653BR23        BRG1        BRG1COCO    BRG1COCO13AG00000800000000001132213100000000000000400000000000000000000000013711Z01620180303X066004950
2MAIL0000064653BR23        BRG1        BRG1COCO    BRG1COCO13AG00000900000000001223975300000000000000100000000000000000000000004112Z01620180303X066005000
2MAIL0000064653BR23        BRG1        BRG1COCO    BRG1COCO13AG00001000000000001228100400000000000001000000000000000000000000021546Z01620180303X066018000
2MAIL0000064653BR23        BRG1        BRG1COCO    BRG1COCO13AG00001100000000001231189200000000000000100000000000000000000000004112Z01620180303X066005000
2MAIL0000064653BR23        BRG1        BRG1COCO    BRG1COCO13AG00001200000000001231231200000000000000100000000000000000000000004112Z01620180303X066005000
2MAIL0000064653BR23        BRG1        BRG1COCO    BRG1COCO13AG00001300000000001233081900000000000002800000000000000000000000009348Z01620180303X066006750
2MAIL0000064653BR23        BRG1        BRG1COCO    BRG1COCO13AG00001400000000001233098400000000000002800000000000000000000000009348Z01620180303X066006750
2MAIL0000064653BR23        BRG1        BRG1COCO    BRG1COCO13AG00001500000000001233098500000000000001400000000000000000000000004675Z01620180303X066006750
