1MAIL0000065889BR23        BRG1        BRG1COCO    BRG1COCO13AG2018030800:00:00OR  01000003855327000385532765889                              2018030820180310Z016CIF201803100000000000032084NN0                                                  0
2MAIL0000065889BR23        BRG1        BRG1COCO    BRG1COCO13AG00000100000000001132033100000000000000100000000000000000000000001641Z01620180310X066015000
2MAIL0000065889BR23        BRG1        BRG1COCO    BRG1COCO13AG00000200000000001132036700000000000000100000000000000000000000001641Z01620180310X066015000
2MAIL0000065889BR23        BRG1        BRG1COCO    BRG1COCO13AG00000300000000001132200400000000000000100000000000000000000000001775Z01620180310X066004850
2MAIL0000065889BR23        BRG1        BRG1COCO    BRG1COCO13AG00000400000000001228090100000000000003000000000000000000000000022505Z01620180310X066000000
2MAIL0000065889BR23        BRG1        BRG1COCO    BRG1COCO13AG00000500000000001231231200000000000000100000000000000000000000004522Z01620180310X066005000
